{
  "_format": "hh-sol-artifact-1",
  "contractName": "BasicPlugin",
  "sourceName": "contracts/BasicPlugin.sol",
  "abi": [
    {
      "inputs": [],
      "name": "upgrade",
      "outputs": [
        {
          "internalType": "bool",
          "name": "",
          "type": "bool"
        }
      ],
      "stateMutability": "nonpayable",
      "type": "function"
    }
  ],
  "bytecode": "0x608060405234801561001057600080fd5b50600160008190555060b8806100276000396000f3fe6080604052348015600f57600080fd5b506004361060285760003560e01c8063d55ec69714602d575b600080fd5b60336047565b604051603e91906069565b60405180910390f35b60006001905090565b60008115159050919050565b6063816050565b82525050565b6000602082019050607c6000830184605c565b9291505056fea2646970667358221220b0f1acc0e29fe71ba64eac73266a9a1e24e896770e2dff55db106f72c5ea457e64736f6c63430008120033",
  "linkReferences": {},
  "deployedLinkReferences": {}
}