{
  "_format": "hh-sol-artifact-1",
  "contractName": "Feepool",
  "sourceName": "contracts/FeePool.sol",
  "abi": [
    {
      "anonymous": false,
      "inputs": [
        {
          "indexed": true,
          "internalType": "address",
          "name": "previousOwner",
          "type": "address"
        },
        {
          "indexed": true,
          "internalType": "address",
          "name": "newOwner",
          "type": "address"
        }
      ],
      "name": "OwnershipTransferred",
      "type": "event"
    },
    {
      "anonymous": false,
      "inputs": [
        {
          "indexed": true,
          "internalType": "address",
          "name": "receiver",
          "type": "address"
        },
        {
          "indexed": false,
          "internalType": "uint256",
          "name": "amount",
          "type": "uint256"
        }
      ],
      "name": "WithdrawnEther",
      "type": "event"
    },
    {
      "anonymous": false,
      "inputs": [
        {
          "indexed": true,
          "internalType": "address",
          "name": "receiver",
          "type": "address"
        },
        {
          "indexed": true,
          "internalType": "address",
          "name": "token",
          "type": "address"
        },
        {
          "indexed": false,
          "internalType": "uint256",
          "name": "amount",
          "type": "uint256"
        }
      ],
      "name": "WithdrawnToken",
      "type": "event"
    },
    {
      "inputs": [],
      "name": "owner",
      "outputs": [
        {
          "internalType": "address",
          "name": "",
          "type": "address"
        }
      ],
      "stateMutability": "view",
      "type": "function"
    },
    {
      "inputs": [],
      "name": "renounceOwnership",
      "outputs": [],
      "stateMutability": "nonpayable",
      "type": "function"
    },
    {
      "inputs": [
        {
          "internalType": "address",
          "name": "newOwner",
          "type": "address"
        }
      ],
      "name": "transferOwnership",
      "outputs": [],
      "stateMutability": "nonpayable",
      "type": "function"
    },
    {
      "inputs": [
        {
          "internalType": "address",
          "name": "to_",
          "type": "address"
        }
      ],
      "name": "withdrawEther",
      "outputs": [],
      "stateMutability": "nonpayable",
      "type": "function"
    },
    {
      "inputs": [
        {
          "internalType": "address",
          "name": "to_",
          "type": "address"
        },
        {
          "internalType": "address[]",
          "name": "token_",
          "type": "address[]"
        }
      ],
      "name": "withdrawToken",
      "outputs": [],
      "stateMutability": "nonpayable",
      "type": "function"
    }
  ],
  "bytecode": "0x608060405234801561001057600080fd5b5061001a3361001f565b61006f565b600080546001600160a01b038381166001600160a01b0319831681178455604051919092169283917f8be0079c531659141344cd1fd0a4f28419497f9722a3daafe3b4186f6b6457e09190a35050565b6107dc8061007e6000396000f3fe608060405234801561001057600080fd5b50600436106100675760003560e01c80638feeb214116100505780638feeb214146100a2578063af933b57146100b5578063f2fde38b146100c857600080fd5b8063715018a61461006c5780638da5cb5b14610076575b600080fd5b6100746100db565b005b6000546040805173ffffffffffffffffffffffffffffffffffffffff9092168252519081900360200190f35b6100746100b0366004610694565b6100ef565b6100746100c336600461071a565b6103a0565b6100746100d636600461071a565b6104be565b6100e3610575565b6100ed60006105f6565b565b6100f7610575565b73ffffffffffffffffffffffffffffffffffffffff8316610179576040517f08c379a000000000000000000000000000000000000000000000000000000000815260206004820152601660248201527f446f6e277420646973636172642074726561757279210000000000000000000060448201526064015b60405180910390fd5b8060005b818110156103995760008484838181106101995761019961073c565b90506020020160208101906101ae919061071a565b6040517f70a0823100000000000000000000000000000000000000000000000000000000815230600482015273ffffffffffffffffffffffffffffffffffffffff91909116906370a0823190602401602060405180830381865afa15801561021a573d6000803e3d6000fd5b505050506040513d601f19601f8201168201806040525081019061023e919061076b565b90508484838181106102525761025261073c565b9050602002016020810190610267919061071a565b6040517fa9059cbb00000000000000000000000000000000000000000000000000000000815273ffffffffffffffffffffffffffffffffffffffff888116600483015260248201849052919091169063a9059cbb906044016020604051808303816000875af11580156102de573d6000803e3d6000fd5b505050506040513d601f19601f820116820180604052508101906103029190610784565b508484838181106103155761031561073c565b905060200201602081019061032a919061071a565b73ffffffffffffffffffffffffffffffffffffffff168673ffffffffffffffffffffffffffffffffffffffff167f11dd463c4f2edd676b85f050130c7ab2f5832f52becb5444b09a92404aa1498a8360405161038891815260200190565b60405180910390a35060010161017d565b5050505050565b6103a8610575565b73ffffffffffffffffffffffffffffffffffffffff8116610425576040517f08c379a000000000000000000000000000000000000000000000000000000000815260206004820152601660248201527f446f6e27742064697363617264207472656175727921000000000000000000006044820152606401610170565b604051479073ffffffffffffffffffffffffffffffffffffffff83169082156108fc029083906000818181858888f1935050505015801561046a573d6000803e3d6000fd5b508173ffffffffffffffffffffffffffffffffffffffff167e427c0f965e4f144086694ed3a411df394e3dfa51cf4e74d9a70375bab91bb0826040516104b291815260200190565b60405180910390a25050565b6104c6610575565b73ffffffffffffffffffffffffffffffffffffffff8116610569576040517f08c379a000000000000000000000000000000000000000000000000000000000815260206004820152602660248201527f4f776e61626c653a206e6577206f776e657220697320746865207a65726f206160448201527f64647265737300000000000000000000000000000000000000000000000000006064820152608401610170565b610572816105f6565b50565b60005473ffffffffffffffffffffffffffffffffffffffff1633146100ed576040517f08c379a000000000000000000000000000000000000000000000000000000000815260206004820181905260248201527f4f776e61626c653a2063616c6c6572206973206e6f7420746865206f776e65726044820152606401610170565b6000805473ffffffffffffffffffffffffffffffffffffffff8381167fffffffffffffffffffffffff0000000000000000000000000000000000000000831681178455604051919092169283917f8be0079c531659141344cd1fd0a4f28419497f9722a3daafe3b4186f6b6457e09190a35050565b803573ffffffffffffffffffffffffffffffffffffffff8116811461068f57600080fd5b919050565b6000806000604084860312156106a957600080fd5b6106b28461066b565b9250602084013567ffffffffffffffff808211156106cf57600080fd5b818601915086601f8301126106e357600080fd5b8135818111156106f257600080fd5b8760208260051b850101111561070757600080fd5b6020830194508093505050509250925092565b60006020828403121561072c57600080fd5b6107358261066b565b9392505050565b7f4e487b7100000000000000000000000000000000000000000000000000000000600052603260045260246000fd5b60006020828403121561077d57600080fd5b5051919050565b60006020828403121561079657600080fd5b8151801515811461073557600080fdfea2646970667358221220dd0c53ecf087cfd2fb08426c36bb69b678601e0be91106f6af06ddb152c11ead64736f6c63430008120033",
  "linkReferences": {},
  "deployedLinkReferences": {}
}