{
  "_format": "hh-sol-artifact-1",
  "contractName": "FeePool",
  "sourceName": "contracts/FeePool.sol",
  "abi": [
    {
      "anonymous": false,
      "inputs": [
        {
          "indexed": true,
          "internalType": "address",
          "name": "previousOwner",
          "type": "address"
        },
        {
          "indexed": true,
          "internalType": "address",
          "name": "newOwner",
          "type": "address"
        }
      ],
      "name": "OwnershipTransferred",
      "type": "event"
    },
    {
      "anonymous": false,
      "inputs": [
        {
          "indexed": true,
          "internalType": "address",
          "name": "receiver",
          "type": "address"
        },
        {
          "indexed": false,
          "internalType": "uint256",
          "name": "amount",
          "type": "uint256"
        }
      ],
      "name": "WithdrawnEther",
      "type": "event"
    },
    {
      "anonymous": false,
      "inputs": [
        {
          "indexed": true,
          "internalType": "address",
          "name": "receiver",
          "type": "address"
        },
        {
          "indexed": true,
          "internalType": "address",
          "name": "token",
          "type": "address"
        },
        {
          "indexed": false,
          "internalType": "uint256",
          "name": "amount",
          "type": "uint256"
        }
      ],
      "name": "WithdrawnToken",
      "type": "event"
    },
    {
      "inputs": [],
      "name": "owner",
      "outputs": [
        {
          "internalType": "address",
          "name": "",
          "type": "address"
        }
      ],
      "stateMutability": "view",
      "type": "function"
    },
    {
      "inputs": [],
      "name": "renounceOwnership",
      "outputs": [],
      "stateMutability": "nonpayable",
      "type": "function"
    },
    {
      "inputs": [
        {
          "internalType": "address",
          "name": "newOwner",
          "type": "address"
        }
      ],
      "name": "transferOwnership",
      "outputs": [],
      "stateMutability": "nonpayable",
      "type": "function"
    },
    {
      "inputs": [
        {
          "internalType": "address",
          "name": "to_",
          "type": "address"
        }
      ],
      "name": "withdrawEther",
      "outputs": [],
      "stateMutability": "nonpayable",
      "type": "function"
    },
    {
      "inputs": [
        {
          "internalType": "address",
          "name": "to_",
          "type": "address"
        },
        {
          "internalType": "address[]",
          "name": "token_",
          "type": "address[]"
        }
      ],
      "name": "withdrawToken",
      "outputs": [],
      "stateMutability": "nonpayable",
      "type": "function"
    },
    {
      "stateMutability": "payable",
      "type": "receive"
    }
  ],
  "bytecode": "0x608060405234801561001057600080fd5b5061001a3361001f565b61006f565b600080546001600160a01b038381166001600160a01b0319831681178455604051919092169283917f8be0079c531659141344cd1fd0a4f28419497f9722a3daafe3b4186f6b6457e09190a35050565b61081b8061007e6000396000f3fe60806040526004361061005e5760003560e01c80638feeb214116100435780638feeb214146100ba578063af933b57146100da578063f2fde38b146100fa57600080fd5b8063715018a61461006a5780638da5cb5b1461008157600080fd5b3661006557005b600080fd5b34801561007657600080fd5b5061007f61011a565b005b34801561008d57600080fd5b506000546040805173ffffffffffffffffffffffffffffffffffffffff9092168252519081900360200190f35b3480156100c657600080fd5b5061007f6100d53660046106d3565b61012e565b3480156100e657600080fd5b5061007f6100f5366004610759565b6103df565b34801561010657600080fd5b5061007f610115366004610759565b6104fd565b6101226105b4565b61012c6000610635565b565b6101366105b4565b73ffffffffffffffffffffffffffffffffffffffff83166101b8576040517f08c379a000000000000000000000000000000000000000000000000000000000815260206004820152601660248201527f446f6e277420646973636172642074726561757279210000000000000000000060448201526064015b60405180910390fd5b8060005b818110156103d85760008484838181106101d8576101d861077b565b90506020020160208101906101ed9190610759565b6040517f70a0823100000000000000000000000000000000000000000000000000000000815230600482015273ffffffffffffffffffffffffffffffffffffffff91909116906370a0823190602401602060405180830381865afa158015610259573d6000803e3d6000fd5b505050506040513d601f19601f8201168201806040525081019061027d91906107aa565b90508484838181106102915761029161077b565b90506020020160208101906102a69190610759565b6040517fa9059cbb00000000000000000000000000000000000000000000000000000000815273ffffffffffffffffffffffffffffffffffffffff888116600483015260248201849052919091169063a9059cbb906044016020604051808303816000875af115801561031d573d6000803e3d6000fd5b505050506040513d601f19601f8201168201806040525081019061034191906107c3565b508484838181106103545761035461077b565b90506020020160208101906103699190610759565b73ffffffffffffffffffffffffffffffffffffffff168673ffffffffffffffffffffffffffffffffffffffff167f11dd463c4f2edd676b85f050130c7ab2f5832f52becb5444b09a92404aa1498a836040516103c791815260200190565b60405180910390a3506001016101bc565b5050505050565b6103e76105b4565b73ffffffffffffffffffffffffffffffffffffffff8116610464576040517f08c379a000000000000000000000000000000000000000000000000000000000815260206004820152601660248201527f446f6e277420646973636172642074726561757279210000000000000000000060448201526064016101af565b604051479073ffffffffffffffffffffffffffffffffffffffff83169082156108fc029083906000818181858888f193505050501580156104a9573d6000803e3d6000fd5b508173ffffffffffffffffffffffffffffffffffffffff167e427c0f965e4f144086694ed3a411df394e3dfa51cf4e74d9a70375bab91bb0826040516104f191815260200190565b60405180910390a25050565b6105056105b4565b73ffffffffffffffffffffffffffffffffffffffff81166105a8576040517f08c379a000000000000000000000000000000000000000000000000000000000815260206004820152602660248201527f4f776e61626c653a206e6577206f776e657220697320746865207a65726f206160448201527f646472657373000000000000000000000000000000000000000000000000000060648201526084016101af565b6105b181610635565b50565b60005473ffffffffffffffffffffffffffffffffffffffff16331461012c576040517f08c379a000000000000000000000000000000000000000000000000000000000815260206004820181905260248201527f4f776e61626c653a2063616c6c6572206973206e6f7420746865206f776e657260448201526064016101af565b6000805473ffffffffffffffffffffffffffffffffffffffff8381167fffffffffffffffffffffffff0000000000000000000000000000000000000000831681178455604051919092169283917f8be0079c531659141344cd1fd0a4f28419497f9722a3daafe3b4186f6b6457e09190a35050565b803573ffffffffffffffffffffffffffffffffffffffff811681146106ce57600080fd5b919050565b6000806000604084860312156106e857600080fd5b6106f1846106aa565b9250602084013567ffffffffffffffff8082111561070e57600080fd5b818601915086601f83011261072257600080fd5b81358181111561073157600080fd5b8760208260051b850101111561074657600080fd5b6020830194508093505050509250925092565b60006020828403121561076b57600080fd5b610774826106aa565b9392505050565b7f4e487b7100000000000000000000000000000000000000000000000000000000600052603260045260246000fd5b6000602082840312156107bc57600080fd5b5051919050565b6000602082840312156107d557600080fd5b8151801515811461077457600080fdfea26469706673582212200c9d1ddd8ead4da3bdf6ddb563d093c3cde3cb42037d151c5c88117745fe5de764736f6c63430008120033",
  "linkReferences": {},
  "deployedLinkReferences": {}
}