{
  "_format": "hh-sol-artifact-1",
  "contractName": "FactoryV1",
  "sourceName": "contracts/FactoryV1.sol",
  "abi": [
    {
      "anonymous": false,
      "inputs": [
        {
          "indexed": true,
          "internalType": "address",
          "name": "sender",
          "type": "address"
        },
        {
          "indexed": true,
          "internalType": "bytes32",
          "name": "templateName",
          "type": "bytes32"
        },
        {
          "indexed": true,
          "internalType": "address",
          "name": "deployedAddr",
          "type": "address"
        },
        {
          "indexed": false,
          "internalType": "bytes",
          "name": "abiArgs",
          "type": "bytes"
        }
      ],
      "name": "Deployed",
      "type": "event"
    },
    {
      "anonymous": false,
      "inputs": [
        {
          "indexed": true,
          "internalType": "address",
          "name": "previousOwner",
          "type": "address"
        },
        {
          "indexed": true,
          "internalType": "address",
          "name": "newOwner",
          "type": "address"
        }
      ],
      "name": "OwnershipTransferred",
      "type": "event"
    },
    {
      "anonymous": false,
      "inputs": [
        {
          "indexed": true,
          "internalType": "bytes32",
          "name": "templateName",
          "type": "bytes32"
        },
        {
          "indexed": true,
          "internalType": "address",
          "name": "templateAddr",
          "type": "address"
        }
      ],
      "name": "TemplateAdded",
      "type": "event"
    },
    {
      "anonymous": false,
      "inputs": [
        {
          "indexed": true,
          "internalType": "bytes32",
          "name": "templateName",
          "type": "bytes32"
        }
      ],
      "name": "TemplateDeleted",
      "type": "event"
    },
    {
      "anonymous": false,
      "inputs": [
        {
          "indexed": true,
          "internalType": "address",
          "name": "receiver",
          "type": "address"
        },
        {
          "indexed": false,
          "internalType": "uint256",
          "name": "amount",
          "type": "uint256"
        }
      ],
      "name": "WithdrawnEther",
      "type": "event"
    },
    {
      "anonymous": false,
      "inputs": [
        {
          "indexed": true,
          "internalType": "address",
          "name": "receiver",
          "type": "address"
        },
        {
          "indexed": true,
          "internalType": "address",
          "name": "token",
          "type": "address"
        },
        {
          "indexed": false,
          "internalType": "uint256",
          "name": "amount",
          "type": "uint256"
        }
      ],
      "name": "WithdrawnToken",
      "type": "event"
    },
    {
      "inputs": [
        {
          "internalType": "bytes32",
          "name": "templateName",
          "type": "bytes32"
        },
        {
          "internalType": "address",
          "name": "templateAddr",
          "type": "address"
        }
      ],
      "name": "addTemplate",
      "outputs": [],
      "stateMutability": "nonpayable",
      "type": "function"
    },
    {
      "inputs": [
        {
          "internalType": "bytes32",
          "name": "templateName",
          "type": "bytes32"
        },
        {
          "internalType": "address",
          "name": "tokenAddr",
          "type": "address"
        },
        {
          "internalType": "uint256",
          "name": "distributeAmount",
          "type": "uint256"
        },
        {
          "internalType": "bytes",
          "name": "abiArgs",
          "type": "bytes"
        }
      ],
      "name": "deploySaleClone",
      "outputs": [
        {
          "internalType": "address",
          "name": "deployedAddr",
          "type": "address"
        }
      ],
      "stateMutability": "nonpayable",
      "type": "function"
    },
    {
      "inputs": [],
      "name": "owner",
      "outputs": [
        {
          "internalType": "address",
          "name": "",
          "type": "address"
        }
      ],
      "stateMutability": "view",
      "type": "function"
    },
    {
      "inputs": [
        {
          "internalType": "bytes32",
          "name": "templateName",
          "type": "bytes32"
        }
      ],
      "name": "removeTemplate",
      "outputs": [],
      "stateMutability": "nonpayable",
      "type": "function"
    },
    {
      "inputs": [],
      "name": "renounceOwnership",
      "outputs": [],
      "stateMutability": "nonpayable",
      "type": "function"
    },
    {
      "inputs": [
        {
          "internalType": "bytes32",
          "name": "",
          "type": "bytes32"
        }
      ],
      "name": "templates",
      "outputs": [
        {
          "internalType": "address",
          "name": "",
          "type": "address"
        }
      ],
      "stateMutability": "view",
      "type": "function"
    },
    {
      "inputs": [
        {
          "internalType": "address",
          "name": "newOwner",
          "type": "address"
        }
      ],
      "name": "transferOwnership",
      "outputs": [],
      "stateMutability": "nonpayable",
      "type": "function"
    },
    {
      "inputs": [
        {
          "internalType": "address",
          "name": "to",
          "type": "address"
        }
      ],
      "name": "withdrawEther",
      "outputs": [],
      "stateMutability": "nonpayable",
      "type": "function"
    },
    {
      "inputs": [
        {
          "internalType": "address",
          "name": "to",
          "type": "address"
        },
        {
          "internalType": "address[]",
          "name": "token",
          "type": "address[]"
        }
      ],
      "name": "withdrawToken",
      "outputs": [],
      "stateMutability": "nonpayable",
      "type": "function"
    },
    {
      "stateMutability": "payable",
      "type": "receive"
    }
  ],
  "bytecode": "0x6080604052600060035534801561001557600080fd5b50600160005561002433610029565b61007b565b600180546001600160a01b038381166001600160a01b0319831681179093556040519116919082907f8be0079c531659141344cd1fd0a4f28419497f9722a3daafe3b4186f6b6457e090600090a35050565b6111a38061008a6000396000f3fe60806040526004361061009a5760003560e01c80637213d2e2116100695780638feeb2141161004e5780638feeb214146101b4578063af933b57146101d4578063f2fde38b146101f457600080fd5b80637213d2e2146101695780638da5cb5b1461018957600080fd5b80630a631576146100a657806347e09a0b146101125780635e4e71ca14610134578063715018a61461015457600080fd5b366100a157005b600080fd5b3480156100b257600080fd5b506100e96100c1366004610e9a565b60026020526000908152604090205473ffffffffffffffffffffffffffffffffffffffff1681565b60405173ffffffffffffffffffffffffffffffffffffffff909116815260200160405180910390f35b34801561011e57600080fd5b5061013261012d366004610e9a565b610214565b005b34801561014057600080fd5b506100e961014f366004610edc565b61027a565b34801561016057600080fd5b50610132610653565b34801561017557600080fd5b50610132610184366004610f70565b610667565b34801561019557600080fd5b5060015473ffffffffffffffffffffffffffffffffffffffff166100e9565b3480156101c057600080fd5b506101326101cf366004610f9c565b610784565b3480156101e057600080fd5b506101326101ef366004611022565b610a28565b34801561020057600080fd5b5061013261020f366004611022565b610ba9565b61021c610c43565b60008181526002602052604080822080547fffffffffffffffffffffffff00000000000000000000000000000000000000001690555182917ff1d8d6effa0848bff6c8d65cdca8a89d1b08e6fcc7e941e37d2a3b96ac99e6d291a250565b6000610284610caa565b60008681526002602052604090205473ffffffffffffffffffffffffffffffffffffffff16806102fb5760405162461bcd60e51b815260206004820152601d60248201527f4e6f20737563682074656d706c61746520696e20746865206c6973742e00000060448201526064015b60405180910390fd5b73ffffffffffffffffffffffffffffffffffffffff861661035e5760405162461bcd60e51b815260206004820152601960248201527f476f2077697468206e6f6e206e756c6c20616464726573732e0000000000000060448201526064016102f2565b600085116103d45760405162461bcd60e51b815260206004820152603160248201527f486176696e6720616e206576656e7420776974686f757420746f6b656e73206160448201527f7265206e6f74207065726d69747465642e00000000000000000000000000000060648201526084016102f2565b6103dd81610d03565b6040517f23b872dd00000000000000000000000000000000000000000000000000000000815233600482015273ffffffffffffffffffffffffffffffffffffffff808316602483015260448201889052919350908716906323b872dd906064016020604051808303816000875af115801561045c573d6000803e3d6000fd5b505050506040513d601f19601f820116820180604052508101906104809190611044565b6104cc5760405162461bcd60e51b815260206004820152601460248201527f5472616e7366657246726f6d206661696c65642e00000000000000000000000060448201526064016102f2565b6040517fedd146cc00000000000000000000000000000000000000000000000000000000815273ffffffffffffffffffffffffffffffffffffffff83169063edd146cc90610522908890889088906004016110af565b6020604051808303816000875af1158015610541573d6000803e3d6000fd5b505050506040513d601f19601f820116820180604052508101906105659190611044565b6105d75760405162461bcd60e51b815260206004820152602960248201527f4661696c656420746f20696e697469616c697a652074686520636c6f6e65642060448201527f636f6e74726163742e000000000000000000000000000000000000000000000060648201526084016102f2565b8173ffffffffffffffffffffffffffffffffffffffff16873373ffffffffffffffffffffffffffffffffffffffff167f9d4c6b88e6ca3ddb52b7e95f0b6119f5df1b3c413ad10467f5dd2d961a4b869987876040516106379291906110c9565b60405180910390a45061064a6001600055565b95945050505050565b61065b610c43565b6106656000610e23565b565b61066f610c43565b60008281526002602052604090205473ffffffffffffffffffffffffffffffffffffffff16156107065760405162461bcd60e51b8152602060048201526024808201527f546869732074656d706c617465206e616d6520697320616c726561647920746160448201527f6b656e2e0000000000000000000000000000000000000000000000000000000060648201526084016102f2565b60008281526002602052604080822080547fffffffffffffffffffffffff00000000000000000000000000000000000000001673ffffffffffffffffffffffffffffffffffffffff85169081179091559051909184917f76a15abe5a3f991b7b1b9e9f9629149df5fe28934e3129cc19882221cd847c5e9190a35050565b61078c610c43565b610794610caa565b73ffffffffffffffffffffffffffffffffffffffff83166107f75760405162461bcd60e51b815260206004820152601660248201527f446f6e277420646973636172642074726561757279210000000000000000000060448201526064016102f2565b8060005b81811015610a17576000848483818110610817576108176110e5565b905060200201602081019061082c9190611022565b6040517f70a0823100000000000000000000000000000000000000000000000000000000815230600482015273ffffffffffffffffffffffffffffffffffffffff91909116906370a0823190602401602060405180830381865afa158015610898573d6000803e3d6000fd5b505050506040513d601f19601f820116820180604052508101906108bc9190611114565b90508484838181106108d0576108d06110e5565b90506020020160208101906108e59190611022565b6040517fa9059cbb00000000000000000000000000000000000000000000000000000000815273ffffffffffffffffffffffffffffffffffffffff888116600483015260248201849052919091169063a9059cbb906044016020604051808303816000875af115801561095c573d6000803e3d6000fd5b505050506040513d601f19601f820116820180604052508101906109809190611044565b50848483818110610993576109936110e5565b90506020020160208101906109a89190611022565b73ffffffffffffffffffffffffffffffffffffffff168673ffffffffffffffffffffffffffffffffffffffff167f11dd463c4f2edd676b85f050130c7ab2f5832f52becb5444b09a92404aa1498a83604051610a0691815260200190565b60405180910390a3506001016107fb565b5050610a236001600055565b505050565b610a30610c43565b610a38610caa565b73ffffffffffffffffffffffffffffffffffffffff8116610a9b5760405162461bcd60e51b815260206004820152601660248201527f446f6e277420646973636172642074726561757279210000000000000000000060448201526064016102f2565b604051479060009073ffffffffffffffffffffffffffffffffffffffff84169083908381818185875af1925050503d8060008114610af5576040519150601f19603f3d011682016040523d82523d6000602084013e610afa565b606091505b5050905080610b4b5760405162461bcd60e51b815260206004820152600f60248201527f7472616e73666572206661696c6564000000000000000000000000000000000060448201526064016102f2565b8273ffffffffffffffffffffffffffffffffffffffff167e427c0f965e4f144086694ed3a411df394e3dfa51cf4e74d9a70375bab91bb083604051610b9291815260200190565b60405180910390a25050610ba66001600055565b50565b610bb1610c43565b73ffffffffffffffffffffffffffffffffffffffff8116610c3a5760405162461bcd60e51b815260206004820152602660248201527f4f776e61626c653a206e6577206f776e657220697320746865207a65726f206160448201527f646472657373000000000000000000000000000000000000000000000000000060648201526084016102f2565b610ba681610e23565b60015473ffffffffffffffffffffffffffffffffffffffff1633146106655760405162461bcd60e51b815260206004820181905260248201527f4f776e61626c653a2063616c6c6572206973206e6f7420746865206f776e657260448201526064016102f2565b600260005403610cfc5760405162461bcd60e51b815260206004820152601f60248201527f5265656e7472616e637947756172643a207265656e7472616e742063616c6c0060448201526064016102f2565b6002600055565b6000600160036000828254610d18919061112d565b90915550506003546040517fffffffffffffffffffffffffffffffffffffffff000000000000000000000000606085901b1660208201526034810191909152600090605401604051602081830303815290604052805190602001209050763d602d80600a3d3981f3363d3d373d3d3d363d730000008360601b60e81c176000526e5af43d82803e903d91602b57fd5bf38360781b1760205280603760096000f5915073ffffffffffffffffffffffffffffffffffffffff8216610e1d5760405162461bcd60e51b815260206004820152601760248201527f455243313136373a2063726561746532206661696c656400000000000000000060448201526064016102f2565b50919050565b6001805473ffffffffffffffffffffffffffffffffffffffff8381167fffffffffffffffffffffffff0000000000000000000000000000000000000000831681179093556040519116919082907f8be0079c531659141344cd1fd0a4f28419497f9722a3daafe3b4186f6b6457e090600090a35050565b600060208284031215610eac57600080fd5b5035919050565b803573ffffffffffffffffffffffffffffffffffffffff81168114610ed757600080fd5b919050565b600080600080600060808688031215610ef457600080fd5b85359450610f0460208701610eb3565b935060408601359250606086013567ffffffffffffffff80821115610f2857600080fd5b818801915088601f830112610f3c57600080fd5b813581811115610f4b57600080fd5b896020828501011115610f5d57600080fd5b9699959850939650602001949392505050565b60008060408385031215610f8357600080fd5b82359150610f9360208401610eb3565b90509250929050565b600080600060408486031215610fb157600080fd5b610fba84610eb3565b9250602084013567ffffffffffffffff80821115610fd757600080fd5b818601915086601f830112610feb57600080fd5b813581811115610ffa57600080fd5b8760208260051b850101111561100f57600080fd5b6020830194508093505050509250925092565b60006020828403121561103457600080fd5b61103d82610eb3565b9392505050565b60006020828403121561105657600080fd5b8151801515811461103d57600080fd5b8183528181602085013750600060208284010152600060207fffffffffffffffffffffffffffffffffffffffffffffffffffffffffffffffe0601f840116840101905092915050565b83815260406020820152600061064a604083018486611066565b6020815260006110dd602083018486611066565b949350505050565b7f4e487b7100000000000000000000000000000000000000000000000000000000600052603260045260246000fd5b60006020828403121561112657600080fd5b5051919050565b80820180821115611167577f4e487b7100000000000000000000000000000000000000000000000000000000600052601160045260246000fd5b9291505056fea2646970667358221220f52844176e3594e7c0328f31d7c16af16a34c46d020311f9ecc6077847c0415064736f6c63430008120033",
  "linkReferences": {},
  "deployedLinkReferences": {}
}