{
  "_format": "hh-sol-artifact-1",
  "contractName": "FactoryV1",
  "sourceName": "contracts/FactoryV1.sol",
  "abi": [
    {
      "anonymous": false,
      "inputs": [
        {
          "indexed": false,
          "internalType": "bytes32",
          "name": "templateName",
          "type": "bytes32"
        },
        {
          "indexed": false,
          "internalType": "address",
          "name": "deployedAddr",
          "type": "address"
        },
        {
          "indexed": false,
          "internalType": "address",
          "name": "tokenAddr",
          "type": "address"
        },
        {
          "indexed": false,
          "internalType": "address",
          "name": "owner",
          "type": "address"
        },
        {
          "indexed": false,
          "internalType": "uint256",
          "name": "allocatedAmount",
          "type": "uint256"
        },
        {
          "indexed": false,
          "internalType": "uint256",
          "name": "startingAt",
          "type": "uint256"
        },
        {
          "indexed": false,
          "internalType": "uint256",
          "name": "eventDuration",
          "type": "uint256"
        },
        {
          "indexed": false,
          "internalType": "uint256",
          "name": "minRaisedAmount",
          "type": "uint256"
        }
      ],
      "name": "Deployed",
      "type": "event"
    },
    {
      "anonymous": false,
      "inputs": [
        {
          "indexed": true,
          "internalType": "address",
          "name": "previousOwner",
          "type": "address"
        },
        {
          "indexed": true,
          "internalType": "address",
          "name": "newOwner",
          "type": "address"
        }
      ],
      "name": "OwnershipTransferred",
      "type": "event"
    },
    {
      "anonymous": false,
      "inputs": [
        {
          "indexed": true,
          "internalType": "bytes32",
          "name": "templateName",
          "type": "bytes32"
        },
        {
          "indexed": true,
          "internalType": "address",
          "name": "templateAddr",
          "type": "address"
        }
      ],
      "name": "TemplateAdded",
      "type": "event"
    },
    {
      "anonymous": false,
      "inputs": [
        {
          "indexed": true,
          "internalType": "bytes32",
          "name": "templateName",
          "type": "bytes32"
        },
        {
          "indexed": true,
          "internalType": "address",
          "name": "templateAddr",
          "type": "address"
        }
      ],
      "name": "TemplateDeleted",
      "type": "event"
    },
    {
      "anonymous": false,
      "inputs": [
        {
          "indexed": true,
          "internalType": "address",
          "name": "receiver",
          "type": "address"
        },
        {
          "indexed": false,
          "internalType": "uint256",
          "name": "amount",
          "type": "uint256"
        }
      ],
      "name": "WithdrawnEther",
      "type": "event"
    },
    {
      "inputs": [
        {
          "internalType": "bytes32",
          "name": "templateName",
          "type": "bytes32"
        },
        {
          "internalType": "address",
          "name": "templateAddr",
          "type": "address"
        }
      ],
      "name": "addTemplate",
      "outputs": [],
      "stateMutability": "nonpayable",
      "type": "function"
    },
    {
      "inputs": [
        {
          "internalType": "bytes32",
          "name": "templateName",
          "type": "bytes32"
        },
        {
          "internalType": "address",
          "name": "tokenAddr",
          "type": "address"
        },
        {
          "internalType": "address",
          "name": "owner",
          "type": "address"
        },
        {
          "internalType": "uint256",
          "name": "allocatedAmount",
          "type": "uint256"
        },
        {
          "internalType": "uint256",
          "name": "startingAt",
          "type": "uint256"
        },
        {
          "internalType": "uint256",
          "name": "eventDuration",
          "type": "uint256"
        },
        {
          "internalType": "uint256",
          "name": "minRaisedAmount",
          "type": "uint256"
        }
      ],
      "name": "deploySaleClone",
      "outputs": [
        {
          "internalType": "address",
          "name": "deployedAddr",
          "type": "address"
        }
      ],
      "stateMutability": "nonpayable",
      "type": "function"
    },
    {
      "inputs": [],
      "name": "owner",
      "outputs": [
        {
          "internalType": "address",
          "name": "",
          "type": "address"
        }
      ],
      "stateMutability": "view",
      "type": "function"
    },
    {
      "inputs": [
        {
          "internalType": "bytes32",
          "name": "templateName",
          "type": "bytes32"
        }
      ],
      "name": "removeTemplate",
      "outputs": [],
      "stateMutability": "nonpayable",
      "type": "function"
    },
    {
      "inputs": [],
      "name": "renounceOwnership",
      "outputs": [],
      "stateMutability": "nonpayable",
      "type": "function"
    },
    {
      "inputs": [
        {
          "internalType": "bytes32",
          "name": "",
          "type": "bytes32"
        }
      ],
      "name": "templates",
      "outputs": [
        {
          "internalType": "address",
          "name": "",
          "type": "address"
        }
      ],
      "stateMutability": "view",
      "type": "function"
    },
    {
      "inputs": [
        {
          "internalType": "address",
          "name": "newOwner",
          "type": "address"
        }
      ],
      "name": "transferOwnership",
      "outputs": [],
      "stateMutability": "nonpayable",
      "type": "function"
    },
    {
      "inputs": [
        {
          "internalType": "address",
          "name": "to",
          "type": "address"
        }
      ],
      "name": "withdrawEther",
      "outputs": [],
      "stateMutability": "nonpayable",
      "type": "function"
    },
    {
      "stateMutability": "payable",
      "type": "receive"
    }
  ],
  "bytecode": "0x6080604052600060035534801561001557600080fd5b50600160005561002433610029565b61007b565b600180546001600160a01b038381166001600160a01b0319831681179093556040519116919082907f8be0079c531659141344cd1fd0a4f28419497f9722a3daafe3b4186f6b6457e090600090a35050565b610f688061008a6000396000f3fe60806040526004361061007f5760003560e01c80638da5cb5b1161004e5780638da5cb5b1461014e578063af933b5714610179578063f08c26ca14610199578063f2fde38b146101b957600080fd5b80630a6315761461008b57806347e09a0b146100f7578063715018a6146101195780637213d2e21461012e57600080fd5b3661008657005b600080fd5b34801561009757600080fd5b506100ce6100a6366004610ddf565b60026020526000908152604090205473ffffffffffffffffffffffffffffffffffffffff1681565b60405173ffffffffffffffffffffffffffffffffffffffff909116815260200160405180910390f35b34801561010357600080fd5b50610117610112366004610ddf565b6101d9565b005b34801561012557600080fd5b5061011761025e565b34801561013a57600080fd5b50610117610149366004610e21565b610272565b34801561015a57600080fd5b5060015473ffffffffffffffffffffffffffffffffffffffff166100ce565b34801561018557600080fd5b50610117610194366004610e4d565b610394565b3480156101a557600080fd5b506100ce6101b4366004610e6f565b6104aa565b3480156101c557600080fd5b506101176101d4366004610e4d565b610aee565b6101e1610b88565b60008181526002602052604080822080547fffffffffffffffffffffffff00000000000000000000000000000000000000008116909155905173ffffffffffffffffffffffffffffffffffffffff90911691829184917fa7ae8f374f2a1b1ab22d509190b98fa856e702cf5c9b7288e62d586f8e79aa1b91a35050565b610266610b88565b6102706000610bef565b565b61027a610b88565b60008281526002602052604090205473ffffffffffffffffffffffffffffffffffffffff16156103165760405162461bcd60e51b8152602060048201526024808201527f546869732074656d706c617465206e616d6520697320616c726561647920746160448201527f6b656e2e0000000000000000000000000000000000000000000000000000000060648201526084015b60405180910390fd5b60008281526002602052604080822080547fffffffffffffffffffffffff00000000000000000000000000000000000000001673ffffffffffffffffffffffffffffffffffffffff85169081179091559051909184917f76a15abe5a3f991b7b1b9e9f9629149df5fe28934e3129cc19882221cd847c5e9190a35050565b61039c610b88565b6103a4610c66565b73ffffffffffffffffffffffffffffffffffffffff81166104075760405162461bcd60e51b815260206004820152601660248201527f446f6e2774206469736361726420747265617572792100000000000000000000604482015260640161030d565b604051479073ffffffffffffffffffffffffffffffffffffffff83169082156108fc029083906000818181858888f1935050505015801561044c573d6000803e3d6000fd5b508173ffffffffffffffffffffffffffffffffffffffff167e427c0f965e4f144086694ed3a411df394e3dfa51cf4e74d9a70375bab91bb08260405161049491815260200190565b60405180910390a2506104a76001600055565b50565b60006104b4610c66565b60008881526002602052604090205473ffffffffffffffffffffffffffffffffffffffff16806105265760405162461bcd60e51b815260206004820152601d60248201527f4e6f20737563682074656d706c61746520696e20746865206c6973742e000000604482015260640161030d565b73ffffffffffffffffffffffffffffffffffffffff88166105895760405162461bcd60e51b815260206004820152601960248201527f476f2077697468206e6f6e206e756c6c20616464726573732e00000000000000604482015260640161030d565b844211156105d95760405162461bcd60e51b815260206004820181905260248201527f7374617274696e674174206d75737420626520696e2074686520667574757265604482015260640161030d565b6201518084101561062c5760405162461bcd60e51b815260206004820152601b60248201527f6576656e74206475726174696f6e20697320746f6f2073686f72740000000000604482015260640161030d565b62278d0084111561067f5760405162461bcd60e51b815260206004820152601a60248201527f6576656e74206475726174696f6e20697320746f6f206c6f6e67000000000000604482015260640161030d565b73ffffffffffffffffffffffffffffffffffffffff87166106e25760405162461bcd60e51b815260206004820152601360248201527f6f776e6572206d75737420626520746865726500000000000000000000000000604482015260640161030d565b600086116107585760405162461bcd60e51b815260206004820152603160248201527f486176696e6720616e206576656e7420776974686f757420746f6b656e73206160448201527f7265206e6f74207065726d69747465642e000000000000000000000000000000606482015260840161030d565b74446c3b15f9926687d2c40534fdb56400000000000086106107e25760405162461bcd60e51b815260206004820152602760248201527f616c6c6f6361746564416d6f756e74206d757374206265206c6573732074686160448201527f6e20316535302e00000000000000000000000000000000000000000000000000606482015260840161030d565b6b033b2e3c9fd0803ce8000000831061083d5760405162461bcd60e51b815260206004820181905260248201527f746f74616c52616973656420697320756e65787065637465646c792068696768604482015260640161030d565b61084681610cbf565b6040517f23b872dd00000000000000000000000000000000000000000000000000000000815233600482015273ffffffffffffffffffffffffffffffffffffffff808316602483015260448201899052919350908916906323b872dd906064016020604051808303816000875af11580156108c5573d6000803e3d6000fd5b505050506040513d601f19601f820116820180604052508101906108e99190610ed0565b6109355760405162461bcd60e51b815260206004820152601460248201527f5472616e7366657246726f6d206661696c65642e000000000000000000000000604482015260640161030d565b6040517f86489ba900000000000000000000000000000000000000000000000000000000815273ffffffffffffffffffffffffffffffffffffffff8981166004830152888116602483015260448201889052606482018790526084820186905260a482018590528316906386489ba99060c4016020604051808303816000875af11580156109c7573d6000803e3d6000fd5b505050506040513d601f19601f820116820180604052508101906109eb9190610ed0565b610a5d5760405162461bcd60e51b815260206004820152602960248201527f4661696c656420746f20696e697469616c697a652074686520636c6f6e65642060448201527f636f6e74726163742e0000000000000000000000000000000000000000000000606482015260840161030d565b604080518a815273ffffffffffffffffffffffffffffffffffffffff84811660208301528a811682840152891660608201526080810188905260a0810187905260c0810186905260e0810185905290517f17ab5c7931aa6efd419b7e2aadbc296672996a46dc5414329c1877283bc94a0d918190036101000190a150610ae36001600055565b979650505050505050565b610af6610b88565b73ffffffffffffffffffffffffffffffffffffffff8116610b7f5760405162461bcd60e51b815260206004820152602660248201527f4f776e61626c653a206e6577206f776e657220697320746865207a65726f206160448201527f6464726573730000000000000000000000000000000000000000000000000000606482015260840161030d565b6104a781610bef565b60015473ffffffffffffffffffffffffffffffffffffffff1633146102705760405162461bcd60e51b815260206004820181905260248201527f4f776e61626c653a2063616c6c6572206973206e6f7420746865206f776e6572604482015260640161030d565b6001805473ffffffffffffffffffffffffffffffffffffffff8381167fffffffffffffffffffffffff0000000000000000000000000000000000000000831681179093556040519116919082907f8be0079c531659141344cd1fd0a4f28419497f9722a3daafe3b4186f6b6457e090600090a35050565b600260005403610cb85760405162461bcd60e51b815260206004820152601f60248201527f5265656e7472616e637947756172643a207265656e7472616e742063616c6c00604482015260640161030d565b6002600055565b6000600160036000828254610cd49190610ef2565b90915550506003546040517fffffffffffffffffffffffffffffffffffffffff000000000000000000000000606085901b1660208201526034810191909152600090605401604051602081830303815290604052805190602001209050763d602d80600a3d3981f3363d3d373d3d3d363d730000008360601b60e81c176000526e5af43d82803e903d91602b57fd5bf38360781b1760205280603760096000f5915073ffffffffffffffffffffffffffffffffffffffff8216610dd95760405162461bcd60e51b815260206004820152601760248201527f455243313136373a2063726561746532206661696c6564000000000000000000604482015260640161030d565b50919050565b600060208284031215610df157600080fd5b5035919050565b803573ffffffffffffffffffffffffffffffffffffffff81168114610e1c57600080fd5b919050565b60008060408385031215610e3457600080fd5b82359150610e4460208401610df8565b90509250929050565b600060208284031215610e5f57600080fd5b610e6882610df8565b9392505050565b600080600080600080600060e0888a031215610e8a57600080fd5b87359650610e9a60208901610df8565b9550610ea860408901610df8565b969995985095966060810135965060808101359560a0820135955060c0909101359350915050565b600060208284031215610ee257600080fd5b81518015158114610e6857600080fd5b80820180821115610f2c577f4e487b7100000000000000000000000000000000000000000000000000000000600052601160045260246000fd5b9291505056fea2646970667358221220e6d5666aded0d58f91c8dfbc10110a2a4e10e20980f71d908a17f876dc09ff0564736f6c63430008120033",
  "linkReferences": {},
  "deployedLinkReferences": {}
}