{
  "_format": "hh-sol-artifact-1",
  "contractName": "SaleTemplateV1",
  "sourceName": "contracts/SaleTemplateV1.sol",
  "abi": [
    {
      "anonymous": false,
      "inputs": [
        {
          "indexed": true,
          "internalType": "address",
          "name": "account",
          "type": "address"
        },
        {
          "indexed": false,
          "internalType": "uint256",
          "name": "userShare",
          "type": "uint256"
        },
        {
          "indexed": false,
          "internalType": "uint256",
          "name": "allocation",
          "type": "uint256"
        }
      ],
      "name": "Claimed",
      "type": "event"
    },
    {
      "anonymous": false,
      "inputs": [
        {
          "indexed": true,
          "internalType": "address",
          "name": "account",
          "type": "address"
        },
        {
          "indexed": false,
          "internalType": "uint256",
          "name": "amount",
          "type": "uint256"
        }
      ],
      "name": "Received",
      "type": "event"
    },
    {
      "inputs": [],
      "name": "allocatedAmount",
      "outputs": [
        {
          "internalType": "uint256",
          "name": "",
          "type": "uint256"
        }
      ],
      "stateMutability": "view",
      "type": "function"
    },
    {
      "inputs": [
        {
          "internalType": "address",
          "name": "contributor",
          "type": "address"
        },
        {
          "internalType": "address",
          "name": "recipient",
          "type": "address"
        }
      ],
      "name": "claim",
      "outputs": [],
      "stateMutability": "nonpayable",
      "type": "function"
    },
    {
      "inputs": [],
      "name": "closingAt",
      "outputs": [
        {
          "internalType": "uint256",
          "name": "",
          "type": "uint256"
        }
      ],
      "stateMutability": "view",
      "type": "function"
    },
    {
      "inputs": [],
      "name": "erc20onsale",
      "outputs": [
        {
          "internalType": "contract IERC20",
          "name": "",
          "type": "address"
        }
      ],
      "stateMutability": "view",
      "type": "function"
    },
    {
      "inputs": [],
      "name": "factory",
      "outputs": [
        {
          "internalType": "address",
          "name": "",
          "type": "address"
        }
      ],
      "stateMutability": "view",
      "type": "function"
    },
    {
      "inputs": [
        {
          "internalType": "address",
          "name": "token_",
          "type": "address"
        },
        {
          "internalType": "address",
          "name": "owner_",
          "type": "address"
        },
        {
          "internalType": "uint256",
          "name": "allocatedAmount_",
          "type": "uint256"
        },
        {
          "internalType": "uint256",
          "name": "startingAt_",
          "type": "uint256"
        },
        {
          "internalType": "uint256",
          "name": "eventDuration_",
          "type": "uint256"
        },
        {
          "internalType": "uint256",
          "name": "minRaisedAmount_",
          "type": "uint256"
        }
      ],
      "name": "initialize",
      "outputs": [
        {
          "internalType": "bool",
          "name": "",
          "type": "bool"
        }
      ],
      "stateMutability": "nonpayable",
      "type": "function"
    },
    {
      "inputs": [],
      "name": "minRaisedAmount",
      "outputs": [
        {
          "internalType": "uint256",
          "name": "",
          "type": "uint256"
        }
      ],
      "stateMutability": "view",
      "type": "function"
    },
    {
      "inputs": [],
      "name": "owner",
      "outputs": [
        {
          "internalType": "address",
          "name": "",
          "type": "address"
        }
      ],
      "stateMutability": "view",
      "type": "function"
    },
    {
      "inputs": [
        {
          "internalType": "address",
          "name": "",
          "type": "address"
        }
      ],
      "name": "provided",
      "outputs": [
        {
          "internalType": "uint256",
          "name": "",
          "type": "uint256"
        }
      ],
      "stateMutability": "view",
      "type": "function"
    },
    {
      "inputs": [],
      "name": "startingAt",
      "outputs": [
        {
          "internalType": "uint256",
          "name": "",
          "type": "uint256"
        }
      ],
      "stateMutability": "view",
      "type": "function"
    },
    {
      "inputs": [],
      "name": "totalProvided",
      "outputs": [
        {
          "internalType": "uint256",
          "name": "",
          "type": "uint256"
        }
      ],
      "stateMutability": "view",
      "type": "function"
    },
    {
      "inputs": [],
      "name": "withdrawERC20Onsale",
      "outputs": [],
      "stateMutability": "nonpayable",
      "type": "function"
    },
    {
      "inputs": [],
      "name": "withdrawProvidedETH",
      "outputs": [],
      "stateMutability": "nonpayable",
      "type": "function"
    },
    {
      "stateMutability": "payable",
      "type": "receive"
    }
  ],
  "bytecode": "0x6080604052600060085534801561001557600080fd5b506001600055610fe68061002a6000396000f3fe6080604052600436106100d65760003560e01c80639ddb9ee11161007f578063c45a015511610059578063c45a01551461034c578063d2a31c9014610374578063dccd4315146103a1578063e43608d8146103b757600080fd5b80639ddb9ee1146102f4578063a6e00ca514610321578063b86c0e1f1461033657600080fd5b806321c0b342116100b057806321c0b3421461025057806386489ba9146102725780638da5cb5b146102a257600080fd5b806302e3cb0b146101fb578063115425e41461022457806318dfe5cf1461023a57600080fd5b366101f6574260025411156101325760405162461bcd60e51b815260206004820181905260248201527f546865206f66666572696e6720686173206e6f7420737461727465642079657460448201526064015b60405180910390fd5b6003544211156101845760405162461bcd60e51b815260206004820152601e60248201527f546865206f66666572696e672068617320616c726561647920656e64656400006044820152606401610129565b34600860008282546101969190610e57565b909155505033600090815260096020526040812080543492906101ba908490610e57565b909155505060405134815233907f88a5966d370b9919b20f3e2c13ff65706f196a4e32cc2c12bf57088f885258749060200160405180910390a2005b600080fd5b34801561020757600080fd5b5061021160085481565b6040519081526020015b60405180910390f35b34801561023057600080fd5b5061021160045481565b34801561024657600080fd5b5061021160055481565b34801561025c57600080fd5b5061027061026b366004610e99565b6103cc565b005b34801561027e57600080fd5b5061029261028d366004610ecc565b6107fb565b604051901515815260200161021b565b3480156102ae57600080fd5b506006546102cf9073ffffffffffffffffffffffffffffffffffffffff1681565b60405173ffffffffffffffffffffffffffffffffffffffff909116815260200161021b565b34801561030057600080fd5b5061021161030f366004610f21565b60096020526000908152604090205481565b34801561032d57600080fd5b506102706109ab565b34801561034257600080fd5b5061021160035481565b34801561035857600080fd5b506102cf734fd561e2a7cd4c1bf830e45b34542dab459e7d7081565b34801561038057600080fd5b506007546102cf9073ffffffffffffffffffffffffffffffffffffffff1681565b3480156103ad57600080fd5b5061021160025481565b3480156103c357600080fd5b50610270610b9f565b6103d4610d8b565b600354421161044b5760405162461bcd60e51b815260206004820152602560248201527f4561726c7920746f20636c61696d2e2053616c65206973206e6f742066696e6960448201527f736865642e0000000000000000000000000000000000000000000000000000006064820152608401610129565b73ffffffffffffffffffffffffffffffffffffffff82166000908152600960205260409020546104bd5760405162461bcd60e51b815260206004820181905260248201527f596f7520646f6e2774206861766520616e7920636f6e747269627574696f6e2e6044820152606401610129565b73ffffffffffffffffffffffffffffffffffffffff821660009081526009602052604081208054908290556008546004549192916104fc918491610de4565b90506005546008541015801561051157508015155b15610755573373ffffffffffffffffffffffffffffffffffffffff851614801561056657508273ffffffffffffffffffffffffffffffffffffffff168473ffffffffffffffffffffffffffffffffffffffff16145b806105bd57503373ffffffffffffffffffffffffffffffffffffffff8516148015906105bd57508273ffffffffffffffffffffffffffffffffffffffff168473ffffffffffffffffffffffffffffffffffffffff16145b8061061457503373ffffffffffffffffffffffffffffffffffffffff851614801561061457508273ffffffffffffffffffffffffffffffffffffffff168473ffffffffffffffffffffffffffffffffffffffff1614155b1561070d576007546040517fa9059cbb00000000000000000000000000000000000000000000000000000000815273ffffffffffffffffffffffffffffffffffffffff8581166004830152602482018490529091169063a9059cbb906044016020604051808303816000875af1158015610692573d6000803e3d6000fd5b505050506040513d601f19601f820116820180604052508101906106b69190610f3c565b50604080518381526020810183905273ffffffffffffffffffffffffffffffffffffffff8516917f987d620f307ff6b94d58743cb7a7509f24071586a77759b77c2d4e29f75a2f9a910160405180910390a26107eb565b60405162461bcd60e51b815260206004820181905260248201527f636f6e7472696275746f72206f7220726563697069656e7420696e76616c69646044820152606401610129565b60405173ffffffffffffffffffffffffffffffffffffffff85169083156108fc029084906000818181858888f19350505050158015610798573d6000803e3d6000fd5b50604080518381526000602082015273ffffffffffffffffffffffffffffffffffffffff8616917f987d620f307ff6b94d58743cb7a7509f24071586a77759b77c2d4e29f75a2f9a910160405180910390a25b50506107f76001600055565b5050565b60015460009060ff16156108775760405162461bcd60e51b815260206004820152602a60248201527f5468697320636f6e74726163742068617320616c7265616479206265656e206960448201527f6e697469616c697a6564000000000000000000000000000000000000000000006064820152608401610129565b33734fd561e2a7cd4c1bf830e45b34542dab459e7d70146108da5760405162461bcd60e51b815260206004820152601860248201527f596f7520617265206e6f742074686520466163746f72792e00000000000000006044820152606401610129565b600780547fffffffffffffffffffffffff00000000000000000000000000000000000000001673ffffffffffffffffffffffffffffffffffffffff891617905560028490556109298385610e57565b600355506004939093555050600555600680547fffffffffffffffffffffffff00000000000000000000000000000000000000001673ffffffffffffffffffffffffffffffffffffffff9290921691909117905550600180547fffffffffffffffffffffffffffffffffffffffffffffffffffffffffffffff00168117815590565b60065473ffffffffffffffffffffffffffffffffffffffff163314610a125760405162461bcd60e51b815260206004820152601660248201527f596f7520617265206e6f7420746865206f776e65722e000000000000000000006044820152606401610129565b610a1a610d8b565b4260035410610a6b5760405162461bcd60e51b815260206004820152601e60248201527f546865206f66666572696e67206d75737420626520636f6d706c6574656400006044820152606401610129565b6005546008541080610a7d5750600854155b610aef5760405162461bcd60e51b815260206004820152602660248201527f54686520726571756972656420616d6f756e7420686173206265656e2070726f60448201527f76696465642100000000000000000000000000000000000000000000000000006064820152608401610129565b600754600654600480546040517fa9059cbb00000000000000000000000000000000000000000000000000000000815273ffffffffffffffffffffffffffffffffffffffff93841692810192909252602482015291169063a9059cbb906044016020604051808303816000875af1158015610b6e573d6000803e3d6000fd5b505050506040513d601f19601f82011682018060405250810190610b929190610f3c565b50610b9d6001600055565b565b60065473ffffffffffffffffffffffffffffffffffffffff163314610c065760405162461bcd60e51b815260206004820152601660248201527f596f7520617265206e6f7420746865206f776e65722e000000000000000000006044820152606401610129565b610c0e610d8b565b426003546203f480610c209190610e57565b10610c6d5760405162461bcd60e51b815260206004820152601b60248201527f5769746864726177616c20756e617661696c61626c65207965742e00000000006044820152606401610129565b6005546008541015610ce75760405162461bcd60e51b815260206004820152602a60248201527f54686520726571756972656420616d6f756e7420686173206e6f74206265656e60448201527f2070726f766964656421000000000000000000000000000000000000000000006064820152608401610129565b6000610cf4606447610f5e565b604051909150734fd561e2a7cd4c1bf830e45b34542dab459e7d709082156108fc029083906000818181858888f19350505050158015610d38573d6000803e3d6000fd5b5060065460405173ffffffffffffffffffffffffffffffffffffffff909116904780156108fc02916000818181858888f19350505050158015610d7f573d6000803e3d6000fd5b5050610b9d6001600055565b600260005403610ddd5760405162461bcd60e51b815260206004820152601f60248201527f5265656e7472616e637947756172643a207265656e7472616e742063616c6c006044820152606401610129565b6002600055565b600082821015610e0a5782610df98386610f99565b610e039190610f5e565b9050610e21565b610e148383610f5e565b610e1e9085610f99565b90505b9392505050565b7f4e487b7100000000000000000000000000000000000000000000000000000000600052601160045260246000fd5b80820180821115610e6a57610e6a610e28565b92915050565b803573ffffffffffffffffffffffffffffffffffffffff81168114610e9457600080fd5b919050565b60008060408385031215610eac57600080fd5b610eb583610e70565b9150610ec360208401610e70565b90509250929050565b60008060008060008060c08789031215610ee557600080fd5b610eee87610e70565b9550610efc60208801610e70565b95989597505050506040840135936060810135936080820135935060a0909101359150565b600060208284031215610f3357600080fd5b610e2182610e70565b600060208284031215610f4e57600080fd5b81518015158114610e2157600080fd5b600082610f94577f4e487b7100000000000000000000000000000000000000000000000000000000600052601260045260246000fd5b500490565b8082028115828204841417610e6a57610e6a610e2856fea2646970667358221220e7363cbc2cf8568e4d2ca23157822d1cf32817a70348bb90f82009f52bcb8fee64736f6c63430008120033",
  "linkReferences": {},
  "deployedLinkReferences": {}
}