{
  "_format": "hh-sol-artifact-1",
  "contractName": "SaleTemplateV1",
  "sourceName": "contracts/SaleTemplateV1.sol",
  "abi": [
    {
      "anonymous": false,
      "inputs": [
        {
          "indexed": true,
          "internalType": "address",
          "name": "account",
          "type": "address"
        },
        {
          "indexed": false,
          "internalType": "uint256",
          "name": "userShare",
          "type": "uint256"
        },
        {
          "indexed": false,
          "internalType": "uint256",
          "name": "allocation",
          "type": "uint256"
        }
      ],
      "name": "Claimed",
      "type": "event"
    },
    {
      "anonymous": false,
      "inputs": [
        {
          "indexed": true,
          "internalType": "address",
          "name": "account",
          "type": "address"
        },
        {
          "indexed": false,
          "internalType": "uint256",
          "name": "amount",
          "type": "uint256"
        }
      ],
      "name": "Received",
      "type": "event"
    },
    {
      "inputs": [],
      "name": "allocatedAmount",
      "outputs": [
        {
          "internalType": "uint256",
          "name": "",
          "type": "uint256"
        }
      ],
      "stateMutability": "view",
      "type": "function"
    },
    {
      "inputs": [
        {
          "internalType": "uint256",
          "name": "",
          "type": "uint256"
        }
      ],
      "name": "bidderAddresses",
      "outputs": [
        {
          "internalType": "address",
          "name": "",
          "type": "address"
        }
      ],
      "stateMutability": "view",
      "type": "function"
    },
    {
      "inputs": [
        {
          "internalType": "address",
          "name": "contributor",
          "type": "address"
        },
        {
          "internalType": "address",
          "name": "recipient",
          "type": "address"
        }
      ],
      "name": "claim",
      "outputs": [],
      "stateMutability": "nonpayable",
      "type": "function"
    },
    {
      "inputs": [],
      "name": "closingAt",
      "outputs": [
        {
          "internalType": "uint256",
          "name": "",
          "type": "uint256"
        }
      ],
      "stateMutability": "view",
      "type": "function"
    },
    {
      "inputs": [],
      "name": "erc20onsale",
      "outputs": [
        {
          "internalType": "contract IERC20",
          "name": "",
          "type": "address"
        }
      ],
      "stateMutability": "view",
      "type": "function"
    },
    {
      "inputs": [],
      "name": "factory",
      "outputs": [
        {
          "internalType": "address",
          "name": "",
          "type": "address"
        }
      ],
      "stateMutability": "view",
      "type": "function"
    },
    {
      "inputs": [
        {
          "internalType": "address",
          "name": "token_",
          "type": "address"
        },
        {
          "internalType": "address",
          "name": "owner_",
          "type": "address"
        },
        {
          "internalType": "uint256",
          "name": "allocatedAmount_",
          "type": "uint256"
        },
        {
          "internalType": "uint256",
          "name": "startingAt_",
          "type": "uint256"
        },
        {
          "internalType": "uint256",
          "name": "eventDuration_",
          "type": "uint256"
        },
        {
          "internalType": "uint256",
          "name": "minRaisedAmount_",
          "type": "uint256"
        }
      ],
      "name": "initialize",
      "outputs": [
        {
          "internalType": "bool",
          "name": "",
          "type": "bool"
        }
      ],
      "stateMutability": "nonpayable",
      "type": "function"
    },
    {
      "inputs": [],
      "name": "minRaisedAmount",
      "outputs": [
        {
          "internalType": "uint256",
          "name": "",
          "type": "uint256"
        }
      ],
      "stateMutability": "view",
      "type": "function"
    },
    {
      "inputs": [],
      "name": "owner",
      "outputs": [
        {
          "internalType": "address",
          "name": "",
          "type": "address"
        }
      ],
      "stateMutability": "view",
      "type": "function"
    },
    {
      "inputs": [
        {
          "internalType": "address",
          "name": "",
          "type": "address"
        }
      ],
      "name": "raised",
      "outputs": [
        {
          "internalType": "uint256",
          "name": "",
          "type": "uint256"
        }
      ],
      "stateMutability": "view",
      "type": "function"
    },
    {
      "inputs": [],
      "name": "startingAt",
      "outputs": [
        {
          "internalType": "uint256",
          "name": "",
          "type": "uint256"
        }
      ],
      "stateMutability": "view",
      "type": "function"
    },
    {
      "inputs": [],
      "name": "totalRaised",
      "outputs": [
        {
          "internalType": "uint256",
          "name": "",
          "type": "uint256"
        }
      ],
      "stateMutability": "view",
      "type": "function"
    },
    {
      "inputs": [],
      "name": "withdrawERC20Onsale",
      "outputs": [],
      "stateMutability": "nonpayable",
      "type": "function"
    },
    {
      "inputs": [],
      "name": "withdrawRaisedETH",
      "outputs": [],
      "stateMutability": "nonpayable",
      "type": "function"
    },
    {
      "stateMutability": "payable",
      "type": "receive"
    }
  ],
  "bytecode": "0x6080604052600060085534801561001557600080fd5b5060016000556112778061002a6000396000f3fe6080604052600436106100e15760003560e01c8063a6e00ca51161007f578063c5c4744c11610059578063c5c4744c14610455578063d2a31c901461046b578063dccd431514610498578063fdc2c74d146104ae57600080fd5b8063a6e00ca514610402578063b86c0e1f14610417578063c45a01551461042d57600080fd5b806321c0b342116100bb57806321c0b3421461033e5780632fb3c48f1461036057806386489ba9146103a55780638da5cb5b146103d557600080fd5b8063115425e4146102d25780631391fd60146102fb57806318dfe5cf1461032857600080fd5b366102cd5742600254111561013d5760405162461bcd60e51b815260206004820181905260248201527f546865206f66666572696e6720686173206e6f7420737461727465642079657460448201526064015b60405180910390fd5b60035442111561018f5760405162461bcd60e51b815260206004820152601e60248201527f546865206f66666572696e672068617320616c726561647920656e64656400006044820152606401610134565b60003460085461019f9190611099565b90506b033b2e3c9fd0803ce800000081106101fc5760405162461bcd60e51b815260206004820181905260248201527f746f74616c52616973656420697320756e65787065637465646c7920686967686044820152606401610134565b33600090815260096020526040812054900361026d57600a80546001810182556000919091527fc65a7bb8d6351c1cf70c95a316cc6a92839c986682d98bc35f958f4883f9d2a80180547fffffffffffffffffffffffff000000000000000000000000000000000000000016331790555b60088190553360009081526009602052604081208054349290610291908490611099565b909155505060405134815233907f88a5966d370b9919b20f3e2c13ff65706f196a4e32cc2c12bf57088f885258749060200160405180910390a2005b600080fd5b3480156102de57600080fd5b506102e860045481565b6040519081526020015b60405180910390f35b34801561030757600080fd5b506102e86103163660046110db565b60096020526000908152604090205481565b34801561033457600080fd5b506102e860055481565b34801561034a57600080fd5b5061035e6103593660046110fd565b6104c3565b005b34801561036c57600080fd5b5061038061037b366004611130565b6108f2565b60405173ffffffffffffffffffffffffffffffffffffffff90911681526020016102f2565b3480156103b157600080fd5b506103c56103c0366004611149565b610929565b60405190151581526020016102f2565b3480156103e157600080fd5b506006546103809073ffffffffffffffffffffffffffffffffffffffff1681565b34801561040e57600080fd5b5061035e610ad9565b34801561042357600080fd5b506102e860035481565b34801561043957600080fd5b50610380735fbdb2315678afecb367f032d93f642f64180aa381565b34801561046157600080fd5b506102e860085481565b34801561047757600080fd5b506007546103809073ffffffffffffffffffffffffffffffffffffffff1681565b3480156104a457600080fd5b506102e860025481565b3480156104ba57600080fd5b5061035e610ccc565b6104cb610fd0565b60035442116105425760405162461bcd60e51b815260206004820152602560248201527f4561726c7920746f20636c61696d2e2053616c65206973206e6f742066696e6960448201527f736865642e0000000000000000000000000000000000000000000000000000006064820152608401610134565b73ffffffffffffffffffffffffffffffffffffffff82166000908152600960205260409020546105b45760405162461bcd60e51b815260206004820181905260248201527f596f7520646f6e2774206861766520616e7920636f6e747269627574696f6e2e6044820152606401610134565b73ffffffffffffffffffffffffffffffffffffffff821660009081526009602052604081208054908290556008546004549192916105f3918491611029565b90506005546008541015801561060857508015155b1561084c573373ffffffffffffffffffffffffffffffffffffffff851614801561065d57508273ffffffffffffffffffffffffffffffffffffffff168473ffffffffffffffffffffffffffffffffffffffff16145b806106b457503373ffffffffffffffffffffffffffffffffffffffff8516148015906106b457508273ffffffffffffffffffffffffffffffffffffffff168473ffffffffffffffffffffffffffffffffffffffff16145b8061070b57503373ffffffffffffffffffffffffffffffffffffffff851614801561070b57508273ffffffffffffffffffffffffffffffffffffffff168473ffffffffffffffffffffffffffffffffffffffff1614155b15610804576007546040517fa9059cbb00000000000000000000000000000000000000000000000000000000815273ffffffffffffffffffffffffffffffffffffffff8581166004830152602482018490529091169063a9059cbb906044016020604051808303816000875af1158015610789573d6000803e3d6000fd5b505050506040513d601f19601f820116820180604052508101906107ad919061119e565b50604080518381526020810183905273ffffffffffffffffffffffffffffffffffffffff8516917f987d620f307ff6b94d58743cb7a7509f24071586a77759b77c2d4e29f75a2f9a910160405180910390a26108e2565b60405162461bcd60e51b815260206004820181905260248201527f636f6e7472696275746f72206f7220726563697069656e7420696e76616c69646044820152606401610134565b60405173ffffffffffffffffffffffffffffffffffffffff85169083156108fc029084906000818181858888f1935050505015801561088f573d6000803e3d6000fd5b50604080518381526000602082015273ffffffffffffffffffffffffffffffffffffffff8616917f987d620f307ff6b94d58743cb7a7509f24071586a77759b77c2d4e29f75a2f9a910160405180910390a25b50506108ee6001600055565b5050565b600a818154811061090257600080fd5b60009182526020909120015473ffffffffffffffffffffffffffffffffffffffff16905081565b60015460009060ff16156109a55760405162461bcd60e51b815260206004820152602a60248201527f5468697320636f6e74726163742068617320616c7265616479206265656e206960448201527f6e697469616c697a6564000000000000000000000000000000000000000000006064820152608401610134565b33735fbdb2315678afecb367f032d93f642f64180aa314610a085760405162461bcd60e51b815260206004820152601860248201527f596f7520617265206e6f742074686520466163746f72792e00000000000000006044820152606401610134565b600780547fffffffffffffffffffffffff00000000000000000000000000000000000000001673ffffffffffffffffffffffffffffffffffffffff89161790556002849055610a578385611099565b600355506004939093555050600555600680547fffffffffffffffffffffffff00000000000000000000000000000000000000001673ffffffffffffffffffffffffffffffffffffffff9290921691909117905550600180547fffffffffffffffffffffffffffffffffffffffffffffffffffffffffffffff00168117815590565b60065473ffffffffffffffffffffffffffffffffffffffff163314610b405760405162461bcd60e51b815260206004820152601660248201527f596f7520617265206e6f7420746865206f776e65722e000000000000000000006044820152606401610134565b610b48610fd0565b4260035410610b995760405162461bcd60e51b815260206004820152601e60248201527f546865206f66666572696e67206d75737420626520636f6d706c6574656400006044820152606401610134565b6005546008541080610bab5750600854155b610c1c5760405162461bcd60e51b8152602060048201526024808201527f54686520726571756972656420616d6f756e7420686173206265656e2072616960448201527f73656421000000000000000000000000000000000000000000000000000000006064820152608401610134565b600754600654600480546040517fa9059cbb00000000000000000000000000000000000000000000000000000000815273ffffffffffffffffffffffffffffffffffffffff93841692810192909252602482015291169063a9059cbb906044016020604051808303816000875af1158015610c9b573d6000803e3d6000fd5b505050506040513d601f19601f82011682018060405250810190610cbf919061119e565b50610cca6001600055565b565b60065473ffffffffffffffffffffffffffffffffffffffff163314610d335760405162461bcd60e51b815260206004820152601660248201527f596f7520617265206e6f7420746865206f776e65722e000000000000000000006044820152606401610134565b610d3b610fd0565b4260035410610d8c5760405162461bcd60e51b815260206004820152601b60248201527f5769746864726177616c20756e617661696c61626c65207965742e00000000006044820152606401610134565b6005546008541015610e065760405162461bcd60e51b815260206004820152602860248201527f54686520726571756972656420616d6f756e7420686173206e6f74206265656e60448201527f20726169736564210000000000000000000000000000000000000000000000006064820152608401610134565b426003546203f480610e189190611099565b10610f2c576000805b600a54811015610eb557600060096000600a8481548110610e4457610e446111c0565b600091825260208083209091015473ffffffffffffffffffffffffffffffffffffffff168352820192909252604001812054600854600454919350610e8b91849190611029565b9050600082118015610e9b575080155b15610eab57600193505050610eb5565b5050600101610e21565b508015610f2a5760405162461bcd60e51b815260206004820152603460248201527f526566756e642063616e646964617465732065786973742e205769746864726160448201527f77616c20756e617661696c61626c65207965742e0000000000000000000000006064820152608401610134565b505b6000610f396064476111ef565b604051909150735fbdb2315678afecb367f032d93f642f64180aa39082156108fc029083906000818181858888f19350505050158015610f7d573d6000803e3d6000fd5b5060065460405173ffffffffffffffffffffffffffffffffffffffff909116904780156108fc02916000818181858888f19350505050158015610fc4573d6000803e3d6000fd5b5050610cca6001600055565b6002600054036110225760405162461bcd60e51b815260206004820152601f60248201527f5265656e7472616e637947756172643a207265656e7472616e742063616c6c006044820152606401610134565b6002600055565b60006b033b2e3c9fd0803ce80000008284611044838861122a565b61104e91906111ef565b611058919061122a565b61106291906111ef565b949350505050565b7f4e487b7100000000000000000000000000000000000000000000000000000000600052601160045260246000fd5b808201808211156110ac576110ac61106a565b92915050565b803573ffffffffffffffffffffffffffffffffffffffff811681146110d657600080fd5b919050565b6000602082840312156110ed57600080fd5b6110f6826110b2565b9392505050565b6000806040838503121561111057600080fd5b611119836110b2565b9150611127602084016110b2565b90509250929050565b60006020828403121561114257600080fd5b5035919050565b60008060008060008060c0878903121561116257600080fd5b61116b876110b2565b9550611179602088016110b2565b95989597505050506040840135936060810135936080820135935060a0909101359150565b6000602082840312156111b057600080fd5b815180151581146110f657600080fd5b7f4e487b7100000000000000000000000000000000000000000000000000000000600052603260045260246000fd5b600082611225577f4e487b7100000000000000000000000000000000000000000000000000000000600052601260045260246000fd5b500490565b80820281158282048414176110ac576110ac61106a56fea2646970667358221220760651c7e5ba5df0358fd31aa00bbdc21638179598bb1ad2a47eba4b2fbc4f7f64736f6c63430008120033",
  "linkReferences": {},
  "deployedLinkReferences": {}
}