{
  "_format": "hh-sol-artifact-1",
  "contractName": "SaleTemplateV1",
  "sourceName": "contracts/SaleTemplateV1.sol",
  "abi": [
    {
      "anonymous": false,
      "inputs": [
        {
          "indexed": true,
          "internalType": "address",
          "name": "account",
          "type": "address"
        },
        {
          "indexed": false,
          "internalType": "uint256",
          "name": "userShare",
          "type": "uint256"
        },
        {
          "indexed": false,
          "internalType": "uint256",
          "name": "allocation",
          "type": "uint256"
        }
      ],
      "name": "Claimed",
      "type": "event"
    },
    {
      "anonymous": false,
      "inputs": [
        {
          "indexed": true,
          "internalType": "address",
          "name": "account",
          "type": "address"
        },
        {
          "indexed": false,
          "internalType": "uint256",
          "name": "amount",
          "type": "uint256"
        }
      ],
      "name": "Received",
      "type": "event"
    },
    {
      "anonymous": false,
      "inputs": [
        {
          "indexed": true,
          "internalType": "address",
          "name": "sender",
          "type": "address"
        },
        {
          "indexed": false,
          "internalType": "uint256",
          "name": "balance",
          "type": "uint256"
        }
      ],
      "name": "WithdrawnAfterLockDuration",
      "type": "event"
    },
    {
      "anonymous": false,
      "inputs": [
        {
          "indexed": true,
          "internalType": "address",
          "name": "sender",
          "type": "address"
        },
        {
          "indexed": false,
          "internalType": "uint256",
          "name": "balance",
          "type": "uint256"
        }
      ],
      "name": "WithdrawnOnFailed",
      "type": "event"
    },
    {
      "inputs": [
        {
          "internalType": "address",
          "name": "contributor",
          "type": "address"
        },
        {
          "internalType": "address",
          "name": "recipient",
          "type": "address"
        }
      ],
      "name": "claim",
      "outputs": [],
      "stateMutability": "nonpayable",
      "type": "function"
    },
    {
      "inputs": [],
      "name": "closingAt",
      "outputs": [
        {
          "internalType": "uint256",
          "name": "",
          "type": "uint256"
        }
      ],
      "stateMutability": "view",
      "type": "function"
    },
    {
      "inputs": [],
      "name": "distributeAmount",
      "outputs": [
        {
          "internalType": "uint256",
          "name": "",
          "type": "uint256"
        }
      ],
      "stateMutability": "view",
      "type": "function"
    },
    {
      "inputs": [],
      "name": "erc20onsale",
      "outputs": [
        {
          "internalType": "contract IERC20",
          "name": "",
          "type": "address"
        }
      ],
      "stateMutability": "view",
      "type": "function"
    },
    {
      "inputs": [],
      "name": "expirationDuration",
      "outputs": [
        {
          "internalType": "uint32",
          "name": "",
          "type": "uint32"
        }
      ],
      "stateMutability": "view",
      "type": "function"
    },
    {
      "inputs": [],
      "name": "factory",
      "outputs": [
        {
          "internalType": "address",
          "name": "",
          "type": "address"
        }
      ],
      "stateMutability": "view",
      "type": "function"
    },
    {
      "inputs": [],
      "name": "feeRatePerMil",
      "outputs": [
        {
          "internalType": "uint8",
          "name": "",
          "type": "uint8"
        }
      ],
      "stateMutability": "view",
      "type": "function"
    },
    {
      "inputs": [
        {
          "internalType": "address",
          "name": "token_",
          "type": "address"
        },
        {
          "internalType": "address",
          "name": "owner_",
          "type": "address"
        },
        {
          "internalType": "uint256",
          "name": "distributeAmount_",
          "type": "uint256"
        },
        {
          "internalType": "uint256",
          "name": "startingAt_",
          "type": "uint256"
        },
        {
          "internalType": "uint256",
          "name": "eventDuration_",
          "type": "uint256"
        },
        {
          "internalType": "uint256",
          "name": "minimalProvideAmount_",
          "type": "uint256"
        }
      ],
      "name": "initialize",
      "outputs": [
        {
          "internalType": "bool",
          "name": "",
          "type": "bool"
        }
      ],
      "stateMutability": "nonpayable",
      "type": "function"
    },
    {
      "inputs": [],
      "name": "lockDuration",
      "outputs": [
        {
          "internalType": "uint32",
          "name": "",
          "type": "uint32"
        }
      ],
      "stateMutability": "view",
      "type": "function"
    },
    {
      "inputs": [],
      "name": "minimalProvideAmount",
      "outputs": [
        {
          "internalType": "uint256",
          "name": "",
          "type": "uint256"
        }
      ],
      "stateMutability": "view",
      "type": "function"
    },
    {
      "inputs": [],
      "name": "owner",
      "outputs": [
        {
          "internalType": "address",
          "name": "",
          "type": "address"
        }
      ],
      "stateMutability": "view",
      "type": "function"
    },
    {
      "inputs": [
        {
          "internalType": "address",
          "name": "",
          "type": "address"
        }
      ],
      "name": "provided",
      "outputs": [
        {
          "internalType": "uint256",
          "name": "",
          "type": "uint256"
        }
      ],
      "stateMutability": "view",
      "type": "function"
    },
    {
      "inputs": [],
      "name": "startingAt",
      "outputs": [
        {
          "internalType": "uint256",
          "name": "",
          "type": "uint256"
        }
      ],
      "stateMutability": "view",
      "type": "function"
    },
    {
      "inputs": [],
      "name": "totalProvided",
      "outputs": [
        {
          "internalType": "uint256",
          "name": "",
          "type": "uint256"
        }
      ],
      "stateMutability": "view",
      "type": "function"
    },
    {
      "inputs": [],
      "name": "withdrawERC20Onsale",
      "outputs": [],
      "stateMutability": "nonpayable",
      "type": "function"
    },
    {
      "inputs": [],
      "name": "withdrawProvidedETH",
      "outputs": [],
      "stateMutability": "nonpayable",
      "type": "function"
    },
    {
      "inputs": [],
      "name": "withdrawUnclaimedERC20OnSale",
      "outputs": [],
      "stateMutability": "nonpayable",
      "type": "function"
    },
    {
      "stateMutability": "payable",
      "type": "receive"
    }
  ],
  "bytecode": "0x6080604052600060085534801561001557600080fd5b5060016000556114ea8061002a6000396000f3fe6080604052600436106101125760003560e01c80638d975992116100a5578063b86c0e1f11610074578063d2a31c9011610059578063d2a31c901461042f578063dccd43151461045c578063e43608d81461047257600080fd5b8063b86c0e1f146103f1578063c45a01551461040757600080fd5b80638d975992146103475780638da5cb5b1461035d5780639ddb9ee1146103af578063a6e00ca5146103dc57600080fd5b80632f205906116100e15780632f205906146102c5578063400d3d9d146102da5780634f25eced1461030157806386489ba91461031757600080fd5b806302e3cb0b14610237578063045544431461026057806311a4c03a1461028c57806321c0b342146102a357600080fd5b366102325742600254111561016e5760405162461bcd60e51b815260206004820181905260248201527f546865206f66666572696e6720686173206e6f7420737461727465642079657460448201526064015b60405180910390fd5b6003544211156101c05760405162461bcd60e51b815260206004820152601e60248201527f546865206f66666572696e672068617320616c726561647920656e64656400006044820152606401610165565b34600860008282546101d29190611342565b909155505033600090815260096020526040812080543492906101f6908490611342565b909155505060405134815233907f88a5966d370b9919b20f3e2c13ff65706f196a4e32cc2c12bf57088f885258749060200160405180910390a2005b600080fd5b34801561024357600080fd5b5061024d60085481565b6040519081526020015b60405180910390f35b34801561026c57600080fd5b506102776201518081565b60405163ffffffff9091168152602001610257565b34801561029857600080fd5b5061027762278d0081565b3480156102af57600080fd5b506102c36102be366004611384565b610487565b005b3480156102d157600080fd5b506102c361096f565b3480156102e657600080fd5b506102ef600181565b60405160ff9091168152602001610257565b34801561030d57600080fd5b5061024d60045481565b34801561032357600080fd5b506103376103323660046113b7565b610bb6565b6040519015158152602001610257565b34801561035357600080fd5b5061024d60055481565b34801561036957600080fd5b5060065461038a9073ffffffffffffffffffffffffffffffffffffffff1681565b60405173ffffffffffffffffffffffffffffffffffffffff9091168152602001610257565b3480156103bb57600080fd5b5061024d6103ca36600461140c565b60096020526000908152604090205481565b3480156103e857600080fd5b506102c3610d66565b3480156103fd57600080fd5b5061024d60035481565b34801561041357600080fd5b5061038a7336f87b66147b8084af5810ae57679712686b4ade81565b34801561043b57600080fd5b5060075461038a9073ffffffffffffffffffffffffffffffffffffffff1681565b34801561046857600080fd5b5061024d60025481565b34801561047e57600080fd5b506102c3611006565b61048f611276565b60035442116105065760405162461bcd60e51b815260206004820152602560248201527f4561726c7920746f20636c61696d2e2053616c65206973206e6f742066696e6960448201527f736865642e0000000000000000000000000000000000000000000000000000006064820152608401610165565b73ffffffffffffffffffffffffffffffffffffffff82166000908152600960205260409020546105785760405162461bcd60e51b815260206004820181905260248201527f596f7520646f6e2774206861766520616e7920636f6e747269627574696f6e2e6044820152606401610165565b73ffffffffffffffffffffffffffffffffffffffff821660009081526009602052604081208054908290556008546004549192916105b79184916112cf565b9050600062278d0063ffffffff166003546105d29190611342565b60055460085442929092109250111582158280156105ed5750815b80156105f7575080155b15610862573373ffffffffffffffffffffffffffffffffffffffff881614801561064c57508573ffffffffffffffffffffffffffffffffffffffff168773ffffffffffffffffffffffffffffffffffffffff16145b806106a357503373ffffffffffffffffffffffffffffffffffffffff8816148015906106a357508573ffffffffffffffffffffffffffffffffffffffff168773ffffffffffffffffffffffffffffffffffffffff16145b806106fa57503373ffffffffffffffffffffffffffffffffffffffff88161480156106fa57508573ffffffffffffffffffffffffffffffffffffffff168773ffffffffffffffffffffffffffffffffffffffff1614155b156107f4576007546040517fa9059cbb00000000000000000000000000000000000000000000000000000000815273ffffffffffffffffffffffffffffffffffffffff8881166004830152602482018790529091169063a9059cbb906044016020604051808303816000875af1158015610778573d6000803e3d6000fd5b505050506040513d601f19601f8201168201806040525081019061079c9190611427565b50604080518681526020810186905273ffffffffffffffffffffffffffffffffffffffff8816917f987d620f307ff6b94d58743cb7a7509f24071586a77759b77c2d4e29f75a2f9a91015b60405180910390a261095c565b60405162461bcd60e51b815260206004820152603a60248201527f73656e64657220697320636c61696d696e6720736f6d656f6e65206f7468657260448201527f27732066756e6420666f7220736f6d656f6e65206f746865722e0000000000006064820152608401610165565b82801561086d575081155b8061087d575082801561087d5750805b156109145760405173ffffffffffffffffffffffffffffffffffffffff88169086156108fc029087906000818181858888f193505050501580156108c5573d6000803e3d6000fd5b50604080518681526000602082015273ffffffffffffffffffffffffffffffffffffffff8916917f987d620f307ff6b94d58743cb7a7509f24071586a77759b77c2d4e29f75a2f9a91016107e7565b60405162461bcd60e51b815260206004820181905260248201527f436c61696d61626c65207465726d20686173206265656e20657870697265642e6044820152606401610165565b505050505061096b6001600055565b5050565b60065473ffffffffffffffffffffffffffffffffffffffff1633146109d65760405162461bcd60e51b815260206004820152601660248201527f596f7520617265206e6f7420746865206f776e65722e000000000000000000006044820152606401610165565b6109de611276565b60035442906109f1906201518090611342565b10610a3e5760405162461bcd60e51b815260206004820152601b60248201527f5769746864726177616c20756e617661696c61626c65207965742e00000000006044820152606401610165565b6007546040517f70a0823100000000000000000000000000000000000000000000000000000000815230600482015260009173ffffffffffffffffffffffffffffffffffffffff16906370a0823190602401602060405180830381865afa158015610aad573d6000803e3d6000fd5b505050506040513d601f19601f82011682018060405250810190610ad19190611449565b6007546006546040517fa9059cbb00000000000000000000000000000000000000000000000000000000815273ffffffffffffffffffffffffffffffffffffffff918216600482015260248101849052929350169063a9059cbb906044016020604051808303816000875af1158015610b4e573d6000803e3d6000fd5b505050506040513d601f19601f82011682018060405250810190610b729190611427565b5060405181815233907f4e526043998f5e8eb845e3be9675c2b21a1b24bbce088eea5501d4ae54b4824b906020015b60405180910390a250610bb46001600055565b565b60015460009060ff1615610c325760405162461bcd60e51b815260206004820152602a60248201527f5468697320636f6e74726163742068617320616c7265616479206265656e206960448201527f6e697469616c697a6564000000000000000000000000000000000000000000006064820152608401610165565b337336f87b66147b8084af5810ae57679712686b4ade14610c955760405162461bcd60e51b815260206004820152601860248201527f596f7520617265206e6f742074686520466163746f72792e00000000000000006044820152606401610165565b600780547fffffffffffffffffffffffff00000000000000000000000000000000000000001673ffffffffffffffffffffffffffffffffffffffff89161790556002849055610ce48385611342565b600355506004939093555050600555600680547fffffffffffffffffffffffff00000000000000000000000000000000000000001673ffffffffffffffffffffffffffffffffffffffff9290921691909117905550600180547fffffffffffffffffffffffffffffffffffffffffffffffffffffffffffffff00168117815590565b60065473ffffffffffffffffffffffffffffffffffffffff163314610dcd5760405162461bcd60e51b815260206004820152601660248201527f596f7520617265206e6f7420746865206f776e65722e000000000000000000006044820152606401610165565b610dd5611276565b4260035410610e265760405162461bcd60e51b815260206004820152601e60248201527f546865206f66666572696e67206d75737420626520636f6d706c6574656400006044820152606401610165565b60055460085410610e9f5760405162461bcd60e51b815260206004820152602660248201527f54686520726571756972656420616d6f756e7420686173206265656e2070726f60448201527f76696465642100000000000000000000000000000000000000000000000000006064820152608401610165565b6007546040517f70a0823100000000000000000000000000000000000000000000000000000000815230600482015260009173ffffffffffffffffffffffffffffffffffffffff16906370a0823190602401602060405180830381865afa158015610f0e573d6000803e3d6000fd5b505050506040513d601f19601f82011682018060405250810190610f329190611449565b6007546006546040517fa9059cbb00000000000000000000000000000000000000000000000000000000815273ffffffffffffffffffffffffffffffffffffffff918216600482015260248101849052929350169063a9059cbb906044016020604051808303816000875af1158015610faf573d6000803e3d6000fd5b505050506040513d601f19601f82011682018060405250810190610fd39190611427565b5060405181815233907f6ad78535132556a5932c94d741a9ea143e95079b9f556207c27b43cfd8e164e290602001610ba1565b60065473ffffffffffffffffffffffffffffffffffffffff16331461106d5760405162461bcd60e51b815260206004820152601660248201527f596f7520617265206e6f7420746865206f776e65722e000000000000000000006044820152606401610165565b611075611276565b42600354106110eb5760405162461bcd60e51b8152602060048201526024808201527f546865206f66666572696e67206d7573742062652066696e697368656420666960448201527f7273742e000000000000000000000000000000000000000000000000000000006064820152608401610165565b60035442906110fe906201518090611342565b1061114b5760405162461bcd60e51b815260206004820152601b60248201527f5769746864726177616c20756e617661696c61626c65207965742e00000000006044820152606401610165565b60055460085410156111c55760405162461bcd60e51b815260206004820152602a60248201527f54686520726571756972656420616d6f756e7420686173206e6f74206265656e60448201527f2070726f766964656421000000000000000000000000000000000000000000006064820152608401610165565b60006103e86111d5600147611462565b6111df9190611479565b6040519091507336f87b66147b8084af5810ae57679712686b4ade9082156108fc029083906000818181858888f19350505050158015611223573d6000803e3d6000fd5b5060065460405173ffffffffffffffffffffffffffffffffffffffff909116904780156108fc02916000818181858888f1935050505015801561126a573d6000803e3d6000fd5b5050610bb46001600055565b6002600054036112c85760405162461bcd60e51b815260206004820152601f60248201527f5265656e7472616e637947756172643a207265656e7472616e742063616c6c006044820152606401610165565b6002600055565b6000828210156112f557826112e48386611462565b6112ee9190611479565b905061130c565b6112ff8383611479565b6113099085611462565b90505b9392505050565b7f4e487b7100000000000000000000000000000000000000000000000000000000600052601160045260246000fd5b8082018082111561135557611355611313565b92915050565b803573ffffffffffffffffffffffffffffffffffffffff8116811461137f57600080fd5b919050565b6000806040838503121561139757600080fd5b6113a08361135b565b91506113ae6020840161135b565b90509250929050565b60008060008060008060c087890312156113d057600080fd5b6113d98761135b565b95506113e76020880161135b565b95989597505050506040840135936060810135936080820135935060a0909101359150565b60006020828403121561141e57600080fd5b61130c8261135b565b60006020828403121561143957600080fd5b8151801515811461130c57600080fd5b60006020828403121561145b57600080fd5b5051919050565b808202811582820484141761135557611355611313565b6000826114af577f4e487b7100000000000000000000000000000000000000000000000000000000600052601260045260246000fd5b50049056fea264697066735822122097a2134e396e76bd89f1653e50a242b6f88cf196b5c9092cfd92f3c15d08333564736f6c63430008120033",
  "linkReferences": {},
  "deployedLinkReferences": {}
}