{
  "_format": "hh-sol-artifact-1",
  "contractName": "SaleTemplateV1",
  "sourceName": "contracts/SaleTemplateV1.sol",
  "abi": [
    {
      "anonymous": false,
      "inputs": [
        {
          "indexed": true,
          "internalType": "address",
          "name": "account",
          "type": "address"
        },
        {
          "indexed": false,
          "internalType": "uint256",
          "name": "userShare",
          "type": "uint256"
        },
        {
          "indexed": false,
          "internalType": "uint256",
          "name": "allocation",
          "type": "uint256"
        }
      ],
      "name": "Claimed",
      "type": "event"
    },
    {
      "anonymous": false,
      "inputs": [
        {
          "indexed": true,
          "internalType": "address",
          "name": "account",
          "type": "address"
        },
        {
          "indexed": false,
          "internalType": "uint256",
          "name": "amount",
          "type": "uint256"
        }
      ],
      "name": "Received",
      "type": "event"
    },
    {
      "inputs": [],
      "name": "allocatedAmount",
      "outputs": [
        {
          "internalType": "uint256",
          "name": "",
          "type": "uint256"
        }
      ],
      "stateMutability": "view",
      "type": "function"
    },
    {
      "inputs": [
        {
          "internalType": "uint256",
          "name": "",
          "type": "uint256"
        }
      ],
      "name": "bidderAddresses",
      "outputs": [
        {
          "internalType": "address",
          "name": "",
          "type": "address"
        }
      ],
      "stateMutability": "view",
      "type": "function"
    },
    {
      "inputs": [
        {
          "internalType": "address",
          "name": "contributor",
          "type": "address"
        },
        {
          "internalType": "address",
          "name": "recipient",
          "type": "address"
        }
      ],
      "name": "claim",
      "outputs": [],
      "stateMutability": "nonpayable",
      "type": "function"
    },
    {
      "inputs": [],
      "name": "closingAt",
      "outputs": [
        {
          "internalType": "uint256",
          "name": "",
          "type": "uint256"
        }
      ],
      "stateMutability": "view",
      "type": "function"
    },
    {
      "inputs": [],
      "name": "erc20onsale",
      "outputs": [
        {
          "internalType": "contract IERC20",
          "name": "",
          "type": "address"
        }
      ],
      "stateMutability": "view",
      "type": "function"
    },
    {
      "inputs": [],
      "name": "factory",
      "outputs": [
        {
          "internalType": "address",
          "name": "",
          "type": "address"
        }
      ],
      "stateMutability": "view",
      "type": "function"
    },
    {
      "inputs": [
        {
          "internalType": "address",
          "name": "token_",
          "type": "address"
        },
        {
          "internalType": "address",
          "name": "owner_",
          "type": "address"
        },
        {
          "internalType": "uint256",
          "name": "allocatedAmount_",
          "type": "uint256"
        },
        {
          "internalType": "uint256",
          "name": "startingAt_",
          "type": "uint256"
        },
        {
          "internalType": "uint256",
          "name": "eventDuration_",
          "type": "uint256"
        },
        {
          "internalType": "uint256",
          "name": "minRaisedAmount_",
          "type": "uint256"
        }
      ],
      "name": "initialize",
      "outputs": [
        {
          "internalType": "bool",
          "name": "",
          "type": "bool"
        }
      ],
      "stateMutability": "nonpayable",
      "type": "function"
    },
    {
      "inputs": [],
      "name": "minRaisedAmount",
      "outputs": [
        {
          "internalType": "uint256",
          "name": "",
          "type": "uint256"
        }
      ],
      "stateMutability": "view",
      "type": "function"
    },
    {
      "inputs": [],
      "name": "owner",
      "outputs": [
        {
          "internalType": "address",
          "name": "",
          "type": "address"
        }
      ],
      "stateMutability": "view",
      "type": "function"
    },
    {
      "inputs": [
        {
          "internalType": "address",
          "name": "",
          "type": "address"
        }
      ],
      "name": "raised",
      "outputs": [
        {
          "internalType": "uint256",
          "name": "",
          "type": "uint256"
        }
      ],
      "stateMutability": "view",
      "type": "function"
    },
    {
      "inputs": [],
      "name": "startingAt",
      "outputs": [
        {
          "internalType": "uint256",
          "name": "",
          "type": "uint256"
        }
      ],
      "stateMutability": "view",
      "type": "function"
    },
    {
      "inputs": [],
      "name": "totalRaised",
      "outputs": [
        {
          "internalType": "uint256",
          "name": "",
          "type": "uint256"
        }
      ],
      "stateMutability": "view",
      "type": "function"
    },
    {
      "inputs": [],
      "name": "withdrawERC20Onsale",
      "outputs": [],
      "stateMutability": "nonpayable",
      "type": "function"
    },
    {
      "inputs": [],
      "name": "withdrawRaisedETH",
      "outputs": [],
      "stateMutability": "nonpayable",
      "type": "function"
    },
    {
      "stateMutability": "payable",
      "type": "receive"
    }
  ],
  "bytecode": "0x6080604052600060085534801561001557600080fd5b5060016000556112f08061002a6000396000f3fe6080604052600436106100e15760003560e01c8063a6e00ca51161007f578063c5c4744c11610059578063c5c4744c146104cb578063d2a31c90146104e1578063dccd43151461050e578063fdc2c74d1461052457600080fd5b8063a6e00ca514610478578063b86c0e1f1461048d578063c45a0155146104a357600080fd5b806321c0b342116100bb57806321c0b342146103b45780632fb3c48f146103d657806386489ba91461041b5780638da5cb5b1461044b57600080fd5b8063115425e4146103485780631391fd601461037157806318dfe5cf1461039e57600080fd5b366103435742600254111561013d5760405162461bcd60e51b815260206004820181905260248201527f546865206f66666572696e6720686173206e6f7420737461727465642079657460448201526064015b60405180910390fd5b60035442111561018f5760405162461bcd60e51b815260206004820152601e60248201527f546865206f66666572696e672068617320616c726561647920656e64656400006044820152606401610134565b600034116102055760405162461bcd60e51b815260206004820152602160248201527f54686520616d6f756e74206d7573742062652067726561746572207468616e2060448201527f30000000000000000000000000000000000000000000000000000000000000006064820152608401610134565b6000346008546102159190611112565b90506b033b2e3c9fd0803ce800000081106102725760405162461bcd60e51b815260206004820181905260248201527f746f74616c52616973656420697320756e65787065637465646c7920686967686044820152606401610134565b3360009081526009602052604081205490036102e357600a80546001810182556000919091527fc65a7bb8d6351c1cf70c95a316cc6a92839c986682d98bc35f958f4883f9d2a80180547fffffffffffffffffffffffff000000000000000000000000000000000000000016331790555b60088190553360009081526009602052604081208054349290610307908490611112565b909155505060405134815233907f88a5966d370b9919b20f3e2c13ff65706f196a4e32cc2c12bf57088f885258749060200160405180910390a2005b600080fd5b34801561035457600080fd5b5061035e60045481565b6040519081526020015b60405180910390f35b34801561037d57600080fd5b5061035e61038c366004611154565b60096020526000908152604090205481565b3480156103aa57600080fd5b5061035e60055481565b3480156103c057600080fd5b506103d46103cf366004611176565b610539565b005b3480156103e257600080fd5b506103f66103f13660046111a9565b610968565b60405173ffffffffffffffffffffffffffffffffffffffff9091168152602001610368565b34801561042757600080fd5b5061043b6104363660046111c2565b61099f565b6040519015158152602001610368565b34801561045757600080fd5b506006546103f69073ffffffffffffffffffffffffffffffffffffffff1681565b34801561048457600080fd5b506103d4610b4f565b34801561049957600080fd5b5061035e60035481565b3480156104af57600080fd5b506103f6735fbdb2315678afecb367f032d93f642f64180aa381565b3480156104d757600080fd5b5061035e60085481565b3480156104ed57600080fd5b506007546103f69073ffffffffffffffffffffffffffffffffffffffff1681565b34801561051a57600080fd5b5061035e60025481565b34801561053057600080fd5b506103d4610d42565b610541611049565b60035442116105b85760405162461bcd60e51b815260206004820152602560248201527f4561726c7920746f20636c61696d2e2053616c65206973206e6f742066696e6960448201527f736865642e0000000000000000000000000000000000000000000000000000006064820152608401610134565b73ffffffffffffffffffffffffffffffffffffffff821660009081526009602052604090205461062a5760405162461bcd60e51b815260206004820181905260248201527f596f7520646f6e2774206861766520616e7920636f6e747269627574696f6e2e6044820152606401610134565b73ffffffffffffffffffffffffffffffffffffffff821660009081526009602052604081208054908290556008546004549192916106699184916110a2565b90506005546008541015801561067e57508015155b156108c2573373ffffffffffffffffffffffffffffffffffffffff85161480156106d357508273ffffffffffffffffffffffffffffffffffffffff168473ffffffffffffffffffffffffffffffffffffffff16145b8061072a57503373ffffffffffffffffffffffffffffffffffffffff85161480159061072a57508273ffffffffffffffffffffffffffffffffffffffff168473ffffffffffffffffffffffffffffffffffffffff16145b8061078157503373ffffffffffffffffffffffffffffffffffffffff851614801561078157508273ffffffffffffffffffffffffffffffffffffffff168473ffffffffffffffffffffffffffffffffffffffff1614155b1561087a576007546040517fa9059cbb00000000000000000000000000000000000000000000000000000000815273ffffffffffffffffffffffffffffffffffffffff8581166004830152602482018490529091169063a9059cbb906044016020604051808303816000875af11580156107ff573d6000803e3d6000fd5b505050506040513d601f19601f820116820180604052508101906108239190611217565b50604080518381526020810183905273ffffffffffffffffffffffffffffffffffffffff8516917f987d620f307ff6b94d58743cb7a7509f24071586a77759b77c2d4e29f75a2f9a910160405180910390a2610958565b60405162461bcd60e51b815260206004820181905260248201527f636f6e7472696275746f72206f7220726563697069656e7420696e76616c69646044820152606401610134565b60405173ffffffffffffffffffffffffffffffffffffffff85169083156108fc029084906000818181858888f19350505050158015610905573d6000803e3d6000fd5b50604080518381526000602082015273ffffffffffffffffffffffffffffffffffffffff8616917f987d620f307ff6b94d58743cb7a7509f24071586a77759b77c2d4e29f75a2f9a910160405180910390a25b50506109646001600055565b5050565b600a818154811061097857600080fd5b60009182526020909120015473ffffffffffffffffffffffffffffffffffffffff16905081565b60015460009060ff1615610a1b5760405162461bcd60e51b815260206004820152602a60248201527f5468697320636f6e74726163742068617320616c7265616479206265656e206960448201527f6e697469616c697a6564000000000000000000000000000000000000000000006064820152608401610134565b33735fbdb2315678afecb367f032d93f642f64180aa314610a7e5760405162461bcd60e51b815260206004820152601860248201527f596f7520617265206e6f742074686520466163746f72792e00000000000000006044820152606401610134565b600780547fffffffffffffffffffffffff00000000000000000000000000000000000000001673ffffffffffffffffffffffffffffffffffffffff89161790556002849055610acd8385611112565b600355506004939093555050600555600680547fffffffffffffffffffffffff00000000000000000000000000000000000000001673ffffffffffffffffffffffffffffffffffffffff9290921691909117905550600180547fffffffffffffffffffffffffffffffffffffffffffffffffffffffffffffff00168117815590565b60065473ffffffffffffffffffffffffffffffffffffffff163314610bb65760405162461bcd60e51b815260206004820152601660248201527f596f7520617265206e6f7420746865206f776e65722e000000000000000000006044820152606401610134565b610bbe611049565b4260035410610c0f5760405162461bcd60e51b815260206004820152601e60248201527f546865206f66666572696e67206d75737420626520636f6d706c6574656400006044820152606401610134565b6005546008541080610c215750600854155b610c925760405162461bcd60e51b8152602060048201526024808201527f54686520726571756972656420616d6f756e7420686173206265656e2072616960448201527f73656421000000000000000000000000000000000000000000000000000000006064820152608401610134565b600754600654600480546040517fa9059cbb00000000000000000000000000000000000000000000000000000000815273ffffffffffffffffffffffffffffffffffffffff93841692810192909252602482015291169063a9059cbb906044016020604051808303816000875af1158015610d11573d6000803e3d6000fd5b505050506040513d601f19601f82011682018060405250810190610d359190611217565b50610d406001600055565b565b60065473ffffffffffffffffffffffffffffffffffffffff163314610da95760405162461bcd60e51b815260206004820152601660248201527f596f7520617265206e6f7420746865206f776e65722e000000000000000000006044820152606401610134565b610db1611049565b4260035410610e025760405162461bcd60e51b815260206004820152601b60248201527f5769746864726177616c20756e617661696c61626c65207965742e00000000006044820152606401610134565b6005546008541015610e7c5760405162461bcd60e51b815260206004820152602860248201527f54686520726571756972656420616d6f756e7420686173206e6f74206265656e60448201527f20726169736564210000000000000000000000000000000000000000000000006064820152608401610134565b426003546203f480610e8e9190611112565b10610fa557600a54600090815b81811015610f2d57600060096000600a8481548110610ebc57610ebc611239565b600091825260208083209091015473ffffffffffffffffffffffffffffffffffffffff168352820192909252604001812054600854600454919350610f03918491906110a2565b9050600082118015610f13575080155b15610f2357600194505050610f2d565b5050600101610e9b565b508115610fa25760405162461bcd60e51b815260206004820152603460248201527f526566756e642063616e646964617465732065786973742e205769746864726160448201527f77616c20756e617661696c61626c65207965742e0000000000000000000000006064820152608401610134565b50505b6000610fb2606447611268565b604051909150735fbdb2315678afecb367f032d93f642f64180aa39082156108fc029083906000818181858888f19350505050158015610ff6573d6000803e3d6000fd5b5060065460405173ffffffffffffffffffffffffffffffffffffffff909116904780156108fc02916000818181858888f1935050505015801561103d573d6000803e3d6000fd5b5050610d406001600055565b60026000540361109b5760405162461bcd60e51b815260206004820152601f60248201527f5265656e7472616e637947756172643a207265656e7472616e742063616c6c006044820152606401610134565b6002600055565b60006b033b2e3c9fd0803ce800000082846110bd83886112a3565b6110c79190611268565b6110d191906112a3565b6110db9190611268565b949350505050565b7f4e487b7100000000000000000000000000000000000000000000000000000000600052601160045260246000fd5b80820180821115611125576111256110e3565b92915050565b803573ffffffffffffffffffffffffffffffffffffffff8116811461114f57600080fd5b919050565b60006020828403121561116657600080fd5b61116f8261112b565b9392505050565b6000806040838503121561118957600080fd5b6111928361112b565b91506111a06020840161112b565b90509250929050565b6000602082840312156111bb57600080fd5b5035919050565b60008060008060008060c087890312156111db57600080fd5b6111e48761112b565b95506111f26020880161112b565b95989597505050506040840135936060810135936080820135935060a0909101359150565b60006020828403121561122957600080fd5b8151801515811461116f57600080fd5b7f4e487b7100000000000000000000000000000000000000000000000000000000600052603260045260246000fd5b60008261129e577f4e487b7100000000000000000000000000000000000000000000000000000000600052601260045260246000fd5b500490565b8082028115828204841417611125576111256110e356fea264697066735822122058c67b7dee286122ed35d9e91070b7923244d78540ea8292a3f78741a433543864736f6c63430008120033",
  "linkReferences": {},
  "deployedLinkReferences": {}
}