{
  "_format": "hh-sol-artifact-1",
  "contractName": "SaleTemplateV1",
  "sourceName": "contracts/SaleTemplateV1.sol",
  "abi": [
    {
      "anonymous": false,
      "inputs": [
        {
          "indexed": true,
          "internalType": "address",
          "name": "account",
          "type": "address"
        },
        {
          "indexed": false,
          "internalType": "uint256",
          "name": "userShare",
          "type": "uint256"
        },
        {
          "indexed": false,
          "internalType": "uint256",
          "name": "allocation",
          "type": "uint256"
        }
      ],
      "name": "Claimed",
      "type": "event"
    },
    {
      "anonymous": false,
      "inputs": [
        {
          "indexed": true,
          "internalType": "address",
          "name": "account",
          "type": "address"
        },
        {
          "indexed": false,
          "internalType": "uint256",
          "name": "amount",
          "type": "uint256"
        }
      ],
      "name": "Received",
      "type": "event"
    },
    {
      "inputs": [],
      "name": "allocatedAmount",
      "outputs": [
        {
          "internalType": "uint256",
          "name": "",
          "type": "uint256"
        }
      ],
      "stateMutability": "view",
      "type": "function"
    },
    {
      "inputs": [
        {
          "internalType": "address",
          "name": "contributor",
          "type": "address"
        },
        {
          "internalType": "address",
          "name": "recipient",
          "type": "address"
        }
      ],
      "name": "claim",
      "outputs": [],
      "stateMutability": "nonpayable",
      "type": "function"
    },
    {
      "inputs": [],
      "name": "closingAt",
      "outputs": [
        {
          "internalType": "uint256",
          "name": "",
          "type": "uint256"
        }
      ],
      "stateMutability": "view",
      "type": "function"
    },
    {
      "inputs": [],
      "name": "erc20onsale",
      "outputs": [
        {
          "internalType": "contract IERC20",
          "name": "",
          "type": "address"
        }
      ],
      "stateMutability": "view",
      "type": "function"
    },
    {
      "inputs": [],
      "name": "factory",
      "outputs": [
        {
          "internalType": "address",
          "name": "",
          "type": "address"
        }
      ],
      "stateMutability": "view",
      "type": "function"
    },
    {
      "inputs": [
        {
          "internalType": "address",
          "name": "token_",
          "type": "address"
        },
        {
          "internalType": "address",
          "name": "owner_",
          "type": "address"
        },
        {
          "internalType": "uint256",
          "name": "allocatedAmount_",
          "type": "uint256"
        },
        {
          "internalType": "uint256",
          "name": "startingAt_",
          "type": "uint256"
        },
        {
          "internalType": "uint256",
          "name": "eventDuration_",
          "type": "uint256"
        },
        {
          "internalType": "uint256",
          "name": "minRaisedAmount_",
          "type": "uint256"
        }
      ],
      "name": "initialize",
      "outputs": [
        {
          "internalType": "bool",
          "name": "",
          "type": "bool"
        }
      ],
      "stateMutability": "nonpayable",
      "type": "function"
    },
    {
      "inputs": [],
      "name": "minRaisedAmount",
      "outputs": [
        {
          "internalType": "uint256",
          "name": "",
          "type": "uint256"
        }
      ],
      "stateMutability": "view",
      "type": "function"
    },
    {
      "inputs": [],
      "name": "owner",
      "outputs": [
        {
          "internalType": "address",
          "name": "",
          "type": "address"
        }
      ],
      "stateMutability": "view",
      "type": "function"
    },
    {
      "inputs": [
        {
          "internalType": "address",
          "name": "",
          "type": "address"
        }
      ],
      "name": "raised",
      "outputs": [
        {
          "internalType": "uint256",
          "name": "",
          "type": "uint256"
        }
      ],
      "stateMutability": "view",
      "type": "function"
    },
    {
      "inputs": [],
      "name": "startingAt",
      "outputs": [
        {
          "internalType": "uint256",
          "name": "",
          "type": "uint256"
        }
      ],
      "stateMutability": "view",
      "type": "function"
    },
    {
      "inputs": [],
      "name": "totalRaised",
      "outputs": [
        {
          "internalType": "uint256",
          "name": "",
          "type": "uint256"
        }
      ],
      "stateMutability": "view",
      "type": "function"
    },
    {
      "inputs": [],
      "name": "withdrawERC20Onsale",
      "outputs": [],
      "stateMutability": "nonpayable",
      "type": "function"
    },
    {
      "inputs": [],
      "name": "withdrawRaisedETH",
      "outputs": [],
      "stateMutability": "nonpayable",
      "type": "function"
    },
    {
      "stateMutability": "payable",
      "type": "receive"
    }
  ],
  "bytecode": "0x6080604052600060085534801561001557600080fd5b50600160005561115c8061002a6000396000f3fe6080604052600436106100d65760003560e01c8063a6e00ca51161007f578063c5c4744c11610059578063c5c4744c14610436578063d2a31c901461044c578063dccd431514610479578063fdc2c74d1461048f57600080fd5b8063a6e00ca5146103e3578063b86c0e1f146103f8578063c45a01551461040e57600080fd5b806321c0b342116100b057806321c0b3421461033f57806386489ba9146103615780638da5cb5b1461039157600080fd5b8063115425e4146102d35780631391fd60146102fc57806318dfe5cf1461032957600080fd5b366102ce574260025411156101325760405162461bcd60e51b815260206004820181905260248201527f546865206f66666572696e6720686173206e6f7420737461727465642079657460448201526064015b60405180910390fd5b6003544211156101845760405162461bcd60e51b815260206004820152601e60248201527f546865206f66666572696e672068617320616c726561647920656e64656400006044820152606401610129565b66038d7ea4c680003410156102015760405162461bcd60e51b815260206004820152603460248201527f54686520616d6f756e74206d7573742062652067726561746572207468616e2060448201527f6f7220657175616c20746f20302e3030314554480000000000000000000000006064820152608401610129565b6000346008546102119190610fc6565b90506b033b2e3c9fd0803ce8000000811061026e5760405162461bcd60e51b815260206004820181905260248201527f746f74616c52616973656420697320756e65787065637465646c7920686967686044820152606401610129565b60088190553360009081526009602052604081208054349290610292908490610fc6565b909155505060405134815233907f88a5966d370b9919b20f3e2c13ff65706f196a4e32cc2c12bf57088f885258749060200160405180910390a2005b600080fd5b3480156102df57600080fd5b506102e960045481565b6040519081526020015b60405180910390f35b34801561030857600080fd5b506102e9610317366004611008565b60096020526000908152604090205481565b34801561033557600080fd5b506102e960055481565b34801561034b57600080fd5b5061035f61035a36600461102a565b6104a4565b005b34801561036d57600080fd5b5061038161037c36600461105d565b6108d3565b60405190151581526020016102f3565b34801561039d57600080fd5b506006546103be9073ffffffffffffffffffffffffffffffffffffffff1681565b60405173ffffffffffffffffffffffffffffffffffffffff90911681526020016102f3565b3480156103ef57600080fd5b5061035f610a83565b34801561040457600080fd5b506102e960035481565b34801561041a57600080fd5b506103be735fbdb2315678afecb367f032d93f642f64180aa381565b34801561044257600080fd5b506102e960085481565b34801561045857600080fd5b506007546103be9073ffffffffffffffffffffffffffffffffffffffff1681565b34801561048557600080fd5b506102e960025481565b34801561049b57600080fd5b5061035f610c76565b6104ac610efd565b60035442116105235760405162461bcd60e51b815260206004820152602560248201527f4561726c7920746f20636c61696d2e2053616c65206973206e6f742066696e6960448201527f736865642e0000000000000000000000000000000000000000000000000000006064820152608401610129565b73ffffffffffffffffffffffffffffffffffffffff82166000908152600960205260409020546105955760405162461bcd60e51b815260206004820181905260248201527f596f7520646f6e2774206861766520616e7920636f6e747269627574696f6e2e6044820152606401610129565b73ffffffffffffffffffffffffffffffffffffffff821660009081526009602052604081208054908290556008546004549192916105d4918491610f56565b9050600554600854101580156105e957508015155b1561082d573373ffffffffffffffffffffffffffffffffffffffff851614801561063e57508273ffffffffffffffffffffffffffffffffffffffff168473ffffffffffffffffffffffffffffffffffffffff16145b8061069557503373ffffffffffffffffffffffffffffffffffffffff85161480159061069557508273ffffffffffffffffffffffffffffffffffffffff168473ffffffffffffffffffffffffffffffffffffffff16145b806106ec57503373ffffffffffffffffffffffffffffffffffffffff85161480156106ec57508273ffffffffffffffffffffffffffffffffffffffff168473ffffffffffffffffffffffffffffffffffffffff1614155b156107e5576007546040517fa9059cbb00000000000000000000000000000000000000000000000000000000815273ffffffffffffffffffffffffffffffffffffffff8581166004830152602482018490529091169063a9059cbb906044016020604051808303816000875af115801561076a573d6000803e3d6000fd5b505050506040513d601f19601f8201168201806040525081019061078e91906110b2565b50604080518381526020810183905273ffffffffffffffffffffffffffffffffffffffff8516917f987d620f307ff6b94d58743cb7a7509f24071586a77759b77c2d4e29f75a2f9a910160405180910390a26108c3565b60405162461bcd60e51b815260206004820181905260248201527f636f6e7472696275746f72206f7220726563697069656e7420696e76616c69646044820152606401610129565b60405173ffffffffffffffffffffffffffffffffffffffff85169083156108fc029084906000818181858888f19350505050158015610870573d6000803e3d6000fd5b50604080518381526000602082015273ffffffffffffffffffffffffffffffffffffffff8616917f987d620f307ff6b94d58743cb7a7509f24071586a77759b77c2d4e29f75a2f9a910160405180910390a25b50506108cf6001600055565b5050565b60015460009060ff161561094f5760405162461bcd60e51b815260206004820152602a60248201527f5468697320636f6e74726163742068617320616c7265616479206265656e206960448201527f6e697469616c697a6564000000000000000000000000000000000000000000006064820152608401610129565b33735fbdb2315678afecb367f032d93f642f64180aa3146109b25760405162461bcd60e51b815260206004820152601860248201527f596f7520617265206e6f742074686520466163746f72792e00000000000000006044820152606401610129565b600780547fffffffffffffffffffffffff00000000000000000000000000000000000000001673ffffffffffffffffffffffffffffffffffffffff89161790556002849055610a018385610fc6565b600355506004939093555050600555600680547fffffffffffffffffffffffff00000000000000000000000000000000000000001673ffffffffffffffffffffffffffffffffffffffff9290921691909117905550600180547fffffffffffffffffffffffffffffffffffffffffffffffffffffffffffffff00168117815590565b60065473ffffffffffffffffffffffffffffffffffffffff163314610aea5760405162461bcd60e51b815260206004820152601660248201527f596f7520617265206e6f7420746865206f776e65722e000000000000000000006044820152606401610129565b610af2610efd565b4260035410610b435760405162461bcd60e51b815260206004820152601e60248201527f546865206f66666572696e67206d75737420626520636f6d706c6574656400006044820152606401610129565b6005546008541080610b555750600854155b610bc65760405162461bcd60e51b8152602060048201526024808201527f54686520726571756972656420616d6f756e7420686173206265656e2072616960448201527f73656421000000000000000000000000000000000000000000000000000000006064820152608401610129565b600754600654600480546040517fa9059cbb00000000000000000000000000000000000000000000000000000000815273ffffffffffffffffffffffffffffffffffffffff93841692810192909252602482015291169063a9059cbb906044016020604051808303816000875af1158015610c45573d6000803e3d6000fd5b505050506040513d601f19601f82011682018060405250810190610c6991906110b2565b50610c746001600055565b565b60065473ffffffffffffffffffffffffffffffffffffffff163314610cdd5760405162461bcd60e51b815260206004820152601660248201527f596f7520617265206e6f7420746865206f776e65722e000000000000000000006044820152606401610129565b610ce5610efd565b4260035410610d365760405162461bcd60e51b815260206004820152601b60248201527f5769746864726177616c20756e617661696c61626c65207965742e00000000006044820152606401610129565b6005546008541015610db05760405162461bcd60e51b815260206004820152602860248201527f54686520726571756972656420616d6f756e7420686173206e6f74206265656e60448201527f20726169736564210000000000000000000000000000000000000000000000006064820152608401610129565b426003546203f480610dc29190610fc6565b10610e59576000610ddf66038d7ea4c68000600854600454610f56565b905060008111610e575760405162461bcd60e51b815260206004820152603860248201527f526566756e642063616e64696461746573206d61792065786973742e2057697460448201527f6864726177616c20756e617661696c61626c65207965742e00000000000000006064820152608401610129565b505b6000610e666064476110d4565b604051909150735fbdb2315678afecb367f032d93f642f64180aa39082156108fc029083906000818181858888f19350505050158015610eaa573d6000803e3d6000fd5b5060065460405173ffffffffffffffffffffffffffffffffffffffff909116904780156108fc02916000818181858888f19350505050158015610ef1573d6000803e3d6000fd5b5050610c746001600055565b600260005403610f4f5760405162461bcd60e51b815260206004820152601f60248201527f5265656e7472616e637947756172643a207265656e7472616e742063616c6c006044820152606401610129565b6002600055565b60006b033b2e3c9fd0803ce80000008284610f71838861110f565b610f7b91906110d4565b610f85919061110f565b610f8f91906110d4565b949350505050565b7f4e487b7100000000000000000000000000000000000000000000000000000000600052601160045260246000fd5b80820180821115610fd957610fd9610f97565b92915050565b803573ffffffffffffffffffffffffffffffffffffffff8116811461100357600080fd5b919050565b60006020828403121561101a57600080fd5b61102382610fdf565b9392505050565b6000806040838503121561103d57600080fd5b61104683610fdf565b915061105460208401610fdf565b90509250929050565b60008060008060008060c0878903121561107657600080fd5b61107f87610fdf565b955061108d60208801610fdf565b95989597505050506040840135936060810135936080820135935060a0909101359150565b6000602082840312156110c457600080fd5b8151801515811461102357600080fd5b60008261110a577f4e487b7100000000000000000000000000000000000000000000000000000000600052601260045260246000fd5b500490565b8082028115828204841417610fd957610fd9610f9756fea264697066735822122008ebab05b96405f4462c642877a940277c3d3390f594786400fc5c9631c82c2a64736f6c63430008120033",
  "linkReferences": {},
  "deployedLinkReferences": {}
}