{
  "_format": "hh-sol-artifact-1",
  "contractName": "SaleTemplateV1",
  "sourceName": "contracts/SaleTemplateV1.sol",
  "abi": [
    {
      "inputs": [
        {
          "internalType": "address",
          "name": "feePool_",
          "type": "address"
        }
      ],
      "stateMutability": "nonpayable",
      "type": "constructor"
    },
    {
      "anonymous": false,
      "inputs": [
        {
          "indexed": true,
          "internalType": "address",
          "name": "account",
          "type": "address"
        },
        {
          "indexed": false,
          "internalType": "uint256",
          "name": "userShare",
          "type": "uint256"
        },
        {
          "indexed": false,
          "internalType": "uint256",
          "name": "allocation",
          "type": "uint256"
        }
      ],
      "name": "Claimed",
      "type": "event"
    },
    {
      "anonymous": false,
      "inputs": [
        {
          "indexed": true,
          "internalType": "address",
          "name": "account",
          "type": "address"
        },
        {
          "indexed": false,
          "internalType": "uint256",
          "name": "amount",
          "type": "uint256"
        }
      ],
      "name": "Received",
      "type": "event"
    },
    {
      "inputs": [],
      "name": "allocatedAmount",
      "outputs": [
        {
          "internalType": "uint256",
          "name": "",
          "type": "uint256"
        }
      ],
      "stateMutability": "view",
      "type": "function"
    },
    {
      "inputs": [
        {
          "internalType": "address",
          "name": "contributor",
          "type": "address"
        },
        {
          "internalType": "address",
          "name": "recipient",
          "type": "address"
        }
      ],
      "name": "claim",
      "outputs": [],
      "stateMutability": "nonpayable",
      "type": "function"
    },
    {
      "inputs": [],
      "name": "closingAt",
      "outputs": [
        {
          "internalType": "uint256",
          "name": "",
          "type": "uint256"
        }
      ],
      "stateMutability": "view",
      "type": "function"
    },
    {
      "inputs": [],
      "name": "erc20onsale",
      "outputs": [
        {
          "internalType": "contract IERC20",
          "name": "",
          "type": "address"
        }
      ],
      "stateMutability": "view",
      "type": "function"
    },
    {
      "inputs": [],
      "name": "feePool",
      "outputs": [
        {
          "internalType": "address",
          "name": "",
          "type": "address"
        }
      ],
      "stateMutability": "view",
      "type": "function"
    },
    {
      "inputs": [
        {
          "internalType": "address",
          "name": "token_",
          "type": "address"
        },
        {
          "internalType": "address",
          "name": "owner_",
          "type": "address"
        },
        {
          "internalType": "uint256",
          "name": "allocatedAmount_",
          "type": "uint256"
        },
        {
          "internalType": "uint256",
          "name": "startingAt_",
          "type": "uint256"
        },
        {
          "internalType": "uint256",
          "name": "eventDuration_",
          "type": "uint256"
        },
        {
          "internalType": "uint256",
          "name": "minRaisedAmount_",
          "type": "uint256"
        }
      ],
      "name": "initialize",
      "outputs": [
        {
          "internalType": "address",
          "name": "",
          "type": "address"
        },
        {
          "internalType": "uint256",
          "name": "",
          "type": "uint256"
        }
      ],
      "stateMutability": "nonpayable",
      "type": "function"
    },
    {
      "inputs": [],
      "name": "minRaisedAmount",
      "outputs": [
        {
          "internalType": "uint256",
          "name": "",
          "type": "uint256"
        }
      ],
      "stateMutability": "view",
      "type": "function"
    },
    {
      "inputs": [],
      "name": "owner",
      "outputs": [
        {
          "internalType": "address",
          "name": "",
          "type": "address"
        }
      ],
      "stateMutability": "view",
      "type": "function"
    },
    {
      "inputs": [
        {
          "internalType": "address",
          "name": "",
          "type": "address"
        }
      ],
      "name": "raised",
      "outputs": [
        {
          "internalType": "uint256",
          "name": "",
          "type": "uint256"
        }
      ],
      "stateMutability": "view",
      "type": "function"
    },
    {
      "inputs": [],
      "name": "startingAt",
      "outputs": [
        {
          "internalType": "uint256",
          "name": "",
          "type": "uint256"
        }
      ],
      "stateMutability": "view",
      "type": "function"
    },
    {
      "inputs": [],
      "name": "totalRaised",
      "outputs": [
        {
          "internalType": "uint256",
          "name": "",
          "type": "uint256"
        }
      ],
      "stateMutability": "view",
      "type": "function"
    },
    {
      "inputs": [],
      "name": "withdrawERC20Onsale",
      "outputs": [],
      "stateMutability": "nonpayable",
      "type": "function"
    },
    {
      "inputs": [],
      "name": "withdrawRaisedETH",
      "outputs": [],
      "stateMutability": "nonpayable",
      "type": "function"
    },
    {
      "stateMutability": "payable",
      "type": "receive"
    }
  ],
  "bytecode": "0x60a0604052600060085534801561001557600080fd5b506040516115243803806115248339810160408190526100349161004a565b60016000556001600160a01b031660805261007a565b60006020828403121561005c57600080fd5b81516001600160a01b038116811461007357600080fd5b9392505050565b60805161148861009c60003960008181610426015261118d01526114886000f3fe6080604052600436106100d65760003560e01c8063a6e00ca51161007f578063c5c4744c11610059578063c5c4744c1461045e578063d2a31c9014610474578063dccd4315146104a1578063fdc2c74d146104b757600080fd5b8063a6e00ca5146103ff578063ae2e933b14610414578063b86c0e1f1461044857600080fd5b806321c0b342116100b057806321c0b3421461033f57806386489ba9146103615780638da5cb5b146103ad57600080fd5b8063115425e4146102d35780631391fd60146102fc57806318dfe5cf1461032957600080fd5b366102ce574260025411156101325760405162461bcd60e51b815260206004820181905260248201527f546865206f66666572696e6720686173206e6f7420737461727465642079657460448201526064015b60405180910390fd5b6003544211156101845760405162461bcd60e51b815260206004820152601e60248201527f546865206f66666572696e672068617320616c726561647920656e64656400006044820152606401610129565b66038d7ea4c680003410156102015760405162461bcd60e51b815260206004820152603460248201527f54686520616d6f756e74206d7573742062652067726561746572207468616e2060448201527f6f7220657175616c20746f20302e3030314554480000000000000000000000006064820152608401610129565b60003460085461021191906112f2565b90506b033b2e3c9fd0803ce8000000811061026e5760405162461bcd60e51b815260206004820181905260248201527f746f74616c52616973656420697320756e65787065637465646c7920686967686044820152606401610129565b600881905533600090815260096020526040812080543492906102929084906112f2565b909155505060405134815233907f88a5966d370b9919b20f3e2c13ff65706f196a4e32cc2c12bf57088f885258749060200160405180910390a2005b600080fd5b3480156102df57600080fd5b506102e960045481565b6040519081526020015b60405180910390f35b34801561030857600080fd5b506102e9610317366004611334565b60096020526000908152604090205481565b34801561033557600080fd5b506102e960055481565b34801561034b57600080fd5b5061035f61035a366004611356565b6104cc565b005b34801561036d57600080fd5b5061038161037c366004611389565b6108fb565b6040805173ffffffffffffffffffffffffffffffffffffffff90931683526020830191909152016102f3565b3480156103b957600080fd5b506006546103da9073ffffffffffffffffffffffffffffffffffffffff1681565b60405173ffffffffffffffffffffffffffffffffffffffff90911681526020016102f3565b34801561040b57600080fd5b5061035f610d8d565b34801561042057600080fd5b506103da7f000000000000000000000000000000000000000000000000000000000000000081565b34801561045457600080fd5b506102e960035481565b34801561046a57600080fd5b506102e960085481565b34801561048057600080fd5b506007546103da9073ffffffffffffffffffffffffffffffffffffffff1681565b3480156104ad57600080fd5b506102e960025481565b3480156104c357600080fd5b5061035f610f80565b6104d4611229565b600354421161054b5760405162461bcd60e51b815260206004820152602560248201527f4561726c7920746f20636c61696d2e2053616c65206973206e6f742066696e6960448201527f736865642e0000000000000000000000000000000000000000000000000000006064820152608401610129565b73ffffffffffffffffffffffffffffffffffffffff82166000908152600960205260409020546105bd5760405162461bcd60e51b815260206004820181905260248201527f596f7520646f6e2774206861766520616e7920636f6e747269627574696f6e2e6044820152606401610129565b73ffffffffffffffffffffffffffffffffffffffff821660009081526009602052604081208054908290556008546004549192916105fc918491611282565b90506005546008541015801561061157508015155b15610855573373ffffffffffffffffffffffffffffffffffffffff851614801561066657508273ffffffffffffffffffffffffffffffffffffffff168473ffffffffffffffffffffffffffffffffffffffff16145b806106bd57503373ffffffffffffffffffffffffffffffffffffffff8516148015906106bd57508273ffffffffffffffffffffffffffffffffffffffff168473ffffffffffffffffffffffffffffffffffffffff16145b8061071457503373ffffffffffffffffffffffffffffffffffffffff851614801561071457508273ffffffffffffffffffffffffffffffffffffffff168473ffffffffffffffffffffffffffffffffffffffff1614155b1561080d576007546040517fa9059cbb00000000000000000000000000000000000000000000000000000000815273ffffffffffffffffffffffffffffffffffffffff8581166004830152602482018490529091169063a9059cbb906044016020604051808303816000875af1158015610792573d6000803e3d6000fd5b505050506040513d601f19601f820116820180604052508101906107b691906113de565b50604080518381526020810183905273ffffffffffffffffffffffffffffffffffffffff8516917f987d620f307ff6b94d58743cb7a7509f24071586a77759b77c2d4e29f75a2f9a910160405180910390a26108eb565b60405162461bcd60e51b815260206004820181905260248201527f636f6e7472696275746f72206f7220726563697069656e7420696e76616c69646044820152606401610129565b60405173ffffffffffffffffffffffffffffffffffffffff85169083156108fc029084906000818181858888f19350505050158015610898573d6000803e3d6000fd5b50604080518381526000602082015273ffffffffffffffffffffffffffffffffffffffff8616917f987d620f307ff6b94d58743cb7a7509f24071586a77759b77c2d4e29f75a2f9a910160405180910390a25b50506108f76001600055565b5050565b600154600090819060ff16156109795760405162461bcd60e51b815260206004820152602a60248201527f5468697320636f6e74726163742068617320616c7265616479206265656e206960448201527f6e697469616c697a6564000000000000000000000000000000000000000000006064820152608401610129565b73ffffffffffffffffffffffffffffffffffffffff88166109dc5760405162461bcd60e51b815260206004820152601960248201527f476f2077697468206e6f6e206e756c6c20616464726573732e000000000000006044820152606401610129565b84421115610a2c5760405162461bcd60e51b815260206004820181905260248201527f7374617274696e674174206d75737420626520696e20746865206675747572656044820152606401610129565b62015180841015610a7f5760405162461bcd60e51b815260206004820152601b60248201527f6576656e74206475726174696f6e20697320746f6f2073686f727400000000006044820152606401610129565b62278d00841115610ad25760405162461bcd60e51b815260206004820152601a60248201527f6576656e74206475726174696f6e20697320746f6f206c6f6e670000000000006044820152606401610129565b73ffffffffffffffffffffffffffffffffffffffff8716610b355760405162461bcd60e51b815260206004820152601360248201527f6f776e6572206d757374206265207468657265000000000000000000000000006044820152606401610129565b620f4240861015610bae5760405162461bcd60e51b815260206004820152603560248201527f616c6c6f6361746564416d6f756e74206d75737420626520677265617465722060448201527f7468616e206f7220657175616c20746f203165362e00000000000000000000006064820152608401610129565b74446c3b15f9926687d2c40534fdb564000000000000861115610c395760405162461bcd60e51b815260206004820152603360248201527f616c6c6f6361746564416d6f756e74206d757374206265206c6573732074686160448201527f6e206f7220657175616c20746f20316535302e000000000000000000000000006064820152608401610129565b6b033b2e3c9fd0803ce8000000831115610cbb5760405162461bcd60e51b815260206004820152603360248201527f6d696e526169736564416d6f756e74206d757374206265206c6573732074686160448201527f6e206f7220657175616c20746f20316532372e000000000000000000000000006064820152608401610129565b600780547fffffffffffffffffffffffff00000000000000000000000000000000000000001673ffffffffffffffffffffffffffffffffffffffff8a161790556002859055610d0a84866112f2565b600355505060048490556005555050600680547fffffffffffffffffffffffff00000000000000000000000000000000000000001673ffffffffffffffffffffffffffffffffffffffff9390931692909217909155600180547fffffffffffffffffffffffffffffffffffffffffffffffffffffffffffffff0016811790559091565b60065473ffffffffffffffffffffffffffffffffffffffff163314610df45760405162461bcd60e51b815260206004820152601660248201527f596f7520617265206e6f7420746865206f776e65722e000000000000000000006044820152606401610129565b610dfc611229565b4260035410610e4d5760405162461bcd60e51b815260206004820152601e60248201527f546865206f66666572696e67206d75737420626520636f6d706c6574656400006044820152606401610129565b6005546008541080610e5f5750600854155b610ed05760405162461bcd60e51b8152602060048201526024808201527f54686520726571756972656420616d6f756e7420686173206265656e2072616960448201527f73656421000000000000000000000000000000000000000000000000000000006064820152608401610129565b600754600654600480546040517fa9059cbb00000000000000000000000000000000000000000000000000000000815273ffffffffffffffffffffffffffffffffffffffff93841692810192909252602482015291169063a9059cbb906044016020604051808303816000875af1158015610f4f573d6000803e3d6000fd5b505050506040513d601f19601f82011682018060405250810190610f7391906113de565b50610f7e6001600055565b565b60065473ffffffffffffffffffffffffffffffffffffffff163314610fe75760405162461bcd60e51b815260206004820152601660248201527f596f7520617265206e6f7420746865206f776e65722e000000000000000000006044820152606401610129565b610fef611229565b42600354106110405760405162461bcd60e51b815260206004820152601b60248201527f5769746864726177616c20756e617661696c61626c65207965742e00000000006044820152606401610129565b60055460085410156110ba5760405162461bcd60e51b815260206004820152602860248201527f54686520726571756972656420616d6f756e7420686173206e6f74206265656e60448201527f20726169736564210000000000000000000000000000000000000000000000006064820152608401610129565b426003546203f4806110cc91906112f2565b106111635760006110e966038d7ea4c68000600854600454611282565b9050600081116111615760405162461bcd60e51b815260206004820152603860248201527f526566756e642063616e64696461746573206d61792065786973742e2057697460448201527f6864726177616c20756e617661696c61626c65207965742e00000000000000006064820152608401610129565b505b6000611170606447611400565b60405190915073ffffffffffffffffffffffffffffffffffffffff7f0000000000000000000000000000000000000000000000000000000000000000169082156108fc029083906000818181858888f193505050501580156111d6573d6000803e3d6000fd5b5060065460405173ffffffffffffffffffffffffffffffffffffffff909116904780156108fc02916000818181858888f1935050505015801561121d573d6000803e3d6000fd5b5050610f7e6001600055565b60026000540361127b5760405162461bcd60e51b815260206004820152601f60248201527f5265656e7472616e637947756172643a207265656e7472616e742063616c6c006044820152606401610129565b6002600055565b60006b033b2e3c9fd0803ce8000000828461129d838861143b565b6112a79190611400565b6112b1919061143b565b6112bb9190611400565b949350505050565b7f4e487b7100000000000000000000000000000000000000000000000000000000600052601160045260246000fd5b80820180821115611305576113056112c3565b92915050565b803573ffffffffffffffffffffffffffffffffffffffff8116811461132f57600080fd5b919050565b60006020828403121561134657600080fd5b61134f8261130b565b9392505050565b6000806040838503121561136957600080fd5b6113728361130b565b91506113806020840161130b565b90509250929050565b60008060008060008060c087890312156113a257600080fd5b6113ab8761130b565b95506113b96020880161130b565b95989597505050506040840135936060810135936080820135935060a0909101359150565b6000602082840312156113f057600080fd5b8151801515811461134f57600080fd5b600082611436577f4e487b7100000000000000000000000000000000000000000000000000000000600052601260045260246000fd5b500490565b8082028115828204841417611305576113056112c356fea2646970667358221220bdf84dc80883d52bff075d8b36f52a9df421aa5e6ce9ec8b754ba4fab210e73364736f6c63430008120033",
  "linkReferences": {},
  "deployedLinkReferences": {}
}