{
  "_format": "hh-sol-artifact-1",
  "contractName": "YMWK",
  "sourceName": "contracts/YMWK.sol",
  "abi": [
    {
      "inputs": [],
      "stateMutability": "nonpayable",
      "type": "constructor"
    },
    {
      "anonymous": false,
      "inputs": [
        {
          "indexed": true,
          "internalType": "address",
          "name": "owner",
          "type": "address"
        },
        {
          "indexed": true,
          "internalType": "address",
          "name": "spender",
          "type": "address"
        },
        {
          "indexed": false,
          "internalType": "uint256",
          "name": "value",
          "type": "uint256"
        }
      ],
      "name": "Approval",
      "type": "event"
    },
    {
      "anonymous": false,
      "inputs": [
        {
          "indexed": false,
          "internalType": "address",
          "name": "admin",
          "type": "address"
        }
      ],
      "name": "SetAdmin",
      "type": "event"
    },
    {
      "anonymous": false,
      "inputs": [
        {
          "indexed": false,
          "internalType": "address",
          "name": "minter",
          "type": "address"
        }
      ],
      "name": "SetMinter",
      "type": "event"
    },
    {
      "anonymous": false,
      "inputs": [
        {
          "indexed": true,
          "internalType": "address",
          "name": "from",
          "type": "address"
        },
        {
          "indexed": true,
          "internalType": "address",
          "name": "to",
          "type": "address"
        },
        {
          "indexed": false,
          "internalType": "uint256",
          "name": "value",
          "type": "uint256"
        }
      ],
      "name": "Transfer",
      "type": "event"
    },
    {
      "anonymous": false,
      "inputs": [
        {
          "indexed": false,
          "internalType": "uint256",
          "name": "time",
          "type": "uint256"
        },
        {
          "indexed": false,
          "internalType": "uint256",
          "name": "rate",
          "type": "uint256"
        },
        {
          "indexed": false,
          "internalType": "uint256",
          "name": "supply",
          "type": "uint256"
        }
      ],
      "name": "UpdateMiningParameters",
      "type": "event"
    },
    {
      "inputs": [],
      "name": "admin",
      "outputs": [
        {
          "internalType": "address",
          "name": "",
          "type": "address"
        }
      ],
      "stateMutability": "view",
      "type": "function"
    },
    {
      "inputs": [
        {
          "internalType": "address",
          "name": "owner",
          "type": "address"
        },
        {
          "internalType": "address",
          "name": "spender",
          "type": "address"
        }
      ],
      "name": "allowance",
      "outputs": [
        {
          "internalType": "uint256",
          "name": "",
          "type": "uint256"
        }
      ],
      "stateMutability": "view",
      "type": "function"
    },
    {
      "inputs": [
        {
          "internalType": "address",
          "name": "spender",
          "type": "address"
        },
        {
          "internalType": "uint256",
          "name": "amount",
          "type": "uint256"
        }
      ],
      "name": "approve",
      "outputs": [
        {
          "internalType": "bool",
          "name": "",
          "type": "bool"
        }
      ],
      "stateMutability": "nonpayable",
      "type": "function"
    },
    {
      "inputs": [],
      "name": "availableSupply",
      "outputs": [
        {
          "internalType": "uint256",
          "name": "",
          "type": "uint256"
        }
      ],
      "stateMutability": "view",
      "type": "function"
    },
    {
      "inputs": [
        {
          "internalType": "address",
          "name": "account",
          "type": "address"
        }
      ],
      "name": "balanceOf",
      "outputs": [
        {
          "internalType": "uint256",
          "name": "",
          "type": "uint256"
        }
      ],
      "stateMutability": "view",
      "type": "function"
    },
    {
      "inputs": [
        {
          "internalType": "uint256",
          "name": "_value",
          "type": "uint256"
        }
      ],
      "name": "burn",
      "outputs": [
        {
          "internalType": "bool",
          "name": "",
          "type": "bool"
        }
      ],
      "stateMutability": "nonpayable",
      "type": "function"
    },
    {
      "inputs": [],
      "name": "decimals",
      "outputs": [
        {
          "internalType": "uint8",
          "name": "",
          "type": "uint8"
        }
      ],
      "stateMutability": "view",
      "type": "function"
    },
    {
      "inputs": [
        {
          "internalType": "address",
          "name": "spender",
          "type": "address"
        },
        {
          "internalType": "uint256",
          "name": "subtractedValue",
          "type": "uint256"
        }
      ],
      "name": "decreaseAllowance",
      "outputs": [
        {
          "internalType": "bool",
          "name": "",
          "type": "bool"
        }
      ],
      "stateMutability": "nonpayable",
      "type": "function"
    },
    {
      "inputs": [],
      "name": "futureEpochTimeWrite",
      "outputs": [
        {
          "internalType": "uint256",
          "name": "",
          "type": "uint256"
        }
      ],
      "stateMutability": "nonpayable",
      "type": "function"
    },
    {
      "inputs": [
        {
          "internalType": "address",
          "name": "spender",
          "type": "address"
        },
        {
          "internalType": "uint256",
          "name": "addedValue",
          "type": "uint256"
        }
      ],
      "name": "increaseAllowance",
      "outputs": [
        {
          "internalType": "bool",
          "name": "",
          "type": "bool"
        }
      ],
      "stateMutability": "nonpayable",
      "type": "function"
    },
    {
      "inputs": [],
      "name": "miningEpoch",
      "outputs": [
        {
          "internalType": "int128",
          "name": "",
          "type": "int128"
        }
      ],
      "stateMutability": "view",
      "type": "function"
    },
    {
      "inputs": [
        {
          "internalType": "address",
          "name": "_to",
          "type": "address"
        },
        {
          "internalType": "uint256",
          "name": "_value",
          "type": "uint256"
        }
      ],
      "name": "mint",
      "outputs": [
        {
          "internalType": "bool",
          "name": "",
          "type": "bool"
        }
      ],
      "stateMutability": "nonpayable",
      "type": "function"
    },
    {
      "inputs": [
        {
          "internalType": "uint256",
          "name": "start",
          "type": "uint256"
        },
        {
          "internalType": "uint256",
          "name": "end",
          "type": "uint256"
        }
      ],
      "name": "mintableInTimeframe",
      "outputs": [
        {
          "internalType": "uint256",
          "name": "",
          "type": "uint256"
        }
      ],
      "stateMutability": "view",
      "type": "function"
    },
    {
      "inputs": [],
      "name": "minter",
      "outputs": [
        {
          "internalType": "address",
          "name": "",
          "type": "address"
        }
      ],
      "stateMutability": "view",
      "type": "function"
    },
    {
      "inputs": [],
      "name": "name",
      "outputs": [
        {
          "internalType": "string",
          "name": "",
          "type": "string"
        }
      ],
      "stateMutability": "view",
      "type": "function"
    },
    {
      "inputs": [],
      "name": "rate",
      "outputs": [
        {
          "internalType": "uint256",
          "name": "",
          "type": "uint256"
        }
      ],
      "stateMutability": "view",
      "type": "function"
    },
    {
      "inputs": [
        {
          "internalType": "address",
          "name": "_admin",
          "type": "address"
        }
      ],
      "name": "setAdmin",
      "outputs": [],
      "stateMutability": "nonpayable",
      "type": "function"
    },
    {
      "inputs": [
        {
          "internalType": "address",
          "name": "_minter",
          "type": "address"
        }
      ],
      "name": "setMinter",
      "outputs": [],
      "stateMutability": "nonpayable",
      "type": "function"
    },
    {
      "inputs": [],
      "name": "startEpochTime",
      "outputs": [
        {
          "internalType": "uint256",
          "name": "",
          "type": "uint256"
        }
      ],
      "stateMutability": "view",
      "type": "function"
    },
    {
      "inputs": [],
      "name": "startEpochTimeWrite",
      "outputs": [
        {
          "internalType": "uint256",
          "name": "",
          "type": "uint256"
        }
      ],
      "stateMutability": "nonpayable",
      "type": "function"
    },
    {
      "inputs": [],
      "name": "symbol",
      "outputs": [
        {
          "internalType": "string",
          "name": "",
          "type": "string"
        }
      ],
      "stateMutability": "view",
      "type": "function"
    },
    {
      "inputs": [],
      "name": "totalSupply",
      "outputs": [
        {
          "internalType": "uint256",
          "name": "",
          "type": "uint256"
        }
      ],
      "stateMutability": "view",
      "type": "function"
    },
    {
      "inputs": [
        {
          "internalType": "address",
          "name": "to",
          "type": "address"
        },
        {
          "internalType": "uint256",
          "name": "amount",
          "type": "uint256"
        }
      ],
      "name": "transfer",
      "outputs": [
        {
          "internalType": "bool",
          "name": "",
          "type": "bool"
        }
      ],
      "stateMutability": "nonpayable",
      "type": "function"
    },
    {
      "inputs": [
        {
          "internalType": "address",
          "name": "from",
          "type": "address"
        },
        {
          "internalType": "address",
          "name": "to",
          "type": "address"
        },
        {
          "internalType": "uint256",
          "name": "amount",
          "type": "uint256"
        }
      ],
      "name": "transferFrom",
      "outputs": [
        {
          "internalType": "bool",
          "name": "",
          "type": "bool"
        }
      ],
      "stateMutability": "nonpayable",
      "type": "function"
    },
    {
      "inputs": [],
      "name": "updateMiningParameters",
      "outputs": [],
      "stateMutability": "nonpayable",
      "type": "function"
    }
  ],
  "bytecode": "0x60806040523480156200001157600080fd5b50604051806040016040528060128152602001712cb0b6b0bbb0b5b2902220a7902a37b5b2b760711b81525060405180604001604052806004815260200163594d574b60e01b81525081600390816200006b919062000287565b5060046200007a828262000287565b50505060006200008f6200011360201b60201c565b6200009c90600a62000468565b620000ac90631ad2748062000480565b9050620000ba338262000118565b600680546001600160a01b031916331790556301e13380620000dd81426200049a565b620000e99190620004b0565b600855600780546001600160801b0319166001600160801b031790556000600955600a55620004c6565b601290565b6001600160a01b038216620001735760405162461bcd60e51b815260206004820152601f60248201527f45524332303a206d696e7420746f20746865207a65726f206164647265737300604482015260640160405180910390fd5b80600260008282546200018791906200049a565b90915550506001600160a01b038216600081815260208181526040808320805486019055518481527fddf252ad1be2c89b69c2b068fc378daa952ba7f163c4a11628f55a4df523b3ef910160405180910390a35050565b505050565b634e487b7160e01b600052604160045260246000fd5b600181811c908216806200020e57607f821691505b6020821081036200022f57634e487b7160e01b600052602260045260246000fd5b50919050565b601f821115620001de57600081815260208120601f850160051c810160208610156200025e5750805b601f850160051c820191505b818110156200027f578281556001016200026a565b505050505050565b81516001600160401b03811115620002a357620002a3620001e3565b620002bb81620002b48454620001f9565b8462000235565b602080601f831160018114620002f35760008415620002da5750858301515b600019600386901b1c1916600185901b1785556200027f565b600085815260208120601f198616915b82811015620003245788860151825594840194600190910190840162000303565b5085821015620003435787850151600019600388901b60f8161c191681555b5050505050600190811b01905550565b634e487b7160e01b600052601160045260246000fd5b600181815b80851115620003aa5781600019048211156200038e576200038e62000353565b808516156200039c57918102915b93841c93908002906200036e565b509250929050565b600082620003c35750600162000462565b81620003d25750600062000462565b8160018114620003eb5760028114620003f65762000416565b600191505062000462565b60ff8411156200040a576200040a62000353565b50506001821b62000462565b5060208310610133831016604e8410600b84101617156200043b575081810a62000462565b62000447838362000369565b80600019048211156200045e576200045e62000353565b0290505b92915050565b60006200047960ff841683620003b2565b9392505050565b808202811582820484141762000462576200046262000353565b8082018082111562000462576200046262000353565b8181038181111562000462576200046262000353565b61182e80620004d66000396000f3fe608060405234801561001057600080fd5b50600436106101a35760003560e01c806364ef6dd4116100ee578063a457c2d711610097578063cb626ae211610071578063cb626ae214610375578063dd62ed3e1461037d578063f851a440146103c3578063fca3b5aa146103e357600080fd5b8063a457c2d71461033c578063a9059cbb1461034f578063c3b03fa81461036257600080fd5b80637ecc2b56116100c85780637ecc2b561461032457806395d89b411461032c578063a228bced1461033457600080fd5b806364ef6dd4146102b9578063704b6c02146102d957806370a08231146102ee57600080fd5b8063277dbafb11610150578063395093511161012a578063395093511461028057806340c10f191461029357806342966c68146102a657600080fd5b8063277dbafb146102605780632c4e722e14610268578063313ce5671461027157600080fd5b80631814a5b1116101815780631814a5b11461022e57806318160ddd1461024557806323b872dd1461024d57600080fd5b806306fdde03146101a857806307546172146101c6578063095ea7b31461020b575b600080fd5b6101b06103f6565b6040516101bd919061152a565b60405180910390f35b6005546101e69073ffffffffffffffffffffffffffffffffffffffff1681565b60405173ffffffffffffffffffffffffffffffffffffffff90911681526020016101bd565b61021e6102193660046115ba565b610488565b60405190151581526020016101bd565b61023760085481565b6040519081526020016101bd565b600254610237565b61021e61025b3660046115e4565b6104a2565b6102376104c6565b61023760095481565b604051601281526020016101bd565b61021e61028e3660046115ba565b61050e565b61021e6102a13660046115ba565b61055a565b61021e6102b4366004611620565b6106ef565b6007546102c690600f0b81565b604051600f9190910b81526020016101bd565b6102ec6102e7366004611639565b610703565b005b6102376102fc366004611639565b73ffffffffffffffffffffffffffffffffffffffff1660009081526020819052604090205490565b6102376107e4565b6101b06107f3565b610237610802565b61021e61034a3660046115ba565b610831565b61021e61035d3660046115ba565b6108e8565b61023761037036600461165b565b6108f6565b6102ec610b41565b61023761038b36600461167d565b73ffffffffffffffffffffffffffffffffffffffff918216600090815260016020908152604080832093909416825291909152205490565b6006546101e69073ffffffffffffffffffffffffffffffffffffffff1681565b6102ec6103f1366004611639565b610bac565b606060038054610405906116b0565b80601f0160208091040260200160405190810160405280929190818152602001828054610431906116b0565b801561047e5780601f106104535761010080835404028352916020019161047e565b820191906000526020600020905b81548152906001019060200180831161046157829003601f168201915b5050505050905090565b600033610496818585610d12565b60019150505b92915050565b6000336104b0858285610e92565b6104bb858585610f4f565b506001949350505050565b6008546000906104da6301e1338082611732565b4210610500576104e8611170565b6301e133806008546104fa9190611732565b91505090565b6104fa6301e1338082611732565b33600081815260016020908152604080832073ffffffffffffffffffffffffffffffffffffffff871684529091528120549091906104969082908690610555908790611732565b610d12565b60055460009073ffffffffffffffffffffffffffffffffffffffff1633146105c95760405162461bcd60e51b815260206004820152601060248201527f6465763a206d696e746572206f6e6c790000000000000000000000000000000060448201526064015b60405180910390fd5b73ffffffffffffffffffffffffffffffffffffffff831661062c5760405162461bcd60e51b815260206004820152601160248201527f6465763a207a65726f206164647265737300000000000000000000000000000060448201526064016105c0565b6301e1338060085461063e9190611732565b421061064c5761064c611170565b61065461129f565b8261065e60025490565b6106689190611732565b11156106dc5760405162461bcd60e51b815260206004820152602260248201527f6465763a206578636565647320616c6c6f7761626c65206d696e7420616d6f7560448201527f6e7400000000000000000000000000000000000000000000000000000000000060648201526084016105c0565b6106e683836112c9565b50600192915050565b60006106fb33836113a2565b506001919050565b60065473ffffffffffffffffffffffffffffffffffffffff16331461076a5760405162461bcd60e51b815260206004820152600f60248201527f6465763a2061646d696e206f6e6c79000000000000000000000000000000000060448201526064016105c0565b600680547fffffffffffffffffffffffff00000000000000000000000000000000000000001673ffffffffffffffffffffffffffffffffffffffff83169081179091556040519081527f5a272403b402d892977df56625f4164ccaf70ca3863991c43ecfe76a6905b0a1906020015b60405180910390a150565b60006107ee61129f565b905090565b606060048054610405906116b0565b6008546000906108166301e1338082611732565b421061082c57610824611170565b505060085490565b919050565b33600081815260016020908152604080832073ffffffffffffffffffffffffffffffffffffffff87168452909152812054909190838110156108db5760405162461bcd60e51b815260206004820152602560248201527f45524332303a2064656372656173656420616c6c6f77616e63652062656c6f7760448201527f207a65726f00000000000000000000000000000000000000000000000000000060648201526084016105c0565b6104bb8286868403610d12565b600033610496818585610f4f565b6000818311156109485760405162461bcd60e51b815260206004820152601060248201527f6465763a207374617274203e20656e640000000000000000000000000000000060448201526064016105c0565b600854600954600091906109606301e1338083611732565b85111561099f576109756301e1338083611732565b9150670f6b75ab2bc471c7610992670de0b6b3a764000083611745565b61099c919061175c565b90505b6109ad6301e1338083611732565b8511156109fc5760405162461bcd60e51b815260206004820152601660248201527f6465763a20746f6f2066617220696e206675747572650000000000000000000060448201526064016105c0565b60005b6103e7811015610b3657828610610a8f5785610a1f6301e1338085611732565b811115610a3757610a346301e1338085611732565b90505b87610a466301e1338086611732565b8110610a53575050610b36565b84811015610a5e5750835b610a688183611797565b610a729085611745565b610a7c9087611732565b9550848910610a8c575050610b36565b50505b610a9d6301e1338084611797565b9250670de0b6b3a7640000610aba670f6b75ab2bc471c784611745565b610ac4919061175c565b9150610adf6301e133806a2d7eb3f96e070d9700000061175c565b821115610b2e5760405162461bcd60e51b815260206004820152601860248201527f546869732073686f756c64206e657665722068617070656e000000000000000060448201526064016105c0565b6001016109ff565b509195945050505050565b6301e13380600854610b539190611732565b421015610ba25760405162461bcd60e51b815260206004820152600e60248201527f6465763a20746f6f20736f6f6e2100000000000000000000000000000000000060448201526064016105c0565b610baa611170565b565b60065473ffffffffffffffffffffffffffffffffffffffff163314610c135760405162461bcd60e51b815260206004820152600f60248201527f6465763a2061646d696e206f6e6c79000000000000000000000000000000000060448201526064016105c0565b60055473ffffffffffffffffffffffffffffffffffffffff1615610c9f5760405162461bcd60e51b815260206004820152602e60248201527f6465763a2063616e2073657420746865206d696e746572206f6e6c79206f6e6360448201527f652c206174206372656174696f6e00000000000000000000000000000000000060648201526084016105c0565b600580547fffffffffffffffffffffffff00000000000000000000000000000000000000001673ffffffffffffffffffffffffffffffffffffffff83169081179091556040519081527fcec52196e972044edde8689a1b608e459c5946b7f3e5c8cd3d6d8e126d422e1c906020016107d9565b73ffffffffffffffffffffffffffffffffffffffff8316610d9a5760405162461bcd60e51b8152602060048201526024808201527f45524332303a20617070726f76652066726f6d20746865207a65726f2061646460448201527f726573730000000000000000000000000000000000000000000000000000000060648201526084016105c0565b73ffffffffffffffffffffffffffffffffffffffff8216610e235760405162461bcd60e51b815260206004820152602260248201527f45524332303a20617070726f766520746f20746865207a65726f20616464726560448201527f737300000000000000000000000000000000000000000000000000000000000060648201526084016105c0565b73ffffffffffffffffffffffffffffffffffffffff83811660008181526001602090815260408083209487168084529482529182902085905590518481527f8c5be1e5ebec7d5bd14f71427d1e84f3dd0314c0f7b2291e5b200ac8c7c3b92591015b60405180910390a3505050565b73ffffffffffffffffffffffffffffffffffffffff8381166000908152600160209081526040808320938616835292905220547fffffffffffffffffffffffffffffffffffffffffffffffffffffffffffffffff8114610f495781811015610f3c5760405162461bcd60e51b815260206004820152601d60248201527f45524332303a20696e73756666696369656e7420616c6c6f77616e636500000060448201526064016105c0565b610f498484848403610d12565b50505050565b73ffffffffffffffffffffffffffffffffffffffff8316610fd85760405162461bcd60e51b815260206004820152602560248201527f45524332303a207472616e736665722066726f6d20746865207a65726f20616460448201527f647265737300000000000000000000000000000000000000000000000000000060648201526084016105c0565b73ffffffffffffffffffffffffffffffffffffffff82166110615760405162461bcd60e51b815260206004820152602360248201527f45524332303a207472616e7366657220746f20746865207a65726f206164647260448201527f657373000000000000000000000000000000000000000000000000000000000060648201526084016105c0565b73ffffffffffffffffffffffffffffffffffffffff8316600090815260208190526040902054818110156110fd5760405162461bcd60e51b815260206004820152602660248201527f45524332303a207472616e7366657220616d6f756e742065786365656473206260448201527f616c616e6365000000000000000000000000000000000000000000000000000060648201526084016105c0565b73ffffffffffffffffffffffffffffffffffffffff848116600081815260208181526040808320878703905593871680835291849020805487019055925185815290927fddf252ad1be2c89b69c2b068fc378daa952ba7f163c4a11628f55a4df523b3ef910160405180910390a3610f49565b600954600a54600880546301e13380919060009061118f908490611732565b909155505060078054600191906000906111ad908490600f0b6117aa565b92506101000a8154816fffffffffffffffffffffffffffffffff0219169083600f0b6fffffffffffffffffffffffffffffffff1602179055508160000361120e576112076301e133806a2d7eb3f96e070d9700000061175c565b9150611255565b61121c6301e1338083611745565b6112269082611732565b600a8190559050670f6b75ab2bc471c7611248670de0b6b3a764000084611745565b611252919061175c565b91505b600982905560408051428152602081018490529081018290527f27e46362a1e6129b6dd539c984ce739291a97128dfcaeca1255e8ac83abd94419060600160405180910390a15050565b6000600954600854426112b29190611797565b6112bc9190611745565b600a546107ee9190611732565b73ffffffffffffffffffffffffffffffffffffffff821661132c5760405162461bcd60e51b815260206004820152601f60248201527f45524332303a206d696e7420746f20746865207a65726f20616464726573730060448201526064016105c0565b806002600082825461133e9190611732565b909155505073ffffffffffffffffffffffffffffffffffffffff8216600081815260208181526040808320805486019055518481527fddf252ad1be2c89b69c2b068fc378daa952ba7f163c4a11628f55a4df523b3ef910160405180910390a35050565b73ffffffffffffffffffffffffffffffffffffffff821661142b5760405162461bcd60e51b815260206004820152602160248201527f45524332303a206275726e2066726f6d20746865207a65726f2061646472657360448201527f730000000000000000000000000000000000000000000000000000000000000060648201526084016105c0565b73ffffffffffffffffffffffffffffffffffffffff8216600090815260208190526040902054818110156114c75760405162461bcd60e51b815260206004820152602260248201527f45524332303a206275726e20616d6f756e7420657863656564732062616c616e60448201527f636500000000000000000000000000000000000000000000000000000000000060648201526084016105c0565b73ffffffffffffffffffffffffffffffffffffffff83166000818152602081815260408083208686039055600280548790039055518581529192917fddf252ad1be2c89b69c2b068fc378daa952ba7f163c4a11628f55a4df523b3ef9101610e85565b600060208083528351808285015260005b818110156115575785810183015185820160400152820161153b565b5060006040828601015260407fffffffffffffffffffffffffffffffffffffffffffffffffffffffffffffffe0601f8301168501019250505092915050565b803573ffffffffffffffffffffffffffffffffffffffff8116811461082c57600080fd5b600080604083850312156115cd57600080fd5b6115d683611596565b946020939093013593505050565b6000806000606084860312156115f957600080fd5b61160284611596565b925061161060208501611596565b9150604084013590509250925092565b60006020828403121561163257600080fd5b5035919050565b60006020828403121561164b57600080fd5b61165482611596565b9392505050565b6000806040838503121561166e57600080fd5b50508035926020909101359150565b6000806040838503121561169057600080fd5b61169983611596565b91506116a760208401611596565b90509250929050565b600181811c908216806116c457607f821691505b6020821081036116fd577f4e487b7100000000000000000000000000000000000000000000000000000000600052602260045260246000fd5b50919050565b7f4e487b7100000000000000000000000000000000000000000000000000000000600052601160045260246000fd5b8082018082111561049c5761049c611703565b808202811582820484141761049c5761049c611703565b600082611792577f4e487b7100000000000000000000000000000000000000000000000000000000600052601260045260246000fd5b500490565b8181038181111561049c5761049c611703565b600f81810b9083900b016f7fffffffffffffffffffffffffffffff81137fffffffffffffffffffffffffffffffff800000000000000000000000000000008212171561049c5761049c61170356fea26469706673582212202a6606fa5f7aadb2e4cf38b5cbe4c5db7b25d21e97d269845415b3cfdfe614ed64736f6c63430008120033",
  "linkReferences": {},
  "deployedLinkReferences": {}
}