{
  "_format": "hh-sol-artifact-1",
  "contractName": "OwnableToken",
  "sourceName": "contracts/OwnableToken.sol",
  "abi": [
    {
      "inputs": [],
      "stateMutability": "nonpayable",
      "type": "constructor"
    },
    {
      "anonymous": false,
      "inputs": [
        {
          "indexed": true,
          "internalType": "address",
          "name": "owner",
          "type": "address"
        },
        {
          "indexed": true,
          "internalType": "address",
          "name": "spender",
          "type": "address"
        },
        {
          "indexed": false,
          "internalType": "uint256",
          "name": "value",
          "type": "uint256"
        }
      ],
      "name": "Approval",
      "type": "event"
    },
    {
      "anonymous": false,
      "inputs": [
        {
          "indexed": true,
          "internalType": "bytes",
          "name": "abiBytes",
          "type": "bytes"
        }
      ],
      "name": "Initialized",
      "type": "event"
    },
    {
      "anonymous": false,
      "inputs": [
        {
          "indexed": true,
          "internalType": "address",
          "name": "from",
          "type": "address"
        },
        {
          "indexed": true,
          "internalType": "address",
          "name": "to",
          "type": "address"
        },
        {
          "indexed": false,
          "internalType": "uint256",
          "name": "value",
          "type": "uint256"
        }
      ],
      "name": "Transfer",
      "type": "event"
    },
    {
      "inputs": [
        {
          "internalType": "address",
          "name": "owner",
          "type": "address"
        },
        {
          "internalType": "address",
          "name": "spender",
          "type": "address"
        }
      ],
      "name": "allowance",
      "outputs": [
        {
          "internalType": "uint256",
          "name": "",
          "type": "uint256"
        }
      ],
      "stateMutability": "view",
      "type": "function"
    },
    {
      "inputs": [
        {
          "internalType": "address",
          "name": "spender",
          "type": "address"
        },
        {
          "internalType": "uint256",
          "name": "amount",
          "type": "uint256"
        }
      ],
      "name": "approve",
      "outputs": [
        {
          "internalType": "bool",
          "name": "",
          "type": "bool"
        }
      ],
      "stateMutability": "nonpayable",
      "type": "function"
    },
    {
      "inputs": [
        {
          "internalType": "address",
          "name": "account",
          "type": "address"
        }
      ],
      "name": "balanceOf",
      "outputs": [
        {
          "internalType": "uint256",
          "name": "",
          "type": "uint256"
        }
      ],
      "stateMutability": "view",
      "type": "function"
    },
    {
      "inputs": [],
      "name": "decimals",
      "outputs": [
        {
          "internalType": "uint8",
          "name": "",
          "type": "uint8"
        }
      ],
      "stateMutability": "view",
      "type": "function"
    },
    {
      "inputs": [
        {
          "internalType": "address",
          "name": "spender",
          "type": "address"
        },
        {
          "internalType": "uint256",
          "name": "subtractedValue",
          "type": "uint256"
        }
      ],
      "name": "decreaseAllowance",
      "outputs": [
        {
          "internalType": "bool",
          "name": "",
          "type": "bool"
        }
      ],
      "stateMutability": "nonpayable",
      "type": "function"
    },
    {
      "inputs": [],
      "name": "factory",
      "outputs": [
        {
          "internalType": "address",
          "name": "",
          "type": "address"
        }
      ],
      "stateMutability": "view",
      "type": "function"
    },
    {
      "inputs": [
        {
          "internalType": "address",
          "name": "spender",
          "type": "address"
        },
        {
          "internalType": "uint256",
          "name": "addedValue",
          "type": "uint256"
        }
      ],
      "name": "increaseAllowance",
      "outputs": [
        {
          "internalType": "bool",
          "name": "",
          "type": "bool"
        }
      ],
      "stateMutability": "nonpayable",
      "type": "function"
    },
    {
      "inputs": [
        {
          "internalType": "bytes",
          "name": "abiBytes",
          "type": "bytes"
        }
      ],
      "name": "initialize",
      "outputs": [
        {
          "internalType": "bool",
          "name": "",
          "type": "bool"
        }
      ],
      "stateMutability": "nonpayable",
      "type": "function"
    },
    {
      "inputs": [],
      "name": "name",
      "outputs": [
        {
          "internalType": "string",
          "name": "",
          "type": "string"
        }
      ],
      "stateMutability": "view",
      "type": "function"
    },
    {
      "inputs": [],
      "name": "owner",
      "outputs": [
        {
          "internalType": "address",
          "name": "",
          "type": "address"
        }
      ],
      "stateMutability": "view",
      "type": "function"
    },
    {
      "inputs": [],
      "name": "symbol",
      "outputs": [
        {
          "internalType": "string",
          "name": "",
          "type": "string"
        }
      ],
      "stateMutability": "view",
      "type": "function"
    },
    {
      "inputs": [],
      "name": "totalSupply",
      "outputs": [
        {
          "internalType": "uint256",
          "name": "",
          "type": "uint256"
        }
      ],
      "stateMutability": "view",
      "type": "function"
    },
    {
      "inputs": [
        {
          "internalType": "address",
          "name": "to",
          "type": "address"
        },
        {
          "internalType": "uint256",
          "name": "amount",
          "type": "uint256"
        }
      ],
      "name": "transfer",
      "outputs": [
        {
          "internalType": "bool",
          "name": "",
          "type": "bool"
        }
      ],
      "stateMutability": "nonpayable",
      "type": "function"
    },
    {
      "inputs": [
        {
          "internalType": "address",
          "name": "from",
          "type": "address"
        },
        {
          "internalType": "address",
          "name": "to",
          "type": "address"
        },
        {
          "internalType": "uint256",
          "name": "amount",
          "type": "uint256"
        }
      ],
      "name": "transferFrom",
      "outputs": [
        {
          "internalType": "bool",
          "name": "",
          "type": "bool"
        }
      ],
      "stateMutability": "nonpayable",
      "type": "function"
    }
  ],
  "bytecode": "0x60806040526000600560006101000a81548160ff0219169083151502179055503480156200002c57600080fd5b506040518060400160405280600181526020017f2d000000000000000000000000000000000000000000000000000000000000008152506040518060400160405280600181526020017f2d000000000000000000000000000000000000000000000000000000000000008152508160039081620000aa91906200033f565b508060049081620000bc91906200033f565b50505062000426565b600081519050919050565b7f4e487b7100000000000000000000000000000000000000000000000000000000600052604160045260246000fd5b7f4e487b7100000000000000000000000000000000000000000000000000000000600052602260045260246000fd5b600060028204905060018216806200014757607f821691505b6020821081036200015d576200015c620000ff565b5b50919050565b60008190508160005260206000209050919050565b60006020601f8301049050919050565b600082821b905092915050565b600060088302620001c77fffffffffffffffffffffffffffffffffffffffffffffffffffffffffffffffff8262000188565b620001d3868362000188565b95508019841693508086168417925050509392505050565b6000819050919050565b6000819050919050565b6000620002206200021a6200021484620001eb565b620001f5565b620001eb565b9050919050565b6000819050919050565b6200023c83620001ff565b620002546200024b8262000227565b84845462000195565b825550505050565b600090565b6200026b6200025c565b6200027881848462000231565b505050565b5b81811015620002a0576200029460008262000261565b6001810190506200027e565b5050565b601f821115620002ef57620002b98162000163565b620002c48462000178565b81016020851015620002d4578190505b620002ec620002e38562000178565b8301826200027d565b50505b505050565b600082821c905092915050565b60006200031460001984600802620002f4565b1980831691505092915050565b60006200032f838362000301565b9150826002028217905092915050565b6200034a82620000c5565b67ffffffffffffffff811115620003665762000365620000d0565b5b6200037282546200012e565b6200037f828285620002a4565b600060209050601f831160018114620003b75760008415620003a2578287015190505b620003ae858262000321565b8655506200041e565b601f198416620003c78662000163565b60005b82811015620003f157848901518255600182019150602085019450602081019050620003ca565b868310156200041157848901516200040d601f89168262000301565b8355505b6001600288020188555050505b505050505050565b61219280620004366000396000f3fe608060405234801561001057600080fd5b50600436106100ea5760003560e01c806370a082311161008c578063a457c2d711610066578063a457c2d714610275578063a9059cbb146102a5578063c45a0155146102d5578063dd62ed3e146102f3576100ea565b806370a08231146102095780638da5cb5b1461023957806395d89b4114610257576100ea565b806323b872dd116100c857806323b872dd1461015b578063313ce5671461018b57806339509351146101a9578063439fab91146101d9576100ea565b806306fdde03146100ef578063095ea7b31461010d57806318160ddd1461013d575b600080fd5b6100f7610323565b604051610104919061109d565b60405180910390f35b61012760048036038101906101229190611167565b6103b5565b60405161013491906111c2565b60405180910390f35b61014561048b565b60405161015291906111ec565b60405180910390f35b61017560048036038101906101709190611207565b610495565b60405161018291906111c2565b60405180910390f35b6101936104c4565b6040516101a09190611276565b60405180910390f35b6101c360048036038101906101be9190611167565b6104cd565b6040516101d091906111c2565b60405180910390f35b6101f360048036038101906101ee91906113c6565b610504565b60405161020091906111c2565b60405180910390f35b610223600480360381019061021e919061140f565b6107a1565b60405161023091906111ec565b60405180910390f35b6102416107e9565b60405161024e919061144b565b60405180910390f35b61025f61080f565b60405161026c919061109d565b60405180910390f35b61028f600480360381019061028a9190611167565b6108a1565b60405161029c91906111c2565b60405180910390f35b6102bf60048036038101906102ba9190611167565b610918565b6040516102cc91906111c2565b60405180910390f35b6102dd61093b565b6040516102ea919061144b565b60405180910390f35b61030d60048036038101906103089190611466565b610953565b60405161031a91906111ec565b60405180910390f35b606060038054610332906114d5565b80601f016020809104026020016040519081016040528092919081815260200182805461035e906114d5565b80156103ab5780601f10610380576101008083540402835291602001916103ab565b820191906000526020600020905b81548152906001019060200180831161038e57829003601f168201915b5050505050905090565b60008273ffffffffffffffffffffffffffffffffffffffff166103d66109da565b73ffffffffffffffffffffffffffffffffffffffff160361042c576040517f08c379a000000000000000000000000000000000000000000000000000000000815260040161042390611578565b60405180910390fd5b6000821161046f576040517f08c379a0000000000000000000000000000000000000000000000000000000008152600401610466906115e4565b60405180910390fd5b61048161047a6109da565b84846109e2565b6001905092915050565b6000600254905090565b6000806104a06109da565b90506104ad858285610bab565b6104b8858585610c37565b60019150509392505050565b60006012905090565b6000806104d86109da565b90506104f98185856104ea8589610953565b6104f49190611633565b6109e2565b600191505092915050565b6000600560009054906101000a900460ff1615610556576040517f08c379a000000000000000000000000000000000000000000000000000000000815260040161054d906116d9565b60405180910390fd5b730165878a594ca255338adfa4d48449f69242eb8f73ffffffffffffffffffffffffffffffffffffffff163373ffffffffffffffffffffffffffffffffffffffff16146105d8576040517f08c379a00000000000000000000000000000000000000000000000000000000081526004016105cf90611745565b60405180910390fd5b600080600080858060200190518101906105f29190611859565b9350935093509350600083511161063e576040517f08c379a000000000000000000000000000000000000000000000000000000000815260040161063590611944565b60405180910390fd5b6000825111610682576040517f08c379a0000000000000000000000000000000000000000000000000000000008152600401610679906119b0565b60405180910390fd5b600084116106c5576040517f08c379a00000000000000000000000000000000000000000000000000000000081526004016106bc90611a1c565b60405180910390fd5b82600790816106d49190611be8565b5081600890816106e49190611be8565b508360068190555080600960006101000a81548173ffffffffffffffffffffffffffffffffffffffff021916908373ffffffffffffffffffffffffffffffffffffffff1602179055506107378185610ead565b856040516107459190611d01565b60405180910390207f5e399709a9ff1709f6f6be7268c8e5c3eeaa9da9cd9797e78f07ef287c3717fe60405160405180910390a26001600560006101000a81548160ff0219169083151502179055506001945050505050919050565b60008060008373ffffffffffffffffffffffffffffffffffffffff1673ffffffffffffffffffffffffffffffffffffffff168152602001908152602001600020549050919050565b600960009054906101000a900473ffffffffffffffffffffffffffffffffffffffff1681565b60606004805461081e906114d5565b80601f016020809104026020016040519081016040528092919081815260200182805461084a906114d5565b80156108975780601f1061086c57610100808354040283529160200191610897565b820191906000526020600020905b81548152906001019060200180831161087a57829003601f168201915b5050505050905090565b6000806108ac6109da565b905060006108ba8286610953565b9050838110156108ff576040517f08c379a00000000000000000000000000000000000000000000000000000000081526004016108f690611d8a565b60405180910390fd5b61090c82868684036109e2565b60019250505092915050565b6000806109236109da565b9050610930818585610c37565b600191505092915050565b730165878a594ca255338adfa4d48449f69242eb8f81565b6000600160008473ffffffffffffffffffffffffffffffffffffffff1673ffffffffffffffffffffffffffffffffffffffff16815260200190815260200160002060008373ffffffffffffffffffffffffffffffffffffffff1673ffffffffffffffffffffffffffffffffffffffff16815260200190815260200160002054905092915050565b600033905090565b600073ffffffffffffffffffffffffffffffffffffffff168373ffffffffffffffffffffffffffffffffffffffff1603610a51576040517f08c379a0000000000000000000000000000000000000000000000000000000008152600401610a4890611e1c565b60405180910390fd5b600073ffffffffffffffffffffffffffffffffffffffff168273ffffffffffffffffffffffffffffffffffffffff1603610ac0576040517f08c379a0000000000000000000000000000000000000000000000000000000008152600401610ab790611eae565b60405180910390fd5b80600160008573ffffffffffffffffffffffffffffffffffffffff1673ffffffffffffffffffffffffffffffffffffffff16815260200190815260200160002060008473ffffffffffffffffffffffffffffffffffffffff1673ffffffffffffffffffffffffffffffffffffffff168152602001908152602001600020819055508173ffffffffffffffffffffffffffffffffffffffff168373ffffffffffffffffffffffffffffffffffffffff167f8c5be1e5ebec7d5bd14f71427d1e84f3dd0314c0f7b2291e5b200ac8c7c3b92583604051610b9e91906111ec565b60405180910390a3505050565b6000610bb78484610953565b90507fffffffffffffffffffffffffffffffffffffffffffffffffffffffffffffffff8114610c315781811015610c23576040517f08c379a0000000000000000000000000000000000000000000000000000000008152600401610c1a90611f1a565b60405180910390fd5b610c3084848484036109e2565b5b50505050565b600073ffffffffffffffffffffffffffffffffffffffff168373ffffffffffffffffffffffffffffffffffffffff1603610ca6576040517f08c379a0000000000000000000000000000000000000000000000000000000008152600401610c9d90611fac565b60405180910390fd5b600073ffffffffffffffffffffffffffffffffffffffff168273ffffffffffffffffffffffffffffffffffffffff1603610d15576040517f08c379a0000000000000000000000000000000000000000000000000000000008152600401610d0c9061203e565b60405180910390fd5b610d20838383611003565b60008060008573ffffffffffffffffffffffffffffffffffffffff1673ffffffffffffffffffffffffffffffffffffffff16815260200190815260200160002054905081811015610da6576040517f08c379a0000000000000000000000000000000000000000000000000000000008152600401610d9d906120d0565b60405180910390fd5b8181036000808673ffffffffffffffffffffffffffffffffffffffff1673ffffffffffffffffffffffffffffffffffffffff16815260200190815260200160002081905550816000808573ffffffffffffffffffffffffffffffffffffffff1673ffffffffffffffffffffffffffffffffffffffff168152602001908152602001600020600082825401925050819055508273ffffffffffffffffffffffffffffffffffffffff168473ffffffffffffffffffffffffffffffffffffffff167fddf252ad1be2c89b69c2b068fc378daa952ba7f163c4a11628f55a4df523b3ef84604051610e9491906111ec565b60405180910390a3610ea7848484611008565b50505050565b600073ffffffffffffffffffffffffffffffffffffffff168273ffffffffffffffffffffffffffffffffffffffff1603610f1c576040517f08c379a0000000000000000000000000000000000000000000000000000000008152600401610f139061213c565b60405180910390fd5b610f2860008383611003565b8060026000828254610f3a9190611633565b92505081905550806000808473ffffffffffffffffffffffffffffffffffffffff1673ffffffffffffffffffffffffffffffffffffffff168152602001908152602001600020600082825401925050819055508173ffffffffffffffffffffffffffffffffffffffff16600073ffffffffffffffffffffffffffffffffffffffff167fddf252ad1be2c89b69c2b068fc378daa952ba7f163c4a11628f55a4df523b3ef83604051610feb91906111ec565b60405180910390a3610fff60008383611008565b5050565b505050565b505050565b600081519050919050565b600082825260208201905092915050565b60005b8381101561104757808201518184015260208101905061102c565b60008484015250505050565b6000601f19601f8301169050919050565b600061106f8261100d565b6110798185611018565b9350611089818560208601611029565b61109281611053565b840191505092915050565b600060208201905081810360008301526110b78184611064565b905092915050565b6000604051905090565b600080fd5b600080fd5b600073ffffffffffffffffffffffffffffffffffffffff82169050919050565b60006110fe826110d3565b9050919050565b61110e816110f3565b811461111957600080fd5b50565b60008135905061112b81611105565b92915050565b6000819050919050565b61114481611131565b811461114f57600080fd5b50565b6000813590506111618161113b565b92915050565b6000806040838503121561117e5761117d6110c9565b5b600061118c8582860161111c565b925050602061119d85828601611152565b9150509250929050565b60008115159050919050565b6111bc816111a7565b82525050565b60006020820190506111d760008301846111b3565b92915050565b6111e681611131565b82525050565b600060208201905061120160008301846111dd565b92915050565b6000806000606084860312156112205761121f6110c9565b5b600061122e8682870161111c565b935050602061123f8682870161111c565b925050604061125086828701611152565b9150509250925092565b600060ff82169050919050565b6112708161125a565b82525050565b600060208201905061128b6000830184611267565b92915050565b600080fd5b600080fd5b7f4e487b7100000000000000000000000000000000000000000000000000000000600052604160045260246000fd5b6112d382611053565b810181811067ffffffffffffffff821117156112f2576112f161129b565b5b80604052505050565b60006113056110bf565b905061131182826112ca565b919050565b600067ffffffffffffffff8211156113315761133061129b565b5b61133a82611053565b9050602081019050919050565b82818337600083830152505050565b600061136961136484611316565b6112fb565b90508281526020810184848401111561138557611384611296565b5b611390848285611347565b509392505050565b600082601f8301126113ad576113ac611291565b5b81356113bd848260208601611356565b91505092915050565b6000602082840312156113dc576113db6110c9565b5b600082013567ffffffffffffffff8111156113fa576113f96110ce565b5b61140684828501611398565b91505092915050565b600060208284031215611425576114246110c9565b5b60006114338482850161111c565b91505092915050565b611445816110f3565b82525050565b6000602082019050611460600083018461143c565b92915050565b6000806040838503121561147d5761147c6110c9565b5b600061148b8582860161111c565b925050602061149c8582860161111c565b9150509250929050565b7f4e487b7100000000000000000000000000000000000000000000000000000000600052602260045260246000fd5b600060028204905060018216806114ed57607f821691505b602082108103611500576114ff6114a6565b5b50919050565b7f73656e64657220616e64207370656e6465722073686f756c646e27742062652060008201527f7468652073616d652e0000000000000000000000000000000000000000000000602082015250565b6000611562602983611018565b915061156d82611506565b604082019050919050565b6000602082019050818103600083015261159181611555565b9050919050565b7f416d6f756e74206973207a65726f2e0000000000000000000000000000000000600082015250565b60006115ce600f83611018565b91506115d982611598565b602082019050919050565b600060208201905081810360008301526115fd816115c1565b9050919050565b7f4e487b7100000000000000000000000000000000000000000000000000000000600052601160045260246000fd5b600061163e82611131565b915061164983611131565b925082820190508082111561166157611660611604565b5b92915050565b7f5468697320636f6e74726163742068617320616c7265616479206265656e206960008201527f6e697469616c697a656400000000000000000000000000000000000000000000602082015250565b60006116c3602a83611018565b91506116ce82611667565b604082019050919050565b600060208201905081810360008301526116f2816116b6565b9050919050565b7f596f7520617265206e6f742074686520466163746f72792e0000000000000000600082015250565b600061172f601883611018565b915061173a826116f9565b602082019050919050565b6000602082019050818103600083015261175e81611722565b9050919050565b6000815190506117748161113b565b92915050565b600067ffffffffffffffff8211156117955761179461129b565b5b61179e82611053565b9050602081019050919050565b60006117be6117b98461177a565b6112fb565b9050828152602081018484840111156117da576117d9611296565b5b6117e5848285611029565b509392505050565b600082601f83011261180257611801611291565b5b81516118128482602086016117ab565b91505092915050565b6000611826826110d3565b9050919050565b6118368161181b565b811461184157600080fd5b50565b6000815190506118538161182d565b92915050565b60008060008060808587031215611873576118726110c9565b5b600061188187828801611765565b945050602085015167ffffffffffffffff8111156118a2576118a16110ce565b5b6118ae878288016117ed565b935050604085015167ffffffffffffffff8111156118cf576118ce6110ce565b5b6118db878288016117ed565b92505060606118ec87828801611844565b91505092959194509250565b7f6e616d6520697320656d70747900000000000000000000000000000000000000600082015250565b600061192e600d83611018565b9150611939826118f8565b602082019050919050565b6000602082019050818103600083015261195d81611921565b9050919050565b7f73796d626f6c20697320656d7074790000000000000000000000000000000000600082015250565b600061199a600f83611018565b91506119a582611964565b602082019050919050565b600060208201905081810360008301526119c98161198d565b9050919050565b7f696e697469616c537570706c79206973207a65726f0000000000000000000000600082015250565b6000611a06601583611018565b9150611a11826119d0565b602082019050919050565b60006020820190508181036000830152611a35816119f9565b9050919050565b60008190508160005260206000209050919050565b60006020601f8301049050919050565b600082821b905092915050565b600060088302611a9e7fffffffffffffffffffffffffffffffffffffffffffffffffffffffffffffffff82611a61565b611aa88683611a61565b95508019841693508086168417925050509392505050565b6000819050919050565b6000611ae5611ae0611adb84611131565b611ac0565b611131565b9050919050565b6000819050919050565b611aff83611aca565b611b13611b0b82611aec565b848454611a6e565b825550505050565b600090565b611b28611b1b565b611b33818484611af6565b505050565b5b81811015611b5757611b4c600082611b20565b600181019050611b39565b5050565b601f821115611b9c57611b6d81611a3c565b611b7684611a51565b81016020851015611b85578190505b611b99611b9185611a51565b830182611b38565b50505b505050565b600082821c905092915050565b6000611bbf60001984600802611ba1565b1980831691505092915050565b6000611bd88383611bae565b9150826002028217905092915050565b611bf18261100d565b67ffffffffffffffff811115611c0a57611c0961129b565b5b611c1482546114d5565b611c1f828285611b5b565b600060209050601f831160018114611c525760008415611c40578287015190505b611c4a8582611bcc565b865550611cb2565b601f198416611c6086611a3c565b60005b82811015611c8857848901518255600182019150602085019450602081019050611c63565b86831015611ca55784890151611ca1601f891682611bae565b8355505b6001600288020188555050505b505050505050565b600081519050919050565b600081905092915050565b6000611cdb82611cba565b611ce58185611cc5565b9350611cf5818560208601611029565b80840191505092915050565b6000611d0d8284611cd0565b915081905092915050565b7f45524332303a2064656372656173656420616c6c6f77616e63652062656c6f7760008201527f207a65726f000000000000000000000000000000000000000000000000000000602082015250565b6000611d74602583611018565b9150611d7f82611d18565b604082019050919050565b60006020820190508181036000830152611da381611d67565b9050919050565b7f45524332303a20617070726f76652066726f6d20746865207a65726f2061646460008201527f7265737300000000000000000000000000000000000000000000000000000000602082015250565b6000611e06602483611018565b9150611e1182611daa565b604082019050919050565b60006020820190508181036000830152611e3581611df9565b9050919050565b7f45524332303a20617070726f766520746f20746865207a65726f20616464726560008201527f7373000000000000000000000000000000000000000000000000000000000000602082015250565b6000611e98602283611018565b9150611ea382611e3c565b604082019050919050565b60006020820190508181036000830152611ec781611e8b565b9050919050565b7f45524332303a20696e73756666696369656e7420616c6c6f77616e6365000000600082015250565b6000611f04601d83611018565b9150611f0f82611ece565b602082019050919050565b60006020820190508181036000830152611f3381611ef7565b9050919050565b7f45524332303a207472616e736665722066726f6d20746865207a65726f20616460008201527f6472657373000000000000000000000000000000000000000000000000000000602082015250565b6000611f96602583611018565b9150611fa182611f3a565b604082019050919050565b60006020820190508181036000830152611fc581611f89565b9050919050565b7f45524332303a207472616e7366657220746f20746865207a65726f206164647260008201527f6573730000000000000000000000000000000000000000000000000000000000602082015250565b6000612028602383611018565b915061203382611fcc565b604082019050919050565b600060208201905081810360008301526120578161201b565b9050919050565b7f45524332303a207472616e7366657220616d6f756e742065786365656473206260008201527f616c616e63650000000000000000000000000000000000000000000000000000602082015250565b60006120ba602683611018565b91506120c58261205e565b604082019050919050565b600060208201905081810360008301526120e9816120ad565b9050919050565b7f45524332303a206d696e7420746f20746865207a65726f206164647265737300600082015250565b6000612126601f83611018565b9150612131826120f0565b602082019050919050565b6000602082019050818103600083015261215581612119565b905091905056fea2646970667358221220c364be7662b462b5ae73f34d7f29cd6e8837281a2b093be3cd89cd48a64b2e9f64736f6c63430008120033",
  "linkReferences": {},
  "deployedLinkReferences": {}
}