{
  "_format": "hh-sol-artifact-1",
  "contractName": "Factory",
  "sourceName": "contracts/Factory.sol",
  "abi": [
    {
      "anonymous": false,
      "inputs": [
        {
          "indexed": false,
          "internalType": "bytes32",
          "name": "templateName",
          "type": "bytes32"
        },
        {
          "indexed": false,
          "internalType": "address",
          "name": "deployedAddress",
          "type": "address"
        }
      ],
      "name": "Deployed",
      "type": "event"
    },
    {
      "anonymous": false,
      "inputs": [
        {
          "indexed": true,
          "internalType": "address",
          "name": "previousOwner",
          "type": "address"
        },
        {
          "indexed": true,
          "internalType": "address",
          "name": "newOwner",
          "type": "address"
        }
      ],
      "name": "OwnershipTransferred",
      "type": "event"
    },
    {
      "anonymous": false,
      "inputs": [
        {
          "indexed": true,
          "internalType": "bytes32",
          "name": "templateName",
          "type": "bytes32"
        },
        {
          "indexed": true,
          "internalType": "address",
          "name": "templateAddr",
          "type": "address"
        }
      ],
      "name": "TemplateAdded",
      "type": "event"
    },
    {
      "anonymous": false,
      "inputs": [
        {
          "indexed": true,
          "internalType": "bytes32",
          "name": "templateName",
          "type": "bytes32"
        },
        {
          "indexed": true,
          "internalType": "address",
          "name": "templateAddr",
          "type": "address"
        }
      ],
      "name": "TemplateRemoved",
      "type": "event"
    },
    {
      "inputs": [
        {
          "internalType": "bytes32",
          "name": "templateName_",
          "type": "bytes32"
        },
        {
          "internalType": "address",
          "name": "templateAddr_",
          "type": "address"
        },
        {
          "internalType": "bytes4",
          "name": "initializeSignature_",
          "type": "bytes4"
        },
        {
          "internalType": "bytes4",
          "name": "transferSignature_",
          "type": "bytes4"
        }
      ],
      "name": "addTemplate",
      "outputs": [],
      "stateMutability": "nonpayable",
      "type": "function"
    },
    {
      "inputs": [
        {
          "internalType": "bytes32",
          "name": "templateName_",
          "type": "bytes32"
        },
        {
          "internalType": "bytes",
          "name": "args_",
          "type": "bytes"
        }
      ],
      "name": "deployAuction",
      "outputs": [
        {
          "internalType": "address",
          "name": "deployedAddr",
          "type": "address"
        }
      ],
      "stateMutability": "nonpayable",
      "type": "function"
    },
    {
      "inputs": [],
      "name": "owner",
      "outputs": [
        {
          "internalType": "address",
          "name": "",
          "type": "address"
        }
      ],
      "stateMutability": "view",
      "type": "function"
    },
    {
      "inputs": [
        {
          "internalType": "bytes32",
          "name": "templateName_",
          "type": "bytes32"
        }
      ],
      "name": "removeTemplate",
      "outputs": [],
      "stateMutability": "nonpayable",
      "type": "function"
    },
    {
      "inputs": [],
      "name": "renounceOwnership",
      "outputs": [],
      "stateMutability": "nonpayable",
      "type": "function"
    },
    {
      "inputs": [
        {
          "internalType": "bytes32",
          "name": "",
          "type": "bytes32"
        }
      ],
      "name": "templates",
      "outputs": [
        {
          "internalType": "address",
          "name": "implemention",
          "type": "address"
        },
        {
          "internalType": "bytes4",
          "name": "initializeSignature",
          "type": "bytes4"
        },
        {
          "internalType": "bytes4",
          "name": "transferSignature",
          "type": "bytes4"
        }
      ],
      "stateMutability": "view",
      "type": "function"
    },
    {
      "inputs": [
        {
          "internalType": "address",
          "name": "newOwner",
          "type": "address"
        }
      ],
      "name": "transferOwnership",
      "outputs": [],
      "stateMutability": "nonpayable",
      "type": "function"
    }
  ],
  "bytecode": "0x6080604052600060025534801561001557600080fd5b5061001f33610024565b610074565b600080546001600160a01b038381166001600160a01b0319831681178455604051919092169283917f8be0079c531659141344cd1fd0a4f28419497f9722a3daafe3b4186f6b6457e09190a35050565b610d88806100836000396000f3fe608060405234801561001057600080fd5b506004361061007d5760003560e01c8063605ec92d1161005b578063605ec92d1461019d578063715018a6146101b05780638da5cb5b146101b8578063f2fde38b146101d657600080fd5b80630a6315761461008257806347e09a0b146101505780635f81bcd514610165575b600080fd5b6100f6610090366004610afb565b60016020526000908152604090205473ffffffffffffffffffffffffffffffffffffffff81169074010000000000000000000000000000000000000000810460e090811b9178010000000000000000000000000000000000000000000000009004901b83565b6040805173ffffffffffffffffffffffffffffffffffffffff90941684527fffffffff0000000000000000000000000000000000000000000000000000000092831660208501529116908201526060015b60405180910390f35b61016361015e366004610afb565b6101e9565b005b610178610173366004610b14565b6102cd565b60405173ffffffffffffffffffffffffffffffffffffffff9091168152602001610147565b6101636101ab366004610be9565b610617565b610163610800565b60005473ffffffffffffffffffffffffffffffffffffffff16610178565b6101636101e4366004610c36565b610814565b6101f16108cb565b60008181526001602081815260408084208151606081018352815473ffffffffffffffffffffffffffffffffffffffff80821683527fffffffff0000000000000000000000000000000000000000000000000000000074010000000000000000000000000000000000000000830460e090811b82168589015278010000000000000000000000000000000000000000000000008404901b8116848701528989529690955294909416905582519051929391169184917fbb7122657ce337703c9113750ec59528e1864bd8bbd1a5e6895e27f868b5fabd91a35050565b60008381526001602090815260408083208151606081018352905473ffffffffffffffffffffffffffffffffffffffff81168083527fffffffff0000000000000000000000000000000000000000000000000000000074010000000000000000000000000000000000000000830460e090811b821696850196909652780100000000000000000000000000000000000000000000000090920490941b169181019190915290806103de576040517f08c379a000000000000000000000000000000000000000000000000000000000815260206004820152601d60248201527f4e6f20737563682074656d706c61746520696e20746865206c6973742e00000060448201526064015b60405180910390fd5b6103e78161094c565b6040805188815273ffffffffffffffffffffffffffffffffffffffff831660208201529194507fe491e278e37782abe0872fe7c7b549cd7b0713d0c5c1e84a81899a5fdf32087b910160405180910390a16000808473ffffffffffffffffffffffffffffffffffffffff168460200151888860405160200161046b93929190610c58565b604080517fffffffffffffffffffffffffffffffffffffffffffffffffffffffffffffffe0818403018152908290526104a391610cc4565b6000604051808303816000865af19150503d80600081146104e0576040519150601f19603f3d011682016040523d82523d6000602084013e6104e5565b606091505b5091509150816104f757805160208201fd5b604080850151905173ffffffffffffffffffffffffffffffffffffffff8716916105279184908490602001610cd0565b604080517fffffffffffffffffffffffffffffffffffffffffffffffffffffffffffffffe08184030181529082905261055f91610cc4565b600060405180830381855af49150503d806000811461059a576040519150601f19603f3d011682016040523d82523d6000602084013e61059f565b606091505b5050809250508161060c576040517f08c379a000000000000000000000000000000000000000000000000000000000815260206004820152601960248201527f4661696c656420746f2046756e642074686520746f6b656e2e0000000000000060448201526064016103d5565b505050509392505050565b61061f6108cb565b60008481526001602052604090205473ffffffffffffffffffffffffffffffffffffffff16156106d0576040517f08c379a0000000000000000000000000000000000000000000000000000000008152602060048201526024808201527f546869732074656d706c617465206e616d6520697320616c726561647920746160448201527f6b656e2e0000000000000000000000000000000000000000000000000000000060648201526084016103d5565b6040805160608101825273ffffffffffffffffffffffffffffffffffffffff8086168083527fffffffff00000000000000000000000000000000000000000000000000000000808716602080860191825291871685870190815260008b81526001909352868320955186549251915160e090811c7801000000000000000000000000000000000000000000000000027fffffffff00000000ffffffffffffffffffffffffffffffffffffffffffffffff9390911c74010000000000000000000000000000000000000000027fffffffffffffffff00000000000000000000000000000000000000000000000090941691909616179190911716929092179092559151909186917f76a15abe5a3f991b7b1b9e9f9629149df5fe28934e3129cc19882221cd847c5e9190a350505050565b6108086108cb565b6108126000610a86565b565b61081c6108cb565b73ffffffffffffffffffffffffffffffffffffffff81166108bf576040517f08c379a000000000000000000000000000000000000000000000000000000000815260206004820152602660248201527f4f776e61626c653a206e6577206f776e657220697320746865207a65726f206160448201527f646472657373000000000000000000000000000000000000000000000000000060648201526084016103d5565b6108c881610a86565b50565b60005473ffffffffffffffffffffffffffffffffffffffff163314610812576040517f08c379a000000000000000000000000000000000000000000000000000000000815260206004820181905260248201527f4f776e61626c653a2063616c6c6572206973206e6f7420746865206f776e657260448201526064016103d5565b60006001600260008282546109619190610d12565b90915550506002546040517fffffffffffffffffffffffffffffffffffffffff000000000000000000000000606085901b1660208201526034810191909152600090605401604051602081830303815290604052805190602001209050763d602d80600a3d3981f3363d3d373d3d3d363d730000008360601b60e81c176000526e5af43d82803e903d91602b57fd5bf38360781b1760205280603760096000f5915073ffffffffffffffffffffffffffffffffffffffff8216610a80576040517f08c379a000000000000000000000000000000000000000000000000000000000815260206004820152601760248201527f455243313136373a2063726561746532206661696c656400000000000000000060448201526064016103d5565b50919050565b6000805473ffffffffffffffffffffffffffffffffffffffff8381167fffffffffffffffffffffffff0000000000000000000000000000000000000000831681178455604051919092169283917f8be0079c531659141344cd1fd0a4f28419497f9722a3daafe3b4186f6b6457e09190a35050565b600060208284031215610b0d57600080fd5b5035919050565b600080600060408486031215610b2957600080fd5b83359250602084013567ffffffffffffffff80821115610b4857600080fd5b818601915086601f830112610b5c57600080fd5b813581811115610b6b57600080fd5b876020828501011115610b7d57600080fd5b6020830194508093505050509250925092565b803573ffffffffffffffffffffffffffffffffffffffff81168114610bb457600080fd5b919050565b80357fffffffff0000000000000000000000000000000000000000000000000000000081168114610bb457600080fd5b60008060008060808587031215610bff57600080fd5b84359350610c0f60208601610b90565b9250610c1d60408601610bb9565b9150610c2b60608601610bb9565b905092959194509250565b600060208284031215610c4857600080fd5b610c5182610b90565b9392505050565b7fffffffff0000000000000000000000000000000000000000000000000000000084168152818360048301376000910160040190815292915050565b6000815160005b81811015610cb55760208185018101518683015201610c9b565b50600093019283525090919050565b6000610c518284610c94565b7fffffffff00000000000000000000000000000000000000000000000000000000841681526000610d046004830185610c94565b928352505060200192915050565b80820180821115610d4c577f4e487b7100000000000000000000000000000000000000000000000000000000600052601160045260246000fd5b9291505056fea2646970667358221220f1d8499d57a88865d92542085835212dec5e1dd2f218a58cc63d46ae01a28e5664736f6c63430008120033",
  "linkReferences": {},
  "deployedLinkReferences": {}
}