{
  "_format": "hh-sol-artifact-1",
  "contractName": "Factory",
  "sourceName": "contracts/Factory.sol",
  "abi": [
    {
      "anonymous": false,
      "inputs": [
        {
          "indexed": true,
          "internalType": "address",
          "name": "previousOwner",
          "type": "address"
        },
        {
          "indexed": true,
          "internalType": "address",
          "name": "newOwner",
          "type": "address"
        }
      ],
      "name": "OwnershipTransferred",
      "type": "event"
    },
    {
      "anonymous": false,
      "inputs": [
        {
          "indexed": true,
          "internalType": "address",
          "name": "sender",
          "type": "address"
        },
        {
          "indexed": false,
          "internalType": "uint256",
          "name": "amount",
          "type": "uint256"
        }
      ],
      "name": "Received",
      "type": "event"
    },
    {
      "anonymous": false,
      "inputs": [
        {
          "indexed": true,
          "internalType": "address",
          "name": "sender",
          "type": "address"
        },
        {
          "indexed": true,
          "internalType": "bytes32",
          "name": "templateName",
          "type": "bytes32"
        },
        {
          "indexed": true,
          "internalType": "address",
          "name": "deployedAddr",
          "type": "address"
        },
        {
          "indexed": false,
          "internalType": "bytes",
          "name": "abiArgs",
          "type": "bytes"
        }
      ],
      "name": "SaleDeployed",
      "type": "event"
    },
    {
      "anonymous": false,
      "inputs": [
        {
          "indexed": true,
          "internalType": "bytes32",
          "name": "templateName",
          "type": "bytes32"
        },
        {
          "indexed": true,
          "internalType": "address",
          "name": "templateAddr",
          "type": "address"
        }
      ],
      "name": "TemplateAdded",
      "type": "event"
    },
    {
      "anonymous": false,
      "inputs": [
        {
          "indexed": true,
          "internalType": "address",
          "name": "sender",
          "type": "address"
        },
        {
          "indexed": true,
          "internalType": "bytes32",
          "name": "templateName",
          "type": "bytes32"
        },
        {
          "indexed": true,
          "internalType": "address",
          "name": "deployedAddr",
          "type": "address"
        },
        {
          "indexed": false,
          "internalType": "bytes",
          "name": "abiArgs",
          "type": "bytes"
        }
      ],
      "name": "TokenDeployed",
      "type": "event"
    },
    {
      "anonymous": false,
      "inputs": [
        {
          "indexed": true,
          "internalType": "address",
          "name": "receiver",
          "type": "address"
        },
        {
          "indexed": false,
          "internalType": "uint256",
          "name": "amount",
          "type": "uint256"
        }
      ],
      "name": "WithdrawnEther",
      "type": "event"
    },
    {
      "anonymous": false,
      "inputs": [
        {
          "indexed": true,
          "internalType": "address",
          "name": "receiver",
          "type": "address"
        },
        {
          "indexed": true,
          "internalType": "address",
          "name": "token",
          "type": "address"
        },
        {
          "indexed": false,
          "internalType": "uint256",
          "name": "amount",
          "type": "uint256"
        }
      ],
      "name": "WithdrawnToken",
      "type": "event"
    },
    {
      "inputs": [
        {
          "internalType": "bytes32",
          "name": "templateName",
          "type": "bytes32"
        },
        {
          "internalType": "address",
          "name": "templateAddr",
          "type": "address"
        }
      ],
      "name": "addTemplate",
      "outputs": [],
      "stateMutability": "nonpayable",
      "type": "function"
    },
    {
      "inputs": [
        {
          "internalType": "bytes32",
          "name": "templateName",
          "type": "bytes32"
        },
        {
          "internalType": "address",
          "name": "tokenAddr",
          "type": "address"
        },
        {
          "internalType": "uint256",
          "name": "sellingAmount",
          "type": "uint256"
        },
        {
          "internalType": "bytes",
          "name": "abiArgs",
          "type": "bytes"
        }
      ],
      "name": "deploySaleClone",
      "outputs": [
        {
          "internalType": "address",
          "name": "deployedAddr",
          "type": "address"
        }
      ],
      "stateMutability": "nonpayable",
      "type": "function"
    },
    {
      "inputs": [
        {
          "internalType": "bytes32",
          "name": "templateName",
          "type": "bytes32"
        },
        {
          "internalType": "bytes",
          "name": "abiArgs",
          "type": "bytes"
        }
      ],
      "name": "deployTokenClone",
      "outputs": [
        {
          "internalType": "address",
          "name": "deployedAddr",
          "type": "address"
        }
      ],
      "stateMutability": "nonpayable",
      "type": "function"
    },
    {
      "inputs": [
        {
          "internalType": "address",
          "name": "target",
          "type": "address"
        },
        {
          "internalType": "address",
          "name": "query",
          "type": "address"
        }
      ],
      "name": "isClone",
      "outputs": [
        {
          "internalType": "bool",
          "name": "result",
          "type": "bool"
        }
      ],
      "stateMutability": "view",
      "type": "function"
    },
    {
      "inputs": [],
      "name": "owner",
      "outputs": [
        {
          "internalType": "address",
          "name": "",
          "type": "address"
        }
      ],
      "stateMutability": "view",
      "type": "function"
    },
    {
      "inputs": [],
      "name": "renounceOwnership",
      "outputs": [],
      "stateMutability": "nonpayable",
      "type": "function"
    },
    {
      "inputs": [
        {
          "internalType": "bytes32",
          "name": "",
          "type": "bytes32"
        }
      ],
      "name": "templates",
      "outputs": [
        {
          "internalType": "address",
          "name": "",
          "type": "address"
        }
      ],
      "stateMutability": "view",
      "type": "function"
    },
    {
      "inputs": [
        {
          "internalType": "address",
          "name": "newOwner",
          "type": "address"
        }
      ],
      "name": "transferOwnership",
      "outputs": [],
      "stateMutability": "nonpayable",
      "type": "function"
    },
    {
      "inputs": [
        {
          "internalType": "address",
          "name": "to",
          "type": "address"
        }
      ],
      "name": "withdrawEther",
      "outputs": [],
      "stateMutability": "nonpayable",
      "type": "function"
    },
    {
      "inputs": [
        {
          "internalType": "address",
          "name": "to",
          "type": "address"
        },
        {
          "internalType": "address[]",
          "name": "token",
          "type": "address[]"
        }
      ],
      "name": "withdrawToken",
      "outputs": [],
      "stateMutability": "nonpayable",
      "type": "function"
    },
    {
      "stateMutability": "payable",
      "type": "receive"
    }
  ],
  "bytecode": "0x6080604052600060035534801561001557600080fd5b50600160008190555061003a61002f61003f60201b60201c565b61004760201b60201c565b61010d565b600033905090565b6000600160009054906101000a900473ffffffffffffffffffffffffffffffffffffffff16905081600160006101000a81548173ffffffffffffffffffffffffffffffffffffffff021916908373ffffffffffffffffffffffffffffffffffffffff1602179055508173ffffffffffffffffffffffffffffffffffffffff168173ffffffffffffffffffffffffffffffffffffffff167f8be0079c531659141344cd1fd0a4f28419497f9722a3daafe3b4186f6b6457e060405160405180910390a35050565b6120c3806200011d6000396000f3fe6080604052600436106100955760003560e01c80638da5cb5b116100595780638da5cb5b146101e65780638feeb21414610211578063af933b571461023a578063f2fde38b14610263578063f5d786251461028c576100ea565b80630a631576146100ef57806343b66dac1461012c5780635e4e71ca14610169578063715018a6146101a65780637213d2e2146101bd576100ea565b366100ea573373ffffffffffffffffffffffffffffffffffffffff167f88a5966d370b9919b20f3e2c13ff65706f196a4e32cc2c12bf57088f88525874346040516100e091906112a1565b60405180910390a2005b600080fd5b3480156100fb57600080fd5b50610116600480360381019061011191906112fc565b6102c9565b604051610123919061136a565b60405180910390f35b34801561013857600080fd5b50610153600480360381019061014e91906113b1565b6102fc565b604051610160919061140c565b60405180910390f35b34801561017557600080fd5b50610190600480360381019061018b91906114b8565b61037e565b60405161019d919061136a565b60405180910390f35b3480156101b257600080fd5b506101bb6107e9565b005b3480156101c957600080fd5b506101e460048036038101906101df9190611540565b6107fd565b005b3480156101f257600080fd5b506101fb610941565b604051610208919061136a565b60405180910390f35b34801561021d57600080fd5b50610238600480360381019061023391906115d6565b61096b565b005b34801561024657600080fd5b50610261600480360381019061025c9190611636565b610bf1565b005b34801561026f57600080fd5b5061028a60048036038101906102859190611636565b610d7b565b005b34801561029857600080fd5b506102b360048036038101906102ae9190611663565b610dfe565b6040516102c0919061136a565b60405180910390f35b60026020528060005260406000206000915054906101000a900473ffffffffffffffffffffffffffffffffffffffff1681565b6000808360601b90506040517f363d3d373d3d3d363d7300000000000000000000000000000000000000000000815281600a8201527f5af43d82803e903d91602b57fd5bf30000000000000000000000000000000000601e82015260408101602d600082873c600d810151600d83015114815183511416935050505092915050565b6000610388610fde565b60006002600088815260200190815260200160002060009054906101000a900473ffffffffffffffffffffffffffffffffffffffff169050600073ffffffffffffffffffffffffffffffffffffffff168173ffffffffffffffffffffffffffffffffffffffff160361042f576040517f08c379a000000000000000000000000000000000000000000000000000000000815260040161042690611720565b60405180910390fd5b600073ffffffffffffffffffffffffffffffffffffffff168673ffffffffffffffffffffffffffffffffffffffff160361049e576040517f08c379a00000000000000000000000000000000000000000000000000000000081526004016104959061178c565b60405180910390fd5b600085116104e1576040517f08c379a00000000000000000000000000000000000000000000000000000000081526004016104d89061181e565b60405180910390fd5b60008673ffffffffffffffffffffffffffffffffffffffff1663dd62ed3e33306040518363ffffffff1660e01b815260040161051e92919061183e565b602060405180830381865afa15801561053b573d6000803e3d6000fd5b505050506040513d601f19601f8201168201806040525081019061055f919061187c565b9050600081116105a4576040517f08c379a000000000000000000000000000000000000000000000000000000000815260040161059b9061191b565b60405180910390fd5b858110156105e7576040517f08c379a00000000000000000000000000000000000000000000000000000000081526004016105de90611987565b60405180910390fd5b6105f08261102d565b92508673ffffffffffffffffffffffffffffffffffffffff166323b872dd3385896040518463ffffffff1660e01b815260040161062f939291906119a7565b6020604051808303816000875af115801561064e573d6000803e3d6000fd5b505050506040513d601f19601f820116820180604052508101906106729190611a0a565b6106b1576040517f08c379a00000000000000000000000000000000000000000000000000000000081526004016106a890611a83565b60405180910390fd5b8273ffffffffffffffffffffffffffffffffffffffff1663439fab9186866040518363ffffffff1660e01b81526004016106ec929190611b01565b6020604051808303816000875af115801561070b573d6000803e3d6000fd5b505050506040513d601f19601f8201168201806040525081019061072f9190611a0a565b61076e576040517f08c379a000000000000000000000000000000000000000000000000000000000815260040161076590611b97565b60405180910390fd5b8273ffffffffffffffffffffffffffffffffffffffff16883373ffffffffffffffffffffffffffffffffffffffff167ff3548ef9f6d44a0aa356efa57ac2637196aaa8f466ef85ec0fe842a87d1bc48588886040516107ce929190611b01565b60405180910390a450506107e0611132565b95945050505050565b6107f161113c565b6107fb60006111ba565b565b61080561113c565b600073ffffffffffffffffffffffffffffffffffffffff166002600084815260200190815260200160002060009054906101000a900473ffffffffffffffffffffffffffffffffffffffff1673ffffffffffffffffffffffffffffffffffffffff16146108a7576040517f08c379a000000000000000000000000000000000000000000000000000000000815260040161089e90611c29565b60405180910390fd5b806002600084815260200190815260200160002060006101000a81548173ffffffffffffffffffffffffffffffffffffffff021916908373ffffffffffffffffffffffffffffffffffffffff1602179055508073ffffffffffffffffffffffffffffffffffffffff16827f76a15abe5a3f991b7b1b9e9f9629149df5fe28934e3129cc19882221cd847c5e60405160405180910390a35050565b6000600160009054906101000a900473ffffffffffffffffffffffffffffffffffffffff16905090565b61097361113c565b61097b610fde565b600073ffffffffffffffffffffffffffffffffffffffff168373ffffffffffffffffffffffffffffffffffffffff16036109ea576040517f08c379a00000000000000000000000000000000000000000000000000000000081526004016109e190611c95565b60405180910390fd5b600082829050905060005b81811015610be2576000848483818110610a1257610a11611cb5565b5b9050602002016020810190610a279190611636565b73ffffffffffffffffffffffffffffffffffffffff166370a08231306040518263ffffffff1660e01b8152600401610a5f919061136a565b602060405180830381865afa158015610a7c573d6000803e3d6000fd5b505050506040513d601f19601f82011682018060405250810190610aa0919061187c565b9050848483818110610ab557610ab4611cb5565b5b9050602002016020810190610aca9190611636565b73ffffffffffffffffffffffffffffffffffffffff1663a9059cbb87836040518363ffffffff1660e01b8152600401610b04929190611ce4565b6020604051808303816000875af1158015610b23573d6000803e3d6000fd5b505050506040513d601f19601f82011682018060405250810190610b479190611a0a565b50848483818110610b5b57610b5a611cb5565b5b9050602002016020810190610b709190611636565b73ffffffffffffffffffffffffffffffffffffffff168673ffffffffffffffffffffffffffffffffffffffff167f11dd463c4f2edd676b85f050130c7ab2f5832f52becb5444b09a92404aa1498a83604051610bcc91906112a1565b60405180910390a38180600101925050506109f5565b5050610bec611132565b505050565b610bf961113c565b610c01610fde565b600073ffffffffffffffffffffffffffffffffffffffff168173ffffffffffffffffffffffffffffffffffffffff1603610c70576040517f08c379a0000000000000000000000000000000000000000000000000000000008152600401610c6790611c95565b60405180910390fd5b600047905060008273ffffffffffffffffffffffffffffffffffffffff1682604051610c9b90611d3e565b60006040518083038185875af1925050503d8060008114610cd8576040519150601f19603f3d011682016040523d82523d6000602084013e610cdd565b606091505b5050905080610d21576040517f08c379a0000000000000000000000000000000000000000000000000000000008152600401610d1890611d9f565b60405180910390fd5b8273ffffffffffffffffffffffffffffffffffffffff167e427c0f965e4f144086694ed3a411df394e3dfa51cf4e74d9a70375bab91bb083604051610d6691906112a1565b60405180910390a25050610d78611132565b50565b610d8361113c565b600073ffffffffffffffffffffffffffffffffffffffff168173ffffffffffffffffffffffffffffffffffffffff1603610df2576040517f08c379a0000000000000000000000000000000000000000000000000000000008152600401610de990611e31565b60405180910390fd5b610dfb816111ba565b50565b6000806002600086815260200190815260200160002060009054906101000a900473ffffffffffffffffffffffffffffffffffffffff169050600073ffffffffffffffffffffffffffffffffffffffff168173ffffffffffffffffffffffffffffffffffffffff1603610ea6576040517f08c379a0000000000000000000000000000000000000000000000000000000008152600401610e9d90611720565b60405180910390fd5b610eaf8161102d565b91508173ffffffffffffffffffffffffffffffffffffffff1663439fab9185856040518363ffffffff1660e01b8152600401610eec929190611b01565b6020604051808303816000875af1158015610f0b573d6000803e3d6000fd5b505050506040513d601f19601f82011682018060405250810190610f2f9190611a0a565b610f6e576040517f08c379a0000000000000000000000000000000000000000000000000000000008152600401610f6590611b97565b60405180910390fd5b8173ffffffffffffffffffffffffffffffffffffffff16853373ffffffffffffffffffffffffffffffffffffffff167f1b12e55d2541eeb17268dc5edb7f4e0747617fd30050761bdc6563adce104fc98787604051610fce929190611b01565b60405180910390a4509392505050565b600260005403611023576040517f08c379a000000000000000000000000000000000000000000000000000000000815260040161101a90611e9d565b60405180910390fd5b6002600081905550565b60006001600360008282546110429190611eec565b92505081905550600082600354604051602001611060929190611f89565b604051602081830303815290604052805190602001209050763d602d80600a3d3981f3363d3d373d3d3d363d730000008360601b60e81c176000526e5af43d82803e903d91602b57fd5bf38360781b1760205280603760096000f59150600073ffffffffffffffffffffffffffffffffffffffff168273ffffffffffffffffffffffffffffffffffffffff160361112c576040517f08c379a000000000000000000000000000000000000000000000000000000000815260040161112390612001565b60405180910390fd5b50919050565b6001600081905550565b611144611280565b73ffffffffffffffffffffffffffffffffffffffff16611162610941565b73ffffffffffffffffffffffffffffffffffffffff16146111b8576040517f08c379a00000000000000000000000000000000000000000000000000000000081526004016111af9061206d565b60405180910390fd5b565b6000600160009054906101000a900473ffffffffffffffffffffffffffffffffffffffff16905081600160006101000a81548173ffffffffffffffffffffffffffffffffffffffff021916908373ffffffffffffffffffffffffffffffffffffffff1602179055508173ffffffffffffffffffffffffffffffffffffffff168173ffffffffffffffffffffffffffffffffffffffff167f8be0079c531659141344cd1fd0a4f28419497f9722a3daafe3b4186f6b6457e060405160405180910390a35050565b600033905090565b6000819050919050565b61129b81611288565b82525050565b60006020820190506112b66000830184611292565b92915050565b600080fd5b600080fd5b6000819050919050565b6112d9816112c6565b81146112e457600080fd5b50565b6000813590506112f6816112d0565b92915050565b600060208284031215611312576113116112bc565b5b6000611320848285016112e7565b91505092915050565b600073ffffffffffffffffffffffffffffffffffffffff82169050919050565b600061135482611329565b9050919050565b61136481611349565b82525050565b600060208201905061137f600083018461135b565b92915050565b61138e81611349565b811461139957600080fd5b50565b6000813590506113ab81611385565b92915050565b600080604083850312156113c8576113c76112bc565b5b60006113d68582860161139c565b92505060206113e78582860161139c565b9150509250929050565b60008115159050919050565b611406816113f1565b82525050565b600060208201905061142160008301846113fd565b92915050565b61143081611288565b811461143b57600080fd5b50565b60008135905061144d81611427565b92915050565b600080fd5b600080fd5b600080fd5b60008083601f84011261147857611477611453565b5b8235905067ffffffffffffffff81111561149557611494611458565b5b6020830191508360018202830111156114b1576114b061145d565b5b9250929050565b6000806000806000608086880312156114d4576114d36112bc565b5b60006114e2888289016112e7565b95505060206114f38882890161139c565b94505060406115048882890161143e565b935050606086013567ffffffffffffffff811115611525576115246112c1565b5b61153188828901611462565b92509250509295509295909350565b60008060408385031215611557576115566112bc565b5b6000611565858286016112e7565b92505060206115768582860161139c565b9150509250929050565b60008083601f84011261159657611595611453565b5b8235905067ffffffffffffffff8111156115b3576115b2611458565b5b6020830191508360208202830111156115cf576115ce61145d565b5b9250929050565b6000806000604084860312156115ef576115ee6112bc565b5b60006115fd8682870161139c565b935050602084013567ffffffffffffffff81111561161e5761161d6112c1565b5b61162a86828701611580565b92509250509250925092565b60006020828403121561164c5761164b6112bc565b5b600061165a8482850161139c565b91505092915050565b60008060006040848603121561167c5761167b6112bc565b5b600061168a868287016112e7565b935050602084013567ffffffffffffffff8111156116ab576116aa6112c1565b5b6116b786828701611462565b92509250509250925092565b600082825260208201905092915050565b7f4e6f20737563682074656d706c61746520696e20746865206c6973742e000000600082015250565b600061170a601d836116c3565b9150611715826116d4565b602082019050919050565b60006020820190508181036000830152611739816116fd565b9050919050565b7f476f2077697468206e6f6e206e756c6c20616464726573732e00000000000000600082015250565b60006117766019836116c3565b915061178182611740565b602082019050919050565b600060208201905081810360008301526117a581611769565b9050919050565b7f486176696e6720616e206576656e7420776974686f757420746f6b656e73206160008201527f7265206e6f74207065726d69747465642e000000000000000000000000000000602082015250565b60006118086031836116c3565b9150611813826117ac565b604082019050919050565b60006020820190508181036000830152611837816117fb565b9050919050565b6000604082019050611853600083018561135b565b611860602083018461135b565b9392505050565b60008151905061187681611427565b92915050565b600060208284031215611892576118916112bc565b5b60006118a084828501611867565b91505092915050565b7f596f75206861766520746f20617070726f7665204552432d323020746f20646560008201527f706c6f792e000000000000000000000000000000000000000000000000000000602082015250565b60006119056025836116c3565b9150611910826118a9565b604082019050919050565b60006020820190508181036000830152611934816118f8565b9050919050565b7f616c6c6f77616e6365206973206e6f7420656e6f7567682e0000000000000000600082015250565b60006119716018836116c3565b915061197c8261193b565b602082019050919050565b600060208201905081810360008301526119a081611964565b9050919050565b60006060820190506119bc600083018661135b565b6119c9602083018561135b565b6119d66040830184611292565b949350505050565b6119e7816113f1565b81146119f257600080fd5b50565b600081519050611a04816119de565b92915050565b600060208284031215611a2057611a1f6112bc565b5b6000611a2e848285016119f5565b91505092915050565b7f5472616e7366657246726f6d206661696c65642e000000000000000000000000600082015250565b6000611a6d6014836116c3565b9150611a7882611a37565b602082019050919050565b60006020820190508181036000830152611a9c81611a60565b9050919050565b600082825260208201905092915050565b82818337600083830152505050565b6000601f19601f8301169050919050565b6000611ae08385611aa3565b9350611aed838584611ab4565b611af683611ac3565b840190509392505050565b60006020820190508181036000830152611b1c818486611ad4565b90509392505050565b7f4661696c656420746f20696e697469616c697a652074686520636c6f6e65642060008201527f636f6e74726163742e0000000000000000000000000000000000000000000000602082015250565b6000611b816029836116c3565b9150611b8c82611b25565b604082019050919050565b60006020820190508181036000830152611bb081611b74565b9050919050565b7f546869732074656d706c617465206e616d6520697320616c726561647920746160008201527f6b656e2e00000000000000000000000000000000000000000000000000000000602082015250565b6000611c136024836116c3565b9150611c1e82611bb7565b604082019050919050565b60006020820190508181036000830152611c4281611c06565b9050919050565b7f446f6e2774206469736361726420747265617572792100000000000000000000600082015250565b6000611c7f6016836116c3565b9150611c8a82611c49565b602082019050919050565b60006020820190508181036000830152611cae81611c72565b9050919050565b7f4e487b7100000000000000000000000000000000000000000000000000000000600052603260045260246000fd5b6000604082019050611cf9600083018561135b565b611d066020830184611292565b9392505050565b600081905092915050565b50565b6000611d28600083611d0d565b9150611d3382611d18565b600082019050919050565b6000611d4982611d1b565b9150819050919050565b7f7472616e73666572206661696c65640000000000000000000000000000000000600082015250565b6000611d89600f836116c3565b9150611d9482611d53565b602082019050919050565b60006020820190508181036000830152611db881611d7c565b9050919050565b7f4f776e61626c653a206e6577206f776e657220697320746865207a65726f206160008201527f6464726573730000000000000000000000000000000000000000000000000000602082015250565b6000611e1b6026836116c3565b9150611e2682611dbf565b604082019050919050565b60006020820190508181036000830152611e4a81611e0e565b9050919050565b7f5265656e7472616e637947756172643a207265656e7472616e742063616c6c00600082015250565b6000611e87601f836116c3565b9150611e9282611e51565b602082019050919050565b60006020820190508181036000830152611eb681611e7a565b9050919050565b7f4e487b7100000000000000000000000000000000000000000000000000000000600052601160045260246000fd5b6000611ef782611288565b9150611f0283611288565b9250828201905080821115611f1a57611f19611ebd565b5b92915050565b60008160601b9050919050565b6000611f3882611f20565b9050919050565b6000611f4a82611f2d565b9050919050565b611f62611f5d82611349565b611f3f565b82525050565b6000819050919050565b611f83611f7e82611288565b611f68565b82525050565b6000611f958285611f51565b601482019150611fa58284611f72565b6020820191508190509392505050565b7f455243313136373a2063726561746532206661696c6564000000000000000000600082015250565b6000611feb6017836116c3565b9150611ff682611fb5565b602082019050919050565b6000602082019050818103600083015261201a81611fde565b9050919050565b7f4f776e61626c653a2063616c6c6572206973206e6f7420746865206f776e6572600082015250565b60006120576020836116c3565b915061206282612021565b602082019050919050565b600060208201905081810360008301526120868161204a565b905091905056fea2646970667358221220c2d7aa0dd2748e04d56cf97a0664a437f96449d2bfcd129eb3f49669a14b519f64736f6c63430008120033",
  "linkReferences": {},
  "deployedLinkReferences": {}
}