{
  "_format": "hh-sol-artifact-1",
  "contractName": "Factory",
  "sourceName": "contracts/Factory.sol",
  "abi": [
    {
      "anonymous": false,
      "inputs": [
        {
          "indexed": false,
          "internalType": "bytes32",
          "name": "templateName",
          "type": "bytes32"
        },
        {
          "indexed": false,
          "internalType": "bytes",
          "name": "args",
          "type": "bytes"
        }
      ],
      "name": "Deployed",
      "type": "event"
    },
    {
      "anonymous": false,
      "inputs": [
        {
          "indexed": true,
          "internalType": "address",
          "name": "previousOwner",
          "type": "address"
        },
        {
          "indexed": true,
          "internalType": "address",
          "name": "newOwner",
          "type": "address"
        }
      ],
      "name": "OwnershipTransferred",
      "type": "event"
    },
    {
      "anonymous": false,
      "inputs": [
        {
          "indexed": true,
          "internalType": "bytes32",
          "name": "templateName",
          "type": "bytes32"
        },
        {
          "indexed": true,
          "internalType": "address",
          "name": "templateAddr",
          "type": "address"
        }
      ],
      "name": "TemplateAdded",
      "type": "event"
    },
    {
      "anonymous": false,
      "inputs": [
        {
          "indexed": true,
          "internalType": "bytes32",
          "name": "templateName",
          "type": "bytes32"
        },
        {
          "indexed": true,
          "internalType": "address",
          "name": "templateAddr",
          "type": "address"
        }
      ],
      "name": "TemplateDeleted",
      "type": "event"
    },
    {
      "inputs": [
        {
          "internalType": "bytes32",
          "name": "templateName_",
          "type": "bytes32"
        },
        {
          "internalType": "address",
          "name": "templateAddr_",
          "type": "address"
        },
        {
          "internalType": "bytes4",
          "name": "signature_",
          "type": "bytes4"
        }
      ],
      "name": "addTemplate",
      "outputs": [],
      "stateMutability": "nonpayable",
      "type": "function"
    },
    {
      "inputs": [
        {
          "internalType": "bytes32",
          "name": "templateName_",
          "type": "bytes32"
        },
        {
          "internalType": "bytes",
          "name": "args_",
          "type": "bytes"
        }
      ],
      "name": "deploySaleClone",
      "outputs": [
        {
          "internalType": "address",
          "name": "deployedAddr",
          "type": "address"
        }
      ],
      "stateMutability": "nonpayable",
      "type": "function"
    },
    {
      "inputs": [],
      "name": "owner",
      "outputs": [
        {
          "internalType": "address",
          "name": "",
          "type": "address"
        }
      ],
      "stateMutability": "view",
      "type": "function"
    },
    {
      "inputs": [
        {
          "internalType": "bytes32",
          "name": "templateName_",
          "type": "bytes32"
        }
      ],
      "name": "removeTemplate",
      "outputs": [],
      "stateMutability": "nonpayable",
      "type": "function"
    },
    {
      "inputs": [],
      "name": "renounceOwnership",
      "outputs": [],
      "stateMutability": "nonpayable",
      "type": "function"
    },
    {
      "inputs": [
        {
          "internalType": "bytes32",
          "name": "",
          "type": "bytes32"
        }
      ],
      "name": "templates",
      "outputs": [
        {
          "internalType": "address",
          "name": "implemention",
          "type": "address"
        },
        {
          "internalType": "bytes4",
          "name": "signature",
          "type": "bytes4"
        }
      ],
      "stateMutability": "view",
      "type": "function"
    },
    {
      "inputs": [
        {
          "internalType": "address",
          "name": "newOwner",
          "type": "address"
        }
      ],
      "name": "transferOwnership",
      "outputs": [],
      "stateMutability": "nonpayable",
      "type": "function"
    }
  ],
  "bytecode": "0x6080604052600060025534801561001557600080fd5b5061001f33610024565b610074565b600080546001600160a01b038381166001600160a01b0319831681178455604051919092169283917f8be0079c531659141344cd1fd0a4f28419497f9722a3daafe3b4186f6b6457e09190a35050565b610d88806100836000396000f3fe608060405234801561001057600080fd5b506004361061007d5760003560e01c8063715018a61161005b578063715018a61461014f5780638da5cb5b14610157578063c1915fff14610196578063f2fde38b146101a957600080fd5b806306c58192146100825780630a6315761461009757806347e09a0b1461013c575b600080fd5b610095610090366004610ae3565b6101bc565b005b6100ea6100a5366004610b4a565b60016020526000908152604090205473ffffffffffffffffffffffffffffffffffffffff81169074010000000000000000000000000000000000000000900460e01b82565b6040805173ffffffffffffffffffffffffffffffffffffffff90931683527fffffffff000000000000000000000000000000000000000000000000000000009091166020830152015b60405180910390f35b61009561014a366004610b4a565b610353565b610095610430565b60005473ffffffffffffffffffffffffffffffffffffffff165b60405173ffffffffffffffffffffffffffffffffffffffff9091168152602001610133565b6101716101a4366004610b63565b610444565b6100956101b7366004610bdf565b6107da565b6101c4610891565b60008381526001602052604090205473ffffffffffffffffffffffffffffffffffffffff161561027a576040517f08c379a0000000000000000000000000000000000000000000000000000000008152602060048201526024808201527f546869732074656d706c617465206e616d6520697320616c726561647920746160448201527f6b656e2e0000000000000000000000000000000000000000000000000000000060648201526084015b60405180910390fd5b60408051808201825273ffffffffffffffffffffffffffffffffffffffff8085168083527fffffffff00000000000000000000000000000000000000000000000000000000851660208085019182526000898152600190915285812094518554925160e01c74010000000000000000000000000000000000000000027fffffffffffffffff000000000000000000000000000000000000000000000000909316941693909317179092559151909185917f76a15abe5a3f991b7b1b9e9f9629149df5fe28934e3129cc19882221cd847c5e9190a3505050565b61035b610891565b600081815260016020818152604080842081518083018352815473ffffffffffffffffffffffffffffffffffffffff80821683527fffffffff0000000000000000000000000000000000000000000000000000000074010000000000000000000000000000000000000000830460e01b1683870152888852959094527fffffffffffffffff000000000000000000000000000000000000000000000000909316905581519051919392169184917fa7ae8f374f2a1b1ab22d509190b98fa856e702cf5c9b7288e62d586f8e79aa1b9190a35050565b610438610891565b6104426000610912565b565b600083815260016020908152604080832081518083019092525473ffffffffffffffffffffffffffffffffffffffff81168083527401000000000000000000000000000000000000000090910460e01b7fffffffff0000000000000000000000000000000000000000000000000000000016928201929092529080610525576040517f08c379a000000000000000000000000000000000000000000000000000000000815260206004820152601d60248201527f4e6f20737563682074656d706c61746520696e20746865206c6973742e0000006044820152606401610271565b61052e81610987565b92506000808473ffffffffffffffffffffffffffffffffffffffff168460200151888860405160200161056393929190610c03565b604080517fffffffffffffffffffffffffffffffffffffffffffffffffffffffffffffffe08184030181529082905261059b91610c3f565b6000604051808303816000865af19150503d80600081146105d8576040519150601f19603f3d011682016040523d82523d6000602084013e6105dd565b606091505b50915091508161066f576040517f08c379a000000000000000000000000000000000000000000000000000000000815260206004820152602960248201527f4661696c656420746f20696e697469616c697a652074686520636c6f6e65642060448201527f636f6e74726163742e00000000000000000000000000000000000000000000006064820152608401610271565b600080828060200190518101906106869190610c6e565b6040517f23b872dd00000000000000000000000000000000000000000000000000000000815233600482015273ffffffffffffffffffffffffffffffffffffffff8a8116602483015260448201839052929450909250908316906323b872dd906064016020604051808303816000875af1158015610708573d6000803e3d6000fd5b505050506040513d601f19601f8201168201806040525081019061072c9190610c9c565b610792576040517f08c379a000000000000000000000000000000000000000000000000000000000815260206004820152601460248201527f5472616e7366657246726f6d206661696c65642e0000000000000000000000006044820152606401610271565b7f779d26e62e0f2f4e75a59557d671968832c327407f2c17eaefb0f148a77fce8a8a8a8a6040516107c593929190610cbe565b60405180910390a15050505050509392505050565b6107e2610891565b73ffffffffffffffffffffffffffffffffffffffff8116610885576040517f08c379a000000000000000000000000000000000000000000000000000000000815260206004820152602660248201527f4f776e61626c653a206e6577206f776e657220697320746865207a65726f206160448201527f64647265737300000000000000000000000000000000000000000000000000006064820152608401610271565b61088e81610912565b50565b60005473ffffffffffffffffffffffffffffffffffffffff163314610442576040517f08c379a000000000000000000000000000000000000000000000000000000000815260206004820181905260248201527f4f776e61626c653a2063616c6c6572206973206e6f7420746865206f776e65726044820152606401610271565b6000805473ffffffffffffffffffffffffffffffffffffffff8381167fffffffffffffffffffffffff0000000000000000000000000000000000000000831681178455604051919092169283917f8be0079c531659141344cd1fd0a4f28419497f9722a3daafe3b4186f6b6457e09190a35050565b600060016002600082825461099c9190610d12565b90915550506002546040517fffffffffffffffffffffffffffffffffffffffff000000000000000000000000606085901b1660208201526034810191909152600090605401604051602081830303815290604052805190602001209050763d602d80600a3d3981f3363d3d373d3d3d363d730000008360601b60e81c176000526e5af43d82803e903d91602b57fd5bf38360781b1760205280603760096000f5915073ffffffffffffffffffffffffffffffffffffffff8216610abb576040517f08c379a000000000000000000000000000000000000000000000000000000000815260206004820152601760248201527f455243313136373a2063726561746532206661696c65640000000000000000006044820152606401610271565b50919050565b73ffffffffffffffffffffffffffffffffffffffff8116811461088e57600080fd5b600080600060608486031215610af857600080fd5b833592506020840135610b0a81610ac1565b915060408401357fffffffff0000000000000000000000000000000000000000000000000000000081168114610b3f57600080fd5b809150509250925092565b600060208284031215610b5c57600080fd5b5035919050565b600080600060408486031215610b7857600080fd5b83359250602084013567ffffffffffffffff80821115610b9757600080fd5b818601915086601f830112610bab57600080fd5b813581811115610bba57600080fd5b876020828501011115610bcc57600080fd5b6020830194508093505050509250925092565b600060208284031215610bf157600080fd5b8135610bfc81610ac1565b9392505050565b7fffffffff0000000000000000000000000000000000000000000000000000000084168152818360048301376000910160040190815292915050565b6000825160005b81811015610c605760208186018101518583015201610c46565b506000920191825250919050565b60008060408385031215610c8157600080fd5b8251610c8c81610ac1565b6020939093015192949293505050565b600060208284031215610cae57600080fd5b81518015158114610bfc57600080fd5b83815260406020820152816040820152818360608301376000818301606090810191909152601f9092017fffffffffffffffffffffffffffffffffffffffffffffffffffffffffffffffe016010192915050565b80820180821115610d4c577f4e487b7100000000000000000000000000000000000000000000000000000000600052601160045260246000fd5b9291505056fea26469706673582212202ab4094178ae38ab97f53a9a6f6bb4e3c3f92de5c94f6300cb150fb43a33127064736f6c63430008120033",
  "linkReferences": {},
  "deployedLinkReferences": {}
}