{
  "_format": "hh-sol-artifact-1",
  "contractName": "Factory",
  "sourceName": "contracts/Factory.sol",
  "abi": [
    {
      "anonymous": false,
      "inputs": [
        {
          "indexed": false,
          "internalType": "bytes32",
          "name": "templateName",
          "type": "bytes32"
        },
        {
          "indexed": false,
          "internalType": "address",
          "name": "deployedAddress",
          "type": "address"
        }
      ],
      "name": "Deployed",
      "type": "event"
    },
    {
      "anonymous": false,
      "inputs": [
        {
          "indexed": true,
          "internalType": "address",
          "name": "previousOwner",
          "type": "address"
        },
        {
          "indexed": true,
          "internalType": "address",
          "name": "newOwner",
          "type": "address"
        }
      ],
      "name": "OwnershipTransferred",
      "type": "event"
    },
    {
      "anonymous": false,
      "inputs": [
        {
          "indexed": true,
          "internalType": "address",
          "name": "auctionAddress",
          "type": "address"
        }
      ],
      "name": "RewardScorerRemoved",
      "type": "event"
    },
    {
      "anonymous": false,
      "inputs": [
        {
          "indexed": true,
          "internalType": "bytes32",
          "name": "templateName",
          "type": "bytes32"
        },
        {
          "indexed": true,
          "internalType": "address",
          "name": "implementionAddr",
          "type": "address"
        }
      ],
      "name": "TemplateAdded",
      "type": "event"
    },
    {
      "anonymous": false,
      "inputs": [
        {
          "indexed": true,
          "internalType": "bytes32",
          "name": "templateName",
          "type": "bytes32"
        },
        {
          "indexed": true,
          "internalType": "address",
          "name": "implementionAddr",
          "type": "address"
        }
      ],
      "name": "TemplateRemoved",
      "type": "event"
    },
    {
      "inputs": [
        {
          "internalType": "bytes32",
          "name": "templateName_",
          "type": "bytes32"
        },
        {
          "internalType": "address",
          "name": "implementionAddr_",
          "type": "address"
        },
        {
          "internalType": "bytes4",
          "name": "initializeSignature_",
          "type": "bytes4"
        },
        {
          "internalType": "bytes4",
          "name": "transferSignature_",
          "type": "bytes4"
        }
      ],
      "name": "addTemplate",
      "outputs": [],
      "stateMutability": "nonpayable",
      "type": "function"
    },
    {
      "inputs": [
        {
          "internalType": "bytes32",
          "name": "templateName_",
          "type": "bytes32"
        },
        {
          "internalType": "bytes",
          "name": "args_",
          "type": "bytes"
        }
      ],
      "name": "deployAuction",
      "outputs": [
        {
          "internalType": "address",
          "name": "deployedAddr",
          "type": "address"
        }
      ],
      "stateMutability": "nonpayable",
      "type": "function"
    },
    {
      "inputs": [],
      "name": "owner",
      "outputs": [
        {
          "internalType": "address",
          "name": "",
          "type": "address"
        }
      ],
      "stateMutability": "view",
      "type": "function"
    },
    {
      "inputs": [
        {
          "internalType": "address",
          "name": "auctionAddress_",
          "type": "address"
        }
      ],
      "name": "removeRewardScorer",
      "outputs": [],
      "stateMutability": "nonpayable",
      "type": "function"
    },
    {
      "inputs": [
        {
          "internalType": "bytes32",
          "name": "templateName_",
          "type": "bytes32"
        }
      ],
      "name": "removeTemplate",
      "outputs": [],
      "stateMutability": "nonpayable",
      "type": "function"
    },
    {
      "inputs": [],
      "name": "renounceOwnership",
      "outputs": [],
      "stateMutability": "nonpayable",
      "type": "function"
    },
    {
      "inputs": [
        {
          "internalType": "address",
          "name": "",
          "type": "address"
        }
      ],
      "name": "rewardScorers",
      "outputs": [
        {
          "internalType": "bool",
          "name": "",
          "type": "bool"
        }
      ],
      "stateMutability": "view",
      "type": "function"
    },
    {
      "inputs": [
        {
          "internalType": "bytes32",
          "name": "",
          "type": "bytes32"
        }
      ],
      "name": "templates",
      "outputs": [
        {
          "internalType": "address",
          "name": "implemention",
          "type": "address"
        },
        {
          "internalType": "bytes4",
          "name": "initializeSignature",
          "type": "bytes4"
        },
        {
          "internalType": "bytes4",
          "name": "transferSignature",
          "type": "bytes4"
        }
      ],
      "stateMutability": "view",
      "type": "function"
    },
    {
      "inputs": [
        {
          "internalType": "address",
          "name": "newOwner",
          "type": "address"
        }
      ],
      "name": "transferOwnership",
      "outputs": [],
      "stateMutability": "nonpayable",
      "type": "function"
    }
  ],
  "bytecode": "0x6080604052600060035534801561001557600080fd5b5061001f33610024565b610074565b600080546001600160a01b038381166001600160a01b0319831681178455604051919092169283917f8be0079c531659141344cd1fd0a4f28419497f9722a3daafe3b4186f6b6457e09190a35050565b610f5a806100836000396000f3fe608060405234801561001057600080fd5b50600436106100a35760003560e01c80635f81bcd511610076578063715018a61161005b578063715018a61461021c5780638da5cb5b14610224578063f2fde38b1461024257600080fd5b80635f81bcd5146101d1578063605ec92d1461020957600080fd5b80630a631576146100a857806338ec63291461017657806347e09a0b1461018b5780634da894121461019e575b600080fd5b61011c6100b6366004610cc9565b60016020526000908152604090205473ffffffffffffffffffffffffffffffffffffffff81169074010000000000000000000000000000000000000000810460e090811b9178010000000000000000000000000000000000000000000000009004901b83565b6040805173ffffffffffffffffffffffffffffffffffffffff90941684527fffffffff0000000000000000000000000000000000000000000000000000000092831660208501529116908201526060015b60405180910390f35b610189610184366004610d0b565b610255565b005b610189610199366004610cc9565b610365565b6101c16101ac366004610d0b565b60026020526000908152604090205460ff1681565b604051901515815260200161016d565b6101e46101df366004610d2d565b610449565b60405173ffffffffffffffffffffffffffffffffffffffff909116815260200161016d565b610189610217366004610dd9565b6107e5565b6101896109ce565b60005473ffffffffffffffffffffffffffffffffffffffff166101e4565b610189610250366004610d0b565b6109e2565b61025d610a99565b73ffffffffffffffffffffffffffffffffffffffff811660009081526002602052604090205460ff166102f1576040517f08c379a000000000000000000000000000000000000000000000000000000000815260206004820152601b60248201527f4e6f74207265676973746572656420617320612073636f7265722e000000000060448201526064015b60405180910390fd5b73ffffffffffffffffffffffffffffffffffffffff811660008181526002602052604080822080547fffffffffffffffffffffffffffffffffffffffffffffffffffffffffffffff00169055517f94de8d53dc0d468e5cd216dabc2790dc3b990149b3220c9cb98a6e1bde0ffa0f9190a250565b61036d610a99565b60008181526001602081815260408084208151606081018352815473ffffffffffffffffffffffffffffffffffffffff80821683527fffffffff0000000000000000000000000000000000000000000000000000000074010000000000000000000000000000000000000000830460e090811b82168589015278010000000000000000000000000000000000000000000000008404901b8116848701528989529690955294909416905582519051929391169184917fbb7122657ce337703c9113750ec59528e1864bd8bbd1a5e6895e27f868b5fabd91a35050565b60008381526001602090815260408083208151606081018352905473ffffffffffffffffffffffffffffffffffffffff81168083527fffffffff0000000000000000000000000000000000000000000000000000000074010000000000000000000000000000000000000000830460e090811b821696850196909652780100000000000000000000000000000000000000000000000090920490941b16918101919091529080610555576040517f08c379a000000000000000000000000000000000000000000000000000000000815260206004820152601d60248201527f4e6f20737563682074656d706c61746520696e20746865206c6973742e00000060448201526064016102e8565b61055e81610b1a565b6040805188815273ffffffffffffffffffffffffffffffffffffffff831660208201529194507fe491e278e37782abe0872fe7c7b549cd7b0713d0c5c1e84a81899a5fdf32087b910160405180910390a16000808473ffffffffffffffffffffffffffffffffffffffff16846020015188886040516020016105e293929190610e26565b604080517fffffffffffffffffffffffffffffffffffffffffffffffffffffffffffffffe08184030181529082905261061a91610e92565b6000604051808303816000865af19150503d8060008114610657576040519150601f19603f3d011682016040523d82523d6000602084013e61065c565b606091505b50915091508161066e57805160208201fd5b60408401517fffffffff00000000000000000000000000000000000000000000000000000000161561078c57604080850151815173ffffffffffffffffffffffffffffffffffffffff88166020820181905292849101604080517fffffffffffffffffffffffffffffffffffffffffffffffffffffffffffffffe081840301815290829052610701939291602001610e9e565b604080517fffffffffffffffffffffffffffffffffffffffffffffffffffffffffffffffe08184030181529082905261073991610e92565b600060405180830381855af49150503d8060008114610774576040519150601f19603f3d011682016040523d82523d6000602084013e610779565b606091505b5090925090508161078c57805160208201fd5b50505073ffffffffffffffffffffffffffffffffffffffff8216600090815260026020526040902080547fffffffffffffffffffffffffffffffffffffffffffffffffffffffffffffff00166001179055509392505050565b6107ed610a99565b60008481526001602052604090205473ffffffffffffffffffffffffffffffffffffffff161561089e576040517f08c379a0000000000000000000000000000000000000000000000000000000008152602060048201526024808201527f546869732074656d706c617465206e616d6520697320616c726561647920746160448201527f6b656e2e0000000000000000000000000000000000000000000000000000000060648201526084016102e8565b6040805160608101825273ffffffffffffffffffffffffffffffffffffffff8086168083527fffffffff00000000000000000000000000000000000000000000000000000000808716602080860191825291871685870190815260008b81526001909352868320955186549251915160e090811c7801000000000000000000000000000000000000000000000000027fffffffff00000000ffffffffffffffffffffffffffffffffffffffffffffffff9390911c74010000000000000000000000000000000000000000027fffffffffffffffff00000000000000000000000000000000000000000000000090941691909616179190911716929092179092559151909186917f76a15abe5a3f991b7b1b9e9f9629149df5fe28934e3129cc19882221cd847c5e9190a350505050565b6109d6610a99565b6109e06000610c54565b565b6109ea610a99565b73ffffffffffffffffffffffffffffffffffffffff8116610a8d576040517f08c379a000000000000000000000000000000000000000000000000000000000815260206004820152602660248201527f4f776e61626c653a206e6577206f776e657220697320746865207a65726f206160448201527f646472657373000000000000000000000000000000000000000000000000000060648201526084016102e8565b610a9681610c54565b50565b60005473ffffffffffffffffffffffffffffffffffffffff1633146109e0576040517f08c379a000000000000000000000000000000000000000000000000000000000815260206004820181905260248201527f4f776e61626c653a2063616c6c6572206973206e6f7420746865206f776e657260448201526064016102e8565b6000600160036000828254610b2f9190610ee4565b90915550506003546040517fffffffffffffffffffffffffffffffffffffffff000000000000000000000000606085901b1660208201526034810191909152600090605401604051602081830303815290604052805190602001209050763d602d80600a3d3981f3363d3d373d3d3d363d730000008360601b60e81c176000526e5af43d82803e903d91602b57fd5bf38360781b1760205280603760096000f5915073ffffffffffffffffffffffffffffffffffffffff8216610c4e576040517f08c379a000000000000000000000000000000000000000000000000000000000815260206004820152601760248201527f455243313136373a2063726561746532206661696c656400000000000000000060448201526064016102e8565b50919050565b6000805473ffffffffffffffffffffffffffffffffffffffff8381167fffffffffffffffffffffffff0000000000000000000000000000000000000000831681178455604051919092169283917f8be0079c531659141344cd1fd0a4f28419497f9722a3daafe3b4186f6b6457e09190a35050565b600060208284031215610cdb57600080fd5b5035919050565b803573ffffffffffffffffffffffffffffffffffffffff81168114610d0657600080fd5b919050565b600060208284031215610d1d57600080fd5b610d2682610ce2565b9392505050565b600080600060408486031215610d4257600080fd5b83359250602084013567ffffffffffffffff80821115610d6157600080fd5b818601915086601f830112610d7557600080fd5b813581811115610d8457600080fd5b876020828501011115610d9657600080fd5b6020830194508093505050509250925092565b80357fffffffff0000000000000000000000000000000000000000000000000000000081168114610d0657600080fd5b60008060008060808587031215610def57600080fd5b84359350610dff60208601610ce2565b9250610e0d60408601610da9565b9150610e1b60608601610da9565b905092959194509250565b7fffffffff0000000000000000000000000000000000000000000000000000000084168152818360048301376000910160040190815292915050565b6000815160005b81811015610e835760208185018101518683015201610e69565b50600093019283525090919050565b6000610d268284610e62565b7fffffffff00000000000000000000000000000000000000000000000000000000841681526000610edb610ed56004840186610e62565b84610e62565b95945050505050565b80820180821115610f1e577f4e487b7100000000000000000000000000000000000000000000000000000000600052601160045260246000fd5b9291505056fea26469706673582212205050654f13a0366e50482575e484a5b643e86371491acdb1d852f27a51821be964736f6c63430008120033",
  "linkReferences": {},
  "deployedLinkReferences": {}
}