{
  "_format": "hh-sol-artifact-1",
  "contractName": "LiquidityGaugeV6",
  "sourceName": "contracts/LiquidityGaugeV6.sol",
  "abi": [
    {
      "inputs": [
        {
          "internalType": "address",
          "name": "minter_",
          "type": "address"
        }
      ],
      "stateMutability": "nonpayable",
      "type": "constructor"
    },
    {
      "anonymous": false,
      "inputs": [
        {
          "indexed": true,
          "internalType": "address",
          "name": "admin",
          "type": "address"
        }
      ],
      "name": "ApplyOwnership",
      "type": "event"
    },
    {
      "anonymous": false,
      "inputs": [
        {
          "indexed": true,
          "internalType": "address",
          "name": "admin",
          "type": "address"
        }
      ],
      "name": "CommitOwnership",
      "type": "event"
    },
    {
      "anonymous": false,
      "inputs": [
        {
          "indexed": false,
          "internalType": "address",
          "name": "user",
          "type": "address"
        },
        {
          "indexed": false,
          "internalType": "uint256",
          "name": "originalBalance",
          "type": "uint256"
        },
        {
          "indexed": false,
          "internalType": "uint256",
          "name": "originalSupply",
          "type": "uint256"
        },
        {
          "indexed": false,
          "internalType": "uint256",
          "name": "workingBalance",
          "type": "uint256"
        },
        {
          "indexed": false,
          "internalType": "uint256",
          "name": "workingSupply",
          "type": "uint256"
        }
      ],
      "name": "UpdateLiquidityLimit",
      "type": "event"
    },
    {
      "inputs": [],
      "name": "TOKENLESS_PRODUCTION",
      "outputs": [
        {
          "internalType": "uint256",
          "name": "",
          "type": "uint256"
        }
      ],
      "stateMutability": "view",
      "type": "function"
    },
    {
      "inputs": [],
      "name": "VERSION",
      "outputs": [
        {
          "internalType": "string",
          "name": "",
          "type": "string"
        }
      ],
      "stateMutability": "view",
      "type": "function"
    },
    {
      "inputs": [],
      "name": "WEEK",
      "outputs": [
        {
          "internalType": "uint256",
          "name": "",
          "type": "uint256"
        }
      ],
      "stateMutability": "view",
      "type": "function"
    },
    {
      "inputs": [],
      "name": "admin",
      "outputs": [
        {
          "internalType": "address",
          "name": "",
          "type": "address"
        }
      ],
      "stateMutability": "view",
      "type": "function"
    },
    {
      "inputs": [
        {
          "internalType": "address",
          "name": "",
          "type": "address"
        },
        {
          "internalType": "address",
          "name": "",
          "type": "address"
        }
      ],
      "name": "claimData",
      "outputs": [
        {
          "internalType": "uint256",
          "name": "",
          "type": "uint256"
        }
      ],
      "stateMutability": "view",
      "type": "function"
    },
    {
      "inputs": [
        {
          "internalType": "address",
          "name": "addr_",
          "type": "address"
        }
      ],
      "name": "claimableTokens",
      "outputs": [
        {
          "internalType": "uint256",
          "name": "",
          "type": "uint256"
        }
      ],
      "stateMutability": "nonpayable",
      "type": "function"
    },
    {
      "inputs": [],
      "name": "futureEpochTime",
      "outputs": [
        {
          "internalType": "uint256",
          "name": "",
          "type": "uint256"
        }
      ],
      "stateMutability": "view",
      "type": "function"
    },
    {
      "inputs": [],
      "name": "gaugeController",
      "outputs": [
        {
          "internalType": "address",
          "name": "",
          "type": "address"
        }
      ],
      "stateMutability": "view",
      "type": "function"
    },
    {
      "inputs": [],
      "name": "inflationRate",
      "outputs": [
        {
          "internalType": "uint256",
          "name": "",
          "type": "uint256"
        }
      ],
      "stateMutability": "view",
      "type": "function"
    },
    {
      "inputs": [],
      "name": "integrateCheckpoint",
      "outputs": [
        {
          "internalType": "uint256",
          "name": "",
          "type": "uint256"
        }
      ],
      "stateMutability": "view",
      "type": "function"
    },
    {
      "inputs": [
        {
          "internalType": "address",
          "name": "",
          "type": "address"
        }
      ],
      "name": "integrateCheckpointOf",
      "outputs": [
        {
          "internalType": "uint256",
          "name": "",
          "type": "uint256"
        }
      ],
      "stateMutability": "view",
      "type": "function"
    },
    {
      "inputs": [
        {
          "internalType": "address",
          "name": "",
          "type": "address"
        }
      ],
      "name": "integrateFraction",
      "outputs": [
        {
          "internalType": "uint256",
          "name": "",
          "type": "uint256"
        }
      ],
      "stateMutability": "view",
      "type": "function"
    },
    {
      "inputs": [
        {
          "internalType": "uint256",
          "name": "",
          "type": "uint256"
        }
      ],
      "name": "integrateInvSupply",
      "outputs": [
        {
          "internalType": "uint256",
          "name": "",
          "type": "uint256"
        }
      ],
      "stateMutability": "view",
      "type": "function"
    },
    {
      "inputs": [
        {
          "internalType": "address",
          "name": "",
          "type": "address"
        }
      ],
      "name": "integrateInvSupplyOf",
      "outputs": [
        {
          "internalType": "uint256",
          "name": "",
          "type": "uint256"
        }
      ],
      "stateMutability": "view",
      "type": "function"
    },
    {
      "inputs": [],
      "name": "isKilled",
      "outputs": [
        {
          "internalType": "bool",
          "name": "",
          "type": "bool"
        }
      ],
      "stateMutability": "view",
      "type": "function"
    },
    {
      "inputs": [],
      "name": "minter",
      "outputs": [
        {
          "internalType": "address",
          "name": "",
          "type": "address"
        }
      ],
      "stateMutability": "view",
      "type": "function"
    },
    {
      "inputs": [],
      "name": "period",
      "outputs": [
        {
          "internalType": "int128",
          "name": "",
          "type": "int128"
        }
      ],
      "stateMutability": "view",
      "type": "function"
    },
    {
      "inputs": [
        {
          "internalType": "uint256",
          "name": "",
          "type": "uint256"
        }
      ],
      "name": "periodTimestamp",
      "outputs": [
        {
          "internalType": "uint256",
          "name": "",
          "type": "uint256"
        }
      ],
      "stateMutability": "view",
      "type": "function"
    },
    {
      "inputs": [
        {
          "internalType": "bool",
          "name": "isKilled_",
          "type": "bool"
        }
      ],
      "name": "setKilled",
      "outputs": [],
      "stateMutability": "nonpayable",
      "type": "function"
    },
    {
      "inputs": [],
      "name": "token",
      "outputs": [
        {
          "internalType": "address",
          "name": "",
          "type": "address"
        }
      ],
      "stateMutability": "view",
      "type": "function"
    },
    {
      "inputs": [
        {
          "internalType": "address",
          "name": "addr_",
          "type": "address"
        }
      ],
      "name": "userCheckpoint",
      "outputs": [
        {
          "internalType": "bool",
          "name": "",
          "type": "bool"
        }
      ],
      "stateMutability": "nonpayable",
      "type": "function"
    },
    {
      "inputs": [],
      "name": "version",
      "outputs": [
        {
          "internalType": "string",
          "name": "",
          "type": "string"
        }
      ],
      "stateMutability": "pure",
      "type": "function"
    },
    {
      "inputs": [],
      "name": "votingEscrow",
      "outputs": [
        {
          "internalType": "address",
          "name": "",
          "type": "address"
        }
      ],
      "stateMutability": "view",
      "type": "function"
    },
    {
      "inputs": [
        {
          "internalType": "address",
          "name": "",
          "type": "address"
        }
      ],
      "name": "workingBalances",
      "outputs": [
        {
          "internalType": "uint256",
          "name": "",
          "type": "uint256"
        }
      ],
      "stateMutability": "view",
      "type": "function"
    },
    {
      "inputs": [],
      "name": "workingSupply",
      "outputs": [
        {
          "internalType": "uint256",
          "name": "",
          "type": "uint256"
        }
      ],
      "stateMutability": "view",
      "type": "function"
    }
  ],
  "bytecode": "0x60806040523480156200001157600080fd5b50604051620013df380380620013df8339810160408190526200003491620002d3565b6001600055600480546001600160a01b0319166001600160a01b038316908117825560408051637e062a3560e11b81529051919263fc0c546a9282820192602092908290030181865afa15801562000090573d6000803e3d6000fd5b505050506040513d601f19601f82011682018060405250810190620000b69190620002d3565b600280546001600160a01b0319166001600160a01b03928316179055600480546040805163f77c479160e01b81529051919093169263f77c479192818101926020929091908290030181865afa15801562000115573d6000803e3d6000fd5b505050506040513d601f19601f820116820180604052508101906200013b9190620002d3565b600580546001600160a01b0319166001600160a01b0392909216918217905560408051634f2bfe5b60e01b81529051634f2bfe5b916004808201926020929091908290030181865afa15801562000196573d6000803e3d6000fd5b505050506040513d601f19601f82011682018060405250810190620001bc9190620002d3565b600380546001600160a01b03199081166001600160a01b039384161790915542600f55600180549091163317905560025460408051631627391760e11b815290519190921691632c4e722e9160048083019260209291908290030181865afa1580156200022d573d6000803e3d6000fd5b505050506040513d601f19601f8201168201806040525081019062000253919062000305565b6007556002546040805163277dbafb60e01b815290516001600160a01b039092169163277dbafb9160048082019260209290919082900301816000875af1158015620002a3573d6000803e3d6000fd5b505050506040513d601f19601f82011682018060405250810190620002c9919062000305565b600655506200031f565b600060208284031215620002e657600080fd5b81516001600160a01b0381168114620002fe57600080fd5b9392505050565b6000602082840312156200031857600080fd5b5051919050565b6110b0806200032f6000396000f3fe608060405234801561001057600080fd5b50600436106101a35760003560e01c806399eecb3b116100ee578063caa0b9ed11610097578063f4359ce511610071578063f4359ce51461040e578063f851a44014610418578063fc0c546a14610438578063ffa1ad741461045857600080fd5b8063caa0b9ed146103a3578063e50912ae146103c3578063ef78d4fd146103ee57600080fd5b8063b1bd6086116100c8578063b1bd608614610372578063bd4aa74714610392578063c8562f721461039a57600080fd5b806399eecb3b146103365780639e48d35e14610356578063b07b709b1461035f57600080fd5b806354fd4d50116101505780638dea29c71161012a5780638dea29c7146102ce5780638fe8a101146102e1578063958da8de1461031657600080fd5b806354fd4d50146102595780637699b4cd1461029b57806384d24226146102bb57600080fd5b806331f9e35b1161018157806331f9e35b146102285780634f2bfe5b14610231578063505362c41461025157600080fd5b806307546172146101a857806309599504146101f257806331e202cc14610207575b600080fd5b6004546101c89073ffffffffffffffffffffffffffffffffffffffff1681565b60405173ffffffffffffffffffffffffffffffffffffffff90911681526020015b60405180910390f35b610205610200366004610e1f565b610494565b005b61021a610215366004610e41565b610502565b6040519081526020016101e9565b61021a60075481565b6003546101c89073ffffffffffffffffffffffffffffffffffffffff1681565b61021a610525565b60408051808201909152600681527f76312e302e30000000000000000000000000000000000000000000000000000060208201525b6040516101e99190610e5a565b61021a6102a9366004610eef565b600c6020526000908152604090205481565b61021a6102c9366004610eef565b610563565b61021a6102dc366004610e41565b610640565b6005546103069074010000000000000000000000000000000000000000900460ff1681565b60405190151581526020016101e9565b61021a610324366004610eef565b60096020526000908152604090205481565b6005546101c89073ffffffffffffffffffffffffffffffffffffffff1681565b61021a60065481565b61030661036d366004610eef565b610668565b61021a610380366004610eef565b600b6020526000908152604090205481565b61021a602881565b61021a600a5481565b61021a6103b1366004610eef565b600d6020526000908152604090205481565b61021a6103d1366004610f0a565b600860209081526000928352604080842090915290825290205481565b600e546103fb90600f0b81565b604051600f9190910b81526020016101e9565b61021a62093a8081565b6001546101c89073ffffffffffffffffffffffffffffffffffffffff1681565b6002546101c89073ffffffffffffffffffffffffffffffffffffffff1681565b61028e6040518060400160405280600681526020017f76312e302e30000000000000000000000000000000000000000000000000000081525081565b60015473ffffffffffffffffffffffffffffffffffffffff1633146104b857600080fd5b6005805491151574010000000000000000000000000000000000000000027fffffffffffffffffffffff00ffffffffffffffffffffffffffffffffffffffff909216919091179055565b600f816c01431e0fae6d7217caa0000000811061051e57600080fd5b0154905081565b600e54600090600f906fffffffffffffffffffffffffffffffff166c01431e0fae6d7217caa0000000811061055c5761055c610f3d565b0154905090565b600061056e82610720565b600480546040517f8b752bb000000000000000000000000000000000000000000000000000000000815273ffffffffffffffffffffffffffffffffffffffff85811693820193909352306024820152911690638b752bb090604401602060405180830381865afa1580156105e6573d6000803e3d6000fd5b505050506040513d601f19601f8201168201806040525081019061060a9190610f6c565b73ffffffffffffffffffffffffffffffffffffffff83166000908152600d602052604090205461063a9190610fb4565b92915050565b6c01431e0fae6d7217caa000000f816c01431e0fae6d7217caa0000000811061051e57600080fd5b60003373ffffffffffffffffffffffffffffffffffffffff831614806106a5575060045473ffffffffffffffffffffffffffffffffffffffff1633145b61070f576040517f08c379a000000000000000000000000000000000000000000000000000000000815260206004820152601160248201527f6465763a20756e617574686f72697a6564000000000000000000000000000000604482015260640160405180910390fd5b61071882610720565b506001919050565b6107726040518061012001604052806000600f0b815260200160008152602001600081526020016000815260200160008152602001600081526020016000815260200160008152602001600081525090565b600e54600f81810b8352906fffffffffffffffffffffffffffffffff166c01431e0fae6d7217caa000000081106107ab576107ab610f3d565b0154602082015280516c01431e0fae6d7217caa000000f906fffffffffffffffffffffffffffffffff166c01431e0fae6d7217caa000000081106107f1576107f1610f3d565b015460408201526007546080820181905260065460c0830181905260a083019190915260208201511161095357600260009054906101000a900473ffffffffffffffffffffffffffffffffffffffff1673ffffffffffffffffffffffffffffffffffffffff1663277dbafb6040518163ffffffff1660e01b81526004016020604051808303816000875af115801561088d573d6000803e3d6000fd5b505050506040513d601f19601f820116820180604052508101906108b19190610f6c565b600655600254604080517f2c4e722e000000000000000000000000000000000000000000000000000000008152905173ffffffffffffffffffffffffffffffffffffffff90921691632c4e722e916004808201926020929091908290030181865afa158015610924573d6000803e3d6000fd5b505050506040513d601f19601f820116820180604052508101906109489190610f6c565b60a082018190526007555b60055474010000000000000000000000000000000000000000900460ff16156109855760006080820181905260a08201525b8060200151421115610c6b57600a546005546040517f8aca6a2300000000000000000000000000000000000000000000000000000000815230600482015273ffffffffffffffffffffffffffffffffffffffff90911690638aca6a2390602401600060405180830381600087803b1580156109ff57600080fd5b505af1158015610a13573d6000803e3d6000fd5b5050505060208201516000610a4a62093a8080610a308186610fc7565b610a3a9190610fda565b610a449190611015565b42610e07565b905060005b6101f4811015610c66576000610a658484610fb4565b60055490915060009073ffffffffffffffffffffffffffffffffffffffff166365c604683062093a80610a98818a610fda565b610aa29190611015565b6040517fffffffff0000000000000000000000000000000000000000000000000000000060e085901b16815273ffffffffffffffffffffffffffffffffffffffff90921660048301526024820152604401602060405180830381865afa158015610b10573d6000803e3d6000fd5b505050506040513d601f19601f82011682018060405250810190610b349190610f6c565b90508515610c3457848760c0015110158015610b535750838760c00151105b15610bf95785858860c00151610b699190610fb4565b828960800151610b799190611015565b610b839190611015565b610b8d9190610fda565b87604001818151610b9e9190610fc7565b90525060a0870151608088015260c08701518690610bbc9086610fb4565b828960800151610bcc9190611015565b610bd69190611015565b610be09190610fda565b87604001818151610bf19190610fc7565b905250610c34565b8582828960800151610c0b9190611015565b610c159190611015565b610c1f9190610fda565b87604001818151610c309190610fc7565b9052505b428403610c42575050610c66565b839450610c5762093a8085610a449190610fc7565b93508260010192505050610a4f565b505050505b600181600001818151610c7e919061102c565b600f90810b9091528251600e80547fffffffffffffffffffffffffffffffff00000000000000000000000000000000166fffffffffffffffffffffffffffffffff90921691821790554292506c01431e0fae6d7217caa00000008110610ce657610ce6610f3d565b0155604081015181516c01431e0fae6d7217caa000000f906fffffffffffffffffffffffffffffffff166c01431e0fae6d7217caa00000008110610d2c57610d2c610f3d565b015573ffffffffffffffffffffffffffffffffffffffff8216600090815260096020908152604080832054600b9092529182902054918301519091670de0b6b3a764000091610d7b9190610fb4565b610d859083611015565b610d8f9190610fda565b73ffffffffffffffffffffffffffffffffffffffff84166000908152600d602052604081208054909190610dc4908490610fc7565b90915550505060409081015173ffffffffffffffffffffffffffffffffffffffff9092166000908152600b602090815282822093909355600c9092529020429055565b6000818310610e165781610e18565b825b9392505050565b600060208284031215610e3157600080fd5b81358015158114610e1857600080fd5b600060208284031215610e5357600080fd5b5035919050565b600060208083528351808285015260005b81811015610e8757858101830151858201604001528201610e6b565b5060006040828601015260407fffffffffffffffffffffffffffffffffffffffffffffffffffffffffffffffe0601f8301168501019250505092915050565b803573ffffffffffffffffffffffffffffffffffffffff81168114610eea57600080fd5b919050565b600060208284031215610f0157600080fd5b610e1882610ec6565b60008060408385031215610f1d57600080fd5b610f2683610ec6565b9150610f3460208401610ec6565b90509250929050565b7f4e487b7100000000000000000000000000000000000000000000000000000000600052603260045260246000fd5b600060208284031215610f7e57600080fd5b5051919050565b7f4e487b7100000000000000000000000000000000000000000000000000000000600052601160045260246000fd5b8181038181111561063a5761063a610f85565b8082018082111561063a5761063a610f85565b600082611010577f4e487b7100000000000000000000000000000000000000000000000000000000600052601260045260246000fd5b500490565b808202811582820484141761063a5761063a610f85565b600f81810b9083900b016f7fffffffffffffffffffffffffffffff81137fffffffffffffffffffffffffffffffff800000000000000000000000000000008212171561063a5761063a610f8556fea26469706673582212203e099c8d8b59d600319312a3ca9762e18834c35f62c7f214f7c390483a681f9764736f6c63430008120033",
  "linkReferences": {},
  "deployedLinkReferences": {}
}