{
  "_format": "hh-sol-artifact-1",
  "contractName": "CRV",
  "sourceName": "contracts/CRV.sol",
  "abi": [
    {
      "inputs": [],
      "stateMutability": "nonpayable",
      "type": "constructor"
    },
    {
      "anonymous": false,
      "inputs": [
        {
          "indexed": true,
          "internalType": "address",
          "name": "owner",
          "type": "address"
        },
        {
          "indexed": true,
          "internalType": "address",
          "name": "spender",
          "type": "address"
        },
        {
          "indexed": false,
          "internalType": "uint256",
          "name": "value",
          "type": "uint256"
        }
      ],
      "name": "Approval",
      "type": "event"
    },
    {
      "anonymous": false,
      "inputs": [
        {
          "indexed": false,
          "internalType": "address",
          "name": "admin",
          "type": "address"
        }
      ],
      "name": "SetAdmin",
      "type": "event"
    },
    {
      "anonymous": false,
      "inputs": [
        {
          "indexed": false,
          "internalType": "address",
          "name": "minter",
          "type": "address"
        }
      ],
      "name": "SetMinter",
      "type": "event"
    },
    {
      "anonymous": false,
      "inputs": [
        {
          "indexed": true,
          "internalType": "address",
          "name": "from",
          "type": "address"
        },
        {
          "indexed": true,
          "internalType": "address",
          "name": "to",
          "type": "address"
        },
        {
          "indexed": false,
          "internalType": "uint256",
          "name": "value",
          "type": "uint256"
        }
      ],
      "name": "Transfer",
      "type": "event"
    },
    {
      "anonymous": false,
      "inputs": [
        {
          "indexed": false,
          "internalType": "uint256",
          "name": "time",
          "type": "uint256"
        },
        {
          "indexed": false,
          "internalType": "uint256",
          "name": "rate",
          "type": "uint256"
        },
        {
          "indexed": false,
          "internalType": "uint256",
          "name": "supply",
          "type": "uint256"
        }
      ],
      "name": "UpdateMiningParameters",
      "type": "event"
    },
    {
      "inputs": [],
      "name": "admin",
      "outputs": [
        {
          "internalType": "address",
          "name": "",
          "type": "address"
        }
      ],
      "stateMutability": "view",
      "type": "function"
    },
    {
      "inputs": [
        {
          "internalType": "address",
          "name": "owner",
          "type": "address"
        },
        {
          "internalType": "address",
          "name": "spender",
          "type": "address"
        }
      ],
      "name": "allowance",
      "outputs": [
        {
          "internalType": "uint256",
          "name": "",
          "type": "uint256"
        }
      ],
      "stateMutability": "view",
      "type": "function"
    },
    {
      "inputs": [
        {
          "internalType": "address",
          "name": "spender",
          "type": "address"
        },
        {
          "internalType": "uint256",
          "name": "amount",
          "type": "uint256"
        }
      ],
      "name": "approve",
      "outputs": [
        {
          "internalType": "bool",
          "name": "",
          "type": "bool"
        }
      ],
      "stateMutability": "nonpayable",
      "type": "function"
    },
    {
      "inputs": [],
      "name": "available_supply",
      "outputs": [
        {
          "internalType": "uint256",
          "name": "",
          "type": "uint256"
        }
      ],
      "stateMutability": "view",
      "type": "function"
    },
    {
      "inputs": [
        {
          "internalType": "address",
          "name": "account",
          "type": "address"
        }
      ],
      "name": "balanceOf",
      "outputs": [
        {
          "internalType": "uint256",
          "name": "",
          "type": "uint256"
        }
      ],
      "stateMutability": "view",
      "type": "function"
    },
    {
      "inputs": [],
      "name": "decimals",
      "outputs": [
        {
          "internalType": "uint8",
          "name": "",
          "type": "uint8"
        }
      ],
      "stateMutability": "view",
      "type": "function"
    },
    {
      "inputs": [
        {
          "internalType": "address",
          "name": "spender",
          "type": "address"
        },
        {
          "internalType": "uint256",
          "name": "subtractedValue",
          "type": "uint256"
        }
      ],
      "name": "decreaseAllowance",
      "outputs": [
        {
          "internalType": "bool",
          "name": "",
          "type": "bool"
        }
      ],
      "stateMutability": "nonpayable",
      "type": "function"
    },
    {
      "inputs": [],
      "name": "future_epoch_time_write",
      "outputs": [
        {
          "internalType": "uint256",
          "name": "",
          "type": "uint256"
        }
      ],
      "stateMutability": "nonpayable",
      "type": "function"
    },
    {
      "inputs": [
        {
          "internalType": "address",
          "name": "spender",
          "type": "address"
        },
        {
          "internalType": "uint256",
          "name": "addedValue",
          "type": "uint256"
        }
      ],
      "name": "increaseAllowance",
      "outputs": [
        {
          "internalType": "bool",
          "name": "",
          "type": "bool"
        }
      ],
      "stateMutability": "nonpayable",
      "type": "function"
    },
    {
      "inputs": [],
      "name": "mining_epoch",
      "outputs": [
        {
          "internalType": "int128",
          "name": "",
          "type": "int128"
        }
      ],
      "stateMutability": "view",
      "type": "function"
    },
    {
      "inputs": [
        {
          "internalType": "address",
          "name": "_to",
          "type": "address"
        },
        {
          "internalType": "uint256",
          "name": "_value",
          "type": "uint256"
        }
      ],
      "name": "mint",
      "outputs": [
        {
          "internalType": "bool",
          "name": "",
          "type": "bool"
        }
      ],
      "stateMutability": "nonpayable",
      "type": "function"
    },
    {
      "inputs": [
        {
          "internalType": "uint256",
          "name": "start",
          "type": "uint256"
        },
        {
          "internalType": "uint256",
          "name": "end",
          "type": "uint256"
        }
      ],
      "name": "mintable_in_timeframe",
      "outputs": [
        {
          "internalType": "uint256",
          "name": "",
          "type": "uint256"
        }
      ],
      "stateMutability": "view",
      "type": "function"
    },
    {
      "inputs": [],
      "name": "minter",
      "outputs": [
        {
          "internalType": "address",
          "name": "",
          "type": "address"
        }
      ],
      "stateMutability": "view",
      "type": "function"
    },
    {
      "inputs": [],
      "name": "name",
      "outputs": [
        {
          "internalType": "string",
          "name": "",
          "type": "string"
        }
      ],
      "stateMutability": "view",
      "type": "function"
    },
    {
      "inputs": [],
      "name": "rate",
      "outputs": [
        {
          "internalType": "uint256",
          "name": "",
          "type": "uint256"
        }
      ],
      "stateMutability": "view",
      "type": "function"
    },
    {
      "inputs": [
        {
          "internalType": "address",
          "name": "_admin",
          "type": "address"
        }
      ],
      "name": "set_admin",
      "outputs": [],
      "stateMutability": "nonpayable",
      "type": "function"
    },
    {
      "inputs": [
        {
          "internalType": "address",
          "name": "_minter",
          "type": "address"
        }
      ],
      "name": "set_minter",
      "outputs": [],
      "stateMutability": "nonpayable",
      "type": "function"
    },
    {
      "inputs": [],
      "name": "start_epoch_time",
      "outputs": [
        {
          "internalType": "uint256",
          "name": "",
          "type": "uint256"
        }
      ],
      "stateMutability": "view",
      "type": "function"
    },
    {
      "inputs": [],
      "name": "start_epoch_time_write",
      "outputs": [
        {
          "internalType": "uint256",
          "name": "",
          "type": "uint256"
        }
      ],
      "stateMutability": "nonpayable",
      "type": "function"
    },
    {
      "inputs": [],
      "name": "symbol",
      "outputs": [
        {
          "internalType": "string",
          "name": "",
          "type": "string"
        }
      ],
      "stateMutability": "view",
      "type": "function"
    },
    {
      "inputs": [],
      "name": "totalSupply",
      "outputs": [
        {
          "internalType": "uint256",
          "name": "",
          "type": "uint256"
        }
      ],
      "stateMutability": "view",
      "type": "function"
    },
    {
      "inputs": [
        {
          "internalType": "address",
          "name": "to",
          "type": "address"
        },
        {
          "internalType": "uint256",
          "name": "amount",
          "type": "uint256"
        }
      ],
      "name": "transfer",
      "outputs": [
        {
          "internalType": "bool",
          "name": "",
          "type": "bool"
        }
      ],
      "stateMutability": "nonpayable",
      "type": "function"
    },
    {
      "inputs": [
        {
          "internalType": "address",
          "name": "from",
          "type": "address"
        },
        {
          "internalType": "address",
          "name": "to",
          "type": "address"
        },
        {
          "internalType": "uint256",
          "name": "amount",
          "type": "uint256"
        }
      ],
      "name": "transferFrom",
      "outputs": [
        {
          "internalType": "bool",
          "name": "",
          "type": "bool"
        }
      ],
      "stateMutability": "nonpayable",
      "type": "function"
    },
    {
      "inputs": [],
      "name": "update_mining_parameters",
      "outputs": [],
      "stateMutability": "nonpayable",
      "type": "function"
    }
  ],
  "bytecode": "0x60806040523480156200001157600080fd5b5060405180604001604052806005815260200164437572766560d81b8152506040518060400160405280600381526020016221a92b60e91b81525081600390816200005d91906200027c565b5060046200006c82826200027c565b5050506000620000816200010860201b60201c565b6200008e90600a6200045d565b6200009e90634daaaa1f62000475565b9050620000ac33826200010d565b600680546001600160a01b031916331790556301e13380620000d262015180426200048f565b620000de9190620004a5565b600855600780546001600160801b0319166001600160801b031790556000600955600a55620004bb565b601290565b6001600160a01b038216620001685760405162461bcd60e51b815260206004820152601f60248201527f45524332303a206d696e7420746f20746865207a65726f206164647265737300604482015260640160405180910390fd5b80600260008282546200017c91906200048f565b90915550506001600160a01b038216600081815260208181526040808320805486019055518481527fddf252ad1be2c89b69c2b068fc378daa952ba7f163c4a11628f55a4df523b3ef910160405180910390a35050565b505050565b634e487b7160e01b600052604160045260246000fd5b600181811c908216806200020357607f821691505b6020821081036200022457634e487b7160e01b600052602260045260246000fd5b50919050565b601f821115620001d357600081815260208120601f850160051c81016020861015620002535750805b601f850160051c820191505b8181101562000274578281556001016200025f565b505050505050565b81516001600160401b03811115620002985762000298620001d8565b620002b081620002a98454620001ee565b846200022a565b602080601f831160018114620002e85760008415620002cf5750858301515b600019600386901b1c1916600185901b17855562000274565b600085815260208120601f198616915b828110156200031957888601518255948401946001909101908401620002f8565b5085821015620003385787850151600019600388901b60f8161c191681555b5050505050600190811b01905550565b634e487b7160e01b600052601160045260246000fd5b600181815b808511156200039f57816000190482111562000383576200038362000348565b808516156200039157918102915b93841c939080029062000363565b509250929050565b600082620003b85750600162000457565b81620003c75750600062000457565b8160018114620003e05760028114620003eb576200040b565b600191505062000457565b60ff841115620003ff57620003ff62000348565b50506001821b62000457565b5060208310610133831016604e8410600b841016171562000430575081810a62000457565b6200043c83836200035e565b806000190482111562000453576200045362000348565b0290505b92915050565b60006200046e60ff841683620003a7565b9392505050565b808202811582820484141762000457576200045762000348565b8082018082111562000457576200045762000348565b8181038181111562000457576200045762000348565b61141580620004cb6000396000f3fe608060405234801561001057600080fd5b50600436106101985760003560e01c80637375be26116100e3578063d43b40fa1161008c578063e9333fab11610066578063e9333fab14610381578063f851a44014610394578063f9a40bf6146103b457600080fd5b8063d43b40fa14610320578063d725a9ca14610328578063dd62ed3e1461033b57600080fd5b8063a9059cbb116100bd578063a9059cbb146102fd578063adc4cf4314610310578063b26b238e1461031857600080fd5b80637375be26146102d957806395d89b41146102e2578063a457c2d7146102ea57600080fd5b806324f92a2511610145578063395093511161011f578063395093511461027d57806340c10f191461029057806370a08231146102a357600080fd5b806324f92a251461025d5780632c4e722e14610265578063313ce5671461026e57600080fd5b80631652e9fc116101765780631652e9fc1461022357806318160ddd1461023857806323b872dd1461024a57600080fd5b806306fdde031461019d57806307546172146101bb578063095ea7b314610200575b600080fd5b6101a56103d4565b6040516101b2919061112a565b60405180910390f35b6005546101db9073ffffffffffffffffffffffffffffffffffffffff1681565b60405173ffffffffffffffffffffffffffffffffffffffff90911681526020016101b2565b61021361020e3660046111ba565b610466565b60405190151581526020016101b2565b6102366102313660046111e4565b610480565b005b6002545b6040519081526020016101b2565b610213610258366004611206565b610541565b61023c610565565b61023c60095481565b604051601281526020016101b2565b61021361028b3660046111ba565b610574565b61021361029e3660046111ba565b6105c0565b61023c6102b13660046111e4565b73ffffffffffffffffffffffffffffffffffffffff1660009081526020819052604090205490565b61023c60085481565b6101a561063a565b6102136102f83660046111ba565b610649565b61021361030b3660046111ba565b61071f565b61023c61072d565b61023c61075c565b6102366107a4565b61023c610336366004611242565b6107cc565b61023c610349366004611264565b73ffffffffffffffffffffffffffffffffffffffff918216600090815260016020908152604080832093909416825291909152205490565b61023661038f3660046111e4565b61094e565b6006546101db9073ffffffffffffffffffffffffffffffffffffffff1681565b6007546103c190600f0b81565b604051600f9190910b81526020016101b2565b6060600380546103e390611297565b80601f016020809104026020016040519081016040528092919081815260200182805461040f90611297565b801561045c5780601f106104315761010080835404028352916020019161045c565b820191906000526020600020905b81548152906001019060200180831161043f57829003601f168201915b5050505050905090565b6000336104748185856109e5565b60019150505b92915050565b60065473ffffffffffffffffffffffffffffffffffffffff1633146104a457600080fd5b60055473ffffffffffffffffffffffffffffffffffffffff16156104c757600080fd5b600580547fffffffffffffffffffffffff00000000000000000000000000000000000000001673ffffffffffffffffffffffffffffffffffffffff83169081179091556040519081527fcec52196e972044edde8689a1b608e459c5946b7f3e5c8cd3d6d8e126d422e1c906020015b60405180910390a150565b60003361054f858285610b98565b61055a858585610c6f565b506001949350505050565b600061056f610ede565b905090565b33600081815260016020908152604080832073ffffffffffffffffffffffffffffffffffffffff8716845290915281205490919061047490829086906105bb908790611319565b6109e5565b60055460009073ffffffffffffffffffffffffffffffffffffffff1633146105e757600080fd5b73ffffffffffffffffffffffffffffffffffffffff831661060757600080fd5b6301e133806008546106199190611319565b421061062757610627610f08565b6106318383611037565b50600192915050565b6060600480546103e390611297565b33600081815260016020908152604080832073ffffffffffffffffffffffffffffffffffffffff8716845290915281205490919083811015610712576040517f08c379a000000000000000000000000000000000000000000000000000000000815260206004820152602560248201527f45524332303a2064656372656173656420616c6c6f77616e63652062656c6f7760448201527f207a65726f00000000000000000000000000000000000000000000000000000060648201526084015b60405180910390fd5b61055a82868684036109e5565b600033610474818585610c6f565b6008546000906107416301e1338082611319565b42106107575761074f610f08565b505060085490565b919050565b6008546000906107706301e1338082611319565b42106107965761077e610f08565b6301e133806008546107909190611319565b91505090565b6107906301e1338082611319565b6301e133806008546107b69190611319565b4210156107c257600080fd5b6107ca610f08565b565b6000818311156107db57600080fd5b600854600954600091906107f36301e1338083611319565b851115610832576108086301e1338083611319565b9150671080e992061ab300610825670de0b6b3a76400008361132c565b61082f9190611343565b90505b6108406301e1338083611319565b85111561084c57600080fd5b60005b6103e7811015610943578286106108df578561086f6301e1338085611319565b811115610887576108846301e1338085611319565b90505b876108966301e1338086611319565b81106108a3575050610943565b848110156108ae5750835b6108b8818361137e565b6108c2908561132c565b6108cc9087611319565b95508489106108dc575050610943565b50505b6108ed6301e133808461137e565b9250670de0b6b3a764000061090a671080e992061ab3008461132c565b6109149190611343565b915061092f6301e133806ae3526657d187e01cec0000611343565b82111561093b57600080fd5b60010161084f565b509195945050505050565b60065473ffffffffffffffffffffffffffffffffffffffff16331461097257600080fd5b600680547fffffffffffffffffffffffff00000000000000000000000000000000000000001673ffffffffffffffffffffffffffffffffffffffff83169081179091556040519081527f5a272403b402d892977df56625f4164ccaf70ca3863991c43ecfe76a6905b0a190602001610536565b73ffffffffffffffffffffffffffffffffffffffff8316610a87576040517f08c379a0000000000000000000000000000000000000000000000000000000008152602060048201526024808201527f45524332303a20617070726f76652066726f6d20746865207a65726f2061646460448201527f72657373000000000000000000000000000000000000000000000000000000006064820152608401610709565b73ffffffffffffffffffffffffffffffffffffffff8216610b2a576040517f08c379a000000000000000000000000000000000000000000000000000000000815260206004820152602260248201527f45524332303a20617070726f766520746f20746865207a65726f20616464726560448201527f73730000000000000000000000000000000000000000000000000000000000006064820152608401610709565b73ffffffffffffffffffffffffffffffffffffffff83811660008181526001602090815260408083209487168084529482529182902085905590518481527f8c5be1e5ebec7d5bd14f71427d1e84f3dd0314c0f7b2291e5b200ac8c7c3b925910160405180910390a3505050565b73ffffffffffffffffffffffffffffffffffffffff8381166000908152600160209081526040808320938616835292905220547fffffffffffffffffffffffffffffffffffffffffffffffffffffffffffffffff8114610c695781811015610c5c576040517f08c379a000000000000000000000000000000000000000000000000000000000815260206004820152601d60248201527f45524332303a20696e73756666696369656e7420616c6c6f77616e63650000006044820152606401610709565b610c6984848484036109e5565b50505050565b73ffffffffffffffffffffffffffffffffffffffff8316610d12576040517f08c379a000000000000000000000000000000000000000000000000000000000815260206004820152602560248201527f45524332303a207472616e736665722066726f6d20746865207a65726f20616460448201527f64726573730000000000000000000000000000000000000000000000000000006064820152608401610709565b73ffffffffffffffffffffffffffffffffffffffff8216610db5576040517f08c379a000000000000000000000000000000000000000000000000000000000815260206004820152602360248201527f45524332303a207472616e7366657220746f20746865207a65726f206164647260448201527f65737300000000000000000000000000000000000000000000000000000000006064820152608401610709565b73ffffffffffffffffffffffffffffffffffffffff831660009081526020819052604090205481811015610e6b576040517f08c379a000000000000000000000000000000000000000000000000000000000815260206004820152602660248201527f45524332303a207472616e7366657220616d6f756e742065786365656473206260448201527f616c616e636500000000000000000000000000000000000000000000000000006064820152608401610709565b73ffffffffffffffffffffffffffffffffffffffff848116600081815260208181526040808320878703905593871680835291849020805487019055925185815290927fddf252ad1be2c89b69c2b068fc378daa952ba7f163c4a11628f55a4df523b3ef910160405180910390a3610c69565b600060095460085442610ef1919061137e565b610efb919061132c565b600a5461056f9190611319565b600954600a54600880546301e133809190600090610f27908490611319565b90915550506007805460019190600090610f45908490600f0b611391565b92506101000a8154816fffffffffffffffffffffffffffffffff0219169083600f0b6fffffffffffffffffffffffffffffffff16021790555081600003610fa657610f9f6301e133806ae3526657d187e01cec0000611343565b9150610fed565b610fb46301e133808361132c565b610fbe9082611319565b600a8190559050671080e992061ab300610fe0670de0b6b3a76400008461132c565b610fea9190611343565b91505b600982905560408051428152602081018490529081018290527f27e46362a1e6129b6dd539c984ce739291a97128dfcaeca1255e8ac83abd94419060600160405180910390a15050565b73ffffffffffffffffffffffffffffffffffffffff82166110b4576040517f08c379a000000000000000000000000000000000000000000000000000000000815260206004820152601f60248201527f45524332303a206d696e7420746f20746865207a65726f2061646472657373006044820152606401610709565b80600260008282546110c69190611319565b909155505073ffffffffffffffffffffffffffffffffffffffff8216600081815260208181526040808320805486019055518481527fddf252ad1be2c89b69c2b068fc378daa952ba7f163c4a11628f55a4df523b3ef910160405180910390a35050565b600060208083528351808285015260005b818110156111575785810183015185820160400152820161113b565b5060006040828601015260407fffffffffffffffffffffffffffffffffffffffffffffffffffffffffffffffe0601f8301168501019250505092915050565b803573ffffffffffffffffffffffffffffffffffffffff8116811461075757600080fd5b600080604083850312156111cd57600080fd5b6111d683611196565b946020939093013593505050565b6000602082840312156111f657600080fd5b6111ff82611196565b9392505050565b60008060006060848603121561121b57600080fd5b61122484611196565b925061123260208501611196565b9150604084013590509250925092565b6000806040838503121561125557600080fd5b50508035926020909101359150565b6000806040838503121561127757600080fd5b61128083611196565b915061128e60208401611196565b90509250929050565b600181811c908216806112ab57607f821691505b6020821081036112e4577f4e487b7100000000000000000000000000000000000000000000000000000000600052602260045260246000fd5b50919050565b7f4e487b7100000000000000000000000000000000000000000000000000000000600052601160045260246000fd5b8082018082111561047a5761047a6112ea565b808202811582820484141761047a5761047a6112ea565b600082611379577f4e487b7100000000000000000000000000000000000000000000000000000000600052601260045260246000fd5b500490565b8181038181111561047a5761047a6112ea565b600f81810b9083900b016f7fffffffffffffffffffffffffffffff81137fffffffffffffffffffffffffffffffff800000000000000000000000000000008212171561047a5761047a6112ea56fea2646970667358221220dbf586e7413798380e2ad8ec755d65f73cc7fdde0916a602db66845cec63cdaa64736f6c63430008120033",
  "linkReferences": {},
  "deployedLinkReferences": {}
}