{
  "_format": "hh-sol-artifact-1",
  "contractName": "GaugeController",
  "sourceName": "contracts/GaugeController.sol",
  "abi": [
    {
      "inputs": [
        {
          "internalType": "address",
          "name": "token_",
          "type": "address"
        },
        {
          "internalType": "address",
          "name": "votingEscrow_",
          "type": "address"
        }
      ],
      "stateMutability": "nonpayable",
      "type": "constructor"
    },
    {
      "anonymous": false,
      "inputs": [
        {
          "indexed": false,
          "internalType": "string",
          "name": "name",
          "type": "string"
        },
        {
          "indexed": false,
          "internalType": "int128",
          "name": "typeId",
          "type": "int128"
        }
      ],
      "name": "AddType",
      "type": "event"
    },
    {
      "anonymous": false,
      "inputs": [
        {
          "indexed": false,
          "internalType": "address",
          "name": "admin",
          "type": "address"
        }
      ],
      "name": "ApplyOwnership",
      "type": "event"
    },
    {
      "anonymous": false,
      "inputs": [
        {
          "indexed": false,
          "internalType": "address",
          "name": "admin",
          "type": "address"
        }
      ],
      "name": "CommitOwnership",
      "type": "event"
    },
    {
      "anonymous": false,
      "inputs": [
        {
          "indexed": false,
          "internalType": "address",
          "name": "addr",
          "type": "address"
        },
        {
          "indexed": false,
          "internalType": "int128",
          "name": "gaugeType",
          "type": "int128"
        },
        {
          "indexed": false,
          "internalType": "uint256",
          "name": "weight",
          "type": "uint256"
        }
      ],
      "name": "NewGauge",
      "type": "event"
    },
    {
      "anonymous": false,
      "inputs": [
        {
          "indexed": false,
          "internalType": "address",
          "name": "gaugeAddress",
          "type": "address"
        },
        {
          "indexed": false,
          "internalType": "uint256",
          "name": "time",
          "type": "uint256"
        },
        {
          "indexed": false,
          "internalType": "uint256",
          "name": "weight",
          "type": "uint256"
        },
        {
          "indexed": false,
          "internalType": "uint256",
          "name": "totalWeight",
          "type": "uint256"
        }
      ],
      "name": "NewGaugeWeight",
      "type": "event"
    },
    {
      "anonymous": false,
      "inputs": [
        {
          "indexed": false,
          "internalType": "int128",
          "name": "typeId",
          "type": "int128"
        },
        {
          "indexed": false,
          "internalType": "uint256",
          "name": "time",
          "type": "uint256"
        },
        {
          "indexed": false,
          "internalType": "uint256",
          "name": "weight",
          "type": "uint256"
        },
        {
          "indexed": false,
          "internalType": "uint256",
          "name": "totalWeight",
          "type": "uint256"
        }
      ],
      "name": "NewTypeWeight",
      "type": "event"
    },
    {
      "anonymous": false,
      "inputs": [
        {
          "indexed": false,
          "internalType": "uint256",
          "name": "time",
          "type": "uint256"
        },
        {
          "indexed": false,
          "internalType": "address",
          "name": "user",
          "type": "address"
        },
        {
          "indexed": false,
          "internalType": "address",
          "name": "gaugeAddr",
          "type": "address"
        },
        {
          "indexed": false,
          "internalType": "uint256",
          "name": "weight",
          "type": "uint256"
        }
      ],
      "name": "VoteForGauge",
      "type": "event"
    },
    {
      "inputs": [
        {
          "internalType": "address",
          "name": "addr_",
          "type": "address"
        },
        {
          "internalType": "int128",
          "name": "gaugeType_",
          "type": "int128"
        },
        {
          "internalType": "uint256",
          "name": "weight_",
          "type": "uint256"
        }
      ],
      "name": "addGauge",
      "outputs": [],
      "stateMutability": "nonpayable",
      "type": "function"
    },
    {
      "inputs": [
        {
          "internalType": "string",
          "name": "name_",
          "type": "string"
        },
        {
          "internalType": "uint256",
          "name": "weight_",
          "type": "uint256"
        }
      ],
      "name": "addType",
      "outputs": [],
      "stateMutability": "nonpayable",
      "type": "function"
    },
    {
      "inputs": [],
      "name": "admin",
      "outputs": [
        {
          "internalType": "address",
          "name": "",
          "type": "address"
        }
      ],
      "stateMutability": "view",
      "type": "function"
    },
    {
      "inputs": [],
      "name": "applyTransferOwnership",
      "outputs": [],
      "stateMutability": "nonpayable",
      "type": "function"
    },
    {
      "inputs": [
        {
          "internalType": "address",
          "name": "addr_",
          "type": "address"
        },
        {
          "internalType": "uint256",
          "name": "weight_",
          "type": "uint256"
        }
      ],
      "name": "changeGaugeWeight",
      "outputs": [],
      "stateMutability": "nonpayable",
      "type": "function"
    },
    {
      "inputs": [
        {
          "internalType": "int128",
          "name": "typeId_",
          "type": "int128"
        },
        {
          "internalType": "uint256",
          "name": "weight_",
          "type": "uint256"
        }
      ],
      "name": "changeTypeWeight",
      "outputs": [],
      "stateMutability": "nonpayable",
      "type": "function"
    },
    {
      "inputs": [
        {
          "internalType": "int128",
          "name": "",
          "type": "int128"
        },
        {
          "internalType": "uint256",
          "name": "",
          "type": "uint256"
        }
      ],
      "name": "changesSum",
      "outputs": [
        {
          "internalType": "uint256",
          "name": "",
          "type": "uint256"
        }
      ],
      "stateMutability": "view",
      "type": "function"
    },
    {
      "inputs": [
        {
          "internalType": "address",
          "name": "",
          "type": "address"
        },
        {
          "internalType": "uint256",
          "name": "",
          "type": "uint256"
        }
      ],
      "name": "changesWeight",
      "outputs": [
        {
          "internalType": "uint256",
          "name": "",
          "type": "uint256"
        }
      ],
      "stateMutability": "view",
      "type": "function"
    },
    {
      "inputs": [],
      "name": "checkpoint",
      "outputs": [],
      "stateMutability": "nonpayable",
      "type": "function"
    },
    {
      "inputs": [
        {
          "internalType": "address",
          "name": "addr_",
          "type": "address"
        }
      ],
      "name": "checkpointGauge",
      "outputs": [],
      "stateMutability": "nonpayable",
      "type": "function"
    },
    {
      "inputs": [
        {
          "internalType": "address",
          "name": "addr_",
          "type": "address"
        }
      ],
      "name": "commitTransferOwnership",
      "outputs": [],
      "stateMutability": "nonpayable",
      "type": "function"
    },
    {
      "inputs": [],
      "name": "futureAdmin",
      "outputs": [
        {
          "internalType": "address",
          "name": "",
          "type": "address"
        }
      ],
      "stateMutability": "view",
      "type": "function"
    },
    {
      "inputs": [
        {
          "internalType": "address",
          "name": "addr_",
          "type": "address"
        },
        {
          "internalType": "uint256",
          "name": "time_",
          "type": "uint256"
        }
      ],
      "name": "gaugeRelativeWeight",
      "outputs": [
        {
          "internalType": "uint256",
          "name": "",
          "type": "uint256"
        }
      ],
      "stateMutability": "view",
      "type": "function"
    },
    {
      "inputs": [
        {
          "internalType": "address",
          "name": "addr_",
          "type": "address"
        },
        {
          "internalType": "uint256",
          "name": "time_",
          "type": "uint256"
        }
      ],
      "name": "gaugeRelativeWeightWrite",
      "outputs": [
        {
          "internalType": "uint256",
          "name": "",
          "type": "uint256"
        }
      ],
      "stateMutability": "nonpayable",
      "type": "function"
    },
    {
      "inputs": [
        {
          "internalType": "int128",
          "name": "",
          "type": "int128"
        }
      ],
      "name": "gaugeTypeNames",
      "outputs": [
        {
          "internalType": "string",
          "name": "",
          "type": "string"
        }
      ],
      "stateMutability": "view",
      "type": "function"
    },
    {
      "inputs": [
        {
          "internalType": "address",
          "name": "addr_",
          "type": "address"
        }
      ],
      "name": "gaugeTypes",
      "outputs": [
        {
          "internalType": "int128",
          "name": "",
          "type": "int128"
        }
      ],
      "stateMutability": "view",
      "type": "function"
    },
    {
      "inputs": [
        {
          "internalType": "address",
          "name": "",
          "type": "address"
        }
      ],
      "name": "gaugeTypes_",
      "outputs": [
        {
          "internalType": "int128",
          "name": "",
          "type": "int128"
        }
      ],
      "stateMutability": "view",
      "type": "function"
    },
    {
      "inputs": [
        {
          "internalType": "uint256",
          "name": "",
          "type": "uint256"
        }
      ],
      "name": "gauges",
      "outputs": [
        {
          "internalType": "address",
          "name": "",
          "type": "address"
        }
      ],
      "stateMutability": "view",
      "type": "function"
    },
    {
      "inputs": [
        {
          "internalType": "address",
          "name": "addr_",
          "type": "address"
        }
      ],
      "name": "getGaugeWeight",
      "outputs": [
        {
          "internalType": "uint256",
          "name": "",
          "type": "uint256"
        }
      ],
      "stateMutability": "view",
      "type": "function"
    },
    {
      "inputs": [],
      "name": "getTotalWeight",
      "outputs": [
        {
          "internalType": "uint256",
          "name": "",
          "type": "uint256"
        }
      ],
      "stateMutability": "view",
      "type": "function"
    },
    {
      "inputs": [
        {
          "internalType": "int128",
          "name": "typeId_",
          "type": "int128"
        }
      ],
      "name": "getTypeWeight",
      "outputs": [
        {
          "internalType": "uint256",
          "name": "",
          "type": "uint256"
        }
      ],
      "stateMutability": "view",
      "type": "function"
    },
    {
      "inputs": [
        {
          "internalType": "int128",
          "name": "typeId_",
          "type": "int128"
        }
      ],
      "name": "getWeightsSumPerType",
      "outputs": [
        {
          "internalType": "uint256",
          "name": "",
          "type": "uint256"
        }
      ],
      "stateMutability": "view",
      "type": "function"
    },
    {
      "inputs": [
        {
          "internalType": "address",
          "name": "",
          "type": "address"
        },
        {
          "internalType": "address",
          "name": "",
          "type": "address"
        }
      ],
      "name": "lastUserVote",
      "outputs": [
        {
          "internalType": "uint256",
          "name": "",
          "type": "uint256"
        }
      ],
      "stateMutability": "view",
      "type": "function"
    },
    {
      "inputs": [],
      "name": "nGaugeTypes",
      "outputs": [
        {
          "internalType": "int128",
          "name": "",
          "type": "int128"
        }
      ],
      "stateMutability": "view",
      "type": "function"
    },
    {
      "inputs": [],
      "name": "nGauges",
      "outputs": [
        {
          "internalType": "int128",
          "name": "",
          "type": "int128"
        }
      ],
      "stateMutability": "view",
      "type": "function"
    },
    {
      "inputs": [
        {
          "internalType": "int128",
          "name": "",
          "type": "int128"
        },
        {
          "internalType": "uint256",
          "name": "",
          "type": "uint256"
        }
      ],
      "name": "pointsSum",
      "outputs": [
        {
          "internalType": "uint256",
          "name": "bias",
          "type": "uint256"
        },
        {
          "internalType": "uint256",
          "name": "slope",
          "type": "uint256"
        }
      ],
      "stateMutability": "view",
      "type": "function"
    },
    {
      "inputs": [
        {
          "internalType": "uint256",
          "name": "",
          "type": "uint256"
        }
      ],
      "name": "pointsTotal",
      "outputs": [
        {
          "internalType": "uint256",
          "name": "",
          "type": "uint256"
        }
      ],
      "stateMutability": "view",
      "type": "function"
    },
    {
      "inputs": [
        {
          "internalType": "int128",
          "name": "",
          "type": "int128"
        },
        {
          "internalType": "uint256",
          "name": "",
          "type": "uint256"
        }
      ],
      "name": "pointsTypeWeight",
      "outputs": [
        {
          "internalType": "uint256",
          "name": "",
          "type": "uint256"
        }
      ],
      "stateMutability": "view",
      "type": "function"
    },
    {
      "inputs": [
        {
          "internalType": "address",
          "name": "",
          "type": "address"
        },
        {
          "internalType": "uint256",
          "name": "",
          "type": "uint256"
        }
      ],
      "name": "pointsWeight",
      "outputs": [
        {
          "internalType": "uint256",
          "name": "bias",
          "type": "uint256"
        },
        {
          "internalType": "uint256",
          "name": "slope",
          "type": "uint256"
        }
      ],
      "stateMutability": "view",
      "type": "function"
    },
    {
      "inputs": [
        {
          "internalType": "int128",
          "name": "",
          "type": "int128"
        }
      ],
      "name": "timeSum",
      "outputs": [
        {
          "internalType": "uint256",
          "name": "",
          "type": "uint256"
        }
      ],
      "stateMutability": "view",
      "type": "function"
    },
    {
      "inputs": [],
      "name": "timeTotal",
      "outputs": [
        {
          "internalType": "uint256",
          "name": "",
          "type": "uint256"
        }
      ],
      "stateMutability": "view",
      "type": "function"
    },
    {
      "inputs": [
        {
          "internalType": "int128",
          "name": "",
          "type": "int128"
        }
      ],
      "name": "timeTypeWeight",
      "outputs": [
        {
          "internalType": "uint256",
          "name": "",
          "type": "uint256"
        }
      ],
      "stateMutability": "view",
      "type": "function"
    },
    {
      "inputs": [
        {
          "internalType": "address",
          "name": "",
          "type": "address"
        }
      ],
      "name": "timeWeight",
      "outputs": [
        {
          "internalType": "uint256",
          "name": "",
          "type": "uint256"
        }
      ],
      "stateMutability": "view",
      "type": "function"
    },
    {
      "inputs": [],
      "name": "token",
      "outputs": [
        {
          "internalType": "address",
          "name": "",
          "type": "address"
        }
      ],
      "stateMutability": "view",
      "type": "function"
    },
    {
      "inputs": [
        {
          "internalType": "address",
          "name": "gaugeAddr_",
          "type": "address"
        },
        {
          "internalType": "uint256",
          "name": "userWeight_",
          "type": "uint256"
        }
      ],
      "name": "voteForGaugeWeights",
      "outputs": [],
      "stateMutability": "nonpayable",
      "type": "function"
    },
    {
      "inputs": [
        {
          "internalType": "address",
          "name": "",
          "type": "address"
        }
      ],
      "name": "voteUserPower",
      "outputs": [
        {
          "internalType": "uint256",
          "name": "",
          "type": "uint256"
        }
      ],
      "stateMutability": "view",
      "type": "function"
    },
    {
      "inputs": [
        {
          "internalType": "address",
          "name": "",
          "type": "address"
        },
        {
          "internalType": "address",
          "name": "",
          "type": "address"
        }
      ],
      "name": "voteUserSlopes",
      "outputs": [
        {
          "internalType": "uint256",
          "name": "slope",
          "type": "uint256"
        },
        {
          "internalType": "uint256",
          "name": "power",
          "type": "uint256"
        },
        {
          "internalType": "uint256",
          "name": "end",
          "type": "uint256"
        }
      ],
      "stateMutability": "view",
      "type": "function"
    },
    {
      "inputs": [],
      "name": "votingEscrow",
      "outputs": [
        {
          "internalType": "address",
          "name": "",
          "type": "address"
        }
      ],
      "stateMutability": "view",
      "type": "function"
    }
  ],
  "bytecode": "0x60806040523480156200001157600080fd5b5060405162002a2038038062002a208339810160408190526200003491620000de565b6001600160a01b0382166200004857600080fd5b6001600160a01b0381166200005c57600080fd5b60008054336001600160a01b0319918216179091556002805482166001600160a01b03858116919091179091556003805490921690831617905562093a80620000a6814262000116565b620000b2919062000139565b633b9aca115550620001659050565b80516001600160a01b0381168114620000d957600080fd5b919050565b60008060408385031215620000f257600080fd5b620000fd83620000c1565b91506200010d60208401620000c1565b90509250929050565b6000826200013457634e487b7160e01b600052601260045260246000fd5b500490565b80820281158282048414176200015f57634e487b7160e01b600052601160045260246000fd5b92915050565b6128ab80620001756000396000f3fe608060405234801561001057600080fd5b50600436106102925760003560e01c80639fbd4f6611610160578063e1cebf0b116100d8578063ec73d9061161008c578063f851a44011610071578063f851a4401461074d578063f89993f014610760578063fc0c546a1461078357600080fd5b8063ec73d906146106f5578063f763d1ff1461071857600080fd5b8063e4036c6d116100bd578063e4036c6d1461064f578063e75ec6991461066f578063eab9041e146106c757600080fd5b8063e1cebf0b14610629578063e24862e81461063c57600080fd5b8063c3a6ca131161012f578063dd2b117f11610114578063dd2b117f146105ed578063df0ab9d31461060e578063e0ab067e1461061657600080fd5b8063c3a6ca1314610575578063d93c6ede146105bf57600080fd5b80639fbd4f6614610534578063b053918714610547578063bb18d47a1461055a578063c2c4c5c11461056d57600080fd5b80634f2bfe5b1161020e57806372be5276116101c2578063870e3733116101a7578063870e3733146105015780638aca6a23146105145780639e08e3ef1461052757600080fd5b806372be5276146104875780637bb9e298146104c857600080fd5b806365c60468116101f357806365c6046814610455578063688f3f1f146104685780637244d9601461047457600080fd5b80634f2bfe5b1461040757806357f4cf271461041a57600080fd5b806326f4ed51116102655780632d1746911161024a5780632d174691146103a457806330928dc5146103b95780634cb654af146103dc57600080fd5b806326f4ed5114610353578063289f338f1461038157600080fd5b8063057c9cb41461029757806306aba0e1146102cd57806310d1ba58146102ea578063117610fc14610325575b600080fd5b6102ba6102a5366004612244565b633b9aca106020526000908152604090205481565b6040519081526020015b60405180910390f35b633b9aca11546000908152633b9aca1060205260409020546102ba565b6102ba6102f836600461226c565b600f0b6000908152633b9aca1260209081526040808320633b9aca13835281842054845290915290205490565b6102ba610333366004612289565b633b9aca0e60209081526000928352604080842090915290825290205481565b6102ba6103613660046122d1565b633b9aca0960209081526000928352604080842090915290825290205481565b6102ba61038f366004612304565b633b9aca0c6020526000908152604090205481565b6103b76103b236600461231f565b610796565b005b6102ba6103c736600461226c565b633b9aca136020526000908152604090205481565b6001546103ef906001600160a01b031681565b6040516001600160a01b0390911681526020016102c4565b6003546103ef906001600160a01b031681565b6102ba61042836600461226c565b600f0b6000908152633b9aca0d60209081526040808320633b9aca0f835281842054845290915290205490565b6102ba61046336600461231f565b610803565b6102ba633b9aca115481565b6103b761048236600461231f565b610824565b6102ba610495366004612304565b6001600160a01b03166000908152633b9aca0a60209081526040808320633b9aca0c835281842054845290915290205490565b6104ee6104d6366004612304565b633b9aca0660205260009081526040902054600f0b81565b604051600f9190910b81526020016102c4565b6103b761050f36600461236a565b61118a565b6103b7610522366004612304565b611291565b6004546104ee90600f0b81565b6103b761054236600461243d565b6112a3565b6103ef610555366004612244565b611638565b6102ba61056836600461231f565b61165b565b6103b7611686565b6105aa61058336600461231f565b633b9aca0a6020908152600092835260408084209091529082529020805460019091015482565b604080519283526020830191909152016102c4565b6102ba6105cd36600461231f565b633b9aca0b60209081526000928352604080842090915290825290205481565b6004546104ee907001000000000000000000000000000000009004600f0b81565b6103b7611691565b6103b7610624366004612289565b6117b1565b6103b7610637366004612304565b611815565b6104ee61064a366004612304565b6118d5565b61066261065d36600461226c565b611955565b6040516102c491906124e0565b6106ac61067d3660046122d1565b633b9aca0760209081526000928352604080842090915290825290208054600182015460029092015490919083565b604080519384526020840192909252908201526060016102c4565b6102ba6106d5366004612289565b633b9aca1260209081526000928352604080842090915290825290205481565b6102ba610703366004612304565b633b9aca086020526000908152604090205481565b6105aa610726366004612289565b633b9aca0d6020908152600092835260408084209091529082529020805460019091015482565b6000546103ef906001600160a01b031681565b6102ba61076e36600461226c565b633b9aca0f6020526000908152604090205481565b6002546103ef906001600160a01b031681565b6000546001600160a01b031633146107f55760405162461bcd60e51b815260206004820152600a60248201527f61646d696e206f6e6c790000000000000000000000000000000000000000000060448201526064015b60405180910390fd5b6107ff82826119ef565b5050565b600081600003610811574291505b61081b8383611b85565b90505b92915050565b6108676040518060e00160405280600081526020016000815260200160008152602001600081526020016000600f0b815260200160008152602001600081525090565b6003546040517ff3a6d6080000000000000000000000000000000000000000000000000000000081523360048201526001600160a01b039091169063f3a6d60890602401602060405180830381865afa1580156108c8573d6000803e3d6000fd5b505050506040513d601f19601f820116820180604052508101906108ec91906124f3565b6fffffffffffffffffffffffffffffffff1681526003546040517f4deafcae0000000000000000000000000000000000000000000000000000000081523360048201526001600160a01b0390911690634deafcae90602401602060405180830381865afa158015610961573d6000803e3d6000fd5b505050506040513d601f19601f820116820180604052508101906109859190612510565b602082015260045470010000000000000000000000000000000090046fffffffffffffffffffffffffffffffff16604082015262093a8080428101040260608201819052602082015111610a1b5760405162461bcd60e51b815260206004820181905260248201527f596f757220746f6b656e206c6f636b206578706972657320746f6f20736f6f6e60448201526064016107ec565b612710821115610a6d5760405162461bcd60e51b815260206004820152601e60248201527f596f75207573656420616c6c20796f757220766f74696e6720706f776572000060448201526064016107ec565b336000908152633b9aca09602090815260408083206001600160a01b0387168452909152902054620d2f0001421015610ae85760405162461bcd60e51b815260206004820152601460248201527f43616e6e6f7420766f746520736f206f6674656e00000000000000000000000060448201526064016107ec565b6001600160a01b0383166000908152633b9aca066020526040902054610b1390600190600f0b612558565b600f0b6080820181905260001315610b6d5760405162461bcd60e51b815260206004820152600f60248201527f4761756765206e6f74206164646564000000000000000000000000000000000060448201526064016107ec565b336000908152633b9aca07602090815260408083206001600160a01b038716845282528083208151606080820184528254825260018301549482019490945260029091015491810191825260a08501939093529083015190511115610be65781606001518160400151610be091906125a6565b60a08301525b60a08201518151610bf791906125b9565b8260c001818152505060006040518060600160405280612710868660000151610c2091906125b9565b610c2a91906125d0565b815260200185815260200184602001518152509050600083606001518460200151610c5591906125a6565b90506000818360000151610c6991906125b9565b336000908152633b9aca086020908152604090912054868201519186015192935091610c95908361260b565b610c9f91906125a6565b336000908152633b9aca08602052604090208190559050612710811115610d085760405162461bcd60e51b815260206004820152601360248201527f5573656420746f6f206d75636820706f7765720000000000000000000000000060448201526064016107ec565b6000610d1389611c6b565b6001600160a01b038a166000908152633b9aca0a6020908152604080832060608c0151845290915281206001015460808a015192935091610d5390611def565b60808a0151600f0b6000908152633b9aca0d6020908152604080832060608e0151845290915290206001015460c08b015191925090610d9f610d95888761260b565b8c60c00151611f42565b610da991906125a6565b6001600160a01b038d166000908152633b9aca0a6020908152604080832060608f0151845290915290205560c08a0151610de6610d95888561260b565b610df091906125a6565b60808b0151600f0b6000908152633b9aca0d6020908152604080832060608f0180518552925291829020929092559051908a01511115610ec85788518851610e4390610e3c908661260b565b8b51611f42565b610e4d91906125a6565b6001600160a01b038d166000908152633b9aca0a6020908152604080832060608f0151845290915290206001015588518851610e8d90610e3c908461260b565b610e9791906125a6565b60808b0151600f0b6000908152633b9aca0d6020908152604080832060608f01518452909152902060010155610f4f565b87516001600160a01b038d166000908152633b9aca0a6020908152604080832060608f0151845290915281206001018054909190610f0790849061260b565b9091555050875160808b0151600f0b6000908152633b9aca0d6020908152604080832060608f0151845290915281206001018054909190610f4990849061260b565b90915550505b4289604001511115610fda5788516001600160a01b038d166000908152633b9aca0b60209081526040808320818e0151845290915281208054909190610f969084906125a6565b9091555050885160808b0151600f0b6000908152633b9aca0e60209081526040808320818e0151845290915281208054909190610fd49084906125a6565b90915550505b87516001600160a01b038d166000908152633b9aca0b60209081526040808320818d015184529091528120805490919061101590849061260b565b9091555050875160808b0151600f0b6000908152633b9aca0e60209081526040808320818d015184529091528120805490919061105390849061260b565b909155506110619050611f59565b5087633b9aca076000336001600160a01b03166001600160a01b0316815260200190815260200160002060008e6001600160a01b03166001600160a01b0316815260200190815260200160002060008201518160000155602082015181600101556040820151816002015590505042633b9aca096000336001600160a01b03166001600160a01b0316815260200190815260200160002060008e6001600160a01b03166001600160a01b03168152602001908152602001600020819055507f45ca9a4c8d0119eb329e580d28fe689e484e1be230da8037ade9547d2d25cc9142338e8e60405161117494939291909384526001600160a01b03928316602085015291166040830152606082015260800190565b60405180910390a1505050505050505050505050565b6000546001600160a01b031633146111e45760405162461bcd60e51b815260206004820152600a60248201527f61646d696e206f6e6c790000000000000000000000000000000000000000000060448201526064016107ec565b600454600f0b600081815260056020526040902061120284826126b9565b50600480547fffffffffffffffffffffffffffffffff0000000000000000000000000000000016600183016fffffffffffffffffffffffffffffffff16179055811561128c5761125281836120a1565b7f6fbe76157c712f16b5a3c44ed48baa04e3450bc3fab0c020e848aca72bbccc8483826040516112839291906127d3565b60405180910390a15b505050565b61129a81611c6b565b506107ff611f59565b6000546001600160a01b031633146112fd5760405162461bcd60e51b815260206004820152600a60248201527f61646d696e206f6e6c790000000000000000000000000000000000000000000060448201526064016107ec565b600082600f0b1215801561131a5750600454600f90810b9083900b125b6113665760405162461bcd60e51b815260206004820152601860248201527f67617567655f747970652030206d65616e7320756e736574000000000000000060448201526064016107ec565b6001600160a01b0383166000908152633b9aca066020526040902054600f0b156113d25760405162461bcd60e51b815260206004820152601f60248201527f63616e6e6f7420616464207468652073616d652067617567652074776963650060448201526064016107ec565b600480546fffffffffffffffffffffffffffffffff6001700100000000000000000000000000000000808404600f81900b928301841690910293831693909317909355859160069116633b9aca00811061142e5761142e6127f8565b0180547fffffffffffffffffffffffff0000000000000000000000000000000000000000166001600160a01b0392909216919091179055611470836001612827565b6001600160a01b0385166000908152633b9aca066020526040812080547fffffffffffffffffffffffffffffffff00000000000000000000000000000000166fffffffffffffffffffffffffffffffff939093169290921790915562093a80804281010402905082156115985760006114e885612195565b905060006114f586611def565b90506000611501611f59565b905061150d828761260b565b600f88900b6000818152633b9aca0d60209081526040808320898452825280832094909455918152633b9aca0f9091522084905561154b86846125b9565b611555908261260b565b6000858152633b9aca106020908152604080832093909355633b9aca118790556001600160a01b038b168252633b9aca0a81528282208783529052208690555050505b600f84900b6000908152633b9aca0f602052604081205490036115cf57600f84900b6000908152633b9aca0f602052604090208190555b6001600160a01b0385166000818152633b9aca0c60209081526040918290208490558151928352600f87900b9083015281018490527ffd55b3191f9c9dd92f4f134dd700e7d76f6a0c836a08687023d6d38f03ebd8779060600160405180910390a15050505050565b600681633b9aca00811061164b57600080fd5b01546001600160a01b0316905081565b600081600003611669574291505b61167283611c6b565b5061167b611f59565b5061081b8383611b85565b61168e611f59565b50565b6000546001600160a01b031633146116eb5760405162461bcd60e51b815260206004820152600a60248201527f61646d696e206f6e6c790000000000000000000000000000000000000000000060448201526064016107ec565b6001546001600160a01b0316806117445760405162461bcd60e51b815260206004820152600d60248201527f61646d696e206e6f74207365740000000000000000000000000000000000000060448201526064016107ec565b600080547fffffffffffffffffffffffff0000000000000000000000000000000000000000166001600160a01b0383169081179091556040519081527febee2d5739011062cb4f14113f3b36bf0ffe3da5c0568f64189d1012a1189105906020015b60405180910390a150565b6000546001600160a01b0316331461180b5760405162461bcd60e51b815260206004820152600a60248201527f61646d696e206f6e6c790000000000000000000000000000000000000000000060448201526064016107ec565b6107ff82826120a1565b6000546001600160a01b0316331461186f5760405162461bcd60e51b815260206004820152600a60248201527f61646d696e206f6e6c790000000000000000000000000000000000000000000060448201526064016107ec565b600180547fffffffffffffffffffffffff0000000000000000000000000000000000000000166001600160a01b0383169081179091556040519081527f2f56810a6bf40af059b96d3aea4db54081f378029a518390491093a7b67032e9906020016117a6565b6001600160a01b0381166000908152633b9aca066020526040812054600f0b8082036119435760405162461bcd60e51b815260206004820152601760248201527f6465763a206761756765206973206e6f7420616464656400000000000000000060448201526064016107ec565b61194e600182612558565b9392505050565b6005602052600090815260409020805461196e9061261e565b80601f016020809104026020016040519081016040528092919081815260200182805461199a9061261e565b80156119e75780601f106119bc576101008083540402835291602001916119e7565b820191906000526020600020905b8154815290600101906020018083116119ca57829003601f168201915b505050505081565b6001600160a01b0382166000908152633b9aca066020526040812054611a1a90600190600f0b612558565b90506000611a2784611c6b565b90506000611a3483612195565b90506000611a4184611def565b90506000611a4d611f59565b6001600160a01b0388166000818152633b9aca0a6020908152604080832062093a80428101819004028085529083528184208c9055938352633b9aca0c90915281208290559192509085611aa1898661260b565b611aab91906125a6565b600f88900b6000818152633b9aca0d602090815260408083208784528252808320859055928252633b9aca0f9052208390559050611ae985856125b9565b611af386836125b9565b611afd908561260b565b611b0791906125a6565b6000838152633b9aca106020908152604091829020839055633b9aca1185905581516001600160a01b038d16815242918101919091529081018a9052606081018290529093507f54c0cf3647e6cdb2fc0a7876e60ba77563fceedf2e06c01c597f8dccb9e6bd729060800160405180910390a1505050505050505050565b60008062093a80611b9681856125d0565b611ba091906125b9565b6000818152633b9aca1060205260409020549091508015611c60576001600160a01b0385166000908152633b9aca066020526040812054611be690600190600f0b612558565b600f81900b6000908152633b9aca12602090815260408083208784528252808320546001600160a01b038b168452633b9aca0a835281842088855290925290912054919250908381611c4084670de0b6b3a76400006125b9565b611c4a91906125b9565b611c5491906125d0565b9550505050505061081e565b60009250505061081e565b6001600160a01b0381166000908152633b9aca0c60205260408120548015611de0576001600160a01b0383166000908152633b9aca0a6020908152604080832084845282528083208151808301909252805482526001015491810191909152905b6101f4811015611dd757428311611dd757611cea62093a808461260b565b9250600062093a808360200151611d0191906125b9565b90508083600001511115611d68578083600001818151611d2191906125a6565b9052506001600160a01b0386166000908152633b9aca0b602090815260408083208784528252909120549084018051829190611d5e9083906125a6565b905250611d739050565b600080845260208401525b6001600160a01b0386166000908152633b9aca0a602090815260408083208784528252909120845181559084015160019091015542841115611dce576001600160a01b0386166000908152633b9aca0c602052604090208490555b50600101611ccc565b50519392505050565b50600092915050565b50919050565b600f81900b6000908152633b9aca0f60205260408120548015611de057600f83900b6000908152633b9aca0d6020908152604080832084845282528083208151808301909252805482526001015491810191909152905b6101f4811015611dd757428311611dd757611e6462093a808461260b565b9250600062093a808360200151611e7b91906125b9565b90508083600001511115611edd578083600001818151611e9b91906125a6565b905250600f86900b6000908152633b9aca0e602090815260408083208784528252909120549084018051829190611ed39083906125a6565b905250611ee89050565b600080845260208401525b600f86900b6000908152633b9aca0d602090815260408083208784528252909120845181559084015160019091015542841115611f3957600f86900b6000908152633b9aca0f602052604090208490555b50600101611e46565b600081831015611f52578161081b565b5090919050565b633b9aca115460045460009190600f0b42821115611f8157611f7e62093a80836125a6565b91505b6000828152633b9aca106020526040812054905b606481600f0b1215611fcb5782600f0b81600f0b0315611fcb57611fb881611def565b50611fc281612195565b50600101611f95565b5060005b6101f48110156120995742841161209957611fed62093a808561260b565b93506000915060005b606481600f0b121561206b5783600f0b81600f0b031561206b57600f81900b6000818152633b9aca0d60209081526040808320898452825280832054938352633b9aca12825280832089845290915290205461205281836125b9565b61205c908661260b565b94508260010192505050611ff6565b506000848152633b9aca10602052604090208290554284111561209157633b9aca118490555b600101611fcf565b509392505050565b60006120ac83612195565b905060006120b984611def565b905060006120c5611f59565b905062093a80428101819004026120dc84846125b9565b6120e686856125b9565b6120f0908461260b565b6120fa91906125a6565b6000828152633b9aca1060209081526040808320849055600f8a900b808452633b9aca12835281842086855283528184208a9055633b9aca11869055808452633b9aca1383529281902085905580519283529082018490528101879052606081018290529092507e170bcdc909b6ac6e12d020fe8942256312cdcd555fb6d712899eba56d2f9019060800160405180910390a1505050505050565b600f81900b6000908152633b9aca1360205260408120548015611de057600f83900b6000908152633b9aca1260209081526040808320848452909152812054905b6101f481101561209957428311612099576121f462093a808461260b565b600f86900b6000908152633b9aca1260209081526040808320848452909152902083905592504283111561223c57600f85900b6000908152633b9aca13602052604090208390555b6001016121d6565b60006020828403121561225657600080fd5b5035919050565b80600f0b811461168e57600080fd5b60006020828403121561227e57600080fd5b813561194e8161225d565b6000806040838503121561229c57600080fd5b82356122a78161225d565b946020939093013593505050565b80356001600160a01b03811681146122cc57600080fd5b919050565b600080604083850312156122e457600080fd5b6122ed836122b5565b91506122fb602084016122b5565b90509250929050565b60006020828403121561231657600080fd5b61081b826122b5565b6000806040838503121561233257600080fd5b6122a7836122b5565b7f4e487b7100000000000000000000000000000000000000000000000000000000600052604160045260246000fd5b6000806040838503121561237d57600080fd5b823567ffffffffffffffff8082111561239557600080fd5b818501915085601f8301126123a957600080fd5b8135818111156123bb576123bb61233b565b604051601f82017fffffffffffffffffffffffffffffffffffffffffffffffffffffffffffffffe0908116603f011681019083821181831017156124015761240161233b565b8160405282815288602084870101111561241a57600080fd5b826020860160208301376000602093820184015298969091013596505050505050565b60008060006060848603121561245257600080fd5b61245b846122b5565b9250602084013561246b8161225d565b929592945050506040919091013590565b6000815180845260005b818110156124a257602081850181015186830182015201612486565b5060006020828601015260207fffffffffffffffffffffffffffffffffffffffffffffffffffffffffffffffe0601f83011685010191505092915050565b60208152600061081b602083018461247c565b60006020828403121561250557600080fd5b815161194e8161225d565b60006020828403121561252257600080fd5b5051919050565b7f4e487b7100000000000000000000000000000000000000000000000000000000600052601160045260246000fd5b600f82810b9082900b037fffffffffffffffffffffffffffffffff8000000000000000000000000000000081126f7fffffffffffffffffffffffffffffff8213171561081e5761081e612529565b8181038181111561081e5761081e612529565b808202811582820484141761081e5761081e612529565b600082612606577f4e487b7100000000000000000000000000000000000000000000000000000000600052601260045260246000fd5b500490565b8082018082111561081e5761081e612529565b600181811c9082168061263257607f821691505b602082108103611de9577f4e487b7100000000000000000000000000000000000000000000000000000000600052602260045260246000fd5b601f82111561128c57600081815260208120601f850160051c810160208610156126925750805b601f850160051c820191505b818110156126b15782815560010161269e565b505050505050565b815167ffffffffffffffff8111156126d3576126d361233b565b6126e7816126e1845461261e565b8461266b565b602080601f83116001811461273a57600084156127045750858301515b7fffffffffffffffffffffffffffffffffffffffffffffffffffffffffffffffff600386901b1c1916600185901b1785556126b1565b6000858152602081207fffffffffffffffffffffffffffffffffffffffffffffffffffffffffffffffe08616915b8281101561278757888601518255948401946001909101908401612768565b50858210156127c357878501517fffffffffffffffffffffffffffffffffffffffffffffffffffffffffffffffff600388901b60f8161c191681555b5050505050600190811b01905550565b6040815260006127e6604083018561247c565b905082600f0b60208301529392505050565b7f4e487b7100000000000000000000000000000000000000000000000000000000600052603260045260246000fd5b600f81810b9083900b016f7fffffffffffffffffffffffffffffff81137fffffffffffffffffffffffffffffffff800000000000000000000000000000008212171561081e5761081e61252956fea264697066735822122085fa4e10dbbf71e5a1205f773ade60bf1bf8ec6f46ff3bd7dae51994c209049364736f6c63430008120033",
  "linkReferences": {},
  "deployedLinkReferences": {}
}