{
  "_format": "hh-sol-artifact-1",
  "contractName": "GaugeController",
  "sourceName": "contracts/GaugeController.sol",
  "abi": [
    {
      "inputs": [
        {
          "internalType": "address",
          "name": "token_",
          "type": "address"
        },
        {
          "internalType": "address",
          "name": "votingEscrow_",
          "type": "address"
        }
      ],
      "stateMutability": "nonpayable",
      "type": "constructor"
    },
    {
      "anonymous": false,
      "inputs": [
        {
          "indexed": false,
          "internalType": "string",
          "name": "name",
          "type": "string"
        },
        {
          "indexed": false,
          "internalType": "int128",
          "name": "typeId",
          "type": "int128"
        }
      ],
      "name": "AddType",
      "type": "event"
    },
    {
      "anonymous": false,
      "inputs": [
        {
          "indexed": false,
          "internalType": "address",
          "name": "admin",
          "type": "address"
        }
      ],
      "name": "ApplyOwnership",
      "type": "event"
    },
    {
      "anonymous": false,
      "inputs": [
        {
          "indexed": false,
          "internalType": "address",
          "name": "admin",
          "type": "address"
        }
      ],
      "name": "CommitOwnership",
      "type": "event"
    },
    {
      "anonymous": false,
      "inputs": [
        {
          "indexed": false,
          "internalType": "address",
          "name": "addr",
          "type": "address"
        },
        {
          "indexed": false,
          "internalType": "int128",
          "name": "gaugeType",
          "type": "int128"
        },
        {
          "indexed": false,
          "internalType": "uint256",
          "name": "weight",
          "type": "uint256"
        }
      ],
      "name": "NewGauge",
      "type": "event"
    },
    {
      "anonymous": false,
      "inputs": [
        {
          "indexed": false,
          "internalType": "address",
          "name": "gaugeAddress",
          "type": "address"
        },
        {
          "indexed": false,
          "internalType": "uint256",
          "name": "time",
          "type": "uint256"
        },
        {
          "indexed": false,
          "internalType": "uint256",
          "name": "weight",
          "type": "uint256"
        },
        {
          "indexed": false,
          "internalType": "uint256",
          "name": "totalWeight",
          "type": "uint256"
        }
      ],
      "name": "NewGaugeWeight",
      "type": "event"
    },
    {
      "anonymous": false,
      "inputs": [
        {
          "indexed": false,
          "internalType": "int128",
          "name": "typeId",
          "type": "int128"
        },
        {
          "indexed": false,
          "internalType": "uint256",
          "name": "time",
          "type": "uint256"
        },
        {
          "indexed": false,
          "internalType": "uint256",
          "name": "weight",
          "type": "uint256"
        },
        {
          "indexed": false,
          "internalType": "uint256",
          "name": "totalWeight",
          "type": "uint256"
        }
      ],
      "name": "NewTypeWeight",
      "type": "event"
    },
    {
      "anonymous": false,
      "inputs": [
        {
          "indexed": false,
          "internalType": "uint256",
          "name": "time",
          "type": "uint256"
        },
        {
          "indexed": false,
          "internalType": "address",
          "name": "user",
          "type": "address"
        },
        {
          "indexed": false,
          "internalType": "address",
          "name": "gaugeAddr",
          "type": "address"
        },
        {
          "indexed": false,
          "internalType": "uint256",
          "name": "weight",
          "type": "uint256"
        }
      ],
      "name": "VoteForGauge",
      "type": "event"
    },
    {
      "inputs": [
        {
          "internalType": "address",
          "name": "addr_",
          "type": "address"
        },
        {
          "internalType": "int128",
          "name": "gaugeType_",
          "type": "int128"
        },
        {
          "internalType": "uint256",
          "name": "weight_",
          "type": "uint256"
        }
      ],
      "name": "addGauge",
      "outputs": [],
      "stateMutability": "nonpayable",
      "type": "function"
    },
    {
      "inputs": [
        {
          "internalType": "string",
          "name": "name_",
          "type": "string"
        },
        {
          "internalType": "uint256",
          "name": "weight_",
          "type": "uint256"
        }
      ],
      "name": "addType",
      "outputs": [],
      "stateMutability": "nonpayable",
      "type": "function"
    },
    {
      "inputs": [],
      "name": "admin",
      "outputs": [
        {
          "internalType": "address",
          "name": "",
          "type": "address"
        }
      ],
      "stateMutability": "view",
      "type": "function"
    },
    {
      "inputs": [],
      "name": "applyTransferOwnership",
      "outputs": [],
      "stateMutability": "nonpayable",
      "type": "function"
    },
    {
      "inputs": [
        {
          "internalType": "address",
          "name": "addr_",
          "type": "address"
        },
        {
          "internalType": "uint256",
          "name": "weight_",
          "type": "uint256"
        }
      ],
      "name": "changeGaugeWeight",
      "outputs": [],
      "stateMutability": "nonpayable",
      "type": "function"
    },
    {
      "inputs": [
        {
          "internalType": "int128",
          "name": "typeId_",
          "type": "int128"
        },
        {
          "internalType": "uint256",
          "name": "weight_",
          "type": "uint256"
        }
      ],
      "name": "changeTypeWeight",
      "outputs": [],
      "stateMutability": "nonpayable",
      "type": "function"
    },
    {
      "inputs": [
        {
          "internalType": "int128",
          "name": "",
          "type": "int128"
        },
        {
          "internalType": "uint256",
          "name": "",
          "type": "uint256"
        }
      ],
      "name": "changesSum",
      "outputs": [
        {
          "internalType": "uint256",
          "name": "",
          "type": "uint256"
        }
      ],
      "stateMutability": "view",
      "type": "function"
    },
    {
      "inputs": [
        {
          "internalType": "address",
          "name": "",
          "type": "address"
        },
        {
          "internalType": "uint256",
          "name": "",
          "type": "uint256"
        }
      ],
      "name": "changesWeight",
      "outputs": [
        {
          "internalType": "uint256",
          "name": "",
          "type": "uint256"
        }
      ],
      "stateMutability": "view",
      "type": "function"
    },
    {
      "inputs": [],
      "name": "checkpoint",
      "outputs": [],
      "stateMutability": "nonpayable",
      "type": "function"
    },
    {
      "inputs": [
        {
          "internalType": "address",
          "name": "addr_",
          "type": "address"
        }
      ],
      "name": "checkpointGauge",
      "outputs": [],
      "stateMutability": "nonpayable",
      "type": "function"
    },
    {
      "inputs": [
        {
          "internalType": "address",
          "name": "addr_",
          "type": "address"
        }
      ],
      "name": "commitTransferOwnership",
      "outputs": [],
      "stateMutability": "nonpayable",
      "type": "function"
    },
    {
      "inputs": [],
      "name": "futureAdmin",
      "outputs": [
        {
          "internalType": "address",
          "name": "",
          "type": "address"
        }
      ],
      "stateMutability": "view",
      "type": "function"
    },
    {
      "inputs": [
        {
          "internalType": "address",
          "name": "addr_",
          "type": "address"
        },
        {
          "internalType": "uint256",
          "name": "time_",
          "type": "uint256"
        }
      ],
      "name": "gaugeRelativeWeight",
      "outputs": [
        {
          "internalType": "uint256",
          "name": "",
          "type": "uint256"
        }
      ],
      "stateMutability": "view",
      "type": "function"
    },
    {
      "inputs": [
        {
          "internalType": "address",
          "name": "addr_",
          "type": "address"
        },
        {
          "internalType": "uint256",
          "name": "time_",
          "type": "uint256"
        }
      ],
      "name": "gaugeRelativeWeightWrite",
      "outputs": [
        {
          "internalType": "uint256",
          "name": "",
          "type": "uint256"
        }
      ],
      "stateMutability": "nonpayable",
      "type": "function"
    },
    {
      "inputs": [
        {
          "internalType": "int128",
          "name": "",
          "type": "int128"
        }
      ],
      "name": "gaugeTypeNames",
      "outputs": [
        {
          "internalType": "string",
          "name": "",
          "type": "string"
        }
      ],
      "stateMutability": "view",
      "type": "function"
    },
    {
      "inputs": [
        {
          "internalType": "address",
          "name": "addr_",
          "type": "address"
        }
      ],
      "name": "gaugeTypes",
      "outputs": [
        {
          "internalType": "int128",
          "name": "",
          "type": "int128"
        }
      ],
      "stateMutability": "view",
      "type": "function"
    },
    {
      "inputs": [
        {
          "internalType": "address",
          "name": "",
          "type": "address"
        }
      ],
      "name": "gaugeTypes_",
      "outputs": [
        {
          "internalType": "int128",
          "name": "",
          "type": "int128"
        }
      ],
      "stateMutability": "view",
      "type": "function"
    },
    {
      "inputs": [
        {
          "internalType": "uint256",
          "name": "",
          "type": "uint256"
        }
      ],
      "name": "gauges",
      "outputs": [
        {
          "internalType": "address",
          "name": "",
          "type": "address"
        }
      ],
      "stateMutability": "view",
      "type": "function"
    },
    {
      "inputs": [
        {
          "internalType": "address",
          "name": "addr_",
          "type": "address"
        }
      ],
      "name": "getGaugeWeight",
      "outputs": [
        {
          "internalType": "uint256",
          "name": "",
          "type": "uint256"
        }
      ],
      "stateMutability": "view",
      "type": "function"
    },
    {
      "inputs": [],
      "name": "getTotalWeight",
      "outputs": [
        {
          "internalType": "uint256",
          "name": "",
          "type": "uint256"
        }
      ],
      "stateMutability": "view",
      "type": "function"
    },
    {
      "inputs": [
        {
          "internalType": "int128",
          "name": "typeId_",
          "type": "int128"
        }
      ],
      "name": "getTypeWeight",
      "outputs": [
        {
          "internalType": "uint256",
          "name": "",
          "type": "uint256"
        }
      ],
      "stateMutability": "view",
      "type": "function"
    },
    {
      "inputs": [
        {
          "internalType": "int128",
          "name": "typeId_",
          "type": "int128"
        }
      ],
      "name": "getWeightsSumPerType",
      "outputs": [
        {
          "internalType": "uint256",
          "name": "",
          "type": "uint256"
        }
      ],
      "stateMutability": "view",
      "type": "function"
    },
    {
      "inputs": [
        {
          "internalType": "address",
          "name": "",
          "type": "address"
        },
        {
          "internalType": "address",
          "name": "",
          "type": "address"
        }
      ],
      "name": "lastUserVote",
      "outputs": [
        {
          "internalType": "uint256",
          "name": "",
          "type": "uint256"
        }
      ],
      "stateMutability": "view",
      "type": "function"
    },
    {
      "inputs": [],
      "name": "nGaugeTypes",
      "outputs": [
        {
          "internalType": "int128",
          "name": "",
          "type": "int128"
        }
      ],
      "stateMutability": "view",
      "type": "function"
    },
    {
      "inputs": [],
      "name": "nGauges",
      "outputs": [
        {
          "internalType": "int128",
          "name": "",
          "type": "int128"
        }
      ],
      "stateMutability": "view",
      "type": "function"
    },
    {
      "inputs": [
        {
          "internalType": "int128",
          "name": "",
          "type": "int128"
        },
        {
          "internalType": "uint256",
          "name": "",
          "type": "uint256"
        }
      ],
      "name": "pointsSum",
      "outputs": [
        {
          "internalType": "uint256",
          "name": "bias",
          "type": "uint256"
        },
        {
          "internalType": "uint256",
          "name": "slope",
          "type": "uint256"
        }
      ],
      "stateMutability": "view",
      "type": "function"
    },
    {
      "inputs": [
        {
          "internalType": "uint256",
          "name": "",
          "type": "uint256"
        }
      ],
      "name": "pointsTotal",
      "outputs": [
        {
          "internalType": "uint256",
          "name": "",
          "type": "uint256"
        }
      ],
      "stateMutability": "view",
      "type": "function"
    },
    {
      "inputs": [
        {
          "internalType": "int128",
          "name": "",
          "type": "int128"
        },
        {
          "internalType": "uint256",
          "name": "",
          "type": "uint256"
        }
      ],
      "name": "pointsTypeWeight",
      "outputs": [
        {
          "internalType": "uint256",
          "name": "",
          "type": "uint256"
        }
      ],
      "stateMutability": "view",
      "type": "function"
    },
    {
      "inputs": [
        {
          "internalType": "address",
          "name": "",
          "type": "address"
        },
        {
          "internalType": "uint256",
          "name": "",
          "type": "uint256"
        }
      ],
      "name": "pointsWeight",
      "outputs": [
        {
          "internalType": "uint256",
          "name": "bias",
          "type": "uint256"
        },
        {
          "internalType": "uint256",
          "name": "slope",
          "type": "uint256"
        }
      ],
      "stateMutability": "view",
      "type": "function"
    },
    {
      "inputs": [
        {
          "internalType": "uint256",
          "name": "",
          "type": "uint256"
        }
      ],
      "name": "timeSum",
      "outputs": [
        {
          "internalType": "uint256",
          "name": "",
          "type": "uint256"
        }
      ],
      "stateMutability": "view",
      "type": "function"
    },
    {
      "inputs": [],
      "name": "timeTotal",
      "outputs": [
        {
          "internalType": "uint256",
          "name": "",
          "type": "uint256"
        }
      ],
      "stateMutability": "view",
      "type": "function"
    },
    {
      "inputs": [
        {
          "internalType": "uint256",
          "name": "",
          "type": "uint256"
        }
      ],
      "name": "timeTypeWeight",
      "outputs": [
        {
          "internalType": "uint256",
          "name": "",
          "type": "uint256"
        }
      ],
      "stateMutability": "view",
      "type": "function"
    },
    {
      "inputs": [
        {
          "internalType": "address",
          "name": "",
          "type": "address"
        }
      ],
      "name": "timeWeight",
      "outputs": [
        {
          "internalType": "uint256",
          "name": "",
          "type": "uint256"
        }
      ],
      "stateMutability": "view",
      "type": "function"
    },
    {
      "inputs": [],
      "name": "token",
      "outputs": [
        {
          "internalType": "address",
          "name": "",
          "type": "address"
        }
      ],
      "stateMutability": "view",
      "type": "function"
    },
    {
      "inputs": [
        {
          "internalType": "address",
          "name": "gaugeAddr_",
          "type": "address"
        },
        {
          "internalType": "uint256",
          "name": "userWeight_",
          "type": "uint256"
        }
      ],
      "name": "voteForGaugeWeights",
      "outputs": [],
      "stateMutability": "nonpayable",
      "type": "function"
    },
    {
      "inputs": [
        {
          "internalType": "address",
          "name": "",
          "type": "address"
        }
      ],
      "name": "voteUserPower",
      "outputs": [
        {
          "internalType": "uint256",
          "name": "",
          "type": "uint256"
        }
      ],
      "stateMutability": "view",
      "type": "function"
    },
    {
      "inputs": [
        {
          "internalType": "address",
          "name": "",
          "type": "address"
        },
        {
          "internalType": "address",
          "name": "",
          "type": "address"
        }
      ],
      "name": "voteUserSlopes",
      "outputs": [
        {
          "internalType": "uint256",
          "name": "slope",
          "type": "uint256"
        },
        {
          "internalType": "uint256",
          "name": "power",
          "type": "uint256"
        },
        {
          "internalType": "uint256",
          "name": "end",
          "type": "uint256"
        }
      ],
      "stateMutability": "view",
      "type": "function"
    },
    {
      "inputs": [],
      "name": "votingEscrow",
      "outputs": [
        {
          "internalType": "address",
          "name": "",
          "type": "address"
        }
      ],
      "stateMutability": "view",
      "type": "function"
    }
  ],
  "bytecode": "0x60806040523480156200001157600080fd5b5060405162002b6438038062002b648339810160408190526200003491620000de565b6001600160a01b0382166200004857600080fd5b6001600160a01b0381166200005c57600080fd5b60008054336001600160a01b0319918216179091556002805482166001600160a01b03858116919091179091556003805490921690831617905562093a80620000a6814262000116565b620000b2919062000139565b63773594105550620001659050565b80516001600160a01b0381168114620000d957600080fd5b919050565b60008060408385031215620000f257600080fd5b620000fd83620000c1565b91506200010d60208401620000c1565b90509250929050565b6000826200013457634e487b7160e01b600052601260045260246000fd5b500490565b80820281158282048414176200015f57634e487b7160e01b600052601160045260246000fd5b92915050565b6129ef80620001756000396000f3fe608060405234801561001057600080fd5b50600436106102925760003560e01c80639e08e3ef11610160578063e0ab067e116100d8578063eab9041e1161008c578063f763d1ff11610071578063f763d1ff146106cb578063f851a44014610700578063fc0c546a1461071357600080fd5b8063eab9041e1461067a578063ec73d906146106a857600080fd5b8063e24862e8116100bd578063e24862e8146105ef578063e4036c6d14610602578063e75ec6991461062257600080fd5b8063e0ab067e146105c9578063e1cebf0b146105dc57600080fd5b8063c2c4c5c11161012f578063d93c6ede11610114578063d93c6ede14610572578063dd2b117f146105a0578063df0ab9d3146105c157600080fd5b8063c2c4c5c114610520578063c3a6ca131461052857600080fd5b80639e08e3ef146104da5780639fbd4f66146104e7578063b0539187146104fa578063bb18d47a1461050d57600080fd5b806357f4cf271161020e57806372be5276116101c25780637bb9e298116101a75780637bb9e2981461047b578063870e3733146104b45780638aca6a23146104c757600080fd5b806372be52761461042757806377bc2ae01461046857600080fd5b8063688f3f1f116101f3578063688f3f1f146103f55780636eb2d62c146104015780637244d9601461041457600080fd5b806357f4cf27146103cf57806365c60468146103e257600080fd5b806326f4ed51116102655780632d1746911161024a5780632d1746911461037c5780634cb654af146103915780634f2bfe5b146103bc57600080fd5b806326f4ed511461032b578063289f338f1461035957600080fd5b8063057c9cb41461029757806306aba0e1146102cd57806310d1ba58146102ea578063117610fc146102fd575b600080fd5b6102ba6102a5366004612388565b637735940f6020526000908152604090205481565b6040519081526020015b60405180910390f35b6377359410546000908152637735940f60205260409020546102ba565b6102ba6102f83660046123b0565b610726565b6102ba61030b3660046123cd565b633b9aca0e60209081526000928352604080842090915290825290205481565b6102ba610339366004612415565b633b9aca0960209081526000928352604080842090915290825290205481565b6102ba610367366004612448565b633b9aca0c6020526000908152604090205481565b61038f61038a366004612463565b610783565b005b6001546103a4906001600160a01b031681565b6040516001600160a01b0390911681526020016102c4565b6003546103a4906001600160a01b031681565b6102ba6103dd3660046123b0565b6107f0565b6102ba6103f0366004612463565b61084e565b6102ba63773594105481565b6102ba61040f366004612388565b61086f565b61038f610422366004612463565b61088c565b6102ba610435366004612448565b6001600160a01b03166000908152633b9aca0a60209081526040808320633b9aca0c835281842054845290915290205490565b6102ba610476366004612388565b6111f2565b6104a1610489366004612448565b633b9aca0660205260009081526040902054600f0b81565b604051600f9190910b81526020016102c4565b61038f6104c23660046124ae565b611208565b61038f6104d5366004612448565b61130f565b6004546104a190600f0b81565b61038f6104f5366004612581565b611321565b6103a4610508366004612388565b6116dc565b6102ba61051b366004612463565b6116ff565b61038f61172a565b61055d610536366004612463565b633b9aca0a6020908152600092835260408084209091529082529020805460019091015482565b604080519283526020830191909152016102c4565b6102ba610580366004612463565b633b9aca0b60209081526000928352604080842090915290825290205481565b6004546104a1907001000000000000000000000000000000009004600f0b81565b61038f611735565b61038f6105d73660046123cd565b611855565b61038f6105ea366004612448565b6118b9565b6104a16105fd366004612448565b611979565b6106156106103660046123b0565b6119f9565b6040516102c49190612624565b61065f610630366004612415565b633b9aca0760209081526000928352604080842090915290825290208054600182015460029092015490919083565b604080519384526020840192909252908201526060016102c4565b6102ba6106883660046123cd565b637735941160209081526000928352604080842090915290825290205481565b6102ba6106b6366004612448565b633b9aca086020526000908152604090205481565b61055d6106d93660046123cd565b633b9aca0d6020908152600092835260408084209091529082529020805460019091015482565b6000546103a4906001600160a01b031681565b6002546103a4906001600160a01b031681565b600f81900b60009081526377359411602052604081206fffffffffffffffffffffffffffffffff83169082637735941283633b9aca00811061076a5761076a612637565b0154815260200190815260200160002054915050919050565b6000546001600160a01b031633146107e25760405162461bcd60e51b815260206004820152600a60248201527f61646d696e206f6e6c790000000000000000000000000000000000000000000060448201526064015b60405180910390fd5b6107ec8282611a93565b5050565b600f81900b6000908152633b9aca0d602052604081206fffffffffffffffffffffffffffffffff83169082633b9aca0f83633b9aca00811061083457610834612637565b015481526020810191909152604001600020549392505050565b60008160000361085c574291505b6108668383611c49565b90505b92915050565b637735941281633b9aca00811061088557600080fd5b0154905081565b6108cf6040518060e00160405280600081526020016000815260200160008152602001600081526020016000600f0b815260200160008152602001600081525090565b6003546040517ff3a6d6080000000000000000000000000000000000000000000000000000000081523360048201526001600160a01b039091169063f3a6d60890602401602060405180830381865afa158015610930573d6000803e3d6000fd5b505050506040513d601f19601f820116820180604052508101906109549190612666565b6fffffffffffffffffffffffffffffffff1681526003546040517f4deafcae0000000000000000000000000000000000000000000000000000000081523360048201526001600160a01b0390911690634deafcae90602401602060405180830381865afa1580156109c9573d6000803e3d6000fd5b505050506040513d601f19601f820116820180604052508101906109ed9190612683565b602082015260045470010000000000000000000000000000000090046fffffffffffffffffffffffffffffffff16604082015262093a8080428101040260608201819052602082015111610a835760405162461bcd60e51b815260206004820181905260248201527f596f757220746f6b656e206c6f636b206578706972657320746f6f20736f6f6e60448201526064016107d9565b612710821115610ad55760405162461bcd60e51b815260206004820152601e60248201527f596f75207573656420616c6c20796f757220766f74696e6720706f776572000060448201526064016107d9565b336000908152633b9aca09602090815260408083206001600160a01b0387168452909152902054620d2f0001421015610b505760405162461bcd60e51b815260206004820152601460248201527f43616e6e6f7420766f746520736f206f6674656e00000000000000000000000060448201526064016107d9565b6001600160a01b0383166000908152633b9aca066020526040902054610b7b90600190600f0b6126cb565b600f0b6080820181905260001315610bd55760405162461bcd60e51b815260206004820152600f60248201527f4761756765206e6f74206164646564000000000000000000000000000000000060448201526064016107d9565b336000908152633b9aca07602090815260408083206001600160a01b038716845282528083208151606080820184528254825260018301549482019490945260029091015491810191825260a08501939093529083015190511115610c4e5781606001518160400151610c489190612719565b60a08301525b60a08201518151610c5f919061272c565b8260c001818152505060006040518060600160405280612710868660000151610c88919061272c565b610c929190612743565b815260200185815260200184602001518152509050600083606001518460200151610cbd9190612719565b90506000818360000151610cd1919061272c565b336000908152633b9aca086020908152604090912054868201519186015192935091610cfd908361277e565b610d079190612719565b336000908152633b9aca08602052604090208190559050612710811115610d705760405162461bcd60e51b815260206004820152601360248201527f5573656420746f6f206d75636820706f7765720000000000000000000000000060448201526064016107d9565b6000610d7b89611d2f565b6001600160a01b038a166000908152633b9aca0a6020908152604080832060608c0151845290915281206001015460808a015192935091610dbb90611eb3565b60808a0151600f0b6000908152633b9aca0d6020908152604080832060608e0151845290915290206001015460c08b015191925090610e07610dfd888761277e565b8c60c00151612039565b610e119190612719565b6001600160a01b038d166000908152633b9aca0a6020908152604080832060608f0151845290915290205560c08a0151610e4e610dfd888561277e565b610e589190612719565b60808b0151600f0b6000908152633b9aca0d6020908152604080832060608f0180518552925291829020929092559051908a01511115610f305788518851610eab90610ea4908661277e565b8b51612039565b610eb59190612719565b6001600160a01b038d166000908152633b9aca0a6020908152604080832060608f0151845290915290206001015588518851610ef590610ea4908461277e565b610eff9190612719565b60808b0151600f0b6000908152633b9aca0d6020908152604080832060608f01518452909152902060010155610fb7565b87516001600160a01b038d166000908152633b9aca0a6020908152604080832060608f0151845290915281206001018054909190610f6f90849061277e565b9091555050875160808b0151600f0b6000908152633b9aca0d6020908152604080832060608f0151845290915281206001018054909190610fb190849061277e565b90915550505b42896040015111156110425788516001600160a01b038d166000908152633b9aca0b60209081526040808320818e0151845290915281208054909190610ffe908490612719565b9091555050885160808b0151600f0b6000908152633b9aca0e60209081526040808320818e015184529091528120805490919061103c908490612719565b90915550505b87516001600160a01b038d166000908152633b9aca0b60209081526040808320818d015184529091528120805490919061107d90849061277e565b9091555050875160808b0151600f0b6000908152633b9aca0e60209081526040808320818d01518452909152812080549091906110bb90849061277e565b909155506110c99050612050565b5087633b9aca076000336001600160a01b03166001600160a01b0316815260200190815260200160002060008e6001600160a01b03166001600160a01b0316815260200190815260200160002060008201518160000155602082015181600101556040820151816002015590505042633b9aca096000336001600160a01b03166001600160a01b0316815260200190815260200160002060008e6001600160a01b03166001600160a01b03168152602001908152602001600020819055507f45ca9a4c8d0119eb329e580d28fe689e484e1be230da8037ade9547d2d25cc9142338e8e6040516111dc94939291909384526001600160a01b03928316602085015291166040830152606082015260800190565b60405180910390a1505050505050505050505050565b633b9aca0f81633b9aca00811061088557600080fd5b6000546001600160a01b031633146112625760405162461bcd60e51b815260206004820152600a60248201527f61646d696e206f6e6c790000000000000000000000000000000000000000000060448201526064016107d9565b600454600f0b6000818152600560205260409020611280848261282c565b50600480547fffffffffffffffffffffffffffffffff0000000000000000000000000000000016600183016fffffffffffffffffffffffffffffffff16179055811561130a576112d08183612198565b7f6fbe76157c712f16b5a3c44ed48baa04e3450bc3fab0c020e848aca72bbccc848382604051611301929190612946565b60405180910390a15b505050565b61131881611d2f565b506107ec612050565b6000546001600160a01b0316331461137b5760405162461bcd60e51b815260206004820152600a60248201527f61646d696e206f6e6c790000000000000000000000000000000000000000000060448201526064016107d9565b600082600f0b121580156113985750600454600f90810b9083900b125b6113e45760405162461bcd60e51b815260206004820152601860248201527f67617567655f747970652030206d65616e7320756e736574000000000000000060448201526064016107d9565b6001600160a01b0383166000908152633b9aca066020526040902054600f0b156114505760405162461bcd60e51b815260206004820152601f60248201527f63616e6e6f7420616464207468652073616d652067617567652074776963650060448201526064016107d9565b600480546fffffffffffffffffffffffffffffffff6001700100000000000000000000000000000000808404600f81900b928301841690910293831693909317909355859160069116633b9aca0081106114ac576114ac612637565b0180547fffffffffffffffffffffffff0000000000000000000000000000000000000000166001600160a01b03929092169190911790556fffffffffffffffffffffffffffffffff831661150184600161296b565b6001600160a01b0386166000908152633b9aca066020526040812080547fffffffffffffffffffffffffffffffff00000000000000000000000000000000166fffffffffffffffffffffffffffffffff939093169290921790915562093a8080428101040290508315611633576000611579866122b1565b9050600061158687611eb3565b90506000611592612050565b905061159e828861277e565b600f89900b6000908152633b9aca0d6020908152604080832088845290915290205583633b9aca0f86633b9aca0081106115da576115da612637565b01556115e6878461272c565b6115f0908261277e565b6000858152637735940f602090815260408083209390935563773594108790556001600160a01b038c168252633b9aca0a81528282208783529052208790555050505b633b9aca0f82633b9aca00811061164c5761164c612637565b01546000036116725780633b9aca0f83633b9aca00811061166f5761166f612637565b01555b6001600160a01b0386166000818152633b9aca0c60209081526040918290208490558151928352600f88900b9083015281018590527ffd55b3191f9c9dd92f4f134dd700e7d76f6a0c836a08687023d6d38f03ebd8779060600160405180910390a1505050505050565b600681633b9aca0081106116ef57600080fd5b01546001600160a01b0316905081565b60008160000361170d574291505b61171683611d2f565b5061171f612050565b506108668383611c49565b611732612050565b50565b6000546001600160a01b0316331461178f5760405162461bcd60e51b815260206004820152600a60248201527f61646d696e206f6e6c790000000000000000000000000000000000000000000060448201526064016107d9565b6001546001600160a01b0316806117e85760405162461bcd60e51b815260206004820152600d60248201527f61646d696e206e6f74207365740000000000000000000000000000000000000060448201526064016107d9565b600080547fffffffffffffffffffffffff0000000000000000000000000000000000000000166001600160a01b0383169081179091556040519081527febee2d5739011062cb4f14113f3b36bf0ffe3da5c0568f64189d1012a1189105906020015b60405180910390a150565b6000546001600160a01b031633146118af5760405162461bcd60e51b815260206004820152600a60248201527f61646d696e206f6e6c790000000000000000000000000000000000000000000060448201526064016107d9565b6107ec8282612198565b6000546001600160a01b031633146119135760405162461bcd60e51b815260206004820152600a60248201527f61646d696e206f6e6c790000000000000000000000000000000000000000000060448201526064016107d9565b600180547fffffffffffffffffffffffff0000000000000000000000000000000000000000166001600160a01b0383169081179091556040519081527f2f56810a6bf40af059b96d3aea4db54081f378029a518390491093a7b67032e99060200161184a565b6001600160a01b0381166000908152633b9aca066020526040812054600f0b8082036119e75760405162461bcd60e51b815260206004820152601760248201527f6465763a206761756765206973206e6f7420616464656400000000000000000060448201526064016107d9565b6119f26001826126cb565b9392505050565b60056020526000908152604090208054611a1290612791565b80601f0160208091040260200160405190810160405280929190818152602001828054611a3e90612791565b8015611a8b5780601f10611a6057610100808354040283529160200191611a8b565b820191906000526020600020905b815481529060010190602001808311611a6e57829003601f168201915b505050505081565b6001600160a01b0382166000908152633b9aca066020526040812054611abe90600190600f0b6126cb565b90506000611acb84611d2f565b90506000611ad8836122b1565b90506000611ae584611eb3565b90506000611af1612050565b6001600160a01b0388166000818152633b9aca0a6020908152604080832062093a80428101819004028085529083528184208c9055938352633b9aca0c90915281208290559192509085611b45898661277e565b611b4f9190612719565b600f88900b6000908152633b9aca0d602090815260408083208684529091529020819055905081633b9aca0f6fffffffffffffffffffffffffffffffff8916633b9aca008110611ba157611ba1612637565b0155611bad858561272c565b611bb7868361272c565b611bc1908561277e565b611bcb9190612719565b6000838152637735940f6020908152604091829020839055637735941085905581516001600160a01b038d16815242918101919091529081018a9052606081018290529093507f54c0cf3647e6cdb2fc0a7876e60ba77563fceedf2e06c01c597f8dccb9e6bd729060800160405180910390a1505050505050505050565b60008062093a80611c5a8185612743565b611c64919061272c565b6000818152637735940f60205260409020549091508015611d24576001600160a01b0385166000908152633b9aca066020526040812054611caa90600190600f0b6126cb565b600f81900b60009081526377359411602090815260408083208784528252808320546001600160a01b038b168452633b9aca0a835281842088855290925290912054919250908381611d0484670de0b6b3a764000061272c565b611d0e919061272c565b611d189190612743565b95505050505050610869565b600092505050610869565b6001600160a01b0381166000908152633b9aca0c60205260408120548015611ea4576001600160a01b0383166000908152633b9aca0a6020908152604080832084845282528083208151808301909252805482526001015491810191909152905b6101f4811015611e9b57428311611e9b57611dae62093a808461277e565b9250600062093a808360200151611dc5919061272c565b90508083600001511115611e2c578083600001818151611de59190612719565b9052506001600160a01b0386166000908152633b9aca0b602090815260408083208784528252909120549084018051829190611e22908390612719565b905250611e379050565b600080845260208401525b6001600160a01b0386166000908152633b9aca0a602090815260408083208784528252909120845181559084015160019091015542841115611e92576001600160a01b0386166000908152633b9aca0c602052604090208490555b50600101611d90565b50519392505050565b50600092915050565b50919050565b60006fffffffffffffffffffffffffffffffff821681633b9aca0f82633b9aca008110611ee257611ee2612637565b01549050801561202f57600f84900b6000908152633b9aca0d6020908152604080832084845282528083208151808301909252805482526001015491810191909152905b6101f48110156120255742831161202557611f4462093a808461277e565b9250600062093a808360200151611f5b919061272c565b90508083600001511115611fbd578083600001818151611f7b9190612719565b905250600f87900b6000908152633b9aca0e602090815260408083208784528252909120549084018051829190611fb3908390612719565b905250611fc89050565b600080845260208401525b600f87900b6000908152633b9aca0d60209081526040808320878452825290912084518155908401516001909101554284111561201c5783633b9aca0f86633b9aca00811061201957612019612637565b01555b50600101611f26565b5051949350505050565b5060009392505050565b6000818310156120495781610866565b5090919050565b63773594105460045460009190600f0b428211156120785761207562093a8083612719565b91505b6000828152637735940f6020526040812054905b606481600f0b12156120c25782600f0b81600f0b03156120c2576120af81611eb3565b506120b9816122b1565b5060010161208c565b5060005b6101f481101561219057428411612190576120e462093a808561277e565b93506000915060005b606481600f0b12156121625783600f0b81600f0b031561216257600f81900b6000818152633b9aca0d6020908152604080832089845282528083205493835263773594118252808320898452909152902054612149818361272c565b612153908661277e565b945082600101925050506120ed565b506000848152637735940f60205260409020829055428411156121885763773594108490555b6001016120c6565b509392505050565b60006121a3836122b1565b905060006121b084611eb3565b905060006121bc612050565b905062093a80428101819004026fffffffffffffffffffffffffffffffff86166121e6858561272c565b6121f0878661272c565b6121fa908561277e565b6122049190612719565b6000838152637735940f60209081526040808320849055600f8b900b83526377359411825280832086845290915290208790556377359410839055925081637735941282633b9aca00811061225b5761225b612637565b015560408051600f89900b815260208101849052908101879052606081018490527e170bcdc909b6ac6e12d020fe8942256312cdcd555fb6d712899eba56d2f9019060800160405180910390a150505050505050565b60006fffffffffffffffffffffffffffffffff821681637735941282633b9aca0081106122e0576122e0612637565b01549050801561202f57600f84900b6000908152637735941160209081526040808320848452909152812054905b6101f481101561237f5742831161237f5761232c62093a808461277e565b600f87900b600090815263773594116020908152604080832084845290915290208390559250428311156123775782637735941285633b9aca00811061237457612374612637565b01555b60010161230e565b50949350505050565b60006020828403121561239a57600080fd5b5035919050565b80600f0b811461173257600080fd5b6000602082840312156123c257600080fd5b81356119f2816123a1565b600080604083850312156123e057600080fd5b82356123eb816123a1565b946020939093013593505050565b80356001600160a01b038116811461241057600080fd5b919050565b6000806040838503121561242857600080fd5b612431836123f9565b915061243f602084016123f9565b90509250929050565b60006020828403121561245a57600080fd5b610866826123f9565b6000806040838503121561247657600080fd5b6123eb836123f9565b7f4e487b7100000000000000000000000000000000000000000000000000000000600052604160045260246000fd5b600080604083850312156124c157600080fd5b823567ffffffffffffffff808211156124d957600080fd5b818501915085601f8301126124ed57600080fd5b8135818111156124ff576124ff61247f565b604051601f82017fffffffffffffffffffffffffffffffffffffffffffffffffffffffffffffffe0908116603f011681019083821181831017156125455761254561247f565b8160405282815288602084870101111561255e57600080fd5b826020860160208301376000602093820184015298969091013596505050505050565b60008060006060848603121561259657600080fd5b61259f846123f9565b925060208401356125af816123a1565b929592945050506040919091013590565b6000815180845260005b818110156125e6576020818501810151868301820152016125ca565b5060006020828601015260207fffffffffffffffffffffffffffffffffffffffffffffffffffffffffffffffe0601f83011685010191505092915050565b60208152600061086660208301846125c0565b7f4e487b7100000000000000000000000000000000000000000000000000000000600052603260045260246000fd5b60006020828403121561267857600080fd5b81516119f2816123a1565b60006020828403121561269557600080fd5b5051919050565b7f4e487b7100000000000000000000000000000000000000000000000000000000600052601160045260246000fd5b600f82810b9082900b037fffffffffffffffffffffffffffffffff8000000000000000000000000000000081126f7fffffffffffffffffffffffffffffff821317156108695761086961269c565b818103818111156108695761086961269c565b80820281158282048414176108695761086961269c565b600082612779577f4e487b7100000000000000000000000000000000000000000000000000000000600052601260045260246000fd5b500490565b808201808211156108695761086961269c565b600181811c908216806127a557607f821691505b602082108103611ead577f4e487b7100000000000000000000000000000000000000000000000000000000600052602260045260246000fd5b601f82111561130a57600081815260208120601f850160051c810160208610156128055750805b601f850160051c820191505b8181101561282457828155600101612811565b505050505050565b815167ffffffffffffffff8111156128465761284661247f565b61285a816128548454612791565b846127de565b602080601f8311600181146128ad57600084156128775750858301515b7fffffffffffffffffffffffffffffffffffffffffffffffffffffffffffffffff600386901b1c1916600185901b178555612824565b6000858152602081207fffffffffffffffffffffffffffffffffffffffffffffffffffffffffffffffe08616915b828110156128fa578886015182559484019460019091019084016128db565b508582101561293657878501517fffffffffffffffffffffffffffffffffffffffffffffffffffffffffffffffff600388901b60f8161c191681555b5050505050600190811b01905550565b60408152600061295960408301856125c0565b905082600f0b60208301529392505050565b600f81810b9083900b016f7fffffffffffffffffffffffffffffff81137fffffffffffffffffffffffffffffffff80000000000000000000000000000000821217156108695761086961269c56fea2646970667358221220672f63e595bf92c78e9d6bdac35cb35c3f42518833a0512575170b5c6ffffd2464736f6c63430008120033",
  "linkReferences": {},
  "deployedLinkReferences": {}
}