{
  "_format": "hh-sol-artifact-1",
  "contractName": "BulksaleDAO",
  "sourceName": "contracts/BulksaleDAO.sol",
  "abi": [
    {
      "inputs": [
        {
          "internalType": "address",
          "name": "_basicPlugin",
          "type": "address"
        }
      ],
      "stateMutability": "nonpayable",
      "type": "constructor"
    },
    {
      "inputs": [],
      "name": "BasicPlugin",
      "outputs": [
        {
          "internalType": "contract IBasicPlugin",
          "name": "",
          "type": "address"
        }
      ],
      "stateMutability": "view",
      "type": "function"
    },
    {
      "inputs": [],
      "name": "upgrade",
      "outputs": [
        {
          "internalType": "bool",
          "name": "",
          "type": "bool"
        }
      ],
      "stateMutability": "nonpayable",
      "type": "function"
    }
  ],
  "bytecode": "0x608060405234801561001057600080fd5b506040516103bb3803806103bb833981810160405281019061003291906100e4565b600160008190555080600160006101000a81548173ffffffffffffffffffffffffffffffffffffffff021916908373ffffffffffffffffffffffffffffffffffffffff16021790555050610111565b600080fd5b600073ffffffffffffffffffffffffffffffffffffffff82169050919050565b60006100b182610086565b9050919050565b6100c1816100a6565b81146100cc57600080fd5b50565b6000815190506100de816100b8565b92915050565b6000602082840312156100fa576100f9610081565b5b6000610108848285016100cf565b91505092915050565b61029b806101206000396000f3fe608060405234801561001057600080fd5b50600436106100365760003560e01c8063279cc8821461003b578063d55ec69714610059575b600080fd5b610043610077565b60405161005091906101b6565b60405180910390f35b61006161009d565b60405161006e91906101ec565b60405180910390f35b600160009054906101000a900473ffffffffffffffffffffffffffffffffffffffff1681565b6000600160009054906101000a900473ffffffffffffffffffffffffffffffffffffffff1673ffffffffffffffffffffffffffffffffffffffff1663d55ec6976040518163ffffffff1660e01b81526004016020604051808303816000875af115801561010e573d6000803e3d6000fd5b505050506040513d601f19601f820116820180604052508101906101329190610238565b905090565b600073ffffffffffffffffffffffffffffffffffffffff82169050919050565b6000819050919050565b600061017c61017761017284610137565b610157565b610137565b9050919050565b600061018e82610161565b9050919050565b60006101a082610183565b9050919050565b6101b081610195565b82525050565b60006020820190506101cb60008301846101a7565b92915050565b60008115159050919050565b6101e6816101d1565b82525050565b600060208201905061020160008301846101dd565b92915050565b600080fd5b610215816101d1565b811461022057600080fd5b50565b6000815190506102328161020c565b92915050565b60006020828403121561024e5761024d610207565b5b600061025c84828501610223565b9150509291505056fea264697066735822122080cf94cffe82fc81c4681cb3bdf001e9d56a9815be4cbdf0604bd3361f2d9bf464736f6c63430008120033",
  "linkReferences": {},
  "deployedLinkReferences": {}
}