{
  "_format": "hh-sol-artifact-1",
  "contractName": "FeeDistributor",
  "sourceName": "contracts/FeeDistributor.sol",
  "abi": [
    {
      "inputs": [
        {
          "internalType": "address",
          "name": "votingEscrow_",
          "type": "address"
        },
        {
          "internalType": "uint256",
          "name": "startTime_",
          "type": "uint256"
        },
        {
          "internalType": "address",
          "name": "token_",
          "type": "address"
        },
        {
          "internalType": "address",
          "name": "admin_",
          "type": "address"
        },
        {
          "internalType": "address",
          "name": "emergencyReturn_",
          "type": "address"
        }
      ],
      "stateMutability": "nonpayable",
      "type": "constructor"
    },
    {
      "anonymous": false,
      "inputs": [
        {
          "indexed": true,
          "internalType": "address",
          "name": "admin",
          "type": "address"
        }
      ],
      "name": "ApplyAdmin",
      "type": "event"
    },
    {
      "anonymous": false,
      "inputs": [
        {
          "indexed": false,
          "internalType": "uint256",
          "name": "time",
          "type": "uint256"
        },
        {
          "indexed": false,
          "internalType": "uint256",
          "name": "tokens",
          "type": "uint256"
        }
      ],
      "name": "CheckpointToken",
      "type": "event"
    },
    {
      "anonymous": false,
      "inputs": [
        {
          "indexed": true,
          "internalType": "address",
          "name": "recipient",
          "type": "address"
        },
        {
          "indexed": false,
          "internalType": "uint256",
          "name": "amount",
          "type": "uint256"
        },
        {
          "indexed": false,
          "internalType": "uint256",
          "name": "claimEpoch",
          "type": "uint256"
        },
        {
          "indexed": false,
          "internalType": "uint256",
          "name": "maxEpoch",
          "type": "uint256"
        }
      ],
      "name": "Claimed",
      "type": "event"
    },
    {
      "anonymous": false,
      "inputs": [
        {
          "indexed": true,
          "internalType": "address",
          "name": "admin",
          "type": "address"
        }
      ],
      "name": "CommitAdmin",
      "type": "event"
    },
    {
      "anonymous": false,
      "inputs": [
        {
          "indexed": false,
          "internalType": "bool",
          "name": "toggleFlag",
          "type": "bool"
        }
      ],
      "name": "ToggleAllowCheckpointToken",
      "type": "event"
    },
    {
      "inputs": [],
      "name": "TOKEN_CHECKPOINT_DEADLINE",
      "outputs": [
        {
          "internalType": "uint256",
          "name": "",
          "type": "uint256"
        }
      ],
      "stateMutability": "view",
      "type": "function"
    },
    {
      "inputs": [],
      "name": "WEEK",
      "outputs": [
        {
          "internalType": "uint256",
          "name": "",
          "type": "uint256"
        }
      ],
      "stateMutability": "view",
      "type": "function"
    },
    {
      "inputs": [],
      "name": "admin",
      "outputs": [
        {
          "internalType": "address",
          "name": "",
          "type": "address"
        }
      ],
      "stateMutability": "view",
      "type": "function"
    },
    {
      "inputs": [],
      "name": "applyAdmin",
      "outputs": [],
      "stateMutability": "nonpayable",
      "type": "function"
    },
    {
      "inputs": [
        {
          "internalType": "address",
          "name": "coin_",
          "type": "address"
        }
      ],
      "name": "burn",
      "outputs": [
        {
          "internalType": "bool",
          "name": "",
          "type": "bool"
        }
      ],
      "stateMutability": "nonpayable",
      "type": "function"
    },
    {
      "inputs": [],
      "name": "canCheckpointToken",
      "outputs": [
        {
          "internalType": "bool",
          "name": "",
          "type": "bool"
        }
      ],
      "stateMutability": "view",
      "type": "function"
    },
    {
      "inputs": [],
      "name": "checkpointToken",
      "outputs": [],
      "stateMutability": "nonpayable",
      "type": "function"
    },
    {
      "inputs": [],
      "name": "checkpointTotalSupply",
      "outputs": [],
      "stateMutability": "nonpayable",
      "type": "function"
    },
    {
      "inputs": [
        {
          "internalType": "address",
          "name": "addr_",
          "type": "address"
        }
      ],
      "name": "claim",
      "outputs": [
        {
          "internalType": "uint256",
          "name": "",
          "type": "uint256"
        }
      ],
      "stateMutability": "nonpayable",
      "type": "function"
    },
    {
      "inputs": [],
      "name": "claim",
      "outputs": [
        {
          "internalType": "uint256",
          "name": "",
          "type": "uint256"
        }
      ],
      "stateMutability": "nonpayable",
      "type": "function"
    },
    {
      "inputs": [
        {
          "internalType": "address[]",
          "name": "receivers_",
          "type": "address[]"
        }
      ],
      "name": "claimMany",
      "outputs": [
        {
          "internalType": "bool",
          "name": "",
          "type": "bool"
        }
      ],
      "stateMutability": "nonpayable",
      "type": "function"
    },
    {
      "inputs": [
        {
          "internalType": "address",
          "name": "addr_",
          "type": "address"
        }
      ],
      "name": "commitAdmin",
      "outputs": [],
      "stateMutability": "nonpayable",
      "type": "function"
    },
    {
      "inputs": [],
      "name": "emergencyReturn",
      "outputs": [
        {
          "internalType": "address",
          "name": "",
          "type": "address"
        }
      ],
      "stateMutability": "view",
      "type": "function"
    },
    {
      "inputs": [],
      "name": "futureAdmin",
      "outputs": [
        {
          "internalType": "address",
          "name": "",
          "type": "address"
        }
      ],
      "stateMutability": "view",
      "type": "function"
    },
    {
      "inputs": [],
      "name": "isKilled",
      "outputs": [
        {
          "internalType": "bool",
          "name": "",
          "type": "bool"
        }
      ],
      "stateMutability": "view",
      "type": "function"
    },
    {
      "inputs": [],
      "name": "killMe",
      "outputs": [],
      "stateMutability": "nonpayable",
      "type": "function"
    },
    {
      "inputs": [],
      "name": "lastTokenTime",
      "outputs": [
        {
          "internalType": "uint256",
          "name": "",
          "type": "uint256"
        }
      ],
      "stateMutability": "view",
      "type": "function"
    },
    {
      "inputs": [
        {
          "internalType": "address",
          "name": "coin_",
          "type": "address"
        }
      ],
      "name": "recoverBalance",
      "outputs": [
        {
          "internalType": "bool",
          "name": "",
          "type": "bool"
        }
      ],
      "stateMutability": "nonpayable",
      "type": "function"
    },
    {
      "inputs": [],
      "name": "startTime",
      "outputs": [
        {
          "internalType": "uint256",
          "name": "",
          "type": "uint256"
        }
      ],
      "stateMutability": "view",
      "type": "function"
    },
    {
      "inputs": [],
      "name": "timeCursor",
      "outputs": [
        {
          "internalType": "uint256",
          "name": "",
          "type": "uint256"
        }
      ],
      "stateMutability": "view",
      "type": "function"
    },
    {
      "inputs": [
        {
          "internalType": "address",
          "name": "",
          "type": "address"
        }
      ],
      "name": "timeCursorOf",
      "outputs": [
        {
          "internalType": "uint256",
          "name": "",
          "type": "uint256"
        }
      ],
      "stateMutability": "view",
      "type": "function"
    },
    {
      "inputs": [],
      "name": "toggleAllowCheckpointToken",
      "outputs": [],
      "stateMutability": "nonpayable",
      "type": "function"
    },
    {
      "inputs": [],
      "name": "token",
      "outputs": [
        {
          "internalType": "address",
          "name": "",
          "type": "address"
        }
      ],
      "stateMutability": "view",
      "type": "function"
    },
    {
      "inputs": [],
      "name": "tokenLastBalance",
      "outputs": [
        {
          "internalType": "uint256",
          "name": "",
          "type": "uint256"
        }
      ],
      "stateMutability": "view",
      "type": "function"
    },
    {
      "inputs": [
        {
          "internalType": "uint256",
          "name": "",
          "type": "uint256"
        }
      ],
      "name": "tokensPerWeek",
      "outputs": [
        {
          "internalType": "uint256",
          "name": "",
          "type": "uint256"
        }
      ],
      "stateMutability": "view",
      "type": "function"
    },
    {
      "inputs": [],
      "name": "totalReceived",
      "outputs": [
        {
          "internalType": "uint256",
          "name": "",
          "type": "uint256"
        }
      ],
      "stateMutability": "view",
      "type": "function"
    },
    {
      "inputs": [
        {
          "internalType": "address",
          "name": "",
          "type": "address"
        }
      ],
      "name": "userEpochOf",
      "outputs": [
        {
          "internalType": "uint256",
          "name": "",
          "type": "uint256"
        }
      ],
      "stateMutability": "view",
      "type": "function"
    },
    {
      "inputs": [
        {
          "internalType": "address",
          "name": "user_",
          "type": "address"
        },
        {
          "internalType": "uint256",
          "name": "timestamp_",
          "type": "uint256"
        }
      ],
      "name": "veForAt",
      "outputs": [
        {
          "internalType": "uint256",
          "name": "",
          "type": "uint256"
        }
      ],
      "stateMutability": "view",
      "type": "function"
    },
    {
      "inputs": [
        {
          "internalType": "uint256",
          "name": "",
          "type": "uint256"
        }
      ],
      "name": "veSupply",
      "outputs": [
        {
          "internalType": "uint256",
          "name": "",
          "type": "uint256"
        }
      ],
      "stateMutability": "view",
      "type": "function"
    },
    {
      "inputs": [],
      "name": "votingEscrow",
      "outputs": [
        {
          "internalType": "address",
          "name": "",
          "type": "address"
        }
      ],
      "stateMutability": "view",
      "type": "function"
    }
  ],
  "bytecode": "0x60806040523480156200001157600080fd5b50604051620028df380380620028df8339810160408190526200003491620000d5565b6001600090815562093a806200004b81876200013c565b6200005791906200015f565b6001819055600581905560025550600880546001600160a01b03199081166001600160a01b039586161790915560078054821696851696909617909555600c8054861692841692909217909155600e8054909416911617909155506200018b565b80516001600160a01b0381168114620000d057600080fd5b919050565b600080600080600060a08688031215620000ee57600080fd5b620000f986620000b8565b9450602086015193506200011060408701620000b8565b92506200012060608701620000b8565b91506200013060808701620000b8565b90509295509295909350565b6000826200015a57634e487b7160e01b600052601260045260246000fd5b500490565b80820281158282048414176200018557634e487b7160e01b600052601160045260246000fd5b92915050565b612744806200019b6000396000f3fe608060405234801561001057600080fd5b50600436106101da5760003560e01c8063899519be11610104578063b0f3b734116100a2578063f364824111610071578063f3648241146103e5578063f4359ce5146103f8578063f851a44014610402578063fc0c546a1461041557600080fd5b8063b0f3b734146103a2578063b603cd80146103b5578063bee5dc32146103bd578063c7f1ec50146103c557600080fd5b80638fe8a101116100de5780638fe8a10114610361578063939ea66b14610386578063a3c2c4621461038f578063a5420e981461039857600080fd5b8063899519be1461032557806389afcb44146103455780638ec8468a1461035857600080fd5b80634f2bfe5b1161017c57806378e979251161014b57806378e97925146102f85780637e686e01146103015780638721b785146103145780638736659b1461031c57600080fd5b80634f2bfe5b1461029f5780635a4b8c1d146102b257806368662ea0146102c5578063786479cd146102d857600080fd5b8063326a9407116101b8578063326a94071461025a5780634cb654af146102645780634e67428d1461028f5780634e71d92d1461029757600080fd5b80630cc672e4146101df5780630f6592ef146102195780631e83409a14610247575b600080fd5b600d546102049074010000000000000000000000000000000000000000900460ff1681565b60405190151581526020015b60405180910390f35b6102396102273660046122f8565b600b6020526000908152604090205481565b604051908152602001610210565b610239610255366004612328565b610428565b61026261062f565b005b600d54610277906001600160a01b031681565b6040516001600160a01b039091168152602001610210565b610262610800565b610239610916565b600754610277906001600160a01b031681565b600e54610277906001600160a01b031681565b6102046102d3366004612328565b610b19565b6102396102e6366004612328565b60046020526000908152604090205481565b61023960015481565b61020461030f3660046123c1565b610d3f565b610262610fba565b61023960025481565b6102396103333660046122f8565b60066020526000908152604090205481565b610204610353366004612328565b6110a6565b610239600a5481565b600e546102049074010000000000000000000000000000000000000000900460ff1681565b61023960055481565b61023960095481565b6102396201518081565b6102626103b0366004612328565b6112d8565b610262611394565b610262611593565b6102396103d3366004612328565b60036020526000908152604090205481565b6102396103f336600461246e565b611632565b61023962093a8081565b600c54610277906001600160a01b031681565b600854610277906001600160a01b031681565b60006104326117cd565b600e5474010000000000000000000000000000000000000000900460ff16156104a25760405162461bcd60e51b815260206004820152601260248201527f436f6e7472616374206973206b696c6c6564000000000000000000000000000060448201526064015b60405180910390fd5b60025442106104b3576104b3611826565b600554600d5474010000000000000000000000000000000000000000900460ff1680156104ea57506104e781610e106124c7565b42115b156104fa576104f76119bc565b50425b60075462093a8091829004909102906000906105219085906001600160a01b031684611bf9565b9050801561061d576008546040517fa9059cbb0000000000000000000000000000000000000000000000000000000081526001600160a01b038681166004830152602482018490529091169063a9059cbb906044016020604051808303816000875af1158015610595573d6000803e3d6000fd5b505050506040513d601f19601f820116820180604052508101906105b991906124da565b6106055760405162461bcd60e51b815260206004820152600f60248201527f5472616e73666572206661696c656400000000000000000000000000000000006044820152606401610499565b80600a600082825461061791906124fc565b90915550505b91505061062a6001600055565b919050565b6007546002546001600160a01b0390911690600062093a80610651814261250f565b61065b919061254a565b9050826001600160a01b031663c2c4c5c16040518163ffffffff1660e01b8152600401600060405180830381600087803b15801561069857600080fd5b505af11580156106ac573d6000803e3d6000fd5b5050505060005b60148110156107f8578183116107f85760006106cf85856120c4565b6040517f8ad4c447000000000000000000000000000000000000000000000000000000008152600481018290529091506000906001600160a01b03871690638ad4c44790602401608060405180830381865afa158015610733573d6000803e3d6000fd5b505050506040513d601f19601f820116820180604052508101906107579190612573565b90506000816040015186111561077957604082015161077690876125e5565b90505b600081836020015161078b919061260c565b8351610797919061262c565b9050600081600f0b12156107b9576000878152600b60205260408120556107dd565b6000878152600b602052604090206fffffffffffffffffffffffffffffffff821690555b505050506107ee62093a80846124c7565b92506001016106b3565b505060025550565b600c546001600160a01b0316331461085a5760405162461bcd60e51b815260206004820152600d60248201527f4163636573732064656e696564000000000000000000000000000000000000006044820152606401610499565b600d546001600160a01b03166108b25760405162461bcd60e51b815260206004820152600c60248201527f4e6f2061646d696e2073657400000000000000000000000000000000000000006044820152606401610499565b600d54600c80547fffffffffffffffffffffffff0000000000000000000000000000000000000000166001600160a01b0390921691821790556040517f756f845176805c8ebf249854e909627308157f63c96e470e44a9e8549ba6fb1e90600090a2565b60006109206117cd565b600e5474010000000000000000000000000000000000000000900460ff161561098b5760405162461bcd60e51b815260206004820152601260248201527f436f6e7472616374206973206b696c6c656400000000000000000000000000006044820152606401610499565b6002543390421061099e5761099e611826565b600554600d5474010000000000000000000000000000000000000000900460ff1680156109d557506109d281610e106124c7565b42115b156109e5576109e26119bc565b50425b60075462093a809182900490910290600090610a0c9084906001600160a01b031684611bf9565b90508015610b08576008546040517fa9059cbb0000000000000000000000000000000000000000000000000000000081526001600160a01b038581166004830152602482018490529091169063a9059cbb906044016020604051808303816000875af1158015610a80573d6000803e3d6000fd5b505050506040513d601f19601f82011682018060405250810190610aa491906124da565b610af05760405162461bcd60e51b815260206004820152600f60248201527f5472616e73666572206661696c656400000000000000000000000000000000006044820152606401610499565b80600a6000828254610b0291906124fc565b90915550505b92505050610b166001600055565b90565b600c546000906001600160a01b03163314610b765760405162461bcd60e51b815260206004820152600d60248201527f4163636573732064656e696564000000000000000000000000000000000000006044820152606401610499565b6008546001600160a01b0390811690831603610bd45760405162461bcd60e51b815260206004820152601960248201527f43616e6e6f74207265636f766572207468697320746f6b656e000000000000006044820152606401610499565b6040517f70a082310000000000000000000000000000000000000000000000000000000081523060048201526000906001600160a01b038416906370a0823190602401602060405180830381865afa158015610c34573d6000803e3d6000fd5b505050506040513d601f19601f82011682018060405250810190610c58919061267a565b600e546040517fa9059cbb0000000000000000000000000000000000000000000000000000000081526001600160a01b0391821660048201526024810183905291925084169063a9059cbb906044016020604051808303816000875af1158015610cc6573d6000803e3d6000fd5b505050506040513d601f19601f82011682018060405250810190610cea91906124da565b610d365760405162461bcd60e51b815260206004820152600f60248201527f5472616e73666572206661696c656400000000000000000000000000000000006044820152606401610499565b50600192915050565b6000610d496117cd565b600e5474010000000000000000000000000000000000000000900460ff1615610db45760405162461bcd60e51b815260206004820152601260248201527f436f6e7472616374206973206b696c6c656400000000000000000000000000006044820152606401610499565b6002544210610dc557610dc5611826565b600554600d5474010000000000000000000000000000000000000000900460ff168015610dfc5750610df981610e106124c7565b42115b15610e0c57610e096119bc565b50425b62093a80610e1a818361250f565b610e24919061254a565b8351909150600090815b81811015610f8a576000868281518110610e4a57610e4a612693565b6020026020010151905060006001600160a01b0316816001600160a01b031603610e745750610f8a565b600754600090610e8f9083906001600160a01b031688611bf9565b90508015610f80576008546040517fa9059cbb0000000000000000000000000000000000000000000000000000000081526001600160a01b038481166004830152602482018490529091169063a9059cbb906044016020604051808303816000875af1158015610f03573d6000803e3d6000fd5b505050506040513d601f19601f82011682018060405250810190610f2791906124da565b610f735760405162461bcd60e51b815260206004820152600f60248201527f5472616e73666572206661696c656400000000000000000000000000000000006044820152606401610499565b610f7d81866124c7565b94505b5050600101610e2e565b508115610fa95781600a6000828254610fa391906124fc565b90915550505b6001935050505061062a6001600055565b600c546001600160a01b031633146110145760405162461bcd60e51b815260206004820152600d60248201527f4163636573732064656e696564000000000000000000000000000000000000006044820152606401610499565b600d805460ff7401000000000000000000000000000000000000000080830482161581027fffffffffffffffffffffff00ffffffffffffffffffffffffffffffffffffffff90931692909217928390556040517fdbe6ac1081ebd8e648718341126659456f4009fcadfe1c23f66f5e61522610b29361109c9390049091161515815260200190565b60405180910390a1565b6008546000906001600160a01b038381169116146111065760405162461bcd60e51b815260206004820152600d60248201527f496e76616c696420746f6b656e000000000000000000000000000000000000006044820152606401610499565b600e5474010000000000000000000000000000000000000000900460ff16156111715760405162461bcd60e51b815260206004820152601260248201527f436f6e7472616374206973206b696c6c656400000000000000000000000000006044820152606401610499565b6008546040517f70a082310000000000000000000000000000000000000000000000000000000081523360048201526000916001600160a01b0316906370a0823190602401602060405180830381865afa1580156111d3573d6000803e3d6000fd5b505050506040513d601f19601f820116820180604052508101906111f7919061267a565b90508015610d36576008546040517f23b872dd000000000000000000000000000000000000000000000000000000008152336004820152306024820152604481018390526001600160a01b03909116906323b872dd906064016020604051808303816000875af115801561126f573d6000803e3d6000fd5b505050506040513d601f19601f8201168201806040525081019061129391906124da565b50600d5474010000000000000000000000000000000000000000900460ff1680156112cb57506005546112c890610e106124c7565b42115b15610d3657610d366119bc565b600c546001600160a01b031633146113325760405162461bcd60e51b815260206004820152600d60248201527f4163636573732064656e696564000000000000000000000000000000000000006044820152606401610499565b600d80547fffffffffffffffffffffffff0000000000000000000000000000000000000000166001600160a01b0383169081179091556040517f59a407284ae6e2986675fa1400d6498af928ed01f4fd2dd6be4a2a8b4fc35b3490600090a250565b600c546001600160a01b031633146113ee5760405162461bcd60e51b815260206004820152600d60248201527f4163636573732064656e696564000000000000000000000000000000000000006044820152606401610499565b600e8054740100000000000000000000000000000000000000007fffffffffffffffffffffff00ffffffffffffffffffffffffffffffffffffffff8216179091556008546040517f70a082310000000000000000000000000000000000000000000000000000000081523060048201526001600160a01b039182169263a9059cbb92169083906370a0823190602401602060405180830381865afa15801561149a573d6000803e3d6000fd5b505050506040513d601f19601f820116820180604052508101906114be919061267a565b6040517fffffffff0000000000000000000000000000000000000000000000000000000060e085901b1681526001600160a01b03909216600483015260248201526044016020604051808303816000875af1158015611521573d6000803e3d6000fd5b505050506040513d601f19601f8201168201806040525081019061154591906124da565b6115915760405162461bcd60e51b815260206004820152600f60248201527f5472616e73666572206661696c656400000000000000000000000000000000006044820152606401610499565b565b600c546001600160a01b03163314806115de5750600d5474010000000000000000000000000000000000000000900460ff1680156115de57506005546115db90610e106124c7565b42115b61162a5760405162461bcd60e51b815260206004820152600c60248201527f556e617574686f72697a656400000000000000000000000000000000000000006044820152606401610499565b6115916119bc565b6007546040517f81fc83bb0000000000000000000000000000000000000000000000000000000081526001600160a01b0384811660048301526000921690829082906381fc83bb90602401602060405180830381865afa15801561169a573d6000803e3d6000fd5b505050506040513d601f19601f820116820180604052508101906116be919061267a565b905060006116ce83878785612203565b6040517f34d901a40000000000000000000000000000000000000000000000000000000081526001600160a01b038881166004830152602482018390529192506000918516906334d901a490604401608060405180830381865afa15801561173a573d6000803e3d6000fd5b505050506040513d601f19601f8201168201806040525081019061175e9190612573565b9050600081604001518761177291906124fc565b8260200151611781919061260c565b825161178d919061262c565b9050600081600f0b12156117a9576000955050505050506117c7565b6fffffffffffffffffffffffffffffffff1694506117c79350505050565b92915050565b60026000540361181f5760405162461bcd60e51b815260206004820152601f60248201527f5265656e7472616e637947756172643a207265656e7472616e742063616c6c006044820152606401610499565b6002600055565b6007546002546001600160a01b0390911690600062093a80611848814261250f565b611852919061254a565b9050826001600160a01b031663c2c4c5c16040518163ffffffff1660e01b8152600401600060405180830381600087803b15801561188f57600080fd5b505af11580156118a3573d6000803e3d6000fd5b5050505060005b60148110156107f8578183116107f85760006118c685856120c4565b6040517f8ad4c447000000000000000000000000000000000000000000000000000000008152600481018290529091506000906001600160a01b03871690638ad4c44790602401608060405180830381865afa15801561192a573d6000803e3d6000fd5b505050506040513d601f19601f8201168201806040525081019061194e9190612573565b90506000816040015186111561197057604082015161196d90876125e5565b90505b808260200151611980919061260c565b825161198c919061262c565b6000878152600b60205260409020600f9190910b90556119af62093a80876124c7565b95505050506001016118aa565b6008546040517f70a082310000000000000000000000000000000000000000000000000000000081523060048201526000916001600160a01b0316906370a0823190602401602060405180830381865afa158015611a1e573d6000803e3d6000fd5b505050506040513d601f19601f82011682018060405250810190611a42919061267a565b90506000600a5482611a5491906124fc565b600a8390556005549091506000611a6b82426124fc565b426005559050600062093a80611a81818561250f565b611a8b919061254a565b90506000805b6014811015611bb757611aa762093a80846124c7565b915081421015611b295783158015611abe57508442145b15611aec5760008381526006602052604081208054889290611ae19084906124c7565b90915550611bb79050565b83611af786426124fc565b611b01908861254a565b611b0b919061250f565b60008481526006602052604081208054909190611ae19084906124c7565b83158015611b3657508482145b15611b645760008381526006602052604081208054889290611b599084906124c7565b90915550611ba79050565b83611b6f86846124fc565b611b79908861254a565b611b83919061250f565b60008481526006602052604081208054909190611ba19084906124c7565b90915550505b9093508391508190600101611a91565b5060408051428152602081018790527fce749457b74e10f393f2c6b1ce4261b78791376db5a3f501477a809f03f500d6910160405180910390a1505050505050565b6040517f81fc83bb0000000000000000000000000000000000000000000000000000000081526001600160a01b0384811660048301526000918291829182918716906381fc83bb90602401602060405180830381865afa158015611c61573d6000803e3d6000fd5b505050506040513d601f19601f82011682018060405250810190611c85919061267a565b6001549091506000829003611ca15760009450505050506120bd565b6001600160a01b03881660009081526003602052604081205490819003611cd557611cce888a8486612203565b9450611cf1565b6001600160a01b03891660009081526004602052604090205494505b84600003611cfe57600194505b6040517f34d901a40000000000000000000000000000000000000000000000000000000081526001600160a01b038a8116600483015260248201879052600091908a16906334d901a490604401608060405180830381865afa158015611d68573d6000803e3d6000fd5b505050506040513d601f19601f82011682018060405250810190611d8c9190612573565b905081600003611dd15762093a8080600162093a808460400151611db091906124c7565b611dba91906124fc565b611dc4919061250f565b611dce919061254a565b91505b878210611de757600096505050505050506120bd565b82821015611df3578291505b6040805160808101825260008082526020820181905291810182905260608101829052905b603281101561203357898410156120335782604001518410158015611e3d5750858811155b15611f5357611e4d6001896124c7565b975060405180608001604052808460000151600f0b81526020018460200151600f0b8152602001846040015181526020018460600151815250915085881115611ec25760405180608001604052806000600f0b81526020016000600f0b8152602001600081526020016000815250925061202b565b6040517f34d901a40000000000000000000000000000000000000000000000000000000081526001600160a01b038d81166004830152602482018a90528c16906334d901a490604401608060405180830381865afa158015611f28573d6000803e3d6000fd5b505050506040513d601f19601f82011682018060405250810190611f4c9190612573565b925061202b565b6000826040015185611f6591906125e5565b905060008360200151600f0b82611f7c91906126c2565b8451611f8b9190600f0b6125e5565b905060008460200151600f0b83611fa291906126c2565b8551611fb19190600f0b6125e5565b1215611fbb575060005b80158015611fc85750878a115b15611fd4575050612033565b6000811315612019576000868152600b6020908152604080832054600690925290912054612002908361254a565b61200c919061250f565b612016908a6124c7565b98505b61202662093a80876124c7565b955050505b600101611e18565b506120488561204360018a6124fc565b6122e2565b6001600160a01b038c166000818152600460209081526040808320859055600382529182902087905581518a8152908101849052908101889052919850907f9cdcf2f7714cca3508c7f0110b04a90a80a3a8dd0e35de99689db74d28c5383e9060600160405180910390a25093955050505050505b9392505050565b600080600090506000846001600160a01b031663900cf0cf6040518163ffffffff1660e01b8152600401602060405180830381865afa15801561210b573d6000803e3d6000fd5b505050506040513d601f19601f8201168201806040525081019061212f919061267a565b905060005b60808110156121f957818310156121f9576040517f8ad4c447000000000000000000000000000000000000000000000000000000008152600283850181010460048201819052906000906001600160a01b03891690638ad4c44790602401608060405180830381865afa1580156121af573d6000803e3d6000fd5b505050506040513d601f19601f820116820180604052508101906121d39190612573565b9050868160400151116121e8578194506121ef565b6001820393505b5050600101612134565b5090949350505050565b60008082815b60808110156122d657818310156122d6576040517f34d901a40000000000000000000000000000000000000000000000000000000081526001600160a01b038881166004830152600284860181010460248301819052916000918b16906334d901a490604401608060405180830381865afa15801561228c573d6000803e3d6000fd5b505050506040513d601f19601f820116820180604052508101906122b09190612573565b9050878160400151116122c5578194506122cc565b6001820393505b5050600101612209565b50909695505050505050565b60008183106122f157816120bd565b5090919050565b60006020828403121561230a57600080fd5b5035919050565b80356001600160a01b038116811461062a57600080fd5b60006020828403121561233a57600080fd5b6120bd82612311565b7f4e487b7100000000000000000000000000000000000000000000000000000000600052604160045260246000fd5b604051601f82017fffffffffffffffffffffffffffffffffffffffffffffffffffffffffffffffe016810167ffffffffffffffff811182821017156123b9576123b9612343565b604052919050565b600060208083850312156123d457600080fd5b823567ffffffffffffffff808211156123ec57600080fd5b818501915085601f83011261240057600080fd5b81358181111561241257612412612343565b8060051b9150612423848301612372565b818152918301840191848101908884111561243d57600080fd5b938501935b838510156124625761245385612311565b82529385019390850190612442565b98975050505050505050565b6000806040838503121561248157600080fd5b61248a83612311565b946020939093013593505050565b7f4e487b7100000000000000000000000000000000000000000000000000000000600052601160045260246000fd5b808201808211156117c7576117c7612498565b6000602082840312156124ec57600080fd5b815180151581146120bd57600080fd5b818103818111156117c7576117c7612498565b600082612545577f4e487b7100000000000000000000000000000000000000000000000000000000600052601260045260246000fd5b500490565b80820281158282048414176117c7576117c7612498565b8051600f81900b811461062a57600080fd5b60006080828403121561258557600080fd5b6040516080810181811067ffffffffffffffff821117156125a8576125a8612343565b6040526125b483612561565b81526125c260208401612561565b602082015260408301516040820152606083015160608201528091505092915050565b818103600083128015838313168383128216171561260557612605612498565b5092915050565b600082600f0b82600f0b0280600f0b915080821461260557612605612498565b600f82810b9082900b037fffffffffffffffffffffffffffffffff8000000000000000000000000000000081126f7fffffffffffffffffffffffffffffff821317156117c7576117c7612498565b60006020828403121561268c57600080fd5b5051919050565b7f4e487b7100000000000000000000000000000000000000000000000000000000600052603260045260246000fd5b808202600082127f8000000000000000000000000000000000000000000000000000000000000000841416156126fa576126fa612498565b81810583148215176117c7576117c761249856fea2646970667358221220b3705cf6cd79de5db462b20cc83e3d7154b9e2a187b2e1e44f6f8c3fffebf4c664736f6c63430008120033",
  "linkReferences": {},
  "deployedLinkReferences": {}
}