{
  "_format": "hh-sol-artifact-1",
  "contractName": "FeeDistributor",
  "sourceName": "contracts/FeeDistributor.sol",
  "abi": [
    {
      "inputs": [
        {
          "internalType": "address",
          "name": "votingEscrow_",
          "type": "address"
        },
        {
          "internalType": "address",
          "name": "factory_",
          "type": "address"
        },
        {
          "internalType": "uint256",
          "name": "startTime_",
          "type": "uint256"
        },
        {
          "internalType": "address",
          "name": "admin_",
          "type": "address"
        },
        {
          "internalType": "address",
          "name": "emergencyReturn_",
          "type": "address"
        }
      ],
      "stateMutability": "nonpayable",
      "type": "constructor"
    },
    {
      "anonymous": false,
      "inputs": [
        {
          "indexed": true,
          "internalType": "address",
          "name": "token",
          "type": "address"
        }
      ],
      "name": "AddedToken",
      "type": "event"
    },
    {
      "anonymous": false,
      "inputs": [
        {
          "indexed": true,
          "internalType": "address",
          "name": "admin",
          "type": "address"
        }
      ],
      "name": "ApplyAdmin",
      "type": "event"
    },
    {
      "anonymous": false,
      "inputs": [
        {
          "indexed": true,
          "internalType": "address",
          "name": "token",
          "type": "address"
        },
        {
          "indexed": false,
          "internalType": "uint256",
          "name": "time",
          "type": "uint256"
        },
        {
          "indexed": false,
          "internalType": "uint256",
          "name": "tokens",
          "type": "uint256"
        }
      ],
      "name": "CheckpointToken",
      "type": "event"
    },
    {
      "anonymous": false,
      "inputs": [
        {
          "indexed": true,
          "internalType": "address",
          "name": "recipient",
          "type": "address"
        },
        {
          "indexed": false,
          "internalType": "uint256",
          "name": "amount",
          "type": "uint256"
        },
        {
          "indexed": false,
          "internalType": "uint256",
          "name": "claimEpoch",
          "type": "uint256"
        },
        {
          "indexed": false,
          "internalType": "uint256",
          "name": "maxEpoch",
          "type": "uint256"
        }
      ],
      "name": "Claimed",
      "type": "event"
    },
    {
      "anonymous": false,
      "inputs": [
        {
          "indexed": true,
          "internalType": "address",
          "name": "admin",
          "type": "address"
        }
      ],
      "name": "CommitAdmin",
      "type": "event"
    },
    {
      "anonymous": false,
      "inputs": [
        {
          "indexed": false,
          "internalType": "bool",
          "name": "toggleFlag",
          "type": "bool"
        }
      ],
      "name": "ToggleAllowCheckpointToken",
      "type": "event"
    },
    {
      "inputs": [],
      "name": "TOKEN_CHECKPOINT_DEADLINE",
      "outputs": [
        {
          "internalType": "uint256",
          "name": "",
          "type": "uint256"
        }
      ],
      "stateMutability": "view",
      "type": "function"
    },
    {
      "inputs": [],
      "name": "WEEK",
      "outputs": [
        {
          "internalType": "uint256",
          "name": "",
          "type": "uint256"
        }
      ],
      "stateMutability": "view",
      "type": "function"
    },
    {
      "inputs": [
        {
          "internalType": "address",
          "name": "coin_",
          "type": "address"
        }
      ],
      "name": "addRewardToken",
      "outputs": [
        {
          "internalType": "bool",
          "name": "",
          "type": "bool"
        }
      ],
      "stateMutability": "nonpayable",
      "type": "function"
    },
    {
      "inputs": [],
      "name": "admin",
      "outputs": [
        {
          "internalType": "address",
          "name": "",
          "type": "address"
        }
      ],
      "stateMutability": "view",
      "type": "function"
    },
    {
      "inputs": [],
      "name": "applyAdmin",
      "outputs": [],
      "stateMutability": "nonpayable",
      "type": "function"
    },
    {
      "inputs": [
        {
          "internalType": "address",
          "name": "coin_",
          "type": "address"
        }
      ],
      "name": "burn",
      "outputs": [
        {
          "internalType": "bool",
          "name": "",
          "type": "bool"
        }
      ],
      "stateMutability": "nonpayable",
      "type": "function"
    },
    {
      "inputs": [],
      "name": "canCheckpointToken",
      "outputs": [
        {
          "internalType": "bool",
          "name": "",
          "type": "bool"
        }
      ],
      "stateMutability": "view",
      "type": "function"
    },
    {
      "inputs": [
        {
          "internalType": "address",
          "name": "token_",
          "type": "address"
        }
      ],
      "name": "checkpointToken",
      "outputs": [],
      "stateMutability": "nonpayable",
      "type": "function"
    },
    {
      "inputs": [],
      "name": "checkpointTotalSupply",
      "outputs": [],
      "stateMutability": "nonpayable",
      "type": "function"
    },
    {
      "inputs": [
        {
          "internalType": "address",
          "name": "token_",
          "type": "address"
        }
      ],
      "name": "claim",
      "outputs": [
        {
          "internalType": "uint256",
          "name": "",
          "type": "uint256"
        }
      ],
      "stateMutability": "nonpayable",
      "type": "function"
    },
    {
      "inputs": [
        {
          "internalType": "address",
          "name": "addr_",
          "type": "address"
        },
        {
          "internalType": "address",
          "name": "token_",
          "type": "address"
        }
      ],
      "name": "claim",
      "outputs": [
        {
          "internalType": "uint256",
          "name": "",
          "type": "uint256"
        }
      ],
      "stateMutability": "nonpayable",
      "type": "function"
    },
    {
      "inputs": [
        {
          "internalType": "address[20]",
          "name": "receivers_",
          "type": "address[20]"
        },
        {
          "internalType": "address",
          "name": "token_",
          "type": "address"
        }
      ],
      "name": "claimMany",
      "outputs": [
        {
          "internalType": "bool",
          "name": "",
          "type": "bool"
        }
      ],
      "stateMutability": "nonpayable",
      "type": "function"
    },
    {
      "inputs": [
        {
          "internalType": "address",
          "name": "addr_",
          "type": "address"
        },
        {
          "internalType": "address[20]",
          "name": "tokens_",
          "type": "address[20]"
        }
      ],
      "name": "claimMultipleTokens",
      "outputs": [
        {
          "internalType": "bool",
          "name": "",
          "type": "bool"
        }
      ],
      "stateMutability": "nonpayable",
      "type": "function"
    },
    {
      "inputs": [
        {
          "internalType": "address",
          "name": "addr_",
          "type": "address"
        }
      ],
      "name": "commitAdmin",
      "outputs": [],
      "stateMutability": "nonpayable",
      "type": "function"
    },
    {
      "inputs": [],
      "name": "emergencyReturn",
      "outputs": [
        {
          "internalType": "address",
          "name": "",
          "type": "address"
        }
      ],
      "stateMutability": "view",
      "type": "function"
    },
    {
      "inputs": [],
      "name": "factory",
      "outputs": [
        {
          "internalType": "address",
          "name": "",
          "type": "address"
        }
      ],
      "stateMutability": "view",
      "type": "function"
    },
    {
      "inputs": [],
      "name": "futureAdmin",
      "outputs": [
        {
          "internalType": "address",
          "name": "",
          "type": "address"
        }
      ],
      "stateMutability": "view",
      "type": "function"
    },
    {
      "inputs": [],
      "name": "isKilled",
      "outputs": [
        {
          "internalType": "bool",
          "name": "",
          "type": "bool"
        }
      ],
      "stateMutability": "view",
      "type": "function"
    },
    {
      "inputs": [],
      "name": "killMe",
      "outputs": [],
      "stateMutability": "nonpayable",
      "type": "function"
    },
    {
      "inputs": [
        {
          "internalType": "address",
          "name": "",
          "type": "address"
        }
      ],
      "name": "lastTokenTime",
      "outputs": [
        {
          "internalType": "uint256",
          "name": "",
          "type": "uint256"
        }
      ],
      "stateMutability": "view",
      "type": "function"
    },
    {
      "inputs": [
        {
          "internalType": "address",
          "name": "coin_",
          "type": "address"
        }
      ],
      "name": "recoverBalance",
      "outputs": [
        {
          "internalType": "bool",
          "name": "",
          "type": "bool"
        }
      ],
      "stateMutability": "nonpayable",
      "type": "function"
    },
    {
      "inputs": [],
      "name": "startTime",
      "outputs": [
        {
          "internalType": "uint256",
          "name": "",
          "type": "uint256"
        }
      ],
      "stateMutability": "view",
      "type": "function"
    },
    {
      "inputs": [],
      "name": "timeCursor",
      "outputs": [
        {
          "internalType": "uint256",
          "name": "",
          "type": "uint256"
        }
      ],
      "stateMutability": "view",
      "type": "function"
    },
    {
      "inputs": [
        {
          "internalType": "address",
          "name": "",
          "type": "address"
        },
        {
          "internalType": "address",
          "name": "",
          "type": "address"
        }
      ],
      "name": "timeCursorOf",
      "outputs": [
        {
          "internalType": "uint256",
          "name": "",
          "type": "uint256"
        }
      ],
      "stateMutability": "view",
      "type": "function"
    },
    {
      "inputs": [],
      "name": "toggleAllowCheckpointToken",
      "outputs": [],
      "stateMutability": "nonpayable",
      "type": "function"
    },
    {
      "inputs": [
        {
          "internalType": "address",
          "name": "",
          "type": "address"
        }
      ],
      "name": "tokenFlags",
      "outputs": [
        {
          "internalType": "bool",
          "name": "",
          "type": "bool"
        }
      ],
      "stateMutability": "view",
      "type": "function"
    },
    {
      "inputs": [
        {
          "internalType": "address",
          "name": "",
          "type": "address"
        }
      ],
      "name": "tokenLastBalance",
      "outputs": [
        {
          "internalType": "uint256",
          "name": "",
          "type": "uint256"
        }
      ],
      "stateMutability": "view",
      "type": "function"
    },
    {
      "inputs": [
        {
          "internalType": "uint256",
          "name": "",
          "type": "uint256"
        }
      ],
      "name": "tokens",
      "outputs": [
        {
          "internalType": "address",
          "name": "",
          "type": "address"
        }
      ],
      "stateMutability": "view",
      "type": "function"
    },
    {
      "inputs": [
        {
          "internalType": "address",
          "name": "",
          "type": "address"
        },
        {
          "internalType": "uint256",
          "name": "",
          "type": "uint256"
        }
      ],
      "name": "tokensPerWeek",
      "outputs": [
        {
          "internalType": "uint256",
          "name": "",
          "type": "uint256"
        }
      ],
      "stateMutability": "view",
      "type": "function"
    },
    {
      "inputs": [
        {
          "internalType": "address",
          "name": "",
          "type": "address"
        },
        {
          "internalType": "address",
          "name": "",
          "type": "address"
        }
      ],
      "name": "userEpochOf",
      "outputs": [
        {
          "internalType": "uint256",
          "name": "",
          "type": "uint256"
        }
      ],
      "stateMutability": "view",
      "type": "function"
    },
    {
      "inputs": [
        {
          "internalType": "address",
          "name": "user_",
          "type": "address"
        },
        {
          "internalType": "uint256",
          "name": "timestamp_",
          "type": "uint256"
        }
      ],
      "name": "veForAt",
      "outputs": [
        {
          "internalType": "uint256",
          "name": "",
          "type": "uint256"
        }
      ],
      "stateMutability": "view",
      "type": "function"
    },
    {
      "inputs": [
        {
          "internalType": "uint256",
          "name": "",
          "type": "uint256"
        }
      ],
      "name": "veSupply",
      "outputs": [
        {
          "internalType": "uint256",
          "name": "",
          "type": "uint256"
        }
      ],
      "stateMutability": "view",
      "type": "function"
    },
    {
      "inputs": [],
      "name": "votingEscrow",
      "outputs": [
        {
          "internalType": "address",
          "name": "",
          "type": "address"
        }
      ],
      "stateMutability": "view",
      "type": "function"
    },
    {
      "stateMutability": "payable",
      "type": "receive"
    }
  ],
  "bytecode": "0x60a06040523480156200001157600080fd5b50604051620036d4380380620036d4833981016040819052620000349162000157565b6001600090815562093a806200004b8186620001be565b620000579190620001e1565b60018181557f05b8ccbb9d4d8fb16ea74ce3c29a41f1b461fbdaff4714a0d9a8eb05499746bc829055600291909155600880548083019091557ff3f7a9fe364faab93b216da50a3214154f22a0a2b415b23a84c8169e8b636ee30180546001600160a01b03199081169091556000805260096020527fec8156718a8372b1db44bb411437d0870f3e3790d4a08526d024ce1b0b668f6b805460ff19169092179091556007805482166001600160a01b0398891617905594861660805250600c8054851692861692909217909155600e80549093169316929092179055506200020d565b80516001600160a01b03811681146200015257600080fd5b919050565b600080600080600060a086880312156200017057600080fd5b6200017b866200013a565b94506200018b602087016200013a565b935060408601519250620001a2606087016200013a565b9150620001b2608087016200013a565b90509295509295909350565b600082620001dc57634e487b7160e01b600052601260045260246000fd5b500490565b80820281158282048414176200020757634e487b7160e01b600052601160045260246000fd5b92915050565b6080516134a462000230600039600081816105e1015261071301526134a46000f3fe6080604052600436106102015760003560e01c806368662ea01161011d578063a5420e98116100b0578063c50d400d1161007f578063f364824111610064578063f364824114610660578063f4359ce514610680578063f851a4401461069757600080fd5b8063c50d400d14610603578063e1d2bf691461063357600080fd5b8063a5420e9814610583578063b0f3b7341461059a578063b603cd80146105ba578063c45a0155146105cf57600080fd5b80638736659b116100ec5780638736659b146104fb57806389afcb44146105115780638fe8a10114610531578063a186dc081461056357600080fd5b806368662ea01461048357806378e97925146104a35780637d933227146104b95780638721b785146104e657600080fd5b806338b74b47116101955780634f2bfe5b116101645780634f2bfe5b146104035780634f64b2be146104235780635a4b8c1d146104435780636089627f1461046357600080fd5b806338b74b471461035e5780633902b9bc146103965780634cb654af146103b65780634e67428d146103ee57600080fd5b80631c03e6cc116101d15780631c03e6cc146102e75780631e83409a1461030757806321c0b34214610327578063326a94071461034757600080fd5b8062d440c11461020d578063071cb5ad146102405780630cc672e4146102785780630f6592ef146102ba57600080fd5b3661020857005b600080fd5b34801561021957600080fd5b5061022d61022836600461306a565b6106b7565b6040519081526020015b60405180910390f35b34801561024c57600080fd5b5061022d61025b366004613094565b600460209081526000928352604080842090915290825290205481565b34801561028457600080fd5b50600d546102aa9074010000000000000000000000000000000000000000900460ff1681565b6040519015158152602001610237565b3480156102c657600080fd5b5061022d6102d53660046130c7565b600b6020526000908152604090205481565b3480156102f357600080fd5b506102aa6103023660046130e0565b6106e2565b34801561031357600080fd5b5061022d6103223660046130e0565b61098c565b34801561033357600080fd5b5061022d610342366004613094565b610c3a565b34801561035357600080fd5b5061035c610eeb565b005b34801561036a57600080fd5b5061022d610379366004613094565b600360209081526000928352604080842090915290825290205481565b3480156103a257600080fd5b5061035c6103b13660046130e0565b6110bc565b3480156103c257600080fd5b50600d546103d6906001600160a01b031681565b6040516001600160a01b039091168152602001610237565b3480156103fa57600080fd5b5061035c6111dd565b34801561040f57600080fd5b506007546103d6906001600160a01b031681565b34801561042f57600080fd5b506103d661043e3660046130c7565b6112f3565b34801561044f57600080fd5b50600e546103d6906001600160a01b031681565b34801561046f57600080fd5b506102aa61047e36600461319f565b61131d565b34801561048f57600080fd5b506102aa61049e3660046130e0565b61166e565b3480156104af57600080fd5b5061022d60015481565b3480156104c557600080fd5b5061022d6104d43660046130e0565b60056020526000908152604090205481565b3480156104f257600080fd5b5061035c61189e565b34801561050757600080fd5b5061022d60025481565b34801561051d57600080fd5b506102aa61052c3660046130e0565b61198a565b34801561053d57600080fd5b50600e546102aa9074010000000000000000000000000000000000000000900460ff1681565b34801561056f57600080fd5b506102aa61057e3660046131cb565b611bd5565b34801561058f57600080fd5b5061022d6201518081565b3480156105a657600080fd5b5061035c6105b53660046130e0565b611edc565b3480156105c657600080fd5b5061035c611f98565b3480156105db57600080fd5b506103d67f000000000000000000000000000000000000000000000000000000000000000081565b34801561060f57600080fd5b506102aa61061e3660046130e0565b60096020526000908152604090205460ff1681565b34801561063f57600080fd5b5061022d61064e3660046130e0565b600a6020526000908152604090205481565b34801561066c57600080fd5b5061022d61067b36600461306a565b6121d2565b34801561068c57600080fd5b5061022d62093a8081565b3480156106a357600080fd5b50600c546103d6906001600160a01b031681565b60066020528160005260406000208166038d7ea4c6800081106106d957600080fd5b01549150829050565b6040517f1d59410a0000000000000000000000000000000000000000000000000000000081523360048201526000907f00000000000000000000000000000000000000000000000000000000000000006001600160a01b031690631d59410a90602401602060405180830381865afa158015610762573d6000803e3d6000fd5b505050506040513d601f19601f8201168201806040525081019061078691906131f8565b6107d75760405162461bcd60e51b815260206004820152601860248201527f596f7520617265206e6f74207468652061756374696f6e2e000000000000000060448201526064015b60405180910390fd5b6001600160a01b03821661082d5760405162461bcd60e51b815260206004820152601960248201527f45544820697320616c726561647920726567697374657265640000000000000060448201526064016107ce565b6001600160a01b03821660009081526009602052604090205460ff16156108965760405162461bcd60e51b815260206004820152601b60248201527f546f6b656e20697320616c72656164792072656769737465726564000000000060448201526064016107ce565b600062093a806108a68142613249565b6108b09190613284565b6001600160a01b0384166000818152600560209081526040808320859055600990915280822080547fffffffffffffffffffffffffffffffffffffffffffffffffffffffffffffff0016600190811790915560088054918201815583527ff3f7a9fe364faab93b216da50a3214154f22a0a2b415b23a84c8169e8b636ee30180547fffffffffffffffffffffffff000000000000000000000000000000000000000016841790555192935090917f4bbe03be846191383bf3fc4e9dcdc8312ef44d20eec28c2370c51603ba6f80a69190a260019150505b919050565b6000610996612367565b600e5474010000000000000000000000000000000000000000900460ff1615610a015760405162461bcd60e51b815260206004820152601260248201527f436f6e7472616374206973206b696c6c6564000000000000000000000000000060448201526064016107ce565b60025433904210610a1457610a146123c0565b6001600160a01b038316600090815260056020526040902054600d5474010000000000000000000000000000000000000000900460ff168015610a615750610a5e81610e1061329b565b42115b15610a7257610a6f84612556565b50425b60075462093a809182900490910290600090610a9b90849087906001600160a01b03168561286f565b90508015610c2c576001600160a01b0385166000908152600a602052604081208054839290610acb9084906132ae565b90915550506001600160a01b038516610b54576040516001600160a01b0384169082156108fc029083906000818181858888f19350505050610b4f5760405162461bcd60e51b815260206004820152600f60248201527f5472616e73666572206661696c6564000000000000000000000000000000000060448201526064016107ce565b610c2c565b6040517fa9059cbb0000000000000000000000000000000000000000000000000000000081526001600160a01b0384811660048301526024820183905286169063a9059cbb906044016020604051808303816000875af1158015610bbc573d6000803e3d6000fd5b505050506040513d601f19601f82011682018060405250810190610be091906131f8565b610c2c5760405162461bcd60e51b815260206004820152600f60248201527f5472616e73666572206661696c6564000000000000000000000000000000000060448201526064016107ce565b925050506109876001600055565b6000610c44612367565b600e5474010000000000000000000000000000000000000000900460ff1615610caf5760405162461bcd60e51b815260206004820152601260248201527f436f6e7472616374206973206b696c6c6564000000000000000000000000000060448201526064016107ce565b6002544210610cc057610cc06123c0565b6001600160a01b038216600090815260056020526040902054600d5474010000000000000000000000000000000000000000900460ff168015610d0d5750610d0a81610e1061329b565b42115b15610d1e57610d1b83612556565b50425b60075462093a809182900490910290600090610d4790869086906001600160a01b03168561286f565b90508015610ed8576001600160a01b0384166000908152600a602052604081208054839290610d779084906132ae565b90915550506001600160a01b038416610e00576040516001600160a01b0386169082156108fc029083906000818181858888f19350505050610dfb5760405162461bcd60e51b815260206004820152600f60248201527f5472616e73666572206661696c6564000000000000000000000000000000000060448201526064016107ce565b610ed8565b6040517fa9059cbb0000000000000000000000000000000000000000000000000000000081526001600160a01b0386811660048301526024820183905285169063a9059cbb906044016020604051808303816000875af1158015610e68573d6000803e3d6000fd5b505050506040513d601f19601f82011682018060405250810190610e8c91906131f8565b610ed85760405162461bcd60e51b815260206004820152600f60248201527f5472616e73666572206661696c6564000000000000000000000000000000000060448201526064016107ce565b915050610ee56001600055565b92915050565b6007546002546001600160a01b0390911690600062093a80610f0d8142613249565b610f179190613284565b9050826001600160a01b031663c2c4c5c16040518163ffffffff1660e01b8152600401600060405180830381600087803b158015610f5457600080fd5b505af1158015610f68573d6000803e3d6000fd5b5050505060005b60148110156110b4578183116110b4576000610f8b8585612e1d565b6040517f8ad4c447000000000000000000000000000000000000000000000000000000008152600481018290529091506000906001600160a01b03871690638ad4c44790602401608060405180830381865afa158015610fef573d6000803e3d6000fd5b505050506040513d601f19601f8201168201806040525081019061101391906132d3565b9050600081604001518611156110355760408201516110329087613345565b90505b6000818360200151611047919061336c565b8351611053919061338c565b9050600081600f0b1215611075576000878152600b6020526040812055611099565b6000878152600b602052604090206fffffffffffffffffffffffffffffffff821690555b505050506110aa62093a808461329b565b9250600101610f6f565b505060025550565b6001600160a01b03811660009081526009602052604090205460ff166111245760405162461bcd60e51b815260206004820152601460248201527f546f6b656e206e6f74207265676973746572656400000000000000000000000060448201526064016107ce565b600c546001600160a01b03163314806111855750600d5474010000000000000000000000000000000000000000900460ff16801561118557506001600160a01b03811660009081526005602052604090205461118290610e1061329b565b42115b6111d15760405162461bcd60e51b815260206004820152600c60248201527f556e617574686f72697a6564000000000000000000000000000000000000000060448201526064016107ce565b6111da81612556565b50565b600c546001600160a01b031633146112375760405162461bcd60e51b815260206004820152600d60248201527f4163636573732064656e6965640000000000000000000000000000000000000060448201526064016107ce565b600d546001600160a01b031661128f5760405162461bcd60e51b815260206004820152600c60248201527f4e6f2061646d696e20736574000000000000000000000000000000000000000060448201526064016107ce565b600d54600c80547fffffffffffffffffffffffff0000000000000000000000000000000000000000166001600160a01b0390921691821790556040517f756f845176805c8ebf249854e909627308157f63c96e470e44a9e8549ba6fb1e90600090a2565b6008818154811061130357600080fd5b6000918252602090912001546001600160a01b0316905081565b6000611327612367565b600e5474010000000000000000000000000000000000000000900460ff16156113925760405162461bcd60e51b815260206004820152601260248201527f436f6e7472616374206973206b696c6c6564000000000000000000000000000060448201526064016107ce565b6001600160a01b0383166113e85760405162461bcd60e51b815260206004820152601760248201527f416464726573732073686f756c64206e6f74207a65726f00000000000000000060448201526064016107ce565b60025442106113f9576113f96123c0565b601460005b8181101561165e57600084826014811061141a5761141a6133da565b602090810291909101516001600160a01b03811660009081526005909252604090912054600d549192509074010000000000000000000000000000000000000000900460ff168015611476575061147381610e1061329b565b42115b156114875761148482612556565b50425b62093a806114958183613249565b61149f9190613284565b6007549091506000906114bf90899085906001600160a01b03168561286f565b90508015611650576001600160a01b0383166000908152600a6020526040812080548392906114ef9084906132ae565b90915550506001600160a01b038316611578576040516001600160a01b0389169082156108fc029083906000818181858888f193505050506115735760405162461bcd60e51b815260206004820152600f60248201527f5472616e73666572206661696c6564000000000000000000000000000000000060448201526064016107ce565b611650565b6040517fa9059cbb0000000000000000000000000000000000000000000000000000000081526001600160a01b0389811660048301526024820183905284169063a9059cbb906044016020604051808303816000875af11580156115e0573d6000803e3d6000fd5b505050506040513d601f19601f8201168201806040525081019061160491906131f8565b6116505760405162461bcd60e51b815260206004820152600f60248201527f5472616e73666572206661696c6564000000000000000000000000000000000060448201526064016107ce565b8360010193505050506113fe565b506001915050610ee56001600055565b600c546000906001600160a01b031633146116cb5760405162461bcd60e51b815260206004820152600d60248201527f4163636573732064656e6965640000000000000000000000000000000000000060448201526064016107ce565b6001600160a01b03821660009081526009602052604090205460ff166117335760405162461bcd60e51b815260206004820152601960248201527f43616e6e6f74207265636f766572207468697320746f6b656e0000000000000060448201526064016107ce565b6040517f70a082310000000000000000000000000000000000000000000000000000000081523060048201526000906001600160a01b038416906370a0823190602401602060405180830381865afa158015611793573d6000803e3d6000fd5b505050506040513d601f19601f820116820180604052508101906117b79190613409565b600e546040517fa9059cbb0000000000000000000000000000000000000000000000000000000081526001600160a01b0391821660048201526024810183905291925084169063a9059cbb906044016020604051808303816000875af1158015611825573d6000803e3d6000fd5b505050506040513d601f19601f8201168201806040525081019061184991906131f8565b6118955760405162461bcd60e51b815260206004820152600f60248201527f5472616e73666572206661696c6564000000000000000000000000000000000060448201526064016107ce565b50600192915050565b600c546001600160a01b031633146118f85760405162461bcd60e51b815260206004820152600d60248201527f4163636573732064656e6965640000000000000000000000000000000000000060448201526064016107ce565b600d805460ff7401000000000000000000000000000000000000000080830482161581027fffffffffffffffffffffff00ffffffffffffffffffffffffffffffffffffffff90931692909217928390556040517fdbe6ac1081ebd8e648718341126659456f4009fcadfe1c23f66f5e61522610b2936119809390049091161515815260200190565b60405180910390a1565b6001600160a01b03811660009081526009602052604081205460ff166119f25760405162461bcd60e51b815260206004820152600d60248201527f496e76616c696420746f6b656e0000000000000000000000000000000000000060448201526064016107ce565b600e5474010000000000000000000000000000000000000000900460ff1615611a5d5760405162461bcd60e51b815260206004820152601260248201527f436f6e7472616374206973206b696c6c6564000000000000000000000000000060448201526064016107ce565b6040517f70a082310000000000000000000000000000000000000000000000000000000081523360048201526000906001600160a01b038416906370a0823190602401602060405180830381865afa158015611abd573d6000803e3d6000fd5b505050506040513d601f19601f82011682018060405250810190611ae19190613409565b90508015611895576040517f23b872dd000000000000000000000000000000000000000000000000000000008152336004820152306024820152604481018290526001600160a01b038416906323b872dd906064016020604051808303816000875af1158015611b55573d6000803e3d6000fd5b505050506040513d601f19601f82011682018060405250810190611b7991906131f8565b50600d5474010000000000000000000000000000000000000000900460ff168015611bc757506001600160a01b038316600090815260056020526040902054611bc490610e1061329b565b42115b156118955761189583612556565b6000611bdf612367565b600e5474010000000000000000000000000000000000000000900460ff1615611c4a5760405162461bcd60e51b815260206004820152601260248201527f436f6e7472616374206973206b696c6c6564000000000000000000000000000060448201526064016107ce565b6002544210611c5b57611c5b6123c0565b6001600160a01b038216600090815260056020526040902054600d5474010000000000000000000000000000000000000000900460ff168015611ca85750611ca581610e1061329b565b42115b15611cb957611cb683612556565b50425b62093a80908190040260006014815b81811015611e96576000878260148110611ce457611ce46133da565b602002015190506001600160a01b038116611cff5750611e96565b600754600090611d1c9083908a906001600160a01b03168961286f565b90508015611e8c57611d2e818661329b565b94506001600160a01b038816611db4576040516001600160a01b0383169082156108fc029083906000818181858888f19350505050611daf5760405162461bcd60e51b815260206004820152600f60248201527f5472616e73666572206661696c6564000000000000000000000000000000000060448201526064016107ce565b611e8c565b6040517fa9059cbb0000000000000000000000000000000000000000000000000000000081526001600160a01b0383811660048301526024820183905289169063a9059cbb906044016020604051808303816000875af1158015611e1c573d6000803e3d6000fd5b505050506040513d601f19601f82011682018060405250810190611e4091906131f8565b611e8c5760405162461bcd60e51b815260206004820152600f60248201527f5472616e73666572206661696c6564000000000000000000000000000000000060448201526064016107ce565b5050600101611cc8565b508115611ecb576001600160a01b0385166000908152600a602052604081208054849290611ec59084906132ae565b90915550505b60019350505050610ee56001600055565b600c546001600160a01b03163314611f365760405162461bcd60e51b815260206004820152600d60248201527f4163636573732064656e6965640000000000000000000000000000000000000060448201526064016107ce565b600d80547fffffffffffffffffffffffff0000000000000000000000000000000000000000166001600160a01b0383169081179091556040517f59a407284ae6e2986675fa1400d6498af928ed01f4fd2dd6be4a2a8b4fc35b3490600090a250565b600c546001600160a01b03163314611ff25760405162461bcd60e51b815260206004820152600d60248201527f4163636573732064656e6965640000000000000000000000000000000000000060448201526064016107ce565b600e80547fffffffffffffffffffffff00ffffffffffffffffffffffffffffffffffffffff167401000000000000000000000000000000000000000017905560085460005b818110156121ce57600060088281548110612054576120546133da565b600091825260209091200154600e546040517f70a082310000000000000000000000000000000000000000000000000000000081523060048201526001600160a01b039283169350839263a9059cbb92169083906370a0823190602401602060405180830381865afa1580156120ce573d6000803e3d6000fd5b505050506040513d601f19601f820116820180604052508101906120f29190613409565b6040517fffffffff0000000000000000000000000000000000000000000000000000000060e085901b1681526001600160a01b03909216600483015260248201526044016020604051808303816000875af1158015612155573d6000803e3d6000fd5b505050506040513d601f19601f8201168201806040525081019061217991906131f8565b6121c55760405162461bcd60e51b815260206004820152600f60248201527f5472616e73666572206661696c6564000000000000000000000000000000000060448201526064016107ce565b50600101612037565b5050565b6007546040517f81fc83bb0000000000000000000000000000000000000000000000000000000081526001600160a01b0384811660048301526000921690829082906381fc83bb90602401602060405180830381865afa15801561223a573d6000803e3d6000fd5b505050506040513d601f19601f8201168201806040525081019061225e9190613409565b9050600061226e83878785612f5c565b6040517f34d901a40000000000000000000000000000000000000000000000000000000081526001600160a01b038881166004830152602482018390529192506000918516906334d901a490604401608060405180830381865afa1580156122da573d6000803e3d6000fd5b505050506040513d601f19601f820116820180604052508101906122fe91906132d3565b9050600081604001518761231291906132ae565b8260200151612321919061336c565b825161232d919061338c565b9050600081600f0b121561234957600095505050505050610ee5565b6fffffffffffffffffffffffffffffffff169450610ee59350505050565b6002600054036123b95760405162461bcd60e51b815260206004820152601f60248201527f5265656e7472616e637947756172643a207265656e7472616e742063616c6c0060448201526064016107ce565b6002600055565b6007546002546001600160a01b0390911690600062093a806123e28142613249565b6123ec9190613284565b9050826001600160a01b031663c2c4c5c16040518163ffffffff1660e01b8152600401600060405180830381600087803b15801561242957600080fd5b505af115801561243d573d6000803e3d6000fd5b5050505060005b60148110156110b4578183116110b45760006124608585612e1d565b6040517f8ad4c447000000000000000000000000000000000000000000000000000000008152600481018290529091506000906001600160a01b03871690638ad4c44790602401608060405180830381865afa1580156124c4573d6000803e3d6000fd5b505050506040513d601f19601f820116820180604052508101906124e891906132d3565b90506000816040015186111561250a5760408201516125079087613345565b90505b80826020015161251a919061336c565b8251612526919061338c565b6000878152600b60205260409020600f9190910b905561254962093a808761329b565b9550505050600101612444565b60006001600160a01b03821661256d5750476125f1565b6040517f70a082310000000000000000000000000000000000000000000000000000000081523060048201526001600160a01b038316906370a0823190602401602060405180830381865afa1580156125ca573d6000803e3d6000fd5b505050506040513d601f19601f820116820180604052508101906125ee9190613409565b90505b6001600160a01b0382166000908152600a602052604081205461261490836132ae565b6001600160a01b0384166000908152600a60209081526040808320869055600590915281205491925061264782426132ae565b6001600160a01b038616600090815260056020526040812042905590915062093a806126738185613249565b61267d9190613284565b90506000805b60148110156128215761269962093a808461329b565b91508142101561274f57831580156126b057508442145b15612701576001600160a01b038816600090815260066020526040902086908466038d7ea4c6800081106126e6576126e66133da565b0160008282546126f6919061329b565b909155506128219050565b8361270c86426132ae565b6127169088613284565b6127209190613249565b6001600160a01b03891660009081526006602052604090208466038d7ea4c6800081106126e6576126e66133da565b8315801561275c57508482145b156127ad576001600160a01b038816600090815260066020526040902086908466038d7ea4c680008110612792576127926133da565b0160008282546127a2919061329b565b909155506128119050565b836127b886846132ae565b6127c29088613284565b6127cc9190613249565b6001600160a01b03891660009081526006602052604090208466038d7ea4c6800081106127fb576127fb6133da565b01600082825461280b919061329b565b90915550505b9093508391508190600101612683565b5060408051428152602081018790526001600160a01b038916917f6df0a5bed078180e2881e76873c40450711146fa6156da26b23f6eb7d2de8735910160405180910390a250505050505050565b6040517f81fc83bb0000000000000000000000000000000000000000000000000000000081526001600160a01b0385811660048301526000918291829182918716906381fc83bb90602401602060405180830381865afa1580156128d7573d6000803e3d6000fd5b505050506040513d601f19601f820116820180604052508101906128fb9190613409565b6001549091506000829003612917576000945050505050612e15565b6001600160a01b03808a166000908152600360209081526040808320938c168352929052908120549081900361295a57612953888b8486612f5c565b9450612983565b6001600160a01b03808b166000908152600460209081526040808320938d168352929052205494505b8460000361299057600194505b6040517f34d901a40000000000000000000000000000000000000000000000000000000081526001600160a01b038b8116600483015260248201879052600091908a16906334d901a490604401608060405180830381865afa1580156129fa573d6000803e3d6000fd5b505050506040513d601f19601f82011682018060405250810190612a1e91906132d3565b905081600003612a635762093a8080600162093a808460400151612a42919061329b565b612a4c91906132ae565b612a569190613249565b612a609190613284565b91505b878210612a795760009650505050505050612e15565b82821015612a85578291505b6040805160808101825260008082526020820181905291810182905260608101829052905b6032811015612d045789841015612d045782604001518410158015612acf5750858811155b15612be557612adf60018961329b565b975060405180608001604052808460000151600f0b81526020018460200151600f0b8152602001846040015181526020018460600151815250915085881115612b545760405180608001604052806000600f0b81526020016000600f0b81526020016000815260200160008152509250612cfc565b6040517f34d901a40000000000000000000000000000000000000000000000000000000081526001600160a01b038e81166004830152602482018a90528c16906334d901a490604401608060405180830381865afa158015612bba573d6000803e3d6000fd5b505050506040513d601f19601f82011682018060405250810190612bde91906132d3565b9250612cfc565b60006040518060600160405280846040015187612c029190613345565b815260200160008152602001600081525090508260200151600f0b8160000151612c2c9190613422565b8351612c3b9190600f0b613345565b6020820181905260001315612c5257600060208201525b6020810151158015612c6357508689115b15612c6e5750612d04565b600081602001511315612ceb576001600160a01b038d1660009081526006602052604090208566038d7ea4c680008110612caa57612caa6133da565b015460408083019182526000878152600b602090815291902054915190830151612cd49190613284565b612cde9190613249565b612ce8908961329b565b97505b612cf862093a808661329b565b9450505b600101612aaa565b50612d1985612d1460018a6132ae565b61303b565b965086600460008e6001600160a01b03166001600160a01b0316815260200190815260200160002060008d6001600160a01b03166001600160a01b031681526020019081526020016000208190555082600360008e6001600160a01b03166001600160a01b0316815260200190815260200160002060008d6001600160a01b03166001600160a01b03168152602001908152602001600020819055508b6001600160a01b03167f9cdcf2f7714cca3508c7f0110b04a90a80a3a8dd0e35de99689db74d28c5383e878988604051612e03939291909283526020830191909152604082015260600190565b60405180910390a25093955050505050505b949350505050565b600080600090506000846001600160a01b031663900cf0cf6040518163ffffffff1660e01b8152600401602060405180830381865afa158015612e64573d6000803e3d6000fd5b505050506040513d601f19601f82011682018060405250810190612e889190613409565b905060005b6080811015612f525781831015612f52576040517f8ad4c447000000000000000000000000000000000000000000000000000000008152600283850181010460048201819052906000906001600160a01b03891690638ad4c44790602401608060405180830381865afa158015612f08573d6000803e3d6000fd5b505050506040513d601f19601f82011682018060405250810190612f2c91906132d3565b905086816040015111612f4157819450612f48565b6001820393505b5050600101612e8d565b5090949350505050565b60008082815b608081101561302f578183101561302f576040517f34d901a40000000000000000000000000000000000000000000000000000000081526001600160a01b038881166004830152600284860181010460248301819052916000918b16906334d901a490604401608060405180830381865afa158015612fe5573d6000803e3d6000fd5b505050506040513d601f19601f8201168201806040525081019061300991906132d3565b90508781604001511161301e57819450613025565b6001820393505b5050600101612f62565b50909695505050505050565b600081831061304a578161304c565b825b9392505050565b80356001600160a01b038116811461098757600080fd5b6000806040838503121561307d57600080fd5b61308683613053565b946020939093013593505050565b600080604083850312156130a757600080fd5b6130b083613053565b91506130be60208401613053565b90509250929050565b6000602082840312156130d957600080fd5b5035919050565b6000602082840312156130f257600080fd5b61304c82613053565b7f4e487b7100000000000000000000000000000000000000000000000000000000600052604160045260246000fd5b600082601f83011261313b57600080fd5b60405161028080820182811067ffffffffffffffff82111715613160576131606130fb565b6040528301818582111561317357600080fd5b845b828110156131945761318681613053565b825260209182019101613175565b509195945050505050565b6000806102a083850312156131b357600080fd5b6131bc83613053565b91506130be846020850161312a565b6000806102a083850312156131df57600080fd5b6131e9848461312a565b91506130be6102808401613053565b60006020828403121561320a57600080fd5b8151801515811461304c57600080fd5b7f4e487b7100000000000000000000000000000000000000000000000000000000600052601160045260246000fd5b60008261327f577f4e487b7100000000000000000000000000000000000000000000000000000000600052601260045260246000fd5b500490565b8082028115828204841417610ee557610ee561321a565b80820180821115610ee557610ee561321a565b81810381811115610ee557610ee561321a565b8051600f81900b811461098757600080fd5b6000608082840312156132e557600080fd5b6040516080810181811067ffffffffffffffff82111715613308576133086130fb565b604052613314836132c1565b8152613322602084016132c1565b602082015260408301516040820152606083015160608201528091505092915050565b81810360008312801583831316838312821617156133655761336561321a565b5092915050565b600082600f0b82600f0b0280600f0b91508082146133655761336561321a565b600f82810b9082900b037fffffffffffffffffffffffffffffffff8000000000000000000000000000000081126f7fffffffffffffffffffffffffffffff82131715610ee557610ee561321a565b7f4e487b7100000000000000000000000000000000000000000000000000000000600052603260045260246000fd5b60006020828403121561341b57600080fd5b5051919050565b808202600082127f80000000000000000000000000000000000000000000000000000000000000008414161561345a5761345a61321a565b8181058314821517610ee557610ee561321a56fea2646970667358221220dae104d1a312b7597282b2424e7b5db82d7e2902dd1f6d6f0895b62cfb3be0b164736f6c63430008120033",
  "linkReferences": {},
  "deployedLinkReferences": {}
}