{
  "_format": "hh-sol-artifact-1",
  "contractName": "FeeDistributor",
  "sourceName": "contracts/FeeDistributor.sol",
  "abi": [
    {
      "inputs": [
        {
          "internalType": "address",
          "name": "votingEscrow_",
          "type": "address"
        },
        {
          "internalType": "address",
          "name": "factory_",
          "type": "address"
        },
        {
          "internalType": "uint256",
          "name": "startTime_",
          "type": "uint256"
        },
        {
          "internalType": "address",
          "name": "admin_",
          "type": "address"
        },
        {
          "internalType": "address",
          "name": "emergencyReturn_",
          "type": "address"
        }
      ],
      "stateMutability": "nonpayable",
      "type": "constructor"
    },
    {
      "anonymous": false,
      "inputs": [
        {
          "indexed": true,
          "internalType": "address",
          "name": "token",
          "type": "address"
        }
      ],
      "name": "AddedToken",
      "type": "event"
    },
    {
      "anonymous": false,
      "inputs": [
        {
          "indexed": true,
          "internalType": "address",
          "name": "admin",
          "type": "address"
        }
      ],
      "name": "ApplyAdmin",
      "type": "event"
    },
    {
      "anonymous": false,
      "inputs": [
        {
          "indexed": true,
          "internalType": "address",
          "name": "token",
          "type": "address"
        },
        {
          "indexed": false,
          "internalType": "uint256",
          "name": "time",
          "type": "uint256"
        },
        {
          "indexed": false,
          "internalType": "uint256",
          "name": "tokens",
          "type": "uint256"
        }
      ],
      "name": "CheckpointToken",
      "type": "event"
    },
    {
      "anonymous": false,
      "inputs": [
        {
          "indexed": true,
          "internalType": "address",
          "name": "recipient",
          "type": "address"
        },
        {
          "indexed": false,
          "internalType": "uint256",
          "name": "amount",
          "type": "uint256"
        },
        {
          "indexed": false,
          "internalType": "uint256",
          "name": "claimEpoch",
          "type": "uint256"
        },
        {
          "indexed": false,
          "internalType": "uint256",
          "name": "maxEpoch",
          "type": "uint256"
        }
      ],
      "name": "Claimed",
      "type": "event"
    },
    {
      "anonymous": false,
      "inputs": [
        {
          "indexed": true,
          "internalType": "address",
          "name": "admin",
          "type": "address"
        }
      ],
      "name": "CommitAdmin",
      "type": "event"
    },
    {
      "inputs": [],
      "name": "TOKEN_CHECKPOINT_DEADLINE",
      "outputs": [
        {
          "internalType": "uint256",
          "name": "",
          "type": "uint256"
        }
      ],
      "stateMutability": "view",
      "type": "function"
    },
    {
      "inputs": [],
      "name": "WEEK",
      "outputs": [
        {
          "internalType": "uint256",
          "name": "",
          "type": "uint256"
        }
      ],
      "stateMutability": "view",
      "type": "function"
    },
    {
      "inputs": [
        {
          "internalType": "address",
          "name": "coin_",
          "type": "address"
        }
      ],
      "name": "addRewardToken",
      "outputs": [
        {
          "internalType": "bool",
          "name": "",
          "type": "bool"
        }
      ],
      "stateMutability": "nonpayable",
      "type": "function"
    },
    {
      "inputs": [],
      "name": "admin",
      "outputs": [
        {
          "internalType": "address",
          "name": "",
          "type": "address"
        }
      ],
      "stateMutability": "view",
      "type": "function"
    },
    {
      "inputs": [],
      "name": "applyAdmin",
      "outputs": [],
      "stateMutability": "nonpayable",
      "type": "function"
    },
    {
      "inputs": [
        {
          "internalType": "address",
          "name": "token_",
          "type": "address"
        }
      ],
      "name": "checkpointToken",
      "outputs": [],
      "stateMutability": "nonpayable",
      "type": "function"
    },
    {
      "inputs": [],
      "name": "checkpointTotalSupply",
      "outputs": [],
      "stateMutability": "nonpayable",
      "type": "function"
    },
    {
      "inputs": [
        {
          "internalType": "address",
          "name": "token_",
          "type": "address"
        }
      ],
      "name": "claim",
      "outputs": [
        {
          "internalType": "uint256",
          "name": "",
          "type": "uint256"
        }
      ],
      "stateMutability": "nonpayable",
      "type": "function"
    },
    {
      "inputs": [
        {
          "internalType": "address",
          "name": "addr_",
          "type": "address"
        },
        {
          "internalType": "address",
          "name": "token_",
          "type": "address"
        }
      ],
      "name": "claim",
      "outputs": [
        {
          "internalType": "uint256",
          "name": "",
          "type": "uint256"
        }
      ],
      "stateMutability": "nonpayable",
      "type": "function"
    },
    {
      "inputs": [
        {
          "internalType": "address[20]",
          "name": "receivers_",
          "type": "address[20]"
        },
        {
          "internalType": "address",
          "name": "token_",
          "type": "address"
        }
      ],
      "name": "claimMany",
      "outputs": [
        {
          "internalType": "bool",
          "name": "",
          "type": "bool"
        }
      ],
      "stateMutability": "nonpayable",
      "type": "function"
    },
    {
      "inputs": [
        {
          "internalType": "address",
          "name": "addr_",
          "type": "address"
        },
        {
          "internalType": "address[20]",
          "name": "tokens_",
          "type": "address[20]"
        }
      ],
      "name": "claimMultipleTokens",
      "outputs": [
        {
          "internalType": "bool",
          "name": "",
          "type": "bool"
        }
      ],
      "stateMutability": "nonpayable",
      "type": "function"
    },
    {
      "inputs": [
        {
          "internalType": "address",
          "name": "addr_",
          "type": "address"
        }
      ],
      "name": "commitAdmin",
      "outputs": [],
      "stateMutability": "nonpayable",
      "type": "function"
    },
    {
      "inputs": [],
      "name": "emergencyReturn",
      "outputs": [
        {
          "internalType": "address",
          "name": "",
          "type": "address"
        }
      ],
      "stateMutability": "view",
      "type": "function"
    },
    {
      "inputs": [],
      "name": "factory",
      "outputs": [
        {
          "internalType": "address",
          "name": "",
          "type": "address"
        }
      ],
      "stateMutability": "view",
      "type": "function"
    },
    {
      "inputs": [],
      "name": "futureAdmin",
      "outputs": [
        {
          "internalType": "address",
          "name": "",
          "type": "address"
        }
      ],
      "stateMutability": "view",
      "type": "function"
    },
    {
      "inputs": [],
      "name": "isKilled",
      "outputs": [
        {
          "internalType": "bool",
          "name": "",
          "type": "bool"
        }
      ],
      "stateMutability": "view",
      "type": "function"
    },
    {
      "inputs": [],
      "name": "killMe",
      "outputs": [],
      "stateMutability": "nonpayable",
      "type": "function"
    },
    {
      "inputs": [
        {
          "internalType": "address",
          "name": "",
          "type": "address"
        }
      ],
      "name": "lastTokenTime",
      "outputs": [
        {
          "internalType": "uint256",
          "name": "",
          "type": "uint256"
        }
      ],
      "stateMutability": "view",
      "type": "function"
    },
    {
      "inputs": [
        {
          "internalType": "address",
          "name": "coin_",
          "type": "address"
        }
      ],
      "name": "recoverBalance",
      "outputs": [
        {
          "internalType": "bool",
          "name": "",
          "type": "bool"
        }
      ],
      "stateMutability": "nonpayable",
      "type": "function"
    },
    {
      "inputs": [],
      "name": "startTime",
      "outputs": [
        {
          "internalType": "uint256",
          "name": "",
          "type": "uint256"
        }
      ],
      "stateMutability": "view",
      "type": "function"
    },
    {
      "inputs": [],
      "name": "timeCursor",
      "outputs": [
        {
          "internalType": "uint256",
          "name": "",
          "type": "uint256"
        }
      ],
      "stateMutability": "view",
      "type": "function"
    },
    {
      "inputs": [
        {
          "internalType": "address",
          "name": "",
          "type": "address"
        },
        {
          "internalType": "address",
          "name": "",
          "type": "address"
        }
      ],
      "name": "timeCursorOf",
      "outputs": [
        {
          "internalType": "uint256",
          "name": "",
          "type": "uint256"
        }
      ],
      "stateMutability": "view",
      "type": "function"
    },
    {
      "inputs": [
        {
          "internalType": "address",
          "name": "",
          "type": "address"
        }
      ],
      "name": "tokenFlags",
      "outputs": [
        {
          "internalType": "bool",
          "name": "",
          "type": "bool"
        }
      ],
      "stateMutability": "view",
      "type": "function"
    },
    {
      "inputs": [
        {
          "internalType": "address",
          "name": "",
          "type": "address"
        }
      ],
      "name": "tokenLastBalance",
      "outputs": [
        {
          "internalType": "uint256",
          "name": "",
          "type": "uint256"
        }
      ],
      "stateMutability": "view",
      "type": "function"
    },
    {
      "inputs": [
        {
          "internalType": "uint256",
          "name": "",
          "type": "uint256"
        }
      ],
      "name": "tokens",
      "outputs": [
        {
          "internalType": "address",
          "name": "",
          "type": "address"
        }
      ],
      "stateMutability": "view",
      "type": "function"
    },
    {
      "inputs": [
        {
          "internalType": "address",
          "name": "",
          "type": "address"
        },
        {
          "internalType": "uint256",
          "name": "",
          "type": "uint256"
        }
      ],
      "name": "tokensPerWeek",
      "outputs": [
        {
          "internalType": "uint256",
          "name": "",
          "type": "uint256"
        }
      ],
      "stateMutability": "view",
      "type": "function"
    },
    {
      "inputs": [
        {
          "internalType": "address",
          "name": "",
          "type": "address"
        },
        {
          "internalType": "address",
          "name": "",
          "type": "address"
        }
      ],
      "name": "userEpochOf",
      "outputs": [
        {
          "internalType": "uint256",
          "name": "",
          "type": "uint256"
        }
      ],
      "stateMutability": "view",
      "type": "function"
    },
    {
      "inputs": [
        {
          "internalType": "address",
          "name": "user_",
          "type": "address"
        },
        {
          "internalType": "uint256",
          "name": "timestamp_",
          "type": "uint256"
        }
      ],
      "name": "veForAt",
      "outputs": [
        {
          "internalType": "uint256",
          "name": "",
          "type": "uint256"
        }
      ],
      "stateMutability": "view",
      "type": "function"
    },
    {
      "inputs": [
        {
          "internalType": "uint256",
          "name": "",
          "type": "uint256"
        }
      ],
      "name": "veSupply",
      "outputs": [
        {
          "internalType": "uint256",
          "name": "",
          "type": "uint256"
        }
      ],
      "stateMutability": "view",
      "type": "function"
    },
    {
      "inputs": [],
      "name": "votingEscrow",
      "outputs": [
        {
          "internalType": "address",
          "name": "",
          "type": "address"
        }
      ],
      "stateMutability": "view",
      "type": "function"
    },
    {
      "stateMutability": "payable",
      "type": "receive"
    }
  ],
  "bytecode": "0x60a06040523480156200001157600080fd5b506040516200329b3803806200329b833981016040819052620000349162000157565b6001600090815562093a806200004b8186620001be565b620000579190620001e1565b60018181557f05b8ccbb9d4d8fb16ea74ce3c29a41f1b461fbdaff4714a0d9a8eb05499746bc829055600291909155600880548083019091557ff3f7a9fe364faab93b216da50a3214154f22a0a2b415b23a84c8169e8b636ee30180546001600160a01b03199081169091556000805260096020527fec8156718a8372b1db44bb411437d0870f3e3790d4a08526d024ce1b0b668f6b805460ff19169092179091556007805482166001600160a01b0398891617905594861660805250600c8054851692861692909217909155600e80549093169316929092179055506200020d565b80516001600160a01b03811681146200015257600080fd5b919050565b600080600080600060a086880312156200017057600080fd5b6200017b866200013a565b94506200018b602087016200013a565b935060408601519250620001a2606087016200013a565b9150620001b2608087016200013a565b90509295509295909350565b600082620001dc57634e487b7160e01b600052601260045260246000fd5b500490565b80820281158282048414176200020757634e487b7160e01b600052601160045260246000fd5b92915050565b60805161306462000237600039600081816105490152818161067b0152610e6901526130646000f3fe6080604052600436106101d05760003560e01c806368662ea0116100f7578063b0f3b73411610095578063e1d2bf6911610064578063e1d2bf691461059b578063f3648241146105c8578063f4359ce5146105e8578063f851a440146105ff57600080fd5b8063b0f3b73414610502578063b603cd8014610522578063c45a015514610537578063c50d400d1461056b57600080fd5b80638736659b116100d15780638736659b146104835780638fe8a10114610499578063a186dc08146104cb578063a5420e98146104eb57600080fd5b806368662ea01461042057806378e97925146104405780637d9332271461045657600080fd5b806338b74b471161016f5780634f2bfe5b1161013e5780634f2bfe5b146103a05780634f64b2be146103c05780635a4b8c1d146103e05780636089627f1461040057600080fd5b806338b74b47146102fb5780633902b9bc146103335780634cb654af146103535780634e67428d1461038b57600080fd5b80631c03e6cc116101ab5780631c03e6cc146102745780631e83409a146102a457806321c0b342146102c4578063326a9407146102e457600080fd5b8062d440c1146101dc578063071cb5ad1461020f5780630f6592ef1461024757600080fd5b366101d757005b600080fd5b3480156101e857600080fd5b506101fc6101f7366004612c2a565b61061f565b6040519081526020015b60405180910390f35b34801561021b57600080fd5b506101fc61022a366004612c54565b600460209081526000928352604080842090915290825290205481565b34801561025357600080fd5b506101fc610262366004612c87565b600b6020526000908152604090205481565b34801561028057600080fd5b5061029461028f366004612ca0565b61064a565b6040519015158152602001610206565b3480156102b057600080fd5b506101fc6102bf366004612ca0565b6108f4565b3480156102d057600080fd5b506101fc6102df366004612c54565b610b53565b3480156102f057600080fd5b506102f9610db5565b005b34801561030757600080fd5b506101fc610316366004612c54565b600360209081526000928352604080842090915290825290205481565b34801561033f57600080fd5b506102f961034e366004612ca0565b610dbf565b34801561035f57600080fd5b50600d54610373906001600160a01b031681565b6040516001600160a01b039091168152602001610206565b34801561039757600080fd5b506102f9610f34565b3480156103ac57600080fd5b50600754610373906001600160a01b031681565b3480156103cc57600080fd5b506103736103db366004612c87565b61104a565b3480156103ec57600080fd5b50600e54610373906001600160a01b031681565b34801561040c57600080fd5b5061029461041b366004612d5f565b611074565b34801561042c57600080fd5b5061029461043b366004612ca0565b61137f565b34801561044c57600080fd5b506101fc60015481565b34801561046257600080fd5b506101fc610471366004612ca0565b60056020526000908152604090205481565b34801561048f57600080fd5b506101fc60025481565b3480156104a557600080fd5b50600e546102949074010000000000000000000000000000000000000000900460ff1681565b3480156104d757600080fd5b506102946104e6366004612d8b565b611636565b3480156104f757600080fd5b506101fc6201518081565b34801561050e57600080fd5b506102f961051d366004612ca0565b6118f7565b34801561052e57600080fd5b506102f96119b3565b34801561054357600080fd5b506103737f000000000000000000000000000000000000000000000000000000000000000081565b34801561057757600080fd5b50610294610586366004612ca0565b60096020526000908152604090205460ff1681565b3480156105a757600080fd5b506101fc6105b6366004612ca0565b600a6020526000908152604090205481565b3480156105d457600080fd5b506101fc6105e3366004612c2a565b611c74565b3480156105f457600080fd5b506101fc62093a8081565b34801561060b57600080fd5b50600c54610373906001600160a01b031681565b60066020528160005260406000208166038d7ea4c68000811061064157600080fd5b01549150829050565b6040517f1d59410a0000000000000000000000000000000000000000000000000000000081523360048201526000907f00000000000000000000000000000000000000000000000000000000000000006001600160a01b031690631d59410a90602401602060405180830381865afa1580156106ca573d6000803e3d6000fd5b505050506040513d601f19601f820116820180604052508101906106ee9190612db8565b61073f5760405162461bcd60e51b815260206004820152601860248201527f596f7520617265206e6f74207468652061756374696f6e2e000000000000000060448201526064015b60405180910390fd5b6001600160a01b0382166107955760405162461bcd60e51b815260206004820152601960248201527f45544820697320616c72656164792072656769737465726564000000000000006044820152606401610736565b6001600160a01b03821660009081526009602052604090205460ff16156107fe5760405162461bcd60e51b815260206004820152601b60248201527f546f6b656e20697320616c7265616479207265676973746572656400000000006044820152606401610736565b600062093a8061080e8142612e09565b6108189190612e44565b6001600160a01b0384166000818152600560209081526040808320859055600990915280822080547fffffffffffffffffffffffffffffffffffffffffffffffffffffffffffffff0016600190811790915560088054918201815583527ff3f7a9fe364faab93b216da50a3214154f22a0a2b415b23a84c8169e8b636ee30180547fffffffffffffffffffffffff000000000000000000000000000000000000000016841790555192935090917f4bbe03be846191383bf3fc4e9dcdc8312ef44d20eec28c2370c51603ba6f80a69190a260019150505b919050565b60006108fe611e09565b600e5474010000000000000000000000000000000000000000900460ff16156109695760405162461bcd60e51b815260206004820152601260248201527f436f6e7472616374206973206b696c6c656400000000000000000000000000006044820152606401610736565b6002543390421061097c5761097c611e62565b6001600160a01b0383811660009081526005602052604081205460075462093a8091829004909102926109b491859188911685612000565b90508015610b45576001600160a01b0385166000908152600a6020526040812080548392906109e4908490612e5b565b90915550506001600160a01b038516610a6d576040516001600160a01b0384169082156108fc029083906000818181858888f19350505050610a685760405162461bcd60e51b815260206004820152600f60248201527f5472616e73666572206661696c656400000000000000000000000000000000006044820152606401610736565b610b45565b6040517fa9059cbb0000000000000000000000000000000000000000000000000000000081526001600160a01b0384811660048301526024820183905286169063a9059cbb906044016020604051808303816000875af1158015610ad5573d6000803e3d6000fd5b505050506040513d601f19601f82011682018060405250810190610af99190612db8565b610b455760405162461bcd60e51b815260206004820152600f60248201527f5472616e73666572206661696c656400000000000000000000000000000000006044820152606401610736565b925050506108ef6001600055565b6000610b5d611e09565b600e5474010000000000000000000000000000000000000000900460ff1615610bc85760405162461bcd60e51b815260206004820152601260248201527f436f6e7472616374206973206b696c6c656400000000000000000000000000006044820152606401610736565b6002544210610bd957610bd9611e62565b6001600160a01b0382811660009081526005602052604081205460075462093a809182900490910292610c1191879187911685612000565b90508015610da2576001600160a01b0384166000908152600a602052604081208054839290610c41908490612e5b565b90915550506001600160a01b038416610cca576040516001600160a01b0386169082156108fc029083906000818181858888f19350505050610cc55760405162461bcd60e51b815260206004820152600f60248201527f5472616e73666572206661696c656400000000000000000000000000000000006044820152606401610736565b610da2565b6040517fa9059cbb0000000000000000000000000000000000000000000000000000000081526001600160a01b0386811660048301526024820183905285169063a9059cbb906044016020604051808303816000875af1158015610d32573d6000803e3d6000fd5b505050506040513d601f19601f82011682018060405250810190610d569190612db8565b610da25760405162461bcd60e51b815260206004820152600f60248201527f5472616e73666572206661696c656400000000000000000000000000000000006044820152606401610736565b915050610daf6001600055565b92915050565b610dbd611e62565b565b6001600160a01b03811660009081526009602052604090205460ff16610e275760405162461bcd60e51b815260206004820152601460248201527f546f6b656e206e6f7420726567697374657265640000000000000000000000006044820152606401610736565b600c546001600160a01b0316331480610edc57506040517f1d59410a0000000000000000000000000000000000000000000000000000000081523360048201527f00000000000000000000000000000000000000000000000000000000000000006001600160a01b031690631d59410a90602401602060405180830381865afa158015610eb8573d6000803e3d6000fd5b505050506040513d601f19601f82011682018060405250810190610edc9190612db8565b610f285760405162461bcd60e51b815260206004820152600c60248201527f556e617574686f72697a656400000000000000000000000000000000000000006044820152606401610736565b610f3181612601565b50565b600c546001600160a01b03163314610f8e5760405162461bcd60e51b815260206004820152600d60248201527f4163636573732064656e696564000000000000000000000000000000000000006044820152606401610736565b600d546001600160a01b0316610fe65760405162461bcd60e51b815260206004820152600c60248201527f4e6f2061646d696e2073657400000000000000000000000000000000000000006044820152606401610736565b600d54600c80547fffffffffffffffffffffffff0000000000000000000000000000000000000000166001600160a01b0390921691821790556040517f756f845176805c8ebf249854e909627308157f63c96e470e44a9e8549ba6fb1e90600090a2565b6008818154811061105a57600080fd5b6000918252602090912001546001600160a01b0316905081565b600061107e611e09565b600e5474010000000000000000000000000000000000000000900460ff16156110e95760405162461bcd60e51b815260206004820152601260248201527f436f6e7472616374206973206b696c6c656400000000000000000000000000006044820152606401610736565b6001600160a01b03831661113f5760405162461bcd60e51b815260206004820152601760248201527f416464726573732073686f756c64206e6f74207a65726f0000000000000000006044820152606401610736565b600254421061115057611150611e62565b601460005b8181101561136f57600084826014811061117157611171612e6e565b602090810291909101516001600160a01b0381166000908152600590925260409091205490915062093a806111a68183612e09565b6111b09190612e44565b6007549091506000906111d090899085906001600160a01b031685612000565b90508015611361576001600160a01b0383166000908152600a602052604081208054839290611200908490612e5b565b90915550506001600160a01b038316611289576040516001600160a01b0389169082156108fc029083906000818181858888f193505050506112845760405162461bcd60e51b815260206004820152600f60248201527f5472616e73666572206661696c656400000000000000000000000000000000006044820152606401610736565b611361565b6040517fa9059cbb0000000000000000000000000000000000000000000000000000000081526001600160a01b0389811660048301526024820183905284169063a9059cbb906044016020604051808303816000875af11580156112f1573d6000803e3d6000fd5b505050506040513d601f19601f820116820180604052508101906113159190612db8565b6113615760405162461bcd60e51b815260206004820152600f60248201527f5472616e73666572206661696c656400000000000000000000000000000000006044820152606401610736565b836001019350505050611155565b506001915050610daf6001600055565b600c546000906001600160a01b031633146113dc5760405162461bcd60e51b815260206004820152600d60248201527f4163636573732064656e696564000000000000000000000000000000000000006044820152606401610736565b6001600160a01b03821660009081526009602052604090205460ff166114445760405162461bcd60e51b815260206004820152601960248201527f43616e6e6f74207265636f766572207468697320746f6b656e000000000000006044820152606401610736565b6001600160a01b0382166114cb57600e546040516001600160a01b03909116904780156108fc02916000818181858888f193505050506114c65760405162461bcd60e51b815260206004820152600f60248201527f5472616e73666572206661696c656400000000000000000000000000000000006044820152606401610736565b61162e565b600e546040517f70a082310000000000000000000000000000000000000000000000000000000081523060048201526001600160a01b038481169263a9059cbb9291169083906370a0823190602401602060405180830381865afa158015611537573d6000803e3d6000fd5b505050506040513d601f19601f8201168201806040525081019061155b9190612e9d565b6040517fffffffff0000000000000000000000000000000000000000000000000000000060e085901b1681526001600160a01b03909216600483015260248201526044016020604051808303816000875af11580156115be573d6000803e3d6000fd5b505050506040513d601f19601f820116820180604052508101906115e29190612db8565b61162e5760405162461bcd60e51b815260206004820152600f60248201527f5472616e73666572206661696c656400000000000000000000000000000000006044820152606401610736565b506001919050565b6000611640611e09565b600e5474010000000000000000000000000000000000000000900460ff16156116ab5760405162461bcd60e51b815260206004820152601260248201527f436f6e7472616374206973206b696c6c656400000000000000000000000000006044820152606401610736565b60025442106116bc576116bc611e62565b6001600160a01b03821660009081526005602052604081205462093a809081900402906014815b818110156118b15760008782601481106116ff576116ff612e6e565b602002015190506001600160a01b03811661171a57506118b1565b6007546000906117379083908a906001600160a01b031689612000565b905080156118a7576117498186612eb6565b94506001600160a01b0388166117cf576040516001600160a01b0383169082156108fc029083906000818181858888f193505050506117ca5760405162461bcd60e51b815260206004820152600f60248201527f5472616e73666572206661696c656400000000000000000000000000000000006044820152606401610736565b6118a7565b6040517fa9059cbb0000000000000000000000000000000000000000000000000000000081526001600160a01b0383811660048301526024820183905289169063a9059cbb906044016020604051808303816000875af1158015611837573d6000803e3d6000fd5b505050506040513d601f19601f8201168201806040525081019061185b9190612db8565b6118a75760405162461bcd60e51b815260206004820152600f60248201527f5472616e73666572206661696c656400000000000000000000000000000000006044820152606401610736565b50506001016116e3565b5081156118e6576001600160a01b0385166000908152600a6020526040812080548492906118e0908490612e5b565b90915550505b60019350505050610daf6001600055565b600c546001600160a01b031633146119515760405162461bcd60e51b815260206004820152600d60248201527f4163636573732064656e696564000000000000000000000000000000000000006044820152606401610736565b600d80547fffffffffffffffffffffffff0000000000000000000000000000000000000000166001600160a01b0383169081179091556040517f59a407284ae6e2986675fa1400d6498af928ed01f4fd2dd6be4a2a8b4fc35b3490600090a250565b600c546001600160a01b03163314611a0d5760405162461bcd60e51b815260206004820152600d60248201527f4163636573732064656e696564000000000000000000000000000000000000006044820152606401610736565b600e80547fffffffffffffffffffffff00ffffffffffffffffffffffffffffffffffffffff167401000000000000000000000000000000000000000017905560085460005b81811015611c7057600060088281548110611a6f57611a6f612e6e565b6000918252602090912001546001600160a01b0316905080611b0457600e546040516001600160a01b03909116904780156108fc02916000818181858888f19350505050611aff5760405162461bcd60e51b815260206004820152600f60248201527f5472616e73666572206661696c656400000000000000000000000000000000006044820152606401610736565b611c67565b600e546040517f70a082310000000000000000000000000000000000000000000000000000000081523060048201526001600160a01b038381169263a9059cbb9291169083906370a0823190602401602060405180830381865afa158015611b70573d6000803e3d6000fd5b505050506040513d601f19601f82011682018060405250810190611b949190612e9d565b6040517fffffffff0000000000000000000000000000000000000000000000000000000060e085901b1681526001600160a01b03909216600483015260248201526044016020604051808303816000875af1158015611bf7573d6000803e3d6000fd5b505050506040513d601f19601f82011682018060405250810190611c1b9190612db8565b611c675760405162461bcd60e51b815260206004820152600f60248201527f5472616e73666572206661696c656400000000000000000000000000000000006044820152606401610736565b50600101611a52565b5050565b6007546040517f81fc83bb0000000000000000000000000000000000000000000000000000000081526001600160a01b0384811660048301526000921690829082906381fc83bb90602401602060405180830381865afa158015611cdc573d6000803e3d6000fd5b505050506040513d601f19601f82011682018060405250810190611d009190612e9d565b90506000611d10838787856129dd565b6040517f34d901a40000000000000000000000000000000000000000000000000000000081526001600160a01b038881166004830152602482018390529192506000918516906334d901a490604401608060405180830381865afa158015611d7c573d6000803e3d6000fd5b505050506040513d601f19601f82011682018060405250810190611da09190612edb565b90506000816040015187611db49190612e5b565b8260200151611dc39190612f4d565b8251611dcf9190612f74565b9050600081600f0b1215611deb57600095505050505050610daf565b6fffffffffffffffffffffffffffffffff169450610daf9350505050565b600260005403611e5b5760405162461bcd60e51b815260206004820152601f60248201527f5265656e7472616e637947756172643a207265656e7472616e742063616c6c006044820152606401610736565b6002600055565b6007546002546001600160a01b0390911690600062093a80611e848142612e09565b611e8e9190612e44565b9050826001600160a01b031663c2c4c5c16040518163ffffffff1660e01b8152600401600060405180830381600087803b158015611ecb57600080fd5b505af1158015611edf573d6000803e3d6000fd5b5050505060005b6014811015611ff857818311611ff8576000611f028585612abc565b6040517f8ad4c447000000000000000000000000000000000000000000000000000000008152600481018290529091506000906001600160a01b03871690638ad4c44790602401608060405180830381865afa158015611f66573d6000803e3d6000fd5b505050506040513d601f19601f82011682018060405250810190611f8a9190612edb565b905060008160400151861115611fac576040820151611fa99087612fc2565b90505b808260200151611fbc9190612f4d565b8251611fc89190612f74565b6000878152600b60205260409020600f9190910b9055611feb62093a8087612eb6565b9550505050600101611ee6565b505060025550565b6000806040518060e001604052806000815260200160008152602001856001600160a01b03166381fc83bb896040518263ffffffff1660e01b815260040161205791906001600160a01b0391909116815260200190565b602060405180830381865afa158015612074573d6000803e3d6000fd5b505050506040513d601f19601f820116820180604052508101906120989190612e9d565b8152600154602082015260400162093a806120b38142612e09565b6120bd9190612e44565b81526020810185905260400162093a80806120d88188612eb6565b6120e29190612e09565b6120ec9190612e44565b81525090508060c0015181608001511061210b5760c081015160a08201525b80604001516000036121215760009150506125f9565b6001600160a01b0380871660009081526003602090815260408083209389168352929052908120549081900361216c576121658588846060015185604001516129dd565b8252612195565b6001600160a01b038088166000908152600460209081526040808320938a168352929052205482525b81516000036121a357600182525b81516040517f34d901a40000000000000000000000000000000000000000000000000000000081526001600160a01b03898116600483015260248201929092526000918716906334d901a490604401608060405180830381865afa15801561220f573d6000803e3d6000fd5b505050506040513d601f19601f820116820180604052508101906122339190612edb565b9050816000036122785762093a8080600162093a8084604001516122579190612eb6565b6122619190612e5b565b61226b9190612e09565b6122759190612e44565b91505b8260a00151821061228f57600093505050506125f9565b82606001518210156122a357826060015191505b6040805160808101825260008082526020820181905291810182905260608101829052905b6032811015612545578460a0015184101561254557826040015184101580156122f657506040850151855111155b156124195760018560000181815161230e9190612eb6565b905250604080516080810182528451600f90810b825260208087015190910b9082015284820151818301526060808601519082015290860151865191935010156123845760405180608001604052806000600f0b81526020016000600f0b8152602001600081526020016000815250925061253d565b84516040517f34d901a40000000000000000000000000000000000000000000000000000000081526001600160a01b038c811660048301526024820192909252908916906334d901a490604401608060405180830381865afa1580156123ee573d6000803e3d6000fd5b505050506040513d601f19601f820116820180604052508101906124129190612edb565b925061253d565b600060405180606001604052808460400151876124369190612fc2565b815260200160008152602001600081525090508260200151600f0b81600001516124609190612fe2565b835161246f9190600f0b612fc2565b602082018190526000131561248657600060208201525b602081015115801561249c575060408601518651115b156124a75750612545565b60008160200151131561252c576001600160a01b038a1660009081526006602052604090208566038d7ea4c6800081106124e3576124e3612e6e565b015460408083019182526000878152600b60209081529190205491519083015161250d9190612e44565b6125179190612e09565b866020018181516125289190612eb6565b9052505b61253962093a8086612eb6565b9450505b6001016122c8565b5061256484604001516001866000015161255f9190612e5b565b612bfb565b8085526001600160a01b038a81166000818152600460209081526040808320948e168084529482528083209590955582825260038152848220938252928352839020869055818701518751848901518551928352938201528084019290925291517f9cdcf2f7714cca3508c7f0110b04a90a80a3a8dd0e35de99689db74d28c5383e9181900360600190a25050506020015190505b949350505050565b60006001600160a01b03821661261857504761269c565b6040517f70a082310000000000000000000000000000000000000000000000000000000081523060048201526001600160a01b038316906370a0823190602401602060405180830381865afa158015612675573d6000803e3d6000fd5b505050506040513d601f19601f820116820180604052508101906126999190612e9d565b90505b6001600160a01b0382166000908152600a60205260408120546126bf9083612e5b565b6001600160a01b0384166000908152600a6020908152604080832086905560059091528120549192506126f28242612e5b565b9050600061270362093a8042612e09565b9050600061271462093a8085612e09565b61271e9083612e5b565b905080156127715762093a80806127358187612eb6565b61273f9190612e09565b6127499190612e44565b93506127558442612e5b565b925061276462093a8085612e09565b61276e9083612e5b565b90505b601481106127b65762093a8080612789816013612e44565b6127939042612e5b565b61279d9190612e09565b6127a79190612e44565b93506127b38442612e5b565b92505b6001600160a01b038716600090815260056020526040812042905562093a806127df8187612e09565b6127e99190612e44565b90506000805b601481101561298d5761280562093a8084612eb6565b9150814210156128bb578515801561281c57508642145b1561286d576001600160a01b038a16600090815260066020526040902088908466038d7ea4c68000811061285257612852612e6e565b0160008282546128629190612eb6565b9091555061298d9050565b856128788842612e5b565b612882908a612e44565b61288c9190612e09565b6001600160a01b038b1660009081526006602052604090208466038d7ea4c68000811061285257612852612e6e565b851580156128c857508682145b15612919576001600160a01b038a16600090815260066020526040902088908466038d7ea4c6800081106128fe576128fe612e6e565b01600082825461290e9190612eb6565b9091555061297d9050565b856129248884612e5b565b61292e908a612e44565b6129389190612e09565b6001600160a01b038b1660009081526006602052604090208466038d7ea4c68000811061296757612967612e6e565b0160008282546129779190612eb6565b90915550505b90955085915081906001016127ef565b5060408051428152602081018990526001600160a01b038b16917f6df0a5bed078180e2881e76873c40450711146fa6156da26b23f6eb7d2de8735910160405180910390a2505050505050505050565b60008082815b6080811015612ab05781831015612ab0576040517f34d901a40000000000000000000000000000000000000000000000000000000081526001600160a01b038881166004830152600284860181010460248301819052916000918b16906334d901a490604401608060405180830381865afa158015612a66573d6000803e3d6000fd5b505050506040513d601f19601f82011682018060405250810190612a8a9190612edb565b905087816040015111612a9f57819450612aa6565b6001820393505b50506001016129e3565b50909695505050505050565b600080600090506000846001600160a01b031663900cf0cf6040518163ffffffff1660e01b8152600401602060405180830381865afa158015612b03573d6000803e3d6000fd5b505050506040513d601f19601f82011682018060405250810190612b279190612e9d565b905060005b6080811015612bf15781831015612bf1576040517f8ad4c447000000000000000000000000000000000000000000000000000000008152600283850181010460048201819052906000906001600160a01b03891690638ad4c44790602401608060405180830381865afa158015612ba7573d6000803e3d6000fd5b505050506040513d601f19601f82011682018060405250810190612bcb9190612edb565b905086816040015111612be057819450612be7565b6001820393505b5050600101612b2c565b5090949350505050565b6000818310612c0a5781612c0c565b825b9392505050565b80356001600160a01b03811681146108ef57600080fd5b60008060408385031215612c3d57600080fd5b612c4683612c13565b946020939093013593505050565b60008060408385031215612c6757600080fd5b612c7083612c13565b9150612c7e60208401612c13565b90509250929050565b600060208284031215612c9957600080fd5b5035919050565b600060208284031215612cb257600080fd5b612c0c82612c13565b7f4e487b7100000000000000000000000000000000000000000000000000000000600052604160045260246000fd5b600082601f830112612cfb57600080fd5b60405161028080820182811067ffffffffffffffff82111715612d2057612d20612cbb565b60405283018185821115612d3357600080fd5b845b82811015612d5457612d4681612c13565b825260209182019101612d35565b509195945050505050565b6000806102a08385031215612d7357600080fd5b612d7c83612c13565b9150612c7e8460208501612cea565b6000806102a08385031215612d9f57600080fd5b612da98484612cea565b9150612c7e6102808401612c13565b600060208284031215612dca57600080fd5b81518015158114612c0c57600080fd5b7f4e487b7100000000000000000000000000000000000000000000000000000000600052601160045260246000fd5b600082612e3f577f4e487b7100000000000000000000000000000000000000000000000000000000600052601260045260246000fd5b500490565b8082028115828204841417610daf57610daf612dda565b81810381811115610daf57610daf612dda565b7f4e487b7100000000000000000000000000000000000000000000000000000000600052603260045260246000fd5b600060208284031215612eaf57600080fd5b5051919050565b80820180821115610daf57610daf612dda565b8051600f81900b81146108ef57600080fd5b600060808284031215612eed57600080fd5b6040516080810181811067ffffffffffffffff82111715612f1057612f10612cbb565b604052612f1c83612ec9565b8152612f2a60208401612ec9565b602082015260408301516040820152606083015160608201528091505092915050565b600082600f0b82600f0b0280600f0b9150808214612f6d57612f6d612dda565b5092915050565b600f82810b9082900b037fffffffffffffffffffffffffffffffff8000000000000000000000000000000081126f7fffffffffffffffffffffffffffffff82131715610daf57610daf612dda565b8181036000831280158383131683831282161715612f6d57612f6d612dda565b808202600082127f80000000000000000000000000000000000000000000000000000000000000008414161561301a5761301a612dda565b8181058314821517610daf57610daf612dda56fea26469706673582212209885fd30cb9d9013d45e8a9c46f1a94bb02b471a121d87361e06bce99b46a19364736f6c63430008120033",
  "linkReferences": {},
  "deployedLinkReferences": {}
}