{
  "_format": "hh-sol-artifact-1",
  "contractName": "FeeDistributor",
  "sourceName": "contracts/FeeDistributor.sol",
  "abi": [
    {
      "inputs": [
        {
          "internalType": "address",
          "name": "votingEscrow_",
          "type": "address"
        },
        {
          "internalType": "address",
          "name": "factory_",
          "type": "address"
        },
        {
          "internalType": "uint256",
          "name": "startTime_",
          "type": "uint256"
        },
        {
          "internalType": "address",
          "name": "admin_",
          "type": "address"
        },
        {
          "internalType": "address",
          "name": "emergencyReturn_",
          "type": "address"
        }
      ],
      "stateMutability": "nonpayable",
      "type": "constructor"
    },
    {
      "anonymous": false,
      "inputs": [
        {
          "indexed": true,
          "internalType": "address",
          "name": "admin",
          "type": "address"
        }
      ],
      "name": "ApplyAdmin",
      "type": "event"
    },
    {
      "anonymous": false,
      "inputs": [
        {
          "indexed": true,
          "internalType": "address",
          "name": "token",
          "type": "address"
        },
        {
          "indexed": false,
          "internalType": "uint256",
          "name": "time",
          "type": "uint256"
        },
        {
          "indexed": false,
          "internalType": "uint256",
          "name": "tokens",
          "type": "uint256"
        }
      ],
      "name": "CheckpointToken",
      "type": "event"
    },
    {
      "anonymous": false,
      "inputs": [
        {
          "indexed": true,
          "internalType": "address",
          "name": "recipient",
          "type": "address"
        },
        {
          "indexed": false,
          "internalType": "uint256",
          "name": "amount",
          "type": "uint256"
        },
        {
          "indexed": false,
          "internalType": "uint256",
          "name": "claimEpoch",
          "type": "uint256"
        },
        {
          "indexed": false,
          "internalType": "uint256",
          "name": "maxEpoch",
          "type": "uint256"
        }
      ],
      "name": "Claimed",
      "type": "event"
    },
    {
      "anonymous": false,
      "inputs": [
        {
          "indexed": true,
          "internalType": "address",
          "name": "admin",
          "type": "address"
        }
      ],
      "name": "CommitAdmin",
      "type": "event"
    },
    {
      "anonymous": false,
      "inputs": [
        {
          "indexed": false,
          "internalType": "bool",
          "name": "toggleFlag",
          "type": "bool"
        }
      ],
      "name": "ToggleAllowCheckpointToken",
      "type": "event"
    },
    {
      "inputs": [],
      "name": "TOKEN_CHECKPOINT_DEADLINE",
      "outputs": [
        {
          "internalType": "uint256",
          "name": "",
          "type": "uint256"
        }
      ],
      "stateMutability": "view",
      "type": "function"
    },
    {
      "inputs": [],
      "name": "WEEK",
      "outputs": [
        {
          "internalType": "uint256",
          "name": "",
          "type": "uint256"
        }
      ],
      "stateMutability": "view",
      "type": "function"
    },
    {
      "inputs": [
        {
          "internalType": "address",
          "name": "coin_",
          "type": "address"
        }
      ],
      "name": "addRewardToken",
      "outputs": [
        {
          "internalType": "bool",
          "name": "",
          "type": "bool"
        }
      ],
      "stateMutability": "nonpayable",
      "type": "function"
    },
    {
      "inputs": [],
      "name": "admin",
      "outputs": [
        {
          "internalType": "address",
          "name": "",
          "type": "address"
        }
      ],
      "stateMutability": "view",
      "type": "function"
    },
    {
      "inputs": [],
      "name": "applyAdmin",
      "outputs": [],
      "stateMutability": "nonpayable",
      "type": "function"
    },
    {
      "inputs": [
        {
          "internalType": "address",
          "name": "coin_",
          "type": "address"
        }
      ],
      "name": "burn",
      "outputs": [
        {
          "internalType": "bool",
          "name": "",
          "type": "bool"
        }
      ],
      "stateMutability": "nonpayable",
      "type": "function"
    },
    {
      "inputs": [],
      "name": "canCheckpointToken",
      "outputs": [
        {
          "internalType": "bool",
          "name": "",
          "type": "bool"
        }
      ],
      "stateMutability": "view",
      "type": "function"
    },
    {
      "inputs": [
        {
          "internalType": "address",
          "name": "token_",
          "type": "address"
        }
      ],
      "name": "checkpointToken",
      "outputs": [],
      "stateMutability": "nonpayable",
      "type": "function"
    },
    {
      "inputs": [],
      "name": "checkpointTotalSupply",
      "outputs": [],
      "stateMutability": "nonpayable",
      "type": "function"
    },
    {
      "inputs": [
        {
          "internalType": "address",
          "name": "token_",
          "type": "address"
        }
      ],
      "name": "claim",
      "outputs": [
        {
          "internalType": "uint256",
          "name": "",
          "type": "uint256"
        }
      ],
      "stateMutability": "nonpayable",
      "type": "function"
    },
    {
      "inputs": [
        {
          "internalType": "address",
          "name": "addr_",
          "type": "address"
        },
        {
          "internalType": "address",
          "name": "token_",
          "type": "address"
        }
      ],
      "name": "claim",
      "outputs": [
        {
          "internalType": "uint256",
          "name": "",
          "type": "uint256"
        }
      ],
      "stateMutability": "nonpayable",
      "type": "function"
    },
    {
      "inputs": [
        {
          "internalType": "address[20]",
          "name": "receivers_",
          "type": "address[20]"
        },
        {
          "internalType": "address",
          "name": "token_",
          "type": "address"
        }
      ],
      "name": "claimMany",
      "outputs": [
        {
          "internalType": "bool",
          "name": "",
          "type": "bool"
        }
      ],
      "stateMutability": "nonpayable",
      "type": "function"
    },
    {
      "inputs": [
        {
          "internalType": "address",
          "name": "addr_",
          "type": "address"
        },
        {
          "internalType": "address[20]",
          "name": "tokens_",
          "type": "address[20]"
        }
      ],
      "name": "claimMultipleTokens",
      "outputs": [
        {
          "internalType": "bool",
          "name": "",
          "type": "bool"
        }
      ],
      "stateMutability": "nonpayable",
      "type": "function"
    },
    {
      "inputs": [
        {
          "internalType": "address",
          "name": "addr_",
          "type": "address"
        }
      ],
      "name": "commitAdmin",
      "outputs": [],
      "stateMutability": "nonpayable",
      "type": "function"
    },
    {
      "inputs": [],
      "name": "emergencyReturn",
      "outputs": [
        {
          "internalType": "address",
          "name": "",
          "type": "address"
        }
      ],
      "stateMutability": "view",
      "type": "function"
    },
    {
      "inputs": [],
      "name": "factory",
      "outputs": [
        {
          "internalType": "address",
          "name": "",
          "type": "address"
        }
      ],
      "stateMutability": "view",
      "type": "function"
    },
    {
      "inputs": [],
      "name": "futureAdmin",
      "outputs": [
        {
          "internalType": "address",
          "name": "",
          "type": "address"
        }
      ],
      "stateMutability": "view",
      "type": "function"
    },
    {
      "inputs": [],
      "name": "isKilled",
      "outputs": [
        {
          "internalType": "bool",
          "name": "",
          "type": "bool"
        }
      ],
      "stateMutability": "view",
      "type": "function"
    },
    {
      "inputs": [],
      "name": "killMe",
      "outputs": [],
      "stateMutability": "nonpayable",
      "type": "function"
    },
    {
      "inputs": [
        {
          "internalType": "address",
          "name": "",
          "type": "address"
        }
      ],
      "name": "lastTokenTime",
      "outputs": [
        {
          "internalType": "uint256",
          "name": "",
          "type": "uint256"
        }
      ],
      "stateMutability": "view",
      "type": "function"
    },
    {
      "inputs": [
        {
          "internalType": "address",
          "name": "coin_",
          "type": "address"
        }
      ],
      "name": "recoverBalance",
      "outputs": [
        {
          "internalType": "bool",
          "name": "",
          "type": "bool"
        }
      ],
      "stateMutability": "nonpayable",
      "type": "function"
    },
    {
      "inputs": [],
      "name": "startTime",
      "outputs": [
        {
          "internalType": "uint256",
          "name": "",
          "type": "uint256"
        }
      ],
      "stateMutability": "view",
      "type": "function"
    },
    {
      "inputs": [],
      "name": "timeCursor",
      "outputs": [
        {
          "internalType": "uint256",
          "name": "",
          "type": "uint256"
        }
      ],
      "stateMutability": "view",
      "type": "function"
    },
    {
      "inputs": [
        {
          "internalType": "address",
          "name": "",
          "type": "address"
        },
        {
          "internalType": "address",
          "name": "",
          "type": "address"
        }
      ],
      "name": "timeCursorOf",
      "outputs": [
        {
          "internalType": "uint256",
          "name": "",
          "type": "uint256"
        }
      ],
      "stateMutability": "view",
      "type": "function"
    },
    {
      "inputs": [],
      "name": "toggleAllowCheckpointToken",
      "outputs": [],
      "stateMutability": "nonpayable",
      "type": "function"
    },
    {
      "inputs": [
        {
          "internalType": "address",
          "name": "",
          "type": "address"
        }
      ],
      "name": "tokenFlags",
      "outputs": [
        {
          "internalType": "bool",
          "name": "",
          "type": "bool"
        }
      ],
      "stateMutability": "view",
      "type": "function"
    },
    {
      "inputs": [
        {
          "internalType": "address",
          "name": "",
          "type": "address"
        }
      ],
      "name": "tokenLastBalance",
      "outputs": [
        {
          "internalType": "uint256",
          "name": "",
          "type": "uint256"
        }
      ],
      "stateMutability": "view",
      "type": "function"
    },
    {
      "inputs": [
        {
          "internalType": "uint256",
          "name": "",
          "type": "uint256"
        }
      ],
      "name": "tokens",
      "outputs": [
        {
          "internalType": "address",
          "name": "",
          "type": "address"
        }
      ],
      "stateMutability": "view",
      "type": "function"
    },
    {
      "inputs": [
        {
          "internalType": "address",
          "name": "",
          "type": "address"
        },
        {
          "internalType": "uint256",
          "name": "",
          "type": "uint256"
        }
      ],
      "name": "tokensPerWeek",
      "outputs": [
        {
          "internalType": "uint256",
          "name": "",
          "type": "uint256"
        }
      ],
      "stateMutability": "view",
      "type": "function"
    },
    {
      "inputs": [
        {
          "internalType": "address",
          "name": "",
          "type": "address"
        },
        {
          "internalType": "address",
          "name": "",
          "type": "address"
        }
      ],
      "name": "userEpochOf",
      "outputs": [
        {
          "internalType": "uint256",
          "name": "",
          "type": "uint256"
        }
      ],
      "stateMutability": "view",
      "type": "function"
    },
    {
      "inputs": [
        {
          "internalType": "address",
          "name": "user_",
          "type": "address"
        },
        {
          "internalType": "uint256",
          "name": "timestamp_",
          "type": "uint256"
        }
      ],
      "name": "veForAt",
      "outputs": [
        {
          "internalType": "uint256",
          "name": "",
          "type": "uint256"
        }
      ],
      "stateMutability": "view",
      "type": "function"
    },
    {
      "inputs": [
        {
          "internalType": "uint256",
          "name": "",
          "type": "uint256"
        }
      ],
      "name": "veSupply",
      "outputs": [
        {
          "internalType": "uint256",
          "name": "",
          "type": "uint256"
        }
      ],
      "stateMutability": "view",
      "type": "function"
    },
    {
      "inputs": [],
      "name": "votingEscrow",
      "outputs": [
        {
          "internalType": "address",
          "name": "",
          "type": "address"
        }
      ],
      "stateMutability": "view",
      "type": "function"
    }
  ],
  "bytecode": "0x60a06040523480156200001157600080fd5b50604051620033f8380380620033f8833981016040819052620000349162000128565b6001600090815562093a806200004b81866200018f565b620000579190620001b2565b600181815560056020527f05b8ccbb9d4d8fb16ea74ce3c29a41f1b461fbdaff4714a0d9a8eb05499746bc8290556002919091556008805491820181556000527ff3f7a9fe364faab93b216da50a3214154f22a0a2b415b23a84c8169e8b636ee30180546001600160a01b03199081169091556007805482166001600160a01b0398891617905594861660805250600c8054851692861692909217909155600e8054909316931692909217905550620001de565b80516001600160a01b03811681146200012357600080fd5b919050565b600080600080600060a086880312156200014157600080fd5b6200014c866200010b565b94506200015c602087016200010b565b93506040860151925062000173606087016200010b565b915062000183608087016200010b565b90509295509295909350565b600082620001ad57634e487b7160e01b600052601260045260246000fd5b500490565b8082028115828204841417620001d857634e487b7160e01b600052601160045260246000fd5b92915050565b6080516131f76200020160003960008181610477015261056801526131f76000f3fe608060405234801561001057600080fd5b506004361061020a5760003560e01c806368662ea01161012a578063a5420e98116100bd578063c50d400d1161008c578063f364824111610071578063f3648241146104dc578063f4359ce5146104ef578063f851a440146104f957600080fd5b8063c50d400d14610499578063e1d2bf69146104bc57600080fd5b8063a5420e981461044d578063b0f3b73414610457578063b603cd801461046a578063c45a01551461047257600080fd5b80638736659b116100f95780638736659b146103f957806389afcb44146104025780638fe8a10114610415578063a186dc081461043a57600080fd5b806368662ea0146103b557806378e97925146103c85780637d933227146103d15780638721b785146103f157600080fd5b806338b74b47116101a25780634f2bfe5b116101715780634f2bfe5b146103695780634f64b2be1461037c5780635a4b8c1d1461038f5780636089627f146103a257600080fd5b806338b74b47146102f85780633902b9bc146103235780634cb654af146103365780634e67428d1461036157600080fd5b80631c03e6cc116101de5780631c03e6cc146102b55780631e83409a146102c857806321c0b342146102db578063326a9407146102ee57600080fd5b8062d440c11461020f578063071cb5ad146102355780630cc672e4146102605780630f6592ef14610295575b600080fd5b61022261021d366004612dbd565b61050c565b6040519081526020015b60405180910390f35b610222610243366004612de7565b600460209081526000928352604080842090915290825290205481565b600d546102859074010000000000000000000000000000000000000000900460ff1681565b604051901515815260200161022c565b6102226102a3366004612e1a565b600b6020526000908152604090205481565b6102856102c3366004612e33565b610537565b6102226102d6366004612e33565b6107b8565b6102226102e9366004612de7565b610a66565b6102f6610d17565b005b610222610306366004612de7565b600360209081526000928352604080842090915290825290205481565b6102f6610331366004612e33565b610ee8565b600d54610349906001600160a01b031681565b6040516001600160a01b03909116815260200161022c565b6102f6610fa1565b600754610349906001600160a01b031681565b61034961038a366004612e1a565b6110b7565b600e54610349906001600160a01b031681565b6102856103b0366004612ef2565b6110e1565b6102856103c3366004612e33565b611433565b61022260015481565b6102226103df366004612e33565b60056020526000908152604090205481565b6102f6611663565b61022260025481565b610285610410366004612e33565b61174f565b600e546102859074010000000000000000000000000000000000000000900460ff1681565b610285610448366004612f1e565b61199a565b6102226201518081565b6102f6610465366004612e33565b611c2f565b6102f6611ceb565b6103497f000000000000000000000000000000000000000000000000000000000000000081565b6102856104a7366004612e33565b60096020526000908152604090205460ff1681565b6102226104ca366004612e33565b600a6020526000908152604090205481565b6102226104ea366004612dbd565b611f25565b61022262093a8081565b600c54610349906001600160a01b031681565b60066020528160005260406000208166038d7ea4c68000811061052e57600080fd5b01549150829050565b6040517f1d59410a0000000000000000000000000000000000000000000000000000000081523360048201526000907f00000000000000000000000000000000000000000000000000000000000000006001600160a01b031690631d59410a90602401602060405180830381865afa1580156105b7573d6000803e3d6000fd5b505050506040513d601f19601f820116820180604052508101906105db9190612f4b565b61062c5760405162461bcd60e51b815260206004820152601860248201527f596f7520617265206e6f74207468652061756374696f6e2e000000000000000060448201526064015b60405180910390fd5b6001600160a01b0382166106825760405162461bcd60e51b815260206004820152601960248201527f45544820697320616c72656164792072656769737465726564000000000000006044820152606401610623565b6001600160a01b03821660009081526009602052604090205460ff16156106eb5760405162461bcd60e51b815260206004820152601b60248201527f546f6b656e20697320616c7265616479207265676973746572656400000000006044820152606401610623565b600062093a806106fb8142612f9c565b6107059190612fd7565b6001600160a01b0384166000818152600560209081526040808320949094556009905291822080547fffffffffffffffffffffffffffffffffffffffffffffffffffffffffffffff0016600190811790915560088054808301825593527ff3f7a9fe364faab93b216da50a3214154f22a0a2b415b23a84c8169e8b636ee390920180547fffffffffffffffffffffffff00000000000000000000000000000000000000001690911790559150505b919050565b60006107c26120ba565b600e5474010000000000000000000000000000000000000000900460ff161561082d5760405162461bcd60e51b815260206004820152601260248201527f436f6e7472616374206973206b696c6c656400000000000000000000000000006044820152606401610623565b6002543390421061084057610840612113565b6001600160a01b038316600090815260056020526040902054600d5474010000000000000000000000000000000000000000900460ff16801561088d575061088a81610e10612fee565b42115b1561089e5761089b846122a9565b50425b60075462093a8091829004909102906000906108c790849087906001600160a01b0316856125c2565b90508015610a58576001600160a01b0385166000908152600a6020526040812080548392906108f7908490613001565b90915550506001600160a01b038516610980576040516001600160a01b0384169082156108fc029083906000818181858888f1935050505061097b5760405162461bcd60e51b815260206004820152600f60248201527f5472616e73666572206661696c656400000000000000000000000000000000006044820152606401610623565b610a58565b6040517fa9059cbb0000000000000000000000000000000000000000000000000000000081526001600160a01b0384811660048301526024820183905286169063a9059cbb906044016020604051808303816000875af11580156109e8573d6000803e3d6000fd5b505050506040513d601f19601f82011682018060405250810190610a0c9190612f4b565b610a585760405162461bcd60e51b815260206004820152600f60248201527f5472616e73666572206661696c656400000000000000000000000000000000006044820152606401610623565b925050506107b36001600055565b6000610a706120ba565b600e5474010000000000000000000000000000000000000000900460ff1615610adb5760405162461bcd60e51b815260206004820152601260248201527f436f6e7472616374206973206b696c6c656400000000000000000000000000006044820152606401610623565b6002544210610aec57610aec612113565b6001600160a01b038216600090815260056020526040902054600d5474010000000000000000000000000000000000000000900460ff168015610b395750610b3681610e10612fee565b42115b15610b4a57610b47836122a9565b50425b60075462093a809182900490910290600090610b7390869086906001600160a01b0316856125c2565b90508015610d04576001600160a01b0384166000908152600a602052604081208054839290610ba3908490613001565b90915550506001600160a01b038416610c2c576040516001600160a01b0386169082156108fc029083906000818181858888f19350505050610c275760405162461bcd60e51b815260206004820152600f60248201527f5472616e73666572206661696c656400000000000000000000000000000000006044820152606401610623565b610d04565b6040517fa9059cbb0000000000000000000000000000000000000000000000000000000081526001600160a01b0386811660048301526024820183905285169063a9059cbb906044016020604051808303816000875af1158015610c94573d6000803e3d6000fd5b505050506040513d601f19601f82011682018060405250810190610cb89190612f4b565b610d045760405162461bcd60e51b815260206004820152600f60248201527f5472616e73666572206661696c656400000000000000000000000000000000006044820152606401610623565b915050610d116001600055565b92915050565b6007546002546001600160a01b0390911690600062093a80610d398142612f9c565b610d439190612fd7565b9050826001600160a01b031663c2c4c5c16040518163ffffffff1660e01b8152600401600060405180830381600087803b158015610d8057600080fd5b505af1158015610d94573d6000803e3d6000fd5b5050505060005b6014811015610ee057818311610ee0576000610db78585612b70565b6040517f8ad4c447000000000000000000000000000000000000000000000000000000008152600481018290529091506000906001600160a01b03871690638ad4c44790602401608060405180830381865afa158015610e1b573d6000803e3d6000fd5b505050506040513d601f19601f82011682018060405250810190610e3f9190613026565b905060008160400151861115610e61576040820151610e5e9087613098565b90505b6000818360200151610e7391906130bf565b8351610e7f91906130df565b9050600081600f0b1215610ea1576000878152600b6020526040812055610ec5565b6000878152600b602052604090206fffffffffffffffffffffffffffffffff821690555b50505050610ed662093a8084612fee565b9250600101610d9b565b505060025550565b600c546001600160a01b0316331480610f495750600d5474010000000000000000000000000000000000000000900460ff168015610f4957506001600160a01b038116600090815260056020526040902054610f4690610e10612fee565b42115b610f955760405162461bcd60e51b815260206004820152600c60248201527f556e617574686f72697a656400000000000000000000000000000000000000006044820152606401610623565b610f9e816122a9565b50565b600c546001600160a01b03163314610ffb5760405162461bcd60e51b815260206004820152600d60248201527f4163636573732064656e696564000000000000000000000000000000000000006044820152606401610623565b600d546001600160a01b03166110535760405162461bcd60e51b815260206004820152600c60248201527f4e6f2061646d696e2073657400000000000000000000000000000000000000006044820152606401610623565b600d54600c80547fffffffffffffffffffffffff0000000000000000000000000000000000000000166001600160a01b0390921691821790556040517f756f845176805c8ebf249854e909627308157f63c96e470e44a9e8549ba6fb1e90600090a2565b600881815481106110c757600080fd5b6000918252602090912001546001600160a01b0316905081565b60006110eb6120ba565b600e5474010000000000000000000000000000000000000000900460ff16156111565760405162461bcd60e51b815260206004820152601260248201527f436f6e7472616374206973206b696c6c656400000000000000000000000000006044820152606401610623565b6001600160a01b0383166111ac5760405162461bcd60e51b815260206004820152601760248201527f416464726573732073686f756c64206e6f74207a65726f0000000000000000006044820152606401610623565b60025442106111bd576111bd612113565b601460005b818110156114235760008482601481106111de576111de61312d565b602090810291909101516001600160a01b03811660009081526005909252604090912054600d549192509074010000000000000000000000000000000000000000900460ff16801561123a575061123781610e10612fee565b42115b1561124b57611248826122a9565b50425b62093a806112598183612f9c565b6112639190612fd7565b60075490915060009061128390899085906001600160a01b0316856125c2565b90508015611415576001600160a01b03831661130f576040516001600160a01b0389169082156108fc029083906000818181858888f1935050505061130a5760405162461bcd60e51b815260206004820152600f60248201527f5472616e73666572206661696c656400000000000000000000000000000000006044820152606401610623565b6113e7565b6040517fa9059cbb0000000000000000000000000000000000000000000000000000000081526001600160a01b0389811660048301526024820183905284169063a9059cbb906044016020604051808303816000875af1158015611377573d6000803e3d6000fd5b505050506040513d601f19601f8201168201806040525081019061139b9190612f4b565b6113e75760405162461bcd60e51b815260206004820152600f60248201527f5472616e73666572206661696c656400000000000000000000000000000000006044820152606401610623565b6001600160a01b0383166000908152600a60205260408120805483929061140f908490613001565b90915550505b8360010193505050506111c2565b506001915050610d116001600055565b600c546000906001600160a01b031633146114905760405162461bcd60e51b815260206004820152600d60248201527f4163636573732064656e696564000000000000000000000000000000000000006044820152606401610623565b6001600160a01b03821660009081526009602052604090205460ff166114f85760405162461bcd60e51b815260206004820152601960248201527f43616e6e6f74207265636f766572207468697320746f6b656e000000000000006044820152606401610623565b6040517f70a082310000000000000000000000000000000000000000000000000000000081523060048201526000906001600160a01b038416906370a0823190602401602060405180830381865afa158015611558573d6000803e3d6000fd5b505050506040513d601f19601f8201168201806040525081019061157c919061315c565b600e546040517fa9059cbb0000000000000000000000000000000000000000000000000000000081526001600160a01b0391821660048201526024810183905291925084169063a9059cbb906044016020604051808303816000875af11580156115ea573d6000803e3d6000fd5b505050506040513d601f19601f8201168201806040525081019061160e9190612f4b565b61165a5760405162461bcd60e51b815260206004820152600f60248201527f5472616e73666572206661696c656400000000000000000000000000000000006044820152606401610623565b50600192915050565b600c546001600160a01b031633146116bd5760405162461bcd60e51b815260206004820152600d60248201527f4163636573732064656e696564000000000000000000000000000000000000006044820152606401610623565b600d805460ff7401000000000000000000000000000000000000000080830482161581027fffffffffffffffffffffff00ffffffffffffffffffffffffffffffffffffffff90931692909217928390556040517fdbe6ac1081ebd8e648718341126659456f4009fcadfe1c23f66f5e61522610b2936117459390049091161515815260200190565b60405180910390a1565b6001600160a01b03811660009081526009602052604081205460ff166117b75760405162461bcd60e51b815260206004820152600d60248201527f496e76616c696420746f6b656e000000000000000000000000000000000000006044820152606401610623565b600e5474010000000000000000000000000000000000000000900460ff16156118225760405162461bcd60e51b815260206004820152601260248201527f436f6e7472616374206973206b696c6c656400000000000000000000000000006044820152606401610623565b6040517f70a082310000000000000000000000000000000000000000000000000000000081523360048201526000906001600160a01b038416906370a0823190602401602060405180830381865afa158015611882573d6000803e3d6000fd5b505050506040513d601f19601f820116820180604052508101906118a6919061315c565b9050801561165a576040517f23b872dd000000000000000000000000000000000000000000000000000000008152336004820152306024820152604481018290526001600160a01b038416906323b872dd906064016020604051808303816000875af115801561191a573d6000803e3d6000fd5b505050506040513d601f19601f8201168201806040525081019061193e9190612f4b565b50600d5474010000000000000000000000000000000000000000900460ff16801561198c57506001600160a01b03831660009081526005602052604090205461198990610e10612fee565b42115b1561165a5761165a836122a9565b60006119a46120ba565b600e5474010000000000000000000000000000000000000000900460ff1615611a0f5760405162461bcd60e51b815260206004820152601260248201527f436f6e7472616374206973206b696c6c656400000000000000000000000000006044820152606401610623565b6002544210611a2057611a20612113565b6001600160a01b038216600090815260056020526040902054600d5474010000000000000000000000000000000000000000900460ff168015611a6d5750611a6a81610e10612fee565b42115b15611a7e57611a7b836122a9565b50425b62093a80611a8c8183612f9c565b611a969190612fd7565b905060006014815b81811015611be9576000878260148110611aba57611aba61312d565b602002015190506001600160a01b038116611ad55750611be9565b600754600090611af29083908a906001600160a01b0316896125c2565b90508015611bdf576040517fa9059cbb0000000000000000000000000000000000000000000000000000000081526001600160a01b0383811660048301526024820183905289169063a9059cbb906044016020604051808303816000875af1158015611b62573d6000803e3d6000fd5b505050506040513d601f19601f82011682018060405250810190611b869190612f4b565b611bd25760405162461bcd60e51b815260206004820152600f60248201527f5472616e73666572206661696c656400000000000000000000000000000000006044820152606401610623565b611bdc8186612fee565b94505b5050600101611a9e565b508115611c1e576001600160a01b0385166000908152600a602052604081208054849290611c18908490613001565b90915550505b60019350505050610d116001600055565b600c546001600160a01b03163314611c895760405162461bcd60e51b815260206004820152600d60248201527f4163636573732064656e696564000000000000000000000000000000000000006044820152606401610623565b600d80547fffffffffffffffffffffffff0000000000000000000000000000000000000000166001600160a01b0383169081179091556040517f59a407284ae6e2986675fa1400d6498af928ed01f4fd2dd6be4a2a8b4fc35b3490600090a250565b600c546001600160a01b03163314611d455760405162461bcd60e51b815260206004820152600d60248201527f4163636573732064656e696564000000000000000000000000000000000000006044820152606401610623565b600e80547fffffffffffffffffffffff00ffffffffffffffffffffffffffffffffffffffff167401000000000000000000000000000000000000000017905560085460005b81811015611f2157600060088281548110611da757611da761312d565b600091825260209091200154600e546040517f70a082310000000000000000000000000000000000000000000000000000000081523060048201526001600160a01b039283169350839263a9059cbb92169083906370a0823190602401602060405180830381865afa158015611e21573d6000803e3d6000fd5b505050506040513d601f19601f82011682018060405250810190611e45919061315c565b6040517fffffffff0000000000000000000000000000000000000000000000000000000060e085901b1681526001600160a01b03909216600483015260248201526044016020604051808303816000875af1158015611ea8573d6000803e3d6000fd5b505050506040513d601f19601f82011682018060405250810190611ecc9190612f4b565b611f185760405162461bcd60e51b815260206004820152600f60248201527f5472616e73666572206661696c656400000000000000000000000000000000006044820152606401610623565b50600101611d8a565b5050565b6007546040517f81fc83bb0000000000000000000000000000000000000000000000000000000081526001600160a01b0384811660048301526000921690829082906381fc83bb90602401602060405180830381865afa158015611f8d573d6000803e3d6000fd5b505050506040513d601f19601f82011682018060405250810190611fb1919061315c565b90506000611fc183878785612caf565b6040517f34d901a40000000000000000000000000000000000000000000000000000000081526001600160a01b038881166004830152602482018390529192506000918516906334d901a490604401608060405180830381865afa15801561202d573d6000803e3d6000fd5b505050506040513d601f19601f820116820180604052508101906120519190613026565b905060008160400151876120659190613001565b826020015161207491906130bf565b825161208091906130df565b9050600081600f0b121561209c57600095505050505050610d11565b6fffffffffffffffffffffffffffffffff169450610d119350505050565b60026000540361210c5760405162461bcd60e51b815260206004820152601f60248201527f5265656e7472616e637947756172643a207265656e7472616e742063616c6c006044820152606401610623565b6002600055565b6007546002546001600160a01b0390911690600062093a806121358142612f9c565b61213f9190612fd7565b9050826001600160a01b031663c2c4c5c16040518163ffffffff1660e01b8152600401600060405180830381600087803b15801561217c57600080fd5b505af1158015612190573d6000803e3d6000fd5b5050505060005b6014811015610ee057818311610ee05760006121b38585612b70565b6040517f8ad4c447000000000000000000000000000000000000000000000000000000008152600481018290529091506000906001600160a01b03871690638ad4c44790602401608060405180830381865afa158015612217573d6000803e3d6000fd5b505050506040513d601f19601f8201168201806040525081019061223b9190613026565b90506000816040015186111561225d57604082015161225a9087613098565b90505b80826020015161226d91906130bf565b825161227991906130df565b6000878152600b60205260409020600f9190910b905561229c62093a8087612fee565b9550505050600101612197565b60006001600160a01b0382166122c0575047612344565b6040517f70a082310000000000000000000000000000000000000000000000000000000081523060048201526001600160a01b038316906370a0823190602401602060405180830381865afa15801561231d573d6000803e3d6000fd5b505050506040513d601f19601f82011682018060405250810190612341919061315c565b90505b6001600160a01b0382166000908152600a60205260408120546123679083613001565b6001600160a01b0384166000908152600a60209081526040808320869055600590915281205491925061239a8242613001565b6001600160a01b038616600090815260056020526040812042905590915062093a806123c68185612f9c565b6123d09190612fd7565b90506000805b6014811015612574576123ec62093a8084612fee565b9150814210156124a2578315801561240357508442145b15612454576001600160a01b038816600090815260066020526040902086908466038d7ea4c6800081106124395761243961312d565b0160008282546124499190612fee565b909155506125749050565b8361245f8642613001565b6124699088612fd7565b6124739190612f9c565b6001600160a01b03891660009081526006602052604090208466038d7ea4c6800081106124395761243961312d565b831580156124af57508482145b15612500576001600160a01b038816600090815260066020526040902086908466038d7ea4c6800081106124e5576124e561312d565b0160008282546124f59190612fee565b909155506125649050565b8361250b8684613001565b6125159088612fd7565b61251f9190612f9c565b6001600160a01b03891660009081526006602052604090208466038d7ea4c68000811061254e5761254e61312d565b01600082825461255e9190612fee565b90915550505b90935083915081906001016123d6565b5060408051428152602081018790526001600160a01b038916917f6df0a5bed078180e2881e76873c40450711146fa6156da26b23f6eb7d2de8735910160405180910390a250505050505050565b6040517f81fc83bb0000000000000000000000000000000000000000000000000000000081526001600160a01b0385811660048301526000918291829182918716906381fc83bb90602401602060405180830381865afa15801561262a573d6000803e3d6000fd5b505050506040513d601f19601f8201168201806040525081019061264e919061315c565b600154909150600082900361266a576000945050505050612b68565b6001600160a01b03808a166000908152600360209081526040808320938c16835292905290812054908190036126ad576126a6888b8486612caf565b94506126d6565b6001600160a01b03808b166000908152600460209081526040808320938d168352929052205494505b846000036126e357600194505b6040517f34d901a40000000000000000000000000000000000000000000000000000000081526001600160a01b038b8116600483015260248201879052600091908a16906334d901a490604401608060405180830381865afa15801561274d573d6000803e3d6000fd5b505050506040513d601f19601f820116820180604052508101906127719190613026565b9050816000036127b65762093a8080600162093a8084604001516127959190612fee565b61279f9190613001565b6127a99190612f9c565b6127b39190612fd7565b91505b8782106127cc5760009650505050505050612b68565b828210156127d8578291505b6040805160808101825260008082526020820181905291810182905260608101829052905b6032811015612a575789841015612a5757826040015184101580156128225750858811155b1561293857612832600189612fee565b975060405180608001604052808460000151600f0b81526020018460200151600f0b81526020018460400151815260200184606001518152509150858811156128a75760405180608001604052806000600f0b81526020016000600f0b81526020016000815260200160008152509250612a4f565b6040517f34d901a40000000000000000000000000000000000000000000000000000000081526001600160a01b038e81166004830152602482018a90528c16906334d901a490604401608060405180830381865afa15801561290d573d6000803e3d6000fd5b505050506040513d601f19601f820116820180604052508101906129319190613026565b9250612a4f565b600060405180606001604052808460400151876129559190613098565b815260200160008152602001600081525090508260200151600f0b816000015161297f9190613175565b835161298e9190600f0b613098565b60208201819052600013156129a557600060208201525b60208101511580156129b657508689115b156129c15750612a57565b600081602001511315612a3e576001600160a01b038d1660009081526006602052604090208566038d7ea4c6800081106129fd576129fd61312d565b015460408083019182526000878152600b602090815291902054915190830151612a279190612fd7565b612a319190612f9c565b612a3b9089612fee565b97505b612a4b62093a8086612fee565b9450505b6001016127fd565b50612a6c85612a6760018a613001565b612d8e565b965086600460008e6001600160a01b03166001600160a01b0316815260200190815260200160002060008d6001600160a01b03166001600160a01b031681526020019081526020016000208190555082600360008e6001600160a01b03166001600160a01b0316815260200190815260200160002060008d6001600160a01b03166001600160a01b03168152602001908152602001600020819055508b6001600160a01b03167f9cdcf2f7714cca3508c7f0110b04a90a80a3a8dd0e35de99689db74d28c5383e878988604051612b56939291909283526020830191909152604082015260600190565b60405180910390a25093955050505050505b949350505050565b600080600090506000846001600160a01b031663900cf0cf6040518163ffffffff1660e01b8152600401602060405180830381865afa158015612bb7573d6000803e3d6000fd5b505050506040513d601f19601f82011682018060405250810190612bdb919061315c565b905060005b6080811015612ca55781831015612ca5576040517f8ad4c447000000000000000000000000000000000000000000000000000000008152600283850181010460048201819052906000906001600160a01b03891690638ad4c44790602401608060405180830381865afa158015612c5b573d6000803e3d6000fd5b505050506040513d601f19601f82011682018060405250810190612c7f9190613026565b905086816040015111612c9457819450612c9b565b6001820393505b5050600101612be0565b5090949350505050565b60008082815b6080811015612d825781831015612d82576040517f34d901a40000000000000000000000000000000000000000000000000000000081526001600160a01b038881166004830152600284860181010460248301819052916000918b16906334d901a490604401608060405180830381865afa158015612d38573d6000803e3d6000fd5b505050506040513d601f19601f82011682018060405250810190612d5c9190613026565b905087816040015111612d7157819450612d78565b6001820393505b5050600101612cb5565b50909695505050505050565b6000818310612d9d5781612d9f565b825b9392505050565b80356001600160a01b03811681146107b357600080fd5b60008060408385031215612dd057600080fd5b612dd983612da6565b946020939093013593505050565b60008060408385031215612dfa57600080fd5b612e0383612da6565b9150612e1160208401612da6565b90509250929050565b600060208284031215612e2c57600080fd5b5035919050565b600060208284031215612e4557600080fd5b612d9f82612da6565b7f4e487b7100000000000000000000000000000000000000000000000000000000600052604160045260246000fd5b600082601f830112612e8e57600080fd5b60405161028080820182811067ffffffffffffffff82111715612eb357612eb3612e4e565b60405283018185821115612ec657600080fd5b845b82811015612ee757612ed981612da6565b825260209182019101612ec8565b509195945050505050565b6000806102a08385031215612f0657600080fd5b612f0f83612da6565b9150612e118460208501612e7d565b6000806102a08385031215612f3257600080fd5b612f3c8484612e7d565b9150612e116102808401612da6565b600060208284031215612f5d57600080fd5b81518015158114612d9f57600080fd5b7f4e487b7100000000000000000000000000000000000000000000000000000000600052601160045260246000fd5b600082612fd2577f4e487b7100000000000000000000000000000000000000000000000000000000600052601260045260246000fd5b500490565b8082028115828204841417610d1157610d11612f6d565b80820180821115610d1157610d11612f6d565b81810381811115610d1157610d11612f6d565b8051600f81900b81146107b357600080fd5b60006080828403121561303857600080fd5b6040516080810181811067ffffffffffffffff8211171561305b5761305b612e4e565b60405261306783613014565b815261307560208401613014565b602082015260408301516040820152606083015160608201528091505092915050565b81810360008312801583831316838312821617156130b8576130b8612f6d565b5092915050565b600082600f0b82600f0b0280600f0b91508082146130b8576130b8612f6d565b600f82810b9082900b037fffffffffffffffffffffffffffffffff8000000000000000000000000000000081126f7fffffffffffffffffffffffffffffff82131715610d1157610d11612f6d565b7f4e487b7100000000000000000000000000000000000000000000000000000000600052603260045260246000fd5b60006020828403121561316e57600080fd5b5051919050565b808202600082127f8000000000000000000000000000000000000000000000000000000000000000841416156131ad576131ad612f6d565b8181058314821517610d1157610d11612f6d56fea26469706673582212203557e5c559a2c7241b37af71d4fa8fc4fabf744b1626c74846304614c25045d464736f6c63430008120033",
  "linkReferences": {},
  "deployedLinkReferences": {}
}