{
  "_format": "hh-sol-artifact-1",
  "contractName": "FeeDistributor",
  "sourceName": "contracts/FeeDistributor.sol",
  "abi": [
    {
      "inputs": [
        {
          "internalType": "address",
          "name": "votingEscrow_",
          "type": "address"
        },
        {
          "internalType": "address",
          "name": "factory_",
          "type": "address"
        },
        {
          "internalType": "uint256",
          "name": "startTime_",
          "type": "uint256"
        },
        {
          "internalType": "address",
          "name": "admin_",
          "type": "address"
        },
        {
          "internalType": "address",
          "name": "emergencyReturn_",
          "type": "address"
        }
      ],
      "stateMutability": "nonpayable",
      "type": "constructor"
    },
    {
      "anonymous": false,
      "inputs": [
        {
          "indexed": true,
          "internalType": "address",
          "name": "token",
          "type": "address"
        }
      ],
      "name": "AddedToken",
      "type": "event"
    },
    {
      "anonymous": false,
      "inputs": [
        {
          "indexed": true,
          "internalType": "address",
          "name": "admin",
          "type": "address"
        }
      ],
      "name": "ApplyAdmin",
      "type": "event"
    },
    {
      "anonymous": false,
      "inputs": [
        {
          "indexed": true,
          "internalType": "address",
          "name": "token",
          "type": "address"
        },
        {
          "indexed": false,
          "internalType": "uint256",
          "name": "time",
          "type": "uint256"
        },
        {
          "indexed": false,
          "internalType": "uint256",
          "name": "tokens",
          "type": "uint256"
        }
      ],
      "name": "CheckpointToken",
      "type": "event"
    },
    {
      "anonymous": false,
      "inputs": [
        {
          "indexed": true,
          "internalType": "address",
          "name": "recipient",
          "type": "address"
        },
        {
          "indexed": false,
          "internalType": "uint256",
          "name": "amount",
          "type": "uint256"
        },
        {
          "indexed": false,
          "internalType": "uint256",
          "name": "claimEpoch",
          "type": "uint256"
        },
        {
          "indexed": false,
          "internalType": "uint256",
          "name": "maxEpoch",
          "type": "uint256"
        }
      ],
      "name": "Claimed",
      "type": "event"
    },
    {
      "anonymous": false,
      "inputs": [
        {
          "indexed": true,
          "internalType": "address",
          "name": "admin",
          "type": "address"
        }
      ],
      "name": "CommitAdmin",
      "type": "event"
    },
    {
      "anonymous": false,
      "inputs": [
        {
          "indexed": false,
          "internalType": "bool",
          "name": "toggleFlag",
          "type": "bool"
        }
      ],
      "name": "ToggleAllowCheckpointToken",
      "type": "event"
    },
    {
      "inputs": [],
      "name": "TOKEN_CHECKPOINT_DEADLINE",
      "outputs": [
        {
          "internalType": "uint256",
          "name": "",
          "type": "uint256"
        }
      ],
      "stateMutability": "view",
      "type": "function"
    },
    {
      "inputs": [],
      "name": "WEEK",
      "outputs": [
        {
          "internalType": "uint256",
          "name": "",
          "type": "uint256"
        }
      ],
      "stateMutability": "view",
      "type": "function"
    },
    {
      "inputs": [
        {
          "internalType": "address",
          "name": "coin_",
          "type": "address"
        }
      ],
      "name": "addRewardToken",
      "outputs": [
        {
          "internalType": "bool",
          "name": "",
          "type": "bool"
        }
      ],
      "stateMutability": "nonpayable",
      "type": "function"
    },
    {
      "inputs": [],
      "name": "admin",
      "outputs": [
        {
          "internalType": "address",
          "name": "",
          "type": "address"
        }
      ],
      "stateMutability": "view",
      "type": "function"
    },
    {
      "inputs": [],
      "name": "applyAdmin",
      "outputs": [],
      "stateMutability": "nonpayable",
      "type": "function"
    },
    {
      "inputs": [],
      "name": "canCheckpointToken",
      "outputs": [
        {
          "internalType": "bool",
          "name": "",
          "type": "bool"
        }
      ],
      "stateMutability": "view",
      "type": "function"
    },
    {
      "inputs": [
        {
          "internalType": "address",
          "name": "token_",
          "type": "address"
        }
      ],
      "name": "checkpointToken",
      "outputs": [],
      "stateMutability": "nonpayable",
      "type": "function"
    },
    {
      "inputs": [],
      "name": "checkpointTotalSupply",
      "outputs": [],
      "stateMutability": "nonpayable",
      "type": "function"
    },
    {
      "inputs": [
        {
          "internalType": "address",
          "name": "token_",
          "type": "address"
        }
      ],
      "name": "claim",
      "outputs": [
        {
          "internalType": "uint256",
          "name": "",
          "type": "uint256"
        }
      ],
      "stateMutability": "nonpayable",
      "type": "function"
    },
    {
      "inputs": [
        {
          "internalType": "address",
          "name": "addr_",
          "type": "address"
        },
        {
          "internalType": "address",
          "name": "token_",
          "type": "address"
        }
      ],
      "name": "claim",
      "outputs": [
        {
          "internalType": "uint256",
          "name": "",
          "type": "uint256"
        }
      ],
      "stateMutability": "nonpayable",
      "type": "function"
    },
    {
      "inputs": [
        {
          "internalType": "address[20]",
          "name": "receivers_",
          "type": "address[20]"
        },
        {
          "internalType": "address",
          "name": "token_",
          "type": "address"
        }
      ],
      "name": "claimMany",
      "outputs": [
        {
          "internalType": "bool",
          "name": "",
          "type": "bool"
        }
      ],
      "stateMutability": "nonpayable",
      "type": "function"
    },
    {
      "inputs": [
        {
          "internalType": "address",
          "name": "addr_",
          "type": "address"
        },
        {
          "internalType": "address[20]",
          "name": "tokens_",
          "type": "address[20]"
        }
      ],
      "name": "claimMultipleTokens",
      "outputs": [
        {
          "internalType": "bool",
          "name": "",
          "type": "bool"
        }
      ],
      "stateMutability": "nonpayable",
      "type": "function"
    },
    {
      "inputs": [
        {
          "internalType": "address",
          "name": "addr_",
          "type": "address"
        }
      ],
      "name": "commitAdmin",
      "outputs": [],
      "stateMutability": "nonpayable",
      "type": "function"
    },
    {
      "inputs": [],
      "name": "emergencyReturn",
      "outputs": [
        {
          "internalType": "address",
          "name": "",
          "type": "address"
        }
      ],
      "stateMutability": "view",
      "type": "function"
    },
    {
      "inputs": [],
      "name": "factory",
      "outputs": [
        {
          "internalType": "address",
          "name": "",
          "type": "address"
        }
      ],
      "stateMutability": "view",
      "type": "function"
    },
    {
      "inputs": [],
      "name": "futureAdmin",
      "outputs": [
        {
          "internalType": "address",
          "name": "",
          "type": "address"
        }
      ],
      "stateMutability": "view",
      "type": "function"
    },
    {
      "inputs": [],
      "name": "isKilled",
      "outputs": [
        {
          "internalType": "bool",
          "name": "",
          "type": "bool"
        }
      ],
      "stateMutability": "view",
      "type": "function"
    },
    {
      "inputs": [],
      "name": "killMe",
      "outputs": [],
      "stateMutability": "nonpayable",
      "type": "function"
    },
    {
      "inputs": [
        {
          "internalType": "address",
          "name": "",
          "type": "address"
        }
      ],
      "name": "lastTokenTime",
      "outputs": [
        {
          "internalType": "uint256",
          "name": "",
          "type": "uint256"
        }
      ],
      "stateMutability": "view",
      "type": "function"
    },
    {
      "inputs": [
        {
          "internalType": "address",
          "name": "coin_",
          "type": "address"
        }
      ],
      "name": "recoverBalance",
      "outputs": [
        {
          "internalType": "bool",
          "name": "",
          "type": "bool"
        }
      ],
      "stateMutability": "nonpayable",
      "type": "function"
    },
    {
      "inputs": [],
      "name": "startTime",
      "outputs": [
        {
          "internalType": "uint256",
          "name": "",
          "type": "uint256"
        }
      ],
      "stateMutability": "view",
      "type": "function"
    },
    {
      "inputs": [],
      "name": "timeCursor",
      "outputs": [
        {
          "internalType": "uint256",
          "name": "",
          "type": "uint256"
        }
      ],
      "stateMutability": "view",
      "type": "function"
    },
    {
      "inputs": [
        {
          "internalType": "address",
          "name": "",
          "type": "address"
        },
        {
          "internalType": "address",
          "name": "",
          "type": "address"
        }
      ],
      "name": "timeCursorOf",
      "outputs": [
        {
          "internalType": "uint256",
          "name": "",
          "type": "uint256"
        }
      ],
      "stateMutability": "view",
      "type": "function"
    },
    {
      "inputs": [],
      "name": "toggleAllowCheckpointToken",
      "outputs": [],
      "stateMutability": "nonpayable",
      "type": "function"
    },
    {
      "inputs": [
        {
          "internalType": "address",
          "name": "",
          "type": "address"
        }
      ],
      "name": "tokenFlags",
      "outputs": [
        {
          "internalType": "bool",
          "name": "",
          "type": "bool"
        }
      ],
      "stateMutability": "view",
      "type": "function"
    },
    {
      "inputs": [
        {
          "internalType": "address",
          "name": "",
          "type": "address"
        }
      ],
      "name": "tokenLastBalance",
      "outputs": [
        {
          "internalType": "uint256",
          "name": "",
          "type": "uint256"
        }
      ],
      "stateMutability": "view",
      "type": "function"
    },
    {
      "inputs": [
        {
          "internalType": "uint256",
          "name": "",
          "type": "uint256"
        }
      ],
      "name": "tokens",
      "outputs": [
        {
          "internalType": "address",
          "name": "",
          "type": "address"
        }
      ],
      "stateMutability": "view",
      "type": "function"
    },
    {
      "inputs": [
        {
          "internalType": "address",
          "name": "",
          "type": "address"
        },
        {
          "internalType": "uint256",
          "name": "",
          "type": "uint256"
        }
      ],
      "name": "tokensPerWeek",
      "outputs": [
        {
          "internalType": "uint256",
          "name": "",
          "type": "uint256"
        }
      ],
      "stateMutability": "view",
      "type": "function"
    },
    {
      "inputs": [
        {
          "internalType": "address",
          "name": "",
          "type": "address"
        },
        {
          "internalType": "address",
          "name": "",
          "type": "address"
        }
      ],
      "name": "userEpochOf",
      "outputs": [
        {
          "internalType": "uint256",
          "name": "",
          "type": "uint256"
        }
      ],
      "stateMutability": "view",
      "type": "function"
    },
    {
      "inputs": [
        {
          "internalType": "address",
          "name": "user_",
          "type": "address"
        },
        {
          "internalType": "uint256",
          "name": "timestamp_",
          "type": "uint256"
        }
      ],
      "name": "veForAt",
      "outputs": [
        {
          "internalType": "uint256",
          "name": "",
          "type": "uint256"
        }
      ],
      "stateMutability": "view",
      "type": "function"
    },
    {
      "inputs": [
        {
          "internalType": "uint256",
          "name": "",
          "type": "uint256"
        }
      ],
      "name": "veSupply",
      "outputs": [
        {
          "internalType": "uint256",
          "name": "",
          "type": "uint256"
        }
      ],
      "stateMutability": "view",
      "type": "function"
    },
    {
      "inputs": [],
      "name": "votingEscrow",
      "outputs": [
        {
          "internalType": "address",
          "name": "",
          "type": "address"
        }
      ],
      "stateMutability": "view",
      "type": "function"
    },
    {
      "stateMutability": "payable",
      "type": "receive"
    }
  ],
  "bytecode": "0x60a06040523480156200001157600080fd5b506040516200354138038062003541833981016040819052620000349162000157565b6001600090815562093a806200004b8186620001be565b620000579190620001e1565b60018181557f05b8ccbb9d4d8fb16ea74ce3c29a41f1b461fbdaff4714a0d9a8eb05499746bc829055600291909155600880548083019091557ff3f7a9fe364faab93b216da50a3214154f22a0a2b415b23a84c8169e8b636ee30180546001600160a01b03199081169091556000805260096020527fec8156718a8372b1db44bb411437d0870f3e3790d4a08526d024ce1b0b668f6b805460ff19169092179091556007805482166001600160a01b0398891617905594861660805250600c8054851692861692909217909155600e80549093169316929092179055506200020d565b80516001600160a01b03811681146200015257600080fd5b919050565b600080600080600060a086880312156200017057600080fd5b6200017b866200013a565b94506200018b602087016200013a565b935060408601519250620001a2606087016200013a565b9150620001b2608087016200013a565b90509295509295909350565b600082620001dc57634e487b7160e01b600052601260045260246000fd5b500490565b80820281158282048414176200020757634e487b7160e01b600052601160045260246000fd5b92915050565b60805161330a62000237600039600081816105a6015281816106d80152610f66015261330a6000f3fe6080604052600436106101e65760003560e01c806368662ea011610102578063b0f3b73411610095578063e1d2bf6911610064578063e1d2bf69146105f8578063f364824114610625578063f4359ce514610645578063f851a4401461065c57600080fd5b8063b0f3b7341461055f578063b603cd801461057f578063c45a015514610594578063c50d400d146105c857600080fd5b80638736659b116100d15780638736659b146104e05780638fe8a101146104f6578063a186dc0814610528578063a5420e981461054857600080fd5b806368662ea01461046857806378e97925146104885780637d9332271461049e5780638721b785146104cb57600080fd5b806338b74b471161017a5780634f2bfe5b116101495780634f2bfe5b146103e85780634f64b2be146104085780635a4b8c1d146104285780636089627f1461044857600080fd5b806338b74b47146103435780633902b9bc1461037b5780634cb654af1461039b5780634e67428d146103d357600080fd5b80631c03e6cc116101b65780631c03e6cc146102cc5780631e83409a146102ec57806321c0b3421461030c578063326a94071461032c57600080fd5b8062d440c1146101f2578063071cb5ad146102255780630cc672e41461025d5780630f6592ef1461029f57600080fd5b366101ed57005b600080fd5b3480156101fe57600080fd5b5061021261020d366004612ed0565b61067c565b6040519081526020015b60405180910390f35b34801561023157600080fd5b50610212610240366004612efa565b600460209081526000928352604080842090915290825290205481565b34801561026957600080fd5b50600d5461028f9074010000000000000000000000000000000000000000900460ff1681565b604051901515815260200161021c565b3480156102ab57600080fd5b506102126102ba366004612f2d565b600b6020526000908152604090205481565b3480156102d857600080fd5b5061028f6102e7366004612f46565b6106a7565b3480156102f857600080fd5b50610212610307366004612f46565b610951565b34801561031857600080fd5b50610212610327366004612efa565b610c00565b34801561033857600080fd5b50610341610eb2565b005b34801561034f57600080fd5b5061021261035e366004612efa565b600360209081526000928352604080842090915290825290205481565b34801561038757600080fd5b50610341610396366004612f46565b610ebc565b3480156103a757600080fd5b50600d546103bb906001600160a01b031681565b6040516001600160a01b03909116815260200161021c565b3480156103df57600080fd5b50610341611086565b3480156103f457600080fd5b506007546103bb906001600160a01b031681565b34801561041457600080fd5b506103bb610423366004612f2d565b61119c565b34801561043457600080fd5b50600e546103bb906001600160a01b031681565b34801561045457600080fd5b5061028f610463366004613005565b6111c6565b34801561047457600080fd5b5061028f610483366004612f46565b611518565b34801561049457600080fd5b5061021260015481565b3480156104aa57600080fd5b506102126104b9366004612f46565b60056020526000908152604090205481565b3480156104d757600080fd5b506103416117cf565b3480156104ec57600080fd5b5061021260025481565b34801561050257600080fd5b50600e5461028f9074010000000000000000000000000000000000000000900460ff1681565b34801561053457600080fd5b5061028f610543366004613031565b6118bb565b34801561055457600080fd5b506102126201518081565b34801561056b57600080fd5b5061034161057a366004612f46565b611bc3565b34801561058b57600080fd5b50610341611c7f565b3480156105a057600080fd5b506103bb7f000000000000000000000000000000000000000000000000000000000000000081565b3480156105d457600080fd5b5061028f6105e3366004612f46565b60096020526000908152604090205460ff1681565b34801561060457600080fd5b50610212610613366004612f46565b600a6020526000908152604090205481565b34801561063157600080fd5b50610212610640366004612ed0565b611f40565b34801561065157600080fd5b5061021262093a8081565b34801561066857600080fd5b50600c546103bb906001600160a01b031681565b60066020528160005260406000208166038d7ea4c68000811061069e57600080fd5b01549150829050565b6040517f1d59410a0000000000000000000000000000000000000000000000000000000081523360048201526000907f00000000000000000000000000000000000000000000000000000000000000006001600160a01b031690631d59410a90602401602060405180830381865afa158015610727573d6000803e3d6000fd5b505050506040513d601f19601f8201168201806040525081019061074b919061305e565b61079c5760405162461bcd60e51b815260206004820152601860248201527f596f7520617265206e6f74207468652061756374696f6e2e000000000000000060448201526064015b60405180910390fd5b6001600160a01b0382166107f25760405162461bcd60e51b815260206004820152601960248201527f45544820697320616c72656164792072656769737465726564000000000000006044820152606401610793565b6001600160a01b03821660009081526009602052604090205460ff161561085b5760405162461bcd60e51b815260206004820152601b60248201527f546f6b656e20697320616c7265616479207265676973746572656400000000006044820152606401610793565b600062093a8061086b81426130af565b61087591906130ea565b6001600160a01b0384166000818152600560209081526040808320859055600990915280822080547fffffffffffffffffffffffffffffffffffffffffffffffffffffffffffffff0016600190811790915560088054918201815583527ff3f7a9fe364faab93b216da50a3214154f22a0a2b415b23a84c8169e8b636ee30180547fffffffffffffffffffffffff000000000000000000000000000000000000000016841790555192935090917f4bbe03be846191383bf3fc4e9dcdc8312ef44d20eec28c2370c51603ba6f80a69190a260019150505b919050565b600061095b6120d5565b600e5474010000000000000000000000000000000000000000900460ff16156109c65760405162461bcd60e51b815260206004820152601260248201527f436f6e7472616374206973206b696c6c656400000000000000000000000000006044820152606401610793565b600254339042106109d9576109d961212e565b6001600160a01b038316600090815260056020526040902054600d5474010000000000000000000000000000000000000000900460ff168015610a275750610a246201518082613101565b42115b15610a3857610a35846122cc565b50425b60075462093a809182900490910290600090610a6190849087906001600160a01b031685612682565b90508015610bf2576001600160a01b0385166000908152600a602052604081208054839290610a91908490613114565b90915550506001600160a01b038516610b1a576040516001600160a01b0384169082156108fc029083906000818181858888f19350505050610b155760405162461bcd60e51b815260206004820152600f60248201527f5472616e73666572206661696c656400000000000000000000000000000000006044820152606401610793565b610bf2565b6040517fa9059cbb0000000000000000000000000000000000000000000000000000000081526001600160a01b0384811660048301526024820183905286169063a9059cbb906044016020604051808303816000875af1158015610b82573d6000803e3d6000fd5b505050506040513d601f19601f82011682018060405250810190610ba6919061305e565b610bf25760405162461bcd60e51b815260206004820152600f60248201527f5472616e73666572206661696c656400000000000000000000000000000000006044820152606401610793565b9250505061094c6001600055565b6000610c0a6120d5565b600e5474010000000000000000000000000000000000000000900460ff1615610c755760405162461bcd60e51b815260206004820152601260248201527f436f6e7472616374206973206b696c6c656400000000000000000000000000006044820152606401610793565b6002544210610c8657610c8661212e565b6001600160a01b038216600090815260056020526040902054600d5474010000000000000000000000000000000000000000900460ff168015610cd45750610cd16201518082613101565b42115b15610ce557610ce2836122cc565b50425b60075462093a809182900490910290600090610d0e90869086906001600160a01b031685612682565b90508015610e9f576001600160a01b0384166000908152600a602052604081208054839290610d3e908490613114565b90915550506001600160a01b038416610dc7576040516001600160a01b0386169082156108fc029083906000818181858888f19350505050610dc25760405162461bcd60e51b815260206004820152600f60248201527f5472616e73666572206661696c656400000000000000000000000000000000006044820152606401610793565b610e9f565b6040517fa9059cbb0000000000000000000000000000000000000000000000000000000081526001600160a01b0386811660048301526024820183905285169063a9059cbb906044016020604051808303816000875af1158015610e2f573d6000803e3d6000fd5b505050506040513d601f19601f82011682018060405250810190610e53919061305e565b610e9f5760405162461bcd60e51b815260206004820152600f60248201527f5472616e73666572206661696c656400000000000000000000000000000000006044820152606401610793565b915050610eac6001600055565b92915050565b610eba61212e565b565b6001600160a01b03811660009081526009602052604090205460ff16610f245760405162461bcd60e51b815260206004820152601460248201527f546f6b656e206e6f7420726567697374657265640000000000000000000000006044820152606401610793565b600c546001600160a01b0316331480610fd957506040517f1d59410a0000000000000000000000000000000000000000000000000000000081523360048201527f00000000000000000000000000000000000000000000000000000000000000006001600160a01b031690631d59410a90602401602060405180830381865afa158015610fb5573d6000803e3d6000fd5b505050506040513d601f19601f82011682018060405250810190610fd9919061305e565b8061102e5750600d5474010000000000000000000000000000000000000000900460ff16801561102e57506001600160a01b03811660009081526005602052604090205461102b906201518090613101565b42115b61107a5760405162461bcd60e51b815260206004820152600c60248201527f556e617574686f72697a656400000000000000000000000000000000000000006044820152606401610793565b611083816122cc565b50565b600c546001600160a01b031633146110e05760405162461bcd60e51b815260206004820152600d60248201527f4163636573732064656e696564000000000000000000000000000000000000006044820152606401610793565b600d546001600160a01b03166111385760405162461bcd60e51b815260206004820152600c60248201527f4e6f2061646d696e2073657400000000000000000000000000000000000000006044820152606401610793565b600d54600c80547fffffffffffffffffffffffff0000000000000000000000000000000000000000166001600160a01b0390921691821790556040517f756f845176805c8ebf249854e909627308157f63c96e470e44a9e8549ba6fb1e90600090a2565b600881815481106111ac57600080fd5b6000918252602090912001546001600160a01b0316905081565b60006111d06120d5565b600e5474010000000000000000000000000000000000000000900460ff161561123b5760405162461bcd60e51b815260206004820152601260248201527f436f6e7472616374206973206b696c6c656400000000000000000000000000006044820152606401610793565b6001600160a01b0383166112915760405162461bcd60e51b815260206004820152601760248201527f416464726573732073686f756c64206e6f74207a65726f0000000000000000006044820152606401610793565b60025442106112a2576112a261212e565b601460005b818110156115085760008482601481106112c3576112c3613127565b602090810291909101516001600160a01b03811660009081526005909252604090912054600d549192509074010000000000000000000000000000000000000000900460ff168015611320575061131d6201518082613101565b42115b156113315761132e826122cc565b50425b62093a8061133f81836130af565b61134991906130ea565b60075490915060009061136990899085906001600160a01b031685612682565b905080156114fa576001600160a01b0383166000908152600a602052604081208054839290611399908490613114565b90915550506001600160a01b038316611422576040516001600160a01b0389169082156108fc029083906000818181858888f1935050505061141d5760405162461bcd60e51b815260206004820152600f60248201527f5472616e73666572206661696c656400000000000000000000000000000000006044820152606401610793565b6114fa565b6040517fa9059cbb0000000000000000000000000000000000000000000000000000000081526001600160a01b0389811660048301526024820183905284169063a9059cbb906044016020604051808303816000875af115801561148a573d6000803e3d6000fd5b505050506040513d601f19601f820116820180604052508101906114ae919061305e565b6114fa5760405162461bcd60e51b815260206004820152600f60248201527f5472616e73666572206661696c656400000000000000000000000000000000006044820152606401610793565b8360010193505050506112a7565b506001915050610eac6001600055565b600c546000906001600160a01b031633146115755760405162461bcd60e51b815260206004820152600d60248201527f4163636573732064656e696564000000000000000000000000000000000000006044820152606401610793565b6001600160a01b03821660009081526009602052604090205460ff166115dd5760405162461bcd60e51b815260206004820152601960248201527f43616e6e6f74207265636f766572207468697320746f6b656e000000000000006044820152606401610793565b6001600160a01b03821661166457600e546040516001600160a01b03909116904780156108fc02916000818181858888f1935050505061165f5760405162461bcd60e51b815260206004820152600f60248201527f5472616e73666572206661696c656400000000000000000000000000000000006044820152606401610793565b6117c7565b600e546040517f70a082310000000000000000000000000000000000000000000000000000000081523060048201526001600160a01b038481169263a9059cbb9291169083906370a0823190602401602060405180830381865afa1580156116d0573d6000803e3d6000fd5b505050506040513d601f19601f820116820180604052508101906116f49190613156565b6040517fffffffff0000000000000000000000000000000000000000000000000000000060e085901b1681526001600160a01b03909216600483015260248201526044016020604051808303816000875af1158015611757573d6000803e3d6000fd5b505050506040513d601f19601f8201168201806040525081019061177b919061305e565b6117c75760405162461bcd60e51b815260206004820152600f60248201527f5472616e73666572206661696c656400000000000000000000000000000000006044820152606401610793565b506001919050565b600c546001600160a01b031633146118295760405162461bcd60e51b815260206004820152600d60248201527f4163636573732064656e696564000000000000000000000000000000000000006044820152606401610793565b600d805460ff7401000000000000000000000000000000000000000080830482161581027fffffffffffffffffffffff00ffffffffffffffffffffffffffffffffffffffff90931692909217928390556040517fdbe6ac1081ebd8e648718341126659456f4009fcadfe1c23f66f5e61522610b2936118b19390049091161515815260200190565b60405180910390a1565b60006118c56120d5565b600e5474010000000000000000000000000000000000000000900460ff16156119305760405162461bcd60e51b815260206004820152601260248201527f436f6e7472616374206973206b696c6c656400000000000000000000000000006044820152606401610793565b60025442106119415761194161212e565b6001600160a01b038216600090815260056020526040902054600d5474010000000000000000000000000000000000000000900460ff16801561198f575061198c6201518082613101565b42115b156119a05761199d836122cc565b50425b62093a80908190040260006014815b81811015611b7d5760008782601481106119cb576119cb613127565b602002015190506001600160a01b0381166119e65750611b7d565b600754600090611a039083908a906001600160a01b031689612682565b90508015611b7357611a158186613101565b94506001600160a01b038816611a9b576040516001600160a01b0383169082156108fc029083906000818181858888f19350505050611a965760405162461bcd60e51b815260206004820152600f60248201527f5472616e73666572206661696c656400000000000000000000000000000000006044820152606401610793565b611b73565b6040517fa9059cbb0000000000000000000000000000000000000000000000000000000081526001600160a01b0383811660048301526024820183905289169063a9059cbb906044016020604051808303816000875af1158015611b03573d6000803e3d6000fd5b505050506040513d601f19601f82011682018060405250810190611b27919061305e565b611b735760405162461bcd60e51b815260206004820152600f60248201527f5472616e73666572206661696c656400000000000000000000000000000000006044820152606401610793565b50506001016119af565b508115611bb2576001600160a01b0385166000908152600a602052604081208054849290611bac908490613114565b90915550505b60019350505050610eac6001600055565b600c546001600160a01b03163314611c1d5760405162461bcd60e51b815260206004820152600d60248201527f4163636573732064656e696564000000000000000000000000000000000000006044820152606401610793565b600d80547fffffffffffffffffffffffff0000000000000000000000000000000000000000166001600160a01b0383169081179091556040517f59a407284ae6e2986675fa1400d6498af928ed01f4fd2dd6be4a2a8b4fc35b3490600090a250565b600c546001600160a01b03163314611cd95760405162461bcd60e51b815260206004820152600d60248201527f4163636573732064656e696564000000000000000000000000000000000000006044820152606401610793565b600e80547fffffffffffffffffffffff00ffffffffffffffffffffffffffffffffffffffff167401000000000000000000000000000000000000000017905560085460005b81811015611f3c57600060088281548110611d3b57611d3b613127565b6000918252602090912001546001600160a01b0316905080611dd057600e546040516001600160a01b03909116904780156108fc02916000818181858888f19350505050611dcb5760405162461bcd60e51b815260206004820152600f60248201527f5472616e73666572206661696c656400000000000000000000000000000000006044820152606401610793565b611f33565b600e546040517f70a082310000000000000000000000000000000000000000000000000000000081523060048201526001600160a01b038381169263a9059cbb9291169083906370a0823190602401602060405180830381865afa158015611e3c573d6000803e3d6000fd5b505050506040513d601f19601f82011682018060405250810190611e609190613156565b6040517fffffffff0000000000000000000000000000000000000000000000000000000060e085901b1681526001600160a01b03909216600483015260248201526044016020604051808303816000875af1158015611ec3573d6000803e3d6000fd5b505050506040513d601f19601f82011682018060405250810190611ee7919061305e565b611f335760405162461bcd60e51b815260206004820152600f60248201527f5472616e73666572206661696c656400000000000000000000000000000000006044820152606401610793565b50600101611d1e565b5050565b6007546040517f81fc83bb0000000000000000000000000000000000000000000000000000000081526001600160a01b0384811660048301526000921690829082906381fc83bb90602401602060405180830381865afa158015611fa8573d6000803e3d6000fd5b505050506040513d601f19601f82011682018060405250810190611fcc9190613156565b90506000611fdc83878785612c83565b6040517f34d901a40000000000000000000000000000000000000000000000000000000081526001600160a01b038881166004830152602482018390529192506000918516906334d901a490604401608060405180830381865afa158015612048573d6000803e3d6000fd5b505050506040513d601f19601f8201168201806040525081019061206c9190613181565b905060008160400151876120809190613114565b826020015161208f91906131f3565b825161209b919061321a565b9050600081600f0b12156120b757600095505050505050610eac565b6fffffffffffffffffffffffffffffffff169450610eac9350505050565b6002600054036121275760405162461bcd60e51b815260206004820152601f60248201527f5265656e7472616e637947756172643a207265656e7472616e742063616c6c006044820152606401610793565b6002600055565b6007546002546001600160a01b0390911690600062093a8061215081426130af565b61215a91906130ea565b9050826001600160a01b031663c2c4c5c16040518163ffffffff1660e01b8152600401600060405180830381600087803b15801561219757600080fd5b505af11580156121ab573d6000803e3d6000fd5b5050505060005b60148110156122c4578183116122c45760006121ce8585612d62565b6040517f8ad4c447000000000000000000000000000000000000000000000000000000008152600481018290529091506000906001600160a01b03871690638ad4c44790602401608060405180830381865afa158015612232573d6000803e3d6000fd5b505050506040513d601f19601f820116820180604052508101906122569190613181565b9050600081604001518611156122785760408201516122759087613268565b90505b80826020015161228891906131f3565b8251612294919061321a565b6000878152600b60205260409020600f9190910b90556122b762093a8087613101565b95505050506001016121b2565b505060025550565b60006001600160a01b0382166122e3575047612367565b6040517f70a082310000000000000000000000000000000000000000000000000000000081523060048201526001600160a01b038316906370a0823190602401602060405180830381865afa158015612340573d6000803e3d6000fd5b505050506040513d601f19601f820116820180604052508101906123649190613156565b90505b6001600160a01b0382166000908152600a602052604081205461238a9083613114565b6001600160a01b0384166000908152600a6020908152604080832086905560059091528120549192506123bd8242613114565b905060006123ce62093a80836130af565b905080156124175762093a80806123e58186613101565b6123ef91906130af565b6123f991906130ea565b92506124058342613114565b915061241462093a80836130af565b90505b6014811061245c5762093a808061242f8160136130ea565b6124399042613114565b61244391906130af565b61244d91906130ea565b92506124598342613114565b91505b6001600160a01b038616600090815260056020526040812042905562093a8061248581866130af565b61248f91906130ea565b90506000805b6014811015612633576124ab62093a8084613101565b91508142101561256157841580156124c257508542145b15612513576001600160a01b038916600090815260066020526040902087908466038d7ea4c6800081106124f8576124f8613127565b0160008282546125089190613101565b909155506126339050565b8461251e8742613114565b61252890896130ea565b61253291906130af565b6001600160a01b038a1660009081526006602052604090208466038d7ea4c6800081106124f8576124f8613127565b8415801561256e57508582145b156125bf576001600160a01b038916600090815260066020526040902087908466038d7ea4c6800081106125a4576125a4613127565b0160008282546125b49190613101565b909155506126239050565b846125ca8784613114565b6125d490896130ea565b6125de91906130af565b6001600160a01b038a1660009081526006602052604090208466038d7ea4c68000811061260d5761260d613127565b01600082825461261d9190613101565b90915550505b9094508491508190600101612495565b5060408051428152602081018890526001600160a01b038a16917f6df0a5bed078180e2881e76873c40450711146fa6156da26b23f6eb7d2de8735910160405180910390a25050505050505050565b6000806040518060e001604052806000815260200160008152602001856001600160a01b03166381fc83bb896040518263ffffffff1660e01b81526004016126d991906001600160a01b0391909116815260200190565b602060405180830381865afa1580156126f6573d6000803e3d6000fd5b505050506040513d601f19601f8201168201806040525081019061271a9190613156565b8152600154602082015260400162093a8061273581426130af565b61273f91906130ea565b81526020810185905260400162093a808061275a8188613101565b61276491906130af565b61276e91906130ea565b81525090508060c0015181608001511061278d5760c081015160a08201525b80604001516000036127a3576000915050612c7b565b6001600160a01b038087166000908152600360209081526040808320938916835292905290812054908190036127ee576127e7858884606001518560400151612c83565b8252612817565b6001600160a01b038088166000908152600460209081526040808320938a168352929052205482525b815160000361282557600182525b81516040517f34d901a40000000000000000000000000000000000000000000000000000000081526001600160a01b03898116600483015260248201929092526000918716906334d901a490604401608060405180830381865afa158015612891573d6000803e3d6000fd5b505050506040513d601f19601f820116820180604052508101906128b59190613181565b9050816000036128fa5762093a8080600162093a8084604001516128d99190613101565b6128e39190613114565b6128ed91906130af565b6128f791906130ea565b91505b8260a0015182106129115760009350505050612c7b565b826060015182101561292557826060015191505b6040805160808101825260008082526020820181905291810182905260608101829052905b6032811015612bc7578460a00151841015612bc7578260400151841015801561297857506040850151855111155b15612a9b576001856000018181516129909190613101565b905250604080516080810182528451600f90810b825260208087015190910b908201528482015181830152606080860151908201529086015186519193501015612a065760405180608001604052806000600f0b81526020016000600f0b81526020016000815260200160008152509250612bbf565b84516040517f34d901a40000000000000000000000000000000000000000000000000000000081526001600160a01b038c811660048301526024820192909252908916906334d901a490604401608060405180830381865afa158015612a70573d6000803e3d6000fd5b505050506040513d601f19601f82011682018060405250810190612a949190613181565b9250612bbf565b60006040518060600160405280846040015187612ab89190613268565b815260200160008152602001600081525090508260200151600f0b8160000151612ae29190613288565b8351612af19190600f0b613268565b6020820181905260001315612b0857600060208201525b6020810151158015612b1e575060408601518651115b15612b295750612bc7565b600081602001511315612bae576001600160a01b038a1660009081526006602052604090208566038d7ea4c680008110612b6557612b65613127565b015460408083019182526000878152600b602090815291902054915190830151612b8f91906130ea565b612b9991906130af565b86602001818151612baa9190613101565b9052505b612bbb62093a8086613101565b9450505b60010161294a565b50612be6846040015160018660000151612be19190613114565b612ea1565b8085526001600160a01b038a81166000818152600460209081526040808320948e168084529482528083209590955582825260038152848220938252928352839020869055818701518751848901518551928352938201528084019290925291517f9cdcf2f7714cca3508c7f0110b04a90a80a3a8dd0e35de99689db74d28c5383e9181900360600190a25050506020015190505b949350505050565b60008082815b6080811015612d565781831015612d56576040517f34d901a40000000000000000000000000000000000000000000000000000000081526001600160a01b038881166004830152600284860181010460248301819052916000918b16906334d901a490604401608060405180830381865afa158015612d0c573d6000803e3d6000fd5b505050506040513d601f19601f82011682018060405250810190612d309190613181565b905087816040015111612d4557819450612d4c565b6001820393505b5050600101612c89565b50909695505050505050565b600080600090506000846001600160a01b031663900cf0cf6040518163ffffffff1660e01b8152600401602060405180830381865afa158015612da9573d6000803e3d6000fd5b505050506040513d601f19601f82011682018060405250810190612dcd9190613156565b905060005b6080811015612e975781831015612e97576040517f8ad4c447000000000000000000000000000000000000000000000000000000008152600283850181010460048201819052906000906001600160a01b03891690638ad4c44790602401608060405180830381865afa158015612e4d573d6000803e3d6000fd5b505050506040513d601f19601f82011682018060405250810190612e719190613181565b905086816040015111612e8657819450612e8d565b6001820393505b5050600101612dd2565b5090949350505050565b6000818310612eb05781612eb2565b825b9392505050565b80356001600160a01b038116811461094c57600080fd5b60008060408385031215612ee357600080fd5b612eec83612eb9565b946020939093013593505050565b60008060408385031215612f0d57600080fd5b612f1683612eb9565b9150612f2460208401612eb9565b90509250929050565b600060208284031215612f3f57600080fd5b5035919050565b600060208284031215612f5857600080fd5b612eb282612eb9565b7f4e487b7100000000000000000000000000000000000000000000000000000000600052604160045260246000fd5b600082601f830112612fa157600080fd5b60405161028080820182811067ffffffffffffffff82111715612fc657612fc6612f61565b60405283018185821115612fd957600080fd5b845b82811015612ffa57612fec81612eb9565b825260209182019101612fdb565b509195945050505050565b6000806102a0838503121561301957600080fd5b61302283612eb9565b9150612f248460208501612f90565b6000806102a0838503121561304557600080fd5b61304f8484612f90565b9150612f246102808401612eb9565b60006020828403121561307057600080fd5b81518015158114612eb257600080fd5b7f4e487b7100000000000000000000000000000000000000000000000000000000600052601160045260246000fd5b6000826130e5577f4e487b7100000000000000000000000000000000000000000000000000000000600052601260045260246000fd5b500490565b8082028115828204841417610eac57610eac613080565b80820180821115610eac57610eac613080565b81810381811115610eac57610eac613080565b7f4e487b7100000000000000000000000000000000000000000000000000000000600052603260045260246000fd5b60006020828403121561316857600080fd5b5051919050565b8051600f81900b811461094c57600080fd5b60006080828403121561319357600080fd5b6040516080810181811067ffffffffffffffff821117156131b6576131b6612f61565b6040526131c28361316f565b81526131d06020840161316f565b602082015260408301516040820152606083015160608201528091505092915050565b600082600f0b82600f0b0280600f0b915080821461321357613213613080565b5092915050565b600f82810b9082900b037fffffffffffffffffffffffffffffffff8000000000000000000000000000000081126f7fffffffffffffffffffffffffffffff82131715610eac57610eac613080565b818103600083128015838313168383128216171561321357613213613080565b808202600082127f8000000000000000000000000000000000000000000000000000000000000000841416156132c0576132c0613080565b8181058314821517610eac57610eac61308056fea264697066735822122000dcbca87c65e6170f9679cf6be6a6b261548425a9b75d372f4ae4510b726d7364736f6c63430008120033",
  "linkReferences": {},
  "deployedLinkReferences": {}
}