{
  "_format": "hh-sol-artifact-1",
  "contractName": "Minter",
  "sourceName": "contracts/Minter.sol",
  "abi": [
    {
      "inputs": [
        {
          "internalType": "address",
          "name": "_token",
          "type": "address"
        },
        {
          "internalType": "address",
          "name": "_controller",
          "type": "address"
        }
      ],
      "stateMutability": "nonpayable",
      "type": "constructor"
    },
    {
      "anonymous": false,
      "inputs": [
        {
          "indexed": true,
          "internalType": "address",
          "name": "recipient",
          "type": "address"
        },
        {
          "indexed": false,
          "internalType": "address",
          "name": "gauge",
          "type": "address"
        },
        {
          "indexed": false,
          "internalType": "uint256",
          "name": "minted",
          "type": "uint256"
        }
      ],
      "name": "Minted",
      "type": "event"
    },
    {
      "inputs": [
        {
          "internalType": "address",
          "name": "",
          "type": "address"
        },
        {
          "internalType": "address",
          "name": "",
          "type": "address"
        }
      ],
      "name": "allowedToMintFor",
      "outputs": [
        {
          "internalType": "bool",
          "name": "",
          "type": "bool"
        }
      ],
      "stateMutability": "view",
      "type": "function"
    },
    {
      "inputs": [],
      "name": "controller",
      "outputs": [
        {
          "internalType": "address",
          "name": "",
          "type": "address"
        }
      ],
      "stateMutability": "view",
      "type": "function"
    },
    {
      "inputs": [
        {
          "internalType": "address",
          "name": "gaugeAddr_",
          "type": "address"
        }
      ],
      "name": "mint",
      "outputs": [],
      "stateMutability": "nonpayable",
      "type": "function"
    },
    {
      "inputs": [
        {
          "internalType": "address",
          "name": "gaugeAddr_",
          "type": "address"
        },
        {
          "internalType": "address",
          "name": "for_",
          "type": "address"
        }
      ],
      "name": "mintFor",
      "outputs": [],
      "stateMutability": "nonpayable",
      "type": "function"
    },
    {
      "inputs": [
        {
          "internalType": "address[8]",
          "name": "gaugeAddrs_",
          "type": "address[8]"
        }
      ],
      "name": "mintMany",
      "outputs": [],
      "stateMutability": "nonpayable",
      "type": "function"
    },
    {
      "inputs": [
        {
          "internalType": "address",
          "name": "",
          "type": "address"
        },
        {
          "internalType": "address",
          "name": "",
          "type": "address"
        }
      ],
      "name": "minted",
      "outputs": [
        {
          "internalType": "uint256",
          "name": "",
          "type": "uint256"
        }
      ],
      "stateMutability": "view",
      "type": "function"
    },
    {
      "inputs": [
        {
          "internalType": "address",
          "name": "mintingUser_",
          "type": "address"
        }
      ],
      "name": "toggleApproveMint",
      "outputs": [],
      "stateMutability": "nonpayable",
      "type": "function"
    },
    {
      "inputs": [],
      "name": "token",
      "outputs": [
        {
          "internalType": "address",
          "name": "",
          "type": "address"
        }
      ],
      "stateMutability": "view",
      "type": "function"
    }
  ],
  "bytecode": "0x608060405234801561001057600080fd5b506040516109d33803806109d383398101604081905261002f91610081565b6001600081905580546001600160a01b039384166001600160a01b031991821617909155600280549290931691161790556100b4565b80516001600160a01b038116811461007c57600080fd5b919050565b6000806040838503121561009457600080fd5b61009d83610065565b91506100ab60208401610065565b90509250929050565b610910806100c36000396000f3fe608060405234801561001057600080fd5b50600436106100885760003560e01c80637586d12c1161005b5780637586d12c146101655780638b752bb014610178578063f77c4791146101b1578063fc0c546a146101f657600080fd5b80630f3ec9981461008d578063388de6ce146100fc5780636a6278421461013f5780637504a15d14610152575b600080fd5b6100fa61009b36600461072e565b73ffffffffffffffffffffffffffffffffffffffff1660009081526004602090815260408083203384529091529020805460ff8116157fffffffffffffffffffffffffffffffffffffffffffffffffffffffffffffff00909116179055565b005b61012a61010a366004610750565b600460209081526000928352604080842090915290825290205460ff1681565b60405190151581526020015b60405180910390f35b6100fa61014d36600461072e565b610216565b6100fa610160366004610750565b610235565b6100fa610173366004610783565b61028e565b6101a3610186366004610750565b600360209081526000928352604080842090915290825290205481565b604051908152602001610136565b6002546101d19073ffffffffffffffffffffffffffffffffffffffff1681565b60405173ffffffffffffffffffffffffffffffffffffffff9091168152602001610136565b6001546101d19073ffffffffffffffffffffffffffffffffffffffff1681565b61021e610309565b6102288133610381565b6102326001600055565b50565b61023d610309565b33600090815260046020908152604080832073ffffffffffffffffffffffffffffffffffffffff8516845290915290205460ff1615610280576102808282610381565b61028a6001600055565b5050565b610296610309565b60005b60088110156102fe5760008282600881106102b6576102b6610830565b602002015173ffffffffffffffffffffffffffffffffffffffff16146102fe576102f68282600881106102eb576102eb610830565b602002015133610381565b600101610299565b506102326001600055565b60026000540361037a576040517f08c379a000000000000000000000000000000000000000000000000000000000815260206004820152601f60248201527f5265656e7472616e637947756172643a207265656e7472616e742063616c6c0060448201526064015b60405180910390fd5b6002600055565b6002546040517fe24862e800000000000000000000000000000000000000000000000000000000815273ffffffffffffffffffffffffffffffffffffffff8481166004830152600092169063e24862e890602401602060405180830381865afa1580156103f2573d6000803e3d6000fd5b505050506040513d601f19601f82011682018060405250810190610416919061085f565b101561047e576040517f08c379a000000000000000000000000000000000000000000000000000000000815260206004820152601760248201527f6465763a206761756765206973206e6f742061646465640000000000000000006044820152606401610371565b6040517fb07b709b00000000000000000000000000000000000000000000000000000000815273ffffffffffffffffffffffffffffffffffffffff828116600483015283169063b07b709b906024016020604051808303816000875af11580156104ec573d6000803e3d6000fd5b505050506040513d601f19601f820116820180604052508101906105109190610878565b506040517fcaa0b9ed00000000000000000000000000000000000000000000000000000000815273ffffffffffffffffffffffffffffffffffffffff82811660048301526000919084169063caa0b9ed90602401602060405180830381865afa158015610581573d6000803e3d6000fd5b505050506040513d601f19601f820116820180604052508101906105a5919061085f565b73ffffffffffffffffffffffffffffffffffffffff8084166000908152600360209081526040808320938816835292905290812054919250906105e8908361089a565b905080156106ff576001546040517f40c10f1900000000000000000000000000000000000000000000000000000000815273ffffffffffffffffffffffffffffffffffffffff858116600483015260248201849052909116906340c10f19906044016020604051808303816000875af1158015610669573d6000803e3d6000fd5b505050506040513d601f19601f8201168201806040525081019061068d9190610878565b5073ffffffffffffffffffffffffffffffffffffffff8381166000818152600360209081526040808320948916808452948252918290208690558151938452830185905290917f9d228d69b5fdb8d273a2336f8fb8612d039631024ea9bf09c424a9503aa078f0910160405180910390a25b50505050565b803573ffffffffffffffffffffffffffffffffffffffff8116811461072957600080fd5b919050565b60006020828403121561074057600080fd5b61074982610705565b9392505050565b6000806040838503121561076357600080fd5b61076c83610705565b915061077a60208401610705565b90509250929050565b600061010080838503121561079757600080fd5b83601f8401126107a657600080fd5b60405181810181811067ffffffffffffffff821117156107ef577f4e487b7100000000000000000000000000000000000000000000000000000000600052604160045260246000fd5b60405290830190808583111561080457600080fd5b845b838110156108255761081781610705565b825260209182019101610806565b509095945050505050565b7f4e487b7100000000000000000000000000000000000000000000000000000000600052603260045260246000fd5b60006020828403121561087157600080fd5b5051919050565b60006020828403121561088a57600080fd5b8151801515811461074957600080fd5b818103818111156108d4577f4e487b7100000000000000000000000000000000000000000000000000000000600052601160045260246000fd5b9291505056fea2646970667358221220ec1e1d5f5b33d27e30d29c3c38990ec555eb142866dcf5ba9e4aff4b622b80ef64736f6c63430008120033",
  "linkReferences": {},
  "deployedLinkReferences": {}
}