{
  "_format": "hh-sol-artifact-1",
  "contractName": "TemplateV1_5",
  "sourceName": "contracts/TemplateV1_5.sol",
  "abi": [
    {
      "inputs": [
        {
          "internalType": "address",
          "name": "factory_",
          "type": "address"
        },
        {
          "internalType": "address",
          "name": "feePool_",
          "type": "address"
        },
        {
          "internalType": "address",
          "name": "distributor_",
          "type": "address"
        },
        {
          "internalType": "address",
          "name": "feeDistributor_",
          "type": "address"
        }
      ],
      "stateMutability": "nonpayable",
      "type": "constructor"
    },
    {
      "anonymous": false,
      "inputs": [
        {
          "indexed": true,
          "internalType": "address",
          "name": "participant",
          "type": "address"
        },
        {
          "indexed": true,
          "internalType": "address",
          "name": "recipient",
          "type": "address"
        },
        {
          "indexed": false,
          "internalType": "uint256",
          "name": "userShare",
          "type": "uint256"
        },
        {
          "indexed": false,
          "internalType": "uint256",
          "name": "allocation",
          "type": "uint256"
        }
      ],
      "name": "Claimed",
      "type": "event"
    },
    {
      "anonymous": false,
      "inputs": [
        {
          "indexed": false,
          "internalType": "address",
          "name": "deployedAddress",
          "type": "address"
        },
        {
          "indexed": false,
          "internalType": "address",
          "name": "owner",
          "type": "address"
        },
        {
          "indexed": false,
          "internalType": "uint256",
          "name": "startingAt",
          "type": "uint256"
        },
        {
          "indexed": false,
          "internalType": "uint256",
          "name": "closingAt",
          "type": "uint256"
        },
        {
          "indexed": false,
          "internalType": "address",
          "name": "auctionToken",
          "type": "address"
        },
        {
          "indexed": false,
          "internalType": "bytes",
          "name": "raisedTokens",
          "type": "bytes"
        },
        {
          "indexed": false,
          "internalType": "bytes",
          "name": "args",
          "type": "bytes"
        }
      ],
      "name": "Deployed",
      "type": "event"
    },
    {
      "anonymous": false,
      "inputs": [
        {
          "indexed": true,
          "internalType": "address",
          "name": "participant",
          "type": "address"
        },
        {
          "indexed": false,
          "internalType": "address",
          "name": "token",
          "type": "address"
        },
        {
          "indexed": false,
          "internalType": "uint256",
          "name": "amount",
          "type": "uint256"
        }
      ],
      "name": "Raised",
      "type": "event"
    },
    {
      "inputs": [],
      "name": "allocatedAmount",
      "outputs": [
        {
          "internalType": "uint256",
          "name": "",
          "type": "uint256"
        }
      ],
      "stateMutability": "view",
      "type": "function"
    },
    {
      "inputs": [
        {
          "internalType": "address",
          "name": "participant",
          "type": "address"
        },
        {
          "internalType": "address",
          "name": "recipient",
          "type": "address"
        }
      ],
      "name": "claim",
      "outputs": [],
      "stateMutability": "nonpayable",
      "type": "function"
    },
    {
      "inputs": [],
      "name": "closingAt",
      "outputs": [
        {
          "internalType": "uint256",
          "name": "",
          "type": "uint256"
        }
      ],
      "stateMutability": "view",
      "type": "function"
    },
    {
      "inputs": [],
      "name": "erc20onsale",
      "outputs": [
        {
          "internalType": "contract IERC20",
          "name": "",
          "type": "address"
        }
      ],
      "stateMutability": "view",
      "type": "function"
    },
    {
      "inputs": [],
      "name": "feeDistributor",
      "outputs": [
        {
          "internalType": "address",
          "name": "",
          "type": "address"
        }
      ],
      "stateMutability": "view",
      "type": "function"
    },
    {
      "inputs": [
        {
          "internalType": "address",
          "name": "owner_",
          "type": "address"
        },
        {
          "internalType": "uint256",
          "name": "startingAt_",
          "type": "uint256"
        },
        {
          "internalType": "uint256",
          "name": "eventDuration_",
          "type": "uint256"
        },
        {
          "internalType": "address",
          "name": "token_",
          "type": "address"
        },
        {
          "internalType": "uint256",
          "name": "allocatedAmount_",
          "type": "uint256"
        },
        {
          "internalType": "uint256",
          "name": "minRaisedAmount_",
          "type": "uint256"
        }
      ],
      "name": "initialize",
      "outputs": [
        {
          "internalType": "address",
          "name": "",
          "type": "address"
        },
        {
          "internalType": "uint256",
          "name": "",
          "type": "uint256"
        }
      ],
      "stateMutability": "payable",
      "type": "function"
    },
    {
      "inputs": [
        {
          "internalType": "address",
          "name": "token_",
          "type": "address"
        },
        {
          "internalType": "uint256",
          "name": "amount_",
          "type": "uint256"
        },
        {
          "internalType": "address",
          "name": "to_",
          "type": "address"
        }
      ],
      "name": "initializeTransfer",
      "outputs": [],
      "stateMutability": "nonpayable",
      "type": "function"
    },
    {
      "inputs": [],
      "name": "minRaisedAmount",
      "outputs": [
        {
          "internalType": "uint256",
          "name": "",
          "type": "uint256"
        }
      ],
      "stateMutability": "view",
      "type": "function"
    },
    {
      "inputs": [],
      "name": "owner",
      "outputs": [
        {
          "internalType": "address",
          "name": "",
          "type": "address"
        }
      ],
      "stateMutability": "view",
      "type": "function"
    },
    {
      "inputs": [
        {
          "internalType": "address",
          "name": "",
          "type": "address"
        }
      ],
      "name": "raised",
      "outputs": [
        {
          "internalType": "uint256",
          "name": "",
          "type": "uint256"
        }
      ],
      "stateMutability": "view",
      "type": "function"
    },
    {
      "inputs": [],
      "name": "startingAt",
      "outputs": [
        {
          "internalType": "uint256",
          "name": "",
          "type": "uint256"
        }
      ],
      "stateMutability": "view",
      "type": "function"
    },
    {
      "inputs": [],
      "name": "totalRaised",
      "outputs": [
        {
          "internalType": "uint256",
          "name": "",
          "type": "uint256"
        }
      ],
      "stateMutability": "view",
      "type": "function"
    },
    {
      "inputs": [],
      "name": "withdrawERC20Onsale",
      "outputs": [],
      "stateMutability": "nonpayable",
      "type": "function"
    },
    {
      "inputs": [],
      "name": "withdrawRaisedETH",
      "outputs": [],
      "stateMutability": "nonpayable",
      "type": "function"
    },
    {
      "stateMutability": "payable",
      "type": "receive"
    }
  ],
  "bytecode": "0x6101006040523480156200001257600080fd5b5060405162001f3a38038062001f3a83398101604081905262000035916200007a565b6001600160a01b0393841660a052918316608052821660c05260016003551660e052620000d7565b80516001600160a01b03811681146200007557600080fd5b919050565b600080600080608085870312156200009157600080fd5b6200009c856200005d565b9350620000ac602086016200005d565b9250620000bc604086016200005d565b9150620000cc606086016200005d565b905092959194509250565b60805160a05160c05160e051611e0d6200012d600039600081816102f601528181611546015261166701526000818161071401526113d00152600081816109520152610a01015260006112ea0152611e0d6000f3fe6080604052600436106100e15760003560e01c80638da5cb5b1161007f578063c5c4744c11610059578063c5c4744c14610487578063d2a31c901461049d578063dccd4315146104ca578063fdc2c74d146104e057600080fd5b80638da5cb5b1461042a578063a6e00ca51461045c578063b86c0e1f1461047157600080fd5b806318dfe5cf116100bb57806318dfe5cf1461039357806321c0b342146103a957806328fb0cfe146103cb5780637e7e9ca9146103eb57600080fd5b80630d43e8ad146102e4578063115425e4146103425780631391fd601461036657600080fd5b366102df5742600154111561013d5760405162461bcd60e51b815260206004820181905260248201527f546865206f66666572696e6720686173206e6f7420737461727465642079657460448201526064015b60405180910390fd5b60025442111561018f5760405162461bcd60e51b815260206004820152601e60248201527f546865206f66666572696e672068617320616c726561647920656e64656400006044820152606401610134565b66038d7ea4c6800034101561020c5760405162461bcd60e51b815260206004820152603460248201527f54686520616d6f756e74206d7573742062652067726561746572207468616e2060448201527f6f7220657175616c20746f20302e3030314554480000000000000000000000006064820152608401610134565b60003460075461021c9190611b1b565b90506b033b2e3c9fd0803ce800000081106102795760405162461bcd60e51b815260206004820181905260248201527f746f74616c52616973656420697320756e65787065637465646c7920686967686044820152606401610134565b6007819055336000908152600860205260408120805434929061029d908490611b1b565b9091555050604080516000815234602082015233917f5d071d5d77696f8867c9e019adc5efcfb6d17f38e3192132d491a137da359d59910160405180910390a2005b600080fd5b3480156102f057600080fd5b506103187f000000000000000000000000000000000000000000000000000000000000000081565b60405173ffffffffffffffffffffffffffffffffffffffff90911681526020015b60405180910390f35b34801561034e57600080fd5b5061035860055481565b604051908152602001610339565b34801561037257600080fd5b50610358610381366004611b5d565b60086020526000908152604090205481565b34801561039f57600080fd5b5061035860065481565b3480156103b557600080fd5b506103c96103c4366004611b7f565b6104f5565b005b3480156103d757600080fd5b506103c96103e6366004611bb2565b61093a565b6103fe6103f9366004611bee565b6109e6565b6040805173ffffffffffffffffffffffffffffffffffffffff9093168352602083019190915201610339565b34801561043657600080fd5b5060005461031890610100900473ffffffffffffffffffffffffffffffffffffffff1681565b34801561046857600080fd5b506103c9611034565b34801561047d57600080fd5b5061035860025481565b34801561049357600080fd5b5061035860075481565b3480156104a957600080fd5b506004546103189073ffffffffffffffffffffffffffffffffffffffff1681565b3480156104d657600080fd5b5061035860015481565b3480156104ec57600080fd5b506103c961113f565b6104fd6116e8565b60025442116105745760405162461bcd60e51b815260206004820152602560248201527f4561726c7920746f20636c61696d2e2053616c65206973206e6f742066696e6960448201527f736865642e0000000000000000000000000000000000000000000000000000006064820152608401610134565b73ffffffffffffffffffffffffffffffffffffffff8216600090815260086020526040902054806105e75760405162461bcd60e51b815260206004820181905260248201527f596f7520646f6e2774206861766520616e7920636f6e747269627574696f6e2e6044820152606401610134565b73ffffffffffffffffffffffffffffffffffffffff83166000908152600860205260408120819055600754600554610620918491611741565b90506006546007541015801561063557508015155b15610822573373ffffffffffffffffffffffffffffffffffffffff85161480159061068c57508273ffffffffffffffffffffffffffffffffffffffff168473ffffffffffffffffffffffffffffffffffffffff1614155b156106d95760405162461bcd60e51b815260206004820181905260248201527f7061727469636970616e74206f7220726563697069656e7420696e76616c69646044820152606401610134565b6004546106fd9073ffffffffffffffffffffffffffffffffffffffff168483611782565b73ffffffffffffffffffffffffffffffffffffffff7f00000000000000000000000000000000000000000000000000000000000000001663d119db4c85610745606486611c46565b6040517fffffffff0000000000000000000000000000000000000000000000000000000060e085901b16815273ffffffffffffffffffffffffffffffffffffffff90921660048301526024820152604401600060405180830381600087803b1580156107b057600080fd5b505af11580156107c4573d6000803e3d6000fd5b5050604080518581526020810185905273ffffffffffffffffffffffffffffffffffffffff8088169450881692507f2f6639d24651730c7bf57c95ddbf96d66d11477e4ec626876f92c22e5f365e68910160405180910390a361092a565b60008473ffffffffffffffffffffffffffffffffffffffff168360405160006040518083038185875af1925050503d806000811461087c576040519150601f19603f3d011682016040523d82523d6000602084013e610881565b606091505b50509050806108d25760405162461bcd60e51b815260206004820152600f60248201527f7472616e73666572206661696c656400000000000000000000000000000000006044820152606401610134565b604080518481526000602082015273ffffffffffffffffffffffffffffffffffffffff80871692908816917f2f6639d24651730c7bf57c95ddbf96d66d11477e4ec626876f92c22e5f365e68910160405180910390a3505b50506109366001600355565b5050565b3073ffffffffffffffffffffffffffffffffffffffff7f000000000000000000000000000000000000000000000000000000000000000016146109bf5760405162461bcd60e51b815260206004820152601860248201527f596f7520617265206e6f742074686520666163746f72792e00000000000000006044820152606401610134565b6109e173ffffffffffffffffffffffffffffffffffffffff8416338385611856565b505050565b6000803373ffffffffffffffffffffffffffffffffffffffff7f00000000000000000000000000000000000000000000000000000000000000001614610a6e5760405162461bcd60e51b815260206004820152601860248201527f596f7520617265206e6f742074686520666163746f72792e00000000000000006044820152606401610134565b60005460ff1615610ae75760405162461bcd60e51b815260206004820152602a60248201527f5468697320636f6e74726163742068617320616c7265616479206265656e206960448201527f6e697469616c697a6564000000000000000000000000000000000000000000006064820152608401610134565b600080547fffffffffffffffffffffffffffffffffffffffffffffffffffffffffffffff001660011790553415610b865760405162461bcd60e51b815260206004820152602e60248201527f5468697320636f6e747261637420646f6573206e6f742061636365707420746860448201527f65206372656174696f6e206665650000000000000000000000000000000000006064820152608401610134565b73ffffffffffffffffffffffffffffffffffffffff8816610be95760405162461bcd60e51b815260206004820152601360248201527f6f776e6572206d757374206265207468657265000000000000000000000000006044820152606401610134565b73ffffffffffffffffffffffffffffffffffffffff8516610c4c5760405162461bcd60e51b815260206004820152601960248201527f476f2077697468206e6f6e206e756c6c20616464726573732e000000000000006044820152606401610134565b620f4240841015610cc55760405162461bcd60e51b815260206004820152603560248201527f616c6c6f6361746564416d6f756e74206d75737420626520677265617465722060448201527f7468616e206f7220657175616c20746f203165362e00000000000000000000006064820152608401610134565b74446c3b15f9926687d2c40534fdb564000000000000841115610d505760405162461bcd60e51b815260206004820152603360248201527f616c6c6f6361746564416d6f756e74206d757374206265206c6573732074686160448201527f6e206f7220657175616c20746f20316535302e000000000000000000000000006064820152608401610134565b86421115610da05760405162461bcd60e51b815260206004820181905260248201527f7374617274696e674174206d75737420626520696e20746865206675747572656044820152606401610134565b62015180861015610df35760405162461bcd60e51b815260206004820152601b60248201527f6576656e74206475726174696f6e20697320746f6f2073686f727400000000006044820152606401610134565b62278d00861115610e465760405162461bcd60e51b815260206004820152601a60248201527f6576656e74206475726174696f6e20697320746f6f206c6f6e670000000000006044820152606401610134565b6b033b2e3c9fd0803ce8000000831115610ec85760405162461bcd60e51b815260206004820152603360248201527f6d696e526169736564416d6f756e74206d757374206265206c6573732074686160448201527f6e206f7220657175616c20746f20316532372e000000000000000000000000006064820152608401610134565b600080547fffffffffffffffffffffff0000000000000000000000000000000000000000ff1661010073ffffffffffffffffffffffffffffffffffffffff8b16021790556001879055610f1b8688611b1b565b6002819055600480547fffffffffffffffffffffffff00000000000000000000000000000000000000001673ffffffffffffffffffffffffffffffffffffffff881617905560058590556006849055604051600060208201527f6941bafd33fd21cfca650065c154bba3f36b75ea861c243be4cfa41505906b7c9130918b918b918a90603401604080517fffffffffffffffffffffffffffffffffffffffffffffffffffffffffffffffe0818403018152828252602083018d90529082018b905290606001604080517fffffffffffffffffffffffffffffffffffffffffffffffffffffffffffffffe08184030181529082905261101e97969594939291611ccb565b60405180910390a1509296919550909350505050565b42600254106110855760405162461bcd60e51b815260206004820152601e60248201527f546865206f66666572696e67206d75737420626520636f6d706c6574656400006044820152606401610134565b60065460075410806110975750600754155b6111085760405162461bcd60e51b8152602060048201526024808201527f54686520726571756972656420616d6f756e7420686173206265656e2072616960448201527f73656421000000000000000000000000000000000000000000000000000000006064820152608401610134565b60005460055460045461113d9273ffffffffffffffffffffffffffffffffffffffff9182169261010090910490911690611782565b565b6111476116e8565b42600254106111985760405162461bcd60e51b815260206004820152601b60248201527f5769746864726177616c20756e617661696c61626c65207965742e00000000006044820152606401610134565b60065460075410156112125760405162461bcd60e51b815260206004820152602860248201527f54686520726571756972656420616d6f756e7420686173206e6f74206265656e60448201527f20726169736564210000000000000000000000000000000000000000000000006064820152608401610134565b426002546203f4806112249190611b1b565b106112bb57600061124166038d7ea4c68000600754600554611741565b9050600081116112b95760405162461bcd60e51b815260206004820152603860248201527f526566756e642063616e64696461746573206d61792065786973742e2057697460448201527f6864726177616c20756e617661696c61626c65207965742e00000000000000006064820152608401610134565b505b4760006112c9606483611d38565b905060006112d8600a83611d38565b90506112e48183611d73565b915060007f000000000000000000000000000000000000000000000000000000000000000073ffffffffffffffffffffffffffffffffffffffff168260405160006040518083038185875af1925050503d8060008114611360576040519150601f19603f3d011682016040523d82523d6000602084013e611365565b606091505b50509050806113b65760405162461bcd60e51b815260206004820152601360248201527f466565207472616e73666572206661696c6564000000000000000000000000006044820152606401610134565b60005473ffffffffffffffffffffffffffffffffffffffff7f000000000000000000000000000000000000000000000000000000000000000081169163d119db4c916101009091041661140a606488611c46565b6040517fffffffff0000000000000000000000000000000000000000000000000000000060e085901b16815273ffffffffffffffffffffffffffffffffffffffff90921660048301526024820152604401600060405180830381600087803b15801561147557600080fd5b505af1158015611489573d6000803e3d6000fd5b505060008054604051919350610100900473ffffffffffffffffffffffffffffffffffffffff16915047908381818185875af1925050503d80600081146114ec576040519150601f19603f3d011682016040523d82523d6000602084013e6114f1565b606091505b50509050806115425760405162461bcd60e51b815260206004820152600f60248201527f5769746864726177206661696c656400000000000000000000000000000000006044820152606401610134565b60007f000000000000000000000000000000000000000000000000000000000000000073ffffffffffffffffffffffffffffffffffffffff168560405160006040518083038185875af1925050503d80600081146115bc576040519150601f19603f3d011682016040523d82523d6000602084013e6115c1565b606091505b50509050806116385760405162461bcd60e51b815260206004820152602160248201527f5472616e7366657220746f204665654469737472696275746f72206661696c6560448201527f64000000000000000000000000000000000000000000000000000000000000006064820152608401610134565b6040517f3902b9bc000000000000000000000000000000000000000000000000000000008152600060048201527f000000000000000000000000000000000000000000000000000000000000000073ffffffffffffffffffffffffffffffffffffffff1690633902b9bc90602401600060405180830381600087803b1580156116c057600080fd5b505af11580156116d4573d6000803e3d6000fd5b5050505050505050505061113d6001600355565b60026003540361173a5760405162461bcd60e51b815260206004820152601f60248201527f5265656e7472616e637947756172643a207265656e7472616e742063616c6c006044820152606401610134565b6002600355565b60006b033b2e3c9fd0803ce8000000828461175c8388611c46565b6117669190611d38565b6117709190611c46565b61177a9190611d38565b949350505050565b60405173ffffffffffffffffffffffffffffffffffffffff83166024820152604481018290526109e19084907fa9059cbb00000000000000000000000000000000000000000000000000000000906064015b604080517fffffffffffffffffffffffffffffffffffffffffffffffffffffffffffffffe08184030181529190526020810180517bffffffffffffffffffffffffffffffffffffffffffffffffffffffff167fffffffff00000000000000000000000000000000000000000000000000000000909316929092179091526118ba565b60405173ffffffffffffffffffffffffffffffffffffffff808516602483015283166044820152606481018290526118b49085907f23b872dd00000000000000000000000000000000000000000000000000000000906084016117d4565b50505050565b600061191c826040518060400160405280602081526020017f5361666545524332303a206c6f772d6c6576656c2063616c6c206661696c65648152508573ffffffffffffffffffffffffffffffffffffffff166119af9092919063ffffffff16565b905080516000148061193d57508080602001905181019061193d9190611d86565b6109e15760405162461bcd60e51b815260206004820152602a60248201527f5361666545524332303a204552433230206f7065726174696f6e20646964206e60448201527f6f742073756363656564000000000000000000000000000000000000000000006064820152608401610134565b606061177a8484600085856000808673ffffffffffffffffffffffffffffffffffffffff1685876040516119e39190611da8565b60006040518083038185875af1925050503d8060008114611a20576040519150601f19603f3d011682016040523d82523d6000602084013e611a25565b606091505b5091509150611a3687838387611a41565b979650505050505050565b60608315611abd578251600003611ab65773ffffffffffffffffffffffffffffffffffffffff85163b611ab65760405162461bcd60e51b815260206004820152601d60248201527f416464726573733a2063616c6c20746f206e6f6e2d636f6e74726163740000006044820152606401610134565b508161177a565b61177a8383815115611ad25781518083602001fd5b8060405162461bcd60e51b81526004016101349190611dc4565b7f4e487b7100000000000000000000000000000000000000000000000000000000600052601160045260246000fd5b80820180821115611b2e57611b2e611aec565b92915050565b803573ffffffffffffffffffffffffffffffffffffffff81168114611b5857600080fd5b919050565b600060208284031215611b6f57600080fd5b611b7882611b34565b9392505050565b60008060408385031215611b9257600080fd5b611b9b83611b34565b9150611ba960208401611b34565b90509250929050565b600080600060608486031215611bc757600080fd5b611bd084611b34565b925060208401359150611be560408501611b34565b90509250925092565b60008060008060008060c08789031215611c0757600080fd5b611c1087611b34565b95506020870135945060408701359350611c2c60608801611b34565b92506080870135915060a087013590509295509295509295565b8082028115828204841417611b2e57611b2e611aec565b60005b83811015611c78578181015183820152602001611c60565b50506000910152565b60008151808452611c99816020860160208601611c5d565b601f017fffffffffffffffffffffffffffffffffffffffffffffffffffffffffffffffe0169290920160200192915050565b600073ffffffffffffffffffffffffffffffffffffffff808a168352808916602084015287604084015286606084015280861660808401525060e060a0830152611d1860e0830185611c81565b82810360c0840152611d2a8185611c81565b9a9950505050505050505050565b600082611d6e577f4e487b7100000000000000000000000000000000000000000000000000000000600052601260045260246000fd5b500490565b81810381811115611b2e57611b2e611aec565b600060208284031215611d9857600080fd5b81518015158114611b7857600080fd5b60008251611dba818460208701611c5d565b9190910192915050565b602081526000611b786020830184611c8156fea2646970667358221220441de877618d23fcf8b3b1d9d0b14548cdc2766e94e0c3d0e0547a8a3db71d2d64736f6c63430008120033",
  "linkReferences": {},
  "deployedLinkReferences": {}
}