{
  "_format": "hh-sol-artifact-1",
  "contractName": "UpgradableGaugeControllerOriginal",
  "sourceName": "contracts/testing/UpgradableGaugeControllerOriginal.sol",
  "abi": [
    {
      "anonymous": false,
      "inputs": [
        {
          "indexed": false,
          "internalType": "string",
          "name": "name",
          "type": "string"
        },
        {
          "indexed": false,
          "internalType": "int128",
          "name": "typeId",
          "type": "int128"
        }
      ],
      "name": "AddType",
      "type": "event"
    },
    {
      "anonymous": false,
      "inputs": [
        {
          "indexed": false,
          "internalType": "address",
          "name": "previousAdmin",
          "type": "address"
        },
        {
          "indexed": false,
          "internalType": "address",
          "name": "newAdmin",
          "type": "address"
        }
      ],
      "name": "AdminChanged",
      "type": "event"
    },
    {
      "anonymous": false,
      "inputs": [
        {
          "indexed": false,
          "internalType": "address",
          "name": "admin",
          "type": "address"
        }
      ],
      "name": "ApplyOwnership",
      "type": "event"
    },
    {
      "anonymous": false,
      "inputs": [
        {
          "indexed": true,
          "internalType": "address",
          "name": "beacon",
          "type": "address"
        }
      ],
      "name": "BeaconUpgraded",
      "type": "event"
    },
    {
      "anonymous": false,
      "inputs": [
        {
          "indexed": false,
          "internalType": "address",
          "name": "admin",
          "type": "address"
        }
      ],
      "name": "CommitOwnership",
      "type": "event"
    },
    {
      "anonymous": false,
      "inputs": [
        {
          "indexed": false,
          "internalType": "uint8",
          "name": "version",
          "type": "uint8"
        }
      ],
      "name": "Initialized",
      "type": "event"
    },
    {
      "anonymous": false,
      "inputs": [
        {
          "indexed": false,
          "internalType": "address",
          "name": "addr",
          "type": "address"
        },
        {
          "indexed": false,
          "internalType": "int128",
          "name": "gaugeType",
          "type": "int128"
        },
        {
          "indexed": false,
          "internalType": "uint256",
          "name": "weight",
          "type": "uint256"
        }
      ],
      "name": "NewGauge",
      "type": "event"
    },
    {
      "anonymous": false,
      "inputs": [
        {
          "indexed": false,
          "internalType": "address",
          "name": "gaugeAddress",
          "type": "address"
        },
        {
          "indexed": false,
          "internalType": "uint256",
          "name": "time",
          "type": "uint256"
        },
        {
          "indexed": false,
          "internalType": "uint256",
          "name": "weight",
          "type": "uint256"
        },
        {
          "indexed": false,
          "internalType": "uint256",
          "name": "totalWeight",
          "type": "uint256"
        }
      ],
      "name": "NewGaugeWeight",
      "type": "event"
    },
    {
      "anonymous": false,
      "inputs": [
        {
          "indexed": false,
          "internalType": "int128",
          "name": "typeId",
          "type": "int128"
        },
        {
          "indexed": false,
          "internalType": "uint256",
          "name": "time",
          "type": "uint256"
        },
        {
          "indexed": false,
          "internalType": "uint256",
          "name": "weight",
          "type": "uint256"
        },
        {
          "indexed": false,
          "internalType": "uint256",
          "name": "totalWeight",
          "type": "uint256"
        }
      ],
      "name": "NewTypeWeight",
      "type": "event"
    },
    {
      "anonymous": false,
      "inputs": [
        {
          "indexed": true,
          "internalType": "address",
          "name": "admin",
          "type": "address"
        }
      ],
      "name": "TestEvent",
      "type": "event"
    },
    {
      "anonymous": false,
      "inputs": [
        {
          "indexed": true,
          "internalType": "address",
          "name": "implementation",
          "type": "address"
        }
      ],
      "name": "Upgraded",
      "type": "event"
    },
    {
      "anonymous": false,
      "inputs": [
        {
          "indexed": false,
          "internalType": "uint256",
          "name": "time",
          "type": "uint256"
        },
        {
          "indexed": false,
          "internalType": "address",
          "name": "user",
          "type": "address"
        },
        {
          "indexed": false,
          "internalType": "address",
          "name": "gaugeAddr",
          "type": "address"
        },
        {
          "indexed": false,
          "internalType": "uint256",
          "name": "weight",
          "type": "uint256"
        }
      ],
      "name": "VoteForGauge",
      "type": "event"
    },
    {
      "inputs": [
        {
          "internalType": "address",
          "name": "addr_",
          "type": "address"
        },
        {
          "internalType": "int128",
          "name": "gaugeType_",
          "type": "int128"
        },
        {
          "internalType": "uint256",
          "name": "weight_",
          "type": "uint256"
        }
      ],
      "name": "addGauge",
      "outputs": [],
      "stateMutability": "nonpayable",
      "type": "function"
    },
    {
      "inputs": [
        {
          "internalType": "string",
          "name": "name_",
          "type": "string"
        },
        {
          "internalType": "uint256",
          "name": "weight_",
          "type": "uint256"
        }
      ],
      "name": "addType",
      "outputs": [],
      "stateMutability": "nonpayable",
      "type": "function"
    },
    {
      "inputs": [],
      "name": "admin",
      "outputs": [
        {
          "internalType": "address",
          "name": "",
          "type": "address"
        }
      ],
      "stateMutability": "view",
      "type": "function"
    },
    {
      "inputs": [],
      "name": "applyTransferOwnership",
      "outputs": [],
      "stateMutability": "nonpayable",
      "type": "function"
    },
    {
      "inputs": [
        {
          "internalType": "address",
          "name": "addr_",
          "type": "address"
        },
        {
          "internalType": "uint256",
          "name": "weight_",
          "type": "uint256"
        }
      ],
      "name": "changeGaugeWeight",
      "outputs": [],
      "stateMutability": "nonpayable",
      "type": "function"
    },
    {
      "inputs": [
        {
          "internalType": "int128",
          "name": "typeId_",
          "type": "int128"
        },
        {
          "internalType": "uint256",
          "name": "weight_",
          "type": "uint256"
        }
      ],
      "name": "changeTypeWeight",
      "outputs": [],
      "stateMutability": "nonpayable",
      "type": "function"
    },
    {
      "inputs": [
        {
          "internalType": "int128",
          "name": "",
          "type": "int128"
        },
        {
          "internalType": "uint256",
          "name": "",
          "type": "uint256"
        }
      ],
      "name": "changesSum",
      "outputs": [
        {
          "internalType": "uint256",
          "name": "",
          "type": "uint256"
        }
      ],
      "stateMutability": "view",
      "type": "function"
    },
    {
      "inputs": [
        {
          "internalType": "address",
          "name": "",
          "type": "address"
        },
        {
          "internalType": "uint256",
          "name": "",
          "type": "uint256"
        }
      ],
      "name": "changesWeight",
      "outputs": [
        {
          "internalType": "uint256",
          "name": "",
          "type": "uint256"
        }
      ],
      "stateMutability": "view",
      "type": "function"
    },
    {
      "inputs": [],
      "name": "checkpoint",
      "outputs": [],
      "stateMutability": "nonpayable",
      "type": "function"
    },
    {
      "inputs": [
        {
          "internalType": "address",
          "name": "addr_",
          "type": "address"
        }
      ],
      "name": "checkpointGauge",
      "outputs": [],
      "stateMutability": "nonpayable",
      "type": "function"
    },
    {
      "inputs": [
        {
          "internalType": "address",
          "name": "addr_",
          "type": "address"
        }
      ],
      "name": "commitTransferOwnership",
      "outputs": [],
      "stateMutability": "nonpayable",
      "type": "function"
    },
    {
      "inputs": [],
      "name": "futureAdmin",
      "outputs": [
        {
          "internalType": "address",
          "name": "",
          "type": "address"
        }
      ],
      "stateMutability": "view",
      "type": "function"
    },
    {
      "inputs": [
        {
          "internalType": "address",
          "name": "addr_",
          "type": "address"
        },
        {
          "internalType": "uint256",
          "name": "time_",
          "type": "uint256"
        }
      ],
      "name": "gaugeRelativeWeight",
      "outputs": [
        {
          "internalType": "uint256",
          "name": "",
          "type": "uint256"
        }
      ],
      "stateMutability": "view",
      "type": "function"
    },
    {
      "inputs": [
        {
          "internalType": "address",
          "name": "addr_",
          "type": "address"
        },
        {
          "internalType": "uint256",
          "name": "time_",
          "type": "uint256"
        }
      ],
      "name": "gaugeRelativeWeightWrite",
      "outputs": [
        {
          "internalType": "uint256",
          "name": "",
          "type": "uint256"
        }
      ],
      "stateMutability": "nonpayable",
      "type": "function"
    },
    {
      "inputs": [
        {
          "internalType": "int128",
          "name": "",
          "type": "int128"
        }
      ],
      "name": "gaugeTypeNames",
      "outputs": [
        {
          "internalType": "string",
          "name": "",
          "type": "string"
        }
      ],
      "stateMutability": "view",
      "type": "function"
    },
    {
      "inputs": [
        {
          "internalType": "address",
          "name": "addr_",
          "type": "address"
        }
      ],
      "name": "gaugeTypes",
      "outputs": [
        {
          "internalType": "int128",
          "name": "",
          "type": "int128"
        }
      ],
      "stateMutability": "view",
      "type": "function"
    },
    {
      "inputs": [
        {
          "internalType": "address",
          "name": "",
          "type": "address"
        }
      ],
      "name": "gaugeTypes_",
      "outputs": [
        {
          "internalType": "int128",
          "name": "",
          "type": "int128"
        }
      ],
      "stateMutability": "view",
      "type": "function"
    },
    {
      "inputs": [
        {
          "internalType": "uint256",
          "name": "",
          "type": "uint256"
        }
      ],
      "name": "gauges",
      "outputs": [
        {
          "internalType": "address",
          "name": "",
          "type": "address"
        }
      ],
      "stateMutability": "view",
      "type": "function"
    },
    {
      "inputs": [
        {
          "internalType": "address",
          "name": "addr_",
          "type": "address"
        }
      ],
      "name": "getGaugeWeight",
      "outputs": [
        {
          "internalType": "uint256",
          "name": "",
          "type": "uint256"
        }
      ],
      "stateMutability": "view",
      "type": "function"
    },
    {
      "inputs": [],
      "name": "getTotalWeight",
      "outputs": [
        {
          "internalType": "uint256",
          "name": "",
          "type": "uint256"
        }
      ],
      "stateMutability": "view",
      "type": "function"
    },
    {
      "inputs": [
        {
          "internalType": "int128",
          "name": "typeId_",
          "type": "int128"
        }
      ],
      "name": "getTypeWeight",
      "outputs": [
        {
          "internalType": "uint256",
          "name": "",
          "type": "uint256"
        }
      ],
      "stateMutability": "view",
      "type": "function"
    },
    {
      "inputs": [
        {
          "internalType": "int128",
          "name": "typeId_",
          "type": "int128"
        }
      ],
      "name": "getWeightsSumPerType",
      "outputs": [
        {
          "internalType": "uint256",
          "name": "",
          "type": "uint256"
        }
      ],
      "stateMutability": "view",
      "type": "function"
    },
    {
      "inputs": [
        {
          "internalType": "address",
          "name": "token_",
          "type": "address"
        },
        {
          "internalType": "address",
          "name": "votingEscrow_",
          "type": "address"
        }
      ],
      "name": "initialize",
      "outputs": [],
      "stateMutability": "nonpayable",
      "type": "function"
    },
    {
      "inputs": [
        {
          "internalType": "address",
          "name": "",
          "type": "address"
        },
        {
          "internalType": "address",
          "name": "",
          "type": "address"
        }
      ],
      "name": "lastUserVote",
      "outputs": [
        {
          "internalType": "uint256",
          "name": "",
          "type": "uint256"
        }
      ],
      "stateMutability": "view",
      "type": "function"
    },
    {
      "inputs": [],
      "name": "nGaugeTypes",
      "outputs": [
        {
          "internalType": "int128",
          "name": "",
          "type": "int128"
        }
      ],
      "stateMutability": "view",
      "type": "function"
    },
    {
      "inputs": [],
      "name": "nGauges",
      "outputs": [
        {
          "internalType": "int128",
          "name": "",
          "type": "int128"
        }
      ],
      "stateMutability": "view",
      "type": "function"
    },
    {
      "inputs": [
        {
          "internalType": "int128",
          "name": "",
          "type": "int128"
        },
        {
          "internalType": "uint256",
          "name": "",
          "type": "uint256"
        }
      ],
      "name": "pointsSum",
      "outputs": [
        {
          "internalType": "uint256",
          "name": "bias",
          "type": "uint256"
        },
        {
          "internalType": "uint256",
          "name": "slope",
          "type": "uint256"
        }
      ],
      "stateMutability": "view",
      "type": "function"
    },
    {
      "inputs": [
        {
          "internalType": "uint256",
          "name": "",
          "type": "uint256"
        }
      ],
      "name": "pointsTotal",
      "outputs": [
        {
          "internalType": "uint256",
          "name": "",
          "type": "uint256"
        }
      ],
      "stateMutability": "view",
      "type": "function"
    },
    {
      "inputs": [
        {
          "internalType": "int128",
          "name": "",
          "type": "int128"
        },
        {
          "internalType": "uint256",
          "name": "",
          "type": "uint256"
        }
      ],
      "name": "pointsTypeWeight",
      "outputs": [
        {
          "internalType": "uint256",
          "name": "",
          "type": "uint256"
        }
      ],
      "stateMutability": "view",
      "type": "function"
    },
    {
      "inputs": [
        {
          "internalType": "address",
          "name": "",
          "type": "address"
        },
        {
          "internalType": "uint256",
          "name": "",
          "type": "uint256"
        }
      ],
      "name": "pointsWeight",
      "outputs": [
        {
          "internalType": "uint256",
          "name": "bias",
          "type": "uint256"
        },
        {
          "internalType": "uint256",
          "name": "slope",
          "type": "uint256"
        }
      ],
      "stateMutability": "view",
      "type": "function"
    },
    {
      "inputs": [],
      "name": "proxiableUUID",
      "outputs": [
        {
          "internalType": "bytes32",
          "name": "",
          "type": "bytes32"
        }
      ],
      "stateMutability": "view",
      "type": "function"
    },
    {
      "inputs": [
        {
          "internalType": "int128",
          "name": "",
          "type": "int128"
        }
      ],
      "name": "timeSum",
      "outputs": [
        {
          "internalType": "uint256",
          "name": "",
          "type": "uint256"
        }
      ],
      "stateMutability": "view",
      "type": "function"
    },
    {
      "inputs": [],
      "name": "timeTotal",
      "outputs": [
        {
          "internalType": "uint256",
          "name": "",
          "type": "uint256"
        }
      ],
      "stateMutability": "view",
      "type": "function"
    },
    {
      "inputs": [
        {
          "internalType": "int128",
          "name": "",
          "type": "int128"
        }
      ],
      "name": "timeTypeWeight",
      "outputs": [
        {
          "internalType": "uint256",
          "name": "",
          "type": "uint256"
        }
      ],
      "stateMutability": "view",
      "type": "function"
    },
    {
      "inputs": [
        {
          "internalType": "address",
          "name": "",
          "type": "address"
        }
      ],
      "name": "timeWeight",
      "outputs": [
        {
          "internalType": "uint256",
          "name": "",
          "type": "uint256"
        }
      ],
      "stateMutability": "view",
      "type": "function"
    },
    {
      "inputs": [],
      "name": "token",
      "outputs": [
        {
          "internalType": "address",
          "name": "",
          "type": "address"
        }
      ],
      "stateMutability": "view",
      "type": "function"
    },
    {
      "inputs": [
        {
          "internalType": "address",
          "name": "newImplementation",
          "type": "address"
        }
      ],
      "name": "upgradeTo",
      "outputs": [],
      "stateMutability": "nonpayable",
      "type": "function"
    },
    {
      "inputs": [
        {
          "internalType": "address",
          "name": "newImplementation",
          "type": "address"
        },
        {
          "internalType": "bytes",
          "name": "data",
          "type": "bytes"
        }
      ],
      "name": "upgradeToAndCall",
      "outputs": [],
      "stateMutability": "payable",
      "type": "function"
    },
    {
      "inputs": [
        {
          "internalType": "address",
          "name": "gaugeAddr_",
          "type": "address"
        },
        {
          "internalType": "uint256",
          "name": "userWeight_",
          "type": "uint256"
        }
      ],
      "name": "voteForGaugeWeights",
      "outputs": [],
      "stateMutability": "nonpayable",
      "type": "function"
    },
    {
      "inputs": [
        {
          "internalType": "address",
          "name": "",
          "type": "address"
        }
      ],
      "name": "voteUserPower",
      "outputs": [
        {
          "internalType": "uint256",
          "name": "",
          "type": "uint256"
        }
      ],
      "stateMutability": "view",
      "type": "function"
    },
    {
      "inputs": [
        {
          "internalType": "address",
          "name": "",
          "type": "address"
        },
        {
          "internalType": "address",
          "name": "",
          "type": "address"
        }
      ],
      "name": "voteUserSlopes",
      "outputs": [
        {
          "internalType": "uint256",
          "name": "slope",
          "type": "uint256"
        },
        {
          "internalType": "uint256",
          "name": "power",
          "type": "uint256"
        },
        {
          "internalType": "uint256",
          "name": "end",
          "type": "uint256"
        }
      ],
      "stateMutability": "view",
      "type": "function"
    },
    {
      "inputs": [],
      "name": "votingEscrow",
      "outputs": [
        {
          "internalType": "address",
          "name": "",
          "type": "address"
        }
      ],
      "stateMutability": "view",
      "type": "function"
    }
  ],
  "bytecode": "0x60a06040523060805234801561001457600080fd5b5060805161368961004c60003960008181610aa201528181610b3801528181610e4801528181610ede0152610fd501526136896000f3fe6080604052600436106102d15760003560e01c80638aca6a2311610179578063e0ab067e116100d6578063eab9041e1161008a578063f851a44011610064578063f851a440146109bb578063f89993f0146109db578063fc0c546a14610a0b57600080fd5b8063eab9041e1461090e578063ec73d90614610949578063f763d1ff1461097957600080fd5b8063e24862e8116100bb578063e24862e81461085c578063e4036c6d1461087c578063e75ec699146108a957600080fd5b8063e0ab067e1461081c578063e1cebf0b1461083c57600080fd5b8063c2c4c5c11161012d578063d93c6ede11610112578063d93c6ede1461079e578063dd2b117f146107d9578063df0ab9d31461080757600080fd5b8063c2c4c5c114610732578063c3a6ca131461074757600080fd5b80639fbd4f661161015e5780639fbd4f66146106d2578063b0539187146106f2578063bb18d47a1461071257600080fd5b80638aca6a23146106985780639e08e3ef146106b857600080fd5b80634cb654af1161023257806365c60468116101e657806372be5276116101c057806372be5276146105e45780637bb9e29814610632578063870e37331461067857600080fd5b806365c604681461058b578063688f3f1f146105ab5780637244d960146105c457600080fd5b80634f2bfe5b116102175780634f2bfe5b1461050e57806352d1902d1461052e57806357f4cf271461054357600080fd5b80634cb654af146104c35780634f1ef286146104fb57600080fd5b8063289f338f1161028957806330928dc51161026e57806330928dc5146104535780633659cfe614610483578063485cc955146104a357600080fd5b8063289f338f146104015780632d1746911461043157600080fd5b806310d1ba58116102ba57806310d1ba5814610343578063117610fc1461038b57806326f4ed51146103c657600080fd5b8063057c9cb4146102d657806306aba0e114610319575b600080fd5b3480156102e257600080fd5b506103066102f1366004612f59565b633b9aca756020526000908152604090205481565b6040519081526020015b60405180910390f35b34801561032557600080fd5b50633b9aca76546000908152633b9aca756020526040902054610306565b34801561034f57600080fd5b5061030661035e366004612f81565b600f0b6000908152633b9aca7760209081526040808320633b9aca78835281842054845290915290205490565b34801561039757600080fd5b506103066103a6366004612f9e565b633b9aca7360209081526000928352604080842090915290825290205481565b3480156103d257600080fd5b506103066103e1366004612fe6565b633b9aca6e60209081526000928352604080842090915290825290205481565b34801561040d57600080fd5b5061030661041c366004613019565b633b9aca716020526000908152604090205481565b34801561043d57600080fd5b5061045161044c366004613034565b610a2b565b005b34801561045f57600080fd5b5061030661046e366004612f81565b633b9aca786020526000908152604090205481565b34801561048f57600080fd5b5061045161049e366004613019565b610a98565b3480156104af57600080fd5b506104516104be366004612fe6565b610c35565b3480156104cf57600080fd5b506066546104e3906001600160a01b031681565b6040516001600160a01b039091168152602001610310565b610451610509366004613113565b610e3e565b34801561051a57600080fd5b506068546104e3906001600160a01b031681565b34801561053a57600080fd5b50610306610fc8565b34801561054f57600080fd5b5061030661055e366004612f81565b600f0b6000908152633b9aca7260209081526040808320633b9aca74835281842054845290915290205490565b34801561059757600080fd5b506103066105a6366004613034565b61108d565b3480156105b757600080fd5b50610306633b9aca765481565b3480156105d057600080fd5b506104516105df366004613034565b6110ae565b3480156105f057600080fd5b506103066105ff366004613019565b6001600160a01b03166000908152633b9aca6f60209081526040808320633b9aca71835281842054845290915290205490565b34801561063e57600080fd5b5061066561064d366004613019565b633b9aca6b60205260009081526040902054600f0b81565b604051600f9190910b8152602001610310565b34801561068457600080fd5b50610451610693366004613175565b611a14565b3480156106a457600080fd5b506104516106b3366004613019565b611b0d565b3480156106c457600080fd5b5060695461066590600f0b81565b3480156106de57600080fd5b506104516106ed3660046131ce565b611b1f565b3480156106fe57600080fd5b506104e361070d366004612f59565b611eb4565b34801561071e57600080fd5b5061030661072d366004613034565b611ed7565b34801561073e57600080fd5b50610451611f02565b34801561075357600080fd5b50610789610762366004613034565b633b9aca6f6020908152600092835260408084209091529082529020805460019091015482565b60408051928352602083019190915201610310565b3480156107aa57600080fd5b506103066107b9366004613034565b633b9aca7060209081526000928352604080842090915290825290205481565b3480156107e557600080fd5b50606954610665907001000000000000000000000000000000009004600f0b81565b34801561081357600080fd5b50610451611f0a565b34801561082857600080fd5b50610451610837366004612f9e565b61202a565b34801561084857600080fd5b50610451610857366004613019565b61208e565b34801561086857600080fd5b50610665610877366004613019565b61214e565b34801561088857600080fd5b5061089c610897366004612f81565b6121ce565b604051610310919061327b565b3480156108b557600080fd5b506108f36108c4366004612fe6565b633b9aca6c60209081526000928352604080842090915290825290208054600182015460029092015490919083565b60408051938452602084019290925290820152606001610310565b34801561091a57600080fd5b50610306610929366004612f9e565b633b9aca7760209081526000928352604080842090915290825290205481565b34801561095557600080fd5b50610306610964366004613019565b633b9aca6d6020526000908152604090205481565b34801561098557600080fd5b50610789610994366004612f9e565b633b9aca726020908152600092835260408084209091529082529020805460019091015482565b3480156109c757600080fd5b506065546104e3906001600160a01b031681565b3480156109e757600080fd5b506103066109f6366004612f81565b633b9aca746020526000908152604090205481565b348015610a1757600080fd5b506067546104e3906001600160a01b031681565b6065546001600160a01b03163314610a8a5760405162461bcd60e51b815260206004820152600a60248201527f61646d696e206f6e6c790000000000000000000000000000000000000000000060448201526064015b60405180910390fd5b610a948282612268565b5050565b6001600160a01b037f0000000000000000000000000000000000000000000000000000000000000000163003610b365760405162461bcd60e51b815260206004820152602c60248201527f46756e6374696f6e206d7573742062652063616c6c6564207468726f7567682060448201527f64656c656761746563616c6c00000000000000000000000000000000000000006064820152608401610a81565b7f00000000000000000000000000000000000000000000000000000000000000006001600160a01b0316610b917f360894a13ba1a3210667c828492db98dca3e2076cc3735a920a3ca505d382bbc546001600160a01b031690565b6001600160a01b031614610c0d5760405162461bcd60e51b815260206004820152602c60248201527f46756e6374696f6e206d7573742062652063616c6c6564207468726f7567682060448201527f6163746976652070726f787900000000000000000000000000000000000000006064820152608401610a81565b610c16816123fe565b60408051600080825260208201909252610c3291839190612458565b50565b600054610100900460ff1615808015610c555750600054600160ff909116105b80610c6f5750303b158015610c6f575060005460ff166001145b610ce15760405162461bcd60e51b815260206004820152602e60248201527f496e697469616c697a61626c653a20636f6e747261637420697320616c72656160448201527f647920696e697469616c697a65640000000000000000000000000000000000006064820152608401610a81565b600080547fffffffffffffffffffffffffffffffffffffffffffffffffffffffffffffff001660011790558015610d3f57600080547fffffffffffffffffffffffffffffffffffffffffffffffffffffffffffff00ff166101001790555b6001600160a01b038316610d5257600080fd5b6001600160a01b038216610d6557600080fd5b60658054337fffffffffffffffffffffffff0000000000000000000000000000000000000000918216179091556067805482166001600160a01b03868116919091179091556068805490921690841617905562093a80610dc581426132bd565b610dcf91906132f8565b633b9aca76558015610e3957600080547fffffffffffffffffffffffffffffffffffffffffffffffffffffffffffff00ff169055604051600181527f7f26b83ff96e1f2b6a682f133852f6798a09c465da95921460cefb3847402498906020015b60405180910390a15b505050565b6001600160a01b037f0000000000000000000000000000000000000000000000000000000000000000163003610edc5760405162461bcd60e51b815260206004820152602c60248201527f46756e6374696f6e206d7573742062652063616c6c6564207468726f7567682060448201527f64656c656761746563616c6c00000000000000000000000000000000000000006064820152608401610a81565b7f00000000000000000000000000000000000000000000000000000000000000006001600160a01b0316610f377f360894a13ba1a3210667c828492db98dca3e2076cc3735a920a3ca505d382bbc546001600160a01b031690565b6001600160a01b031614610fb35760405162461bcd60e51b815260206004820152602c60248201527f46756e6374696f6e206d7573742062652063616c6c6564207468726f7567682060448201527f6163746976652070726f787900000000000000000000000000000000000000006064820152608401610a81565b610fbc826123fe565b610a9482826001612458565b6000306001600160a01b037f000000000000000000000000000000000000000000000000000000000000000016146110685760405162461bcd60e51b815260206004820152603860248201527f555550535570677261646561626c653a206d757374206e6f742062652063616c60448201527f6c6564207468726f7567682064656c656761746563616c6c00000000000000006064820152608401610a81565b507f360894a13ba1a3210667c828492db98dca3e2076cc3735a920a3ca505d382bbc90565b60008160000361109b574291505b6110a58383612616565b90505b92915050565b6110f16040518060e00160405280600081526020016000815260200160008152602001600081526020016000600f0b815260200160008152602001600081525090565b6068546040517ff3a6d6080000000000000000000000000000000000000000000000000000000081523360048201526001600160a01b039091169063f3a6d60890602401602060405180830381865afa158015611152573d6000803e3d6000fd5b505050506040513d601f19601f82011682018060405250810190611176919061330f565b6fffffffffffffffffffffffffffffffff1681526068546040517f4deafcae0000000000000000000000000000000000000000000000000000000081523360048201526001600160a01b0390911690634deafcae90602401602060405180830381865afa1580156111eb573d6000803e3d6000fd5b505050506040513d601f19601f8201168201806040525081019061120f919061332c565b602082015260695470010000000000000000000000000000000090046fffffffffffffffffffffffffffffffff16604082015262093a80804281010402606082018190526020820151116112a55760405162461bcd60e51b815260206004820181905260248201527f596f757220746f6b656e206c6f636b206578706972657320746f6f20736f6f6e6044820152606401610a81565b6127108211156112f75760405162461bcd60e51b815260206004820152601e60248201527f596f75207573656420616c6c20796f757220766f74696e6720706f77657200006044820152606401610a81565b336000908152633b9aca6e602090815260408083206001600160a01b0387168452909152902054620d2f00014210156113725760405162461bcd60e51b815260206004820152601460248201527f43616e6e6f7420766f746520736f206f6674656e0000000000000000000000006044820152606401610a81565b6001600160a01b0383166000908152633b9aca6b602052604090205461139d90600190600f0b613345565b600f0b60808201819052600013156113f75760405162461bcd60e51b815260206004820152600f60248201527f4761756765206e6f7420616464656400000000000000000000000000000000006044820152606401610a81565b336000908152633b9aca6c602090815260408083206001600160a01b038716845282528083208151606080820184528254825260018301549482019490945260029091015491810191825260a08501939093529083015190511115611470578160600151816040015161146a9190613393565b60a08301525b60a0820151815161148191906132f8565b8260c0018181525050600060405180606001604052806127108686600001516114aa91906132f8565b6114b491906132bd565b8152602001858152602001846020015181525090506000836060015184602001516114df9190613393565b905060008183600001516114f391906132f8565b336000908152633b9aca6d602090815260409091205486820151918601519293509161151f90836133a6565b6115299190613393565b336000908152633b9aca6d6020526040902081905590506127108111156115925760405162461bcd60e51b815260206004820152601360248201527f5573656420746f6f206d75636820706f776572000000000000000000000000006044820152606401610a81565b600061159d896126fc565b6001600160a01b038a166000908152633b9aca6f6020908152604080832060608c0151845290915281206001015460808a0151929350916115dd90612880565b60808a0151600f0b6000908152633b9aca726020908152604080832060608e0151845290915290206001015460c08b01519192509061162961161f88876133a6565b8c60c001516129d3565b6116339190613393565b6001600160a01b038d166000908152633b9aca6f6020908152604080832060608f0151845290915290205560c08a015161167061161f88856133a6565b61167a9190613393565b60808b0151600f0b6000908152633b9aca726020908152604080832060608f0180518552925291829020929092559051908a0151111561175257885188516116cd906116c690866133a6565b8b516129d3565b6116d79190613393565b6001600160a01b038d166000908152633b9aca6f6020908152604080832060608f0151845290915290206001015588518851611717906116c690846133a6565b6117219190613393565b60808b0151600f0b6000908152633b9aca726020908152604080832060608f015184529091529020600101556117d9565b87516001600160a01b038d166000908152633b9aca6f6020908152604080832060608f01518452909152812060010180549091906117919084906133a6565b9091555050875160808b0151600f0b6000908152633b9aca726020908152604080832060608f01518452909152812060010180549091906117d39084906133a6565b90915550505b42896040015111156118645788516001600160a01b038d166000908152633b9aca7060209081526040808320818e0151845290915281208054909190611820908490613393565b9091555050885160808b0151600f0b6000908152633b9aca7360209081526040808320818e015184529091528120805490919061185e908490613393565b90915550505b87516001600160a01b038d166000908152633b9aca7060209081526040808320818d015184529091528120805490919061189f9084906133a6565b9091555050875160808b0151600f0b6000908152633b9aca7360209081526040808320818d01518452909152812080549091906118dd9084906133a6565b909155506118eb90506129ea565b5087633b9aca6c6000336001600160a01b03166001600160a01b0316815260200190815260200160002060008e6001600160a01b03166001600160a01b0316815260200190815260200160002060008201518160000155602082015181600101556040820151816002015590505042633b9aca6e6000336001600160a01b03166001600160a01b0316815260200190815260200160002060008e6001600160a01b03166001600160a01b03168152602001908152602001600020819055507f45ca9a4c8d0119eb329e580d28fe689e484e1be230da8037ade9547d2d25cc9142338e8e6040516119fe94939291909384526001600160a01b03928316602085015291166040830152606082015260800190565b60405180910390a1505050505050505050505050565b6065546001600160a01b03163314611a6e5760405162461bcd60e51b815260206004820152600a60248201527f61646d696e206f6e6c79000000000000000000000000000000000000000000006044820152606401610a81565b606954600f0b6000818152606a60205260409020611a8c8482613454565b50606980547fffffffffffffffffffffffffffffffff0000000000000000000000000000000016600183016fffffffffffffffffffffffffffffffff161790558115610e3957611adc8183612b32565b7f6fbe76157c712f16b5a3c44ed48baa04e3450bc3fab0c020e848aca72bbccc848382604051610e3092919061356e565b611b16816126fc565b50610a946129ea565b6065546001600160a01b03163314611b795760405162461bcd60e51b815260206004820152600a60248201527f61646d696e206f6e6c79000000000000000000000000000000000000000000006044820152606401610a81565b600082600f0b12158015611b965750606954600f90810b9083900b125b611be25760405162461bcd60e51b815260206004820152601860248201527f67617567655f747970652030206d65616e7320756e73657400000000000000006044820152606401610a81565b6001600160a01b0383166000908152633b9aca6b6020526040902054600f0b15611c4e5760405162461bcd60e51b815260206004820152601f60248201527f63616e6e6f7420616464207468652073616d65206761756765207477696365006044820152606401610a81565b606980546fffffffffffffffffffffffffffffffff6001700100000000000000000000000000000000808404600f81900b9283018416909102938316939093179093558591606b9116633b9aca008110611caa57611caa613593565b0180547fffffffffffffffffffffffff0000000000000000000000000000000000000000166001600160a01b0392909216919091179055611cec8360016135c2565b6001600160a01b0385166000908152633b9aca6b6020526040812080547fffffffffffffffffffffffffffffffff00000000000000000000000000000000166fffffffffffffffffffffffffffffffff939093169290921790915562093a8080428101040290508215611e14576000611d6485612c26565b90506000611d7186612880565b90506000611d7d6129ea565b9050611d8982876133a6565b600f88900b6000818152633b9aca7260209081526040808320898452825280832094909455918152633b9aca7490915220849055611dc786846132f8565b611dd190826133a6565b6000858152633b9aca756020908152604080832093909355633b9aca768790556001600160a01b038b168252633b9aca6f81528282208783529052208690555050505b600f84900b6000908152633b9aca7460205260408120549003611e4b57600f84900b6000908152633b9aca74602052604090208190555b6001600160a01b0385166000818152633b9aca7160209081526040918290208490558151928352600f87900b9083015281018490527ffd55b3191f9c9dd92f4f134dd700e7d76f6a0c836a08687023d6d38f03ebd8779060600160405180910390a15050505050565b606b81633b9aca008110611ec757600080fd5b01546001600160a01b0316905081565b600081600003611ee5574291505b611eee836126fc565b50611ef76129ea565b506110a58383612616565b610c326129ea565b6065546001600160a01b03163314611f645760405162461bcd60e51b815260206004820152600a60248201527f61646d696e206f6e6c79000000000000000000000000000000000000000000006044820152606401610a81565b6066546001600160a01b031680611fbd5760405162461bcd60e51b815260206004820152600d60248201527f61646d696e206e6f7420736574000000000000000000000000000000000000006044820152606401610a81565b606580547fffffffffffffffffffffffff0000000000000000000000000000000000000000166001600160a01b0383169081179091556040519081527febee2d5739011062cb4f14113f3b36bf0ffe3da5c0568f64189d1012a1189105906020015b60405180910390a150565b6065546001600160a01b031633146120845760405162461bcd60e51b815260206004820152600a60248201527f61646d696e206f6e6c79000000000000000000000000000000000000000000006044820152606401610a81565b610a948282612b32565b6065546001600160a01b031633146120e85760405162461bcd60e51b815260206004820152600a60248201527f61646d696e206f6e6c79000000000000000000000000000000000000000000006044820152606401610a81565b606680547fffffffffffffffffffffffff0000000000000000000000000000000000000000166001600160a01b0383169081179091556040519081527f2f56810a6bf40af059b96d3aea4db54081f378029a518390491093a7b67032e99060200161201f565b6001600160a01b0381166000908152633b9aca6b6020526040812054600f0b8082036121bc5760405162461bcd60e51b815260206004820152601760248201527f6465763a206761756765206973206e6f742061646465640000000000000000006044820152606401610a81565b6121c7600182613345565b9392505050565b606a60205260009081526040902080546121e7906133b9565b80601f0160208091040260200160405190810160405280929190818152602001828054612213906133b9565b80156122605780601f1061223557610100808354040283529160200191612260565b820191906000526020600020905b81548152906001019060200180831161224357829003601f168201915b505050505081565b6001600160a01b0382166000908152633b9aca6b602052604081205461229390600190600f0b613345565b905060006122a0846126fc565b905060006122ad83612c26565b905060006122ba84612880565b905060006122c66129ea565b6001600160a01b0388166000818152633b9aca6f6020908152604080832062093a80428101819004028085529083528184208c9055938352633b9aca719091528120829055919250908561231a89866133a6565b6123249190613393565b600f88900b6000818152633b9aca72602090815260408083208784528252808320859055928252633b9aca74905220839055905061236285856132f8565b61236c86836132f8565b61237690856133a6565b6123809190613393565b6000838152633b9aca756020908152604091829020839055633b9aca7685905581516001600160a01b038d16815242918101919091529081018a9052606081018290529093507f54c0cf3647e6cdb2fc0a7876e60ba77563fceedf2e06c01c597f8dccb9e6bd729060800160405180910390a1505050505050505050565b6065546001600160a01b03163314610c325760405162461bcd60e51b815260206004820152600a60248201527f61646d696e206f6e6c79000000000000000000000000000000000000000000006044820152606401610a81565b7f4910fdfa16fed3260ed0e7147f7cc6da11a60208b5b9406d12a635614ffd91435460ff161561248b57610e3983612cd5565b826001600160a01b03166352d1902d6040518163ffffffff1660e01b8152600401602060405180830381865afa925050508015612503575060408051601f3d9081017fffffffffffffffffffffffffffffffffffffffffffffffffffffffffffffffe01682019092526125009181019061332c565b60015b6125755760405162461bcd60e51b815260206004820152602e60248201527f45524331393637557067726164653a206e657720696d706c656d656e7461746960448201527f6f6e206973206e6f7420555550530000000000000000000000000000000000006064820152608401610a81565b7f360894a13ba1a3210667c828492db98dca3e2076cc3735a920a3ca505d382bbc811461260a5760405162461bcd60e51b815260206004820152602960248201527f45524331393637557067726164653a20756e737570706f727465642070726f7860448201527f6961626c655555494400000000000000000000000000000000000000000000006064820152608401610a81565b50610e39838383612dab565b60008062093a8061262781856132bd565b61263191906132f8565b6000818152633b9aca75602052604090205490915080156126f1576001600160a01b0385166000908152633b9aca6b602052604081205461267790600190600f0b613345565b600f81900b6000908152633b9aca77602090815260408083208784528252808320546001600160a01b038b168452633b9aca6f8352818420888552909252909120549192509083816126d184670de0b6b3a76400006132f8565b6126db91906132f8565b6126e591906132bd565b955050505050506110a8565b6000925050506110a8565b6001600160a01b0381166000908152633b9aca7160205260408120548015612871576001600160a01b0383166000908152633b9aca6f6020908152604080832084845282528083208151808301909252805482526001015491810191909152905b6101f4811015612868574283116128685761277b62093a80846133a6565b9250600062093a80836020015161279291906132f8565b905080836000015111156127f95780836000018181516127b29190613393565b9052506001600160a01b0386166000908152633b9aca706020908152604080832087845282529091205490840180518291906127ef908390613393565b9052506128049050565b600080845260208401525b6001600160a01b0386166000908152633b9aca6f60209081526040808320878452825290912084518155908401516001909101554284111561285f576001600160a01b0386166000908152633b9aca71602052604090208490555b5060010161275d565b50519392505050565b50600092915050565b50919050565b600f81900b6000908152633b9aca746020526040812054801561287157600f83900b6000908152633b9aca726020908152604080832084845282528083208151808301909252805482526001015491810191909152905b6101f481101561286857428311612868576128f562093a80846133a6565b9250600062093a80836020015161290c91906132f8565b9050808360000151111561296e57808360000181815161292c9190613393565b905250600f86900b6000908152633b9aca73602090815260408083208784528252909120549084018051829190612964908390613393565b9052506129799050565b600080845260208401525b600f86900b6000908152633b9aca726020908152604080832087845282529091208451815590840151600190910155428411156129ca57600f86900b6000908152633b9aca74602052604090208490555b506001016128d7565b6000818310156129e357816110a5565b5090919050565b633b9aca765460695460009190600f0b42821115612a1257612a0f62093a8083613393565b91505b6000828152633b9aca756020526040812054905b606481600f0b1215612a5c5782600f0b81600f0b0315612a5c57612a4981612880565b50612a5381612c26565b50600101612a26565b5060005b6101f4811015612b2a57428411612b2a57612a7e62093a80856133a6565b93506000915060005b606481600f0b1215612afc5783600f0b81600f0b0315612afc57600f81900b6000818152633b9aca7260209081526040808320898452825280832054938352633b9aca778252808320898452909152902054612ae381836132f8565b612aed90866133a6565b94508260010192505050612a87565b506000848152633b9aca756020526040902082905542841115612b2257633b9aca768490555b600101612a60565b509392505050565b6000612b3d83612c26565b90506000612b4a84612880565b90506000612b566129ea565b905062093a8042810181900402612b6d84846132f8565b612b7786856132f8565b612b8190846133a6565b612b8b9190613393565b6000828152633b9aca7560209081526040808320849055600f8a900b808452633b9aca77835281842086855283528184208a9055633b9aca76869055808452633b9aca7883529281902085905580519283529082018490528101879052606081018290529092507e170bcdc909b6ac6e12d020fe8942256312cdcd555fb6d712899eba56d2f9019060800160405180910390a1505050505050565b600f81900b6000908152633b9aca786020526040812054801561287157600f83900b6000908152633b9aca7760209081526040808320848452909152812054905b6101f4811015612b2a57428311612b2a57612c8562093a80846133a6565b600f86900b6000908152633b9aca77602090815260408083208484529091529020839055925042831115612ccd57600f85900b6000908152633b9aca78602052604090208390555b600101612c67565b6001600160a01b0381163b612d525760405162461bcd60e51b815260206004820152602d60248201527f455243313936373a206e657720696d706c656d656e746174696f6e206973206e60448201527f6f74206120636f6e7472616374000000000000000000000000000000000000006064820152608401610a81565b7f360894a13ba1a3210667c828492db98dca3e2076cc3735a920a3ca505d382bbc80547fffffffffffffffffffffffff0000000000000000000000000000000000000000166001600160a01b0392909216919091179055565b612db483612dd6565b600082511180612dc15750805b15610e3957612dd08383612e16565b50505050565b612ddf81612cd5565b6040516001600160a01b038216907fbc7cd75a20ee27fd9adebab32041f755214dbc6bffa90cc0225b39da2e5c2d3b90600090a250565b60606110a5838360405180606001604052806027815260200161362d602791396060600080856001600160a01b031685604051612e539190613610565b600060405180830381855af49150503d8060008114612e8e576040519150601f19603f3d011682016040523d82523d6000602084013e612e93565b606091505b5091509150612ea486838387612eae565b9695505050505050565b60608315612f1d578251600003612f16576001600160a01b0385163b612f165760405162461bcd60e51b815260206004820152601d60248201527f416464726573733a2063616c6c20746f206e6f6e2d636f6e74726163740000006044820152606401610a81565b5081612f27565b612f278383612f2f565b949350505050565b815115612f3f5781518083602001fd5b8060405162461bcd60e51b8152600401610a81919061327b565b600060208284031215612f6b57600080fd5b5035919050565b80600f0b8114610c3257600080fd5b600060208284031215612f9357600080fd5b81356121c781612f72565b60008060408385031215612fb157600080fd5b8235612fbc81612f72565b946020939093013593505050565b80356001600160a01b0381168114612fe157600080fd5b919050565b60008060408385031215612ff957600080fd5b61300283612fca565b915061301060208401612fca565b90509250929050565b60006020828403121561302b57600080fd5b6110a582612fca565b6000806040838503121561304757600080fd5b612fbc83612fca565b7f4e487b7100000000000000000000000000000000000000000000000000000000600052604160045260246000fd5b600067ffffffffffffffff8084111561309a5761309a613050565b604051601f85017fffffffffffffffffffffffffffffffffffffffffffffffffffffffffffffffe0908116603f011681019082821181831017156130e0576130e0613050565b816040528093508581528686860111156130f957600080fd5b858560208301376000602087830101525050509392505050565b6000806040838503121561312657600080fd5b61312f83612fca565b9150602083013567ffffffffffffffff81111561314b57600080fd5b8301601f8101851361315c57600080fd5b61316b8582356020840161307f565b9150509250929050565b6000806040838503121561318857600080fd5b823567ffffffffffffffff81111561319f57600080fd5b8301601f810185136131b057600080fd5b6131bf8582356020840161307f565b95602094909401359450505050565b6000806000606084860312156131e357600080fd5b6131ec84612fca565b925060208401356131fc81612f72565b929592945050506040919091013590565b60005b83811015613228578181015183820152602001613210565b50506000910152565b6000815180845261324981602086016020860161320d565b601f017fffffffffffffffffffffffffffffffffffffffffffffffffffffffffffffffe0169290920160200192915050565b6020815260006110a56020830184613231565b7f4e487b7100000000000000000000000000000000000000000000000000000000600052601160045260246000fd5b6000826132f3577f4e487b7100000000000000000000000000000000000000000000000000000000600052601260045260246000fd5b500490565b80820281158282048414176110a8576110a861328e565b60006020828403121561332157600080fd5b81516121c781612f72565b60006020828403121561333e57600080fd5b5051919050565b600f82810b9082900b037fffffffffffffffffffffffffffffffff8000000000000000000000000000000081126f7fffffffffffffffffffffffffffffff821317156110a8576110a861328e565b818103818111156110a8576110a861328e565b808201808211156110a8576110a861328e565b600181811c908216806133cd57607f821691505b60208210810361287a577f4e487b7100000000000000000000000000000000000000000000000000000000600052602260045260246000fd5b601f821115610e3957600081815260208120601f850160051c8101602086101561342d5750805b601f850160051c820191505b8181101561344c57828155600101613439565b505050505050565b815167ffffffffffffffff81111561346e5761346e613050565b6134828161347c84546133b9565b84613406565b602080601f8311600181146134d5576000841561349f5750858301515b7fffffffffffffffffffffffffffffffffffffffffffffffffffffffffffffffff600386901b1c1916600185901b17855561344c565b6000858152602081207fffffffffffffffffffffffffffffffffffffffffffffffffffffffffffffffe08616915b8281101561352257888601518255948401946001909101908401613503565b508582101561355e57878501517fffffffffffffffffffffffffffffffffffffffffffffffffffffffffffffffff600388901b60f8161c191681555b5050505050600190811b01905550565b6040815260006135816040830185613231565b905082600f0b60208301529392505050565b7f4e487b7100000000000000000000000000000000000000000000000000000000600052603260045260246000fd5b600f81810b9083900b016f7fffffffffffffffffffffffffffffff81137fffffffffffffffffffffffffffffffff80000000000000000000000000000000821217156110a8576110a861328e565b6000825161362281846020870161320d565b919091019291505056fe416464726573733a206c6f772d6c6576656c2064656c65676174652063616c6c206661696c6564a264697066735822122046a46ff9efe751a676170c06b7a6752bb97711cc4f30ab5982fe042a7f1112ef64736f6c63430008120033",
  "linkReferences": {},
  "deployedLinkReferences": {}
}