{
  "_format": "hh-sol-artifact-1",
  "contractName": "Gauge",
  "sourceName": "contracts/Gauge.sol",
  "abi": [
    {
      "inputs": [
        {
          "internalType": "address",
          "name": "minter_",
          "type": "address"
        }
      ],
      "stateMutability": "nonpayable",
      "type": "constructor"
    },
    {
      "anonymous": false,
      "inputs": [
        {
          "indexed": true,
          "internalType": "address",
          "name": "admin",
          "type": "address"
        }
      ],
      "name": "ApplyOwnership",
      "type": "event"
    },
    {
      "anonymous": false,
      "inputs": [
        {
          "indexed": false,
          "internalType": "uint256",
          "name": "time",
          "type": "uint256"
        },
        {
          "indexed": false,
          "internalType": "uint256",
          "name": "tokens",
          "type": "uint256"
        }
      ],
      "name": "CheckpointToken",
      "type": "event"
    },
    {
      "anonymous": false,
      "inputs": [
        {
          "indexed": true,
          "internalType": "address",
          "name": "admin",
          "type": "address"
        }
      ],
      "name": "CommitOwnership",
      "type": "event"
    },
    {
      "inputs": [],
      "name": "TOKEN_CHECKPOINT_DEADLINE",
      "outputs": [
        {
          "internalType": "uint256",
          "name": "",
          "type": "uint256"
        }
      ],
      "stateMutability": "view",
      "type": "function"
    },
    {
      "inputs": [],
      "name": "VERSION",
      "outputs": [
        {
          "internalType": "string",
          "name": "",
          "type": "string"
        }
      ],
      "stateMutability": "view",
      "type": "function"
    },
    {
      "inputs": [],
      "name": "WEEK",
      "outputs": [
        {
          "internalType": "uint256",
          "name": "",
          "type": "uint256"
        }
      ],
      "stateMutability": "view",
      "type": "function"
    },
    {
      "inputs": [],
      "name": "admin",
      "outputs": [
        {
          "internalType": "address",
          "name": "",
          "type": "address"
        }
      ],
      "stateMutability": "view",
      "type": "function"
    },
    {
      "inputs": [],
      "name": "checkpointToken",
      "outputs": [],
      "stateMutability": "nonpayable",
      "type": "function"
    },
    {
      "inputs": [],
      "name": "checkpointTotalSupply",
      "outputs": [],
      "stateMutability": "nonpayable",
      "type": "function"
    },
    {
      "inputs": [
        {
          "internalType": "address",
          "name": "addr_",
          "type": "address"
        }
      ],
      "name": "claimableTokens",
      "outputs": [
        {
          "internalType": "uint256",
          "name": "",
          "type": "uint256"
        }
      ],
      "stateMutability": "nonpayable",
      "type": "function"
    },
    {
      "inputs": [],
      "name": "futureEpochTime",
      "outputs": [
        {
          "internalType": "uint256",
          "name": "",
          "type": "uint256"
        }
      ],
      "stateMutability": "view",
      "type": "function"
    },
    {
      "inputs": [],
      "name": "gaugeController",
      "outputs": [
        {
          "internalType": "address",
          "name": "",
          "type": "address"
        }
      ],
      "stateMutability": "view",
      "type": "function"
    },
    {
      "inputs": [],
      "name": "inflationRate",
      "outputs": [
        {
          "internalType": "uint256",
          "name": "",
          "type": "uint256"
        }
      ],
      "stateMutability": "view",
      "type": "function"
    },
    {
      "inputs": [],
      "name": "integrateCheckpoint",
      "outputs": [
        {
          "internalType": "uint256",
          "name": "",
          "type": "uint256"
        }
      ],
      "stateMutability": "view",
      "type": "function"
    },
    {
      "inputs": [
        {
          "internalType": "address",
          "name": "",
          "type": "address"
        }
      ],
      "name": "integrateFraction",
      "outputs": [
        {
          "internalType": "uint256",
          "name": "",
          "type": "uint256"
        }
      ],
      "stateMutability": "view",
      "type": "function"
    },
    {
      "inputs": [
        {
          "internalType": "uint256",
          "name": "",
          "type": "uint256"
        }
      ],
      "name": "integrateInvSupply",
      "outputs": [
        {
          "internalType": "uint256",
          "name": "",
          "type": "uint256"
        }
      ],
      "stateMutability": "view",
      "type": "function"
    },
    {
      "inputs": [],
      "name": "isKilled",
      "outputs": [
        {
          "internalType": "bool",
          "name": "",
          "type": "bool"
        }
      ],
      "stateMutability": "view",
      "type": "function"
    },
    {
      "inputs": [],
      "name": "lastTokenTime",
      "outputs": [
        {
          "internalType": "uint256",
          "name": "",
          "type": "uint256"
        }
      ],
      "stateMutability": "view",
      "type": "function"
    },
    {
      "inputs": [],
      "name": "minter",
      "outputs": [
        {
          "internalType": "address",
          "name": "",
          "type": "address"
        }
      ],
      "stateMutability": "view",
      "type": "function"
    },
    {
      "inputs": [],
      "name": "period",
      "outputs": [
        {
          "internalType": "int128",
          "name": "",
          "type": "int128"
        }
      ],
      "stateMutability": "view",
      "type": "function"
    },
    {
      "inputs": [
        {
          "internalType": "uint256",
          "name": "",
          "type": "uint256"
        }
      ],
      "name": "periodTimestamp",
      "outputs": [
        {
          "internalType": "uint256",
          "name": "",
          "type": "uint256"
        }
      ],
      "stateMutability": "view",
      "type": "function"
    },
    {
      "inputs": [
        {
          "internalType": "bool",
          "name": "isKilled_",
          "type": "bool"
        }
      ],
      "name": "setKilled",
      "outputs": [],
      "stateMutability": "nonpayable",
      "type": "function"
    },
    {
      "inputs": [],
      "name": "startTime",
      "outputs": [
        {
          "internalType": "uint256",
          "name": "",
          "type": "uint256"
        }
      ],
      "stateMutability": "view",
      "type": "function"
    },
    {
      "inputs": [],
      "name": "timeCursor",
      "outputs": [
        {
          "internalType": "uint256",
          "name": "",
          "type": "uint256"
        }
      ],
      "stateMutability": "view",
      "type": "function"
    },
    {
      "inputs": [
        {
          "internalType": "address",
          "name": "",
          "type": "address"
        }
      ],
      "name": "timeCursorOf",
      "outputs": [
        {
          "internalType": "uint256",
          "name": "",
          "type": "uint256"
        }
      ],
      "stateMutability": "view",
      "type": "function"
    },
    {
      "inputs": [],
      "name": "token",
      "outputs": [
        {
          "internalType": "address",
          "name": "",
          "type": "address"
        }
      ],
      "stateMutability": "view",
      "type": "function"
    },
    {
      "inputs": [
        {
          "internalType": "uint256",
          "name": "",
          "type": "uint256"
        }
      ],
      "name": "tokensPerWeek",
      "outputs": [
        {
          "internalType": "uint256",
          "name": "",
          "type": "uint256"
        }
      ],
      "stateMutability": "view",
      "type": "function"
    },
    {
      "inputs": [
        {
          "internalType": "address",
          "name": "addr_",
          "type": "address"
        }
      ],
      "name": "userCheckpoint",
      "outputs": [
        {
          "internalType": "bool",
          "name": "",
          "type": "bool"
        }
      ],
      "stateMutability": "nonpayable",
      "type": "function"
    },
    {
      "inputs": [
        {
          "internalType": "address",
          "name": "",
          "type": "address"
        }
      ],
      "name": "userEpochOf",
      "outputs": [
        {
          "internalType": "uint256",
          "name": "",
          "type": "uint256"
        }
      ],
      "stateMutability": "view",
      "type": "function"
    },
    {
      "inputs": [
        {
          "internalType": "address",
          "name": "user_",
          "type": "address"
        },
        {
          "internalType": "uint256",
          "name": "timestamp_",
          "type": "uint256"
        }
      ],
      "name": "veForAt",
      "outputs": [
        {
          "internalType": "uint256",
          "name": "",
          "type": "uint256"
        }
      ],
      "stateMutability": "view",
      "type": "function"
    },
    {
      "inputs": [
        {
          "internalType": "uint256",
          "name": "",
          "type": "uint256"
        }
      ],
      "name": "veSupply",
      "outputs": [
        {
          "internalType": "uint256",
          "name": "",
          "type": "uint256"
        }
      ],
      "stateMutability": "view",
      "type": "function"
    },
    {
      "inputs": [],
      "name": "version",
      "outputs": [
        {
          "internalType": "string",
          "name": "",
          "type": "string"
        }
      ],
      "stateMutability": "pure",
      "type": "function"
    },
    {
      "inputs": [],
      "name": "votingEscrow",
      "outputs": [
        {
          "internalType": "address",
          "name": "",
          "type": "address"
        }
      ],
      "stateMutability": "view",
      "type": "function"
    }
  ],
  "bytecode": "0x60a06040523480156200001157600080fd5b506040516200206b3803806200206b83398101604081905262000034916200030b565b6001600055600480546001600160a01b0319166001600160a01b038316908117825560408051637e062a3560e11b81529051919263fc0c546a9282820192602092908290030181865afa15801562000090573d6000803e3d6000fd5b505050506040513d601f19601f82011682018060405250810190620000b691906200030b565b600280546001600160a01b0319166001600160a01b03928316179055600480546040805163f77c479160e01b81529051919093169263f77c479192818101926020929091908290030181865afa15801562000115573d6000803e3d6000fd5b505050506040513d601f19601f820116820180604052508101906200013b91906200030b565b600580546001600160a01b0319166001600160a01b0392909216918217905560408051634f2bfe5b60e01b81529051634f2bfe5b916004808201926020929091908290030181865afa15801562000196573d6000803e3d6000fd5b505050506040513d601f19601f82011682018060405250810190620001bc91906200030b565b600380546001600160a01b03199081166001600160a01b03938416179091554266038d7ea4c6800f55600180549091163317905560025460408051631627391760e11b815290519190921691632c4e722e9160048083019260209291908290030181865afa15801562000233573d6000803e3d6000fd5b505050506040513d601f19601f820116820180604052508101906200025991906200033d565b6007556002546040805163277dbafb60e01b815290516001600160a01b039092169163277dbafb9160048082019260209290919082900301816000875af1158015620002a9573d6000803e3d6000fd5b505050506040513d601f19601f82011682018060405250810190620002cf91906200033d565b600681905560009062093a8090620002e990829062000357565b620002f591906200037a565b6080819052600b81905560085550620003a69050565b6000602082840312156200031e57600080fd5b81516001600160a01b03811681146200033657600080fd5b9392505050565b6000602082840312156200035057600080fd5b5051919050565b6000826200037557634e487b7160e01b600052601260045260246000fd5b500490565b8082028115828204841417620003a057634e487b7160e01b600052601160045260246000fd5b92915050565b608051611ca2620003c9600039600081816103250152610d200152611ca26000f3fe608060405234801561001057600080fd5b50600436106101da5760003560e01c80638fe8a10111610104578063c7f1ec50116100a2578063f4359ce511610071578063f4359ce514610494578063f851a4401461049e578063fc0c546a146104be578063ffa1ad74146104de57600080fd5b8063c7f1ec5014610415578063caa0b9ed14610435578063ef78d4fd1461045b578063f36482411461048157600080fd5b80639e48d35e116100de5780639e48d35e146103e7578063a5420e98146103f0578063b07b709b146103fa578063bee5dc321461040d57600080fd5b80638fe8a10114610389578063939ea66b146103be57806399eecb3b146103c757600080fd5b8063505362c41161017c57806384d242261161014b57806384d24226146103475780638736659b1461035a578063899519be146103635780638dea29c71461037657600080fd5b8063505362c4146102b657806354fd4d50146102be578063786479cd1461030057806378e979251461032057600080fd5b806331e202cc116101b857806331e202cc1461027257806331f9e35b14610285578063326a94071461028e5780634f2bfe5b1461029657600080fd5b806307546172146101df57806309599504146102295780630f6592ef1461023e575b600080fd5b6004546101ff9073ffffffffffffffffffffffffffffffffffffffff1681565b60405173ffffffffffffffffffffffffffffffffffffffff90911681526020015b60405180910390f35b61023c6102373660046118dc565b61051a565b005b61026461024c3660046118fe565b66038d7ea4c6800c6020526000908152604090205481565b604051908152602001610220565b6102646102803660046118fe565b610588565b61026460075481565b61023c6105b1565b6003546101ff9073ffffffffffffffffffffffffffffffffffffffff1681565b6102646105bb565b60408051808201909152600681527f76312e302e30000000000000000000000000000000000000000000000000000060208201525b6040516102209190611917565b61026461030e3660046119ac565b600a6020526000908152604090205481565b6102647f000000000000000000000000000000000000000000000000000000000000000081565b6102646103553660046119ac565b610605565b61026460085481565b6102646103713660046118fe565b6106e8565b6102646103843660046118fe565b6106fe565b6005546103ae9074010000000000000000000000000000000000000000900460ff1681565b6040519015158152602001610220565b610264600b5481565b6005546101ff9073ffffffffffffffffffffffffffffffffffffffff1681565b61026460065481565b6102646201518081565b6103ae6104083660046119ac565b610726565b61023c610864565b6102646104233660046119ac565b60096020526000908152604090205481565b6102646104433660046119ac565b66038d7ea4c6800d6020526000908152604090205481565b66038d7ea4c6800e5461046e90600f0b81565b604051600f9190910b8152602001610220565b61026461048f3660046119c7565b610905565b61026462093a8081565b6001546101ff9073ffffffffffffffffffffffffffffffffffffffff1681565b6002546101ff9073ffffffffffffffffffffffffffffffffffffffff1681565b6102f36040518060400160405280600681526020017f76312e302e30000000000000000000000000000000000000000000000000000081525081565b60015473ffffffffffffffffffffffffffffffffffffffff16331461053e57600080fd5b6005805491151574010000000000000000000000000000000000000000027fffffffffffffffffffffff00ffffffffffffffffffffffffffffffffffffffff909216919091179055565b66038d7ea4c6800f816c01431e0fae6d7217caa000000081106105aa57600080fd5b0154905081565b6105b9610ab4565b565b66038d7ea4c6800e5460009066038d7ea4c6800f906fffffffffffffffffffffffffffffffff166c01431e0fae6d7217caa000000081106105fe576105fe6119f1565b0154905090565b600061061082610c7f565b600480546040517f8b752bb000000000000000000000000000000000000000000000000000000000815273ffffffffffffffffffffffffffffffffffffffff85811693820193909352306024820152911690638b752bb090604401602060405180830381865afa158015610688573d6000803e3d6000fd5b505050506040513d601f19601f820116820180604052508101906106ac9190611a20565b73ffffffffffffffffffffffffffffffffffffffff8316600090815266038d7ea4c6800d60205260409020546106e29190611a68565b92915050565b600c8166038d7ea4c6800081106105aa57600080fd5b6c01431e0fae6d75a54944c6800f816c01431e0fae6d7217caa000000081106105aa57600080fd5b60003373ffffffffffffffffffffffffffffffffffffffff83161480610763575060045473ffffffffffffffffffffffffffffffffffffffff1633145b6107ce576040517f08c379a000000000000000000000000000000000000000000000000000000000815260206004820152601160248201527f6465763a20756e617574686f72697a656400000000000000000000000000000060448201526064015b60405180910390fd5b60055474010000000000000000000000000000000000000000900460ff1615610853576040517f08c379a000000000000000000000000000000000000000000000000000000000815260206004820152601260248201527f436f6e7472616374206973206b696c6c6564000000000000000000000000000060448201526064016107c5565b61085c82610c7f565b506001919050565b60015473ffffffffffffffffffffffffffffffffffffffff163314806108975750600b5461089490610e10611a7b565b42115b6108fd576040517f08c379a000000000000000000000000000000000000000000000000000000000815260206004820152600c60248201527f556e617574686f72697a6564000000000000000000000000000000000000000060448201526064016107c5565b6105b96111c1565b6003546040517f81fc83bb00000000000000000000000000000000000000000000000000000000815273ffffffffffffffffffffffffffffffffffffffff84811660048301526000921690829082906381fc83bb90602401602060405180830381865afa15801561097a573d6000803e3d6000fd5b505050506040513d601f19601f8201168201806040525081019061099e9190611a20565b905060006109ae8387878561167f565b6040517f34d901a400000000000000000000000000000000000000000000000000000000815273ffffffffffffffffffffffffffffffffffffffff8881166004830152602482018390529192506000918516906334d901a490604401608060405180830381865afa158015610a27573d6000803e3d6000fd5b505050506040513d601f19601f82011682018060405250810190610a4b9190611aa0565b90506000816040015187610a5f9190611a68565b8260200151610a6e9190611b39565b8251610a7a9190611b60565b9050600081600f0b1215610a96576000955050505050506106e2565b6fffffffffffffffffffffffffffffffff1694506106e29350505050565b60035460085473ffffffffffffffffffffffffffffffffffffffff90911690600062093a80610ae38142611bae565b610aed9190611be9565b90508273ffffffffffffffffffffffffffffffffffffffff1663c2c4c5c16040518163ffffffff1660e01b8152600401600060405180830381600087803b158015610b3757600080fd5b505af1158015610b4b573d6000803e3d6000fd5b5050505060005b6014811015610c7757818311610c77576000610b6e858561176b565b6040517f8ad4c4470000000000000000000000000000000000000000000000000000000081526004810182905290915060009073ffffffffffffffffffffffffffffffffffffffff871690638ad4c44790602401608060405180830381865afa158015610bdf573d6000803e3d6000fd5b505050506040513d601f19601f82011682018060405250810190610c039190611aa0565b905060008160400151861115610c25576040820151610c229087611c00565b90505b808260200151610c359190611b39565b8251610c419190611b60565b600087815266038d7ea4c6800c60205260409020600f9190910b9055610c6a62093a8087611a7b565b9550505050600101610b52565b505060085550565b6003546040517f81fc83bb00000000000000000000000000000000000000000000000000000000815273ffffffffffffffffffffffffffffffffffffffff8381166004830152909116906000908190819084906381fc83bb90602401602060405180830381865afa158015610cf8573d6000803e3d6000fd5b505050506040513d601f19601f82011682018060405250810190610d1c9190611a20565b90507f00000000000000000000000000000000000000000000000000000000000000006000829003610d5057505050505050565b6008544210610d6157610d61610ab4565b600b54610d7081610e10611a7b565b421115610d8257610d7f6111c1565b50425b73ffffffffffffffffffffffffffffffffffffffff871660009081526009602052604081205462093a80928390049092029190819003610dcf57610dc88789858761167f565b9550610df8565b73ffffffffffffffffffffffffffffffffffffffff88166000908152600a602052604090205495505b85600003610e0557600195505b6040517f34d901a400000000000000000000000000000000000000000000000000000000815273ffffffffffffffffffffffffffffffffffffffff898116600483015260248201889052600091908916906334d901a490604401608060405180830381865afa158015610e7c573d6000803e3d6000fd5b505050506040513d601f19601f82011682018060405250810190610ea09190611aa0565b905081600003610ee55762093a8080600162093a808460400151610ec49190611a7b565b610ece9190611a68565b610ed89190611bae565b610ee29190611be9565b91505b828210610ef757505050505050505050565b83821015610f03578391505b6040805160808101825260008082526020820181905291810182905260608101829052905b603281101561114457848410156111445782604001518410158015610f4d5750868911155b1561107057610f5d60018a611a7b565b985060405180608001604052808460000151600f0b81526020018460200151600f0b8152602001846040015181526020018460600151815250915086891115610fd25760405180608001604052806000600f0b81526020016000600f0b8152602001600081526020016000815250925061113c565b6040517f34d901a400000000000000000000000000000000000000000000000000000000815273ffffffffffffffffffffffffffffffffffffffff8c81166004830152602482018b90528b16906334d901a490604401608060405180830381865afa158015611045573d6000803e3d6000fd5b505050506040513d601f19601f820116820180604052508101906110699190611aa0565b925061113c565b60008260400151856110829190611c00565b905060008360200151600f0b826110999190611c20565b84516110a89190600f0b611c00565b905060008112156110b7575060005b801580156110c45750888b115b156110d0575050611144565b600081131561112a57600086815266038d7ea4c6800c6020526040902054600c8766038d7ea4c680008110611107576111076119f1565b01546111139083611be9565b61111d9190611bae565b611127908b611a7b565b99505b61113762093a8087611a7b565b955050505b600101610f28565b506111598661115460018b611a68565b6118c4565b73ffffffffffffffffffffffffffffffffffffffff8b166000908152600a602090815260408083208490556009825280832087905566038d7ea4c6800d90915281208054929a5089929091906111b0908490611a7b565b909155505050505050505050505050565b600754600654600b805442909155600092919082908462093a806111e58184611bae565b6111ef9190611be9565b9050600082851061132c57600260009054906101000a900473ffffffffffffffffffffffffffffffffffffffff1673ffffffffffffffffffffffffffffffffffffffff1663277dbafb6040518163ffffffff1660e01b81526004016020604051808303816000875af1158015611269573d6000803e3d6000fd5b505050506040513d601f19601f8201168201806040525081019061128d9190611a20565b600655600254604080517f2c4e722e000000000000000000000000000000000000000000000000000000008152905173ffffffffffffffffffffffffffffffffffffffff90921691632c4e722e916004808201926020929091908290030181865afa158015611300573d6000803e3d6000fd5b505050506040513d601f19601f820116820180604052508101906113249190611a20565b600781905593505b6005546040517f8aca6a2300000000000000000000000000000000000000000000000000000000815230600482015273ffffffffffffffffffffffffffffffffffffffff90911690638aca6a2390602401600060405180830381600087803b15801561139757600080fd5b505af11580156113ab573d6000803e3d6000fd5b5050505060005b601481101561163c576113c862093a8084611a7b565b6005546040517f65c604680000000000000000000000000000000000000000000000000000000081523060048201526024810186905291935060009173ffffffffffffffffffffffffffffffffffffffff909116906365c6046890604401602060405180830381865afa158015611443573d6000803e3d6000fd5b505050506040513d601f19601f820116820180604052508101906114679190611a20565b905082421015611550574287111580156114815750868511155b156114e65760006114928689611a68565b905060006114a08942611a68565b9050670de0b6b3a76400006114b5828a611be9565b6114bf848d611be9565b6114c99190611a7b565b6114d39085611be9565b6114dd9190611bae565b9a50505061151a565b670de0b6b3a76400006114f98642611a68565b6115038a84611be9565b61150d9190611be9565b6115179190611bae565b98505b88600c8566038d7ea4c680008110611534576115346119f1565b0160008282546115449190611a7b565b9091555061163c915050565b8287111580156115605750868511155b156115c85760006115718689611a68565b9050600061157f8986611a68565b9050670de0b6b3a7640000611594828a611be9565b61159e848d611be9565b6115a89190611a7b565b6115b29085611be9565b6115bc9190611bae565b9a5087995050506115fc565b670de0b6b3a76400006115db8685611a68565b6115e58a84611be9565b6115ef9190611be9565b6115f99190611bae565b98505b88600c8566038d7ea4c680008110611616576116166119f1565b0160008282546116269190611a7b565b90915550505090925082915081906001016113b2565b5060408051428152602081018990527fce749457b74e10f393f2c6b1ce4261b78791376db5a3f501477a809f03f500d6910160405180910390a150505050505050565b60008082815b608081101561175f578183101561175f576040517f34d901a400000000000000000000000000000000000000000000000000000000815273ffffffffffffffffffffffffffffffffffffffff8881166004830152600284860181010460248301819052916000918b16906334d901a490604401608060405180830381865afa158015611715573d6000803e3d6000fd5b505050506040513d601f19601f820116820180604052508101906117399190611aa0565b90508781604001511161174e57819450611755565b6001820393505b5050600101611685565b50909695505050505050565b6000806000905060008473ffffffffffffffffffffffffffffffffffffffff1663900cf0cf6040518163ffffffff1660e01b8152600401602060405180830381865afa1580156117bf573d6000803e3d6000fd5b505050506040513d601f19601f820116820180604052508101906117e39190611a20565b905060005b60808110156118ba57818310156118ba576040517f8ad4c4470000000000000000000000000000000000000000000000000000000081526002838501810104600482018190529060009073ffffffffffffffffffffffffffffffffffffffff891690638ad4c44790602401608060405180830381865afa158015611870573d6000803e3d6000fd5b505050506040513d601f19601f820116820180604052508101906118949190611aa0565b9050868160400151116118a9578194506118b0565b6001820393505b50506001016117e8565b5090949350505050565b60008183106118d357816118d5565b825b9392505050565b6000602082840312156118ee57600080fd5b813580151581146118d557600080fd5b60006020828403121561191057600080fd5b5035919050565b600060208083528351808285015260005b8181101561194457858101830151858201604001528201611928565b5060006040828601015260407fffffffffffffffffffffffffffffffffffffffffffffffffffffffffffffffe0601f8301168501019250505092915050565b803573ffffffffffffffffffffffffffffffffffffffff811681146119a757600080fd5b919050565b6000602082840312156119be57600080fd5b6118d582611983565b600080604083850312156119da57600080fd5b6119e383611983565b946020939093013593505050565b7f4e487b7100000000000000000000000000000000000000000000000000000000600052603260045260246000fd5b600060208284031215611a3257600080fd5b5051919050565b7f4e487b7100000000000000000000000000000000000000000000000000000000600052601160045260246000fd5b818103818111156106e2576106e2611a39565b808201808211156106e2576106e2611a39565b8051600f81900b81146119a757600080fd5b600060808284031215611ab257600080fd5b6040516080810181811067ffffffffffffffff82111715611afc577f4e487b7100000000000000000000000000000000000000000000000000000000600052604160045260246000fd5b604052611b0883611a8e565b8152611b1660208401611a8e565b602082015260408301516040820152606083015160608201528091505092915050565b600082600f0b82600f0b0280600f0b9150808214611b5957611b59611a39565b5092915050565b600f82810b9082900b037fffffffffffffffffffffffffffffffff8000000000000000000000000000000081126f7fffffffffffffffffffffffffffffff821317156106e2576106e2611a39565b600082611be4577f4e487b7100000000000000000000000000000000000000000000000000000000600052601260045260246000fd5b500490565b80820281158282048414176106e2576106e2611a39565b8181036000831280158383131683831282161715611b5957611b59611a39565b808202600082127f800000000000000000000000000000000000000000000000000000000000000084141615611c5857611c58611a39565b81810583148215176106e2576106e2611a3956fea2646970667358221220f863950e05716c2f39fe9d2d40c94916678dc06b8d21f12b9149595618fefbe964736f6c63430008120033",
  "linkReferences": {},
  "deployedLinkReferences": {}
}