{
  "_format": "hh-sol-artifact-1",
  "contractName": "Gauge",
  "sourceName": "contracts/Gauge.sol",
  "abi": [
    {
      "inputs": [
        {
          "internalType": "address",
          "name": "minter_",
          "type": "address"
        }
      ],
      "stateMutability": "nonpayable",
      "type": "constructor"
    },
    {
      "anonymous": false,
      "inputs": [
        {
          "indexed": true,
          "internalType": "address",
          "name": "admin",
          "type": "address"
        }
      ],
      "name": "ApplyOwnership",
      "type": "event"
    },
    {
      "anonymous": false,
      "inputs": [
        {
          "indexed": false,
          "internalType": "uint256",
          "name": "time",
          "type": "uint256"
        },
        {
          "indexed": false,
          "internalType": "uint256",
          "name": "tokens",
          "type": "uint256"
        }
      ],
      "name": "CheckpointToken",
      "type": "event"
    },
    {
      "anonymous": false,
      "inputs": [
        {
          "indexed": true,
          "internalType": "address",
          "name": "admin",
          "type": "address"
        }
      ],
      "name": "CommitOwnership",
      "type": "event"
    },
    {
      "inputs": [],
      "name": "TOKEN_CHECKPOINT_DEADLINE",
      "outputs": [
        {
          "internalType": "uint256",
          "name": "",
          "type": "uint256"
        }
      ],
      "stateMutability": "view",
      "type": "function"
    },
    {
      "inputs": [],
      "name": "VERSION",
      "outputs": [
        {
          "internalType": "string",
          "name": "",
          "type": "string"
        }
      ],
      "stateMutability": "view",
      "type": "function"
    },
    {
      "inputs": [],
      "name": "WEEK",
      "outputs": [
        {
          "internalType": "uint256",
          "name": "",
          "type": "uint256"
        }
      ],
      "stateMutability": "view",
      "type": "function"
    },
    {
      "inputs": [],
      "name": "admin",
      "outputs": [
        {
          "internalType": "address",
          "name": "",
          "type": "address"
        }
      ],
      "stateMutability": "view",
      "type": "function"
    },
    {
      "inputs": [],
      "name": "checkpointToken",
      "outputs": [],
      "stateMutability": "nonpayable",
      "type": "function"
    },
    {
      "inputs": [],
      "name": "checkpointTotalSupply",
      "outputs": [],
      "stateMutability": "nonpayable",
      "type": "function"
    },
    {
      "inputs": [
        {
          "internalType": "address",
          "name": "addr_",
          "type": "address"
        }
      ],
      "name": "claimableTokens",
      "outputs": [
        {
          "internalType": "uint256",
          "name": "",
          "type": "uint256"
        }
      ],
      "stateMutability": "nonpayable",
      "type": "function"
    },
    {
      "inputs": [],
      "name": "futureEpochTime",
      "outputs": [
        {
          "internalType": "uint256",
          "name": "",
          "type": "uint256"
        }
      ],
      "stateMutability": "view",
      "type": "function"
    },
    {
      "inputs": [],
      "name": "gaugeController",
      "outputs": [
        {
          "internalType": "address",
          "name": "",
          "type": "address"
        }
      ],
      "stateMutability": "view",
      "type": "function"
    },
    {
      "inputs": [],
      "name": "inflationRate",
      "outputs": [
        {
          "internalType": "uint256",
          "name": "",
          "type": "uint256"
        }
      ],
      "stateMutability": "view",
      "type": "function"
    },
    {
      "inputs": [],
      "name": "integrateCheckpoint",
      "outputs": [
        {
          "internalType": "uint256",
          "name": "",
          "type": "uint256"
        }
      ],
      "stateMutability": "view",
      "type": "function"
    },
    {
      "inputs": [
        {
          "internalType": "address",
          "name": "",
          "type": "address"
        }
      ],
      "name": "integrateFraction",
      "outputs": [
        {
          "internalType": "uint256",
          "name": "",
          "type": "uint256"
        }
      ],
      "stateMutability": "view",
      "type": "function"
    },
    {
      "inputs": [
        {
          "internalType": "uint128",
          "name": "",
          "type": "uint128"
        }
      ],
      "name": "integrateInvSupply",
      "outputs": [
        {
          "internalType": "uint256",
          "name": "",
          "type": "uint256"
        }
      ],
      "stateMutability": "view",
      "type": "function"
    },
    {
      "inputs": [],
      "name": "isKilled",
      "outputs": [
        {
          "internalType": "bool",
          "name": "",
          "type": "bool"
        }
      ],
      "stateMutability": "view",
      "type": "function"
    },
    {
      "inputs": [],
      "name": "minter",
      "outputs": [
        {
          "internalType": "address",
          "name": "",
          "type": "address"
        }
      ],
      "stateMutability": "view",
      "type": "function"
    },
    {
      "inputs": [],
      "name": "period",
      "outputs": [
        {
          "internalType": "uint128",
          "name": "",
          "type": "uint128"
        }
      ],
      "stateMutability": "view",
      "type": "function"
    },
    {
      "inputs": [
        {
          "internalType": "uint128",
          "name": "",
          "type": "uint128"
        }
      ],
      "name": "periodTimestamp",
      "outputs": [
        {
          "internalType": "uint256",
          "name": "",
          "type": "uint256"
        }
      ],
      "stateMutability": "view",
      "type": "function"
    },
    {
      "inputs": [
        {
          "internalType": "bool",
          "name": "isKilled_",
          "type": "bool"
        }
      ],
      "name": "setKilled",
      "outputs": [],
      "stateMutability": "nonpayable",
      "type": "function"
    },
    {
      "inputs": [],
      "name": "startTime",
      "outputs": [
        {
          "internalType": "uint256",
          "name": "",
          "type": "uint256"
        }
      ],
      "stateMutability": "view",
      "type": "function"
    },
    {
      "inputs": [],
      "name": "timeCursor",
      "outputs": [
        {
          "internalType": "uint256",
          "name": "",
          "type": "uint256"
        }
      ],
      "stateMutability": "view",
      "type": "function"
    },
    {
      "inputs": [
        {
          "internalType": "address",
          "name": "",
          "type": "address"
        }
      ],
      "name": "timeCursorOf",
      "outputs": [
        {
          "internalType": "uint256",
          "name": "",
          "type": "uint256"
        }
      ],
      "stateMutability": "view",
      "type": "function"
    },
    {
      "inputs": [],
      "name": "token",
      "outputs": [
        {
          "internalType": "address",
          "name": "",
          "type": "address"
        }
      ],
      "stateMutability": "view",
      "type": "function"
    },
    {
      "inputs": [],
      "name": "tokenTimeCursor",
      "outputs": [
        {
          "internalType": "uint256",
          "name": "",
          "type": "uint256"
        }
      ],
      "stateMutability": "view",
      "type": "function"
    },
    {
      "inputs": [
        {
          "internalType": "uint256",
          "name": "",
          "type": "uint256"
        }
      ],
      "name": "tokensPerWeek",
      "outputs": [
        {
          "internalType": "uint256",
          "name": "",
          "type": "uint256"
        }
      ],
      "stateMutability": "view",
      "type": "function"
    },
    {
      "inputs": [
        {
          "internalType": "address",
          "name": "addr_",
          "type": "address"
        }
      ],
      "name": "userCheckpoint",
      "outputs": [
        {
          "internalType": "bool",
          "name": "",
          "type": "bool"
        }
      ],
      "stateMutability": "nonpayable",
      "type": "function"
    },
    {
      "inputs": [
        {
          "internalType": "address",
          "name": "",
          "type": "address"
        }
      ],
      "name": "userEpochOf",
      "outputs": [
        {
          "internalType": "uint256",
          "name": "",
          "type": "uint256"
        }
      ],
      "stateMutability": "view",
      "type": "function"
    },
    {
      "inputs": [
        {
          "internalType": "address",
          "name": "user_",
          "type": "address"
        },
        {
          "internalType": "uint256",
          "name": "timestamp_",
          "type": "uint256"
        }
      ],
      "name": "veForAt",
      "outputs": [
        {
          "internalType": "uint256",
          "name": "",
          "type": "uint256"
        }
      ],
      "stateMutability": "view",
      "type": "function"
    },
    {
      "inputs": [
        {
          "internalType": "uint256",
          "name": "",
          "type": "uint256"
        }
      ],
      "name": "veSupply",
      "outputs": [
        {
          "internalType": "uint256",
          "name": "",
          "type": "uint256"
        }
      ],
      "stateMutability": "view",
      "type": "function"
    },
    {
      "inputs": [],
      "name": "version",
      "outputs": [
        {
          "internalType": "string",
          "name": "",
          "type": "string"
        }
      ],
      "stateMutability": "pure",
      "type": "function"
    },
    {
      "inputs": [],
      "name": "votingEscrow",
      "outputs": [
        {
          "internalType": "address",
          "name": "",
          "type": "address"
        }
      ],
      "stateMutability": "view",
      "type": "function"
    }
  ],
  "bytecode": "0x60a06040523480156200001157600080fd5b5060405162001f0d38038062001f0d83398101604081905262000034916200032d565b6001600055600480546001600160a01b0319166001600160a01b038316908117825560408051637e062a3560e11b81529051919263fc0c546a9282820192602092908290030181865afa15801562000090573d6000803e3d6000fd5b505050506040513d601f19601f82011682018060405250810190620000b691906200032d565b600280546001600160a01b0319166001600160a01b03928316179055600480546040805163f77c479160e01b81529051919093169263f77c479192818101926020929091908290030181865afa15801562000115573d6000803e3d6000fd5b505050506040513d601f19601f820116820180604052508101906200013b91906200032d565b600580546001600160a01b0319166001600160a01b0392909216918217905560408051634f2bfe5b60e01b81529051634f2bfe5b916004808201926020929091908290030181865afa15801562000196573d6000803e3d6000fd5b505050506040513d601f19601f82011682018060405250810190620001bc91906200032d565b600380546001600160a01b039283166001600160a01b0319918216179091556000805260106020908152427f6e0956cda88cad152e89927e53611735b61a5c762d1428573c6931b0a5efcb015560018054909216331790915560025460408051631627391760e11b815290519190931692632c4e722e9260048083019391928290030181865afa15801562000255573d6000803e3d6000fd5b505050506040513d601f19601f820116820180604052508101906200027b91906200035f565b6007556002546040805163277dbafb60e01b815290516001600160a01b039092169163277dbafb9160048082019260209290919082900301816000875af1158015620002cb573d6000803e3d6000fd5b505050506040513d601f19601f82011682018060405250810190620002f191906200035f565b600681905560009062093a80906200030b90829062000379565b6200031791906200039c565b6080819052600b81905560085550620003c89050565b6000602082840312156200034057600080fd5b81516001600160a01b03811681146200035857600080fd5b9392505050565b6000602082840312156200037257600080fd5b5051919050565b6000826200039757634e487b7160e01b600052601260045260246000fd5b500490565b8082028115828204841417620003c257634e487b7160e01b600052601160045260246000fd5b92915050565b608051611b22620003eb6000396000818161034d0152610c7e0152611b226000f3fe608060405234801561001057600080fd5b50600436106101da5760003560e01c80638fe8a10111610104578063c7f1ec50116100a2578063f4359ce511610071578063f4359ce5146104e7578063f851a440146104f1578063fc0c546a14610511578063ffa1ad741461053157600080fd5b8063c7f1ec5014610457578063caa0b9ed14610477578063ef78d4fd14610497578063f3648241146104d457600080fd5b8063a5420e98116100de578063a5420e9814610412578063b07b709b1461041c578063bee5dc321461042f578063c428de371461043757600080fd5b80638fe8a101146103b457806399eecb3b146103e95780639e48d35e1461040957600080fd5b8063505362c41161017c57806384abf0661161014b57806384abf0661461036f57806384d24226146103785780638736659b1461038b578063899519be1461039457600080fd5b8063505362c4146102bd57806354fd4d50146102e6578063786479cd1461032857806378e979251461034857600080fd5b80632214718a116101b85780632214718a1461026c57806331f9e35b1461028c578063326a9407146102955780634f2bfe5b1461029d57600080fd5b806307546172146101df57806309599504146102295780630f6592ef1461023e575b600080fd5b6004546101ff9073ffffffffffffffffffffffffffffffffffffffff1681565b60405173ffffffffffffffffffffffffffffffffffffffff90911681526020015b60405180910390f35b61023c610237366004611759565b61056d565b005b61025e61024c36600461177b565b600d6020526000908152604090205481565b604051908152602001610220565b61025e61027a366004611794565b60116020526000908152604090205481565b61025e60075481565b61023c6105db565b6003546101ff9073ffffffffffffffffffffffffffffffffffffffff1681565b600f546fffffffffffffffffffffffffffffffff1660009081526010602052604090205461025e565b60408051808201909152600681527f76312e302e30000000000000000000000000000000000000000000000000000060208201525b60405161022091906117c6565b61025e61033636600461185b565b600a6020526000908152604090205481565b61025e7f000000000000000000000000000000000000000000000000000000000000000081565b61025e600b5481565b61025e61038636600461185b565b6105e5565b61025e60085481565b61025e6103a236600461177b565b600c6020526000908152604090205481565b6005546103d99074010000000000000000000000000000000000000000900460ff1681565b6040519015158152602001610220565b6005546101ff9073ffffffffffffffffffffffffffffffffffffffff1681565b61025e60065481565b61025e6201518081565b6103d961042a36600461185b565b6106c2565b61023c61077b565b61025e610445366004611794565b60106020526000908152604090205481565b61025e61046536600461185b565b60096020526000908152604090205481565b61025e61048536600461185b565b600e6020526000908152604090205481565b600f546104b3906fffffffffffffffffffffffffffffffff1681565b6040516fffffffffffffffffffffffffffffffff9091168152602001610220565b61025e6104e2366004611876565b61081e565b61025e62093a8081565b6001546101ff9073ffffffffffffffffffffffffffffffffffffffff1681565b6002546101ff9073ffffffffffffffffffffffffffffffffffffffff1681565b61031b6040518060400160405280600681526020017f76312e302e30000000000000000000000000000000000000000000000000000081525081565b60015473ffffffffffffffffffffffffffffffffffffffff16331461059157600080fd5b6005805491151574010000000000000000000000000000000000000000027fffffffffffffffffffffff00ffffffffffffffffffffffffffffffffffffffff909216919091179055565b6105e36109cd565b565b60006105f082610b92565b600480546040517f8b752bb000000000000000000000000000000000000000000000000000000000815273ffffffffffffffffffffffffffffffffffffffff85811693820193909352306024820152911690638b752bb090604401602060405180830381865afa158015610668573d6000803e3d6000fd5b505050506040513d601f19601f8201168201806040525081019061068c91906118a0565b73ffffffffffffffffffffffffffffffffffffffff83166000908152600e60205260409020546106bc91906118e8565b92915050565b60003373ffffffffffffffffffffffffffffffffffffffff831614806106ff575060045473ffffffffffffffffffffffffffffffffffffffff1633145b61076a576040517f08c379a000000000000000000000000000000000000000000000000000000000815260206004820152601160248201527f6465763a20756e617574686f72697a656400000000000000000000000000000060448201526064015b60405180910390fd5b61077382610b92565b506001919050565b60015473ffffffffffffffffffffffffffffffffffffffff163314806107b0575062015180600b546107ad91906118fb565b42115b610816576040517f08c379a000000000000000000000000000000000000000000000000000000000815260206004820152600c60248201527f556e617574686f72697a656400000000000000000000000000000000000000006044820152606401610761565b6105e36110e2565b6003546040517f81fc83bb00000000000000000000000000000000000000000000000000000000815273ffffffffffffffffffffffffffffffffffffffff84811660048301526000921690829082906381fc83bb90602401602060405180830381865afa158015610893573d6000803e3d6000fd5b505050506040513d601f19601f820116820180604052508101906108b791906118a0565b905060006108c7838787856114fc565b6040517f34d901a400000000000000000000000000000000000000000000000000000000815273ffffffffffffffffffffffffffffffffffffffff8881166004830152602482018390529192506000918516906334d901a490604401608060405180830381865afa158015610940573d6000803e3d6000fd5b505050506040513d601f19601f820116820180604052508101906109649190611920565b9050600081604001518761097891906118e8565b826020015161098791906119b9565b825161099391906119e0565b9050600081600f0b12156109af576000955050505050506106bc565b6fffffffffffffffffffffffffffffffff1694506106bc9350505050565b60035460085473ffffffffffffffffffffffffffffffffffffffff90911690600062093a806109fc8142611a2e565b610a069190611a69565b90508273ffffffffffffffffffffffffffffffffffffffff1663c2c4c5c16040518163ffffffff1660e01b8152600401600060405180830381600087803b158015610a5057600080fd5b505af1158015610a64573d6000803e3d6000fd5b5050505060005b6014811015610b8a57818311610b8a576000610a8785856115e8565b6040517f8ad4c4470000000000000000000000000000000000000000000000000000000081526004810182905290915060009073ffffffffffffffffffffffffffffffffffffffff871690638ad4c44790602401608060405180830381865afa158015610af8573d6000803e3d6000fd5b505050506040513d601f19601f82011682018060405250810190610b1c9190611920565b905060008160400151861115610b3e576040820151610b3b9087611a80565b90505b808260200151610b4e91906119b9565b8251610b5a91906119e0565b6000878152600d60205260409020600f9190910b9055610b7d62093a80876118fb565b9550505050600101610a6b565b505060085550565b6008544210610ba357610ba36109cd565b600062093a80600854610bb691906118e8565b600b54909150610bc962015180826118fb565b421115610bdd57610bd86110e2565b50600b545b6003546040517f81fc83bb00000000000000000000000000000000000000000000000000000000815273ffffffffffffffffffffffffffffffffffffffff8581166004830152909116906000908190819084906381fc83bb90602401602060405180830381865afa158015610c56573d6000803e3d6000fd5b505050506040513d601f19601f82011682018060405250810190610c7a91906118a0565b90507f00000000000000000000000000000000000000000000000000000000000000006000829003610cb0575050505050505050565b73ffffffffffffffffffffffffffffffffffffffff881660009081526009602052604081205490819003610cf157610cea868a84866114fc565b9450610d1a565b73ffffffffffffffffffffffffffffffffffffffff89166000908152600a602052604090205494505b84600003610d2757600194505b6040517f34d901a400000000000000000000000000000000000000000000000000000000815273ffffffffffffffffffffffffffffffffffffffff8a8116600483015260248201879052600091908816906334d901a490604401608060405180830381865afa158015610d9e573d6000803e3d6000fd5b505050506040513d601f19601f82011682018060405250810190610dc29190611920565b905081600003610e075762093a8080600162093a808460400151610de691906118fb565b610df091906118e8565b610dfa9190611a2e565b610e049190611a69565b91505b8882101580610e165750878210155b15610e275750505050505050505050565b82821015610e33578291505b6040805160808101825260008082526020820181905291810182905260608101829052905b603281101561106a578a84101580610e705750898410155b61106a5782604001518410158015610e885750858811155b15610fab57610e986001896118fb565b975060405180608001604052808460000151600f0b81526020018460200151600f0b8152602001846040015181526020018460600151815250915085881115610f0d5760405180608001604052806000600f0b81526020016000600f0b81526020016000815260200160008152509250611062565b6040517f34d901a400000000000000000000000000000000000000000000000000000000815273ffffffffffffffffffffffffffffffffffffffff8d81166004830152602482018a90528a16906334d901a490604401608060405180830381865afa158015610f80573d6000803e3d6000fd5b505050506040513d601f19601f82011682018060405250810190610fa49190611920565b9250611062565b6000826040015185610fbd9190611a80565b905060008360200151600f0b82610fd49190611aa0565b8451610fe39190600f0b611a80565b90506000811215610ff2575060005b80158015610fff5750878a115b1561100b57505061106a565b6000811315611050576000868152600d6020908152604080832054600c909252909120546110399083611a69565b6110439190611a2e565b61104d908a6118fb565b98505b61105d62093a80876118fb565b955050505b600101610e58565b5061107f8561107a60018a6118e8565b611741565b73ffffffffffffffffffffffffffffffffffffffff8c166000908152600a6020908152604080832084905560098252808320879055600e9091528120805492995088929091906110d09084906118fb565b90915550505050505050505050505050565b600754600654600b54600092919082908462093a806111018184611a2e565b61110b9190611a69565b905060008062093a8061111e8142611a2e565b6111289190611a69565b905083861061126357600260009054906101000a900473ffffffffffffffffffffffffffffffffffffffff1673ffffffffffffffffffffffffffffffffffffffff1663277dbafb6040518163ffffffff1660e01b81526004016020604051808303816000875af11580156111a0573d6000803e3d6000fd5b505050506040513d601f19601f820116820180604052508101906111c491906118a0565b600655600254604080517f2c4e722e000000000000000000000000000000000000000000000000000000008152905173ffffffffffffffffffffffffffffffffffffffff90921691632c4e722e916004808201926020929091908290030181865afa158015611237573d6000803e3d6000fd5b505050506040513d601f19601f8201168201806040525081019061125b91906118a0565b600781905594505b60055474010000000000000000000000000000000000000000900460ff161561128f5760009650600094505b6005546040517f8aca6a2300000000000000000000000000000000000000000000000000000000815230600482015273ffffffffffffffffffffffffffffffffffffffff90911690638aca6a2390602401600060405180830381600087803b1580156112fa57600080fd5b505af115801561130e573d6000803e3d6000fd5b5050505060005b60148110156114b357818410156114b35761133362093a80856118fb565b6005546040517f65c604680000000000000000000000000000000000000000000000000000000081523060048201526024810187905291945060009173ffffffffffffffffffffffffffffffffffffffff909116906365c6046890604401602060405180830381865afa1580156113ae573d6000803e3d6000fd5b505050506040513d601f19601f820116820180604052508101906113d291906118a0565b90508588101580156113e357508388105b1561144b5760006113f4878a6118e8565b905060006114028a876118e8565b9050670de0b6b3a7640000611417828b611a69565b611421848e611a69565b61142b91906118fb565b6114359085611a69565b61143f9190611a2e565b9b50889a50505061147f565b670de0b6b3a764000061145e87866118e8565b6114688b84611a69565b6114729190611a69565b61147c9190611a2e565b99505b6000858152600c6020526040812080548c929061149d9084906118fb565b9091555093955085945084935050600101611315565b50600b84905560408051428152602081018a90527fce749457b74e10f393f2c6b1ce4261b78791376db5a3f501477a809f03f500d6910160405180910390a15050505050505050565b60008082815b60808110156115dc57818310156115dc576040517f34d901a400000000000000000000000000000000000000000000000000000000815273ffffffffffffffffffffffffffffffffffffffff8881166004830152600284860181010460248301819052916000918b16906334d901a490604401608060405180830381865afa158015611592573d6000803e3d6000fd5b505050506040513d601f19601f820116820180604052508101906115b69190611920565b9050878160400151116115cb578194506115d2565b6001820393505b5050600101611502565b50909695505050505050565b6000806000905060008473ffffffffffffffffffffffffffffffffffffffff1663900cf0cf6040518163ffffffff1660e01b8152600401602060405180830381865afa15801561163c573d6000803e3d6000fd5b505050506040513d601f19601f8201168201806040525081019061166091906118a0565b905060005b60808110156117375781831015611737576040517f8ad4c4470000000000000000000000000000000000000000000000000000000081526002838501810104600482018190529060009073ffffffffffffffffffffffffffffffffffffffff891690638ad4c44790602401608060405180830381865afa1580156116ed573d6000803e3d6000fd5b505050506040513d601f19601f820116820180604052508101906117119190611920565b9050868160400151116117265781945061172d565b6001820393505b5050600101611665565b5090949350505050565b60008183106117505781611752565b825b9392505050565b60006020828403121561176b57600080fd5b8135801515811461175257600080fd5b60006020828403121561178d57600080fd5b5035919050565b6000602082840312156117a657600080fd5b81356fffffffffffffffffffffffffffffffff8116811461175257600080fd5b600060208083528351808285015260005b818110156117f3578581018301518582016040015282016117d7565b5060006040828601015260407fffffffffffffffffffffffffffffffffffffffffffffffffffffffffffffffe0601f8301168501019250505092915050565b803573ffffffffffffffffffffffffffffffffffffffff8116811461185657600080fd5b919050565b60006020828403121561186d57600080fd5b61175282611832565b6000806040838503121561188957600080fd5b61189283611832565b946020939093013593505050565b6000602082840312156118b257600080fd5b5051919050565b7f4e487b7100000000000000000000000000000000000000000000000000000000600052601160045260246000fd5b818103818111156106bc576106bc6118b9565b808201808211156106bc576106bc6118b9565b8051600f81900b811461185657600080fd5b60006080828403121561193257600080fd5b6040516080810181811067ffffffffffffffff8211171561197c577f4e487b7100000000000000000000000000000000000000000000000000000000600052604160045260246000fd5b6040526119888361190e565b81526119966020840161190e565b602082015260408301516040820152606083015160608201528091505092915050565b600082600f0b82600f0b0280600f0b91508082146119d9576119d96118b9565b5092915050565b600f82810b9082900b037fffffffffffffffffffffffffffffffff8000000000000000000000000000000081126f7fffffffffffffffffffffffffffffff821317156106bc576106bc6118b9565b600082611a64577f4e487b7100000000000000000000000000000000000000000000000000000000600052601260045260246000fd5b500490565b80820281158282048414176106bc576106bc6118b9565b81810360008312801583831316838312821617156119d9576119d96118b9565b808202600082127f800000000000000000000000000000000000000000000000000000000000000084141615611ad857611ad86118b9565b81810583148215176106bc576106bc6118b956fea2646970667358221220eb609501e473d9c731f89b901cc8e464be92aa259879355bc6bd9e7c45f13ae364736f6c63430008120033",
  "linkReferences": {},
  "deployedLinkReferences": {}
}