{
  "_format": "hh-sol-artifact-1",
  "contractName": "Gauge",
  "sourceName": "contracts/Gauge.sol",
  "abi": [
    {
      "inputs": [
        {
          "internalType": "address",
          "name": "minter_",
          "type": "address"
        }
      ],
      "stateMutability": "nonpayable",
      "type": "constructor"
    },
    {
      "anonymous": false,
      "inputs": [
        {
          "indexed": true,
          "internalType": "address",
          "name": "admin",
          "type": "address"
        }
      ],
      "name": "ApplyOwnership",
      "type": "event"
    },
    {
      "anonymous": false,
      "inputs": [
        {
          "indexed": false,
          "internalType": "uint256",
          "name": "time",
          "type": "uint256"
        },
        {
          "indexed": false,
          "internalType": "uint256",
          "name": "tokens",
          "type": "uint256"
        }
      ],
      "name": "CheckpointToken",
      "type": "event"
    },
    {
      "anonymous": false,
      "inputs": [
        {
          "indexed": true,
          "internalType": "address",
          "name": "admin",
          "type": "address"
        }
      ],
      "name": "CommitOwnership",
      "type": "event"
    },
    {
      "inputs": [],
      "name": "TOKEN_CHECKPOINT_DEADLINE",
      "outputs": [
        {
          "internalType": "uint256",
          "name": "",
          "type": "uint256"
        }
      ],
      "stateMutability": "view",
      "type": "function"
    },
    {
      "inputs": [],
      "name": "VERSION",
      "outputs": [
        {
          "internalType": "string",
          "name": "",
          "type": "string"
        }
      ],
      "stateMutability": "view",
      "type": "function"
    },
    {
      "inputs": [],
      "name": "WEEK",
      "outputs": [
        {
          "internalType": "uint256",
          "name": "",
          "type": "uint256"
        }
      ],
      "stateMutability": "view",
      "type": "function"
    },
    {
      "inputs": [],
      "name": "admin",
      "outputs": [
        {
          "internalType": "address",
          "name": "",
          "type": "address"
        }
      ],
      "stateMutability": "view",
      "type": "function"
    },
    {
      "inputs": [],
      "name": "checkpointToken",
      "outputs": [],
      "stateMutability": "nonpayable",
      "type": "function"
    },
    {
      "inputs": [],
      "name": "checkpointTotalSupply",
      "outputs": [],
      "stateMutability": "nonpayable",
      "type": "function"
    },
    {
      "inputs": [
        {
          "internalType": "address",
          "name": "",
          "type": "address"
        },
        {
          "internalType": "address",
          "name": "",
          "type": "address"
        }
      ],
      "name": "claimData",
      "outputs": [
        {
          "internalType": "uint256",
          "name": "",
          "type": "uint256"
        }
      ],
      "stateMutability": "view",
      "type": "function"
    },
    {
      "inputs": [
        {
          "internalType": "address",
          "name": "addr_",
          "type": "address"
        }
      ],
      "name": "claimableTokens",
      "outputs": [
        {
          "internalType": "uint256",
          "name": "",
          "type": "uint256"
        }
      ],
      "stateMutability": "nonpayable",
      "type": "function"
    },
    {
      "inputs": [],
      "name": "futureEpochTime",
      "outputs": [
        {
          "internalType": "uint256",
          "name": "",
          "type": "uint256"
        }
      ],
      "stateMutability": "view",
      "type": "function"
    },
    {
      "inputs": [],
      "name": "gaugeController",
      "outputs": [
        {
          "internalType": "address",
          "name": "",
          "type": "address"
        }
      ],
      "stateMutability": "view",
      "type": "function"
    },
    {
      "inputs": [],
      "name": "inflationRate",
      "outputs": [
        {
          "internalType": "uint256",
          "name": "",
          "type": "uint256"
        }
      ],
      "stateMutability": "view",
      "type": "function"
    },
    {
      "inputs": [],
      "name": "integrateCheckpoint",
      "outputs": [
        {
          "internalType": "uint256",
          "name": "",
          "type": "uint256"
        }
      ],
      "stateMutability": "view",
      "type": "function"
    },
    {
      "inputs": [
        {
          "internalType": "address",
          "name": "",
          "type": "address"
        }
      ],
      "name": "integrateCheckpointOf",
      "outputs": [
        {
          "internalType": "uint256",
          "name": "",
          "type": "uint256"
        }
      ],
      "stateMutability": "view",
      "type": "function"
    },
    {
      "inputs": [
        {
          "internalType": "address",
          "name": "",
          "type": "address"
        }
      ],
      "name": "integrateFraction",
      "outputs": [
        {
          "internalType": "uint256",
          "name": "",
          "type": "uint256"
        }
      ],
      "stateMutability": "view",
      "type": "function"
    },
    {
      "inputs": [
        {
          "internalType": "uint256",
          "name": "",
          "type": "uint256"
        }
      ],
      "name": "integrateInvSupply",
      "outputs": [
        {
          "internalType": "uint256",
          "name": "",
          "type": "uint256"
        }
      ],
      "stateMutability": "view",
      "type": "function"
    },
    {
      "inputs": [
        {
          "internalType": "address",
          "name": "",
          "type": "address"
        }
      ],
      "name": "integrateInvSupplyOf",
      "outputs": [
        {
          "internalType": "uint256",
          "name": "",
          "type": "uint256"
        }
      ],
      "stateMutability": "view",
      "type": "function"
    },
    {
      "inputs": [],
      "name": "isKilled",
      "outputs": [
        {
          "internalType": "bool",
          "name": "",
          "type": "bool"
        }
      ],
      "stateMutability": "view",
      "type": "function"
    },
    {
      "inputs": [],
      "name": "lastTokenTime",
      "outputs": [
        {
          "internalType": "uint256",
          "name": "",
          "type": "uint256"
        }
      ],
      "stateMutability": "view",
      "type": "function"
    },
    {
      "inputs": [],
      "name": "minter",
      "outputs": [
        {
          "internalType": "address",
          "name": "",
          "type": "address"
        }
      ],
      "stateMutability": "view",
      "type": "function"
    },
    {
      "inputs": [],
      "name": "period",
      "outputs": [
        {
          "internalType": "int128",
          "name": "",
          "type": "int128"
        }
      ],
      "stateMutability": "view",
      "type": "function"
    },
    {
      "inputs": [
        {
          "internalType": "uint256",
          "name": "",
          "type": "uint256"
        }
      ],
      "name": "periodTimestamp",
      "outputs": [
        {
          "internalType": "uint256",
          "name": "",
          "type": "uint256"
        }
      ],
      "stateMutability": "view",
      "type": "function"
    },
    {
      "inputs": [
        {
          "internalType": "bool",
          "name": "isKilled_",
          "type": "bool"
        }
      ],
      "name": "setKilled",
      "outputs": [],
      "stateMutability": "nonpayable",
      "type": "function"
    },
    {
      "inputs": [],
      "name": "startTime",
      "outputs": [
        {
          "internalType": "uint256",
          "name": "",
          "type": "uint256"
        }
      ],
      "stateMutability": "view",
      "type": "function"
    },
    {
      "inputs": [],
      "name": "timeCursor",
      "outputs": [
        {
          "internalType": "uint256",
          "name": "",
          "type": "uint256"
        }
      ],
      "stateMutability": "view",
      "type": "function"
    },
    {
      "inputs": [
        {
          "internalType": "address",
          "name": "",
          "type": "address"
        }
      ],
      "name": "timeCursorOf",
      "outputs": [
        {
          "internalType": "uint256",
          "name": "",
          "type": "uint256"
        }
      ],
      "stateMutability": "view",
      "type": "function"
    },
    {
      "inputs": [],
      "name": "token",
      "outputs": [
        {
          "internalType": "address",
          "name": "",
          "type": "address"
        }
      ],
      "stateMutability": "view",
      "type": "function"
    },
    {
      "inputs": [],
      "name": "tokenLastBalance",
      "outputs": [
        {
          "internalType": "uint256",
          "name": "",
          "type": "uint256"
        }
      ],
      "stateMutability": "view",
      "type": "function"
    },
    {
      "inputs": [
        {
          "internalType": "uint256",
          "name": "",
          "type": "uint256"
        }
      ],
      "name": "tokensPerWeek",
      "outputs": [
        {
          "internalType": "uint256",
          "name": "",
          "type": "uint256"
        }
      ],
      "stateMutability": "view",
      "type": "function"
    },
    {
      "inputs": [
        {
          "internalType": "address",
          "name": "addr_",
          "type": "address"
        }
      ],
      "name": "userCheckpoint",
      "outputs": [
        {
          "internalType": "bool",
          "name": "",
          "type": "bool"
        }
      ],
      "stateMutability": "nonpayable",
      "type": "function"
    },
    {
      "inputs": [
        {
          "internalType": "address",
          "name": "",
          "type": "address"
        }
      ],
      "name": "userEpochOf",
      "outputs": [
        {
          "internalType": "uint256",
          "name": "",
          "type": "uint256"
        }
      ],
      "stateMutability": "view",
      "type": "function"
    },
    {
      "inputs": [
        {
          "internalType": "address",
          "name": "user_",
          "type": "address"
        },
        {
          "internalType": "uint256",
          "name": "timestamp_",
          "type": "uint256"
        }
      ],
      "name": "veForAt",
      "outputs": [
        {
          "internalType": "uint256",
          "name": "",
          "type": "uint256"
        }
      ],
      "stateMutability": "view",
      "type": "function"
    },
    {
      "inputs": [
        {
          "internalType": "uint256",
          "name": "",
          "type": "uint256"
        }
      ],
      "name": "veSupply",
      "outputs": [
        {
          "internalType": "uint256",
          "name": "",
          "type": "uint256"
        }
      ],
      "stateMutability": "view",
      "type": "function"
    },
    {
      "inputs": [],
      "name": "version",
      "outputs": [
        {
          "internalType": "string",
          "name": "",
          "type": "string"
        }
      ],
      "stateMutability": "pure",
      "type": "function"
    },
    {
      "inputs": [],
      "name": "votingEscrow",
      "outputs": [
        {
          "internalType": "address",
          "name": "",
          "type": "address"
        }
      ],
      "stateMutability": "view",
      "type": "function"
    },
    {
      "inputs": [
        {
          "internalType": "address",
          "name": "",
          "type": "address"
        }
      ],
      "name": "workingBalances",
      "outputs": [
        {
          "internalType": "uint256",
          "name": "",
          "type": "uint256"
        }
      ],
      "stateMutability": "view",
      "type": "function"
    },
    {
      "inputs": [],
      "name": "workingSupply",
      "outputs": [
        {
          "internalType": "uint256",
          "name": "",
          "type": "uint256"
        }
      ],
      "stateMutability": "view",
      "type": "function"
    }
  ],
  "bytecode": "0x60a06040523480156200001157600080fd5b50604051620020a4380380620020a48339810160408190526200003491620002fc565b6001600055600480546001600160a01b0319166001600160a01b038316908117825560408051637e062a3560e11b81529051919263fc0c546a9282820192602092908290030181865afa15801562000090573d6000803e3d6000fd5b505050506040513d601f19601f82011682018060405250810190620000b69190620002fc565b600280546001600160a01b0319166001600160a01b03928316179055600480546040805163f77c479160e01b81529051919093169263f77c479192818101926020929091908290030181865afa15801562000115573d6000803e3d6000fd5b505050506040513d601f19601f820116820180604052508101906200013b9190620002fc565b600580546001600160a01b0319166001600160a01b0392909216918217905560408051634f2bfe5b60e01b81529051634f2bfe5b916004808201926020929091908290030181865afa15801562000196573d6000803e3d6000fd5b505050506040513d601f19601f82011682018060405250810190620001bc9190620002fc565b600380546001600160a01b03199081166001600160a01b03938416179091554266038d7ea4c6801055600180549091163317905560025460408051631627391760e11b815290519190921691632c4e722e9160048083019260209291908290030181865afa15801562000233573d6000803e3d6000fd5b505050506040513d601f19601f820116820180604052508101906200025991906200032e565b6007556002546040805163277dbafb60e01b815290516001600160a01b039092169163277dbafb9160048082019260209290919082900301816000875af1158015620002a9573d6000803e3d6000fd5b505050506040513d601f19601f82011682018060405250810190620002cf91906200032e565b600681905562093a8090620002e690829062000348565b620002f291906200036b565b6080525062000397565b6000602082840312156200030f57600080fd5b81516001600160a01b03811681146200032757600080fd5b9392505050565b6000602082840312156200034157600080fd5b5051919050565b6000826200036657634e487b7160e01b600052601260045260246000fd5b500490565b80820281158282048414176200039157634e487b7160e01b600052601160045260246000fd5b92915050565b608051611cea620003ba600039600081816103d30152610e7b0152611cea6000f3fe608060405234801561001057600080fd5b506004361061025c5760003560e01c8063939ea66b11610145578063c8562f72116100bd578063f36482411161008c578063f851a44011610071578063f851a440146105f9578063fc0c546a14610619578063ffa1ad741461063957600080fd5b8063f3648241146105dc578063f4359ce5146105ef57600080fd5b8063c8562f7214610544578063caa0b9ed14610559578063e50912ae1461057f578063ef78d4fd146105b657600080fd5b8063a5420e9811610114578063b1bd6086116100f9578063b1bd6086146104f0578063bee5dc321461051c578063c7f1ec501461052457600080fd5b8063a5420e98146104d3578063b07b709b146104dd57600080fd5b8063939ea66b14610475578063958da8de1461047e57806399eecb3b146104aa5780639e48d35e146104ca57600080fd5b80637699b4cd116101d85780638736659b116101a75780638dea29c71161018c5780638dea29c7146104245780638ec8468a146104375780638fe8a1011461044057600080fd5b80638736659b14610408578063899519be1461041157600080fd5b80637699b4cd14610382578063786479cd146103ae57806378e97925146103ce57806384d24226146103f557600080fd5b806331f9e35b1161022f5780634f2bfe5b116102145780634f2bfe5b14610318578063505362c41461033857806354fd4d501461034057600080fd5b806331f9e35b14610307578063326a94071461031057600080fd5b8063075461721461026157806309599504146102ab5780630f6592ef146102c057806331e202cc146102f4575b600080fd5b6004546102819073ffffffffffffffffffffffffffffffffffffffff1681565b60405173ffffffffffffffffffffffffffffffffffffffff90911681526020015b60405180910390f35b6102be6102b93660046118f1565b610675565b005b6102e66102ce366004611913565b66038d7ea4c6800d6020526000908152604090205481565b6040519081526020016102a2565b6102e6610302366004611913565b6106e3565b6102e660075481565b6102be61070c565b6003546102819073ffffffffffffffffffffffffffffffffffffffff1681565b6102e6610716565b60408051808201909152600681527f76312e302e30000000000000000000000000000000000000000000000000000060208201525b6040516102a2919061192c565b6102e66103903660046119c1565b6c02863c1f5cdae7bd13e4c680146020526000908152604090205481565b6102e66103bc3660046119c1565b600a6020526000908152604090205481565b6102e67f000000000000000000000000000000000000000000000000000000000000000081565b6102e66104033660046119c1565b610760565b6102e660085481565b6102e661041f366004611913565b610843565b6102e6610432366004611913565b610859565b6102e6600c5481565b6005546104659074010000000000000000000000000000000000000000900460ff1681565b60405190151581526020016102a2565b6102e6600b5481565b6102e661048c3660046119c1565b6c02863c1f5cdae7bd13e4c680116020526000908152604090205481565b6005546102819073ffffffffffffffffffffffffffffffffffffffff1681565b6102e660065481565b6102e66201518081565b6104656104eb3660046119c1565b610881565b6102e66104fe3660046119c1565b6c02863c1f5cdae7bd13e4c680136020526000908152604090205481565b6102be6109bf565b6102e66105323660046119c1565b60096020526000908152604090205481565b6102e66c02863c1f5cdae7bd13e4c680125481565b6102e66105673660046119c1565b66038d7ea4c6800e6020526000908152604090205481565b6102e661058d3660046119dc565b6c02863c1f5cdae7bd13e4c6801060209081526000928352604080842090915290825290205481565b66038d7ea4c6800f546105c990600f0b81565b604051600f9190910b81526020016102a2565b6102e66105ea366004611a0f565b610a60565b6102e662093a8081565b6001546102819073ffffffffffffffffffffffffffffffffffffffff1681565b6002546102819073ffffffffffffffffffffffffffffffffffffffff1681565b6103756040518060400160405280600681526020017f76312e302e30000000000000000000000000000000000000000000000000000081525081565b60015473ffffffffffffffffffffffffffffffffffffffff16331461069957600080fd5b6005805491151574010000000000000000000000000000000000000000027fffffffffffffffffffffff00ffffffffffffffffffffffffffffffffffffffff909216919091179055565b66038d7ea4c68010816c01431e0fae6d7217caa0000000811061070557600080fd5b0154905081565b610714610c0f565b565b66038d7ea4c6800f5460009066038d7ea4c68010906fffffffffffffffffffffffffffffffff166c01431e0fae6d7217caa0000000811061075957610759611a39565b0154905090565b600061076b82610dda565b600480546040517f8b752bb000000000000000000000000000000000000000000000000000000000815273ffffffffffffffffffffffffffffffffffffffff85811693820193909352306024820152911690638b752bb090604401602060405180830381865afa1580156107e3573d6000803e3d6000fd5b505050506040513d601f19601f820116820180604052508101906108079190611a68565b73ffffffffffffffffffffffffffffffffffffffff8316600090815266038d7ea4c6800e602052604090205461083d9190611ab0565b92915050565b600d8166038d7ea4c68000811061070557600080fd5b6c01431e0fae6d75a54944c68010816c01431e0fae6d7217caa0000000811061070557600080fd5b60003373ffffffffffffffffffffffffffffffffffffffff831614806108be575060045473ffffffffffffffffffffffffffffffffffffffff1633145b610929576040517f08c379a000000000000000000000000000000000000000000000000000000000815260206004820152601160248201527f6465763a20756e617574686f72697a656400000000000000000000000000000060448201526064015b60405180910390fd5b60055474010000000000000000000000000000000000000000900460ff16156109ae576040517f08c379a000000000000000000000000000000000000000000000000000000000815260206004820152601260248201527f436f6e7472616374206973206b696c6c656400000000000000000000000000006044820152606401610920565b6109b782610dda565b506001919050565b60015473ffffffffffffffffffffffffffffffffffffffff163314806109f25750600b546109ef90610e10611ac3565b42115b610a58576040517f08c379a000000000000000000000000000000000000000000000000000000000815260206004820152600c60248201527f556e617574686f72697a656400000000000000000000000000000000000000006044820152606401610920565b61071461142c565b6003546040517f81fc83bb00000000000000000000000000000000000000000000000000000000815273ffffffffffffffffffffffffffffffffffffffff84811660048301526000921690829082906381fc83bb90602401602060405180830381865afa158015610ad5573d6000803e3d6000fd5b505050506040513d601f19601f82011682018060405250810190610af99190611a68565b90506000610b0983878785611694565b6040517f34d901a400000000000000000000000000000000000000000000000000000000815273ffffffffffffffffffffffffffffffffffffffff8881166004830152602482018390529192506000918516906334d901a490604401608060405180830381865afa158015610b82573d6000803e3d6000fd5b505050506040513d601f19601f82011682018060405250810190610ba69190611ae8565b90506000816040015187610bba9190611ab0565b8260200151610bc99190611b81565b8251610bd59190611ba8565b9050600081600f0b1215610bf15760009550505050505061083d565b6fffffffffffffffffffffffffffffffff16945061083d9350505050565b60035460085473ffffffffffffffffffffffffffffffffffffffff90911690600062093a80610c3e8142611bf6565b610c489190611c31565b90508273ffffffffffffffffffffffffffffffffffffffff1663c2c4c5c16040518163ffffffff1660e01b8152600401600060405180830381600087803b158015610c9257600080fd5b505af1158015610ca6573d6000803e3d6000fd5b5050505060005b6014811015610dd257818311610dd2576000610cc98585611780565b6040517f8ad4c4470000000000000000000000000000000000000000000000000000000081526004810182905290915060009073ffffffffffffffffffffffffffffffffffffffff871690638ad4c44790602401608060405180830381865afa158015610d3a573d6000803e3d6000fd5b505050506040513d601f19601f82011682018060405250810190610d5e9190611ae8565b905060008160400151861115610d80576040820151610d7d9087611c48565b90505b808260200151610d909190611b81565b8251610d9c9190611ba8565b600087815266038d7ea4c6800d60205260409020600f9190910b9055610dc562093a8087611ac3565b9550505050600101610cad565b505060085550565b6003546040517f81fc83bb00000000000000000000000000000000000000000000000000000000815273ffffffffffffffffffffffffffffffffffffffff8381166004830152909116906000908190819084906381fc83bb90602401602060405180830381865afa158015610e53573d6000803e3d6000fd5b505050506040513d601f19601f82011682018060405250810190610e779190611a68565b90507f00000000000000000000000000000000000000000000000000000000000000006000829003610eab57505050505050565b6008544210610ebc57610ebc610c0f565b600b54610ecb81610e10611ac3565b421115610edd57610eda61142c565b50425b73ffffffffffffffffffffffffffffffffffffffff871660009081526009602052604081205462093a80928390049092029190819003610f2a57610f2387898587611694565b9550610f53565b73ffffffffffffffffffffffffffffffffffffffff88166000908152600a602052604090205495505b85600003610f6057600195505b6040517f34d901a400000000000000000000000000000000000000000000000000000000815273ffffffffffffffffffffffffffffffffffffffff898116600483015260248201889052600091908916906334d901a490604401608060405180830381865afa158015610fd7573d6000803e3d6000fd5b505050506040513d601f19601f82011682018060405250810190610ffb9190611ae8565b9050816000036110405762093a8080600162093a80846040015161101f9190611ac3565b6110299190611ab0565b6110339190611bf6565b61103d9190611c31565b91505b82821061105257505050505050505050565b8382101561105e578391505b6040805160808101825260008082526020820181905291810182905260608101829052905b60328110156113af57848410156113af57826040015184101580156110a85750868911155b156111cb576110b860018a611ac3565b985060405180608001604052808460000151600f0b81526020018460200151600f0b815260200184604001518152602001846060015181525091508689111561112d5760405180608001604052806000600f0b81526020016000600f0b815260200160008152602001600081525092506113a7565b6040517f34d901a400000000000000000000000000000000000000000000000000000000815273ffffffffffffffffffffffffffffffffffffffff8c81166004830152602482018b90528b16906334d901a490604401608060405180830381865afa1580156111a0573d6000803e3d6000fd5b505050506040513d601f19601f820116820180604052508101906111c49190611ae8565b92506113a7565b60008260400151856111dd9190611c48565b905060008360200151600f0b826111f49190611c68565b84516112039190600f0b611c48565b905060008460200151600f0b8361121a9190611c68565b85516112299190600f0b611c48565b1215611233575060005b801580156112405750888b115b1561124c5750506113af565b60008113156113955760055460009073ffffffffffffffffffffffffffffffffffffffff166365c604683062093a80611285818c611bf6565b61128f9190611c31565b6040517fffffffff0000000000000000000000000000000000000000000000000000000060e085901b16815273ffffffffffffffffffffffffffffffffffffffff90921660048301526024820152604401602060405180830381865afa1580156112fd573d6000803e3d6000fd5b505050506040513d601f19601f820116820180604052508101906113219190611a68565b600088815266038d7ea4c6800d6020526040902054909150670de0b6b3a76400009082600d8a66038d7ea4c68000811061135d5761135d611a39565b01546113699086611c31565b6113739190611c31565b61137d9190611bf6565b6113879190611bf6565b611391908c611ac3565b9a50505b6113a262093a8087611ac3565b955050505b600101611083565b506113c4866113bf60018b611ab0565b6118d9565b73ffffffffffffffffffffffffffffffffffffffff8b166000908152600a602090815260408083208490556009825280832087905566038d7ea4c6800e90915281208054929a50899290919061141b908490611ac3565b909155505050505050505050505050565b6002546040517f70a0823100000000000000000000000000000000000000000000000000000000815230600482015260009173ffffffffffffffffffffffffffffffffffffffff16906370a0823190602401602060405180830381865afa15801561149b573d6000803e3d6000fd5b505050506040513d601f19601f820116820180604052508101906114bf9190611a68565b90506000600c54826114d19190611ab0565b600c839055600b5490915060006114e88242611ab0565b42600b559050600062093a806114fe8185611bf6565b6115089190611c31565b90506000805b60148110156116525761152462093a8084611ac3565b9150814210156115ad578315801561153b57508442145b156115755785600d8466038d7ea4c68000811061155a5761155a611a39565b01600082825461156a9190611ac3565b909155506116529050565b836115808642611ab0565b61158a9088611c31565b6115949190611bf6565b600d8466038d7ea4c68000811061155a5761155a611a39565b831580156115ba57508482145b156115f45785600d8466038d7ea4c6800081106115d9576115d9611a39565b0160008282546115e99190611ac3565b909155506116429050565b836115ff8684611ab0565b6116099088611c31565b6116139190611bf6565b600d8466038d7ea4c68000811061162c5761162c611a39565b01600082825461163c9190611ac3565b90915550505b909350839150819060010161150e565b5060408051428152602081018790527fce749457b74e10f393f2c6b1ce4261b78791376db5a3f501477a809f03f500d6910160405180910390a1505050505050565b60008082815b60808110156117745781831015611774576040517f34d901a400000000000000000000000000000000000000000000000000000000815273ffffffffffffffffffffffffffffffffffffffff8881166004830152600284860181010460248301819052916000918b16906334d901a490604401608060405180830381865afa15801561172a573d6000803e3d6000fd5b505050506040513d601f19601f8201168201806040525081019061174e9190611ae8565b9050878160400151116117635781945061176a565b6001820393505b505060010161169a565b50909695505050505050565b6000806000905060008473ffffffffffffffffffffffffffffffffffffffff1663900cf0cf6040518163ffffffff1660e01b8152600401602060405180830381865afa1580156117d4573d6000803e3d6000fd5b505050506040513d601f19601f820116820180604052508101906117f89190611a68565b905060005b60808110156118cf57818310156118cf576040517f8ad4c4470000000000000000000000000000000000000000000000000000000081526002838501810104600482018190529060009073ffffffffffffffffffffffffffffffffffffffff891690638ad4c44790602401608060405180830381865afa158015611885573d6000803e3d6000fd5b505050506040513d601f19601f820116820180604052508101906118a99190611ae8565b9050868160400151116118be578194506118c5565b6001820393505b50506001016117fd565b5090949350505050565b60008183106118e857816118ea565b825b9392505050565b60006020828403121561190357600080fd5b813580151581146118ea57600080fd5b60006020828403121561192557600080fd5b5035919050565b600060208083528351808285015260005b818110156119595785810183015185820160400152820161193d565b5060006040828601015260407fffffffffffffffffffffffffffffffffffffffffffffffffffffffffffffffe0601f8301168501019250505092915050565b803573ffffffffffffffffffffffffffffffffffffffff811681146119bc57600080fd5b919050565b6000602082840312156119d357600080fd5b6118ea82611998565b600080604083850312156119ef57600080fd5b6119f883611998565b9150611a0660208401611998565b90509250929050565b60008060408385031215611a2257600080fd5b611a2b83611998565b946020939093013593505050565b7f4e487b7100000000000000000000000000000000000000000000000000000000600052603260045260246000fd5b600060208284031215611a7a57600080fd5b5051919050565b7f4e487b7100000000000000000000000000000000000000000000000000000000600052601160045260246000fd5b8181038181111561083d5761083d611a81565b8082018082111561083d5761083d611a81565b8051600f81900b81146119bc57600080fd5b600060808284031215611afa57600080fd5b6040516080810181811067ffffffffffffffff82111715611b44577f4e487b7100000000000000000000000000000000000000000000000000000000600052604160045260246000fd5b604052611b5083611ad6565b8152611b5e60208401611ad6565b602082015260408301516040820152606083015160608201528091505092915050565b600082600f0b82600f0b0280600f0b9150808214611ba157611ba1611a81565b5092915050565b600f82810b9082900b037fffffffffffffffffffffffffffffffff8000000000000000000000000000000081126f7fffffffffffffffffffffffffffffff8213171561083d5761083d611a81565b600082611c2c577f4e487b7100000000000000000000000000000000000000000000000000000000600052601260045260246000fd5b500490565b808202811582820484141761083d5761083d611a81565b8181036000831280158383131683831282161715611ba157611ba1611a81565b808202600082127f800000000000000000000000000000000000000000000000000000000000000084141615611ca057611ca0611a81565b818105831482151761083d5761083d611a8156fea2646970667358221220c75cc6939520c63398ce29a1587bee9b539f62d240a7911811e631a3404bb50664736f6c63430008120033",
  "linkReferences": {},
  "deployedLinkReferences": {}
}