{
  "_format": "hh-sol-artifact-1",
  "contractName": "Gauge",
  "sourceName": "contracts/Gauge.sol",
  "abi": [
    {
      "inputs": [
        {
          "internalType": "address",
          "name": "minter_",
          "type": "address"
        }
      ],
      "stateMutability": "nonpayable",
      "type": "constructor"
    },
    {
      "anonymous": false,
      "inputs": [
        {
          "indexed": true,
          "internalType": "address",
          "name": "admin",
          "type": "address"
        }
      ],
      "name": "ApplyOwnership",
      "type": "event"
    },
    {
      "anonymous": false,
      "inputs": [
        {
          "indexed": false,
          "internalType": "uint256",
          "name": "time",
          "type": "uint256"
        },
        {
          "indexed": false,
          "internalType": "uint256",
          "name": "tokens",
          "type": "uint256"
        }
      ],
      "name": "CheckpointToken",
      "type": "event"
    },
    {
      "anonymous": false,
      "inputs": [
        {
          "indexed": true,
          "internalType": "address",
          "name": "admin",
          "type": "address"
        }
      ],
      "name": "CommitOwnership",
      "type": "event"
    },
    {
      "inputs": [],
      "name": "TOKEN_CHECKPOINT_DEADLINE",
      "outputs": [
        {
          "internalType": "uint256",
          "name": "",
          "type": "uint256"
        }
      ],
      "stateMutability": "view",
      "type": "function"
    },
    {
      "inputs": [],
      "name": "VERSION",
      "outputs": [
        {
          "internalType": "string",
          "name": "",
          "type": "string"
        }
      ],
      "stateMutability": "view",
      "type": "function"
    },
    {
      "inputs": [],
      "name": "WEEK",
      "outputs": [
        {
          "internalType": "uint256",
          "name": "",
          "type": "uint256"
        }
      ],
      "stateMutability": "view",
      "type": "function"
    },
    {
      "inputs": [],
      "name": "admin",
      "outputs": [
        {
          "internalType": "address",
          "name": "",
          "type": "address"
        }
      ],
      "stateMutability": "view",
      "type": "function"
    },
    {
      "inputs": [],
      "name": "checkpointToken",
      "outputs": [],
      "stateMutability": "nonpayable",
      "type": "function"
    },
    {
      "inputs": [],
      "name": "checkpointTotalSupply",
      "outputs": [],
      "stateMutability": "nonpayable",
      "type": "function"
    },
    {
      "inputs": [
        {
          "internalType": "address",
          "name": "",
          "type": "address"
        },
        {
          "internalType": "address",
          "name": "",
          "type": "address"
        }
      ],
      "name": "claimData",
      "outputs": [
        {
          "internalType": "uint256",
          "name": "",
          "type": "uint256"
        }
      ],
      "stateMutability": "view",
      "type": "function"
    },
    {
      "inputs": [
        {
          "internalType": "address",
          "name": "addr_",
          "type": "address"
        }
      ],
      "name": "claimableTokens",
      "outputs": [
        {
          "internalType": "uint256",
          "name": "",
          "type": "uint256"
        }
      ],
      "stateMutability": "nonpayable",
      "type": "function"
    },
    {
      "inputs": [],
      "name": "futureEpochTime",
      "outputs": [
        {
          "internalType": "uint256",
          "name": "",
          "type": "uint256"
        }
      ],
      "stateMutability": "view",
      "type": "function"
    },
    {
      "inputs": [],
      "name": "gaugeController",
      "outputs": [
        {
          "internalType": "address",
          "name": "",
          "type": "address"
        }
      ],
      "stateMutability": "view",
      "type": "function"
    },
    {
      "inputs": [],
      "name": "inflationRate",
      "outputs": [
        {
          "internalType": "uint256",
          "name": "",
          "type": "uint256"
        }
      ],
      "stateMutability": "view",
      "type": "function"
    },
    {
      "inputs": [],
      "name": "integrateCheckpoint",
      "outputs": [
        {
          "internalType": "uint256",
          "name": "",
          "type": "uint256"
        }
      ],
      "stateMutability": "view",
      "type": "function"
    },
    {
      "inputs": [
        {
          "internalType": "address",
          "name": "",
          "type": "address"
        }
      ],
      "name": "integrateCheckpointOf",
      "outputs": [
        {
          "internalType": "uint256",
          "name": "",
          "type": "uint256"
        }
      ],
      "stateMutability": "view",
      "type": "function"
    },
    {
      "inputs": [
        {
          "internalType": "address",
          "name": "",
          "type": "address"
        }
      ],
      "name": "integrateFraction",
      "outputs": [
        {
          "internalType": "uint256",
          "name": "",
          "type": "uint256"
        }
      ],
      "stateMutability": "view",
      "type": "function"
    },
    {
      "inputs": [
        {
          "internalType": "uint256",
          "name": "",
          "type": "uint256"
        }
      ],
      "name": "integrateInvSupply",
      "outputs": [
        {
          "internalType": "uint256",
          "name": "",
          "type": "uint256"
        }
      ],
      "stateMutability": "view",
      "type": "function"
    },
    {
      "inputs": [
        {
          "internalType": "address",
          "name": "",
          "type": "address"
        }
      ],
      "name": "integrateInvSupplyOf",
      "outputs": [
        {
          "internalType": "uint256",
          "name": "",
          "type": "uint256"
        }
      ],
      "stateMutability": "view",
      "type": "function"
    },
    {
      "inputs": [],
      "name": "isKilled",
      "outputs": [
        {
          "internalType": "bool",
          "name": "",
          "type": "bool"
        }
      ],
      "stateMutability": "view",
      "type": "function"
    },
    {
      "inputs": [],
      "name": "lastTokenTime",
      "outputs": [
        {
          "internalType": "uint256",
          "name": "",
          "type": "uint256"
        }
      ],
      "stateMutability": "view",
      "type": "function"
    },
    {
      "inputs": [],
      "name": "minter",
      "outputs": [
        {
          "internalType": "address",
          "name": "",
          "type": "address"
        }
      ],
      "stateMutability": "view",
      "type": "function"
    },
    {
      "inputs": [],
      "name": "period",
      "outputs": [
        {
          "internalType": "int128",
          "name": "",
          "type": "int128"
        }
      ],
      "stateMutability": "view",
      "type": "function"
    },
    {
      "inputs": [
        {
          "internalType": "uint256",
          "name": "",
          "type": "uint256"
        }
      ],
      "name": "periodTimestamp",
      "outputs": [
        {
          "internalType": "uint256",
          "name": "",
          "type": "uint256"
        }
      ],
      "stateMutability": "view",
      "type": "function"
    },
    {
      "inputs": [
        {
          "internalType": "bool",
          "name": "isKilled_",
          "type": "bool"
        }
      ],
      "name": "setKilled",
      "outputs": [],
      "stateMutability": "nonpayable",
      "type": "function"
    },
    {
      "inputs": [],
      "name": "startTime",
      "outputs": [
        {
          "internalType": "uint256",
          "name": "",
          "type": "uint256"
        }
      ],
      "stateMutability": "view",
      "type": "function"
    },
    {
      "inputs": [],
      "name": "timeCursor",
      "outputs": [
        {
          "internalType": "uint256",
          "name": "",
          "type": "uint256"
        }
      ],
      "stateMutability": "view",
      "type": "function"
    },
    {
      "inputs": [
        {
          "internalType": "address",
          "name": "",
          "type": "address"
        }
      ],
      "name": "timeCursorOf",
      "outputs": [
        {
          "internalType": "uint256",
          "name": "",
          "type": "uint256"
        }
      ],
      "stateMutability": "view",
      "type": "function"
    },
    {
      "inputs": [],
      "name": "token",
      "outputs": [
        {
          "internalType": "address",
          "name": "",
          "type": "address"
        }
      ],
      "stateMutability": "view",
      "type": "function"
    },
    {
      "inputs": [
        {
          "internalType": "uint256",
          "name": "",
          "type": "uint256"
        }
      ],
      "name": "tokensPerWeek",
      "outputs": [
        {
          "internalType": "uint256",
          "name": "",
          "type": "uint256"
        }
      ],
      "stateMutability": "view",
      "type": "function"
    },
    {
      "inputs": [
        {
          "internalType": "address",
          "name": "addr_",
          "type": "address"
        }
      ],
      "name": "userCheckpoint",
      "outputs": [
        {
          "internalType": "bool",
          "name": "",
          "type": "bool"
        }
      ],
      "stateMutability": "nonpayable",
      "type": "function"
    },
    {
      "inputs": [
        {
          "internalType": "address",
          "name": "",
          "type": "address"
        }
      ],
      "name": "userEpochOf",
      "outputs": [
        {
          "internalType": "uint256",
          "name": "",
          "type": "uint256"
        }
      ],
      "stateMutability": "view",
      "type": "function"
    },
    {
      "inputs": [
        {
          "internalType": "address",
          "name": "user_",
          "type": "address"
        },
        {
          "internalType": "uint256",
          "name": "timestamp_",
          "type": "uint256"
        }
      ],
      "name": "veForAt",
      "outputs": [
        {
          "internalType": "uint256",
          "name": "",
          "type": "uint256"
        }
      ],
      "stateMutability": "view",
      "type": "function"
    },
    {
      "inputs": [
        {
          "internalType": "uint256",
          "name": "",
          "type": "uint256"
        }
      ],
      "name": "veSupply",
      "outputs": [
        {
          "internalType": "uint256",
          "name": "",
          "type": "uint256"
        }
      ],
      "stateMutability": "view",
      "type": "function"
    },
    {
      "inputs": [],
      "name": "version",
      "outputs": [
        {
          "internalType": "string",
          "name": "",
          "type": "string"
        }
      ],
      "stateMutability": "pure",
      "type": "function"
    },
    {
      "inputs": [],
      "name": "votingEscrow",
      "outputs": [
        {
          "internalType": "address",
          "name": "",
          "type": "address"
        }
      ],
      "stateMutability": "view",
      "type": "function"
    },
    {
      "inputs": [
        {
          "internalType": "address",
          "name": "",
          "type": "address"
        }
      ],
      "name": "workingBalances",
      "outputs": [
        {
          "internalType": "uint256",
          "name": "",
          "type": "uint256"
        }
      ],
      "stateMutability": "view",
      "type": "function"
    },
    {
      "inputs": [],
      "name": "workingSupply",
      "outputs": [
        {
          "internalType": "uint256",
          "name": "",
          "type": "uint256"
        }
      ],
      "stateMutability": "view",
      "type": "function"
    }
  ],
  "bytecode": "0x60a06040523480156200001157600080fd5b50604051620021f5380380620021f583398101604081905262000034916200030b565b6001600055600480546001600160a01b0319166001600160a01b038316908117825560408051637e062a3560e11b81529051919263fc0c546a9282820192602092908290030181865afa15801562000090573d6000803e3d6000fd5b505050506040513d601f19601f82011682018060405250810190620000b691906200030b565b600280546001600160a01b0319166001600160a01b03928316179055600480546040805163f77c479160e01b81529051919093169263f77c479192818101926020929091908290030181865afa15801562000115573d6000803e3d6000fd5b505050506040513d601f19601f820116820180604052508101906200013b91906200030b565b600580546001600160a01b0319166001600160a01b0392909216918217905560408051634f2bfe5b60e01b81529051634f2bfe5b916004808201926020929091908290030181865afa15801562000196573d6000803e3d6000fd5b505050506040513d601f19601f82011682018060405250810190620001bc91906200030b565b600380546001600160a01b03199081166001600160a01b03938416179091554266038d7ea4c6800f55600180549091163317905560025460408051631627391760e11b815290519190921691632c4e722e9160048083019260209291908290030181865afa15801562000233573d6000803e3d6000fd5b505050506040513d601f19601f820116820180604052508101906200025991906200033d565b6007556002546040805163277dbafb60e01b815290516001600160a01b039092169163277dbafb9160048082019260209290919082900301816000875af1158015620002a9573d6000803e3d6000fd5b505050506040513d601f19601f82011682018060405250810190620002cf91906200033d565b600681905560009062093a8090620002e990829062000357565b620002f591906200037a565b6080819052600b81905560085550620003a69050565b6000602082840312156200031e57600080fd5b81516001600160a01b03811681146200033657600080fd5b9392505050565b6000602082840312156200035057600080fd5b5051919050565b6000826200037557634e487b7160e01b600052601260045260246000fd5b500490565b8082028115828204841417620003a057634e487b7160e01b600052601160045260246000fd5b92915050565b608051611e2c620003c9600039600081816103b80152610e570152611e2c6000f3fe608060405234801561001057600080fd5b50600436106102415760003560e01c8063939ea66b11610145578063c8562f72116100bd578063f36482411161008c578063f851a44011610071578063f851a440146105d5578063fc0c546a146105f5578063ffa1ad741461061557600080fd5b8063f3648241146105b8578063f4359ce5146105cb57600080fd5b8063c8562f7214610520578063caa0b9ed14610535578063e50912ae1461055b578063ef78d4fd1461059257600080fd5b8063a5420e9811610114578063b1bd6086116100f9578063b1bd6086146104cc578063bee5dc32146104f8578063c7f1ec501461050057600080fd5b8063a5420e98146104af578063b07b709b146104b957600080fd5b8063939ea66b14610451578063958da8de1461045a57806399eecb3b146104865780639e48d35e146104a657600080fd5b806354fd4d50116101d857806384d24226116101a7578063899519be1161018c578063899519be146103f65780638dea29c7146104095780638fe8a1011461041c57600080fd5b806384d24226146103da5780638736659b146103ed57600080fd5b806354fd4d50146103255780637699b4cd14610367578063786479cd1461039357806378e97925146103b357600080fd5b806331f9e35b1161021457806331f9e35b146102ec578063326a9407146102f55780634f2bfe5b146102fd578063505362c41461031d57600080fd5b8063075461721461024657806309599504146102905780630f6592ef146102a557806331e202cc146102d9575b600080fd5b6004546102669073ffffffffffffffffffffffffffffffffffffffff1681565b60405173ffffffffffffffffffffffffffffffffffffffff90911681526020015b60405180910390f35b6102a361029e366004611a33565b610651565b005b6102cb6102b3366004611a55565b66038d7ea4c6800c6020526000908152604090205481565b604051908152602001610287565b6102cb6102e7366004611a55565b6106bf565b6102cb60075481565b6102a36106e8565b6003546102669073ffffffffffffffffffffffffffffffffffffffff1681565b6102cb6106f2565b60408051808201909152600681527f76312e302e30000000000000000000000000000000000000000000000000000060208201525b6040516102879190611a6e565b6102cb610375366004611b03565b6c02863c1f5cdae7bd13e4c680136020526000908152604090205481565b6102cb6103a1366004611b03565b600a6020526000908152604090205481565b6102cb7f000000000000000000000000000000000000000000000000000000000000000081565b6102cb6103e8366004611b03565b61073c565b6102cb60085481565b6102cb610404366004611a55565b61081f565b6102cb610417366004611a55565b610835565b6005546104419074010000000000000000000000000000000000000000900460ff1681565b6040519015158152602001610287565b6102cb600b5481565b6102cb610468366004611b03565b6c02863c1f5cdae7bd13e4c680106020526000908152604090205481565b6005546102669073ffffffffffffffffffffffffffffffffffffffff1681565b6102cb60065481565b6102cb6201518081565b6104416104c7366004611b03565b61085d565b6102cb6104da366004611b03565b6c02863c1f5cdae7bd13e4c680126020526000908152604090205481565b6102a361099b565b6102cb61050e366004611b03565b60096020526000908152604090205481565b6102cb6c02863c1f5cdae7bd13e4c680115481565b6102cb610543366004611b03565b66038d7ea4c6800d6020526000908152604090205481565b6102cb610569366004611b1e565b6c02863c1f5cdae7bd13e4c6800f60209081526000928352604080842090915290825290205481565b66038d7ea4c6800e546105a590600f0b81565b604051600f9190910b8152602001610287565b6102cb6105c6366004611b51565b610a3c565b6102cb62093a8081565b6001546102669073ffffffffffffffffffffffffffffffffffffffff1681565b6002546102669073ffffffffffffffffffffffffffffffffffffffff1681565b61035a6040518060400160405280600681526020017f76312e302e30000000000000000000000000000000000000000000000000000081525081565b60015473ffffffffffffffffffffffffffffffffffffffff16331461067557600080fd5b6005805491151574010000000000000000000000000000000000000000027fffffffffffffffffffffff00ffffffffffffffffffffffffffffffffffffffff909216919091179055565b66038d7ea4c6800f816c01431e0fae6d7217caa000000081106106e157600080fd5b0154905081565b6106f0610beb565b565b66038d7ea4c6800e5460009066038d7ea4c6800f906fffffffffffffffffffffffffffffffff166c01431e0fae6d7217caa0000000811061073557610735611b7b565b0154905090565b600061074782610db6565b600480546040517f8b752bb000000000000000000000000000000000000000000000000000000000815273ffffffffffffffffffffffffffffffffffffffff85811693820193909352306024820152911690638b752bb090604401602060405180830381865afa1580156107bf573d6000803e3d6000fd5b505050506040513d601f19601f820116820180604052508101906107e39190611baa565b73ffffffffffffffffffffffffffffffffffffffff8316600090815266038d7ea4c6800d60205260409020546108199190611bf2565b92915050565b600c8166038d7ea4c6800081106106e157600080fd5b6c01431e0fae6d75a54944c6800f816c01431e0fae6d7217caa000000081106106e157600080fd5b60003373ffffffffffffffffffffffffffffffffffffffff8316148061089a575060045473ffffffffffffffffffffffffffffffffffffffff1633145b610905576040517f08c379a000000000000000000000000000000000000000000000000000000000815260206004820152601160248201527f6465763a20756e617574686f72697a656400000000000000000000000000000060448201526064015b60405180910390fd5b60055474010000000000000000000000000000000000000000900460ff161561098a576040517f08c379a000000000000000000000000000000000000000000000000000000000815260206004820152601260248201527f436f6e7472616374206973206b696c6c6564000000000000000000000000000060448201526064016108fc565b61099382610db6565b506001919050565b60015473ffffffffffffffffffffffffffffffffffffffff163314806109ce5750600b546109cb90610e10611c05565b42115b610a34576040517f08c379a000000000000000000000000000000000000000000000000000000000815260206004820152600c60248201527f556e617574686f72697a6564000000000000000000000000000000000000000060448201526064016108fc565b6106f0611319565b6003546040517f81fc83bb00000000000000000000000000000000000000000000000000000000815273ffffffffffffffffffffffffffffffffffffffff84811660048301526000921690829082906381fc83bb90602401602060405180830381865afa158015610ab1573d6000803e3d6000fd5b505050506040513d601f19601f82011682018060405250810190610ad59190611baa565b90506000610ae5838787856117d6565b6040517f34d901a400000000000000000000000000000000000000000000000000000000815273ffffffffffffffffffffffffffffffffffffffff8881166004830152602482018390529192506000918516906334d901a490604401608060405180830381865afa158015610b5e573d6000803e3d6000fd5b505050506040513d601f19601f82011682018060405250810190610b829190611c2a565b90506000816040015187610b969190611bf2565b8260200151610ba59190611cc3565b8251610bb19190611cea565b9050600081600f0b1215610bcd57600095505050505050610819565b6fffffffffffffffffffffffffffffffff1694506108199350505050565b60035460085473ffffffffffffffffffffffffffffffffffffffff90911690600062093a80610c1a8142611d38565b610c249190611d73565b90508273ffffffffffffffffffffffffffffffffffffffff1663c2c4c5c16040518163ffffffff1660e01b8152600401600060405180830381600087803b158015610c6e57600080fd5b505af1158015610c82573d6000803e3d6000fd5b5050505060005b6014811015610dae57818311610dae576000610ca585856118c2565b6040517f8ad4c4470000000000000000000000000000000000000000000000000000000081526004810182905290915060009073ffffffffffffffffffffffffffffffffffffffff871690638ad4c44790602401608060405180830381865afa158015610d16573d6000803e3d6000fd5b505050506040513d601f19601f82011682018060405250810190610d3a9190611c2a565b905060008160400151861115610d5c576040820151610d599087611d8a565b90505b808260200151610d6c9190611cc3565b8251610d789190611cea565b600087815266038d7ea4c6800c60205260409020600f9190910b9055610da162093a8087611c05565b9550505050600101610c89565b505060085550565b6003546040517f81fc83bb00000000000000000000000000000000000000000000000000000000815273ffffffffffffffffffffffffffffffffffffffff8381166004830152909116906000908190819084906381fc83bb90602401602060405180830381865afa158015610e2f573d6000803e3d6000fd5b505050506040513d601f19601f82011682018060405250810190610e539190611baa565b90507f00000000000000000000000000000000000000000000000000000000000000006000829003610e8757505050505050565b6008544210610e9857610e98610beb565b600b54610ea781610e10611c05565b421115610eb957610eb6611319565b50425b73ffffffffffffffffffffffffffffffffffffffff871660009081526009602052604081205462093a80928390049092029190819003610f0657610eff878985876117d6565b9550610f2f565b73ffffffffffffffffffffffffffffffffffffffff88166000908152600a602052604090205495505b85600003610f3c57600195505b6040517f34d901a400000000000000000000000000000000000000000000000000000000815273ffffffffffffffffffffffffffffffffffffffff898116600483015260248201889052600091908916906334d901a490604401608060405180830381865afa158015610fb3573d6000803e3d6000fd5b505050506040513d601f19601f82011682018060405250810190610fd79190611c2a565b90508160000361101c5762093a8080600162093a808460400151610ffb9190611c05565b6110059190611bf2565b61100f9190611d38565b6110199190611d73565b91505b82821061102e57505050505050505050565b8382101561103a578391505b6040805160808101825260008082526020820181905291810182905260608101829052905b603281101561129c578484101561129c57826040015184101580156110845750868911155b156111a75761109460018a611c05565b985060405180608001604052808460000151600f0b81526020018460200151600f0b81526020018460400151815260200184606001518152509150868911156111095760405180608001604052806000600f0b81526020016000600f0b81526020016000815260200160008152509250611294565b6040517f34d901a400000000000000000000000000000000000000000000000000000000815273ffffffffffffffffffffffffffffffffffffffff8c81166004830152602482018b90528b16906334d901a490604401608060405180830381865afa15801561117c573d6000803e3d6000fd5b505050506040513d601f19601f820116820180604052508101906111a09190611c2a565b9250611294565b60008260400151856111b99190611d8a565b905060008360200151600f0b826111d09190611daa565b84516111df9190600f0b611d8a565b905060008460200151600f0b836111f69190611daa565b85516112059190600f0b611d8a565b121561120f575060005b8015801561121c5750888b115b1561122857505061129c565b600081131561128257600086815266038d7ea4c6800c6020526040902054600c8766038d7ea4c68000811061125f5761125f611b7b565b015461126b9083611d73565b6112759190611d38565b61127f908b611c05565b99505b61128f62093a8087611c05565b955050505b60010161105f565b506112b1866112ac60018b611bf2565b611a1b565b73ffffffffffffffffffffffffffffffffffffffff8b166000908152600a602090815260408083208490556009825280832087905566038d7ea4c6800d90915281208054929a508992909190611308908490611c05565b909155505050505050505050505050565b600b80546007546006544290935560009281838562093a8061133b8184611d38565b6113459190611d73565b9050600086851061148257600260009054906101000a900473ffffffffffffffffffffffffffffffffffffffff1673ffffffffffffffffffffffffffffffffffffffff1663277dbafb6040518163ffffffff1660e01b81526004016020604051808303816000875af11580156113bf573d6000803e3d6000fd5b505050506040513d601f19601f820116820180604052508101906113e39190611baa565b600655600254604080517f2c4e722e000000000000000000000000000000000000000000000000000000008152905173ffffffffffffffffffffffffffffffffffffffff90921691632c4e722e916004808201926020929091908290030181865afa158015611456573d6000803e3d6000fd5b505050506040513d601f19601f8201168201806040525081019061147a9190611baa565b600781905593505b6005546040517f8aca6a2300000000000000000000000000000000000000000000000000000000815230600482015273ffffffffffffffffffffffffffffffffffffffff90911690638aca6a2390602401600060405180830381600087803b1580156114ed57600080fd5b505af1158015611501573d6000803e3d6000fd5b5050505060005b60148110156117925761151e62093a8084611c05565b6005546040517f65c604680000000000000000000000000000000000000000000000000000000081523060048201526024810186905291935060009173ffffffffffffffffffffffffffffffffffffffff909116906365c6046890604401602060405180830381865afa158015611599573d6000803e3d6000fd5b505050506040513d601f19601f820116820180604052508101906115bd9190611baa565b9050824210156116a6574287111580156115d75750868511155b1561163c5760006115e88689611bf2565b905060006115f68942611bf2565b9050670de0b6b3a764000061160b828a611d73565b611615848d611d73565b61161f9190611c05565b6116299085611d73565b6116339190611d38565b9b505050611670565b670de0b6b3a764000061164f8642611bf2565b6116598a84611d73565b6116639190611d73565b61166d9190611d38565b99505b89600c8566038d7ea4c68000811061168a5761168a611b7b565b01600082825461169a9190611c05565b90915550611792915050565b8287111580156116b65750868511155b1561171e5760006116c78689611bf2565b905060006116d58986611bf2565b9050670de0b6b3a76400006116ea828a611d73565b6116f4848d611d73565b6116fe9190611c05565b6117089085611d73565b6117129190611d38565b9b508799505050611752565b670de0b6b3a76400006117318685611bf2565b61173b8a84611d73565b6117459190611d73565b61174f9190611d38565b99505b89600c8566038d7ea4c68000811061176c5761176c611b7b565b01600082825461177c9190611c05565b9091555050509092508291508190600101611508565b5060408051428152602081018a90527fce749457b74e10f393f2c6b1ce4261b78791376db5a3f501477a809f03f500d6910160405180910390a15050505050505050565b60008082815b60808110156118b657818310156118b6576040517f34d901a400000000000000000000000000000000000000000000000000000000815273ffffffffffffffffffffffffffffffffffffffff8881166004830152600284860181010460248301819052916000918b16906334d901a490604401608060405180830381865afa15801561186c573d6000803e3d6000fd5b505050506040513d601f19601f820116820180604052508101906118909190611c2a565b9050878160400151116118a5578194506118ac565b6001820393505b50506001016117dc565b50909695505050505050565b6000806000905060008473ffffffffffffffffffffffffffffffffffffffff1663900cf0cf6040518163ffffffff1660e01b8152600401602060405180830381865afa158015611916573d6000803e3d6000fd5b505050506040513d601f19601f8201168201806040525081019061193a9190611baa565b905060005b6080811015611a115781831015611a11576040517f8ad4c4470000000000000000000000000000000000000000000000000000000081526002838501810104600482018190529060009073ffffffffffffffffffffffffffffffffffffffff891690638ad4c44790602401608060405180830381865afa1580156119c7573d6000803e3d6000fd5b505050506040513d601f19601f820116820180604052508101906119eb9190611c2a565b905086816040015111611a0057819450611a07565b6001820393505b505060010161193f565b5090949350505050565b6000818310611a2a5781611a2c565b825b9392505050565b600060208284031215611a4557600080fd5b81358015158114611a2c57600080fd5b600060208284031215611a6757600080fd5b5035919050565b600060208083528351808285015260005b81811015611a9b57858101830151858201604001528201611a7f565b5060006040828601015260407fffffffffffffffffffffffffffffffffffffffffffffffffffffffffffffffe0601f8301168501019250505092915050565b803573ffffffffffffffffffffffffffffffffffffffff81168114611afe57600080fd5b919050565b600060208284031215611b1557600080fd5b611a2c82611ada565b60008060408385031215611b3157600080fd5b611b3a83611ada565b9150611b4860208401611ada565b90509250929050565b60008060408385031215611b6457600080fd5b611b6d83611ada565b946020939093013593505050565b7f4e487b7100000000000000000000000000000000000000000000000000000000600052603260045260246000fd5b600060208284031215611bbc57600080fd5b5051919050565b7f4e487b7100000000000000000000000000000000000000000000000000000000600052601160045260246000fd5b8181038181111561081957610819611bc3565b8082018082111561081957610819611bc3565b8051600f81900b8114611afe57600080fd5b600060808284031215611c3c57600080fd5b6040516080810181811067ffffffffffffffff82111715611c86577f4e487b7100000000000000000000000000000000000000000000000000000000600052604160045260246000fd5b604052611c9283611c18565b8152611ca060208401611c18565b602082015260408301516040820152606083015160608201528091505092915050565b600082600f0b82600f0b0280600f0b9150808214611ce357611ce3611bc3565b5092915050565b600f82810b9082900b037fffffffffffffffffffffffffffffffff8000000000000000000000000000000081126f7fffffffffffffffffffffffffffffff8213171561081957610819611bc3565b600082611d6e577f4e487b7100000000000000000000000000000000000000000000000000000000600052601260045260246000fd5b500490565b808202811582820484141761081957610819611bc3565b8181036000831280158383131683831282161715611ce357611ce3611bc3565b808202600082127f800000000000000000000000000000000000000000000000000000000000000084141615611de257611de2611bc3565b818105831482151761081957610819611bc356fea2646970667358221220e7a619b525140c6e866811374dbdfbdcdebd22d7e9d94851e9c7678aaf38a6a864736f6c63430008120033",
  "linkReferences": {},
  "deployedLinkReferences": {}
}