{
  "_format": "hh-sol-artifact-1",
  "contractName": "Gauge",
  "sourceName": "contracts/Gauge.sol",
  "abi": [
    {
      "inputs": [
        {
          "internalType": "address",
          "name": "minter_",
          "type": "address"
        }
      ],
      "stateMutability": "nonpayable",
      "type": "constructor"
    },
    {
      "anonymous": false,
      "inputs": [
        {
          "indexed": true,
          "internalType": "address",
          "name": "admin",
          "type": "address"
        }
      ],
      "name": "ApplyOwnership",
      "type": "event"
    },
    {
      "anonymous": false,
      "inputs": [
        {
          "indexed": false,
          "internalType": "uint256",
          "name": "time",
          "type": "uint256"
        },
        {
          "indexed": false,
          "internalType": "uint256",
          "name": "tokens",
          "type": "uint256"
        }
      ],
      "name": "CheckpointToken",
      "type": "event"
    },
    {
      "anonymous": false,
      "inputs": [
        {
          "indexed": true,
          "internalType": "address",
          "name": "admin",
          "type": "address"
        }
      ],
      "name": "CommitOwnership",
      "type": "event"
    },
    {
      "inputs": [],
      "name": "TOKEN_CHECKPOINT_DEADLINE",
      "outputs": [
        {
          "internalType": "uint256",
          "name": "",
          "type": "uint256"
        }
      ],
      "stateMutability": "view",
      "type": "function"
    },
    {
      "inputs": [],
      "name": "VERSION",
      "outputs": [
        {
          "internalType": "string",
          "name": "",
          "type": "string"
        }
      ],
      "stateMutability": "view",
      "type": "function"
    },
    {
      "inputs": [],
      "name": "WEEK",
      "outputs": [
        {
          "internalType": "uint256",
          "name": "",
          "type": "uint256"
        }
      ],
      "stateMutability": "view",
      "type": "function"
    },
    {
      "inputs": [],
      "name": "admin",
      "outputs": [
        {
          "internalType": "address",
          "name": "",
          "type": "address"
        }
      ],
      "stateMutability": "view",
      "type": "function"
    },
    {
      "inputs": [],
      "name": "checkpointToken",
      "outputs": [],
      "stateMutability": "nonpayable",
      "type": "function"
    },
    {
      "inputs": [],
      "name": "checkpointTotalSupply",
      "outputs": [],
      "stateMutability": "nonpayable",
      "type": "function"
    },
    {
      "inputs": [
        {
          "internalType": "address",
          "name": "addr_",
          "type": "address"
        }
      ],
      "name": "claimableTokens",
      "outputs": [
        {
          "internalType": "uint256",
          "name": "",
          "type": "uint256"
        }
      ],
      "stateMutability": "nonpayable",
      "type": "function"
    },
    {
      "inputs": [],
      "name": "futureEpochTime",
      "outputs": [
        {
          "internalType": "uint256",
          "name": "",
          "type": "uint256"
        }
      ],
      "stateMutability": "view",
      "type": "function"
    },
    {
      "inputs": [],
      "name": "gaugeController",
      "outputs": [
        {
          "internalType": "address",
          "name": "",
          "type": "address"
        }
      ],
      "stateMutability": "view",
      "type": "function"
    },
    {
      "inputs": [],
      "name": "inflationRate",
      "outputs": [
        {
          "internalType": "uint256",
          "name": "",
          "type": "uint256"
        }
      ],
      "stateMutability": "view",
      "type": "function"
    },
    {
      "inputs": [],
      "name": "integrateCheckpoint",
      "outputs": [
        {
          "internalType": "uint256",
          "name": "",
          "type": "uint256"
        }
      ],
      "stateMutability": "view",
      "type": "function"
    },
    {
      "inputs": [
        {
          "internalType": "address",
          "name": "",
          "type": "address"
        }
      ],
      "name": "integrateFraction",
      "outputs": [
        {
          "internalType": "uint256",
          "name": "",
          "type": "uint256"
        }
      ],
      "stateMutability": "view",
      "type": "function"
    },
    {
      "inputs": [
        {
          "internalType": "uint128",
          "name": "",
          "type": "uint128"
        }
      ],
      "name": "integrateInvSupply",
      "outputs": [
        {
          "internalType": "uint256",
          "name": "",
          "type": "uint256"
        }
      ],
      "stateMutability": "view",
      "type": "function"
    },
    {
      "inputs": [],
      "name": "isKilled",
      "outputs": [
        {
          "internalType": "bool",
          "name": "",
          "type": "bool"
        }
      ],
      "stateMutability": "view",
      "type": "function"
    },
    {
      "inputs": [],
      "name": "lastTokenTime",
      "outputs": [
        {
          "internalType": "uint256",
          "name": "",
          "type": "uint256"
        }
      ],
      "stateMutability": "view",
      "type": "function"
    },
    {
      "inputs": [],
      "name": "minter",
      "outputs": [
        {
          "internalType": "address",
          "name": "",
          "type": "address"
        }
      ],
      "stateMutability": "view",
      "type": "function"
    },
    {
      "inputs": [],
      "name": "period",
      "outputs": [
        {
          "internalType": "uint128",
          "name": "",
          "type": "uint128"
        }
      ],
      "stateMutability": "view",
      "type": "function"
    },
    {
      "inputs": [
        {
          "internalType": "uint128",
          "name": "",
          "type": "uint128"
        }
      ],
      "name": "periodTimestamp",
      "outputs": [
        {
          "internalType": "uint256",
          "name": "",
          "type": "uint256"
        }
      ],
      "stateMutability": "view",
      "type": "function"
    },
    {
      "inputs": [
        {
          "internalType": "bool",
          "name": "isKilled_",
          "type": "bool"
        }
      ],
      "name": "setKilled",
      "outputs": [],
      "stateMutability": "nonpayable",
      "type": "function"
    },
    {
      "inputs": [],
      "name": "startTime",
      "outputs": [
        {
          "internalType": "uint256",
          "name": "",
          "type": "uint256"
        }
      ],
      "stateMutability": "view",
      "type": "function"
    },
    {
      "inputs": [],
      "name": "timeCursor",
      "outputs": [
        {
          "internalType": "uint256",
          "name": "",
          "type": "uint256"
        }
      ],
      "stateMutability": "view",
      "type": "function"
    },
    {
      "inputs": [
        {
          "internalType": "address",
          "name": "",
          "type": "address"
        }
      ],
      "name": "timeCursorOf",
      "outputs": [
        {
          "internalType": "uint256",
          "name": "",
          "type": "uint256"
        }
      ],
      "stateMutability": "view",
      "type": "function"
    },
    {
      "inputs": [],
      "name": "token",
      "outputs": [
        {
          "internalType": "address",
          "name": "",
          "type": "address"
        }
      ],
      "stateMutability": "view",
      "type": "function"
    },
    {
      "inputs": [
        {
          "internalType": "uint256",
          "name": "",
          "type": "uint256"
        }
      ],
      "name": "tokensPerWeek",
      "outputs": [
        {
          "internalType": "uint256",
          "name": "",
          "type": "uint256"
        }
      ],
      "stateMutability": "view",
      "type": "function"
    },
    {
      "inputs": [
        {
          "internalType": "address",
          "name": "addr_",
          "type": "address"
        }
      ],
      "name": "userCheckpoint",
      "outputs": [
        {
          "internalType": "bool",
          "name": "",
          "type": "bool"
        }
      ],
      "stateMutability": "nonpayable",
      "type": "function"
    },
    {
      "inputs": [
        {
          "internalType": "address",
          "name": "",
          "type": "address"
        }
      ],
      "name": "userEpochOf",
      "outputs": [
        {
          "internalType": "uint256",
          "name": "",
          "type": "uint256"
        }
      ],
      "stateMutability": "view",
      "type": "function"
    },
    {
      "inputs": [
        {
          "internalType": "address",
          "name": "user_",
          "type": "address"
        },
        {
          "internalType": "uint256",
          "name": "timestamp_",
          "type": "uint256"
        }
      ],
      "name": "veForAt",
      "outputs": [
        {
          "internalType": "uint256",
          "name": "",
          "type": "uint256"
        }
      ],
      "stateMutability": "view",
      "type": "function"
    },
    {
      "inputs": [
        {
          "internalType": "uint256",
          "name": "",
          "type": "uint256"
        }
      ],
      "name": "veSupply",
      "outputs": [
        {
          "internalType": "uint256",
          "name": "",
          "type": "uint256"
        }
      ],
      "stateMutability": "view",
      "type": "function"
    },
    {
      "inputs": [],
      "name": "version",
      "outputs": [
        {
          "internalType": "string",
          "name": "",
          "type": "string"
        }
      ],
      "stateMutability": "pure",
      "type": "function"
    },
    {
      "inputs": [],
      "name": "votingEscrow",
      "outputs": [
        {
          "internalType": "address",
          "name": "",
          "type": "address"
        }
      ],
      "stateMutability": "view",
      "type": "function"
    }
  ],
  "bytecode": "0x60a06040523480156200001157600080fd5b50604051620020a1380380620020a1833981016040819052620000349162000333565b6001600055600480546001600160a01b0319166001600160a01b038316908117825560408051637e062a3560e11b81529051919263fc0c546a9282820192602092908290030181865afa15801562000090573d6000803e3d6000fd5b505050506040513d601f19601f82011682018060405250810190620000b6919062000333565b600280546001600160a01b0319166001600160a01b03928316179055600480546040805163f77c479160e01b81529051919093169263f77c479192818101926020929091908290030181865afa15801562000115573d6000803e3d6000fd5b505050506040513d601f19601f820116820180604052508101906200013b919062000333565b600580546001600160a01b0319166001600160a01b0392909216918217905560408051634f2bfe5b60e01b81529051634f2bfe5b916004808201926020929091908290030181865afa15801562000196573d6000803e3d6000fd5b505050506040513d601f19601f82011682018060405250810190620001bc919062000333565b600380546001600160a01b039283166001600160a01b0319918216179091556000805266038d7ea4c6800f6020908152427fd92e3f1f22d715a5cdd8018740ee0752e5535791055b335ad1f6d644a2a8c4cb5560018054909216331790915560025460408051631627391760e11b815290519190931692632c4e722e9260048083019391928290030181865afa1580156200025b573d6000803e3d6000fd5b505050506040513d601f19601f8201168201806040525081019062000281919062000365565b6007556002546040805163277dbafb60e01b815290516001600160a01b039092169163277dbafb9160048082019260209290919082900301816000875af1158015620002d1573d6000803e3d6000fd5b505050506040513d601f19601f82011682018060405250810190620002f7919062000365565b600681905560009062093a8090620003119082906200037f565b6200031d9190620003a2565b6080819052600b81905560085550620003ce9050565b6000602082840312156200034657600080fd5b81516001600160a01b03811681146200035e57600080fd5b9392505050565b6000602082840312156200037857600080fd5b5051919050565b6000826200039d57634e487b7160e01b600052601260045260246000fd5b500490565b8082028115828204841417620003c857634e487b7160e01b600052601160045260246000fd5b92915050565b608051611cb0620003f1600039600081816103650152610cfc0152611cb06000f3fe608060405234801561001057600080fd5b50600436106101da5760003560e01c8063939ea66b11610104578063c7f1ec50116100a2578063f4359ce511610071578063f4359ce514610504578063f851a4401461050e578063fc0c546a1461052e578063ffa1ad741461054e57600080fd5b8063c7f1ec5014610468578063caa0b9ed14610488578063ef78d4fd146104ae578063f3648241146104f157600080fd5b8063a5420e98116100de578063a5420e981461041d578063b07b709b14610427578063bee5dc321461043a578063c428de371461044257600080fd5b8063939ea66b146103eb57806399eecb3b146103f45780639e48d35e1461041457600080fd5b8063505362c41161017c57806384d242261161014b57806384d24226146103875780638736659b1461039a578063899519be146103a35780638fe8a101146103b657600080fd5b8063505362c4146102c957806354fd4d50146102fe578063786479cd1461034057806378e979251461036057600080fd5b80632214718a116101b85780632214718a1461027257806331f9e35b14610298578063326a9407146102a15780634f2bfe5b146102a957600080fd5b806307546172146101df57806309599504146102295780630f6592ef1461023e575b600080fd5b6004546101ff9073ffffffffffffffffffffffffffffffffffffffff1681565b60405173ffffffffffffffffffffffffffffffffffffffff90911681526020015b60405180910390f35b61023c6102373660046118b8565b61058a565b005b61026461024c3660046118da565b66038d7ea4c6800c6020526000908152604090205481565b604051908152602001610220565b6102646102803660046118f3565b66038d7ea4c680106020526000908152604090205481565b61026460075481565b61023c6105f8565b6003546101ff9073ffffffffffffffffffffffffffffffffffffffff1681565b66038d7ea4c6800e546fffffffffffffffffffffffffffffffff16600090815266038d7ea4c6800f6020526040902054610264565b60408051808201909152600681527f76312e302e30000000000000000000000000000000000000000000000000000060208201525b6040516102209190611925565b61026461034e3660046119ba565b600a6020526000908152604090205481565b6102647f000000000000000000000000000000000000000000000000000000000000000081565b6102646103953660046119ba565b610602565b61026460085481565b6102646103b13660046118da565b6106e5565b6005546103db9074010000000000000000000000000000000000000000900460ff1681565b6040519015158152602001610220565b610264600b5481565b6005546101ff9073ffffffffffffffffffffffffffffffffffffffff1681565b61026460065481565b6102646201518081565b6103db6104353660046119ba565b610702565b61023c610840565b6102646104503660046118f3565b66038d7ea4c6800f6020526000908152604090205481565b6102646104763660046119ba565b60096020526000908152604090205481565b6102646104963660046119ba565b66038d7ea4c6800d6020526000908152604090205481565b66038d7ea4c6800e546104d0906fffffffffffffffffffffffffffffffff1681565b6040516fffffffffffffffffffffffffffffffff9091168152602001610220565b6102646104ff3660046119d5565b6108e1565b61026462093a8081565b6001546101ff9073ffffffffffffffffffffffffffffffffffffffff1681565b6002546101ff9073ffffffffffffffffffffffffffffffffffffffff1681565b6103336040518060400160405280600681526020017f76312e302e30000000000000000000000000000000000000000000000000000081525081565b60015473ffffffffffffffffffffffffffffffffffffffff1633146105ae57600080fd5b6005805491151574010000000000000000000000000000000000000000027fffffffffffffffffffffff00ffffffffffffffffffffffffffffffffffffffff909216919091179055565b610600610a90565b565b600061060d82610c5b565b600480546040517f8b752bb000000000000000000000000000000000000000000000000000000000815273ffffffffffffffffffffffffffffffffffffffff85811693820193909352306024820152911690638b752bb090604401602060405180830381865afa158015610685573d6000803e3d6000fd5b505050506040513d601f19601f820116820180604052508101906106a991906119ff565b73ffffffffffffffffffffffffffffffffffffffff8316600090815266038d7ea4c6800d60205260409020546106df9190611a47565b92915050565b600c8166038d7ea4c6800081106106fb57600080fd5b0154905081565b60003373ffffffffffffffffffffffffffffffffffffffff8316148061073f575060045473ffffffffffffffffffffffffffffffffffffffff1633145b6107aa576040517f08c379a000000000000000000000000000000000000000000000000000000000815260206004820152601160248201527f6465763a20756e617574686f72697a656400000000000000000000000000000060448201526064015b60405180910390fd5b60055474010000000000000000000000000000000000000000900460ff161561082f576040517f08c379a000000000000000000000000000000000000000000000000000000000815260206004820152601260248201527f436f6e7472616374206973206b696c6c6564000000000000000000000000000060448201526064016107a1565b61083882610c5b565b506001919050565b60015473ffffffffffffffffffffffffffffffffffffffff163314806108735750600b5461087090610e10611a5a565b42115b6108d9576040517f08c379a000000000000000000000000000000000000000000000000000000000815260206004820152600c60248201527f556e617574686f72697a6564000000000000000000000000000000000000000060448201526064016107a1565b61060061119d565b6003546040517f81fc83bb00000000000000000000000000000000000000000000000000000000815273ffffffffffffffffffffffffffffffffffffffff84811660048301526000921690829082906381fc83bb90602401602060405180830381865afa158015610956573d6000803e3d6000fd5b505050506040513d601f19601f8201168201806040525081019061097a91906119ff565b9050600061098a8387878561165b565b6040517f34d901a400000000000000000000000000000000000000000000000000000000815273ffffffffffffffffffffffffffffffffffffffff8881166004830152602482018390529192506000918516906334d901a490604401608060405180830381865afa158015610a03573d6000803e3d6000fd5b505050506040513d601f19601f82011682018060405250810190610a279190611a7f565b90506000816040015187610a3b9190611a47565b8260200151610a4a9190611b18565b8251610a569190611b3f565b9050600081600f0b1215610a72576000955050505050506106df565b6fffffffffffffffffffffffffffffffff1694506106df9350505050565b60035460085473ffffffffffffffffffffffffffffffffffffffff90911690600062093a80610abf8142611b8d565b610ac99190611bc8565b90508273ffffffffffffffffffffffffffffffffffffffff1663c2c4c5c16040518163ffffffff1660e01b8152600401600060405180830381600087803b158015610b1357600080fd5b505af1158015610b27573d6000803e3d6000fd5b5050505060005b6014811015610c5357818311610c53576000610b4a8585611747565b6040517f8ad4c4470000000000000000000000000000000000000000000000000000000081526004810182905290915060009073ffffffffffffffffffffffffffffffffffffffff871690638ad4c44790602401608060405180830381865afa158015610bbb573d6000803e3d6000fd5b505050506040513d601f19601f82011682018060405250810190610bdf9190611a7f565b905060008160400151861115610c01576040820151610bfe9087611bdf565b90505b808260200151610c119190611b18565b8251610c1d9190611b3f565b600087815266038d7ea4c6800c60205260409020600f9190910b9055610c4662093a8087611a5a565b9550505050600101610b2e565b505060085550565b6003546040517f81fc83bb00000000000000000000000000000000000000000000000000000000815273ffffffffffffffffffffffffffffffffffffffff8381166004830152909116906000908190819084906381fc83bb90602401602060405180830381865afa158015610cd4573d6000803e3d6000fd5b505050506040513d601f19601f82011682018060405250810190610cf891906119ff565b90507f00000000000000000000000000000000000000000000000000000000000000006000829003610d2c57505050505050565b6008544210610d3d57610d3d610a90565b600b54610d4c81610e10611a5a565b421115610d5e57610d5b61119d565b50425b73ffffffffffffffffffffffffffffffffffffffff871660009081526009602052604081205462093a80928390049092029190819003610dab57610da48789858761165b565b9550610dd4565b73ffffffffffffffffffffffffffffffffffffffff88166000908152600a602052604090205495505b85600003610de157600195505b6040517f34d901a400000000000000000000000000000000000000000000000000000000815273ffffffffffffffffffffffffffffffffffffffff898116600483015260248201889052600091908916906334d901a490604401608060405180830381865afa158015610e58573d6000803e3d6000fd5b505050506040513d601f19601f82011682018060405250810190610e7c9190611a7f565b905081600003610ec15762093a8080600162093a808460400151610ea09190611a5a565b610eaa9190611a47565b610eb49190611b8d565b610ebe9190611bc8565b91505b828210610ed357505050505050505050565b83821015610edf578391505b6040805160808101825260008082526020820181905291810182905260608101829052905b603281101561112057848410156111205782604001518410158015610f295750868911155b1561104c57610f3960018a611a5a565b985060405180608001604052808460000151600f0b81526020018460200151600f0b8152602001846040015181526020018460600151815250915086891115610fae5760405180608001604052806000600f0b81526020016000600f0b81526020016000815260200160008152509250611118565b6040517f34d901a400000000000000000000000000000000000000000000000000000000815273ffffffffffffffffffffffffffffffffffffffff8c81166004830152602482018b90528b16906334d901a490604401608060405180830381865afa158015611021573d6000803e3d6000fd5b505050506040513d601f19601f820116820180604052508101906110459190611a7f565b9250611118565b600082604001518561105e9190611bdf565b905060008360200151600f0b826110759190611bff565b84516110849190600f0b611bdf565b90506000811215611093575060005b801580156110a05750888b115b156110ac575050611120565b600081131561110657600086815266038d7ea4c6800c6020526040902054600c8766038d7ea4c6800081106110e3576110e3611c4b565b01546110ef9083611bc8565b6110f99190611b8d565b611103908b611a5a565b99505b61111362093a8087611a5a565b955050505b600101610f04565b506111358661113060018b611a47565b6118a0565b73ffffffffffffffffffffffffffffffffffffffff8b166000908152600a602090815260408083208490556009825280832087905566038d7ea4c6800d90915281208054929a50899290919061118c908490611a5a565b909155505050505050505050505050565b600754600654600b805442909155600092919082908462093a806111c18184611b8d565b6111cb9190611bc8565b9050600082851061130857600260009054906101000a900473ffffffffffffffffffffffffffffffffffffffff1673ffffffffffffffffffffffffffffffffffffffff1663277dbafb6040518163ffffffff1660e01b81526004016020604051808303816000875af1158015611245573d6000803e3d6000fd5b505050506040513d601f19601f8201168201806040525081019061126991906119ff565b600655600254604080517f2c4e722e000000000000000000000000000000000000000000000000000000008152905173ffffffffffffffffffffffffffffffffffffffff90921691632c4e722e916004808201926020929091908290030181865afa1580156112dc573d6000803e3d6000fd5b505050506040513d601f19601f8201168201806040525081019061130091906119ff565b600781905593505b6005546040517f8aca6a2300000000000000000000000000000000000000000000000000000000815230600482015273ffffffffffffffffffffffffffffffffffffffff90911690638aca6a2390602401600060405180830381600087803b15801561137357600080fd5b505af1158015611387573d6000803e3d6000fd5b5050505060005b6014811015611618576113a462093a8084611a5a565b6005546040517f65c604680000000000000000000000000000000000000000000000000000000081523060048201526024810186905291935060009173ffffffffffffffffffffffffffffffffffffffff909116906365c6046890604401602060405180830381865afa15801561141f573d6000803e3d6000fd5b505050506040513d601f19601f8201168201806040525081019061144391906119ff565b90508242101561152c5742871115801561145d5750868511155b156114c257600061146e8689611a47565b9050600061147c8942611a47565b9050670de0b6b3a7640000611491828a611bc8565b61149b848d611bc8565b6114a59190611a5a565b6114af9085611bc8565b6114b99190611b8d565b9a5050506114f6565b670de0b6b3a76400006114d58642611a47565b6114df8a84611bc8565b6114e99190611bc8565b6114f39190611b8d565b98505b88600c8566038d7ea4c68000811061151057611510611c4b565b0160008282546115209190611a5a565b90915550611618915050565b82871115801561153c5750868511155b156115a457600061154d8689611a47565b9050600061155b8986611a47565b9050670de0b6b3a7640000611570828a611bc8565b61157a848d611bc8565b6115849190611a5a565b61158e9085611bc8565b6115989190611b8d565b9a5087995050506115d8565b670de0b6b3a76400006115b78685611a47565b6115c18a84611bc8565b6115cb9190611bc8565b6115d59190611b8d565b98505b88600c8566038d7ea4c6800081106115f2576115f2611c4b565b0160008282546116029190611a5a565b909155505050909250829150819060010161138e565b5060408051428152602081018990527fce749457b74e10f393f2c6b1ce4261b78791376db5a3f501477a809f03f500d6910160405180910390a150505050505050565b60008082815b608081101561173b578183101561173b576040517f34d901a400000000000000000000000000000000000000000000000000000000815273ffffffffffffffffffffffffffffffffffffffff8881166004830152600284860181010460248301819052916000918b16906334d901a490604401608060405180830381865afa1580156116f1573d6000803e3d6000fd5b505050506040513d601f19601f820116820180604052508101906117159190611a7f565b90508781604001511161172a57819450611731565b6001820393505b5050600101611661565b50909695505050505050565b6000806000905060008473ffffffffffffffffffffffffffffffffffffffff1663900cf0cf6040518163ffffffff1660e01b8152600401602060405180830381865afa15801561179b573d6000803e3d6000fd5b505050506040513d601f19601f820116820180604052508101906117bf91906119ff565b905060005b60808110156118965781831015611896576040517f8ad4c4470000000000000000000000000000000000000000000000000000000081526002838501810104600482018190529060009073ffffffffffffffffffffffffffffffffffffffff891690638ad4c44790602401608060405180830381865afa15801561184c573d6000803e3d6000fd5b505050506040513d601f19601f820116820180604052508101906118709190611a7f565b9050868160400151116118855781945061188c565b6001820393505b50506001016117c4565b5090949350505050565b60008183106118af57816118b1565b825b9392505050565b6000602082840312156118ca57600080fd5b813580151581146118b157600080fd5b6000602082840312156118ec57600080fd5b5035919050565b60006020828403121561190557600080fd5b81356fffffffffffffffffffffffffffffffff811681146118b157600080fd5b600060208083528351808285015260005b8181101561195257858101830151858201604001528201611936565b5060006040828601015260407fffffffffffffffffffffffffffffffffffffffffffffffffffffffffffffffe0601f8301168501019250505092915050565b803573ffffffffffffffffffffffffffffffffffffffff811681146119b557600080fd5b919050565b6000602082840312156119cc57600080fd5b6118b182611991565b600080604083850312156119e857600080fd5b6119f183611991565b946020939093013593505050565b600060208284031215611a1157600080fd5b5051919050565b7f4e487b7100000000000000000000000000000000000000000000000000000000600052601160045260246000fd5b818103818111156106df576106df611a18565b808201808211156106df576106df611a18565b8051600f81900b81146119b557600080fd5b600060808284031215611a9157600080fd5b6040516080810181811067ffffffffffffffff82111715611adb577f4e487b7100000000000000000000000000000000000000000000000000000000600052604160045260246000fd5b604052611ae783611a6d565b8152611af560208401611a6d565b602082015260408301516040820152606083015160608201528091505092915050565b600082600f0b82600f0b0280600f0b9150808214611b3857611b38611a18565b5092915050565b600f82810b9082900b037fffffffffffffffffffffffffffffffff8000000000000000000000000000000081126f7fffffffffffffffffffffffffffffff821317156106df576106df611a18565b600082611bc3577f4e487b7100000000000000000000000000000000000000000000000000000000600052601260045260246000fd5b500490565b80820281158282048414176106df576106df611a18565b8181036000831280158383131683831282161715611b3857611b38611a18565b808202600082127f800000000000000000000000000000000000000000000000000000000000000084141615611c3757611c37611a18565b81810583148215176106df576106df611a18565b7f4e487b7100000000000000000000000000000000000000000000000000000000600052603260045260246000fdfea26469706673582212204ba9c7a4083bccfb3b6d83cacc0630d734431c30d839b7e2374f0ca5875075d064736f6c63430008120033",
  "linkReferences": {},
  "deployedLinkReferences": {}
}