{
  "_format": "hh-sol-artifact-1",
  "contractName": "Gauge",
  "sourceName": "contracts/Gauge.sol",
  "abi": [
    {
      "inputs": [
        {
          "internalType": "address",
          "name": "minter_",
          "type": "address"
        }
      ],
      "stateMutability": "nonpayable",
      "type": "constructor"
    },
    {
      "anonymous": false,
      "inputs": [
        {
          "indexed": true,
          "internalType": "address",
          "name": "admin",
          "type": "address"
        }
      ],
      "name": "ApplyOwnership",
      "type": "event"
    },
    {
      "anonymous": false,
      "inputs": [
        {
          "indexed": false,
          "internalType": "uint256",
          "name": "time",
          "type": "uint256"
        },
        {
          "indexed": false,
          "internalType": "uint256",
          "name": "tokens",
          "type": "uint256"
        }
      ],
      "name": "CheckpointToken",
      "type": "event"
    },
    {
      "anonymous": false,
      "inputs": [
        {
          "indexed": true,
          "internalType": "address",
          "name": "admin",
          "type": "address"
        }
      ],
      "name": "CommitOwnership",
      "type": "event"
    },
    {
      "inputs": [],
      "name": "TOKEN_CHECKPOINT_DEADLINE",
      "outputs": [
        {
          "internalType": "uint256",
          "name": "",
          "type": "uint256"
        }
      ],
      "stateMutability": "view",
      "type": "function"
    },
    {
      "inputs": [],
      "name": "VERSION",
      "outputs": [
        {
          "internalType": "string",
          "name": "",
          "type": "string"
        }
      ],
      "stateMutability": "view",
      "type": "function"
    },
    {
      "inputs": [],
      "name": "WEEK",
      "outputs": [
        {
          "internalType": "uint256",
          "name": "",
          "type": "uint256"
        }
      ],
      "stateMutability": "view",
      "type": "function"
    },
    {
      "inputs": [],
      "name": "admin",
      "outputs": [
        {
          "internalType": "address",
          "name": "",
          "type": "address"
        }
      ],
      "stateMutability": "view",
      "type": "function"
    },
    {
      "inputs": [],
      "name": "checkpointToken",
      "outputs": [],
      "stateMutability": "nonpayable",
      "type": "function"
    },
    {
      "inputs": [],
      "name": "checkpointTotalSupply",
      "outputs": [],
      "stateMutability": "nonpayable",
      "type": "function"
    },
    {
      "inputs": [
        {
          "internalType": "address",
          "name": "addr_",
          "type": "address"
        }
      ],
      "name": "claimableTokens",
      "outputs": [
        {
          "internalType": "uint256",
          "name": "",
          "type": "uint256"
        }
      ],
      "stateMutability": "nonpayable",
      "type": "function"
    },
    {
      "inputs": [],
      "name": "futureEpochTime",
      "outputs": [
        {
          "internalType": "uint256",
          "name": "",
          "type": "uint256"
        }
      ],
      "stateMutability": "view",
      "type": "function"
    },
    {
      "inputs": [],
      "name": "gaugeController",
      "outputs": [
        {
          "internalType": "address",
          "name": "",
          "type": "address"
        }
      ],
      "stateMutability": "view",
      "type": "function"
    },
    {
      "inputs": [],
      "name": "inflationRate",
      "outputs": [
        {
          "internalType": "uint256",
          "name": "",
          "type": "uint256"
        }
      ],
      "stateMutability": "view",
      "type": "function"
    },
    {
      "inputs": [],
      "name": "integrateCheckpoint",
      "outputs": [
        {
          "internalType": "uint256",
          "name": "",
          "type": "uint256"
        }
      ],
      "stateMutability": "view",
      "type": "function"
    },
    {
      "inputs": [
        {
          "internalType": "address",
          "name": "",
          "type": "address"
        }
      ],
      "name": "integrateFraction",
      "outputs": [
        {
          "internalType": "uint256",
          "name": "",
          "type": "uint256"
        }
      ],
      "stateMutability": "view",
      "type": "function"
    },
    {
      "inputs": [
        {
          "internalType": "uint128",
          "name": "",
          "type": "uint128"
        }
      ],
      "name": "integrateInvSupply",
      "outputs": [
        {
          "internalType": "uint256",
          "name": "",
          "type": "uint256"
        }
      ],
      "stateMutability": "view",
      "type": "function"
    },
    {
      "inputs": [],
      "name": "isKilled",
      "outputs": [
        {
          "internalType": "bool",
          "name": "",
          "type": "bool"
        }
      ],
      "stateMutability": "view",
      "type": "function"
    },
    {
      "inputs": [],
      "name": "minter",
      "outputs": [
        {
          "internalType": "address",
          "name": "",
          "type": "address"
        }
      ],
      "stateMutability": "view",
      "type": "function"
    },
    {
      "inputs": [],
      "name": "period",
      "outputs": [
        {
          "internalType": "uint128",
          "name": "",
          "type": "uint128"
        }
      ],
      "stateMutability": "view",
      "type": "function"
    },
    {
      "inputs": [
        {
          "internalType": "uint128",
          "name": "",
          "type": "uint128"
        }
      ],
      "name": "periodTimestamp",
      "outputs": [
        {
          "internalType": "uint256",
          "name": "",
          "type": "uint256"
        }
      ],
      "stateMutability": "view",
      "type": "function"
    },
    {
      "inputs": [
        {
          "internalType": "bool",
          "name": "isKilled_",
          "type": "bool"
        }
      ],
      "name": "setKilled",
      "outputs": [],
      "stateMutability": "nonpayable",
      "type": "function"
    },
    {
      "inputs": [],
      "name": "startTime",
      "outputs": [
        {
          "internalType": "uint256",
          "name": "",
          "type": "uint256"
        }
      ],
      "stateMutability": "view",
      "type": "function"
    },
    {
      "inputs": [],
      "name": "timeCursor",
      "outputs": [
        {
          "internalType": "uint256",
          "name": "",
          "type": "uint256"
        }
      ],
      "stateMutability": "view",
      "type": "function"
    },
    {
      "inputs": [
        {
          "internalType": "address",
          "name": "",
          "type": "address"
        }
      ],
      "name": "timeCursorOf",
      "outputs": [
        {
          "internalType": "uint256",
          "name": "",
          "type": "uint256"
        }
      ],
      "stateMutability": "view",
      "type": "function"
    },
    {
      "inputs": [],
      "name": "token",
      "outputs": [
        {
          "internalType": "address",
          "name": "",
          "type": "address"
        }
      ],
      "stateMutability": "view",
      "type": "function"
    },
    {
      "inputs": [],
      "name": "tokenTimeCursor",
      "outputs": [
        {
          "internalType": "uint256",
          "name": "",
          "type": "uint256"
        }
      ],
      "stateMutability": "view",
      "type": "function"
    },
    {
      "inputs": [
        {
          "internalType": "uint256",
          "name": "",
          "type": "uint256"
        }
      ],
      "name": "tokensPerWeek",
      "outputs": [
        {
          "internalType": "uint256",
          "name": "",
          "type": "uint256"
        }
      ],
      "stateMutability": "view",
      "type": "function"
    },
    {
      "inputs": [
        {
          "internalType": "address",
          "name": "addr_",
          "type": "address"
        }
      ],
      "name": "userCheckpoint",
      "outputs": [
        {
          "internalType": "bool",
          "name": "",
          "type": "bool"
        }
      ],
      "stateMutability": "nonpayable",
      "type": "function"
    },
    {
      "inputs": [
        {
          "internalType": "address",
          "name": "",
          "type": "address"
        }
      ],
      "name": "userEpochOf",
      "outputs": [
        {
          "internalType": "uint256",
          "name": "",
          "type": "uint256"
        }
      ],
      "stateMutability": "view",
      "type": "function"
    },
    {
      "inputs": [
        {
          "internalType": "address",
          "name": "user_",
          "type": "address"
        },
        {
          "internalType": "uint256",
          "name": "timestamp_",
          "type": "uint256"
        }
      ],
      "name": "veForAt",
      "outputs": [
        {
          "internalType": "uint256",
          "name": "",
          "type": "uint256"
        }
      ],
      "stateMutability": "view",
      "type": "function"
    },
    {
      "inputs": [
        {
          "internalType": "uint256",
          "name": "",
          "type": "uint256"
        }
      ],
      "name": "veSupply",
      "outputs": [
        {
          "internalType": "uint256",
          "name": "",
          "type": "uint256"
        }
      ],
      "stateMutability": "view",
      "type": "function"
    },
    {
      "inputs": [],
      "name": "version",
      "outputs": [
        {
          "internalType": "string",
          "name": "",
          "type": "string"
        }
      ],
      "stateMutability": "pure",
      "type": "function"
    },
    {
      "inputs": [],
      "name": "votingEscrow",
      "outputs": [
        {
          "internalType": "address",
          "name": "",
          "type": "address"
        }
      ],
      "stateMutability": "view",
      "type": "function"
    }
  ],
  "bytecode": "0x60a06040523480156200001157600080fd5b5060405162001faf38038062001faf833981016040819052620000349162000333565b6001600055600480546001600160a01b0319166001600160a01b038316908117825560408051637e062a3560e11b81529051919263fc0c546a9282820192602092908290030181865afa15801562000090573d6000803e3d6000fd5b505050506040513d601f19601f82011682018060405250810190620000b6919062000333565b600280546001600160a01b0319166001600160a01b03928316179055600480546040805163f77c479160e01b81529051919093169263f77c479192818101926020929091908290030181865afa15801562000115573d6000803e3d6000fd5b505050506040513d601f19601f820116820180604052508101906200013b919062000333565b600580546001600160a01b0319166001600160a01b0392909216918217905560408051634f2bfe5b60e01b81529051634f2bfe5b916004808201926020929091908290030181865afa15801562000196573d6000803e3d6000fd5b505050506040513d601f19601f82011682018060405250810190620001bc919062000333565b600380546001600160a01b039283166001600160a01b0319918216179091556000805266038d7ea4c6800f6020908152427fd92e3f1f22d715a5cdd8018740ee0752e5535791055b335ad1f6d644a2a8c4cb5560018054909216331790915560025460408051631627391760e11b815290519190931692632c4e722e9260048083019391928290030181865afa1580156200025b573d6000803e3d6000fd5b505050506040513d601f19601f8201168201806040525081019062000281919062000365565b6007556002546040805163277dbafb60e01b815290516001600160a01b039092169163277dbafb9160048082019260209290919082900301816000875af1158015620002d1573d6000803e3d6000fd5b505050506040513d601f19601f82011682018060405250810190620002f7919062000365565b600681905560009062093a8090620003119082906200037f565b6200031d9190620003a2565b6080819052600b81905560085550620003ce9050565b6000602082840312156200034657600080fd5b81516001600160a01b03811681146200035e57600080fd5b9392505050565b6000602082840312156200037857600080fd5b5051919050565b6000826200039d57634e487b7160e01b600052601260045260246000fd5b500490565b8082028115828204841417620003c857634e487b7160e01b600052601160045260246000fd5b92915050565b608051611bbe620003f1600039600081816103650152610cc40152611bbe6000f3fe608060405234801561001057600080fd5b50600436106101da5760003560e01c80638fe8a10111610104578063c7f1ec50116100a2578063f4359ce511610071578063f4359ce514610504578063f851a4401461050e578063fc0c546a1461052e578063ffa1ad741461054e57600080fd5b8063c7f1ec5014610468578063caa0b9ed14610488578063ef78d4fd146104ae578063f3648241146104f157600080fd5b8063a5420e98116100de578063a5420e981461041d578063b07b709b14610427578063bee5dc321461043a578063c428de371461044257600080fd5b80638fe8a101146103bf57806399eecb3b146103f45780639e48d35e1461041457600080fd5b8063505362c41161017c57806384abf0661161014b57806384abf0661461038757806384d24226146103905780638736659b146103a3578063899519be146103ac57600080fd5b8063505362c4146102c957806354fd4d50146102fe578063786479cd1461034057806378e979251461036057600080fd5b80632214718a116101b85780632214718a1461027257806331f9e35b14610298578063326a9407146102a15780634f2bfe5b146102a957600080fd5b806307546172146101df57806309599504146102295780630f6592ef1461023e575b600080fd5b6004546101ff9073ffffffffffffffffffffffffffffffffffffffff1681565b60405173ffffffffffffffffffffffffffffffffffffffff90911681526020015b60405180910390f35b61023c6102373660046117c6565b61058a565b005b61026461024c3660046117e8565b66038d7ea4c6800c6020526000908152604090205481565b604051908152602001610220565b610264610280366004611801565b66038d7ea4c680106020526000908152604090205481565b61026460075481565b61023c6105f8565b6003546101ff9073ffffffffffffffffffffffffffffffffffffffff1681565b66038d7ea4c6800e546fffffffffffffffffffffffffffffffff16600090815266038d7ea4c6800f6020526040902054610264565b60408051808201909152600681527f76312e302e30000000000000000000000000000000000000000000000000000060208201525b6040516102209190611833565b61026461034e3660046118c8565b600a6020526000908152604090205481565b6102647f000000000000000000000000000000000000000000000000000000000000000081565b610264600b5481565b61026461039e3660046118c8565b610602565b61026460085481565b6102646103ba3660046117e8565b6106e5565b6005546103e49074010000000000000000000000000000000000000000900460ff1681565b6040519015158152602001610220565b6005546101ff9073ffffffffffffffffffffffffffffffffffffffff1681565b61026460065481565b6102646201518081565b6103e46104353660046118c8565b610702565b61023c6107bb565b610264610450366004611801565b66038d7ea4c6800f6020526000908152604090205481565b6102646104763660046118c8565b60096020526000908152604090205481565b6102646104963660046118c8565b66038d7ea4c6800d6020526000908152604090205481565b66038d7ea4c6800e546104d0906fffffffffffffffffffffffffffffffff1681565b6040516fffffffffffffffffffffffffffffffff9091168152602001610220565b6102646104ff3660046118e3565b61085e565b61026462093a8081565b6001546101ff9073ffffffffffffffffffffffffffffffffffffffff1681565b6002546101ff9073ffffffffffffffffffffffffffffffffffffffff1681565b6103336040518060400160405280600681526020017f76312e302e30000000000000000000000000000000000000000000000000000081525081565b60015473ffffffffffffffffffffffffffffffffffffffff1633146105ae57600080fd5b6005805491151574010000000000000000000000000000000000000000027fffffffffffffffffffffff00ffffffffffffffffffffffffffffffffffffffff909216919091179055565b610600610a0d565b565b600061060d82610bd8565b600480546040517f8b752bb000000000000000000000000000000000000000000000000000000000815273ffffffffffffffffffffffffffffffffffffffff85811693820193909352306024820152911690638b752bb090604401602060405180830381865afa158015610685573d6000803e3d6000fd5b505050506040513d601f19601f820116820180604052508101906106a9919061190d565b73ffffffffffffffffffffffffffffffffffffffff8316600090815266038d7ea4c6800d60205260409020546106df9190611955565b92915050565b600c8166038d7ea4c6800081106106fb57600080fd5b0154905081565b60003373ffffffffffffffffffffffffffffffffffffffff8316148061073f575060045473ffffffffffffffffffffffffffffffffffffffff1633145b6107aa576040517f08c379a000000000000000000000000000000000000000000000000000000000815260206004820152601160248201527f6465763a20756e617574686f72697a656400000000000000000000000000000060448201526064015b60405180910390fd5b6107b382610bd8565b506001919050565b60015473ffffffffffffffffffffffffffffffffffffffff163314806107f0575062015180600b546107ed9190611968565b42115b610856576040517f08c379a000000000000000000000000000000000000000000000000000000000815260206004820152600c60248201527f556e617574686f72697a6564000000000000000000000000000000000000000060448201526064016107a1565b610600611143565b6003546040517f81fc83bb00000000000000000000000000000000000000000000000000000000815273ffffffffffffffffffffffffffffffffffffffff84811660048301526000921690829082906381fc83bb90602401602060405180830381865afa1580156108d3573d6000803e3d6000fd5b505050506040513d601f19601f820116820180604052508101906108f7919061190d565b9050600061090783878785611569565b6040517f34d901a400000000000000000000000000000000000000000000000000000000815273ffffffffffffffffffffffffffffffffffffffff8881166004830152602482018390529192506000918516906334d901a490604401608060405180830381865afa158015610980573d6000803e3d6000fd5b505050506040513d601f19601f820116820180604052508101906109a4919061198d565b905060008160400151876109b89190611955565b82602001516109c79190611a26565b82516109d39190611a4d565b9050600081600f0b12156109ef576000955050505050506106df565b6fffffffffffffffffffffffffffffffff1694506106df9350505050565b60035460085473ffffffffffffffffffffffffffffffffffffffff90911690600062093a80610a3c8142611a9b565b610a469190611ad6565b90508273ffffffffffffffffffffffffffffffffffffffff1663c2c4c5c16040518163ffffffff1660e01b8152600401600060405180830381600087803b158015610a9057600080fd5b505af1158015610aa4573d6000803e3d6000fd5b5050505060005b6014811015610bd057818311610bd0576000610ac78585611655565b6040517f8ad4c4470000000000000000000000000000000000000000000000000000000081526004810182905290915060009073ffffffffffffffffffffffffffffffffffffffff871690638ad4c44790602401608060405180830381865afa158015610b38573d6000803e3d6000fd5b505050506040513d601f19601f82011682018060405250810190610b5c919061198d565b905060008160400151861115610b7e576040820151610b7b9087611aed565b90505b808260200151610b8e9190611a26565b8251610b9a9190611a4d565b600087815266038d7ea4c6800c60205260409020600f9190910b9055610bc362093a8087611968565b9550505050600101610aab565b505060085550565b6008544210610be957610be9610a0d565b600062093a80600854610bfc9190611955565b600b54909150610c0f6201518082611968565b421115610c2357610c1e611143565b50600b545b6003546040517f81fc83bb00000000000000000000000000000000000000000000000000000000815273ffffffffffffffffffffffffffffffffffffffff8581166004830152909116906000908190819084906381fc83bb90602401602060405180830381865afa158015610c9c573d6000803e3d6000fd5b505050506040513d601f19601f82011682018060405250810190610cc0919061190d565b90507f00000000000000000000000000000000000000000000000000000000000000006000829003610cf6575050505050505050565b73ffffffffffffffffffffffffffffffffffffffff881660009081526009602052604081205490819003610d3757610d30868a8486611569565b9450610d60565b73ffffffffffffffffffffffffffffffffffffffff89166000908152600a602052604090205494505b84600003610d6d57600194505b6040517f34d901a400000000000000000000000000000000000000000000000000000000815273ffffffffffffffffffffffffffffffffffffffff8a8116600483015260248201879052600091908816906334d901a490604401608060405180830381865afa158015610de4573d6000803e3d6000fd5b505050506040513d601f19601f82011682018060405250810190610e08919061198d565b905081600003610e4d5762093a8080600162093a808460400151610e2c9190611968565b610e369190611955565b610e409190611a9b565b610e4a9190611ad6565b91505b8882101580610e5c5750878210155b15610e6d5750505050505050505050565b82821015610e79578291505b6040805160808101825260008082526020820181905291810182905260608101829052905b60328110156110c5578a84101580610eb65750898410155b6110c55782604001518410158015610ece5750858811155b15610ff157610ede600189611968565b975060405180608001604052808460000151600f0b81526020018460200151600f0b8152602001846040015181526020018460600151815250915085881115610f535760405180608001604052806000600f0b81526020016000600f0b815260200160008152602001600081525092506110bd565b6040517f34d901a400000000000000000000000000000000000000000000000000000000815273ffffffffffffffffffffffffffffffffffffffff8d81166004830152602482018a90528a16906334d901a490604401608060405180830381865afa158015610fc6573d6000803e3d6000fd5b505050506040513d601f19601f82011682018060405250810190610fea919061198d565b92506110bd565b60008260400151856110039190611aed565b905060008360200151600f0b8261101a9190611b0d565b84516110299190600f0b611aed565b90506000811215611038575060005b801580156110455750878a115b156110515750506110c5565b60008113156110ab57600086815266038d7ea4c6800c6020526040902054600c8766038d7ea4c68000811061108857611088611b59565b01546110949083611ad6565b61109e9190611a9b565b6110a8908a611968565b98505b6110b862093a8087611968565b955050505b600101610e9e565b506110da856110d560018a611955565b6117ae565b73ffffffffffffffffffffffffffffffffffffffff8c166000908152600a602090815260408083208490556009825280832087905566038d7ea4c6800d909152812080549299508892909190611131908490611968565b90915550505050505050505050505050565b600754600654600b54600092919082908462093a806111628184611a9b565b61116c9190611ad6565b905060008062093a8061117f8142611a9b565b6111899190611ad6565b90508386106112c457600260009054906101000a900473ffffffffffffffffffffffffffffffffffffffff1673ffffffffffffffffffffffffffffffffffffffff1663277dbafb6040518163ffffffff1660e01b81526004016020604051808303816000875af1158015611201573d6000803e3d6000fd5b505050506040513d601f19601f82011682018060405250810190611225919061190d565b600655600254604080517f2c4e722e000000000000000000000000000000000000000000000000000000008152905173ffffffffffffffffffffffffffffffffffffffff90921691632c4e722e916004808201926020929091908290030181865afa158015611298573d6000803e3d6000fd5b505050506040513d601f19601f820116820180604052508101906112bc919061190d565b600781905594505b60055474010000000000000000000000000000000000000000900460ff16156112f05760009650600094505b6005546040517f8aca6a2300000000000000000000000000000000000000000000000000000000815230600482015273ffffffffffffffffffffffffffffffffffffffff90911690638aca6a2390602401600060405180830381600087803b15801561135b57600080fd5b505af115801561136f573d6000803e3d6000fd5b5050505060005b601481101561152057818410156115205761139462093a8085611968565b6005546040517f65c604680000000000000000000000000000000000000000000000000000000081523060048201526024810187905291945060009173ffffffffffffffffffffffffffffffffffffffff909116906365c6046890604401602060405180830381865afa15801561140f573d6000803e3d6000fd5b505050506040513d601f19601f82011682018060405250810190611433919061190d565b905085881015801561144457508388105b156114ac576000611455878a611955565b905060006114638a87611955565b9050670de0b6b3a7640000611478828b611ad6565b611482848e611ad6565b61148c9190611968565b6114969085611ad6565b6114a09190611a9b565b9b50889a5050506114e0565b670de0b6b3a76400006114bf8786611955565b6114c98b84611ad6565b6114d39190611ad6565b6114dd9190611a9b565b99505b89600c8666038d7ea4c6800081106114fa576114fa611b59565b01600082825461150a9190611968565b9091555093955085945084935050600101611376565b50600b84905560408051428152602081018a90527fce749457b74e10f393f2c6b1ce4261b78791376db5a3f501477a809f03f500d6910160405180910390a15050505050505050565b60008082815b60808110156116495781831015611649576040517f34d901a400000000000000000000000000000000000000000000000000000000815273ffffffffffffffffffffffffffffffffffffffff8881166004830152600284860181010460248301819052916000918b16906334d901a490604401608060405180830381865afa1580156115ff573d6000803e3d6000fd5b505050506040513d601f19601f82011682018060405250810190611623919061198d565b9050878160400151116116385781945061163f565b6001820393505b505060010161156f565b50909695505050505050565b6000806000905060008473ffffffffffffffffffffffffffffffffffffffff1663900cf0cf6040518163ffffffff1660e01b8152600401602060405180830381865afa1580156116a9573d6000803e3d6000fd5b505050506040513d601f19601f820116820180604052508101906116cd919061190d565b905060005b60808110156117a457818310156117a4576040517f8ad4c4470000000000000000000000000000000000000000000000000000000081526002838501810104600482018190529060009073ffffffffffffffffffffffffffffffffffffffff891690638ad4c44790602401608060405180830381865afa15801561175a573d6000803e3d6000fd5b505050506040513d601f19601f8201168201806040525081019061177e919061198d565b9050868160400151116117935781945061179a565b6001820393505b50506001016116d2565b5090949350505050565b60008183106117bd57816117bf565b825b9392505050565b6000602082840312156117d857600080fd5b813580151581146117bf57600080fd5b6000602082840312156117fa57600080fd5b5035919050565b60006020828403121561181357600080fd5b81356fffffffffffffffffffffffffffffffff811681146117bf57600080fd5b600060208083528351808285015260005b8181101561186057858101830151858201604001528201611844565b5060006040828601015260407fffffffffffffffffffffffffffffffffffffffffffffffffffffffffffffffe0601f8301168501019250505092915050565b803573ffffffffffffffffffffffffffffffffffffffff811681146118c357600080fd5b919050565b6000602082840312156118da57600080fd5b6117bf8261189f565b600080604083850312156118f657600080fd5b6118ff8361189f565b946020939093013593505050565b60006020828403121561191f57600080fd5b5051919050565b7f4e487b7100000000000000000000000000000000000000000000000000000000600052601160045260246000fd5b818103818111156106df576106df611926565b808201808211156106df576106df611926565b8051600f81900b81146118c357600080fd5b60006080828403121561199f57600080fd5b6040516080810181811067ffffffffffffffff821117156119e9577f4e487b7100000000000000000000000000000000000000000000000000000000600052604160045260246000fd5b6040526119f58361197b565b8152611a036020840161197b565b602082015260408301516040820152606083015160608201528091505092915050565b600082600f0b82600f0b0280600f0b9150808214611a4657611a46611926565b5092915050565b600f82810b9082900b037fffffffffffffffffffffffffffffffff8000000000000000000000000000000081126f7fffffffffffffffffffffffffffffff821317156106df576106df611926565b600082611ad1577f4e487b7100000000000000000000000000000000000000000000000000000000600052601260045260246000fd5b500490565b80820281158282048414176106df576106df611926565b8181036000831280158383131683831282161715611a4657611a46611926565b808202600082127f800000000000000000000000000000000000000000000000000000000000000084141615611b4557611b45611926565b81810583148215176106df576106df611926565b7f4e487b7100000000000000000000000000000000000000000000000000000000600052603260045260246000fdfea26469706673582212208b32f3790132100fb852d9e2cc9123245bc4410a157317108526b23922d9282964736f6c63430008120033",
  "linkReferences": {},
  "deployedLinkReferences": {}
}