{
  "_format": "hh-sol-artifact-1",
  "contractName": "BytesLib",
  "sourceName": "contracts/BytesLib.sol",
  "abi": [
    {
      "inputs": [
        {
          "internalType": "bytes",
          "name": "bs",
          "type": "bytes"
        }
      ],
      "name": "toAddress",
      "outputs": [
        {
          "internalType": "address",
          "name": "",
          "type": "address"
        }
      ],
      "stateMutability": "pure",
      "type": "function"
    },
    {
      "inputs": [
        {
          "internalType": "bytes20",
          "name": "b20",
          "type": "bytes20"
        }
      ],
      "name": "toAddress",
      "outputs": [
        {
          "internalType": "address",
          "name": "",
          "type": "address"
        }
      ],
      "stateMutability": "pure",
      "type": "function"
    }
  ],
  "bytecode": "0x61047b610053600b82828239805160001a607314610046577f4e487b7100000000000000000000000000000000000000000000000000000000600052600060045260246000fd5b30600052607381538281f3fe73000000000000000000000000000000000000000030146080604052600436106100405760003560e01c80632d888869146100455780637c997c9914610075575b600080fd5b61005f600480360381019061005a9190610278565b6100a5565b60405161006c9190610302565b60405180910390f35b61008f600480360381019061008a9190610375565b610106565b60405161009c9190610302565b60405180910390f35b600080600090506014835111156100f1576040517f08c379a00000000000000000000000000000000000000000000000000000000081526004016100e890610425565b60405180910390fd5b60008160200184015190508092505050919050565b6000808260601c905060008190508092505050919050565b6000604051905090565b600080fd5b600080fd5b600080fd5b600080fd5b6000601f19601f8301169050919050565b7f4e487b7100000000000000000000000000000000000000000000000000000000600052604160045260246000fd5b6101858261013c565b810181811067ffffffffffffffff821117156101a4576101a361014d565b5b80604052505050565b60006101b761011e565b90506101c3828261017c565b919050565b600067ffffffffffffffff8211156101e3576101e261014d565b5b6101ec8261013c565b9050602081019050919050565b82818337600083830152505050565b600061021b610216846101c8565b6101ad565b90508281526020810184848401111561023757610236610137565b5b6102428482856101f9565b509392505050565b600082601f83011261025f5761025e610132565b5b813561026f848260208601610208565b91505092915050565b60006020828403121561028e5761028d610128565b5b600082013567ffffffffffffffff8111156102ac576102ab61012d565b5b6102b88482850161024a565b91505092915050565b600073ffffffffffffffffffffffffffffffffffffffff82169050919050565b60006102ec826102c1565b9050919050565b6102fc816102e1565b82525050565b600060208201905061031760008301846102f3565b92915050565b60007fffffffffffffffffffffffffffffffffffffffff00000000000000000000000082169050919050565b6103528161031d565b811461035d57600080fd5b50565b60008135905061036f81610349565b92915050565b60006020828403121561038b5761038a610128565b5b600061039984828501610360565b91505092915050565b600082825260208201905092915050565b7f6279746573206d6f7265207468616e2033322062797465732063616e6e6f742060008201527f62652075696e7431363000000000000000000000000000000000000000000000602082015250565b600061040f602a836103a2565b915061041a826103b3565b604082019050919050565b6000602082019050818103600083015261043e81610402565b905091905056fea2646970667358221220f8657c81a82bad5bb894041f51b4341d785880840b77ccaf229e0892867fafbf64736f6c63430008120033",
  "linkReferences": {},
  "deployedLinkReferences": {}
}