{
  "_format": "hh-sol-artifact-1",
  "contractName": "VotingEscrow",
  "sourceName": "contracts/VotingEscrow.sol",
  "abi": [
    {
      "inputs": [
        {
          "internalType": "address",
          "name": "tokenAddr_",
          "type": "address"
        },
        {
          "internalType": "string",
          "name": "name_",
          "type": "string"
        },
        {
          "internalType": "string",
          "name": "symbol_",
          "type": "string"
        },
        {
          "internalType": "string",
          "name": "version_",
          "type": "string"
        }
      ],
      "stateMutability": "nonpayable",
      "type": "constructor"
    },
    {
      "anonymous": false,
      "inputs": [
        {
          "indexed": false,
          "internalType": "address",
          "name": "admin",
          "type": "address"
        }
      ],
      "name": "ApplyOwnership",
      "type": "event"
    },
    {
      "anonymous": false,
      "inputs": [
        {
          "indexed": false,
          "internalType": "address",
          "name": "admin",
          "type": "address"
        }
      ],
      "name": "CommitOwnership",
      "type": "event"
    },
    {
      "anonymous": false,
      "inputs": [
        {
          "indexed": true,
          "internalType": "address",
          "name": "provider",
          "type": "address"
        },
        {
          "indexed": false,
          "internalType": "uint256",
          "name": "value",
          "type": "uint256"
        },
        {
          "indexed": true,
          "internalType": "uint256",
          "name": "locktime",
          "type": "uint256"
        },
        {
          "indexed": false,
          "internalType": "uint128",
          "name": "_type",
          "type": "uint128"
        },
        {
          "indexed": false,
          "internalType": "uint256",
          "name": "ts",
          "type": "uint256"
        }
      ],
      "name": "Deposit",
      "type": "event"
    },
    {
      "anonymous": false,
      "inputs": [
        {
          "indexed": false,
          "internalType": "uint256",
          "name": "prevSupply",
          "type": "uint256"
        },
        {
          "indexed": false,
          "internalType": "uint256",
          "name": "supply",
          "type": "uint256"
        }
      ],
      "name": "Supply",
      "type": "event"
    },
    {
      "anonymous": false,
      "inputs": [
        {
          "indexed": true,
          "internalType": "address",
          "name": "provider",
          "type": "address"
        },
        {
          "indexed": false,
          "internalType": "uint256",
          "name": "value",
          "type": "uint256"
        },
        {
          "indexed": false,
          "internalType": "uint256",
          "name": "ts",
          "type": "uint256"
        }
      ],
      "name": "Withdraw",
      "type": "event"
    },
    {
      "inputs": [],
      "name": "MAXTIME",
      "outputs": [
        {
          "internalType": "uint256",
          "name": "",
          "type": "uint256"
        }
      ],
      "stateMutability": "view",
      "type": "function"
    },
    {
      "inputs": [],
      "name": "MULTIPLIER",
      "outputs": [
        {
          "internalType": "uint256",
          "name": "",
          "type": "uint256"
        }
      ],
      "stateMutability": "view",
      "type": "function"
    },
    {
      "inputs": [],
      "name": "WEEK",
      "outputs": [
        {
          "internalType": "uint256",
          "name": "",
          "type": "uint256"
        }
      ],
      "stateMutability": "view",
      "type": "function"
    },
    {
      "inputs": [],
      "name": "admin",
      "outputs": [
        {
          "internalType": "address",
          "name": "",
          "type": "address"
        }
      ],
      "stateMutability": "view",
      "type": "function"
    },
    {
      "inputs": [],
      "name": "applyTransferOwnership",
      "outputs": [],
      "stateMutability": "nonpayable",
      "type": "function"
    },
    {
      "inputs": [
        {
          "internalType": "address",
          "name": "addr_",
          "type": "address"
        },
        {
          "internalType": "uint256",
          "name": "t_",
          "type": "uint256"
        }
      ],
      "name": "balanceOf",
      "outputs": [
        {
          "internalType": "uint256",
          "name": "",
          "type": "uint256"
        }
      ],
      "stateMutability": "view",
      "type": "function"
    },
    {
      "inputs": [
        {
          "internalType": "address",
          "name": "addr_",
          "type": "address"
        }
      ],
      "name": "balanceOf",
      "outputs": [
        {
          "internalType": "uint256",
          "name": "",
          "type": "uint256"
        }
      ],
      "stateMutability": "view",
      "type": "function"
    },
    {
      "inputs": [
        {
          "internalType": "address",
          "name": "addr_",
          "type": "address"
        },
        {
          "internalType": "uint256",
          "name": "block_",
          "type": "uint256"
        }
      ],
      "name": "balanceOfAt",
      "outputs": [
        {
          "internalType": "uint256",
          "name": "",
          "type": "uint256"
        }
      ],
      "stateMutability": "view",
      "type": "function"
    },
    {
      "inputs": [
        {
          "internalType": "address",
          "name": "newController",
          "type": "address"
        }
      ],
      "name": "changeController",
      "outputs": [],
      "stateMutability": "nonpayable",
      "type": "function"
    },
    {
      "inputs": [],
      "name": "checkpoint",
      "outputs": [],
      "stateMutability": "nonpayable",
      "type": "function"
    },
    {
      "inputs": [
        {
          "internalType": "address",
          "name": "addr_",
          "type": "address"
        }
      ],
      "name": "commitTransferOwnership",
      "outputs": [],
      "stateMutability": "nonpayable",
      "type": "function"
    },
    {
      "inputs": [],
      "name": "controller",
      "outputs": [
        {
          "internalType": "address",
          "name": "",
          "type": "address"
        }
      ],
      "stateMutability": "view",
      "type": "function"
    },
    {
      "inputs": [
        {
          "internalType": "uint256",
          "name": "value_",
          "type": "uint256"
        },
        {
          "internalType": "uint256",
          "name": "unlockTime_",
          "type": "uint256"
        }
      ],
      "name": "createLock",
      "outputs": [],
      "stateMutability": "nonpayable",
      "type": "function"
    },
    {
      "inputs": [],
      "name": "decimals",
      "outputs": [
        {
          "internalType": "uint8",
          "name": "",
          "type": "uint8"
        }
      ],
      "stateMutability": "view",
      "type": "function"
    },
    {
      "inputs": [
        {
          "internalType": "address",
          "name": "addr_",
          "type": "address"
        },
        {
          "internalType": "uint256",
          "name": "value_",
          "type": "uint256"
        }
      ],
      "name": "depositFor",
      "outputs": [],
      "stateMutability": "nonpayable",
      "type": "function"
    },
    {
      "inputs": [],
      "name": "epoch",
      "outputs": [
        {
          "internalType": "uint256",
          "name": "",
          "type": "uint256"
        }
      ],
      "stateMutability": "view",
      "type": "function"
    },
    {
      "inputs": [],
      "name": "futureAdmin",
      "outputs": [
        {
          "internalType": "address",
          "name": "",
          "type": "address"
        }
      ],
      "stateMutability": "view",
      "type": "function"
    },
    {
      "inputs": [
        {
          "internalType": "address",
          "name": "addr_",
          "type": "address"
        }
      ],
      "name": "getLastUserSlope",
      "outputs": [
        {
          "internalType": "int128",
          "name": "",
          "type": "int128"
        }
      ],
      "stateMutability": "view",
      "type": "function"
    },
    {
      "inputs": [
        {
          "internalType": "uint256",
          "name": "value_",
          "type": "uint256"
        }
      ],
      "name": "increaseAmount",
      "outputs": [],
      "stateMutability": "nonpayable",
      "type": "function"
    },
    {
      "inputs": [
        {
          "internalType": "uint256",
          "name": "unlockTime_",
          "type": "uint256"
        }
      ],
      "name": "increaseUnlockTime",
      "outputs": [],
      "stateMutability": "nonpayable",
      "type": "function"
    },
    {
      "inputs": [
        {
          "internalType": "address",
          "name": "",
          "type": "address"
        }
      ],
      "name": "locked",
      "outputs": [
        {
          "internalType": "int128",
          "name": "amount",
          "type": "int128"
        },
        {
          "internalType": "uint256",
          "name": "end",
          "type": "uint256"
        }
      ],
      "stateMutability": "view",
      "type": "function"
    },
    {
      "inputs": [
        {
          "internalType": "address",
          "name": "addr_",
          "type": "address"
        }
      ],
      "name": "lockedEnd",
      "outputs": [
        {
          "internalType": "uint256",
          "name": "",
          "type": "uint256"
        }
      ],
      "stateMutability": "view",
      "type": "function"
    },
    {
      "inputs": [],
      "name": "name",
      "outputs": [
        {
          "internalType": "string",
          "name": "",
          "type": "string"
        }
      ],
      "stateMutability": "view",
      "type": "function"
    },
    {
      "inputs": [
        {
          "internalType": "uint256",
          "name": "",
          "type": "uint256"
        }
      ],
      "name": "pointHistory",
      "outputs": [
        {
          "internalType": "int128",
          "name": "bias",
          "type": "int128"
        },
        {
          "internalType": "int128",
          "name": "slope",
          "type": "int128"
        },
        {
          "internalType": "uint256",
          "name": "ts",
          "type": "uint256"
        },
        {
          "internalType": "uint256",
          "name": "blk",
          "type": "uint256"
        }
      ],
      "stateMutability": "view",
      "type": "function"
    },
    {
      "inputs": [
        {
          "internalType": "uint256",
          "name": "",
          "type": "uint256"
        }
      ],
      "name": "slopeChanges",
      "outputs": [
        {
          "internalType": "int128",
          "name": "",
          "type": "int128"
        }
      ],
      "stateMutability": "view",
      "type": "function"
    },
    {
      "inputs": [],
      "name": "supply",
      "outputs": [
        {
          "internalType": "uint256",
          "name": "",
          "type": "uint256"
        }
      ],
      "stateMutability": "view",
      "type": "function"
    },
    {
      "inputs": [],
      "name": "symbol",
      "outputs": [
        {
          "internalType": "string",
          "name": "",
          "type": "string"
        }
      ],
      "stateMutability": "view",
      "type": "function"
    },
    {
      "inputs": [],
      "name": "token",
      "outputs": [
        {
          "internalType": "address",
          "name": "",
          "type": "address"
        }
      ],
      "stateMutability": "view",
      "type": "function"
    },
    {
      "inputs": [],
      "name": "totalSupply",
      "outputs": [
        {
          "internalType": "uint256",
          "name": "",
          "type": "uint256"
        }
      ],
      "stateMutability": "view",
      "type": "function"
    },
    {
      "inputs": [
        {
          "internalType": "uint256",
          "name": "t_",
          "type": "uint256"
        }
      ],
      "name": "totalSupply",
      "outputs": [
        {
          "internalType": "uint256",
          "name": "",
          "type": "uint256"
        }
      ],
      "stateMutability": "view",
      "type": "function"
    },
    {
      "inputs": [
        {
          "internalType": "uint256",
          "name": "block_",
          "type": "uint256"
        }
      ],
      "name": "totalSupplyAt",
      "outputs": [
        {
          "internalType": "uint256",
          "name": "",
          "type": "uint256"
        }
      ],
      "stateMutability": "view",
      "type": "function"
    },
    {
      "inputs": [],
      "name": "transfersEnabled",
      "outputs": [
        {
          "internalType": "bool",
          "name": "",
          "type": "bool"
        }
      ],
      "stateMutability": "view",
      "type": "function"
    },
    {
      "inputs": [
        {
          "internalType": "address",
          "name": "",
          "type": "address"
        }
      ],
      "name": "userPointEpoch",
      "outputs": [
        {
          "internalType": "uint256",
          "name": "",
          "type": "uint256"
        }
      ],
      "stateMutability": "view",
      "type": "function"
    },
    {
      "inputs": [
        {
          "internalType": "address",
          "name": "",
          "type": "address"
        },
        {
          "internalType": "uint256",
          "name": "",
          "type": "uint256"
        }
      ],
      "name": "userPointHistory",
      "outputs": [
        {
          "internalType": "int128",
          "name": "bias",
          "type": "int128"
        },
        {
          "internalType": "int128",
          "name": "slope",
          "type": "int128"
        },
        {
          "internalType": "uint256",
          "name": "ts",
          "type": "uint256"
        },
        {
          "internalType": "uint256",
          "name": "blk",
          "type": "uint256"
        }
      ],
      "stateMutability": "view",
      "type": "function"
    },
    {
      "inputs": [
        {
          "internalType": "address",
          "name": "addr_",
          "type": "address"
        },
        {
          "internalType": "uint256",
          "name": "idx_",
          "type": "uint256"
        }
      ],
      "name": "userPointHistoryTs",
      "outputs": [
        {
          "internalType": "uint256",
          "name": "",
          "type": "uint256"
        }
      ],
      "stateMutability": "view",
      "type": "function"
    },
    {
      "inputs": [],
      "name": "version",
      "outputs": [
        {
          "internalType": "string",
          "name": "",
          "type": "string"
        }
      ],
      "stateMutability": "view",
      "type": "function"
    },
    {
      "inputs": [],
      "name": "withdraw",
      "outputs": [],
      "stateMutability": "nonpayable",
      "type": "function"
    }
  ],
  "bytecode": "0x60806040523480156200001157600080fd5b506040516200311e3803806200311e83398101604081905262000034916200025b565b60016000818155600d8054610100600160a81b0319163361010081029190911790915582546001600160a01b0319166001600160a01b03881690811790935590805260056020908152437f05b8ccbb9d4d8fb16ea74ce3c29a41f1b461fbdaff4714a0d9a8eb05499746be55427f05b8ccbb9d4d8fb16ea74ce3c29a41f1b461fbdaff4714a0d9a8eb05499746bd5560098054600160a01b6001600160a81b031990911660ff60a01b1990941693909317929092179091556040805163313ce56760e01b8152905163313ce567926004838101939192918290030181865afa15801562000125573d6000803e3d6000fd5b505050506040513d601f19601f820116820180604052508101906200014b91906200030d565b600d805460ff191660ff92909216919091179055600a6200016d8482620003c8565b50600b6200017c8382620003c8565b50600c6200018b8282620003c8565b505050505062000494565b634e487b7160e01b600052604160045260246000fd5b600082601f830112620001be57600080fd5b81516001600160401b0380821115620001db57620001db62000196565b604051601f8301601f19908116603f0116810190828211818310171562000206576200020662000196565b816040528381526020925086838588010111156200022357600080fd5b600091505b8382101562000247578582018301518183018401529082019062000228565b600093810190920192909252949350505050565b600080600080608085870312156200027257600080fd5b84516001600160a01b03811681146200028a57600080fd5b60208601519094506001600160401b0380821115620002a857600080fd5b620002b688838901620001ac565b94506040870151915080821115620002cd57600080fd5b620002db88838901620001ac565b93506060870151915080821115620002f257600080fd5b506200030187828801620001ac565b91505092959194509250565b6000602082840312156200032057600080fd5b815160ff811681146200033257600080fd5b9392505050565b600181811c908216806200034e57607f821691505b6020821081036200036f57634e487b7160e01b600052602260045260246000fd5b50919050565b601f821115620003c357600081815260208120601f850160051c810160208610156200039e5750805b601f850160051c820191505b81811015620003bf57828155600101620003aa565b5050505b505050565b81516001600160401b03811115620003e457620003e462000196565b620003fc81620003f5845462000339565b8462000375565b602080601f8311600181146200043457600084156200041b5750858301515b600019600386901b1c1916600185901b178555620003bf565b600085815260208120601f198616915b82811015620004655788860151825594840194600190910190840162000444565b5085821015620004845787850151600019600388901b60f8161c191681555b5050505050600190811b01905550565b612c7a80620004a46000396000f3fe608060405234801561001057600080fd5b50600436106102765760003560e01c80638ad4c44711610160578063df0ab9d3116100d8578063f4359ce51161008c578063f77c479111610071578063f77c4791146106bb578063f851a440146106db578063fc0c546a1461070057600080fd5b8063f4359ce51461068e578063f52a36f71461069857600080fd5b8063eac6a667116100bd578063eac6a667146105ca578063ee00ef3a14610610578063f3a6d6081461061b57600080fd5b8063df0ab9d3146105af578063e1cebf0b146105b757600080fd5b8063b52c05fe1161012f578063bef97c8711610114578063bef97c871461052a578063c2c4c5c11461055f578063cbf9fe5f1461056757600080fd5b8063b52c05fe14610504578063bd85b0391461051757600080fd5b80638ad4c44714610495578063900cf0cf146104e057806395d89b41146104e9578063981b24d0146104f157600080fd5b80633ccfd60b116101f35780634ee2cd7e116101c257806370a08231116101a757806370a082311461044f5780637c616fe61461046257806381fc83bb1461047557600080fd5b80634ee2cd7e1461043457806354fd4d501461044757600080fd5b80633ccfd60b1461039b5780633cebb823146103a35780634cb654af146103b65780634deafcae146103fb57600080fd5b806315456eba1161024a5780632f4f21e21161022f5780632f4f21e2146102eb578063313ce567146102fe57806334d901a41461031d57600080fd5b806315456eba146102ce57806318160ddd146102e357600080fd5b8062fdd58e1461027b578063047fc9aa146102a1578063059f8b16146102aa57806306fdde03146102b9575b600080fd5b61028e610289366004612907565b610720565b6040519081526020015b60405180910390f35b61028e60025481565b61028e670de0b6b3a764000081565b6102c1610824565b6040516102989190612931565b6102e16102dc36600461299d565b6108b2565b005b61028e610a22565b6102e16102f9366004612907565b610a8e565b600d5461030b9060ff1681565b60405160ff9091168152602001610298565b61037361032b366004612907565b6006602090815260009283526040808420909152908252902080546001820154600290920154600f82810b93700100000000000000000000000000000000909304900b919084565b60408051600f95860b81529390940b6020840152928201526060810191909152608001610298565b6102e1610c52565b6102e16103b13660046129b6565b610f09565b600e546103d69073ffffffffffffffffffffffffffffffffffffffff1681565b60405173ffffffffffffffffffffffffffffffffffffffff9091168152602001610298565b61028e6104093660046129b6565b73ffffffffffffffffffffffffffffffffffffffff1660009081526003602052604090206001015490565b61028e610442366004612907565b610fdd565b6102c161130b565b61028e61045d3660046129b6565b611318565b6102e161047036600461299d565b611417565b61028e6104833660046129b6565b60076020526000908152604090205481565b6103736104a336600461299d565b600560205260009081526040902080546001820154600290920154600f82810b93700100000000000000000000000000000000909304900b919084565b61028e60045481565b6102c16115c4565b61028e6104ff36600461299d565b6115d1565b6102e16105123660046129d8565b6117e7565b61028e61052536600461299d565b6119c1565b60095461054f9074010000000000000000000000000000000000000000900460ff1681565b6040519015158152602001610298565b6102e1611a2e565b6105956105753660046129b6565b60036020526000908152604090208054600190910154600f9190910b9082565b60408051600f9390930b8352602083019190915201610298565b6102e1611a62565b6102e16105c53660046129b6565b611bb5565b61028e6105d8366004612907565b73ffffffffffffffffffffffffffffffffffffffff919091166000908152600660209081526040808320938352929052206001015490565b61028e630784ce0081565b61067b6106293660046129b6565b73ffffffffffffffffffffffffffffffffffffffff16600090815260076020908152604080832054600683528184209084529091529020547001000000000000000000000000000000009004600f0b90565b604051600f9190910b8152602001610298565b61028e62093a8081565b61067b6106a636600461299d565b600860205260009081526040902054600f0b81565b6009546103d69073ffffffffffffffffffffffffffffffffffffffff1681565b600d546103d690610100900473ffffffffffffffffffffffffffffffffffffffff1681565b6001546103d69073ffffffffffffffffffffffffffffffffffffffff1681565b73ffffffffffffffffffffffffffffffffffffffff821660009081526007602052604081205480820361075757600091505061081e565b73ffffffffffffffffffffffffffffffffffffffff8416600090815260066020908152604080832084845282529182902082516080810184528154600f81810b8352700100000000000000000000000000000000909104900b928101929092526001810154928201839052600201546060820152906107d69085612a29565b81602001516107e59190612a49565b815182906107f4908390612a69565b600f90810b90915282516000910b1215905061080f57600081525b51600f0b915061081e9050565b505b92915050565b600a805461083190612ab7565b80601f016020809104026020016040519081016040528092919081815260200182805461085d90612ab7565b80156108aa5780601f1061087f576101008083540402835291602001916108aa565b820191906000526020600020905b81548152906001019060200180831161088d57829003601f168201915b505050505081565b6108ba611c94565b3360009081526003602090815260409182902082518084019093528054600f0b83526001015490820152816109365760405162461bcd60e51b815260206004820152601360248201527f4e656564206e6f6e2d7a65726f2076616c75650000000000000000000000000060448201526064015b60405180910390fd5b60008160000151600f0b1361098d5760405162461bcd60e51b815260206004820152601660248201527f4e6f206578697374696e67206c6f636b20666f756e6400000000000000000000604482015260640161092d565b42816020015111610a055760405162461bcd60e51b8152602060048201526024808201527f43616e6e6f742061646420746f2065787069726564206c6f636b2e205769746860448201527f6472617700000000000000000000000000000000000000000000000000000000606482015260840161092d565b610a1433836000846002611ced565b50610a1f6001600055565b50565b600454600081815260056020908152604080832081516080810183528154600f81810b8352700100000000000000000000000000000000909104900b93810193909352600181015491830191909152600201546060820152909190610a878142611f86565b9250505090565b610a96611c94565b73ffffffffffffffffffffffffffffffffffffffff821660009081526003602090815260409182902082518084019093528054600f0b8352600101549082015281610b235760405162461bcd60e51b815260206004820152601360248201527f4e656564206e6f6e2d7a65726f2076616c756500000000000000000000000000604482015260640161092d565b60008160000151600f0b13610b7a5760405162461bcd60e51b815260206004820152601660248201527f4e6f206578697374696e67206c6f636b20666f756e6400000000000000000000604482015260640161092d565b42816020015111610bf25760405162461bcd60e51b8152602060048201526024808201527f43616e6e6f742061646420746f2065787069726564206c6f636b2e205769746860448201527f6472617700000000000000000000000000000000000000000000000000000000606482015260840161092d565b73ffffffffffffffffffffffffffffffffffffffff8316600090815260036020908152604080832081518083019092528054600f0b82526001015491810191909152610c4391859185919081611ced565b50610c4e6001600055565b5050565b610c5a611c94565b604080518082018252336000818152600360208181529482208054600f0b85529290915283526001015491810182905290421015610cda5760405162461bcd60e51b815260206004820152601660248201527f546865206c6f636b206469646e27742065787069726500000000000000000000604482015260640161092d565b8051604080518082018252336000818152600360208181528583208054600f81810b8852868652848452600183018054858a0152848c01878152878d528a51808c01909b528c51830b8b52518a8601908152979096529390925295516fffffffffffffffffffffffffffffffff167fffffffffffffffffffffffffffffffff0000000000000000000000000000000090911617909455905190556002549290910b91610d868382612b04565b600255610d94338386612074565b6001546040517fa9059cbb0000000000000000000000000000000000000000000000000000000081523360048201526024810185905273ffffffffffffffffffffffffffffffffffffffff9091169063a9059cbb906044016020604051808303816000875af1158015610e0b573d6000803e3d6000fd5b505050506040513d601f19601f82011682018060405250810190610e2f9190612b17565b610e7b5760405162461bcd60e51b815260206004820152600f60248201527f5472616e73666572206661696c65640000000000000000000000000000000000604482015260640161092d565b6040805184815242602082015233917ff279e6a1f5e320cca91135676d9cb6e44ca8a08c0b88342bcdb1144f6511b568910160405180910390a27f5e2aa66efd74cce82b21852e317e5490d9ecc9e6bb953ae24d90851258cc2f5c81610ee18582612b04565b6040805192835260208301919091520160405180910390a150505050610f076001600055565b565b60095473ffffffffffffffffffffffffffffffffffffffff163314610f965760405162461bcd60e51b815260206004820152602a60248201527f4f6e6c792074686520636f6e74726f6c6c65722063616e2063616c6c2074686960448201527f732066756e6374696f6e00000000000000000000000000000000000000000000606482015260840161092d565b600980547fffffffffffffffffffffffff00000000000000000000000000000000000000001673ffffffffffffffffffffffffffffffffffffffff92909216919091179055565b60004382111561102f5760405162461bcd60e51b815260206004820152601b60248201527f43616e6e6f74206c6f6f6b2075702066757475726520626c6f636b0000000000604482015260640161092d565b73ffffffffffffffffffffffffffffffffffffffff8316600090815260076020526040812054815b60808110156110c457818310156110c45773ffffffffffffffffffffffffffffffffffffffff861660009081526006602090815260408083206002868801600101819004808652919093529220015486106110b4578093506110bb565b6001810392505b50600101611057565b5073ffffffffffffffffffffffffffffffffffffffff85166000908152600660209081526040808320858452825280832081516080810183528154600f81810b8352700100000000000000000000000000000000909104900b9381019390935260018101549183019190915260020154606082015260045490916111488783612882565b600081815260056020908152604080832081516080810183528154600f81810b8352700100000000000000000000000000000000909104900b9381019390935260018101549183019190915260020154606082015291925080848410156112415760006005816111b9876001612b68565b8152602080820192909252604090810160002081516080810183528154600f81810b8352700100000000000000000000000000000000909104900b938101939093526001810154918301919091526002015460608083018290528601519192506112239190612b04565b9250836040015181604001516112399190612b04565b915050611265565b60608301516112509043612b04565b91508260400151426112629190612b04565b90505b604083015182156112a2578284606001518c6112819190612b04565b61128b9084612b7b565b6112959190612b92565b61129f9082612b68565b90505b60408701516112b19082612a29565b87602001516112c09190612a49565b875188906112cf908390612a69565b600f90810b90915288516000910b1290506112f95750509351600f0b965061081e95505050505050565b6000995050505050505050505061081e565b600c805461083190612ab7565b73ffffffffffffffffffffffffffffffffffffffff811660009081526007602052604081205480820361134e5750600092915050565b73ffffffffffffffffffffffffffffffffffffffff8316600090815260066020908152604080832084845282529182902082516080810184528154600f81810b8352700100000000000000000000000000000000909104900b928101929092526001810154928201839052600201546060820152906113cd9042612a29565b81602001516113dc9190612a49565b815182906113eb908390612a69565b600f90810b90915282516000910b1215905061140657600081525b51600f0b9392505050565b50919050565b61141f611c94565b3360009081526003602090815260409182902082518084019093528054600f0b83526001015490820181905262093a80808404029042106114a25760405162461bcd60e51b815260206004820152600c60248201527f4c6f636b20657870697265640000000000000000000000000000000000000000604482015260640161092d565b60008260000151600f0b136114f95760405162461bcd60e51b815260206004820152601160248201527f4e6f7468696e67206973206c6f636b6564000000000000000000000000000000604482015260640161092d565b8160200151811161154c5760405162461bcd60e51b815260206004820152601f60248201527f43616e206f6e6c7920696e637265617365206c6f636b206475726174696f6e00604482015260640161092d565b61155a630784ce0042612b68565b8111156115a95760405162461bcd60e51b815260206004820152601e60248201527f566f74696e67206c6f636b2063616e2062652034207965617273206d61780000604482015260640161092d565b6115b833600083856003611ced565b5050610a1f6001600055565b600b805461083190612ab7565b6000438211156116235760405162461bcd60e51b815260206004820152601460248201527f496e76616c696420626c6f636b206e756d626572000000000000000000000000604482015260640161092d565b60045460006116328483612882565b60008181526005602090815260409182902082516080810184528154600f81810b8352700100000000000000000000000000000000909104900b9281019290925260018101549282019290925260029091015460608201819052919250908510156116a257506000949350505050565b6000838310156117755760006005816116bc866001612b68565b8152602080820192909252604090810160002081516080810183528154600f81810b8352700100000000000000000000000000000000909104900b938101939093526001810154918301919091526002015460608083018290528501519192501461176f57826060015181606001516117359190612b04565b836040015182604001516117499190612b04565b6060850151611758908a612b04565b6117629190612b7b565b61176c9190612b92565b91505b506117c4565b438260600151146117c457606082015161178f9043612b04565b604083015161179e9042612b04565b60608401516117ad9089612b04565b6117b79190612b7b565b6117c19190612b92565b90505b6117dd828284604001516117d89190612b68565b611f86565b9695505050505050565b6117ef611c94565b600062093a806117ff8184612b92565b6118099190612b7b565b3360009081526003602090815260409182902082518084019093528054600f0b83526001015490820152909150836118835760405162461bcd60e51b815260206004820152601360248201527f4e656564206e6f6e2d7a65726f2076616c756500000000000000000000000000604482015260640161092d565b8051600f0b156118d55760405162461bcd60e51b815260206004820152601960248201527f5769746864726177206f6c6420746f6b656e7320666972737400000000000000604482015260640161092d565b42821161194a5760405162461bcd60e51b815260206004820152602660248201527f43616e206f6e6c79206c6f636b20756e74696c2074696d6520696e207468652060448201527f6675747572650000000000000000000000000000000000000000000000000000606482015260840161092d565b611958630784ce0042612b68565b8211156119a75760405162461bcd60e51b815260206004820152601e60248201527f566f74696e67206c6f636b2063616e2062652034207965617273206d61780000604482015260640161092d565b6119b5338584846001611ced565b5050610c4e6001600055565b600454600081815260056020908152604080832081516080810183528154600f81810b8352700100000000000000000000000000000000909104900b93810193909352600181015491830191909152600201546060820152909190611a268185611f86565b949350505050565b60408051808201909152600080825260208201526040805180820190915260008082526020820152610c4e60008383612074565b600d54610100900473ffffffffffffffffffffffffffffffffffffffff163314611ace5760405162461bcd60e51b815260206004820152600a60248201527f61646d696e206f6e6c7900000000000000000000000000000000000000000000604482015260640161092d565b600e5473ffffffffffffffffffffffffffffffffffffffff1680611b345760405162461bcd60e51b815260206004820152600d60248201527f61646d696e206e6f742073657400000000000000000000000000000000000000604482015260640161092d565b600d80547fffffffffffffffffffffff0000000000000000000000000000000000000000ff1661010073ffffffffffffffffffffffffffffffffffffffff8416908102919091179091556040519081527febee2d5739011062cb4f14113f3b36bf0ffe3da5c0568f64189d1012a1189105906020015b60405180910390a150565b600d54610100900473ffffffffffffffffffffffffffffffffffffffff163314611c215760405162461bcd60e51b815260206004820152600a60248201527f61646d696e206f6e6c7900000000000000000000000000000000000000000000604482015260640161092d565b600e80547fffffffffffffffffffffffff00000000000000000000000000000000000000001673ffffffffffffffffffffffffffffffffffffffff83169081179091556040519081527f2f56810a6bf40af059b96d3aea4db54081f378029a518390491093a7b67032e990602001611baa565b600260005403611ce65760405162461bcd60e51b815260206004820152601f60248201527f5265656e7472616e637947756172643a207265656e7472616e742063616c6c00604482015260640161092d565b6002600055565b6040805180820182528351600f90810b825260208086018051828501528451808601909552865190920b8452905190830152600254909190611d2f8782612b68565b600255825187908490611d43908390612bcd565b600f0b9052508515611d5757602083018690525b73ffffffffffffffffffffffffffffffffffffffff88166000908152600360209081526040909120845181547fffffffffffffffffffffffffffffffff00000000000000000000000000000000166fffffffffffffffffffffffffffffffff90911617815590840151600190910155611dd1888385612074565b8615611ec6576001546040517f23b872dd00000000000000000000000000000000000000000000000000000000815273ffffffffffffffffffffffffffffffffffffffff8a81166004830152306024830152604482018a9052909116906323b872dd906064016020604051808303816000875af1158015611e56573d6000803e3d6000fd5b505050506040513d601f19601f82011682018060405250810190611e7a9190612b17565b611ec65760405162461bcd60e51b815260206004820152600f60248201527f5472616e73666572206661696c65640000000000000000000000000000000000604482015260640161092d565b602080840151604080518a81526fffffffffffffffffffffffffffffffff88169381019390935242908301529073ffffffffffffffffffffffffffffffffffffffff8a16907fe6b4b2f1b9fef6bea3326b5f3efe29731e48b50360a2b8a10bf751c4cd0cd0239060600160405180910390a37f5e2aa66efd74cce82b21852e317e5490d9ecc9e6bb953ae24d90851258cc2f5c81611f648982612b68565b6040805192835260208301919091520160405180910390a15050505050505050565b600080839050600062093a8080836040015181611fa557611fa5612b39565b0402905060005b60ff81101561205257611fc262093a8083612b68565b9150600085831115611fd657859250611fea565b50600082815260086020526040902054600f0b5b6040840151611ff99084612a29565b84602001516120089190612a49565b84518590612017908390612a69565b600f0b90525085830361202a5750612052565b808460200181815161203c9190612bcd565b600f0b9052505060408301829052600101611fac565b5060008260000151600f0b121561206857600082525b5051600f0b9392505050565b604080516080810182526000808252602082018190529181018290526060810191909152604080516080810182526000808252602082018190529181018290526060810191909152600454600090819073ffffffffffffffffffffffffffffffffffffffff8816156121fa574287602001511180156120fa575060008760000151600f0b135b1561213a578651630784ce0090600f0b05600f0b602080870191909152870151612125904290612b04565b85602001516121349190612a49565b600f0b85525b428660200151118015612154575060008660000151600f0b135b156121a3578551630784ce00906fffffffffffffffffffffffffffffffff1604600f0b60208086019190915286015161218e904290612b04565b846020015161219d9190612a49565b600f0b84525b602080880151600090815260088252604090205490870151600f9190910b9350156121fa5786602001518660200151036121df578291506121fa565b602080870151600090815260089091526040902054600f0b91505b60408051608081018252600080825260208201524291810191909152436060820152811561227e5750604080516080810182526000838152600560208181528483208054600f81810b8752700100000000000000000000000000000000909104900b8286015260018101549585019590955291859052905260029091015460608201525b600081604001519050600060405180608001604052808460000151600f0b81526020018460200151600f0b815260200184604001518152602001846060015181525090506000836040015142111561230d5760408401516122df9042612b04565b60608501516122ee9043612b04565b61230090670de0b6b3a7640000612b7b565b61230a9190612b92565b90505b62093a808084040260005b60ff8110156124c45761232e62093a8083612b68565b915060004283111561234257429250612356565b50600082815260086020526040902054600f0b5b6123608684612c1b565b876020015161236f9190612a49565b8751889061237e908390612a69565b600f0b905250602087018051829190612398908390612bcd565b600f90810b90915288516000910b121590506123b357600087525b60008760200151600f0b12156123cb57600060208801525b60408088018490528501519295508592670de0b6b3a7640000906123ef9085612b04565b6123f99086612b7b565b6124039190612b92565b85606001516124129190612b68565b6060880152612422600189612b68565b975042830361243757504360608701526124c4565b604080516080810182528851600f90810b82526020808b015190910b8183019081528a8401518385019081526060808d015190850190815260008e8152600590945294909220925190516fffffffffffffffffffffffffffffffff908116700100000000000000000000000000000000029116178255516001820155905160029091015550600101612318565b50600486905573ffffffffffffffffffffffffffffffffffffffff8d161561256457896020015189602001516124fa9190612a69565b8560200181815161250b9190612bcd565b600f0b9052508951895161251f9190612a69565b8551869061252e908390612bcd565b600f90810b90915260208701516000910b1215905061254f57600060208601525b60008560000151600f0b121561256457600085525b6000868152600560209081526040918290208751918801516fffffffffffffffffffffffffffffffff90811670010000000000000000000000000000000002921691909117815590860151600182015560608601516002909101558c73ffffffffffffffffffffffffffffffffffffffff81161561287257428d6020015111156126695760208b01516125f7908a612bcd565b98508c602001518c602001510361261a5760208a0151612617908a612a69565b98505b60208d810151600090815260089091526040902080547fffffffffffffffffffffffffffffffff00000000000000000000000000000000166fffffffffffffffffffffffffffffffff8b161790555b428c6020015111156126e5578c602001518c6020015111156126e55760208a01516126949089612a69565b60208d810151600090815260089091526040902080547fffffffffffffffffffffffffffffffff00000000000000000000000000000000166fffffffffffffffffffffffffffffffff831617905597505b6000600760008373ffffffffffffffffffffffffffffffffffffffff1673ffffffffffffffffffffffffffffffffffffffff16815260200190815260200160002054600101905080600760008473ffffffffffffffffffffffffffffffffffffffff1673ffffffffffffffffffffffffffffffffffffffff16815260200190815260200160002081905550428b6040018181525050438b60600181815250508a600660008473ffffffffffffffffffffffffffffffffffffffff1673ffffffffffffffffffffffffffffffffffffffff168152602001908152602001600020600083815260200190815260200160002060008201518160000160006101000a8154816fffffffffffffffffffffffffffffffff0219169083600f0b6fffffffffffffffffffffffffffffffff16021790555060208201518160000160106101000a8154816fffffffffffffffffffffffffffffffff0219169083600f0b6fffffffffffffffffffffffffffffffff1602179055506040820151816001015560608201518160020155905050505b5050505050505050505050505050565b60008082815b60808110156128d457818310156128d457600282840160010181900460008181526005602052604090209091015487106128c4578093506128cb565b6001810392505b50600101612888565b5090949350505050565b803573ffffffffffffffffffffffffffffffffffffffff8116811461290257600080fd5b919050565b6000806040838503121561291a57600080fd5b612923836128de565b946020939093013593505050565b600060208083528351808285015260005b8181101561295e57858101830151858201604001528201612942565b5060006040828601015260407fffffffffffffffffffffffffffffffffffffffffffffffffffffffffffffffe0601f8301168501019250505092915050565b6000602082840312156129af57600080fd5b5035919050565b6000602082840312156129c857600080fd5b6129d1826128de565b9392505050565b600080604083850312156129eb57600080fd5b50508035926020909101359150565b7f4e487b7100000000000000000000000000000000000000000000000000000000600052601160045260246000fd5b818103600083128015838313168383128216171561081c5761081c6129fa565b600082600f0b82600f0b0280600f0b915080821461081c5761081c6129fa565b600f82810b9082900b037fffffffffffffffffffffffffffffffff8000000000000000000000000000000081126f7fffffffffffffffffffffffffffffff8213171561081e5761081e6129fa565b600181811c90821680612acb57607f821691505b602082108103611411577f4e487b7100000000000000000000000000000000000000000000000000000000600052602260045260246000fd5b8181038181111561081e5761081e6129fa565b600060208284031215612b2957600080fd5b815180151581146129d157600080fd5b7f4e487b7100000000000000000000000000000000000000000000000000000000600052601260045260246000fd5b8082018082111561081e5761081e6129fa565b808202811582820484141761081e5761081e6129fa565b600082612bc8577f4e487b7100000000000000000000000000000000000000000000000000000000600052601260045260246000fd5b500490565b600f81810b9083900b016f7fffffffffffffffffffffffffffffff81137fffffffffffffffffffffffffffffffff800000000000000000000000000000008212171561081e5761081e6129fa565b6fffffffffffffffffffffffffffffffff82811682821603908082111561081c5761081c6129fa56fea2646970667358221220dc551b39b11973e1d49dd820d9fde89bac93813aafd66c5fe57aad1cc79e3f2064736f6c63430008120033",
  "linkReferences": {},
  "deployedLinkReferences": {}
}