{
  "_format": "hh-sol-artifact-1",
  "contractName": "VotingEscrow",
  "sourceName": "contracts/VotingEscrow.sol",
  "abi": [
    {
      "inputs": [
        {
          "internalType": "address",
          "name": "tokenAddr_",
          "type": "address"
        },
        {
          "internalType": "string",
          "name": "name_",
          "type": "string"
        },
        {
          "internalType": "string",
          "name": "symbol_",
          "type": "string"
        },
        {
          "internalType": "string",
          "name": "version_",
          "type": "string"
        }
      ],
      "stateMutability": "nonpayable",
      "type": "constructor"
    },
    {
      "anonymous": false,
      "inputs": [
        {
          "indexed": false,
          "internalType": "address",
          "name": "admin",
          "type": "address"
        }
      ],
      "name": "ApplyOwnership",
      "type": "event"
    },
    {
      "anonymous": false,
      "inputs": [
        {
          "indexed": false,
          "internalType": "address",
          "name": "admin",
          "type": "address"
        }
      ],
      "name": "CommitOwnership",
      "type": "event"
    },
    {
      "anonymous": false,
      "inputs": [
        {
          "indexed": true,
          "internalType": "address",
          "name": "provider",
          "type": "address"
        },
        {
          "indexed": false,
          "internalType": "uint256",
          "name": "value",
          "type": "uint256"
        },
        {
          "indexed": true,
          "internalType": "uint256",
          "name": "locktime",
          "type": "uint256"
        },
        {
          "indexed": false,
          "internalType": "uint128",
          "name": "_type",
          "type": "uint128"
        },
        {
          "indexed": false,
          "internalType": "uint256",
          "name": "ts",
          "type": "uint256"
        }
      ],
      "name": "Deposit",
      "type": "event"
    },
    {
      "anonymous": false,
      "inputs": [
        {
          "indexed": false,
          "internalType": "uint256",
          "name": "prevSupply",
          "type": "uint256"
        },
        {
          "indexed": false,
          "internalType": "uint256",
          "name": "supply",
          "type": "uint256"
        }
      ],
      "name": "Supply",
      "type": "event"
    },
    {
      "anonymous": false,
      "inputs": [
        {
          "indexed": true,
          "internalType": "address",
          "name": "provider",
          "type": "address"
        },
        {
          "indexed": false,
          "internalType": "uint256",
          "name": "value",
          "type": "uint256"
        },
        {
          "indexed": false,
          "internalType": "uint256",
          "name": "ts",
          "type": "uint256"
        }
      ],
      "name": "Withdraw",
      "type": "event"
    },
    {
      "inputs": [],
      "name": "MAXTIME",
      "outputs": [
        {
          "internalType": "uint256",
          "name": "",
          "type": "uint256"
        }
      ],
      "stateMutability": "view",
      "type": "function"
    },
    {
      "inputs": [],
      "name": "MULTIPLIER",
      "outputs": [
        {
          "internalType": "uint256",
          "name": "",
          "type": "uint256"
        }
      ],
      "stateMutability": "view",
      "type": "function"
    },
    {
      "inputs": [],
      "name": "WEEK",
      "outputs": [
        {
          "internalType": "uint256",
          "name": "",
          "type": "uint256"
        }
      ],
      "stateMutability": "view",
      "type": "function"
    },
    {
      "inputs": [],
      "name": "admin",
      "outputs": [
        {
          "internalType": "address",
          "name": "",
          "type": "address"
        }
      ],
      "stateMutability": "view",
      "type": "function"
    },
    {
      "inputs": [],
      "name": "applySmartWalletChecker",
      "outputs": [],
      "stateMutability": "nonpayable",
      "type": "function"
    },
    {
      "inputs": [],
      "name": "applyTransferOwnership",
      "outputs": [],
      "stateMutability": "nonpayable",
      "type": "function"
    },
    {
      "inputs": [
        {
          "internalType": "address",
          "name": "addr_",
          "type": "address"
        },
        {
          "internalType": "uint256",
          "name": "t_",
          "type": "uint256"
        }
      ],
      "name": "balanceOf",
      "outputs": [
        {
          "internalType": "uint256",
          "name": "",
          "type": "uint256"
        }
      ],
      "stateMutability": "view",
      "type": "function"
    },
    {
      "inputs": [
        {
          "internalType": "address",
          "name": "addr_",
          "type": "address"
        }
      ],
      "name": "balanceOf",
      "outputs": [
        {
          "internalType": "uint256",
          "name": "",
          "type": "uint256"
        }
      ],
      "stateMutability": "view",
      "type": "function"
    },
    {
      "inputs": [
        {
          "internalType": "address",
          "name": "addr_",
          "type": "address"
        },
        {
          "internalType": "uint256",
          "name": "block_",
          "type": "uint256"
        }
      ],
      "name": "balanceOfAt",
      "outputs": [
        {
          "internalType": "uint256",
          "name": "",
          "type": "uint256"
        }
      ],
      "stateMutability": "view",
      "type": "function"
    },
    {
      "inputs": [
        {
          "internalType": "address",
          "name": "newController",
          "type": "address"
        }
      ],
      "name": "changeController",
      "outputs": [],
      "stateMutability": "nonpayable",
      "type": "function"
    },
    {
      "inputs": [],
      "name": "checkpoint",
      "outputs": [],
      "stateMutability": "nonpayable",
      "type": "function"
    },
    {
      "inputs": [
        {
          "internalType": "address",
          "name": "addr_",
          "type": "address"
        }
      ],
      "name": "commitSmartWalletChecker",
      "outputs": [],
      "stateMutability": "nonpayable",
      "type": "function"
    },
    {
      "inputs": [
        {
          "internalType": "address",
          "name": "addr_",
          "type": "address"
        }
      ],
      "name": "commitTransferOwnership",
      "outputs": [],
      "stateMutability": "nonpayable",
      "type": "function"
    },
    {
      "inputs": [],
      "name": "controller",
      "outputs": [
        {
          "internalType": "address",
          "name": "",
          "type": "address"
        }
      ],
      "stateMutability": "view",
      "type": "function"
    },
    {
      "inputs": [
        {
          "internalType": "uint256",
          "name": "value_",
          "type": "uint256"
        },
        {
          "internalType": "uint256",
          "name": "unlockTime_",
          "type": "uint256"
        }
      ],
      "name": "createLock",
      "outputs": [],
      "stateMutability": "nonpayable",
      "type": "function"
    },
    {
      "inputs": [],
      "name": "decimals",
      "outputs": [
        {
          "internalType": "uint8",
          "name": "",
          "type": "uint8"
        }
      ],
      "stateMutability": "view",
      "type": "function"
    },
    {
      "inputs": [
        {
          "internalType": "address",
          "name": "addr_",
          "type": "address"
        },
        {
          "internalType": "uint256",
          "name": "value_",
          "type": "uint256"
        }
      ],
      "name": "depositFor",
      "outputs": [],
      "stateMutability": "nonpayable",
      "type": "function"
    },
    {
      "inputs": [],
      "name": "epoch",
      "outputs": [
        {
          "internalType": "uint256",
          "name": "",
          "type": "uint256"
        }
      ],
      "stateMutability": "view",
      "type": "function"
    },
    {
      "inputs": [],
      "name": "futureAdmin",
      "outputs": [
        {
          "internalType": "address",
          "name": "",
          "type": "address"
        }
      ],
      "stateMutability": "view",
      "type": "function"
    },
    {
      "inputs": [],
      "name": "futureSmartWalletChecker",
      "outputs": [
        {
          "internalType": "address",
          "name": "",
          "type": "address"
        }
      ],
      "stateMutability": "view",
      "type": "function"
    },
    {
      "inputs": [
        {
          "internalType": "address",
          "name": "addr_",
          "type": "address"
        }
      ],
      "name": "getLastUserSlope",
      "outputs": [
        {
          "internalType": "int128",
          "name": "",
          "type": "int128"
        }
      ],
      "stateMutability": "view",
      "type": "function"
    },
    {
      "inputs": [
        {
          "internalType": "uint256",
          "name": "value_",
          "type": "uint256"
        }
      ],
      "name": "increaseAmount",
      "outputs": [],
      "stateMutability": "nonpayable",
      "type": "function"
    },
    {
      "inputs": [
        {
          "internalType": "uint256",
          "name": "unlockTime_",
          "type": "uint256"
        }
      ],
      "name": "increaseUnlockTime",
      "outputs": [],
      "stateMutability": "nonpayable",
      "type": "function"
    },
    {
      "inputs": [
        {
          "internalType": "address",
          "name": "",
          "type": "address"
        }
      ],
      "name": "locked",
      "outputs": [
        {
          "internalType": "int128",
          "name": "amount",
          "type": "int128"
        },
        {
          "internalType": "uint256",
          "name": "end",
          "type": "uint256"
        }
      ],
      "stateMutability": "view",
      "type": "function"
    },
    {
      "inputs": [
        {
          "internalType": "address",
          "name": "addr_",
          "type": "address"
        }
      ],
      "name": "lockedEnd",
      "outputs": [
        {
          "internalType": "uint256",
          "name": "",
          "type": "uint256"
        }
      ],
      "stateMutability": "view",
      "type": "function"
    },
    {
      "inputs": [],
      "name": "name",
      "outputs": [
        {
          "internalType": "string",
          "name": "",
          "type": "string"
        }
      ],
      "stateMutability": "view",
      "type": "function"
    },
    {
      "inputs": [
        {
          "internalType": "uint256",
          "name": "",
          "type": "uint256"
        }
      ],
      "name": "pointHistory",
      "outputs": [
        {
          "internalType": "int128",
          "name": "bias",
          "type": "int128"
        },
        {
          "internalType": "int128",
          "name": "slope",
          "type": "int128"
        },
        {
          "internalType": "uint256",
          "name": "ts",
          "type": "uint256"
        },
        {
          "internalType": "uint256",
          "name": "blk",
          "type": "uint256"
        }
      ],
      "stateMutability": "view",
      "type": "function"
    },
    {
      "inputs": [
        {
          "internalType": "uint256",
          "name": "",
          "type": "uint256"
        }
      ],
      "name": "slopeChanges",
      "outputs": [
        {
          "internalType": "int128",
          "name": "",
          "type": "int128"
        }
      ],
      "stateMutability": "view",
      "type": "function"
    },
    {
      "inputs": [],
      "name": "smartWalletChecker",
      "outputs": [
        {
          "internalType": "address",
          "name": "",
          "type": "address"
        }
      ],
      "stateMutability": "view",
      "type": "function"
    },
    {
      "inputs": [],
      "name": "supply",
      "outputs": [
        {
          "internalType": "uint256",
          "name": "",
          "type": "uint256"
        }
      ],
      "stateMutability": "view",
      "type": "function"
    },
    {
      "inputs": [],
      "name": "symbol",
      "outputs": [
        {
          "internalType": "string",
          "name": "",
          "type": "string"
        }
      ],
      "stateMutability": "view",
      "type": "function"
    },
    {
      "inputs": [],
      "name": "token",
      "outputs": [
        {
          "internalType": "address",
          "name": "",
          "type": "address"
        }
      ],
      "stateMutability": "view",
      "type": "function"
    },
    {
      "inputs": [],
      "name": "totalSupply",
      "outputs": [
        {
          "internalType": "uint256",
          "name": "",
          "type": "uint256"
        }
      ],
      "stateMutability": "view",
      "type": "function"
    },
    {
      "inputs": [
        {
          "internalType": "uint256",
          "name": "t_",
          "type": "uint256"
        }
      ],
      "name": "totalSupply",
      "outputs": [
        {
          "internalType": "uint256",
          "name": "",
          "type": "uint256"
        }
      ],
      "stateMutability": "view",
      "type": "function"
    },
    {
      "inputs": [
        {
          "internalType": "uint256",
          "name": "block_",
          "type": "uint256"
        }
      ],
      "name": "totalSupplyAt",
      "outputs": [
        {
          "internalType": "uint256",
          "name": "",
          "type": "uint256"
        }
      ],
      "stateMutability": "view",
      "type": "function"
    },
    {
      "inputs": [],
      "name": "transfersEnabled",
      "outputs": [
        {
          "internalType": "bool",
          "name": "",
          "type": "bool"
        }
      ],
      "stateMutability": "view",
      "type": "function"
    },
    {
      "inputs": [
        {
          "internalType": "address",
          "name": "",
          "type": "address"
        }
      ],
      "name": "userPointEpoch",
      "outputs": [
        {
          "internalType": "uint256",
          "name": "",
          "type": "uint256"
        }
      ],
      "stateMutability": "view",
      "type": "function"
    },
    {
      "inputs": [
        {
          "internalType": "address",
          "name": "",
          "type": "address"
        },
        {
          "internalType": "uint256",
          "name": "",
          "type": "uint256"
        }
      ],
      "name": "userPointHistory",
      "outputs": [
        {
          "internalType": "int128",
          "name": "bias",
          "type": "int128"
        },
        {
          "internalType": "int128",
          "name": "slope",
          "type": "int128"
        },
        {
          "internalType": "uint256",
          "name": "ts",
          "type": "uint256"
        },
        {
          "internalType": "uint256",
          "name": "blk",
          "type": "uint256"
        }
      ],
      "stateMutability": "view",
      "type": "function"
    },
    {
      "inputs": [
        {
          "internalType": "address",
          "name": "addr_",
          "type": "address"
        },
        {
          "internalType": "uint256",
          "name": "idx_",
          "type": "uint256"
        }
      ],
      "name": "userPointHistoryTs",
      "outputs": [
        {
          "internalType": "uint256",
          "name": "",
          "type": "uint256"
        }
      ],
      "stateMutability": "view",
      "type": "function"
    },
    {
      "inputs": [],
      "name": "version",
      "outputs": [
        {
          "internalType": "string",
          "name": "",
          "type": "string"
        }
      ],
      "stateMutability": "view",
      "type": "function"
    },
    {
      "inputs": [],
      "name": "withdraw",
      "outputs": [],
      "stateMutability": "nonpayable",
      "type": "function"
    }
  ],
  "bytecode": "0x60806040523480156200001157600080fd5b50604051620032033803806200320383398101604081905262000034916200024a565b60016000818155600f80546001600160a01b03199081163390811790925583546001600160a01b0389169116811790935590805260056020908152437f05b8ccbb9d4d8fb16ea74ce3c29a41f1b461fbdaff4714a0d9a8eb05499746be55427f05b8ccbb9d4d8fb16ea74ce3c29a41f1b461fbdaff4714a0d9a8eb05499746bd556009805460ff60a01b199093166001600160a81b031990931692909217600160a01b179091556040805163313ce56760e01b8152905163313ce567926004808401939192918290030181865afa15801562000114573d6000803e3d6000fd5b505050506040513d601f19601f820116820180604052508101906200013a9190620002fc565b600d805460ff191660ff92909216919091179055600a6200015c8482620003b7565b50600b6200016b8382620003b7565b50600c6200017a8282620003b7565b505050505062000483565b634e487b7160e01b600052604160045260246000fd5b600082601f830112620001ad57600080fd5b81516001600160401b0380821115620001ca57620001ca62000185565b604051601f8301601f19908116603f01168101908282118183101715620001f557620001f562000185565b816040528381526020925086838588010111156200021257600080fd5b600091505b8382101562000236578582018301518183018401529082019062000217565b600093810190920192909252949350505050565b600080600080608085870312156200026157600080fd5b84516001600160a01b03811681146200027957600080fd5b60208601519094506001600160401b03808211156200029757600080fd5b620002a5888389016200019b565b94506040870151915080821115620002bc57600080fd5b620002ca888389016200019b565b93506060870151915080821115620002e157600080fd5b50620002f0878288016200019b565b91505092959194509250565b6000602082840312156200030f57600080fd5b815160ff811681146200032157600080fd5b9392505050565b600181811c908216806200033d57607f821691505b6020821081036200035e57634e487b7160e01b600052602260045260246000fd5b50919050565b601f821115620003b257600081815260208120601f850160051c810160208610156200038d5750805b601f850160051c820191505b81811015620003ae5782815560010162000399565b5050505b505050565b81516001600160401b03811115620003d357620003d362000185565b620003eb81620003e4845462000328565b8462000364565b602080601f8311600181146200042357600084156200040a5750858301515b600019600386901b1c1916600185901b178555620003ae565b600085815260208120601f198616915b82811015620004545788860151825594840194600190910190840162000433565b5085821015620004735787850151600019600388901b60f8161c191681555b5050505050600190811b01905550565b612d7080620004936000396000f3fe608060405234801561001057600080fd5b50600436106102d25760003560e01c80638ad4c44711610186578063df0ab9d3116100e3578063f3a6d60811610097578063f77c479111610071578063f77c47911461071c578063f851a4401461072f578063fc0c546a1461074257600080fd5b8063f3a6d60814610689578063f4359ce5146106ef578063f52a36f7146106f957600080fd5b8063eac6a667116100c8578063eac6a66714610632578063ee00ef3a1461066b578063f08185831461067657600080fd5b8063df0ab9d314610617578063e1cebf0b1461061f57600080fd5b8063bd85b0391161013a578063c2c4c5c11161011f578063c2c4c5c1146105bf578063cbf9fe5f146105c7578063d4cfd6271461060f57600080fd5b8063bd85b03914610577578063bef97c871461058a57600080fd5b806395d89b411161016b57806395d89b4114610549578063981b24d014610551578063b52c05fe1461056457600080fd5b80638ad4c447146104f5578063900cf0cf1461054057600080fd5b80633ccfd60b1161023457806354fd4d50116101e85780637c616fe6116101cd5780637c616fe6146104af5780637df14854146104c257806381fc83bb146104d557600080fd5b806354fd4d501461049457806370a082311461049c57600080fd5b80634cb654af116102195780634cb654af146104425780634deafcae146104555780634ee2cd7e1461048157600080fd5b80633ccfd60b146104275780633cebb8231461042f57600080fd5b8063155bcbbd1161028b5780632f4f21e2116102705780632f4f21e214610377578063313ce5671461038a57806334d901a4146103a957600080fd5b8063155bcbbd1461033f57806318160ddd1461036f57600080fd5b8063059f8b16116102bc578063059f8b161461030657806306fdde031461031557806315456eba1461032a57600080fd5b8062fdd58e146102d7578063047fc9aa146102fd575b600080fd5b6102ea6102e53660046129fd565b610755565b6040519081526020015b60405180910390f35b6102ea60025481565b6102ea670de0b6b3a764000081565b61031d61083f565b6040516102f49190612a27565b61033d610338366004612a93565b6108cd565b005b600d546103579061010090046001600160a01b031681565b6040516001600160a01b0390911681526020016102f4565b6102ea610a46565b61033d6103853660046129fd565b610ab2565b600d546103979060ff1681565b60405160ff90911681526020016102f4565b6103ff6103b73660046129fd565b6006602090815260009283526040808420909152908252902080546001820154600290920154600f82810b93700100000000000000000000000000000000909304900b919084565b60408051600f95860b81529390940b60208401529282015260608101919091526080016102f4565b61033d610c5c565b61033d61043d366004612aac565b610f06565b601054610357906001600160a01b031681565b6102ea610463366004612aac565b6001600160a01b031660009081526003602052604090206001015490565b6102ea61048f3660046129fd565b610fc0565b61031d6112c7565b6102ea6104aa366004612aac565b6112d4565b61033d6104bd366004612a93565b6113b9565b600e54610357906001600160a01b031681565b6102ea6104e3366004612aac565b60076020526000908152604090205481565b6103ff610503366004612a93565b600560205260009081526040902080546001820154600290920154600f82810b93700100000000000000000000000000000000909304900b919084565b6102ea60045481565b61031d61156f565b6102ea61055f366004612a93565b61157c565b61033d610572366004612ace565b611778565b6102ea610585366004612a93565b61195b565b6009546105af9074010000000000000000000000000000000000000000900460ff1681565b60405190151581526020016102f4565b61033d6119c8565b6105f56105d5366004612aac565b60036020526000908152604090208054600190910154600f9190910b9082565b60408051600f9390930b83526020830191909152016102f4565b61033d6119fc565b61033d611a98565b61033d61062d366004612aac565b611bb8565b6102ea6106403660046129fd565b6001600160a01b03919091166000908152600660209081526040808320938352929052206001015490565b6102ea630784ce0081565b61033d610684366004612aac565b611c78565b6106dc610697366004612aac565b6001600160a01b0316600090815260076020908152604080832054600683528184209084529091529020547001000000000000000000000000000000009004600f0b90565b604051600f9190910b81526020016102f4565b6102ea62093a8081565b6106dc610707366004612a93565b600860205260009081526040902054600f0b81565b600954610357906001600160a01b031681565b600f54610357906001600160a01b031681565b600154610357906001600160a01b031681565b6001600160a01b03821660009081526007602052604081205480820361077f576000915050610839565b6001600160a01b038416600090815260066020908152604080832084845282529182902082516080810184528154600f81810b8352700100000000000000000000000000000000909104900b928101929092526001810154928201839052600201546060820152906107f19085612b1f565b81602001516108009190612b3f565b8151829061080f908390612b5f565b600f90810b90915282516000910b1215905061082a57600081525b51600f0b91506108399050565b505b92915050565b600a805461084c90612bad565b80601f016020809104026020016040519081016040528092919081815260200182805461087890612bad565b80156108c55780601f1061089a576101008083540402835291602001916108c5565b820191906000526020600020905b8154815290600101906020018083116108a857829003601f168201915b505050505081565b6108d5611d11565b6108de33611d6a565b3360009081526003602090815260409182902082518084019093528054600f0b835260010154908201528161095a5760405162461bcd60e51b815260206004820152601360248201527f4e656564206e6f6e2d7a65726f2076616c75650000000000000000000000000060448201526064015b60405180910390fd5b60008160000151600f0b136109b15760405162461bcd60e51b815260206004820152601660248201527f4e6f206578697374696e67206c6f636b20666f756e64000000000000000000006044820152606401610951565b42816020015111610a295760405162461bcd60e51b8152602060048201526024808201527f43616e6e6f742061646420746f2065787069726564206c6f636b2e205769746860448201527f64726177000000000000000000000000000000000000000000000000000000006064820152608401610951565b610a3833836000846002611e8c565b50610a436001600055565b50565b600454600081815260056020908152604080832081516080810183528154600f81810b8352700100000000000000000000000000000000909104900b93810193909352600181015491830191909152600201546060820152909190610aab81426120fe565b9250505090565b610aba611d11565b6001600160a01b03821660009081526003602090815260409182902082518084019093528054600f0b8352600101549082015281610b3a5760405162461bcd60e51b815260206004820152601360248201527f4e656564206e6f6e2d7a65726f2076616c7565000000000000000000000000006044820152606401610951565b60008160000151600f0b13610b915760405162461bcd60e51b815260206004820152601660248201527f4e6f206578697374696e67206c6f636b20666f756e64000000000000000000006044820152606401610951565b42816020015111610c095760405162461bcd60e51b8152602060048201526024808201527f43616e6e6f742061646420746f2065787069726564206c6f636b2e205769746860448201527f64726177000000000000000000000000000000000000000000000000000000006064820152608401610951565b6001600160a01b038316600090815260036020908152604080832081518083019092528054600f0b82526001015491810191909152610c4d91859185919081611e8c565b50610c586001600055565b5050565b610c64611d11565b604080518082018252336000818152600360208181529482208054600f0b85529290915283526001015491810182905290421015610ce45760405162461bcd60e51b815260206004820152601660248201527f546865206c6f636b206469646e277420657870697265000000000000000000006044820152606401610951565b8051604080518082018252336000818152600360208181528583208054600f81810b8852868652848452600183018054858a0152848c01878152878d528a51808c01909b528c51830b8b52518a8601908152979096529390925295516fffffffffffffffffffffffffffffffff167fffffffffffffffffffffffffffffffff0000000000000000000000000000000090911617909455905190556002549290910b91610d908382612bfa565b600255610d9e3383866121ec565b6001546040517fa9059cbb000000000000000000000000000000000000000000000000000000008152336004820152602481018590526001600160a01b039091169063a9059cbb906044016020604051808303816000875af1158015610e08573d6000803e3d6000fd5b505050506040513d601f19601f82011682018060405250810190610e2c9190612c0d565b610e785760405162461bcd60e51b815260206004820152600f60248201527f5472616e73666572206661696c656400000000000000000000000000000000006044820152606401610951565b6040805184815242602082015233917ff279e6a1f5e320cca91135676d9cb6e44ca8a08c0b88342bcdb1144f6511b568910160405180910390a27f5e2aa66efd74cce82b21852e317e5490d9ecc9e6bb953ae24d90851258cc2f5c81610ede8582612bfa565b6040805192835260208301919091520160405180910390a150505050610f046001600055565b565b6009546001600160a01b03163314610f865760405162461bcd60e51b815260206004820152602a60248201527f4f6e6c792074686520636f6e74726f6c6c65722063616e2063616c6c2074686960448201527f732066756e6374696f6e000000000000000000000000000000000000000000006064820152608401610951565b600980547fffffffffffffffffffffffff0000000000000000000000000000000000000000166001600160a01b0392909216919091179055565b6000438211156110125760405162461bcd60e51b815260206004820152601b60248201527f43616e6e6f74206c6f6f6b2075702066757475726520626c6f636b00000000006044820152606401610951565b6001600160a01b038316600090815260076020526040812054815b608081101561108d578183101561108d576001600160a01b038616600090815260066020908152604080832060028688016001018190048086529190935292200154861061107d57809350611084565b6001810392505b5060010161102d565b506001600160a01b0385166000908152600660209081526040808320858452825280832081516080810183528154600f81810b8352700100000000000000000000000000000000909104900b9381019390935260018101549183019190915260020154606082015260045490916111048783612985565b600081815260056020908152604080832081516080810183528154600f81810b8352700100000000000000000000000000000000909104900b9381019390935260018101549183019190915260020154606082015291925080848410156111fd576000600581611175876001612c5e565b8152602080820192909252604090810160002081516080810183528154600f81810b8352700100000000000000000000000000000000909104900b938101939093526001810154918301919091526002015460608083018290528601519192506111df9190612bfa565b9250836040015181604001516111f59190612bfa565b915050611221565b606083015161120c9043612bfa565b915082604001514261121e9190612bfa565b90505b6040830151821561125e578284606001518c61123d9190612bfa565b6112479084612c71565b6112519190612c88565b61125b9082612c5e565b90505b604087015161126d9082612b1f565b876020015161127c9190612b3f565b8751889061128b908390612b5f565b600f90810b90915288516000910b1290506112b55750509351600f0b965061083995505050505050565b60009950505050505050505050610839565b600c805461084c90612bad565b6001600160a01b0381166000908152600760205260408120548082036112fd5750600092915050565b6001600160a01b038316600090815260066020908152604080832084845282529182902082516080810184528154600f81810b8352700100000000000000000000000000000000909104900b9281019290925260018101549282018390526002015460608201529061136f9042612b1f565b816020015161137e9190612b3f565b8151829061138d908390612b5f565b600f90810b90915282516000910b121590506113a857600081525b51600f0b9392505050565b50919050565b6113c1611d11565b6113ca33611d6a565b3360009081526003602090815260409182902082518084019093528054600f0b83526001015490820181905262093a808084040290421061144d5760405162461bcd60e51b815260206004820152600c60248201527f4c6f636b206578706972656400000000000000000000000000000000000000006044820152606401610951565b60008260000151600f0b136114a45760405162461bcd60e51b815260206004820152601160248201527f4e6f7468696e67206973206c6f636b65640000000000000000000000000000006044820152606401610951565b816020015181116114f75760405162461bcd60e51b815260206004820152601f60248201527f43616e206f6e6c7920696e637265617365206c6f636b206475726174696f6e006044820152606401610951565b611505630784ce0042612c5e565b8111156115545760405162461bcd60e51b815260206004820152601e60248201527f566f74696e67206c6f636b2063616e2062652034207965617273206d617800006044820152606401610951565b61156333600083856003611e8c565b5050610a436001600055565b600b805461084c90612bad565b6000438211156115ce5760405162461bcd60e51b815260206004820152601460248201527f496e76616c696420626c6f636b206e756d6265720000000000000000000000006044820152606401610951565b60045460006115dd8483612985565b600081815260056020908152604080832081516080810183528154600f81810b8352700100000000000000000000000000000000909104900b938101939093526001810154918301919091526002015460608201529192508383101561170657600060058161164d866001612c5e565b8152602080820192909252604090810160002081516080810183528154600f81810b8352700100000000000000000000000000000000909104900b938101939093526001810154918301919091526002015460608083018290528501519192501461170057826060015181606001516116c69190612bfa565b836040015182604001516116da9190612bfa565b60608501516116e9908a612bfa565b6116f39190612c71565b6116fd9190612c88565b91505b50611755565b438260600151146117555760608201516117209043612bfa565b604083015161172f9042612bfa565b606084015161173e9089612bfa565b6117489190612c71565b6117529190612c88565b90505b61176e828284604001516117699190612c5e565b6120fe565b9695505050505050565b611780611d11565b61178933611d6a565b600062093a806117998184612c88565b6117a39190612c71565b3360009081526003602090815260409182902082518084019093528054600f0b835260010154908201529091508361181d5760405162461bcd60e51b815260206004820152601360248201527f4e656564206e6f6e2d7a65726f2076616c7565000000000000000000000000006044820152606401610951565b8051600f0b1561186f5760405162461bcd60e51b815260206004820152601960248201527f5769746864726177206f6c6420746f6b656e73206669727374000000000000006044820152606401610951565b4282116118e45760405162461bcd60e51b815260206004820152602660248201527f43616e206f6e6c79206c6f636b20756e74696c2074696d6520696e207468652060448201527f66757475726500000000000000000000000000000000000000000000000000006064820152608401610951565b6118f2630784ce0042612c5e565b8211156119415760405162461bcd60e51b815260206004820152601e60248201527f566f74696e67206c6f636b2063616e2062652034207965617273206d617800006044820152606401610951565b61194f338584846001611e8c565b5050610c586001600055565b600454600081815260056020908152604080832081516080810183528154600f81810b8352700100000000000000000000000000000000909104900b938101939093526001810154918301919091526002015460608201529091906119c081856120fe565b949350505050565b60408051808201909152600080825260208201526040805180820190915260008082526020820152610c58600083836121ec565b600f546001600160a01b03163314611a565760405162461bcd60e51b815260206004820152600a60248201527f61646d696e206f6e6c79000000000000000000000000000000000000000000006044820152606401610951565b600d54600e80546101009092046001600160a01b03167fffffffffffffffffffffffff0000000000000000000000000000000000000000909216919091179055565b600f546001600160a01b03163314611af25760405162461bcd60e51b815260206004820152600a60248201527f61646d696e206f6e6c79000000000000000000000000000000000000000000006044820152606401610951565b6010546001600160a01b031680611b4b5760405162461bcd60e51b815260206004820152600d60248201527f61646d696e206e6f7420736574000000000000000000000000000000000000006044820152606401610951565b600f80547fffffffffffffffffffffffff0000000000000000000000000000000000000000166001600160a01b0383169081179091556040519081527febee2d5739011062cb4f14113f3b36bf0ffe3da5c0568f64189d1012a1189105906020015b60405180910390a150565b600f546001600160a01b03163314611c125760405162461bcd60e51b815260206004820152600a60248201527f61646d696e206f6e6c79000000000000000000000000000000000000000000006044820152606401610951565b601080547fffffffffffffffffffffffff0000000000000000000000000000000000000000166001600160a01b0383169081179091556040519081527f2f56810a6bf40af059b96d3aea4db54081f378029a518390491093a7b67032e990602001611bad565b600f546001600160a01b03163314611cd25760405162461bcd60e51b815260206004820152600a60248201527f61646d696e206f6e6c79000000000000000000000000000000000000000000006044820152606401610951565b600d80546001600160a01b03909216610100027fffffffffffffffffffffff0000000000000000000000000000000000000000ff909216919091179055565b600260005403611d635760405162461bcd60e51b815260206004820152601f60248201527f5265656e7472616e637947756172643a207265656e7472616e742063616c6c006044820152606401610951565b6002600055565b6001600160a01b0381163214610a4357600e546001600160a01b03168015801590611e1557506040517fc23697a80000000000000000000000000000000000000000000000000000000081526001600160a01b03838116600483015282169063c23697a8906024016020604051808303816000875af1158015611df1573d6000803e3d6000fd5b505050506040513d601f19601f82011682018060405250810190611e159190612c0d565b15611e1e575050565b60405162461bcd60e51b815260206004820152602560248201527f536d61727420636f6e7472616374206465706f7369746f7273206e6f7420616c60448201527f6c6f7765640000000000000000000000000000000000000000000000000000006064820152608401610951565b6040805180820182528351600f90810b825260208086018051828501528451808601909552865190920b8452905190830152600254909190611ece8782612c5e565b600255825187908490611ee2908390612cc3565b600f0b9052508515611ef657602083018690525b6001600160a01b0388166000908152600360209081526040909120845181547fffffffffffffffffffffffffffffffff00000000000000000000000000000000166fffffffffffffffffffffffffffffffff90911617815590840151600190910155611f638883856121ec565b861561204b576001546040517f23b872dd0000000000000000000000000000000000000000000000000000000081526001600160a01b038a81166004830152306024830152604482018a9052909116906323b872dd906064016020604051808303816000875af1158015611fdb573d6000803e3d6000fd5b505050506040513d601f19601f82011682018060405250810190611fff9190612c0d565b61204b5760405162461bcd60e51b815260206004820152600f60248201527f5472616e73666572206661696c656400000000000000000000000000000000006044820152606401610951565b602080840151604080518a81526fffffffffffffffffffffffffffffffff8816938101939093524290830152906001600160a01b038a16907fe6b4b2f1b9fef6bea3326b5f3efe29731e48b50360a2b8a10bf751c4cd0cd0239060600160405180910390a37f5e2aa66efd74cce82b21852e317e5490d9ecc9e6bb953ae24d90851258cc2f5c816120dc8982612c5e565b6040805192835260208301919091520160405180910390a15050505050505050565b600080839050600062093a808083604001518161211d5761211d612c2f565b0402905060005b60ff8110156121ca5761213a62093a8083612c5e565b915060008583111561214e57859250612162565b50600082815260086020526040902054600f0b5b60408401516121719084612b1f565b84602001516121809190612b3f565b8451859061218f908390612b5f565b600f0b9052508583036121a257506121ca565b80846020018181516121b49190612cc3565b600f0b9052505060408301829052600101612124565b5060008260000151600f0b12156121e057600082525b5051600f0b9392505050565b60408051608081018252600080825260208201819052918101829052606081019190915260408051608081018252600080825260208201819052918101829052606081019190915260045460009081906001600160a01b0388161561236557428760200151118015612265575060008760000151600f0b135b156122a5578651630784ce0090600f0b05600f0b602080870191909152870151612290904290612bfa565b856020015161229f9190612b3f565b600f0b85525b4286602001511180156122bf575060008660000151600f0b135b1561230e578551630784ce00906fffffffffffffffffffffffffffffffff1604600f0b6020808601919091528601516122f9904290612bfa565b84602001516123089190612b3f565b600f0b84525b602080880151600090815260088252604090205490870151600f9190910b93501561236557866020015186602001510361234a57829150612365565b602080870151600090815260089091526040902054600f0b91505b6040805160808101825260008082526020820152429181019190915243606082015281156123e95750604080516080810182526000838152600560208181528483208054600f81810b8752700100000000000000000000000000000000909104900b8286015260018101549585019590955291859052905260029091015460608201525b600081604001519050600060405180608001604052808460000151600f0b81526020018460200151600f0b815260200184604001518152602001846060015181525090506000836040015142111561247857604084015161244a9042612bfa565b60608501516124599043612bfa565b61246b90670de0b6b3a7640000612c71565b6124759190612c88565b90505b62093a808084040260005b60ff81101561262f5761249962093a8083612c5e565b91506000428311156124ad574292506124c1565b50600082815260086020526040902054600f0b5b6124cb8684612d11565b87602001516124da9190612b3f565b875188906124e9908390612b5f565b600f0b905250602087018051829190612503908390612cc3565b600f90810b90915288516000910b1215905061251e57600087525b60008760200151600f0b121561253657600060208801525b60408088018490528501519295508592670de0b6b3a76400009061255a9085612bfa565b6125649086612c71565b61256e9190612c88565b856060015161257d9190612c5e565b606088015261258d600189612c5e565b97504283036125a2575043606087015261262f565b604080516080810182528851600f90810b82526020808b015190910b8183019081528a8401518385019081526060808d015190850190815260008e8152600590945294909220925190516fffffffffffffffffffffffffffffffff908116700100000000000000000000000000000000029116178255516001820155905160029091015550600101612483565b5060048690556001600160a01b038d16156126c257896020015189602001516126589190612b5f565b856020018181516126699190612cc3565b600f0b9052508951895161267d9190612b5f565b8551869061268c908390612cc3565b600f90810b90915260208701516000910b121590506126ad57600060208601525b60008560000151600f0b12156126c257600085525b6000868152600560209081526040918290208751918801516fffffffffffffffffffffffffffffffff90811670010000000000000000000000000000000002921691909117815590860151600182015560608601516002909101558c6001600160a01b0381161561297557428d6020015111156127ba5760208b0151612748908a612cc3565b98508c602001518c602001510361276b5760208a0151612768908a612b5f565b98505b60208d810151600090815260089091526040902080547fffffffffffffffffffffffffffffffff00000000000000000000000000000000166fffffffffffffffffffffffffffffffff8b161790555b428c602001511115612836578c602001518c6020015111156128365760208a01516127e59089612b5f565b60208d810151600090815260089091526040902080547fffffffffffffffffffffffffffffffff00000000000000000000000000000000166fffffffffffffffffffffffffffffffff831617905597505b600060076000836001600160a01b03166001600160a01b031681526020019081526020016000205460010190508060076000846001600160a01b03166001600160a01b0316815260200190815260200160002081905550428b6040018181525050438b60600181815250508a60066000846001600160a01b03166001600160a01b03168152602001908152602001600020600083815260200190815260200160002060008201518160000160006101000a8154816fffffffffffffffffffffffffffffffff0219169083600f0b6fffffffffffffffffffffffffffffffff16021790555060208201518160000160106101000a8154816fffffffffffffffffffffffffffffffff0219169083600f0b6fffffffffffffffffffffffffffffffff1602179055506040820151816001015560608201518160020155905050505b5050505050505050505050505050565b60008082815b60808110156129d757818310156129d757600282840160010181900460008181526005602052604090209091015487106129c7578093506129ce565b6001810392505b5060010161298b565b5090949350505050565b80356001600160a01b03811681146129f857600080fd5b919050565b60008060408385031215612a1057600080fd5b612a19836129e1565b946020939093013593505050565b600060208083528351808285015260005b81811015612a5457858101830151858201604001528201612a38565b5060006040828601015260407fffffffffffffffffffffffffffffffffffffffffffffffffffffffffffffffe0601f8301168501019250505092915050565b600060208284031215612aa557600080fd5b5035919050565b600060208284031215612abe57600080fd5b612ac7826129e1565b9392505050565b60008060408385031215612ae157600080fd5b50508035926020909101359150565b7f4e487b7100000000000000000000000000000000000000000000000000000000600052601160045260246000fd5b818103600083128015838313168383128216171561083757610837612af0565b600082600f0b82600f0b0280600f0b915080821461083757610837612af0565b600f82810b9082900b037fffffffffffffffffffffffffffffffff8000000000000000000000000000000081126f7fffffffffffffffffffffffffffffff8213171561083957610839612af0565b600181811c90821680612bc157607f821691505b6020821081036113b3577f4e487b7100000000000000000000000000000000000000000000000000000000600052602260045260246000fd5b8181038181111561083957610839612af0565b600060208284031215612c1f57600080fd5b81518015158114612ac757600080fd5b7f4e487b7100000000000000000000000000000000000000000000000000000000600052601260045260246000fd5b8082018082111561083957610839612af0565b808202811582820484141761083957610839612af0565b600082612cbe577f4e487b7100000000000000000000000000000000000000000000000000000000600052601260045260246000fd5b500490565b600f81810b9083900b016f7fffffffffffffffffffffffffffffff81137fffffffffffffffffffffffffffffffff800000000000000000000000000000008212171561083957610839612af0565b6fffffffffffffffffffffffffffffffff82811682821603908082111561083757610837612af056fea2646970667358221220ac3ec70de78a38eef2d939ffaafc02a0f0adf1ed32d5f1be02b78190b61f51de64736f6c63430008120033",
  "linkReferences": {},
  "deployedLinkReferences": {}
}