{
  "_format": "hh-sol-artifact-1",
  "contractName": "VotingEscrow",
  "sourceName": "contracts/VotingEscrow.sol",
  "abi": [
    {
      "inputs": [
        {
          "internalType": "address",
          "name": "tokenAddr_",
          "type": "address"
        },
        {
          "internalType": "string",
          "name": "name_",
          "type": "string"
        },
        {
          "internalType": "string",
          "name": "symbol_",
          "type": "string"
        },
        {
          "internalType": "string",
          "name": "version_",
          "type": "string"
        }
      ],
      "stateMutability": "nonpayable",
      "type": "constructor"
    },
    {
      "anonymous": false,
      "inputs": [
        {
          "indexed": false,
          "internalType": "address",
          "name": "admin",
          "type": "address"
        }
      ],
      "name": "ApplyOwnership",
      "type": "event"
    },
    {
      "anonymous": false,
      "inputs": [
        {
          "indexed": false,
          "internalType": "address",
          "name": "admin",
          "type": "address"
        }
      ],
      "name": "CommitOwnership",
      "type": "event"
    },
    {
      "anonymous": false,
      "inputs": [
        {
          "indexed": true,
          "internalType": "address",
          "name": "provider",
          "type": "address"
        },
        {
          "indexed": false,
          "internalType": "uint256",
          "name": "value",
          "type": "uint256"
        },
        {
          "indexed": true,
          "internalType": "uint256",
          "name": "locktime",
          "type": "uint256"
        },
        {
          "indexed": false,
          "internalType": "uint128",
          "name": "_type",
          "type": "uint128"
        },
        {
          "indexed": false,
          "internalType": "uint256",
          "name": "ts",
          "type": "uint256"
        }
      ],
      "name": "Deposit",
      "type": "event"
    },
    {
      "anonymous": false,
      "inputs": [
        {
          "indexed": false,
          "internalType": "uint256",
          "name": "prevSupply",
          "type": "uint256"
        },
        {
          "indexed": false,
          "internalType": "uint256",
          "name": "supply",
          "type": "uint256"
        }
      ],
      "name": "Supply",
      "type": "event"
    },
    {
      "anonymous": false,
      "inputs": [
        {
          "indexed": true,
          "internalType": "address",
          "name": "provider",
          "type": "address"
        },
        {
          "indexed": false,
          "internalType": "uint256",
          "name": "value",
          "type": "uint256"
        },
        {
          "indexed": false,
          "internalType": "uint256",
          "name": "ts",
          "type": "uint256"
        }
      ],
      "name": "Withdraw",
      "type": "event"
    },
    {
      "inputs": [],
      "name": "MAXTIME",
      "outputs": [
        {
          "internalType": "uint256",
          "name": "",
          "type": "uint256"
        }
      ],
      "stateMutability": "view",
      "type": "function"
    },
    {
      "inputs": [],
      "name": "MULTIPLIER",
      "outputs": [
        {
          "internalType": "uint256",
          "name": "",
          "type": "uint256"
        }
      ],
      "stateMutability": "view",
      "type": "function"
    },
    {
      "inputs": [],
      "name": "WEEK",
      "outputs": [
        {
          "internalType": "uint256",
          "name": "",
          "type": "uint256"
        }
      ],
      "stateMutability": "view",
      "type": "function"
    },
    {
      "inputs": [],
      "name": "admin",
      "outputs": [
        {
          "internalType": "address",
          "name": "",
          "type": "address"
        }
      ],
      "stateMutability": "view",
      "type": "function"
    },
    {
      "inputs": [],
      "name": "applySmartWalletChecker",
      "outputs": [],
      "stateMutability": "nonpayable",
      "type": "function"
    },
    {
      "inputs": [],
      "name": "applyTransferOwnership",
      "outputs": [],
      "stateMutability": "nonpayable",
      "type": "function"
    },
    {
      "inputs": [
        {
          "internalType": "address",
          "name": "addr_",
          "type": "address"
        },
        {
          "internalType": "uint256",
          "name": "t_",
          "type": "uint256"
        }
      ],
      "name": "balanceOf",
      "outputs": [
        {
          "internalType": "uint256",
          "name": "",
          "type": "uint256"
        }
      ],
      "stateMutability": "view",
      "type": "function"
    },
    {
      "inputs": [
        {
          "internalType": "address",
          "name": "addr_",
          "type": "address"
        }
      ],
      "name": "balanceOf",
      "outputs": [
        {
          "internalType": "uint256",
          "name": "",
          "type": "uint256"
        }
      ],
      "stateMutability": "view",
      "type": "function"
    },
    {
      "inputs": [
        {
          "internalType": "address",
          "name": "addr_",
          "type": "address"
        },
        {
          "internalType": "uint256",
          "name": "block_",
          "type": "uint256"
        }
      ],
      "name": "balanceOfAt",
      "outputs": [
        {
          "internalType": "uint256",
          "name": "",
          "type": "uint256"
        }
      ],
      "stateMutability": "view",
      "type": "function"
    },
    {
      "inputs": [
        {
          "internalType": "address",
          "name": "newController",
          "type": "address"
        }
      ],
      "name": "changeController",
      "outputs": [],
      "stateMutability": "nonpayable",
      "type": "function"
    },
    {
      "inputs": [],
      "name": "checkpoint",
      "outputs": [],
      "stateMutability": "nonpayable",
      "type": "function"
    },
    {
      "inputs": [
        {
          "internalType": "address",
          "name": "addr_",
          "type": "address"
        }
      ],
      "name": "commitSmartWalletChecker",
      "outputs": [],
      "stateMutability": "nonpayable",
      "type": "function"
    },
    {
      "inputs": [
        {
          "internalType": "address",
          "name": "addr_",
          "type": "address"
        }
      ],
      "name": "commitTransferOwnership",
      "outputs": [],
      "stateMutability": "nonpayable",
      "type": "function"
    },
    {
      "inputs": [],
      "name": "controller",
      "outputs": [
        {
          "internalType": "address",
          "name": "",
          "type": "address"
        }
      ],
      "stateMutability": "view",
      "type": "function"
    },
    {
      "inputs": [
        {
          "internalType": "uint256",
          "name": "value_",
          "type": "uint256"
        },
        {
          "internalType": "uint256",
          "name": "unlockTime_",
          "type": "uint256"
        }
      ],
      "name": "createLock",
      "outputs": [],
      "stateMutability": "nonpayable",
      "type": "function"
    },
    {
      "inputs": [],
      "name": "decimals",
      "outputs": [
        {
          "internalType": "uint256",
          "name": "",
          "type": "uint256"
        }
      ],
      "stateMutability": "view",
      "type": "function"
    },
    {
      "inputs": [
        {
          "internalType": "address",
          "name": "addr_",
          "type": "address"
        },
        {
          "internalType": "uint256",
          "name": "value_",
          "type": "uint256"
        }
      ],
      "name": "depositFor",
      "outputs": [],
      "stateMutability": "nonpayable",
      "type": "function"
    },
    {
      "inputs": [],
      "name": "epoch",
      "outputs": [
        {
          "internalType": "uint256",
          "name": "",
          "type": "uint256"
        }
      ],
      "stateMutability": "view",
      "type": "function"
    },
    {
      "inputs": [],
      "name": "futureAdmin",
      "outputs": [
        {
          "internalType": "address",
          "name": "",
          "type": "address"
        }
      ],
      "stateMutability": "view",
      "type": "function"
    },
    {
      "inputs": [],
      "name": "futureSmartWalletChecker",
      "outputs": [
        {
          "internalType": "address",
          "name": "",
          "type": "address"
        }
      ],
      "stateMutability": "view",
      "type": "function"
    },
    {
      "inputs": [
        {
          "internalType": "address",
          "name": "addr_",
          "type": "address"
        }
      ],
      "name": "getLastUserSlope",
      "outputs": [
        {
          "internalType": "int128",
          "name": "",
          "type": "int128"
        }
      ],
      "stateMutability": "view",
      "type": "function"
    },
    {
      "inputs": [
        {
          "internalType": "uint256",
          "name": "value_",
          "type": "uint256"
        }
      ],
      "name": "increaseAmount",
      "outputs": [],
      "stateMutability": "nonpayable",
      "type": "function"
    },
    {
      "inputs": [
        {
          "internalType": "uint256",
          "name": "unlockTime_",
          "type": "uint256"
        }
      ],
      "name": "increaseUnlockTime",
      "outputs": [],
      "stateMutability": "nonpayable",
      "type": "function"
    },
    {
      "inputs": [
        {
          "internalType": "address",
          "name": "",
          "type": "address"
        }
      ],
      "name": "locked",
      "outputs": [
        {
          "internalType": "int128",
          "name": "amount",
          "type": "int128"
        },
        {
          "internalType": "uint256",
          "name": "end",
          "type": "uint256"
        }
      ],
      "stateMutability": "view",
      "type": "function"
    },
    {
      "inputs": [
        {
          "internalType": "address",
          "name": "addr_",
          "type": "address"
        }
      ],
      "name": "lockedEnd",
      "outputs": [
        {
          "internalType": "uint256",
          "name": "",
          "type": "uint256"
        }
      ],
      "stateMutability": "view",
      "type": "function"
    },
    {
      "inputs": [],
      "name": "name",
      "outputs": [
        {
          "internalType": "string",
          "name": "",
          "type": "string"
        }
      ],
      "stateMutability": "view",
      "type": "function"
    },
    {
      "inputs": [
        {
          "internalType": "uint256",
          "name": "",
          "type": "uint256"
        }
      ],
      "name": "pointHistory",
      "outputs": [
        {
          "internalType": "int128",
          "name": "bias",
          "type": "int128"
        },
        {
          "internalType": "int128",
          "name": "slope",
          "type": "int128"
        },
        {
          "internalType": "uint256",
          "name": "ts",
          "type": "uint256"
        },
        {
          "internalType": "uint256",
          "name": "blk",
          "type": "uint256"
        }
      ],
      "stateMutability": "view",
      "type": "function"
    },
    {
      "inputs": [
        {
          "internalType": "uint256",
          "name": "",
          "type": "uint256"
        }
      ],
      "name": "slopeChanges",
      "outputs": [
        {
          "internalType": "int128",
          "name": "",
          "type": "int128"
        }
      ],
      "stateMutability": "view",
      "type": "function"
    },
    {
      "inputs": [],
      "name": "smartWalletChecker",
      "outputs": [
        {
          "internalType": "address",
          "name": "",
          "type": "address"
        }
      ],
      "stateMutability": "view",
      "type": "function"
    },
    {
      "inputs": [],
      "name": "supply",
      "outputs": [
        {
          "internalType": "uint256",
          "name": "",
          "type": "uint256"
        }
      ],
      "stateMutability": "view",
      "type": "function"
    },
    {
      "inputs": [],
      "name": "symbol",
      "outputs": [
        {
          "internalType": "string",
          "name": "",
          "type": "string"
        }
      ],
      "stateMutability": "view",
      "type": "function"
    },
    {
      "inputs": [],
      "name": "token",
      "outputs": [
        {
          "internalType": "address",
          "name": "",
          "type": "address"
        }
      ],
      "stateMutability": "view",
      "type": "function"
    },
    {
      "inputs": [],
      "name": "totalSupply",
      "outputs": [
        {
          "internalType": "uint256",
          "name": "",
          "type": "uint256"
        }
      ],
      "stateMutability": "view",
      "type": "function"
    },
    {
      "inputs": [
        {
          "internalType": "uint256",
          "name": "t_",
          "type": "uint256"
        }
      ],
      "name": "totalSupply",
      "outputs": [
        {
          "internalType": "uint256",
          "name": "",
          "type": "uint256"
        }
      ],
      "stateMutability": "view",
      "type": "function"
    },
    {
      "inputs": [
        {
          "internalType": "uint256",
          "name": "block_",
          "type": "uint256"
        }
      ],
      "name": "totalSupplyAt",
      "outputs": [
        {
          "internalType": "uint256",
          "name": "",
          "type": "uint256"
        }
      ],
      "stateMutability": "view",
      "type": "function"
    },
    {
      "inputs": [],
      "name": "transfersEnabled",
      "outputs": [
        {
          "internalType": "bool",
          "name": "",
          "type": "bool"
        }
      ],
      "stateMutability": "view",
      "type": "function"
    },
    {
      "inputs": [
        {
          "internalType": "address",
          "name": "",
          "type": "address"
        }
      ],
      "name": "userPointEpoch",
      "outputs": [
        {
          "internalType": "uint256",
          "name": "",
          "type": "uint256"
        }
      ],
      "stateMutability": "view",
      "type": "function"
    },
    {
      "inputs": [
        {
          "internalType": "address",
          "name": "",
          "type": "address"
        },
        {
          "internalType": "uint256",
          "name": "",
          "type": "uint256"
        }
      ],
      "name": "userPointHistory",
      "outputs": [
        {
          "internalType": "int128",
          "name": "bias",
          "type": "int128"
        },
        {
          "internalType": "int128",
          "name": "slope",
          "type": "int128"
        },
        {
          "internalType": "uint256",
          "name": "ts",
          "type": "uint256"
        },
        {
          "internalType": "uint256",
          "name": "blk",
          "type": "uint256"
        }
      ],
      "stateMutability": "view",
      "type": "function"
    },
    {
      "inputs": [
        {
          "internalType": "address",
          "name": "addr_",
          "type": "address"
        },
        {
          "internalType": "uint256",
          "name": "idx_",
          "type": "uint256"
        }
      ],
      "name": "userPointHistoryTs",
      "outputs": [
        {
          "internalType": "uint256",
          "name": "",
          "type": "uint256"
        }
      ],
      "stateMutability": "view",
      "type": "function"
    },
    {
      "inputs": [],
      "name": "version",
      "outputs": [
        {
          "internalType": "string",
          "name": "",
          "type": "string"
        }
      ],
      "stateMutability": "view",
      "type": "function"
    },
    {
      "inputs": [],
      "name": "withdraw",
      "outputs": [],
      "stateMutability": "nonpayable",
      "type": "function"
    }
  ],
  "bytecode": "0x60806040523480156200001157600080fd5b5060405162003242380380620032428339810160408190526200003491620002af565b60016000818155601080546001600160a01b03199081163390811790925583546001600160a01b0389169116811790935581805260056020908152437f05b8ccbb9d4d8fb16ea74ce3c29a41f1b461fbdaff4714a0d9a8eb05499746be55427f05b8ccbb9d4d8fb16ea74ce3c29a41f1b461fbdaff4714a0d9a8eb05499746bd556009805460ff60a01b199093166001600160a81b031990931692909217600160a01b179091556040805163313ce56760e01b8152905192939263313ce567926004808401939192918290030181865afa15801562000117573d6000803e3d6000fd5b505050506040513d601f19601f820116820180604052508101906200013d919062000361565b60ff16905060ff811115620001ad5760405162461bcd60e51b815260206004820152602c60248201527f446563696d616c732073686f756c64206265206c657373207468616e206f722060448201526b657175616c20746f2032353560a01b606482015260840160405180910390fd5b600d819055600a620001c085826200041c565b50600b620001cf84826200041c565b50600c620001de83826200041c565b505050505050620004e8565b634e487b7160e01b600052604160045260246000fd5b600082601f8301126200021257600080fd5b81516001600160401b03808211156200022f576200022f620001ea565b604051601f8301601f19908116603f011681019082821181831017156200025a576200025a620001ea565b816040528381526020925086838588010111156200027757600080fd5b600091505b838210156200029b57858201830151818301840152908201906200027c565b600093810190920192909252949350505050565b60008060008060808587031215620002c657600080fd5b84516001600160a01b0381168114620002de57600080fd5b60208601519094506001600160401b0380821115620002fc57600080fd5b6200030a8883890162000200565b945060408701519150808211156200032157600080fd5b6200032f8883890162000200565b935060608701519150808211156200034657600080fd5b50620003558782880162000200565b91505092959194509250565b6000602082840312156200037457600080fd5b815160ff811681146200038657600080fd5b9392505050565b600181811c90821680620003a257607f821691505b602082108103620003c357634e487b7160e01b600052602260045260246000fd5b50919050565b601f8211156200041757600081815260208120601f850160051c81016020861015620003f25750805b601f850160051c820191505b818110156200041357828155600101620003fe565b5050505b505050565b81516001600160401b03811115620004385762000438620001ea565b62000450816200044984546200038d565b84620003c9565b602080601f8311600181146200048857600084156200046f5750858301515b600019600386901b1c1916600185901b17855562000413565b600085815260208120601f198616915b82811015620004b95788860151825594840194600190910190840162000498565b5085821015620004d85787850151600019600388901b60f8161c191681555b5050505050600190811b01905550565b612d4a80620004f86000396000f3fe608060405234801561001057600080fd5b50600436106102d25760003560e01c80638ad4c44711610186578063df0ab9d3116100e3578063f3a6d60811610097578063f77c479111610071578063f77c479114610701578063f851a44014610714578063fc0c546a1461072757600080fd5b8063f3a6d6081461066e578063f4359ce5146106d4578063f52a36f7146106de57600080fd5b8063eac6a667116100c8578063eac6a66714610617578063ee00ef3a14610650578063f08185831461065b57600080fd5b8063df0ab9d3146105fc578063e1cebf0b1461060457600080fd5b8063bd85b0391161013a578063c2c4c5c11161011f578063c2c4c5c1146105a4578063cbf9fe5f146105ac578063d4cfd627146105f457600080fd5b8063bd85b0391461055c578063bef97c871461056f57600080fd5b806395d89b411161016b57806395d89b411461052e578063981b24d014610536578063b52c05fe1461054957600080fd5b80638ad4c447146104da578063900cf0cf1461052557600080fd5b80633ccfd60b1161023457806354fd4d50116101e85780637c616fe6116101cd5780637c616fe6146104945780637df14854146104a757806381fc83bb146104ba57600080fd5b806354fd4d501461047957806370a082311461048157600080fd5b80634cb654af116102195780634cb654af146104275780634deafcae1461043a5780634ee2cd7e1461046657600080fd5b80633ccfd60b1461040c5780633cebb8231461041457600080fd5b8063155bcbbd1161028b5780632f4f21e2116102705780632f4f21e214610372578063313ce5671461038557806334d901a41461038e57600080fd5b8063155bcbbd1461033f57806318160ddd1461036a57600080fd5b8063059f8b16116102bc578063059f8b161461030657806306fdde031461031557806315456eba1461032a57600080fd5b8062fdd58e146102d7578063047fc9aa146102fd575b600080fd5b6102ea6102e53660046129d7565b61073a565b6040519081526020015b60405180910390f35b6102ea60025481565b6102ea670de0b6b3a764000081565b61031d610824565b6040516102f49190612a01565b61033d610338366004612a6d565b6108b2565b005b600e54610352906001600160a01b031681565b6040516001600160a01b0390911681526020016102f4565b6102ea610a2b565b61033d6103803660046129d7565b610a97565b6102ea600d5481565b6103e461039c3660046129d7565b6006602090815260009283526040808420909152908252902080546001820154600290920154600f82810b93700100000000000000000000000000000000909304900b919084565b60408051600f95860b81529390940b60208401529282015260608101919091526080016102f4565b61033d610c41565b61033d610422366004612a86565b610eeb565b601154610352906001600160a01b031681565b6102ea610448366004612a86565b6001600160a01b031660009081526003602052604090206001015490565b6102ea6104743660046129d7565b610fa5565b61031d6112ac565b6102ea61048f366004612a86565b6112b9565b61033d6104a2366004612a6d565b61139e565b600f54610352906001600160a01b031681565b6102ea6104c8366004612a86565b60076020526000908152604090205481565b6103e46104e8366004612a6d565b600560205260009081526040902080546001820154600290920154600f82810b93700100000000000000000000000000000000909304900b919084565b6102ea60045481565b61031d611554565b6102ea610544366004612a6d565b611561565b61033d610557366004612aa8565b61175d565b6102ea61056a366004612a6d565b611940565b6009546105949074010000000000000000000000000000000000000000900460ff1681565b60405190151581526020016102f4565b61033d6119ad565b6105da6105ba366004612a86565b60036020526000908152604090208054600190910154600f9190910b9082565b60408051600f9390930b83526020830191909152016102f4565b61033d6119e1565b61033d611a77565b61033d610612366004612a86565b611b97565b6102ea6106253660046129d7565b6001600160a01b03919091166000908152600660209081526040808320938352929052206001015490565b6102ea630784ce0081565b61033d610669366004612a86565b611c57565b6106c161067c366004612a86565b6001600160a01b0316600090815260076020908152604080832054600683528184209084529091529020547001000000000000000000000000000000009004600f0b90565b604051600f9190910b81526020016102f4565b6102ea62093a8081565b6106c16106ec366004612a6d565b600860205260009081526040902054600f0b81565b600954610352906001600160a01b031681565b601054610352906001600160a01b031681565b600154610352906001600160a01b031681565b6001600160a01b03821660009081526007602052604081205480820361076457600091505061081e565b6001600160a01b038416600090815260066020908152604080832084845282529182902082516080810184528154600f81810b8352700100000000000000000000000000000000909104900b928101929092526001810154928201839052600201546060820152906107d69085612af9565b81602001516107e59190612b19565b815182906107f4908390612b39565b600f90810b90915282516000910b1215905061080f57600081525b51600f0b915061081e9050565b505b92915050565b600a805461083190612b87565b80601f016020809104026020016040519081016040528092919081815260200182805461085d90612b87565b80156108aa5780601f1061087f576101008083540402835291602001916108aa565b820191906000526020600020905b81548152906001019060200180831161088d57829003601f168201915b505050505081565b6108ba611ceb565b6108c333611d44565b3360009081526003602090815260409182902082518084019093528054600f0b835260010154908201528161093f5760405162461bcd60e51b815260206004820152601360248201527f4e656564206e6f6e2d7a65726f2076616c75650000000000000000000000000060448201526064015b60405180910390fd5b60008160000151600f0b136109965760405162461bcd60e51b815260206004820152601660248201527f4e6f206578697374696e67206c6f636b20666f756e64000000000000000000006044820152606401610936565b42816020015111610a0e5760405162461bcd60e51b8152602060048201526024808201527f43616e6e6f742061646420746f2065787069726564206c6f636b2e205769746860448201527f64726177000000000000000000000000000000000000000000000000000000006064820152608401610936565b610a1d33836000846002611e66565b50610a286001600055565b50565b600454600081815260056020908152604080832081516080810183528154600f81810b8352700100000000000000000000000000000000909104900b93810193909352600181015491830191909152600201546060820152909190610a9081426120d8565b9250505090565b610a9f611ceb565b6001600160a01b03821660009081526003602090815260409182902082518084019093528054600f0b8352600101549082015281610b1f5760405162461bcd60e51b815260206004820152601360248201527f4e656564206e6f6e2d7a65726f2076616c7565000000000000000000000000006044820152606401610936565b60008160000151600f0b13610b765760405162461bcd60e51b815260206004820152601660248201527f4e6f206578697374696e67206c6f636b20666f756e64000000000000000000006044820152606401610936565b42816020015111610bee5760405162461bcd60e51b8152602060048201526024808201527f43616e6e6f742061646420746f2065787069726564206c6f636b2e205769746860448201527f64726177000000000000000000000000000000000000000000000000000000006064820152608401610936565b6001600160a01b038316600090815260036020908152604080832081518083019092528054600f0b82526001015491810191909152610c3291859185919081611e66565b50610c3d6001600055565b5050565b610c49611ceb565b604080518082018252336000818152600360208181529482208054600f0b85529290915283526001015491810182905290421015610cc95760405162461bcd60e51b815260206004820152601660248201527f546865206c6f636b206469646e277420657870697265000000000000000000006044820152606401610936565b8051604080518082018252336000818152600360208181528583208054600f81810b8852868652848452600183018054858a0152848c01878152878d528a51808c01909b528c51830b8b52518a8601908152979096529390925295516fffffffffffffffffffffffffffffffff167fffffffffffffffffffffffffffffffff0000000000000000000000000000000090911617909455905190556002549290910b91610d758382612bd4565b600255610d833383866121c6565b6001546040517fa9059cbb000000000000000000000000000000000000000000000000000000008152336004820152602481018590526001600160a01b039091169063a9059cbb906044016020604051808303816000875af1158015610ded573d6000803e3d6000fd5b505050506040513d601f19601f82011682018060405250810190610e119190612be7565b610e5d5760405162461bcd60e51b815260206004820152600f60248201527f5472616e73666572206661696c656400000000000000000000000000000000006044820152606401610936565b6040805184815242602082015233917ff279e6a1f5e320cca91135676d9cb6e44ca8a08c0b88342bcdb1144f6511b568910160405180910390a27f5e2aa66efd74cce82b21852e317e5490d9ecc9e6bb953ae24d90851258cc2f5c81610ec38582612bd4565b6040805192835260208301919091520160405180910390a150505050610ee96001600055565b565b6009546001600160a01b03163314610f6b5760405162461bcd60e51b815260206004820152602a60248201527f4f6e6c792074686520636f6e74726f6c6c65722063616e2063616c6c2074686960448201527f732066756e6374696f6e000000000000000000000000000000000000000000006064820152608401610936565b600980547fffffffffffffffffffffffff0000000000000000000000000000000000000000166001600160a01b0392909216919091179055565b600043821115610ff75760405162461bcd60e51b815260206004820152601b60248201527f43616e6e6f74206c6f6f6b2075702066757475726520626c6f636b00000000006044820152606401610936565b6001600160a01b038316600090815260076020526040812054815b60808110156110725781831015611072576001600160a01b038616600090815260066020908152604080832060028688016001018190048086529190935292200154861061106257809350611069565b6001810392505b50600101611012565b506001600160a01b0385166000908152600660209081526040808320858452825280832081516080810183528154600f81810b8352700100000000000000000000000000000000909104900b9381019390935260018101549183019190915260020154606082015260045490916110e9878361295f565b600081815260056020908152604080832081516080810183528154600f81810b8352700100000000000000000000000000000000909104900b9381019390935260018101549183019190915260020154606082015291925080848410156111e257600060058161115a876001612c38565b8152602080820192909252604090810160002081516080810183528154600f81810b8352700100000000000000000000000000000000909104900b938101939093526001810154918301919091526002015460608083018290528601519192506111c49190612bd4565b9250836040015181604001516111da9190612bd4565b915050611206565b60608301516111f19043612bd4565b91508260400151426112039190612bd4565b90505b60408301518215611243578284606001518c6112229190612bd4565b61122c9084612c4b565b6112369190612c62565b6112409082612c38565b90505b60408701516112529082612af9565b87602001516112619190612b19565b87518890611270908390612b39565b600f90810b90915288516000910b12905061129a5750509351600f0b965061081e95505050505050565b6000995050505050505050505061081e565b600c805461083190612b87565b6001600160a01b0381166000908152600760205260408120548082036112e25750600092915050565b6001600160a01b038316600090815260066020908152604080832084845282529182902082516080810184528154600f81810b8352700100000000000000000000000000000000909104900b928101929092526001810154928201839052600201546060820152906113549042612af9565b81602001516113639190612b19565b81518290611372908390612b39565b600f90810b90915282516000910b1215905061138d57600081525b51600f0b9392505050565b50919050565b6113a6611ceb565b6113af33611d44565b3360009081526003602090815260409182902082518084019093528054600f0b83526001015490820181905262093a80808404029042106114325760405162461bcd60e51b815260206004820152600c60248201527f4c6f636b206578706972656400000000000000000000000000000000000000006044820152606401610936565b60008260000151600f0b136114895760405162461bcd60e51b815260206004820152601160248201527f4e6f7468696e67206973206c6f636b65640000000000000000000000000000006044820152606401610936565b816020015181116114dc5760405162461bcd60e51b815260206004820152601f60248201527f43616e206f6e6c7920696e637265617365206c6f636b206475726174696f6e006044820152606401610936565b6114ea630784ce0042612c38565b8111156115395760405162461bcd60e51b815260206004820152601e60248201527f566f74696e67206c6f636b2063616e2062652034207965617273206d617800006044820152606401610936565b61154833600083856003611e66565b5050610a286001600055565b600b805461083190612b87565b6000438211156115b35760405162461bcd60e51b815260206004820152601460248201527f496e76616c696420626c6f636b206e756d6265720000000000000000000000006044820152606401610936565b60045460006115c2848361295f565b600081815260056020908152604080832081516080810183528154600f81810b8352700100000000000000000000000000000000909104900b93810193909352600181015491830191909152600201546060820152919250838310156116eb576000600581611632866001612c38565b8152602080820192909252604090810160002081516080810183528154600f81810b8352700100000000000000000000000000000000909104900b93810193909352600181015491830191909152600201546060808301829052850151919250146116e557826060015181606001516116ab9190612bd4565b836040015182604001516116bf9190612bd4565b60608501516116ce908a612bd4565b6116d89190612c4b565b6116e29190612c62565b91505b5061173a565b4382606001511461173a5760608201516117059043612bd4565b60408301516117149042612bd4565b60608401516117239089612bd4565b61172d9190612c4b565b6117379190612c62565b90505b6117538282846040015161174e9190612c38565b6120d8565b9695505050505050565b611765611ceb565b61176e33611d44565b600062093a8061177e8184612c62565b6117889190612c4b565b3360009081526003602090815260409182902082518084019093528054600f0b83526001015490820152909150836118025760405162461bcd60e51b815260206004820152601360248201527f4e656564206e6f6e2d7a65726f2076616c7565000000000000000000000000006044820152606401610936565b8051600f0b156118545760405162461bcd60e51b815260206004820152601960248201527f5769746864726177206f6c6420746f6b656e73206669727374000000000000006044820152606401610936565b4282116118c95760405162461bcd60e51b815260206004820152602660248201527f43616e206f6e6c79206c6f636b20756e74696c2074696d6520696e207468652060448201527f66757475726500000000000000000000000000000000000000000000000000006064820152608401610936565b6118d7630784ce0042612c38565b8211156119265760405162461bcd60e51b815260206004820152601e60248201527f566f74696e67206c6f636b2063616e2062652034207965617273206d617800006044820152606401610936565b611934338584846001611e66565b5050610c3d6001600055565b600454600081815260056020908152604080832081516080810183528154600f81810b8352700100000000000000000000000000000000909104900b938101939093526001810154918301919091526002015460608201529091906119a581856120d8565b949350505050565b60408051808201909152600080825260208201526040805180820190915260008082526020820152610c3d600083836121c6565b6010546001600160a01b03163314611a3b5760405162461bcd60e51b815260206004820152600a60248201527f61646d696e206f6e6c79000000000000000000000000000000000000000000006044820152606401610936565b600e54600f80547fffffffffffffffffffffffff0000000000000000000000000000000000000000166001600160a01b03909216919091179055565b6010546001600160a01b03163314611ad15760405162461bcd60e51b815260206004820152600a60248201527f61646d696e206f6e6c79000000000000000000000000000000000000000000006044820152606401610936565b6011546001600160a01b031680611b2a5760405162461bcd60e51b815260206004820152600d60248201527f61646d696e206e6f7420736574000000000000000000000000000000000000006044820152606401610936565b601080547fffffffffffffffffffffffff0000000000000000000000000000000000000000166001600160a01b0383169081179091556040519081527febee2d5739011062cb4f14113f3b36bf0ffe3da5c0568f64189d1012a1189105906020015b60405180910390a150565b6010546001600160a01b03163314611bf15760405162461bcd60e51b815260206004820152600a60248201527f61646d696e206f6e6c79000000000000000000000000000000000000000000006044820152606401610936565b601180547fffffffffffffffffffffffff0000000000000000000000000000000000000000166001600160a01b0383169081179091556040519081527f2f56810a6bf40af059b96d3aea4db54081f378029a518390491093a7b67032e990602001611b8c565b6010546001600160a01b03163314611cb15760405162461bcd60e51b815260206004820152600a60248201527f61646d696e206f6e6c79000000000000000000000000000000000000000000006044820152606401610936565b600e80547fffffffffffffffffffffffff0000000000000000000000000000000000000000166001600160a01b0392909216919091179055565b600260005403611d3d5760405162461bcd60e51b815260206004820152601f60248201527f5265656e7472616e637947756172643a207265656e7472616e742063616c6c006044820152606401610936565b6002600055565b6001600160a01b0381163214610a2857600f546001600160a01b03168015801590611def57506040517fc23697a80000000000000000000000000000000000000000000000000000000081526001600160a01b03838116600483015282169063c23697a8906024016020604051808303816000875af1158015611dcb573d6000803e3d6000fd5b505050506040513d601f19601f82011682018060405250810190611def9190612be7565b15611df8575050565b60405162461bcd60e51b815260206004820152602560248201527f536d61727420636f6e7472616374206465706f7369746f7273206e6f7420616c60448201527f6c6f7765640000000000000000000000000000000000000000000000000000006064820152608401610936565b6040805180820182528351600f90810b825260208086018051828501528451808601909552865190920b8452905190830152600254909190611ea88782612c38565b600255825187908490611ebc908390612c9d565b600f0b9052508515611ed057602083018690525b6001600160a01b0388166000908152600360209081526040909120845181547fffffffffffffffffffffffffffffffff00000000000000000000000000000000166fffffffffffffffffffffffffffffffff90911617815590840151600190910155611f3d8883856121c6565b8615612025576001546040517f23b872dd0000000000000000000000000000000000000000000000000000000081526001600160a01b038a81166004830152306024830152604482018a9052909116906323b872dd906064016020604051808303816000875af1158015611fb5573d6000803e3d6000fd5b505050506040513d601f19601f82011682018060405250810190611fd99190612be7565b6120255760405162461bcd60e51b815260206004820152600f60248201527f5472616e73666572206661696c656400000000000000000000000000000000006044820152606401610936565b602080840151604080518a81526fffffffffffffffffffffffffffffffff8816938101939093524290830152906001600160a01b038a16907fe6b4b2f1b9fef6bea3326b5f3efe29731e48b50360a2b8a10bf751c4cd0cd0239060600160405180910390a37f5e2aa66efd74cce82b21852e317e5490d9ecc9e6bb953ae24d90851258cc2f5c816120b68982612c38565b6040805192835260208301919091520160405180910390a15050505050505050565b600080839050600062093a80808360400151816120f7576120f7612c09565b0402905060005b60ff8110156121a45761211462093a8083612c38565b91506000858311156121285785925061213c565b50600082815260086020526040902054600f0b5b604084015161214b9084612af9565b846020015161215a9190612b19565b84518590612169908390612b39565b600f0b90525085830361217c57506121a4565b808460200181815161218e9190612c9d565b600f0b90525050604083018290526001016120fe565b5060008260000151600f0b12156121ba57600082525b5051600f0b9392505050565b60408051608081018252600080825260208201819052918101829052606081019190915260408051608081018252600080825260208201819052918101829052606081019190915260045460009081906001600160a01b0388161561233f5742876020015111801561223f575060008760000151600f0b135b1561227f578651630784ce0090600f0b05600f0b60208087019190915287015161226a904290612bd4565b85602001516122799190612b19565b600f0b85525b428660200151118015612299575060008660000151600f0b135b156122e8578551630784ce00906fffffffffffffffffffffffffffffffff1604600f0b6020808601919091528601516122d3904290612bd4565b84602001516122e29190612b19565b600f0b84525b602080880151600090815260088252604090205490870151600f9190910b93501561233f5786602001518660200151036123245782915061233f565b602080870151600090815260089091526040902054600f0b91505b6040805160808101825260008082526020820152429181019190915243606082015281156123c35750604080516080810182526000838152600560208181528483208054600f81810b8752700100000000000000000000000000000000909104900b8286015260018101549585019590955291859052905260029091015460608201525b600081604001519050600060405180608001604052808460000151600f0b81526020018460200151600f0b81526020018460400151815260200184606001518152509050600083604001514211156124525760408401516124249042612bd4565b60608501516124339043612bd4565b61244590670de0b6b3a7640000612c4b565b61244f9190612c62565b90505b62093a808084040260005b60ff8110156126095761247362093a8083612c38565b91506000428311156124875742925061249b565b50600082815260086020526040902054600f0b5b6124a58684612ceb565b87602001516124b49190612b19565b875188906124c3908390612b39565b600f0b9052506020870180518291906124dd908390612c9d565b600f90810b90915288516000910b121590506124f857600087525b60008760200151600f0b121561251057600060208801525b60408088018490528501519295508592670de0b6b3a7640000906125349085612bd4565b61253e9086612c4b565b6125489190612c62565b85606001516125579190612c38565b6060880152612567600189612c38565b975042830361257c5750436060870152612609565b604080516080810182528851600f90810b82526020808b015190910b8183019081528a8401518385019081526060808d015190850190815260008e8152600590945294909220925190516fffffffffffffffffffffffffffffffff90811670010000000000000000000000000000000002911617825551600182015590516002909101555060010161245d565b5060048690556001600160a01b038d161561269c57896020015189602001516126329190612b39565b856020018181516126439190612c9d565b600f0b905250895189516126579190612b39565b85518690612666908390612c9d565b600f90810b90915260208701516000910b1215905061268757600060208601525b60008560000151600f0b121561269c57600085525b6000868152600560209081526040918290208751918801516fffffffffffffffffffffffffffffffff90811670010000000000000000000000000000000002921691909117815590860151600182015560608601516002909101558c6001600160a01b0381161561294f57428d6020015111156127945760208b0151612722908a612c9d565b98508c602001518c60200151036127455760208a0151612742908a612b39565b98505b60208d810151600090815260089091526040902080547fffffffffffffffffffffffffffffffff00000000000000000000000000000000166fffffffffffffffffffffffffffffffff8b161790555b428c602001511115612810578c602001518c6020015111156128105760208a01516127bf9089612b39565b60208d810151600090815260089091526040902080547fffffffffffffffffffffffffffffffff00000000000000000000000000000000166fffffffffffffffffffffffffffffffff831617905597505b600060076000836001600160a01b03166001600160a01b031681526020019081526020016000205460010190508060076000846001600160a01b03166001600160a01b0316815260200190815260200160002081905550428b6040018181525050438b60600181815250508a60066000846001600160a01b03166001600160a01b03168152602001908152602001600020600083815260200190815260200160002060008201518160000160006101000a8154816fffffffffffffffffffffffffffffffff0219169083600f0b6fffffffffffffffffffffffffffffffff16021790555060208201518160000160106101000a8154816fffffffffffffffffffffffffffffffff0219169083600f0b6fffffffffffffffffffffffffffffffff1602179055506040820151816001015560608201518160020155905050505b5050505050505050505050505050565b60008082815b60808110156129b157818310156129b157600282840160010181900460008181526005602052604090209091015487106129a1578093506129a8565b6001810392505b50600101612965565b5090949350505050565b80356001600160a01b03811681146129d257600080fd5b919050565b600080604083850312156129ea57600080fd5b6129f3836129bb565b946020939093013593505050565b600060208083528351808285015260005b81811015612a2e57858101830151858201604001528201612a12565b5060006040828601015260407fffffffffffffffffffffffffffffffffffffffffffffffffffffffffffffffe0601f8301168501019250505092915050565b600060208284031215612a7f57600080fd5b5035919050565b600060208284031215612a9857600080fd5b612aa1826129bb565b9392505050565b60008060408385031215612abb57600080fd5b50508035926020909101359150565b7f4e487b7100000000000000000000000000000000000000000000000000000000600052601160045260246000fd5b818103600083128015838313168383128216171561081c5761081c612aca565b600082600f0b82600f0b0280600f0b915080821461081c5761081c612aca565b600f82810b9082900b037fffffffffffffffffffffffffffffffff8000000000000000000000000000000081126f7fffffffffffffffffffffffffffffff8213171561081e5761081e612aca565b600181811c90821680612b9b57607f821691505b602082108103611398577f4e487b7100000000000000000000000000000000000000000000000000000000600052602260045260246000fd5b8181038181111561081e5761081e612aca565b600060208284031215612bf957600080fd5b81518015158114612aa157600080fd5b7f4e487b7100000000000000000000000000000000000000000000000000000000600052601260045260246000fd5b8082018082111561081e5761081e612aca565b808202811582820484141761081e5761081e612aca565b600082612c98577f4e487b7100000000000000000000000000000000000000000000000000000000600052601260045260246000fd5b500490565b600f81810b9083900b016f7fffffffffffffffffffffffffffffff81137fffffffffffffffffffffffffffffffff800000000000000000000000000000008212171561081e5761081e612aca565b6fffffffffffffffffffffffffffffffff82811682821603908082111561081c5761081c612aca56fea2646970667358221220349d44222cd5c6012ed56d68f92b6f20ca5934072a26a768484eb6e37598c6a864736f6c63430008120033",
  "linkReferences": {},
  "deployedLinkReferences": {}
}