{
  "_format": "hh-sol-artifact-1",
  "contractName": "BulksaleV1",
  "sourceName": "contracts/BulksaleV1.sol",
  "abi": [
    {
      "anonymous": false,
      "inputs": [
        {
          "indexed": true,
          "internalType": "address",
          "name": "account",
          "type": "address"
        },
        {
          "indexed": false,
          "internalType": "uint256",
          "name": "userShare",
          "type": "uint256"
        },
        {
          "indexed": false,
          "internalType": "uint256",
          "name": "erc20allocation",
          "type": "uint256"
        }
      ],
      "name": "Claimed",
      "type": "event"
    },
    {
      "anonymous": false,
      "inputs": [
        {
          "indexed": false,
          "internalType": "uint256",
          "name": "distributeAmount",
          "type": "uint256"
        },
        {
          "indexed": true,
          "internalType": "bytes",
          "name": "abiBytes",
          "type": "bytes"
        }
      ],
      "name": "Initialized",
      "type": "event"
    },
    {
      "anonymous": false,
      "inputs": [
        {
          "indexed": true,
          "internalType": "address",
          "name": "account",
          "type": "address"
        },
        {
          "indexed": false,
          "internalType": "uint256",
          "name": "amount",
          "type": "uint256"
        }
      ],
      "name": "Received",
      "type": "event"
    },
    {
      "anonymous": false,
      "inputs": [
        {
          "indexed": true,
          "internalType": "address",
          "name": "sender",
          "type": "address"
        },
        {
          "indexed": false,
          "internalType": "uint256",
          "name": "balance",
          "type": "uint256"
        }
      ],
      "name": "WithdrawnAfterLockDuration",
      "type": "event"
    },
    {
      "anonymous": false,
      "inputs": [
        {
          "indexed": true,
          "internalType": "address",
          "name": "sender",
          "type": "address"
        },
        {
          "indexed": false,
          "internalType": "uint256",
          "name": "balance",
          "type": "uint256"
        }
      ],
      "name": "WithdrawnOnFailed",
      "type": "event"
    },
    {
      "inputs": [
        {
          "internalType": "address",
          "name": "contributor",
          "type": "address"
        },
        {
          "internalType": "address",
          "name": "recipient",
          "type": "address"
        }
      ],
      "name": "claim",
      "outputs": [],
      "stateMutability": "nonpayable",
      "type": "function"
    },
    {
      "inputs": [],
      "name": "closingAt",
      "outputs": [
        {
          "internalType": "uint256",
          "name": "",
          "type": "uint256"
        }
      ],
      "stateMutability": "view",
      "type": "function"
    },
    {
      "inputs": [],
      "name": "distributeAmount",
      "outputs": [
        {
          "internalType": "uint256",
          "name": "",
          "type": "uint256"
        }
      ],
      "stateMutability": "view",
      "type": "function"
    },
    {
      "inputs": [],
      "name": "erc20onsale",
      "outputs": [
        {
          "internalType": "contract IERC20",
          "name": "",
          "type": "address"
        }
      ],
      "stateMutability": "view",
      "type": "function"
    },
    {
      "inputs": [],
      "name": "expirationDuration",
      "outputs": [
        {
          "internalType": "uint32",
          "name": "",
          "type": "uint32"
        }
      ],
      "stateMutability": "view",
      "type": "function"
    },
    {
      "inputs": [],
      "name": "factory",
      "outputs": [
        {
          "internalType": "address",
          "name": "",
          "type": "address"
        }
      ],
      "stateMutability": "view",
      "type": "function"
    },
    {
      "inputs": [],
      "name": "feeRatePerMil",
      "outputs": [
        {
          "internalType": "uint8",
          "name": "",
          "type": "uint8"
        }
      ],
      "stateMutability": "view",
      "type": "function"
    },
    {
      "inputs": [
        {
          "internalType": "uint256",
          "name": "distributeAmount_",
          "type": "uint256"
        },
        {
          "internalType": "bytes",
          "name": "abiBytes",
          "type": "bytes"
        }
      ],
      "name": "initialize",
      "outputs": [
        {
          "internalType": "bool",
          "name": "",
          "type": "bool"
        }
      ],
      "stateMutability": "nonpayable",
      "type": "function"
    },
    {
      "inputs": [],
      "name": "lockDuration",
      "outputs": [
        {
          "internalType": "uint32",
          "name": "",
          "type": "uint32"
        }
      ],
      "stateMutability": "view",
      "type": "function"
    },
    {
      "inputs": [],
      "name": "minimalProvideAmount",
      "outputs": [
        {
          "internalType": "uint256",
          "name": "",
          "type": "uint256"
        }
      ],
      "stateMutability": "view",
      "type": "function"
    },
    {
      "inputs": [],
      "name": "owner",
      "outputs": [
        {
          "internalType": "address",
          "name": "",
          "type": "address"
        }
      ],
      "stateMutability": "view",
      "type": "function"
    },
    {
      "inputs": [
        {
          "internalType": "address",
          "name": "",
          "type": "address"
        }
      ],
      "name": "provided",
      "outputs": [
        {
          "internalType": "uint256",
          "name": "",
          "type": "uint256"
        }
      ],
      "stateMutability": "view",
      "type": "function"
    },
    {
      "inputs": [],
      "name": "startingAt",
      "outputs": [
        {
          "internalType": "uint256",
          "name": "",
          "type": "uint256"
        }
      ],
      "stateMutability": "view",
      "type": "function"
    },
    {
      "inputs": [],
      "name": "totalProvided",
      "outputs": [
        {
          "internalType": "uint256",
          "name": "",
          "type": "uint256"
        }
      ],
      "stateMutability": "view",
      "type": "function"
    },
    {
      "inputs": [],
      "name": "withdrawERC20Onsale",
      "outputs": [],
      "stateMutability": "nonpayable",
      "type": "function"
    },
    {
      "inputs": [],
      "name": "withdrawProvidedETH",
      "outputs": [],
      "stateMutability": "nonpayable",
      "type": "function"
    },
    {
      "inputs": [],
      "name": "withdrawUnclaimedERC20OnSale",
      "outputs": [],
      "stateMutability": "nonpayable",
      "type": "function"
    },
    {
      "stateMutability": "payable",
      "type": "receive"
    }
  ],
  "bytecode": "0x60806040526001805464ffffffff00191663278d0000179055600060085534801561002957600080fd5b5060016000556117e88061003e6000396000f3fe6080604052600436106101125760003560e01c80638da5cb5b116100a5578063c45a015511610074578063dccd431511610059578063dccd431514610437578063e43608d81461044d578063edd146cc1461046257600080fd5b8063c45a0155146103e2578063d2a31c901461040a57600080fd5b80638da5cb5b146103385780639ddb9ee11461038a578063a6e00ca5146103b7578063b86c0e1f146103cc57600080fd5b80632f205906116100e15780632f205906146102d0578063400d3d9d146102e55780634f25eced1461030c5780638d9759921461032257600080fd5b806302e3cb0b14610237578063045544431461026057806311a4c03a1461028c57806321c0b342146102ae57600080fd5b366102325742600254111561016e5760405162461bcd60e51b815260206004820181905260248201527f546865206f66666572696e6720686173206e6f7420737461727465642079657460448201526064015b60405180910390fd5b6003544211156101c05760405162461bcd60e51b815260206004820152601e60248201527f546865206f66666572696e672068617320616c726561647920656e64656400006044820152606401610165565b34600860008282546101d29190611566565b909155505033600090815260096020526040812080543492906101f6908490611566565b909155505060405134815233907f88a5966d370b9919b20f3e2c13ff65706f196a4e32cc2c12bf57088f885258749060200160405180910390a2005b600080fd5b34801561024357600080fd5b5061024d60085481565b6040519081526020015b60405180910390f35b34801561026c57600080fd5b506102776201518081565b60405163ffffffff9091168152602001610257565b34801561029857600080fd5b5060015461027790610100900463ffffffff1681565b3480156102ba57600080fd5b506102ce6102c93660046115a8565b610492565b005b3480156102dc57600080fd5b506102ce6109f4565b3480156102f157600080fd5b506102fa600181565b60405160ff9091168152602001610257565b34801561031857600080fd5b5061024d60045481565b34801561032e57600080fd5b5061024d60055481565b34801561034457600080fd5b506006546103659073ffffffffffffffffffffffffffffffffffffffff1681565b60405173ffffffffffffffffffffffffffffffffffffffff9091168152602001610257565b34801561039657600080fd5b5061024d6103a53660046115db565b60096020526000908152604090205481565b3480156103c357600080fd5b506102ce610c3b565b3480156103d857600080fd5b5061024d60035481565b3480156103ee57600080fd5b5061036573abfd57effa83616dccce72cf1dcd8c326f68f12b81565b34801561041657600080fd5b506007546103659073ffffffffffffffffffffffffffffffffffffffff1681565b34801561044357600080fd5b5061024d60025481565b34801561045957600080fd5b506102ce610edb565b34801561046e57600080fd5b5061048261047d3660046115f6565b6110eb565b6040519015158152602001610257565b61049a61149b565b60035442116105115760405162461bcd60e51b815260206004820152602560248201527f4561726c7920746f20636c61696d2e2053616c65206973206e6f742066696e6960448201527f736865642e0000000000000000000000000000000000000000000000000000006064820152608401610165565b73ffffffffffffffffffffffffffffffffffffffff82166000908152600960205260409020546105835760405162461bcd60e51b815260206004820181905260248201527f596f7520646f6e2774206861766520616e7920636f6e747269627574696f6e2e6044820152606401610165565b73ffffffffffffffffffffffffffffffffffffffff821660009081526009602052604081208054908290556008546004549192916105c29184916114f4565b6001546002549192506000916105e391610100900463ffffffff1690611566565b60055460085442929092109250111582158280156105fe5750815b8015610608575080155b15610872573373ffffffffffffffffffffffffffffffffffffffff881614801561065d57508573ffffffffffffffffffffffffffffffffffffffff168773ffffffffffffffffffffffffffffffffffffffff16145b806106b457503373ffffffffffffffffffffffffffffffffffffffff8816148015906106b457508573ffffffffffffffffffffffffffffffffffffffff168773ffffffffffffffffffffffffffffffffffffffff16145b8061070b57503373ffffffffffffffffffffffffffffffffffffffff881614801561070b57508573ffffffffffffffffffffffffffffffffffffffff168773ffffffffffffffffffffffffffffffffffffffff1614155b15610804576007546040517fa9059cbb00000000000000000000000000000000000000000000000000000000815273ffffffffffffffffffffffffffffffffffffffff8881166004830152602482018790529091169063a9059cbb906044016020604051808303816000875af1158015610789573d6000803e3d6000fd5b505050506040513d601f19601f820116820180604052508101906107ad9190611672565b50604080518681526020810186905273ffffffffffffffffffffffffffffffffffffffff8816917f987d620f307ff6b94d58743cb7a7509f24071586a77759b77c2d4e29f75a2f9a910160405180910390a26109e1565b60405162461bcd60e51b815260206004820152603a60248201527f73656e64657220697320636c61696d696e6720736f6d656f6e65206f7468657260448201527f27732066756e6420666f7220736f6d656f6e65206f746865722e0000000000006064820152608401610165565b82801561087d575081155b8061088d575082801561088d5750805b156109995760008773ffffffffffffffffffffffffffffffffffffffff168660405160006040518083038185875af1925050503d80600081146108ec576040519150601f19603f3d011682016040523d82523d6000602084013e6108f1565b606091505b50509050806109425760405162461bcd60e51b815260206004820152600f60248201527f7472616e73666572206661696c656400000000000000000000000000000000006044820152606401610165565b604080518781526000602082015273ffffffffffffffffffffffffffffffffffffffff8a16917f987d620f307ff6b94d58743cb7a7509f24071586a77759b77c2d4e29f75a2f9a910160405180910390a2506109e1565b60405162461bcd60e51b815260206004820181905260248201527f436c61696d61626c65207465726d20686173206265656e20657870697265642e6044820152606401610165565b50505050506109f06001600055565b5050565b60065473ffffffffffffffffffffffffffffffffffffffff163314610a5b5760405162461bcd60e51b815260206004820152601660248201527f596f7520617265206e6f7420746865206f776e65722e000000000000000000006044820152606401610165565b610a6361149b565b6003544290610a76906201518090611566565b10610ac35760405162461bcd60e51b815260206004820152601b60248201527f5769746864726177616c20756e617661696c61626c65207965742e00000000006044820152606401610165565b6007546040517f70a0823100000000000000000000000000000000000000000000000000000000815230600482015260009173ffffffffffffffffffffffffffffffffffffffff16906370a0823190602401602060405180830381865afa158015610b32573d6000803e3d6000fd5b505050506040513d601f19601f82011682018060405250810190610b569190611694565b6007546006546040517fa9059cbb00000000000000000000000000000000000000000000000000000000815273ffffffffffffffffffffffffffffffffffffffff918216600482015260248101849052929350169063a9059cbb906044016020604051808303816000875af1158015610bd3573d6000803e3d6000fd5b505050506040513d601f19601f82011682018060405250810190610bf79190611672565b5060405181815233907f4e526043998f5e8eb845e3be9675c2b21a1b24bbce088eea5501d4ae54b4824b906020015b60405180910390a250610c396001600055565b565b60065473ffffffffffffffffffffffffffffffffffffffff163314610ca25760405162461bcd60e51b815260206004820152601660248201527f596f7520617265206e6f7420746865206f776e65722e000000000000000000006044820152606401610165565b610caa61149b565b4260035410610cfb5760405162461bcd60e51b815260206004820152601e60248201527f546865206f66666572696e67206d75737420626520636f6d706c6574656400006044820152606401610165565b60055460085410610d745760405162461bcd60e51b815260206004820152602660248201527f54686520726571756972656420616d6f756e7420686173206265656e2070726f60448201527f76696465642100000000000000000000000000000000000000000000000000006064820152608401610165565b6007546040517f70a0823100000000000000000000000000000000000000000000000000000000815230600482015260009173ffffffffffffffffffffffffffffffffffffffff16906370a0823190602401602060405180830381865afa158015610de3573d6000803e3d6000fd5b505050506040513d601f19601f82011682018060405250810190610e079190611694565b6007546006546040517fa9059cbb00000000000000000000000000000000000000000000000000000000815273ffffffffffffffffffffffffffffffffffffffff918216600482015260248101849052929350169063a9059cbb906044016020604051808303816000875af1158015610e84573d6000803e3d6000fd5b505050506040513d601f19601f82011682018060405250810190610ea89190611672565b5060405181815233907f6ad78535132556a5932c94d741a9ea143e95079b9f556207c27b43cfd8e164e290602001610c26565b60065473ffffffffffffffffffffffffffffffffffffffff163314610f425760405162461bcd60e51b815260206004820152601660248201527f596f7520617265206e6f7420746865206f776e65722e000000000000000000006044820152606401610165565b610f4a61149b565b4260035410610fc05760405162461bcd60e51b8152602060048201526024808201527f546865206f66666572696e67206d7573742062652066696e697368656420666960448201527f7273742e000000000000000000000000000000000000000000000000000000006064820152608401610165565b600554600854101561103a5760405162461bcd60e51b815260206004820152602a60248201527f54686520726571756972656420616d6f756e7420686173206e6f74206265656e60448201527f2070726f766964656421000000000000000000000000000000000000000000006064820152608401610165565b60006103e861104a6001476116ad565b61105491906116c4565b60405190915073abfd57effa83616dccce72cf1dcd8c326f68f12b9082156108fc029083906000818181858888f19350505050158015611098573d6000803e3d6000fd5b5060065460405173ffffffffffffffffffffffffffffffffffffffff909116904780156108fc02916000818181858888f193505050501580156110df573d6000803e3d6000fd5b5050610c396001600055565b60015460009060ff16156111675760405162461bcd60e51b815260206004820152602a60248201527f5468697320636f6e74726163742068617320616c7265616479206265656e206960448201527f6e697469616c697a6564000000000000000000000000000000000000000000006064820152608401610165565b3373abfd57effa83616dccce72cf1dcd8c326f68f12b146111ca5760405162461bcd60e51b815260206004820152601860248201527f596f7520617265206e6f742074686520466163746f72792e00000000000000006044820152606401610165565b60006111d8838501856116ff565b9050806040015142111561122e5760405162461bcd60e51b815260206004820181905260248201527f7374617274696e674174206d75737420626520696e20746865206675747572656044820152606401610165565b62015180816060015110156112855760405162461bcd60e51b815260206004820152601b60248201527f6576656e74206475726174696f6e20697320746f6f2073686f727400000000006044820152606401610165565b60008160800151116112ff5760405162461bcd60e51b815260206004820152602160248201527f6d696e696d616c2070726f7669646520616d6f756e7420697320696e76616c6960448201527f64000000000000000000000000000000000000000000000000000000000000006064820152608401610165565b602081015173ffffffffffffffffffffffffffffffffffffffff166113665760405162461bcd60e51b815260206004820152601360248201527f6f776e6572206d757374206265207468657265000000000000000000000000006044820152606401610165565b8051600780547fffffffffffffffffffffffff00000000000000000000000000000000000000001673ffffffffffffffffffffffffffffffffffffffff9092169190911790556040810151600281905560608201516113c491611566565b600355600485905560808101516005556020810151600680547fffffffffffffffffffffffff00000000000000000000000000000000000000001673ffffffffffffffffffffffffffffffffffffffff90921691909117905560405161142d90859085906117a2565b604051908190038120868252907f91efa3d50feccde0d0d202f8ae5c41ca0b2be614cebcb2bd2f4b019396e6568a9060200160405180910390a25050600180547fffffffffffffffffffffffffffffffffffffffffffffffffffffffffffffff0016811781555b9392505050565b6002600054036114ed5760405162461bcd60e51b815260206004820152601f60248201527f5265656e7472616e637947756172643a207265656e7472616e742063616c6c006044820152606401610165565b6002600055565b60008282101561151a578261150983866116ad565b61151391906116c4565b9050611494565b8361152584846116c4565b61152f91906116ad565b949350505050565b7f4e487b7100000000000000000000000000000000000000000000000000000000600052601160045260246000fd5b8082018082111561157957611579611537565b92915050565b803573ffffffffffffffffffffffffffffffffffffffff811681146115a357600080fd5b919050565b600080604083850312156115bb57600080fd5b6115c48361157f565b91506115d26020840161157f565b90509250929050565b6000602082840312156115ed57600080fd5b6114948261157f565b60008060006040848603121561160b57600080fd5b83359250602084013567ffffffffffffffff8082111561162a57600080fd5b818601915086601f83011261163e57600080fd5b81358181111561164d57600080fd5b87602082850101111561165f57600080fd5b6020830194508093505050509250925092565b60006020828403121561168457600080fd5b8151801515811461149457600080fd5b6000602082840312156116a657600080fd5b5051919050565b808202811582820484141761157957611579611537565b6000826116fa577f4e487b7100000000000000000000000000000000000000000000000000000000600052601260045260246000fd5b500490565b600060a0828403121561171157600080fd5b60405160a0810181811067ffffffffffffffff8211171561175b577f4e487b7100000000000000000000000000000000000000000000000000000000600052604160045260246000fd5b6040526117678361157f565b81526117756020840161157f565b60208201526040830135604082015260608301356060820152608083013560808201528091505092915050565b818382376000910190815291905056fea264697066735822122045b3f470399a49f4714d5b06ff186a65c69cd52238bd00d6c967a0793aa1ea6f64736f6c63430008120033",
  "linkReferences": {},
  "deployedLinkReferences": {}
}