{
  "_format": "hh-sol-artifact-1",
  "contractName": "BulksaleV1",
  "sourceName": "contracts/BulksaleV1.sol",
  "abi": [
    {
      "anonymous": false,
      "inputs": [
        {
          "indexed": true,
          "internalType": "address",
          "name": "account",
          "type": "address"
        },
        {
          "indexed": false,
          "internalType": "uint256",
          "name": "userShare",
          "type": "uint256"
        },
        {
          "indexed": false,
          "internalType": "uint256",
          "name": "erc20allocation",
          "type": "uint256"
        }
      ],
      "name": "Claimed",
      "type": "event"
    },
    {
      "anonymous": false,
      "inputs": [
        {
          "indexed": true,
          "internalType": "bytes",
          "name": "abiBytes",
          "type": "bytes"
        }
      ],
      "name": "Initialized",
      "type": "event"
    },
    {
      "anonymous": false,
      "inputs": [
        {
          "indexed": true,
          "internalType": "address",
          "name": "account",
          "type": "address"
        },
        {
          "indexed": false,
          "internalType": "uint256",
          "name": "amount",
          "type": "uint256"
        }
      ],
      "name": "Received",
      "type": "event"
    },
    {
      "anonymous": false,
      "inputs": [
        {
          "indexed": true,
          "internalType": "address",
          "name": "sender",
          "type": "address"
        },
        {
          "indexed": false,
          "internalType": "uint256",
          "name": "balance",
          "type": "uint256"
        }
      ],
      "name": "WithdrawnAfterLockDuration",
      "type": "event"
    },
    {
      "anonymous": false,
      "inputs": [
        {
          "indexed": true,
          "internalType": "address",
          "name": "sender",
          "type": "address"
        },
        {
          "indexed": false,
          "internalType": "uint256",
          "name": "balance",
          "type": "uint256"
        }
      ],
      "name": "WithdrawnOnFailed",
      "type": "event"
    },
    {
      "inputs": [
        {
          "internalType": "address",
          "name": "contributor",
          "type": "address"
        },
        {
          "internalType": "address",
          "name": "recipient",
          "type": "address"
        }
      ],
      "name": "claim",
      "outputs": [],
      "stateMutability": "nonpayable",
      "type": "function"
    },
    {
      "inputs": [],
      "name": "closingAt",
      "outputs": [
        {
          "internalType": "uint256",
          "name": "",
          "type": "uint256"
        }
      ],
      "stateMutability": "view",
      "type": "function"
    },
    {
      "inputs": [],
      "name": "erc20onsale",
      "outputs": [
        {
          "internalType": "contract IERC20",
          "name": "",
          "type": "address"
        }
      ],
      "stateMutability": "view",
      "type": "function"
    },
    {
      "inputs": [],
      "name": "expirationDuration",
      "outputs": [
        {
          "internalType": "uint256",
          "name": "",
          "type": "uint256"
        }
      ],
      "stateMutability": "view",
      "type": "function"
    },
    {
      "inputs": [],
      "name": "factory",
      "outputs": [
        {
          "internalType": "address",
          "name": "",
          "type": "address"
        }
      ],
      "stateMutability": "view",
      "type": "function"
    },
    {
      "inputs": [],
      "name": "feeRatePerMil",
      "outputs": [
        {
          "internalType": "uint256",
          "name": "",
          "type": "uint256"
        }
      ],
      "stateMutability": "view",
      "type": "function"
    },
    {
      "inputs": [
        {
          "internalType": "bytes",
          "name": "abiBytes",
          "type": "bytes"
        }
      ],
      "name": "initialize",
      "outputs": [
        {
          "internalType": "bool",
          "name": "",
          "type": "bool"
        }
      ],
      "stateMutability": "nonpayable",
      "type": "function"
    },
    {
      "inputs": [],
      "name": "lockDuration",
      "outputs": [
        {
          "internalType": "uint256",
          "name": "",
          "type": "uint256"
        }
      ],
      "stateMutability": "view",
      "type": "function"
    },
    {
      "inputs": [],
      "name": "minimalProvideAmount",
      "outputs": [
        {
          "internalType": "uint256",
          "name": "",
          "type": "uint256"
        }
      ],
      "stateMutability": "view",
      "type": "function"
    },
    {
      "inputs": [],
      "name": "owner",
      "outputs": [
        {
          "internalType": "address",
          "name": "",
          "type": "address"
        }
      ],
      "stateMutability": "view",
      "type": "function"
    },
    {
      "inputs": [
        {
          "internalType": "address",
          "name": "",
          "type": "address"
        }
      ],
      "name": "provided",
      "outputs": [
        {
          "internalType": "uint256",
          "name": "",
          "type": "uint256"
        }
      ],
      "stateMutability": "view",
      "type": "function"
    },
    {
      "inputs": [],
      "name": "startingAt",
      "outputs": [
        {
          "internalType": "uint256",
          "name": "",
          "type": "uint256"
        }
      ],
      "stateMutability": "view",
      "type": "function"
    },
    {
      "inputs": [],
      "name": "totalDistributeAmount",
      "outputs": [
        {
          "internalType": "uint256",
          "name": "",
          "type": "uint256"
        }
      ],
      "stateMutability": "view",
      "type": "function"
    },
    {
      "inputs": [],
      "name": "totalProvided",
      "outputs": [
        {
          "internalType": "uint256",
          "name": "",
          "type": "uint256"
        }
      ],
      "stateMutability": "view",
      "type": "function"
    },
    {
      "inputs": [],
      "name": "withdrawERC20Onsale",
      "outputs": [],
      "stateMutability": "nonpayable",
      "type": "function"
    },
    {
      "inputs": [],
      "name": "withdrawProvidedETH",
      "outputs": [],
      "stateMutability": "nonpayable",
      "type": "function"
    },
    {
      "inputs": [],
      "name": "withdrawUnclaimedERC20OnSale",
      "outputs": [],
      "stateMutability": "nonpayable",
      "type": "function"
    },
    {
      "stateMutability": "payable",
      "type": "receive"
    }
  ],
  "bytecode": "0x60806040526000600160006101000a81548160ff0219169083151502179055506000600b5534801561003057600080fd5b506001600081905550612cda806100486000396000f3fe6080604052600436106101025760003560e01c80638d97599211610095578063b86c0e1f11610064578063b86c0e1f14610453578063c45a01551461047e578063d2a31c90146104a9578063dccd4315146104d4578063e43608d8146104ff57610250565b80638d975992146103a95780638da5cb5b146103d45780639ddb9ee1146103ff578063a6e00ca51461043c57610250565b80632f205906116100d15780632f205906146102ff578063400d3d9d14610316578063439fab91146103415780637ee05a3e1461037e57610250565b806302e3cb0b14610255578063045544431461028057806311a4c03a146102ab57806321c0b342146102d657610250565b366102505742600254111561014c576040517f08c379a000000000000000000000000000000000000000000000000000000000815260040161014390611998565b60405180910390fd5b600354421115610191576040517f08c379a000000000000000000000000000000000000000000000000000000000815260040161018890611a04565b60405180910390fd5b34600b60008282546101a39190611a5d565b9250508190555034600c60003373ffffffffffffffffffffffffffffffffffffffff1673ffffffffffffffffffffffffffffffffffffffff16815260200190815260200160002060008282546101f99190611a5d565b925050819055503373ffffffffffffffffffffffffffffffffffffffff167f88a5966d370b9919b20f3e2c13ff65706f196a4e32cc2c12bf57088f88525874346040516102469190611aa0565b60405180910390a2005b600080fd5b34801561026157600080fd5b5061026a610516565b6040516102779190611aa0565b60405180910390f35b34801561028c57600080fd5b5061029561051c565b6040516102a29190611aa0565b60405180910390f35b3480156102b757600080fd5b506102c0610522565b6040516102cd9190611aa0565b60405180910390f35b3480156102e257600080fd5b506102fd60048036038101906102f89190611b2d565b610528565b005b34801561030b57600080fd5b50610314610ac2565b005b34801561032257600080fd5b5061032b610d67565b6040516103389190611aa0565b60405180910390f35b34801561034d57600080fd5b5061036860048036038101906103639190611cb3565b610d6d565b6040516103759190611d17565b60405180910390f35b34801561038a57600080fd5b50610393611224565b6040516103a09190611aa0565b60405180910390f35b3480156103b557600080fd5b506103be61122a565b6040516103cb9190611aa0565b60405180910390f35b3480156103e057600080fd5b506103e9611230565b6040516103f69190611d41565b60405180910390f35b34801561040b57600080fd5b5061042660048036038101906104219190611d5c565b611256565b6040516104339190611aa0565b60405180910390f35b34801561044857600080fd5b5061045161126e565b005b34801561045f57600080fd5b5061046861154c565b6040516104759190611aa0565b60405180910390f35b34801561048a57600080fd5b50610493611552565b6040516104a09190611d41565b60405180910390f35b3480156104b557600080fd5b506104be61156a565b6040516104cb9190611de8565b60405180910390f35b3480156104e057600080fd5b506104e9611590565b6040516104f69190611aa0565b60405180910390f35b34801561050b57600080fd5b50610514611596565b005b600b5481565b60065481565b60075481565b610530611899565b6003544211610574576040517f08c379a000000000000000000000000000000000000000000000000000000000815260040161056b90611e75565b60405180910390fd5b6000600c60008473ffffffffffffffffffffffffffffffffffffffff1673ffffffffffffffffffffffffffffffffffffffff16815260200190815260200160002054116105f6576040517f08c379a00000000000000000000000000000000000000000000000000000000081526004016105ed90611ee1565b60405180910390fd5b6000600c60008473ffffffffffffffffffffffffffffffffffffffff1673ffffffffffffffffffffffffffffffffffffffff1681526020019081526020016000205490506000600c60008573ffffffffffffffffffffffffffffffffffffffff1673ffffffffffffffffffffffffffffffffffffffff16815260200190815260200160002081905550600061069082600b546004546118e8565b905060006007546002546106a49190611a5d565b421090506000600554600b5410159050600080841490508280156106c55750815b80156106cf575080155b15610951578673ffffffffffffffffffffffffffffffffffffffff163373ffffffffffffffffffffffffffffffffffffffff1614801561073a57508573ffffffffffffffffffffffffffffffffffffffff168773ffffffffffffffffffffffffffffffffffffffff16145b806107a857508673ffffffffffffffffffffffffffffffffffffffff163373ffffffffffffffffffffffffffffffffffffffff16141580156107a757508573ffffffffffffffffffffffffffffffffffffffff168773ffffffffffffffffffffffffffffffffffffffff16145b5b8061081657508673ffffffffffffffffffffffffffffffffffffffff163373ffffffffffffffffffffffffffffffffffffffff1614801561081557508573ffffffffffffffffffffffffffffffffffffffff168773ffffffffffffffffffffffffffffffffffffffff1614155b5b1561091157600a60009054906101000a900473ffffffffffffffffffffffffffffffffffffffff1673ffffffffffffffffffffffffffffffffffffffff1663a9059cbb87866040518363ffffffff1660e01b8152600401610878929190611f01565b6020604051808303816000875af1158015610897573d6000803e3d6000fd5b505050506040513d601f19601f820116820180604052508101906108bb9190611f56565b508573ffffffffffffffffffffffffffffffffffffffff167f987d620f307ff6b94d58743cb7a7509f24071586a77759b77c2d4e29f75a2f9a8686604051610904929190611f83565b60405180910390a261094c565b6040517f08c379a00000000000000000000000000000000000000000000000000000000081526004016109439061201e565b60405180910390fd5b610ab1565b82801561095c575081155b8061096d575082801561096c5750805b5b15610a755760008773ffffffffffffffffffffffffffffffffffffffff16866040516109989061206f565b60006040518083038185875af1925050503d80600081146109d5576040519150601f19603f3d011682016040523d82523d6000602084013e6109da565b606091505b5050905080610a1e576040517f08c379a0000000000000000000000000000000000000000000000000000000008152600401610a15906120d0565b60405180910390fd5b8773ffffffffffffffffffffffffffffffffffffffff167f987d620f307ff6b94d58743cb7a7509f24071586a77759b77c2d4e29f75a2f9a876000604051610a6792919061212b565b60405180910390a250610ab0565b6040517f08c379a0000000000000000000000000000000000000000000000000000000008152600401610aa7906121a0565b60405180910390fd5b5b5050505050610abe611931565b5050565b600860009054906101000a900473ffffffffffffffffffffffffffffffffffffffff1673ffffffffffffffffffffffffffffffffffffffff163373ffffffffffffffffffffffffffffffffffffffff1614610b52576040517f08c379a0000000000000000000000000000000000000000000000000000000008152600401610b499061220c565b60405180910390fd5b610b5a611899565b42600654600354610b6b9190611a5d565b10610bab576040517f08c379a0000000000000000000000000000000000000000000000000000000008152600401610ba290612278565b60405180910390fd5b6000600a60009054906101000a900473ffffffffffffffffffffffffffffffffffffffff1673ffffffffffffffffffffffffffffffffffffffff166370a08231306040518263ffffffff1660e01b8152600401610c089190611d41565b602060405180830381865afa158015610c25573d6000803e3d6000fd5b505050506040513d601f19601f82011682018060405250810190610c4991906122c4565b9050600a60009054906101000a900473ffffffffffffffffffffffffffffffffffffffff1673ffffffffffffffffffffffffffffffffffffffff1663a9059cbb600860009054906101000a900473ffffffffffffffffffffffffffffffffffffffff16836040518363ffffffff1660e01b8152600401610cca929190611f01565b6020604051808303816000875af1158015610ce9573d6000803e3d6000fd5b505050506040513d601f19601f82011682018060405250810190610d0d9190611f56565b503373ffffffffffffffffffffffffffffffffffffffff167f4e526043998f5e8eb845e3be9675c2b21a1b24bbce088eea5501d4ae54b4824b82604051610d549190611aa0565b60405180910390a250610d65611931565b565b60095481565b6000600160009054906101000a900460ff1615610dbf576040517f08c379a0000000000000000000000000000000000000000000000000000000008152600401610db690612363565b60405180910390fd5b730165878a594ca255338adfa4d48449f69242eb8f73ffffffffffffffffffffffffffffffffffffffff163373ffffffffffffffffffffffffffffffffffffffff1614610e41576040517f08c379a0000000000000000000000000000000000000000000000000000000008152600401610e38906123cf565b60405180910390fd5b600082806020019051810190610e5791906124e9565b90508060200151421115610ea0576040517f08c379a0000000000000000000000000000000000000000000000000000000008152600401610e9790612563565b60405180910390fd5b6201518081604001511015610eea576040517f08c379a0000000000000000000000000000000000000000000000000000000008152600401610ee1906125cf565b60405180910390fd5b60008160a0015111610f31576040517f08c379a0000000000000000000000000000000000000000000000000000000008152600401610f289061263b565b60405180910390fd5b60008160c0015111610f78576040517f08c379a0000000000000000000000000000000000000000000000000000000008152600401610f6f906126cd565b60405180910390fd5b600081606001511015610fc0576040517f08c379a0000000000000000000000000000000000000000000000000000000008152600401610fb790612739565b60405180910390fd5b62278d008160800151101561100a576040517f08c379a0000000000000000000000000000000000000000000000000000000008152600401611001906127cb565b60405180910390fd5b600073ffffffffffffffffffffffffffffffffffffffff168160e0015173ffffffffffffffffffffffffffffffffffffffff160361107d576040517f08c379a000000000000000000000000000000000000000000000000000000000815260040161107490612837565b60405180910390fd5b80610100015160011115801561109857506064816101000151105b6110d7576040517f08c379a00000000000000000000000000000000000000000000000000000000081526004016110ce906128a3565b60405180910390fd5b8060000151600a60006101000a81548173ffffffffffffffffffffffffffffffffffffffff021916908373ffffffffffffffffffffffffffffffffffffffff16021790555080602001516002819055508060400151816020015161113b9190611a5d565b6003819055508060a001516004819055508060c00151600581905550806060015160068190555080608001516007819055508060e00151600860006101000a81548173ffffffffffffffffffffffffffffffffffffffff021916908373ffffffffffffffffffffffffffffffffffffffff160217905550806101000151600981905550826040516111cc9190612929565b60405180910390207f5e399709a9ff1709f6f6be7268c8e5c3eeaa9da9cd9797e78f07ef287c3717fe60405160405180910390a260018060006101000a81548160ff0219169083151502179055506001915050919050565b60045481565b60055481565b600860009054906101000a900473ffffffffffffffffffffffffffffffffffffffff1681565b600c6020528060005260406000206000915090505481565b600860009054906101000a900473ffffffffffffffffffffffffffffffffffffffff1673ffffffffffffffffffffffffffffffffffffffff163373ffffffffffffffffffffffffffffffffffffffff16146112fe576040517f08c379a00000000000000000000000000000000000000000000000000000000081526004016112f59061220c565b60405180910390fd5b611306611899565b426003541061134a576040517f08c379a00000000000000000000000000000000000000000000000000000000081526004016113419061298c565b60405180910390fd5b600554600b5410611390576040517f08c379a000000000000000000000000000000000000000000000000000000000815260040161138790612a1e565b60405180910390fd5b6000600a60009054906101000a900473ffffffffffffffffffffffffffffffffffffffff1673ffffffffffffffffffffffffffffffffffffffff166370a08231306040518263ffffffff1660e01b81526004016113ed9190611d41565b602060405180830381865afa15801561140a573d6000803e3d6000fd5b505050506040513d601f19601f8201168201806040525081019061142e91906122c4565b9050600a60009054906101000a900473ffffffffffffffffffffffffffffffffffffffff1673ffffffffffffffffffffffffffffffffffffffff1663a9059cbb600860009054906101000a900473ffffffffffffffffffffffffffffffffffffffff16836040518363ffffffff1660e01b81526004016114af929190611f01565b6020604051808303816000875af11580156114ce573d6000803e3d6000fd5b505050506040513d601f19601f820116820180604052508101906114f29190611f56565b503373ffffffffffffffffffffffffffffffffffffffff167f6ad78535132556a5932c94d741a9ea143e95079b9f556207c27b43cfd8e164e2826040516115399190611aa0565b60405180910390a25061154a611931565b565b60035481565b730165878a594ca255338adfa4d48449f69242eb8f81565b600a60009054906101000a900473ffffffffffffffffffffffffffffffffffffffff1681565b60025481565b600860009054906101000a900473ffffffffffffffffffffffffffffffffffffffff1673ffffffffffffffffffffffffffffffffffffffff163373ffffffffffffffffffffffffffffffffffffffff1614611626576040517f08c379a000000000000000000000000000000000000000000000000000000000815260040161161d9061220c565b60405180910390fd5b61162e611899565b4260035410611672576040517f08c379a000000000000000000000000000000000000000000000000000000000815260040161166990612ab0565b60405180910390fd5b600554600b5410156116b9576040517f08c379a00000000000000000000000000000000000000000000000000000000081526004016116b090612b42565b60405180910390fd5b6000600860009054906101000a900473ffffffffffffffffffffffffffffffffffffffff1673ffffffffffffffffffffffffffffffffffffffff166103e86009546103e86117079190612b62565b476117129190612b96565b61171c9190612c07565b6040516117289061206f565b60006040518083038185875af1925050503d8060008114611765576040519150601f19603f3d011682016040523d82523d6000602084013e61176a565b606091505b50509050806117ae576040517f08c379a00000000000000000000000000000000000000000000000000000000081526004016117a5906120d0565b60405180910390fd5b6000730165878a594ca255338adfa4d48449f69242eb8f73ffffffffffffffffffffffffffffffffffffffff166103e8600954476117ec9190612b96565b6117f69190612c07565b6161a8906040516118069061206f565b600060405180830381858888f193505050503d8060008114611844576040519150601f19603f3d011682016040523d82523d6000602084013e611849565b606091505b505090508061188d576040517f08c379a0000000000000000000000000000000000000000000000000000000008152600401611884906120d0565b60405180910390fd5b5050611897611931565b565b6002600054036118de576040517f08c379a00000000000000000000000000000000000000000000000000000000081526004016118d590612c84565b60405180910390fd5b6002600081905550565b600082821015611910578282856118ff9190612b96565b6119099190612c07565b905061192a565b83838361191d9190612c07565b6119279190612b96565b90505b9392505050565b6001600081905550565b600082825260208201905092915050565b7f546865206f66666572696e6720686173206e6f74207374617274656420796574600082015250565b600061198260208361193b565b915061198d8261194c565b602082019050919050565b600060208201905081810360008301526119b181611975565b9050919050565b7f546865206f66666572696e672068617320616c726561647920656e6465640000600082015250565b60006119ee601e8361193b565b91506119f9826119b8565b602082019050919050565b60006020820190508181036000830152611a1d816119e1565b9050919050565b6000819050919050565b7f4e487b7100000000000000000000000000000000000000000000000000000000600052601160045260246000fd5b6000611a6882611a24565b9150611a7383611a24565b9250828201905080821115611a8b57611a8a611a2e565b5b92915050565b611a9a81611a24565b82525050565b6000602082019050611ab56000830184611a91565b92915050565b6000604051905090565b600080fd5b600080fd5b600073ffffffffffffffffffffffffffffffffffffffff82169050919050565b6000611afa82611acf565b9050919050565b611b0a81611aef565b8114611b1557600080fd5b50565b600081359050611b2781611b01565b92915050565b60008060408385031215611b4457611b43611ac5565b5b6000611b5285828601611b18565b9250506020611b6385828601611b18565b9150509250929050565b600080fd5b600080fd5b6000601f19601f8301169050919050565b7f4e487b7100000000000000000000000000000000000000000000000000000000600052604160045260246000fd5b611bc082611b77565b810181811067ffffffffffffffff82111715611bdf57611bde611b88565b5b80604052505050565b6000611bf2611abb565b9050611bfe8282611bb7565b919050565b600067ffffffffffffffff821115611c1e57611c1d611b88565b5b611c2782611b77565b9050602081019050919050565b82818337600083830152505050565b6000611c56611c5184611c03565b611be8565b905082815260208101848484011115611c7257611c71611b72565b5b611c7d848285611c34565b509392505050565b600082601f830112611c9a57611c99611b6d565b5b8135611caa848260208601611c43565b91505092915050565b600060208284031215611cc957611cc8611ac5565b5b600082013567ffffffffffffffff811115611ce757611ce6611aca565b5b611cf384828501611c85565b91505092915050565b60008115159050919050565b611d1181611cfc565b82525050565b6000602082019050611d2c6000830184611d08565b92915050565b611d3b81611aef565b82525050565b6000602082019050611d566000830184611d32565b92915050565b600060208284031215611d7257611d71611ac5565b5b6000611d8084828501611b18565b91505092915050565b6000819050919050565b6000611dae611da9611da484611acf565b611d89565b611acf565b9050919050565b6000611dc082611d93565b9050919050565b6000611dd282611db5565b9050919050565b611de281611dc7565b82525050565b6000602082019050611dfd6000830184611dd9565b92915050565b7f4561726c7920746f20636c61696d2e2053616c65206973206e6f742066696e6960008201527f736865642e000000000000000000000000000000000000000000000000000000602082015250565b6000611e5f60258361193b565b9150611e6a82611e03565b604082019050919050565b60006020820190508181036000830152611e8e81611e52565b9050919050565b7f596f7520646f6e2774206861766520616e7920636f6e747269627574696f6e2e600082015250565b6000611ecb60208361193b565b9150611ed682611e95565b602082019050919050565b60006020820190508181036000830152611efa81611ebe565b9050919050565b6000604082019050611f166000830185611d32565b611f236020830184611a91565b9392505050565b611f3381611cfc565b8114611f3e57600080fd5b50565b600081519050611f5081611f2a565b92915050565b600060208284031215611f6c57611f6b611ac5565b5b6000611f7a84828501611f41565b91505092915050565b6000604082019050611f986000830185611a91565b611fa56020830184611a91565b9392505050565b7f73656e64657220697320636c61696d696e6720736f6d656f6e65206f7468657260008201527f27732066756e6420666f7220736f6d656f6e65206f746865722e000000000000602082015250565b6000612008603a8361193b565b915061201382611fac565b604082019050919050565b6000602082019050818103600083015261203781611ffb565b9050919050565b600081905092915050565b50565b600061205960008361203e565b915061206482612049565b600082019050919050565b600061207a8261204c565b9150819050919050565b7f7472616e73666572206661696c65640000000000000000000000000000000000600082015250565b60006120ba600f8361193b565b91506120c582612084565b602082019050919050565b600060208201905081810360008301526120e9816120ad565b9050919050565b6000819050919050565b600061211561211061210b846120f0565b611d89565b611a24565b9050919050565b612125816120fa565b82525050565b60006040820190506121406000830185611a91565b61214d602083018461211c565b9392505050565b7f436c61696d61626c65207465726d20686173206265656e20657870697265642e600082015250565b600061218a60208361193b565b915061219582612154565b602082019050919050565b600060208201905081810360008301526121b98161217d565b9050919050565b7f596f7520617265206e6f7420746865206f776e65722e00000000000000000000600082015250565b60006121f660168361193b565b9150612201826121c0565b602082019050919050565b60006020820190508181036000830152612225816121e9565b9050919050565b7f5769746864726177616c20756e617661696c61626c65207965742e0000000000600082015250565b6000612262601b8361193b565b915061226d8261222c565b602082019050919050565b6000602082019050818103600083015261229181612255565b9050919050565b6122a181611a24565b81146122ac57600080fd5b50565b6000815190506122be81612298565b92915050565b6000602082840312156122da576122d9611ac5565b5b60006122e8848285016122af565b91505092915050565b7f5468697320636f6e74726163742068617320616c7265616479206265656e206960008201527f6e697469616c697a656400000000000000000000000000000000000000000000602082015250565b600061234d602a8361193b565b9150612358826122f1565b604082019050919050565b6000602082019050818103600083015261237c81612340565b9050919050565b7f596f7520617265206e6f742074686520466163746f72792e0000000000000000600082015250565b60006123b960188361193b565b91506123c482612383565b602082019050919050565b600060208201905081810360008301526123e8816123ac565b9050919050565b600080fd5b60008151905061240381611b01565b92915050565b600061012082840312156124205761241f6123ef565b5b61242b610120611be8565b9050600061243b848285016123f4565b600083015250602061244f848285016122af565b6020830152506040612463848285016122af565b6040830152506060612477848285016122af565b606083015250608061248b848285016122af565b60808301525060a061249f848285016122af565b60a08301525060c06124b3848285016122af565b60c08301525060e06124c7848285016123f4565b60e0830152506101006124dc848285016122af565b6101008301525092915050565b60006101208284031215612500576124ff611ac5565b5b600061250e84828501612409565b91505092915050565b7f7374617274696e674174206d75737420626520696e2074686520667574757265600082015250565b600061254d60208361193b565b915061255882612517565b602082019050919050565b6000602082019050818103600083015261257c81612540565b9050919050565b7f6576656e74206475726174696f6e20697320746f6f2073686f72740000000000600082015250565b60006125b9601b8361193b565b91506125c482612583565b602082019050919050565b600060208201905081810360008301526125e8816125ac565b9050919050565b7f646973747269627574696f6e20616d6f756e7420697320696e76616c69640000600082015250565b6000612625601e8361193b565b9150612630826125ef565b602082019050919050565b6000602082019050818103600083015261265481612618565b9050919050565b7f6d696e696d616c2070726f7669646520616d6f756e7420697320696e76616c6960008201527f6400000000000000000000000000000000000000000000000000000000000000602082015250565b60006126b760218361193b565b91506126c28261265b565b604082019050919050565b600060208201905081810360008301526126e6816126aa565b9050919050565b7f6c6f636b206475726174696f6e20697320696e76616c69640000000000000000600082015250565b600061272360188361193b565b915061272e826126ed565b602082019050919050565b6000602082019050818103600083015261275281612716565b9050919050565b7f65787069726174696f6e206475726174696f6e206d757374206265206d6f726560008201527f207468616e203330206461797300000000000000000000000000000000000000602082015250565b60006127b5602d8361193b565b91506127c082612759565b604082019050919050565b600060208201905081810360008301526127e4816127a8565b9050919050565b7f6f776e6572206d75737420626520746865726500000000000000000000000000600082015250565b600061282160138361193b565b915061282c826127eb565b602082019050919050565b6000602082019050818103600083015261285081612814565b9050919050565b7f6665652072617465206973206f7574206f662072616e67650000000000000000600082015250565b600061288d60188361193b565b915061289882612857565b602082019050919050565b600060208201905081810360008301526128bc81612880565b9050919050565b600081519050919050565b60005b838110156128ec5780820151818401526020810190506128d1565b60008484015250505050565b6000612903826128c3565b61290d818561203e565b935061291d8185602086016128ce565b80840191505092915050565b600061293582846128f8565b915081905092915050565b7f546865206f66666572696e67206d75737420626520636f6d706c657465640000600082015250565b6000612976601e8361193b565b915061298182612940565b602082019050919050565b600060208201905081810360008301526129a581612969565b9050919050565b7f54686520726571756972656420616d6f756e7420686173206265656e2070726f60008201527f7669646564210000000000000000000000000000000000000000000000000000602082015250565b6000612a0860268361193b565b9150612a13826129ac565b604082019050919050565b60006020820190508181036000830152612a37816129fb565b9050919050565b7f546865206f66666572696e67206d7573742062652066696e697368656420666960008201527f7273742e00000000000000000000000000000000000000000000000000000000602082015250565b6000612a9a60248361193b565b9150612aa582612a3e565b604082019050919050565b60006020820190508181036000830152612ac981612a8d565b9050919050565b7f54686520726571756972656420616d6f756e7420686173206e6f74206265656e60008201527f2070726f76696465642100000000000000000000000000000000000000000000602082015250565b6000612b2c602a8361193b565b9150612b3782612ad0565b604082019050919050565b60006020820190508181036000830152612b5b81612b1f565b9050919050565b6000612b6d82611a24565b9150612b7883611a24565b9250828203905081811115612b9057612b8f611a2e565b5b92915050565b6000612ba182611a24565b9150612bac83611a24565b9250828202612bba81611a24565b91508282048414831517612bd157612bd0611a2e565b5b5092915050565b7f4e487b7100000000000000000000000000000000000000000000000000000000600052601260045260246000fd5b6000612c1282611a24565b9150612c1d83611a24565b925082612c2d57612c2c612bd8565b5b828204905092915050565b7f5265656e7472616e637947756172643a207265656e7472616e742063616c6c00600082015250565b6000612c6e601f8361193b565b9150612c7982612c38565b602082019050919050565b60006020820190508181036000830152612c9d81612c61565b905091905056fea26469706673582212200299a0ac368eeea56f9958bbf7062da1640121f10475f81328c38e778e7f861264736f6c63430008120033",
  "linkReferences": {},
  "deployedLinkReferences": {}
}