{
  "_format": "hh-sol-artifact-1",
  "contractName": "TemplateV1",
  "sourceName": "contracts/TemplateV1.sol",
  "abi": [
    {
      "inputs": [
        {
          "internalType": "address",
          "name": "factory_",
          "type": "address"
        },
        {
          "internalType": "address",
          "name": "feePool_",
          "type": "address"
        }
      ],
      "stateMutability": "nonpayable",
      "type": "constructor"
    },
    {
      "anonymous": false,
      "inputs": [
        {
          "indexed": true,
          "internalType": "address",
          "name": "participant",
          "type": "address"
        },
        {
          "indexed": true,
          "internalType": "address",
          "name": "recipient",
          "type": "address"
        },
        {
          "indexed": false,
          "internalType": "uint256",
          "name": "userShare",
          "type": "uint256"
        },
        {
          "indexed": false,
          "internalType": "uint256",
          "name": "allocation",
          "type": "uint256"
        }
      ],
      "name": "Claimed",
      "type": "event"
    },
    {
      "anonymous": false,
      "inputs": [
        {
          "indexed": false,
          "internalType": "address",
          "name": "deployedAddress",
          "type": "address"
        },
        {
          "indexed": false,
          "internalType": "address",
          "name": "owner",
          "type": "address"
        },
        {
          "indexed": false,
          "internalType": "uint256",
          "name": "startingAt",
          "type": "uint256"
        },
        {
          "indexed": false,
          "internalType": "uint256",
          "name": "closingAt",
          "type": "uint256"
        },
        {
          "indexed": false,
          "internalType": "address",
          "name": "auctionToken",
          "type": "address"
        },
        {
          "indexed": false,
          "internalType": "bytes",
          "name": "raisedTokens",
          "type": "bytes"
        },
        {
          "indexed": false,
          "internalType": "bytes",
          "name": "args",
          "type": "bytes"
        }
      ],
      "name": "Deployed",
      "type": "event"
    },
    {
      "anonymous": false,
      "inputs": [
        {
          "indexed": true,
          "internalType": "address",
          "name": "participant",
          "type": "address"
        },
        {
          "indexed": false,
          "internalType": "address",
          "name": "token",
          "type": "address"
        },
        {
          "indexed": false,
          "internalType": "uint256",
          "name": "amount",
          "type": "uint256"
        }
      ],
      "name": "Raised",
      "type": "event"
    },
    {
      "inputs": [],
      "name": "DISTRIBUTOR_ADDRESS",
      "outputs": [
        {
          "internalType": "address",
          "name": "",
          "type": "address"
        }
      ],
      "stateMutability": "view",
      "type": "function"
    },
    {
      "inputs": [],
      "name": "allocatedAmount",
      "outputs": [
        {
          "internalType": "uint256",
          "name": "",
          "type": "uint256"
        }
      ],
      "stateMutability": "view",
      "type": "function"
    },
    {
      "inputs": [
        {
          "internalType": "address",
          "name": "participant",
          "type": "address"
        },
        {
          "internalType": "address",
          "name": "recipient",
          "type": "address"
        }
      ],
      "name": "claim",
      "outputs": [],
      "stateMutability": "nonpayable",
      "type": "function"
    },
    {
      "inputs": [],
      "name": "closingAt",
      "outputs": [
        {
          "internalType": "uint256",
          "name": "",
          "type": "uint256"
        }
      ],
      "stateMutability": "view",
      "type": "function"
    },
    {
      "inputs": [],
      "name": "erc20onsale",
      "outputs": [
        {
          "internalType": "contract IERC20",
          "name": "",
          "type": "address"
        }
      ],
      "stateMutability": "view",
      "type": "function"
    },
    {
      "inputs": [],
      "name": "factory",
      "outputs": [
        {
          "internalType": "address",
          "name": "",
          "type": "address"
        }
      ],
      "stateMutability": "view",
      "type": "function"
    },
    {
      "inputs": [],
      "name": "feePool",
      "outputs": [
        {
          "internalType": "address",
          "name": "",
          "type": "address"
        }
      ],
      "stateMutability": "view",
      "type": "function"
    },
    {
      "inputs": [
        {
          "internalType": "address",
          "name": "owner_",
          "type": "address"
        },
        {
          "internalType": "uint256",
          "name": "startingAt_",
          "type": "uint256"
        },
        {
          "internalType": "uint256",
          "name": "eventDuration_",
          "type": "uint256"
        },
        {
          "internalType": "address",
          "name": "token_",
          "type": "address"
        },
        {
          "internalType": "uint256",
          "name": "allocatedAmount_",
          "type": "uint256"
        },
        {
          "internalType": "uint256",
          "name": "minRaisedAmount_",
          "type": "uint256"
        }
      ],
      "name": "initialize",
      "outputs": [
        {
          "internalType": "address",
          "name": "",
          "type": "address"
        },
        {
          "internalType": "uint256",
          "name": "",
          "type": "uint256"
        }
      ],
      "stateMutability": "nonpayable",
      "type": "function"
    },
    {
      "inputs": [
        {
          "internalType": "address",
          "name": "token_",
          "type": "address"
        },
        {
          "internalType": "uint256",
          "name": "amount_",
          "type": "uint256"
        },
        {
          "internalType": "address",
          "name": "to_",
          "type": "address"
        }
      ],
      "name": "initializeTransfer",
      "outputs": [],
      "stateMutability": "nonpayable",
      "type": "function"
    },
    {
      "inputs": [],
      "name": "minRaisedAmount",
      "outputs": [
        {
          "internalType": "uint256",
          "name": "",
          "type": "uint256"
        }
      ],
      "stateMutability": "view",
      "type": "function"
    },
    {
      "inputs": [],
      "name": "owner",
      "outputs": [
        {
          "internalType": "address",
          "name": "",
          "type": "address"
        }
      ],
      "stateMutability": "view",
      "type": "function"
    },
    {
      "inputs": [
        {
          "internalType": "address",
          "name": "",
          "type": "address"
        }
      ],
      "name": "raised",
      "outputs": [
        {
          "internalType": "uint256",
          "name": "",
          "type": "uint256"
        }
      ],
      "stateMutability": "view",
      "type": "function"
    },
    {
      "inputs": [],
      "name": "startingAt",
      "outputs": [
        {
          "internalType": "uint256",
          "name": "",
          "type": "uint256"
        }
      ],
      "stateMutability": "view",
      "type": "function"
    },
    {
      "inputs": [],
      "name": "totalRaised",
      "outputs": [
        {
          "internalType": "uint256",
          "name": "",
          "type": "uint256"
        }
      ],
      "stateMutability": "view",
      "type": "function"
    },
    {
      "inputs": [],
      "name": "withdrawERC20Onsale",
      "outputs": [],
      "stateMutability": "nonpayable",
      "type": "function"
    },
    {
      "inputs": [],
      "name": "withdrawRaisedETH",
      "outputs": [],
      "stateMutability": "nonpayable",
      "type": "function"
    },
    {
      "stateMutability": "payable",
      "type": "receive"
    }
  ],
  "bytecode": "0x60c06040523480156200001157600080fd5b5060405162001a0a38038062001a0a83398101604081905262000034916200006e565b6001600160a01b0391821660a052166080526001600355620000a6565b80516001600160a01b03811681146200006957600080fd5b919050565b600080604083850312156200008257600080fd5b6200008d8362000051565b91506200009d6020840162000051565b90509250929050565b60805160a051611929620000e1600039600081816104d1015281816109980152610ac5015260008181610487015261148101526119296000f3fe6080604052600436106100f75760003560e01c8063a6e00ca51161008a578063c5c4744c11610059578063c5c4744c146104f3578063d2a31c9014610509578063dccd431514610536578063fdc2c74d1461054c57600080fd5b8063a6e00ca514610460578063ae2e933b14610475578063b86c0e1f146104a9578063c45a0155146104bf57600080fd5b806328fb0cfe116100c657806328fb0cfe146103885780637e7e9ca9146103a85780637fed67e5146103f45780638da5cb5b1461042e57600080fd5b8063115425e4146102fa5780631391fd601461032357806318dfe5cf1461035057806321c0b3421461036657600080fd5b366102f5574260015411156101535760405162461bcd60e51b815260206004820181905260248201527f546865206f66666572696e6720686173206e6f7420737461727465642079657460448201526064015b60405180910390fd5b6002544211156101a55760405162461bcd60e51b815260206004820152601e60248201527f546865206f66666572696e672068617320616c726561647920656e6465640000604482015260640161014a565b66038d7ea4c680003410156102225760405162461bcd60e51b815260206004820152603460248201527f54686520616d6f756e74206d7573742062652067726561746572207468616e2060448201527f6f7220657175616c20746f20302e303031455448000000000000000000000000606482015260840161014a565b6000346007546102329190611683565b90506b033b2e3c9fd0803ce8000000811061028f5760405162461bcd60e51b815260206004820181905260248201527f746f74616c52616973656420697320756e65787065637465646c792068696768604482015260640161014a565b600781905533600090815260086020526040812080543492906102b3908490611683565b9091555050604080516000815234602082015233917f5d071d5d77696f8867c9e019adc5efcfb6d17f38e3192132d491a137da359d59910160405180910390a2005b600080fd5b34801561030657600080fd5b5061031060055481565b6040519081526020015b60405180910390f35b34801561032f57600080fd5b5061031061033e3660046116c5565b60086020526000908152604090205481565b34801561035c57600080fd5b5061031060065481565b34801561037257600080fd5b506103866103813660046116e7565b610561565b005b34801561039457600080fd5b506103866103a336600461171a565b610980565b3480156103b457600080fd5b506103c86103c3366004611756565b610aaa565b6040805173ffffffffffffffffffffffffffffffffffffffff909316835260208301919091520161031a565b34801561040057600080fd5b50610409600081565b60405173ffffffffffffffffffffffffffffffffffffffff909116815260200161031a565b34801561043a57600080fd5b5060005461040990610100900473ffffffffffffffffffffffffffffffffffffffff1681565b34801561046c57600080fd5b50610386611084565b34801561048157600080fd5b506104097f000000000000000000000000000000000000000000000000000000000000000081565b3480156104b557600080fd5b5061031060025481565b3480156104cb57600080fd5b506104097f000000000000000000000000000000000000000000000000000000000000000081565b3480156104ff57600080fd5b5061031060075481565b34801561051557600080fd5b506004546104099073ffffffffffffffffffffffffffffffffffffffff1681565b34801561054257600080fd5b5061031060015481565b34801561055857600080fd5b5061038661126e565b6105696115ba565b60025442116105e05760405162461bcd60e51b815260206004820152602560248201527f4561726c7920746f20636c61696d2e2053616c65206973206e6f742066696e6960448201527f736865642e000000000000000000000000000000000000000000000000000000606482015260840161014a565b73ffffffffffffffffffffffffffffffffffffffff8216600090815260086020526040902054806106535760405162461bcd60e51b815260206004820181905260248201527f596f7520646f6e2774206861766520616e7920636f6e747269627574696f6e2e604482015260640161014a565b73ffffffffffffffffffffffffffffffffffffffff8316600090815260086020526040812081905560075460055461068c918491611613565b9050600654600754101580156106a157508015155b156108d5573373ffffffffffffffffffffffffffffffffffffffff8516148015906106f857508273ffffffffffffffffffffffffffffffffffffffff168473ffffffffffffffffffffffffffffffffffffffff1614155b156107455760405162461bcd60e51b815260206004820181905260248201527f7061727469636970616e74206f7220726563697069656e7420696e76616c6964604482015260640161014a565b600480546040517fa9059cbb00000000000000000000000000000000000000000000000000000000815273ffffffffffffffffffffffffffffffffffffffff868116938201939093526024810184905291169063a9059cbb906044016020604051808303816000875af11580156107c0573d6000803e3d6000fd5b505050506040513d601f19601f820116820180604052508101906107e491906117ae565b50600063d119db4c856107f860c8866117d0565b6040517fffffffff0000000000000000000000000000000000000000000000000000000060e085901b16815273ffffffffffffffffffffffffffffffffffffffff90921660048301526024820152604401600060405180830381600087803b15801561086357600080fd5b505af1158015610877573d6000803e3d6000fd5b5050604080518581526020810185905273ffffffffffffffffffffffffffffffffffffffff8088169450881692507f2f6639d24651730c7bf57c95ddbf96d66d11477e4ec626876f92c22e5f365e68910160405180910390a3610970565b60405173ffffffffffffffffffffffffffffffffffffffff85169083156108fc029084906000818181858888f19350505050158015610918573d6000803e3d6000fd5b50604080518381526000602082015273ffffffffffffffffffffffffffffffffffffffff80861692908716917f2f6639d24651730c7bf57c95ddbf96d66d11477e4ec626876f92c22e5f365e68910160405180910390a35b505061097c6001600355565b5050565b3073ffffffffffffffffffffffffffffffffffffffff7f00000000000000000000000000000000000000000000000000000000000000001614610a055760405162461bcd60e51b815260206004820152601860248201527f596f7520617265206e6f742074686520666163746f72792e0000000000000000604482015260640161014a565b6040517f23b872dd00000000000000000000000000000000000000000000000000000000815233600482015273ffffffffffffffffffffffffffffffffffffffff8281166024830152604482018490528416906323b872dd906064016020604051808303816000875af1158015610a80573d6000803e3d6000fd5b505050506040513d601f19601f82011682018060405250810190610aa491906117ae565b50505050565b6000803373ffffffffffffffffffffffffffffffffffffffff7f00000000000000000000000000000000000000000000000000000000000000001614610b325760405162461bcd60e51b815260206004820152601860248201527f596f7520617265206e6f742074686520666163746f72792e0000000000000000604482015260640161014a565b60005460ff1615610bab5760405162461bcd60e51b815260206004820152602a60248201527f5468697320636f6e74726163742068617320616c7265616479206265656e206960448201527f6e697469616c697a656400000000000000000000000000000000000000000000606482015260840161014a565b600080547fffffffffffffffffffffffffffffffffffffffffffffffffffffffffffffff0016600117905573ffffffffffffffffffffffffffffffffffffffff8816610c395760405162461bcd60e51b815260206004820152601360248201527f6f776e6572206d75737420626520746865726500000000000000000000000000604482015260640161014a565b73ffffffffffffffffffffffffffffffffffffffff8516610c9c5760405162461bcd60e51b815260206004820152601960248201527f476f2077697468206e6f6e206e756c6c20616464726573732e00000000000000604482015260640161014a565b620f4240841015610d155760405162461bcd60e51b815260206004820152603560248201527f616c6c6f6361746564416d6f756e74206d75737420626520677265617465722060448201527f7468616e206f7220657175616c20746f203165362e0000000000000000000000606482015260840161014a565b74446c3b15f9926687d2c40534fdb564000000000000841115610da05760405162461bcd60e51b815260206004820152603360248201527f616c6c6f6361746564416d6f756e74206d757374206265206c6573732074686160448201527f6e206f7220657175616c20746f20316535302e00000000000000000000000000606482015260840161014a565b86421115610df05760405162461bcd60e51b815260206004820181905260248201527f7374617274696e674174206d75737420626520696e2074686520667574757265604482015260640161014a565b62015180861015610e435760405162461bcd60e51b815260206004820152601b60248201527f6576656e74206475726174696f6e20697320746f6f2073686f72740000000000604482015260640161014a565b62278d00861115610e965760405162461bcd60e51b815260206004820152601a60248201527f6576656e74206475726174696f6e20697320746f6f206c6f6e67000000000000604482015260640161014a565b6b033b2e3c9fd0803ce8000000831115610f185760405162461bcd60e51b815260206004820152603360248201527f6d696e526169736564416d6f756e74206d757374206265206c6573732074686160448201527f6e206f7220657175616c20746f20316532372e00000000000000000000000000606482015260840161014a565b600080547fffffffffffffffffffffff0000000000000000000000000000000000000000ff1661010073ffffffffffffffffffffffffffffffffffffffff8b16021790556001879055610f6b8688611683565b6002819055600480547fffffffffffffffffffffffff00000000000000000000000000000000000000001673ffffffffffffffffffffffffffffffffffffffff881617905560058590556006849055604051600060208201527f6941bafd33fd21cfca650065c154bba3f36b75ea861c243be4cfa41505906b7c9130918b918b918a90603401604080517fffffffffffffffffffffffffffffffffffffffffffffffffffffffffffffffe0818403018152828252602083018d90529082018b905290606001604080517fffffffffffffffffffffffffffffffffffffffffffffffffffffffffffffffe08184030181529082905261106e9796959493929161184b565b60405180910390a1509296919550909350505050565b600054610100900473ffffffffffffffffffffffffffffffffffffffff1633146110f05760405162461bcd60e51b815260206004820152601660248201527f596f7520617265206e6f7420746865206f776e65722e00000000000000000000604482015260640161014a565b42600254106111415760405162461bcd60e51b815260206004820152601e60248201527f546865206f66666572696e67206d75737420626520636f6d706c657465640000604482015260640161014a565b60065460075410806111535750600754155b6111c45760405162461bcd60e51b8152602060048201526024808201527f54686520726571756972656420616d6f756e7420686173206265656e2072616960448201527f7365642100000000000000000000000000000000000000000000000000000000606482015260840161014a565b600480546000546005546040517fa9059cbb00000000000000000000000000000000000000000000000000000000815273ffffffffffffffffffffffffffffffffffffffff6101009093048316948101949094526024840152169063a9059cbb906044016020604051808303816000875af1158015611247573d6000803e3d6000fd5b505050506040513d601f19601f8201168201806040525081019061126b91906117ae565b50565b600054610100900473ffffffffffffffffffffffffffffffffffffffff1633146112da5760405162461bcd60e51b815260206004820152601660248201527f596f7520617265206e6f7420746865206f776e65722e00000000000000000000604482015260640161014a565b6112e26115ba565b42600254106113335760405162461bcd60e51b815260206004820152601b60248201527f5769746864726177616c20756e617661696c61626c65207965742e0000000000604482015260640161014a565b60065460075410156113ad5760405162461bcd60e51b815260206004820152602860248201527f54686520726571756972656420616d6f756e7420686173206e6f74206265656e60448201527f2072616973656421000000000000000000000000000000000000000000000000606482015260840161014a565b426002546203f4806113bf9190611683565b106114565760006113dc66038d7ea4c68000600754600554611613565b9050600081116114545760405162461bcd60e51b815260206004820152603860248201527f526566756e642063616e64696461746573206d61792065786973742e2057697460448201527f6864726177616c20756e617661696c61626c65207965742e0000000000000000606482015260840161014a565b505b4760006114646064476118b8565b60405190915073ffffffffffffffffffffffffffffffffffffffff7f0000000000000000000000000000000000000000000000000000000000000000169082156108fc029083906000818181858888f193505050501580156114ca573d6000803e3d6000fd5b506000805460405161010090910473ffffffffffffffffffffffffffffffffffffffff16916108fc851502918591818181858888f19350505050158015611515573d6000803e3d6000fd5b50600063d119db4c3361152960c8866117d0565b6040517fffffffff0000000000000000000000000000000000000000000000000000000060e085901b16815273ffffffffffffffffffffffffffffffffffffffff90921660048301526024820152604401600060405180830381600087803b15801561159457600080fd5b505af11580156115a8573d6000803e3d6000fd5b5050505050506115b86001600355565b565b60026003540361160c5760405162461bcd60e51b815260206004820152601f60248201527f5265656e7472616e637947756172643a207265656e7472616e742063616c6c00604482015260640161014a565b6002600355565b60006b033b2e3c9fd0803ce8000000828461162e83886117d0565b61163891906118b8565b61164291906117d0565b61164c91906118b8565b949350505050565b7f4e487b7100000000000000000000000000000000000000000000000000000000600052601160045260246000fd5b8082018082111561169657611696611654565b92915050565b803573ffffffffffffffffffffffffffffffffffffffff811681146116c057600080fd5b919050565b6000602082840312156116d757600080fd5b6116e08261169c565b9392505050565b600080604083850312156116fa57600080fd5b6117038361169c565b91506117116020840161169c565b90509250929050565b60008060006060848603121561172f57600080fd5b6117388461169c565b92506020840135915061174d6040850161169c565b90509250925092565b60008060008060008060c0878903121561176f57600080fd5b6117788761169c565b955060208701359450604087013593506117946060880161169c565b92506080870135915060a087013590509295509295509295565b6000602082840312156117c057600080fd5b815180151581146116e057600080fd5b808202811582820484141761169657611696611654565b6000815180845260005b8181101561180d576020818501810151868301820152016117f1565b5060006020828601015260207fffffffffffffffffffffffffffffffffffffffffffffffffffffffffffffffe0601f83011685010191505092915050565b600073ffffffffffffffffffffffffffffffffffffffff808a168352808916602084015287604084015286606084015280861660808401525060e060a083015261189860e08301856117e7565b82810360c08401526118aa81856117e7565b9a9950505050505050505050565b6000826118ee577f4e487b7100000000000000000000000000000000000000000000000000000000600052601260045260246000fd5b50049056fea2646970667358221220e5782713f4fcbb89493a8d8a2812ff151fcca4e19eef23ce554382eeda394d4064736f6c63430008120033",
  "linkReferences": {},
  "deployedLinkReferences": {}
}