{
  "_format": "hh-sol-artifact-1",
  "contractName": "TemplateV1",
  "sourceName": "contracts/TemplateV1.sol",
  "abi": [
    {
      "inputs": [
        {
          "internalType": "address",
          "name": "factory_",
          "type": "address"
        },
        {
          "internalType": "address",
          "name": "feePool_",
          "type": "address"
        }
      ],
      "stateMutability": "nonpayable",
      "type": "constructor"
    },
    {
      "anonymous": false,
      "inputs": [
        {
          "indexed": true,
          "internalType": "address",
          "name": "contributor",
          "type": "address"
        },
        {
          "indexed": true,
          "internalType": "address",
          "name": "recipient",
          "type": "address"
        },
        {
          "indexed": false,
          "internalType": "uint256",
          "name": "userShare",
          "type": "uint256"
        },
        {
          "indexed": false,
          "internalType": "uint256",
          "name": "allocation",
          "type": "uint256"
        }
      ],
      "name": "Claimed",
      "type": "event"
    },
    {
      "anonymous": false,
      "inputs": [
        {
          "indexed": false,
          "internalType": "address",
          "name": "deployedAddress",
          "type": "address"
        },
        {
          "indexed": false,
          "internalType": "address",
          "name": "owner",
          "type": "address"
        },
        {
          "indexed": false,
          "internalType": "uint256",
          "name": "startingAt",
          "type": "uint256"
        },
        {
          "indexed": false,
          "internalType": "uint256",
          "name": "closingAt",
          "type": "uint256"
        },
        {
          "indexed": false,
          "internalType": "address",
          "name": "auctionToken",
          "type": "address"
        },
        {
          "indexed": false,
          "internalType": "bytes",
          "name": "raisedTokens",
          "type": "bytes"
        },
        {
          "indexed": false,
          "internalType": "bytes",
          "name": "args",
          "type": "bytes"
        }
      ],
      "name": "Deployed",
      "type": "event"
    },
    {
      "anonymous": false,
      "inputs": [
        {
          "indexed": true,
          "internalType": "address",
          "name": "account",
          "type": "address"
        },
        {
          "indexed": false,
          "internalType": "uint256",
          "name": "amount",
          "type": "uint256"
        }
      ],
      "name": "Received",
      "type": "event"
    },
    {
      "inputs": [],
      "name": "allocatedAmount",
      "outputs": [
        {
          "internalType": "uint256",
          "name": "",
          "type": "uint256"
        }
      ],
      "stateMutability": "view",
      "type": "function"
    },
    {
      "inputs": [
        {
          "internalType": "address",
          "name": "contributor",
          "type": "address"
        },
        {
          "internalType": "address",
          "name": "recipient",
          "type": "address"
        }
      ],
      "name": "claim",
      "outputs": [],
      "stateMutability": "nonpayable",
      "type": "function"
    },
    {
      "inputs": [],
      "name": "closingAt",
      "outputs": [
        {
          "internalType": "uint256",
          "name": "",
          "type": "uint256"
        }
      ],
      "stateMutability": "view",
      "type": "function"
    },
    {
      "inputs": [],
      "name": "erc20onsale",
      "outputs": [
        {
          "internalType": "contract IERC20",
          "name": "",
          "type": "address"
        }
      ],
      "stateMutability": "view",
      "type": "function"
    },
    {
      "inputs": [],
      "name": "factory",
      "outputs": [
        {
          "internalType": "address",
          "name": "",
          "type": "address"
        }
      ],
      "stateMutability": "view",
      "type": "function"
    },
    {
      "inputs": [],
      "name": "feePool",
      "outputs": [
        {
          "internalType": "address",
          "name": "",
          "type": "address"
        }
      ],
      "stateMutability": "view",
      "type": "function"
    },
    {
      "inputs": [
        {
          "internalType": "address",
          "name": "owner_",
          "type": "address"
        },
        {
          "internalType": "uint256",
          "name": "startingAt_",
          "type": "uint256"
        },
        {
          "internalType": "uint256",
          "name": "eventDuration_",
          "type": "uint256"
        },
        {
          "internalType": "address",
          "name": "token_",
          "type": "address"
        },
        {
          "internalType": "uint256",
          "name": "allocatedAmount_",
          "type": "uint256"
        },
        {
          "internalType": "uint256",
          "name": "minRaisedAmount_",
          "type": "uint256"
        }
      ],
      "name": "initialize",
      "outputs": [
        {
          "internalType": "address",
          "name": "",
          "type": "address"
        },
        {
          "internalType": "uint256",
          "name": "",
          "type": "uint256"
        }
      ],
      "stateMutability": "nonpayable",
      "type": "function"
    },
    {
      "inputs": [
        {
          "internalType": "address",
          "name": "token_",
          "type": "address"
        },
        {
          "internalType": "uint256",
          "name": "amount_",
          "type": "uint256"
        },
        {
          "internalType": "address",
          "name": "to_",
          "type": "address"
        }
      ],
      "name": "initializeTransfer",
      "outputs": [],
      "stateMutability": "nonpayable",
      "type": "function"
    },
    {
      "inputs": [],
      "name": "minRaisedAmount",
      "outputs": [
        {
          "internalType": "uint256",
          "name": "",
          "type": "uint256"
        }
      ],
      "stateMutability": "view",
      "type": "function"
    },
    {
      "inputs": [],
      "name": "owner",
      "outputs": [
        {
          "internalType": "address",
          "name": "",
          "type": "address"
        }
      ],
      "stateMutability": "view",
      "type": "function"
    },
    {
      "inputs": [
        {
          "internalType": "address",
          "name": "",
          "type": "address"
        }
      ],
      "name": "raised",
      "outputs": [
        {
          "internalType": "uint256",
          "name": "",
          "type": "uint256"
        }
      ],
      "stateMutability": "view",
      "type": "function"
    },
    {
      "inputs": [],
      "name": "startingAt",
      "outputs": [
        {
          "internalType": "uint256",
          "name": "",
          "type": "uint256"
        }
      ],
      "stateMutability": "view",
      "type": "function"
    },
    {
      "inputs": [],
      "name": "totalRaised",
      "outputs": [
        {
          "internalType": "uint256",
          "name": "",
          "type": "uint256"
        }
      ],
      "stateMutability": "view",
      "type": "function"
    },
    {
      "inputs": [],
      "name": "withdrawERC20Onsale",
      "outputs": [],
      "stateMutability": "nonpayable",
      "type": "function"
    },
    {
      "inputs": [],
      "name": "withdrawRaisedETH",
      "outputs": [],
      "stateMutability": "nonpayable",
      "type": "function"
    },
    {
      "stateMutability": "payable",
      "type": "receive"
    }
  ],
  "bytecode": "0x60c06040523480156200001157600080fd5b50604051620018d4380380620018d483398101604081905262000034916200006e565b6001600160a01b0391821660a052166080526001600355620000a6565b80516001600160a01b03811681146200006957600080fd5b919050565b600080604083850312156200008257600080fd5b6200008d8362000051565b91506200009d6020840162000051565b90509250929050565b60805160a0516117fa620000da600039600081816104ab01526109a801526000818161046101526113e501526117fa6000f3fe6080604052600436106100ec5760003560e01c8063a6e00ca51161008a578063c5c4744c11610059578063c5c4744c146104cd578063d2a31c90146104e3578063dccd431514610510578063fdc2c74d1461052657600080fd5b8063a6e00ca51461043a578063ae2e933b1461044f578063b86c0e1f14610483578063c45a01551461049957600080fd5b806321c0b342116100c657806321c0b3421461035557806328fb0cfe146103775780637e7e9ca9146103975780638da5cb5b146103e357600080fd5b8063115425e4146102e95780631391fd601461031257806318dfe5cf1461033f57600080fd5b366102e4574260015411156101485760405162461bcd60e51b815260206004820181905260248201527f546865206f66666572696e6720686173206e6f7420737461727465642079657460448201526064015b60405180910390fd5b60025442111561019a5760405162461bcd60e51b815260206004820152601e60248201527f546865206f66666572696e672068617320616c726561647920656e6465640000604482015260640161013f565b66038d7ea4c680003410156102175760405162461bcd60e51b815260206004820152603460248201527f54686520616d6f756e74206d7573742062652067726561746572207468616e2060448201527f6f7220657175616c20746f20302e303031455448000000000000000000000000606482015260840161013f565b6000346007546102279190611554565b90506b033b2e3c9fd0803ce800000081106102845760405162461bcd60e51b815260206004820181905260248201527f746f74616c52616973656420697320756e65787065637465646c792068696768604482015260640161013f565b600781905533600090815260086020526040812080543492906102a8908490611554565b909155505060405134815233907f88a5966d370b9919b20f3e2c13ff65706f196a4e32cc2c12bf57088f885258749060200160405180910390a2005b600080fd5b3480156102f557600080fd5b506102ff60055481565b6040519081526020015b60405180910390f35b34801561031e57600080fd5b506102ff61032d366004611596565b60086020526000908152604090205481565b34801561034b57600080fd5b506102ff60065481565b34801561036157600080fd5b506103756103703660046115b8565b61053b565b005b34801561038357600080fd5b506103756103923660046115eb565b610990565b3480156103a357600080fd5b506103b76103b2366004611627565b610aba565b6040805173ffffffffffffffffffffffffffffffffffffffff9093168352602083019190915201610309565b3480156103ef57600080fd5b5060005461041590610100900473ffffffffffffffffffffffffffffffffffffffff1681565b60405173ffffffffffffffffffffffffffffffffffffffff9091168152602001610309565b34801561044657600080fd5b50610375610fe9565b34801561045b57600080fd5b506104157f000000000000000000000000000000000000000000000000000000000000000081565b34801561048f57600080fd5b506102ff60025481565b3480156104a557600080fd5b506104157f000000000000000000000000000000000000000000000000000000000000000081565b3480156104d957600080fd5b506102ff60075481565b3480156104ef57600080fd5b506004546104159073ffffffffffffffffffffffffffffffffffffffff1681565b34801561051c57600080fd5b506102ff60015481565b34801561053257600080fd5b506103756111d3565b61054361148b565b60025442116105ba5760405162461bcd60e51b815260206004820152602560248201527f4561726c7920746f20636c61696d2e2053616c65206973206e6f742066696e6960448201527f736865642e000000000000000000000000000000000000000000000000000000606482015260840161013f565b73ffffffffffffffffffffffffffffffffffffffff821660009081526008602052604090205461062c5760405162461bcd60e51b815260206004820181905260248201527f596f7520646f6e2774206861766520616e7920636f6e747269627574696f6e2e604482015260640161013f565b73ffffffffffffffffffffffffffffffffffffffff8216600090815260086020526040812080549082905560075460055491929161066b9184916114e4565b90506006546007541015801561068057508015155b156108e5573373ffffffffffffffffffffffffffffffffffffffff85161480156106d557508273ffffffffffffffffffffffffffffffffffffffff168473ffffffffffffffffffffffffffffffffffffffff16145b8061072c57503373ffffffffffffffffffffffffffffffffffffffff85161480159061072c57508273ffffffffffffffffffffffffffffffffffffffff168473ffffffffffffffffffffffffffffffffffffffff16145b8061078357503373ffffffffffffffffffffffffffffffffffffffff851614801561078357508273ffffffffffffffffffffffffffffffffffffffff168473ffffffffffffffffffffffffffffffffffffffff1614155b1561089d57600480546040517fa9059cbb00000000000000000000000000000000000000000000000000000000815273ffffffffffffffffffffffffffffffffffffffff868116938201939093526024810184905291169063a9059cbb906044016020604051808303816000875af1158015610803573d6000803e3d6000fd5b505050506040513d601f19601f82011682018060405250810190610827919061167f565b508273ffffffffffffffffffffffffffffffffffffffff168473ffffffffffffffffffffffffffffffffffffffff167f2f6639d24651730c7bf57c95ddbf96d66d11477e4ec626876f92c22e5f365e688484604051610890929190918252602082015260400190565b60405180910390a3610980565b60405162461bcd60e51b815260206004820181905260248201527f636f6e7472696275746f72206f7220726563697069656e7420696e76616c6964604482015260640161013f565b60405173ffffffffffffffffffffffffffffffffffffffff85169083156108fc029084906000818181858888f19350505050158015610928573d6000803e3d6000fd5b50604080518381526000602082015273ffffffffffffffffffffffffffffffffffffffff80861692908716917f2f6639d24651730c7bf57c95ddbf96d66d11477e4ec626876f92c22e5f365e68910160405180910390a35b505061098c6001600355565b5050565b3073ffffffffffffffffffffffffffffffffffffffff7f00000000000000000000000000000000000000000000000000000000000000001614610a155760405162461bcd60e51b815260206004820152601860248201527f596f7520617265206e6f742074686520666163746f72792e0000000000000000604482015260640161013f565b6040517f23b872dd00000000000000000000000000000000000000000000000000000000815233600482015273ffffffffffffffffffffffffffffffffffffffff8281166024830152604482018490528416906323b872dd906064016020604051808303816000875af1158015610a90573d6000803e3d6000fd5b505050506040513d601f19601f82011682018060405250810190610ab4919061167f565b50505050565b60008054819060ff1615610b365760405162461bcd60e51b815260206004820152602a60248201527f5468697320636f6e74726163742068617320616c7265616479206265656e206960448201527f6e697469616c697a656400000000000000000000000000000000000000000000606482015260840161013f565b73ffffffffffffffffffffffffffffffffffffffff8816610b995760405162461bcd60e51b815260206004820152601360248201527f6f776e6572206d75737420626520746865726500000000000000000000000000604482015260640161013f565b73ffffffffffffffffffffffffffffffffffffffff8516610bfc5760405162461bcd60e51b815260206004820152601960248201527f476f2077697468206e6f6e206e756c6c20616464726573732e00000000000000604482015260640161013f565b620f4240841015610c755760405162461bcd60e51b815260206004820152603560248201527f616c6c6f6361746564416d6f756e74206d75737420626520677265617465722060448201527f7468616e206f7220657175616c20746f203165362e0000000000000000000000606482015260840161013f565b74446c3b15f9926687d2c40534fdb564000000000000841115610d005760405162461bcd60e51b815260206004820152603360248201527f616c6c6f6361746564416d6f756e74206d757374206265206c6573732074686160448201527f6e206f7220657175616c20746f20316535302e00000000000000000000000000606482015260840161013f565b86421115610d505760405162461bcd60e51b815260206004820181905260248201527f7374617274696e674174206d75737420626520696e2074686520667574757265604482015260640161013f565b62015180861015610da35760405162461bcd60e51b815260206004820152601b60248201527f6576656e74206475726174696f6e20697320746f6f2073686f72740000000000604482015260640161013f565b62278d00861115610df65760405162461bcd60e51b815260206004820152601a60248201527f6576656e74206475726174696f6e20697320746f6f206c6f6e67000000000000604482015260640161013f565b6b033b2e3c9fd0803ce8000000831115610e785760405162461bcd60e51b815260206004820152603360248201527f6d696e526169736564416d6f756e74206d757374206265206c6573732074686160448201527f6e206f7220657175616c20746f20316532372e00000000000000000000000000606482015260840161013f565b6000805460017fffffffffffffffffffffff00000000000000000000000000000000000000000090911661010073ffffffffffffffffffffffffffffffffffffffff8c1602178117909155879055610ed08688611554565b6002819055600480547fffffffffffffffffffffffff00000000000000000000000000000000000000001673ffffffffffffffffffffffffffffffffffffffff88161790556005859055600684905560408051600060208201527f6941bafd33fd21cfca650065c154bba3f36b75ea861c243be4cfa41505906b7c9230928c928c92918b9101604080517fffffffffffffffffffffffffffffffffffffffffffffffffffffffffffffffe0818403018152828252602083018d90529082018b905290606001604080517fffffffffffffffffffffffffffffffffffffffffffffffffffffffffffffffe081840301815290829052610fd397969594939291611705565b60405180910390a1509296919550909350505050565b600054610100900473ffffffffffffffffffffffffffffffffffffffff1633146110555760405162461bcd60e51b815260206004820152601660248201527f596f7520617265206e6f7420746865206f776e65722e00000000000000000000604482015260640161013f565b42600254106110a65760405162461bcd60e51b815260206004820152601e60248201527f546865206f66666572696e67206d75737420626520636f6d706c657465640000604482015260640161013f565b60065460075410806110b85750600754155b6111295760405162461bcd60e51b8152602060048201526024808201527f54686520726571756972656420616d6f756e7420686173206265656e2072616960448201527f7365642100000000000000000000000000000000000000000000000000000000606482015260840161013f565b600480546000546005546040517fa9059cbb00000000000000000000000000000000000000000000000000000000815273ffffffffffffffffffffffffffffffffffffffff6101009093048316948101949094526024840152169063a9059cbb906044016020604051808303816000875af11580156111ac573d6000803e3d6000fd5b505050506040513d601f19601f820116820180604052508101906111d0919061167f565b50565b600054610100900473ffffffffffffffffffffffffffffffffffffffff16331461123f5760405162461bcd60e51b815260206004820152601660248201527f596f7520617265206e6f7420746865206f776e65722e00000000000000000000604482015260640161013f565b61124761148b565b42600254106112985760405162461bcd60e51b815260206004820152601b60248201527f5769746864726177616c20756e617661696c61626c65207965742e0000000000604482015260640161013f565b60065460075410156113125760405162461bcd60e51b815260206004820152602860248201527f54686520726571756972656420616d6f756e7420686173206e6f74206265656e60448201527f2072616973656421000000000000000000000000000000000000000000000000606482015260840161013f565b426002546203f4806113249190611554565b106113bb57600061134166038d7ea4c680006007546005546114e4565b9050600081116113b95760405162461bcd60e51b815260206004820152603860248201527f526566756e642063616e64696461746573206d61792065786973742e2057697460448201527f6864726177616c20756e617661696c61626c65207965742e0000000000000000606482015260840161013f565b505b60006113c8606447611772565b60405190915073ffffffffffffffffffffffffffffffffffffffff7f0000000000000000000000000000000000000000000000000000000000000000169082156108fc029083906000818181858888f1935050505015801561142e573d6000803e3d6000fd5b506000805460405173ffffffffffffffffffffffffffffffffffffffff61010090920491909116914780156108fc02929091818181858888f1935050505015801561147d573d6000803e3d6000fd5b50506114896001600355565b565b6002600354036114dd5760405162461bcd60e51b815260206004820152601f60248201527f5265656e7472616e637947756172643a207265656e7472616e742063616c6c00604482015260640161013f565b6002600355565b60006b033b2e3c9fd0803ce800000082846114ff83886117ad565b6115099190611772565b61151391906117ad565b61151d9190611772565b949350505050565b7f4e487b7100000000000000000000000000000000000000000000000000000000600052601160045260246000fd5b8082018082111561156757611567611525565b92915050565b803573ffffffffffffffffffffffffffffffffffffffff8116811461159157600080fd5b919050565b6000602082840312156115a857600080fd5b6115b18261156d565b9392505050565b600080604083850312156115cb57600080fd5b6115d48361156d565b91506115e26020840161156d565b90509250929050565b60008060006060848603121561160057600080fd5b6116098461156d565b92506020840135915061161e6040850161156d565b90509250925092565b60008060008060008060c0878903121561164057600080fd5b6116498761156d565b955060208701359450604087013593506116656060880161156d565b92506080870135915060a087013590509295509295509295565b60006020828403121561169157600080fd5b815180151581146115b157600080fd5b6000815180845260005b818110156116c7576020818501810151868301820152016116ab565b5060006020828601015260207fffffffffffffffffffffffffffffffffffffffffffffffffffffffffffffffe0601f83011685010191505092915050565b600073ffffffffffffffffffffffffffffffffffffffff808a168352808916602084015287604084015286606084015280861660808401525060e060a083015261175260e08301856116a1565b82810360c084015261176481856116a1565b9a9950505050505050505050565b6000826117a8577f4e487b7100000000000000000000000000000000000000000000000000000000600052601260045260246000fd5b500490565b80820281158282048414176115675761156761152556fea2646970667358221220818193a111bb3a8ba6c2b553b7a5f9736925d590450deb53e03dac08871cea8f64736f6c63430008120033",
  "linkReferences": {},
  "deployedLinkReferences": {}
}