{
  "_format": "hh-sol-artifact-1",
  "contractName": "Distributor",
  "sourceName": "contracts/Distributor.sol",
  "abi": [
    {
      "inputs": [
        {
          "internalType": "address",
          "name": "factory_",
          "type": "address"
        },
        {
          "internalType": "address",
          "name": "token_",
          "type": "address"
        }
      ],
      "stateMutability": "nonpayable",
      "type": "constructor"
    },
    {
      "anonymous": false,
      "inputs": [
        {
          "indexed": true,
          "internalType": "address",
          "name": "userAddress",
          "type": "address"
        },
        {
          "indexed": false,
          "internalType": "uint256",
          "name": "amount",
          "type": "uint256"
        }
      ],
      "name": "Claimed",
      "type": "event"
    },
    {
      "anonymous": false,
      "inputs": [
        {
          "indexed": true,
          "internalType": "address",
          "name": "scorerAddress",
          "type": "address"
        },
        {
          "indexed": true,
          "internalType": "address",
          "name": "userAddress",
          "type": "address"
        },
        {
          "indexed": false,
          "internalType": "uint256",
          "name": "scoreAdded",
          "type": "uint256"
        },
        {
          "indexed": false,
          "internalType": "uint256",
          "name": "totalScore",
          "type": "uint256"
        }
      ],
      "name": "ScoreAdded",
      "type": "event"
    },
    {
      "inputs": [
        {
          "internalType": "address",
          "name": "targetAddress",
          "type": "address"
        },
        {
          "internalType": "uint256",
          "name": "amount",
          "type": "uint256"
        }
      ],
      "name": "addScore",
      "outputs": [],
      "stateMutability": "nonpayable",
      "type": "function"
    },
    {
      "inputs": [],
      "name": "claim",
      "outputs": [],
      "stateMutability": "nonpayable",
      "type": "function"
    },
    {
      "inputs": [],
      "name": "factory",
      "outputs": [
        {
          "internalType": "contract IFactory",
          "name": "",
          "type": "address"
        }
      ],
      "stateMutability": "view",
      "type": "function"
    },
    {
      "inputs": [
        {
          "internalType": "address",
          "name": "",
          "type": "address"
        }
      ],
      "name": "rewardScores",
      "outputs": [
        {
          "internalType": "uint256",
          "name": "",
          "type": "uint256"
        }
      ],
      "stateMutability": "view",
      "type": "function"
    },
    {
      "inputs": [],
      "name": "token",
      "outputs": [
        {
          "internalType": "contract IERC20",
          "name": "",
          "type": "address"
        }
      ],
      "stateMutability": "view",
      "type": "function"
    }
  ],
  "bytecode": "0x608060405234801561001057600080fd5b5060405161077338038061077383398101604081905261002f9161007c565b600080546001600160a01b039384166001600160a01b031991821617909155600180549290931691161790556100af565b80516001600160a01b038116811461007757600080fd5b919050565b6000806040838503121561008f57600080fd5b61009883610060565b91506100a660208401610060565b90509250929050565b6106b5806100be6000396000f3fe608060405234801561001057600080fd5b50600436106100675760003560e01c8063d119db4c11610050578063d119db4c146100c0578063e6a7fe29146100d3578063fc0c546a1461010157600080fd5b80634e71d92d1461006c578063c45a015514610076575b600080fd5b610074610121565b005b6000546100969073ffffffffffffffffffffffffffffffffffffffff1681565b60405173ffffffffffffffffffffffffffffffffffffffff90911681526020015b60405180910390f35b6100746100ce3660046105b8565b610459565b6100f36100e13660046105e2565b60026020526000908152604090205481565b6040519081526020016100b7565b6001546100969073ffffffffffffffffffffffffffffffffffffffff1681565b6000546040517f4da8941200000000000000000000000000000000000000000000000000000000815233600482015273ffffffffffffffffffffffffffffffffffffffff90911690634da8941290602401602060405180830381865afa15801561018f573d6000803e3d6000fd5b505050506040513d601f19601f820116820180604052508101906101b39190610604565b61021e576040517f08c379a000000000000000000000000000000000000000000000000000000000815260206004820181905260248201527f596f7520617265206e6f74207468652076657269666965642073636f7265722e60448201526064015b60405180910390fd5b3360009081526002602052604090205480610295576040517f08c379a000000000000000000000000000000000000000000000000000000000815260206004820152601c60248201527f4e6f7420656c696769626c6520746f20676574207265776172646564000000006044820152606401610215565b6001546040517f70a0823100000000000000000000000000000000000000000000000000000000815230600482015260009173ffffffffffffffffffffffffffffffffffffffff16906370a0823190602401602060405180830381865afa158015610304573d6000803e3d6000fd5b505050506040513d601f19601f820116820180604052508101906103289190610626565b905060008111610394576040517f08c379a000000000000000000000000000000000000000000000000000000000815260206004820152601460248201527f4e6f2072657761726420617661696c61626c652e0000000000000000000000006044820152606401610215565b818110156103a0578091505b336000818152600260205260408082209190915560015490517f23b872dd00000000000000000000000000000000000000000000000000000000815230600482015260248101929092526044820184905273ffffffffffffffffffffffffffffffffffffffff16906323b872dd906064016020604051808303816000875af1158015610430573d6000803e3d6000fd5b505050506040513d601f19601f820116820180604052508101906104549190610604565b505050565b6000546040517f4da8941200000000000000000000000000000000000000000000000000000000815233600482015273ffffffffffffffffffffffffffffffffffffffff90911690634da8941290602401602060405180830381865afa1580156104c7573d6000803e3d6000fd5b505050506040513d601f19601f820116820180604052508101906104eb9190610604565b610551576040517f08c379a000000000000000000000000000000000000000000000000000000000815260206004820181905260248201527f596f7520617265206e6f74207468652076657269666965642073636f7265722e6044820152606401610215565b73ffffffffffffffffffffffffffffffffffffffff82166000908152600260205260408120805483929061058690849061063f565b90915550505050565b803573ffffffffffffffffffffffffffffffffffffffff811681146105b357600080fd5b919050565b600080604083850312156105cb57600080fd5b6105d48361058f565b946020939093013593505050565b6000602082840312156105f457600080fd5b6105fd8261058f565b9392505050565b60006020828403121561061657600080fd5b815180151581146105fd57600080fd5b60006020828403121561063857600080fd5b5051919050565b80820180821115610679577f4e487b7100000000000000000000000000000000000000000000000000000000600052601160045260246000fd5b9291505056fea264697066735822122091ebf1510d189b35ebd05ab8fff56f984071b59f62db87969b846e235309908364736f6c63430008120033",
  "linkReferences": {},
  "deployedLinkReferences": {}
}