{
  "_format": "hh-sol-artifact-1",
  "contractName": "Distributor",
  "sourceName": "contracts/Distributor.sol",
  "abi": [
    {
      "inputs": [
        {
          "internalType": "address",
          "name": "factory_",
          "type": "address"
        },
        {
          "internalType": "address",
          "name": "token_",
          "type": "address"
        }
      ],
      "stateMutability": "nonpayable",
      "type": "constructor"
    },
    {
      "anonymous": false,
      "inputs": [
        {
          "indexed": true,
          "internalType": "address",
          "name": "userAddress",
          "type": "address"
        },
        {
          "indexed": false,
          "internalType": "uint256",
          "name": "amount",
          "type": "uint256"
        }
      ],
      "name": "Claimed",
      "type": "event"
    },
    {
      "anonymous": false,
      "inputs": [
        {
          "indexed": true,
          "internalType": "address",
          "name": "scorerAddress",
          "type": "address"
        },
        {
          "indexed": true,
          "internalType": "address",
          "name": "userAddress",
          "type": "address"
        },
        {
          "indexed": false,
          "internalType": "uint256",
          "name": "scoreAdded",
          "type": "uint256"
        }
      ],
      "name": "ScoreAdded",
      "type": "event"
    },
    {
      "inputs": [
        {
          "internalType": "address",
          "name": "target_",
          "type": "address"
        },
        {
          "internalType": "uint256",
          "name": "amount_",
          "type": "uint256"
        }
      ],
      "name": "addScore",
      "outputs": [],
      "stateMutability": "nonpayable",
      "type": "function"
    },
    {
      "inputs": [],
      "name": "claim",
      "outputs": [],
      "stateMutability": "nonpayable",
      "type": "function"
    },
    {
      "inputs": [],
      "name": "factory",
      "outputs": [
        {
          "internalType": "contract IFactory",
          "name": "",
          "type": "address"
        }
      ],
      "stateMutability": "view",
      "type": "function"
    },
    {
      "inputs": [
        {
          "internalType": "address",
          "name": "",
          "type": "address"
        }
      ],
      "name": "scores",
      "outputs": [
        {
          "internalType": "uint256",
          "name": "",
          "type": "uint256"
        }
      ],
      "stateMutability": "view",
      "type": "function"
    },
    {
      "inputs": [],
      "name": "token",
      "outputs": [
        {
          "internalType": "contract IERC20",
          "name": "",
          "type": "address"
        }
      ],
      "stateMutability": "view",
      "type": "function"
    }
  ],
  "bytecode": "0x608060405234801561001057600080fd5b506040516106f73803806106f783398101604081905261002f9161007c565b600080546001600160a01b039384166001600160a01b031991821617909155600180549290931691161790556100af565b80516001600160a01b038116811461007757600080fd5b919050565b6000806040838503121561008f57600080fd5b61009883610060565b91506100a660208401610060565b90509250929050565b610639806100be6000396000f3fe608060405234801561001057600080fd5b50600436106100675760003560e01c8063c45a015511610050578063c45a0155146100a9578063d119db4c146100ee578063fc0c546a1461010157600080fd5b80634e71d92d1461006c57806376dd110f14610076575b600080fd5b610074610121565b005b61009661008436600461053c565b60026020526000908152604090205481565b6040519081526020015b60405180910390f35b6000546100c99073ffffffffffffffffffffffffffffffffffffffff1681565b60405173ffffffffffffffffffffffffffffffffffffffff90911681526020016100a0565b6100746100fc36600461055e565b610390565b6001546100c99073ffffffffffffffffffffffffffffffffffffffff1681565b336000908152600260205260409020548061019d576040517f08c379a000000000000000000000000000000000000000000000000000000000815260206004820152601c60248201527f4e6f7420656c696769626c6520746f206765742072657761726465640000000060448201526064015b60405180910390fd5b6001546040517f70a0823100000000000000000000000000000000000000000000000000000000815230600482015260009173ffffffffffffffffffffffffffffffffffffffff16906370a0823190602401602060405180830381865afa15801561020c573d6000803e3d6000fd5b505050506040513d601f19601f820116820180604052508101906102309190610588565b90506000811161029c576040517f08c379a000000000000000000000000000000000000000000000000000000000815260206004820152601460248201527f4e6f2072657761726420617661696c61626c652e0000000000000000000000006044820152606401610194565b818110156102a8578091505b336000818152600260205260408082209190915560015490517fa9059cbb00000000000000000000000000000000000000000000000000000000815260048101929092526024820184905273ffffffffffffffffffffffffffffffffffffffff169063a9059cbb906044016020604051808303816000875af1158015610332573d6000803e3d6000fd5b505050506040513d601f19601f8201168201806040525081019061035691906105a1565b5060405182815233907fd8138f8a3f377c5259ca548e70e4c2de94f129f5a11036a15b69513cba2b426a9060200160405180910390a25050565b6000546040517f1d59410a00000000000000000000000000000000000000000000000000000000815233600482015273ffffffffffffffffffffffffffffffffffffffff90911690631d59410a90602401602060405180830381865afa1580156103fe573d6000803e3d6000fd5b505050506040513d601f19601f8201168201806040525081019061042291906105a1565b610488576040517f08c379a000000000000000000000000000000000000000000000000000000000815260206004820152601860248201527f596f7520617265206e6f74207468652061756374696f6e2e00000000000000006044820152606401610194565b73ffffffffffffffffffffffffffffffffffffffff8216600090815260026020526040812080548392906104bd9084906105c3565b909155505060405181815273ffffffffffffffffffffffffffffffffffffffff83169033907f52e22cc174e4699db04317deda4b98eb75396baa99b966ad8377e0ed246979019060200160405180910390a35050565b803573ffffffffffffffffffffffffffffffffffffffff8116811461053757600080fd5b919050565b60006020828403121561054e57600080fd5b61055782610513565b9392505050565b6000806040838503121561057157600080fd5b61057a83610513565b946020939093013593505050565b60006020828403121561059a57600080fd5b5051919050565b6000602082840312156105b357600080fd5b8151801515811461055757600080fd5b808201808211156105fd577f4e487b7100000000000000000000000000000000000000000000000000000000600052601160045260246000fd5b9291505056fea26469706673582212203a4d381f3cec8246b70f36f27435fe50f04aa5e8002e97099f0354a397f4d99b64736f6c63430008120033",
  "linkReferences": {},
  "deployedLinkReferences": {}
}