{
  "_format": "hh-sol-artifact-1",
  "contractName": "Distributor",
  "sourceName": "contracts/Distributor.sol",
  "abi": [
    {
      "inputs": [
        {
          "internalType": "address",
          "name": "factory_",
          "type": "address"
        },
        {
          "internalType": "address",
          "name": "token_",
          "type": "address"
        }
      ],
      "stateMutability": "nonpayable",
      "type": "constructor"
    },
    {
      "anonymous": false,
      "inputs": [
        {
          "indexed": true,
          "internalType": "address",
          "name": "userAddress",
          "type": "address"
        },
        {
          "indexed": false,
          "internalType": "uint256",
          "name": "amount",
          "type": "uint256"
        }
      ],
      "name": "Claimed",
      "type": "event"
    },
    {
      "anonymous": false,
      "inputs": [
        {
          "indexed": true,
          "internalType": "address",
          "name": "scorerAddress",
          "type": "address"
        },
        {
          "indexed": true,
          "internalType": "address",
          "name": "userAddress",
          "type": "address"
        },
        {
          "indexed": false,
          "internalType": "uint256",
          "name": "scoreAdded",
          "type": "uint256"
        }
      ],
      "name": "ScoreAdded",
      "type": "event"
    },
    {
      "inputs": [
        {
          "internalType": "address",
          "name": "target_",
          "type": "address"
        },
        {
          "internalType": "uint256",
          "name": "amount_",
          "type": "uint256"
        }
      ],
      "name": "addScore",
      "outputs": [],
      "stateMutability": "nonpayable",
      "type": "function"
    },
    {
      "inputs": [
        {
          "internalType": "address",
          "name": "target_",
          "type": "address"
        }
      ],
      "name": "claim",
      "outputs": [],
      "stateMutability": "nonpayable",
      "type": "function"
    },
    {
      "inputs": [],
      "name": "factory",
      "outputs": [
        {
          "internalType": "contract IFactory",
          "name": "",
          "type": "address"
        }
      ],
      "stateMutability": "view",
      "type": "function"
    },
    {
      "inputs": [
        {
          "internalType": "address",
          "name": "",
          "type": "address"
        }
      ],
      "name": "scores",
      "outputs": [
        {
          "internalType": "uint256",
          "name": "",
          "type": "uint256"
        }
      ],
      "stateMutability": "view",
      "type": "function"
    },
    {
      "inputs": [],
      "name": "token",
      "outputs": [
        {
          "internalType": "contract IERC20",
          "name": "",
          "type": "address"
        }
      ],
      "stateMutability": "view",
      "type": "function"
    }
  ],
  "bytecode": "0x608060405234801561001057600080fd5b5060405161073838038061073883398101604081905261002f9161007c565b600080546001600160a01b039384166001600160a01b031991821617909155600180549290931691161790556100af565b80516001600160a01b038116811461007757600080fd5b919050565b6000806040838503121561008f57600080fd5b61009883610060565b91506100a660208401610060565b90509250929050565b61067a806100be6000396000f3fe608060405234801561001057600080fd5b50600436106100675760003560e01c8063c45a015511610050578063c45a0155146100b4578063d119db4c146100f9578063fc0c546a1461010c57600080fd5b80631e83409a1461006c57806376dd110f14610081575b600080fd5b61007f61007a36600461057d565b61012c565b005b6100a161008f36600461057d565b60026020526000908152604090205481565b6040519081526020015b60405180910390f35b6000546100d49073ffffffffffffffffffffffffffffffffffffffff1681565b60405173ffffffffffffffffffffffffffffffffffffffff90911681526020016100ab565b61007f61010736600461059f565b6103d1565b6001546100d49073ffffffffffffffffffffffffffffffffffffffff1681565b73ffffffffffffffffffffffffffffffffffffffff8116600090815260026020526040902054806101be576040517f08c379a000000000000000000000000000000000000000000000000000000000815260206004820152601c60248201527f4e6f7420656c696769626c6520746f206765742072657761726465640000000060448201526064015b60405180910390fd5b6001546040517f70a0823100000000000000000000000000000000000000000000000000000000815230600482015260009173ffffffffffffffffffffffffffffffffffffffff16906370a0823190602401602060405180830381865afa15801561022d573d6000803e3d6000fd5b505050506040513d601f19601f8201168201806040525081019061025191906105c9565b9050600081116102bd576040517f08c379a000000000000000000000000000000000000000000000000000000000815260206004820152601460248201527f4e6f2072657761726420617661696c61626c652e00000000000000000000000060448201526064016101b5565b818110156102c9578091505b73ffffffffffffffffffffffffffffffffffffffff8381166000818152600260205260408082209190915560015490517fa9059cbb0000000000000000000000000000000000000000000000000000000081526004810192909252602482018590529091169063a9059cbb906044016020604051808303816000875af1158015610357573d6000803e3d6000fd5b505050506040513d601f19601f8201168201806040525081019061037b91906105e2565b508273ffffffffffffffffffffffffffffffffffffffff167fd8138f8a3f377c5259ca548e70e4c2de94f129f5a11036a15b69513cba2b426a836040516103c491815260200190565b60405180910390a2505050565b6000546040517f1d59410a00000000000000000000000000000000000000000000000000000000815233600482015273ffffffffffffffffffffffffffffffffffffffff90911690631d59410a90602401602060405180830381865afa15801561043f573d6000803e3d6000fd5b505050506040513d601f19601f8201168201806040525081019061046391906105e2565b6104c9576040517f08c379a000000000000000000000000000000000000000000000000000000000815260206004820152601860248201527f596f7520617265206e6f74207468652061756374696f6e2e000000000000000060448201526064016101b5565b73ffffffffffffffffffffffffffffffffffffffff8216600090815260026020526040812080548392906104fe908490610604565b909155505060405181815273ffffffffffffffffffffffffffffffffffffffff83169033907f52e22cc174e4699db04317deda4b98eb75396baa99b966ad8377e0ed246979019060200160405180910390a35050565b803573ffffffffffffffffffffffffffffffffffffffff8116811461057857600080fd5b919050565b60006020828403121561058f57600080fd5b61059882610554565b9392505050565b600080604083850312156105b257600080fd5b6105bb83610554565b946020939093013593505050565b6000602082840312156105db57600080fd5b5051919050565b6000602082840312156105f457600080fd5b8151801515811461059857600080fd5b8082018082111561063e577f4e487b7100000000000000000000000000000000000000000000000000000000600052601160045260246000fd5b9291505056fea2646970667358221220cde8798efab4272171b4eb61bf5a2733bfa2d7179650ceb6e8e4f59b9feed11164736f6c63430008120033",
  "linkReferences": {},
  "deployedLinkReferences": {}
}