{
  "_format": "hh-sol-artifact-1",
  "contractName": "GaugeControllerV1",
  "sourceName": "contracts/GaugeControllerV1.sol",
  "abi": [
    {
      "anonymous": false,
      "inputs": [
        {
          "indexed": false,
          "internalType": "string",
          "name": "name",
          "type": "string"
        },
        {
          "indexed": false,
          "internalType": "int128",
          "name": "typeId",
          "type": "int128"
        }
      ],
      "name": "AddType",
      "type": "event"
    },
    {
      "anonymous": false,
      "inputs": [
        {
          "indexed": false,
          "internalType": "address",
          "name": "previousAdmin",
          "type": "address"
        },
        {
          "indexed": false,
          "internalType": "address",
          "name": "newAdmin",
          "type": "address"
        }
      ],
      "name": "AdminChanged",
      "type": "event"
    },
    {
      "anonymous": false,
      "inputs": [
        {
          "indexed": false,
          "internalType": "address",
          "name": "admin",
          "type": "address"
        }
      ],
      "name": "ApplyOwnership",
      "type": "event"
    },
    {
      "anonymous": false,
      "inputs": [
        {
          "indexed": true,
          "internalType": "address",
          "name": "beacon",
          "type": "address"
        }
      ],
      "name": "BeaconUpgraded",
      "type": "event"
    },
    {
      "anonymous": false,
      "inputs": [
        {
          "indexed": false,
          "internalType": "address",
          "name": "admin",
          "type": "address"
        }
      ],
      "name": "CommitOwnership",
      "type": "event"
    },
    {
      "anonymous": false,
      "inputs": [
        {
          "indexed": false,
          "internalType": "uint8",
          "name": "version",
          "type": "uint8"
        }
      ],
      "name": "Initialized",
      "type": "event"
    },
    {
      "anonymous": false,
      "inputs": [
        {
          "indexed": true,
          "internalType": "address",
          "name": "implementation",
          "type": "address"
        }
      ],
      "name": "Upgraded",
      "type": "event"
    },
    {
      "inputs": [],
      "name": "admin",
      "outputs": [
        {
          "internalType": "address",
          "name": "",
          "type": "address"
        }
      ],
      "stateMutability": "view",
      "type": "function"
    },
    {
      "inputs": [],
      "name": "applyTransferOwnership",
      "outputs": [],
      "stateMutability": "nonpayable",
      "type": "function"
    },
    {
      "inputs": [],
      "name": "checkpoint",
      "outputs": [],
      "stateMutability": "nonpayable",
      "type": "function"
    },
    {
      "inputs": [
        {
          "internalType": "address",
          "name": "addr_",
          "type": "address"
        }
      ],
      "name": "checkpointGauge",
      "outputs": [],
      "stateMutability": "nonpayable",
      "type": "function"
    },
    {
      "inputs": [
        {
          "internalType": "address",
          "name": "addr_",
          "type": "address"
        }
      ],
      "name": "commitTransferOwnership",
      "outputs": [],
      "stateMutability": "nonpayable",
      "type": "function"
    },
    {
      "inputs": [],
      "name": "futureAdmin",
      "outputs": [
        {
          "internalType": "address",
          "name": "",
          "type": "address"
        }
      ],
      "stateMutability": "view",
      "type": "function"
    },
    {
      "inputs": [
        {
          "internalType": "address",
          "name": "",
          "type": "address"
        },
        {
          "internalType": "uint256",
          "name": "",
          "type": "uint256"
        }
      ],
      "name": "gaugeRelativeWeight",
      "outputs": [
        {
          "internalType": "uint256",
          "name": "",
          "type": "uint256"
        }
      ],
      "stateMutability": "pure",
      "type": "function"
    },
    {
      "inputs": [
        {
          "internalType": "int128",
          "name": "",
          "type": "int128"
        }
      ],
      "name": "gaugeTypeNames",
      "outputs": [
        {
          "internalType": "string",
          "name": "",
          "type": "string"
        }
      ],
      "stateMutability": "view",
      "type": "function"
    },
    {
      "inputs": [
        {
          "internalType": "address",
          "name": "addr_",
          "type": "address"
        }
      ],
      "name": "gaugeTypes",
      "outputs": [
        {
          "internalType": "int128",
          "name": "",
          "type": "int128"
        }
      ],
      "stateMutability": "view",
      "type": "function"
    },
    {
      "inputs": [
        {
          "internalType": "address",
          "name": "",
          "type": "address"
        }
      ],
      "name": "gaugeTypes_",
      "outputs": [
        {
          "internalType": "int128",
          "name": "",
          "type": "int128"
        }
      ],
      "stateMutability": "view",
      "type": "function"
    },
    {
      "inputs": [
        {
          "internalType": "uint256",
          "name": "",
          "type": "uint256"
        }
      ],
      "name": "gauges",
      "outputs": [
        {
          "internalType": "address",
          "name": "",
          "type": "address"
        }
      ],
      "stateMutability": "view",
      "type": "function"
    },
    {
      "inputs": [
        {
          "internalType": "address",
          "name": "token_",
          "type": "address"
        },
        {
          "internalType": "address",
          "name": "votingEscrow_",
          "type": "address"
        },
        {
          "internalType": "address",
          "name": "veYMWKGauge_",
          "type": "address"
        }
      ],
      "name": "initialize",
      "outputs": [],
      "stateMutability": "nonpayable",
      "type": "function"
    },
    {
      "inputs": [],
      "name": "nGaugeTypes",
      "outputs": [
        {
          "internalType": "int128",
          "name": "",
          "type": "int128"
        }
      ],
      "stateMutability": "view",
      "type": "function"
    },
    {
      "inputs": [],
      "name": "nGauges",
      "outputs": [
        {
          "internalType": "int128",
          "name": "",
          "type": "int128"
        }
      ],
      "stateMutability": "view",
      "type": "function"
    },
    {
      "inputs": [],
      "name": "proxiableUUID",
      "outputs": [
        {
          "internalType": "bytes32",
          "name": "",
          "type": "bytes32"
        }
      ],
      "stateMutability": "view",
      "type": "function"
    },
    {
      "inputs": [],
      "name": "token",
      "outputs": [
        {
          "internalType": "address",
          "name": "",
          "type": "address"
        }
      ],
      "stateMutability": "view",
      "type": "function"
    },
    {
      "inputs": [
        {
          "internalType": "address",
          "name": "newImplementation",
          "type": "address"
        }
      ],
      "name": "upgradeTo",
      "outputs": [],
      "stateMutability": "nonpayable",
      "type": "function"
    },
    {
      "inputs": [
        {
          "internalType": "address",
          "name": "newImplementation",
          "type": "address"
        },
        {
          "internalType": "bytes",
          "name": "data",
          "type": "bytes"
        }
      ],
      "name": "upgradeToAndCall",
      "outputs": [],
      "stateMutability": "payable",
      "type": "function"
    },
    {
      "inputs": [],
      "name": "votingEscrow",
      "outputs": [
        {
          "internalType": "address",
          "name": "",
          "type": "address"
        }
      ],
      "stateMutability": "view",
      "type": "function"
    }
  ],
  "bytecode": "0x60a06040523060805234801561001457600080fd5b506080516119d061004c60003960008181610430015281816104cb015281816106030152818161069901526107c801526119d06000f3fe6080604052600436106101445760003560e01c8063b0539187116100c0578063e1cebf0b11610074578063e4036c6d11610059578063e4036c6d14610392578063f851a440146103bf578063fc0c546a146103ec57600080fd5b8063e1cebf0b14610352578063e24862e81461037257600080fd5b8063c2c4c5c1116100a5578063c2c4c5c114610303578063dd2b117f1461030f578063df0ab9d31461033d57600080fd5b8063b0539187146102c3578063c0c53b8b146102e357600080fd5b806352d1902d116101175780637bb9e298116100fc5780637bb9e298146102455780638aca6a231461028b5780639e08e3ef146102a957600080fd5b806352d1902d1461020257806365c604681461022557600080fd5b80633659cfe6146101495780634cb654af1461016b5780634f1ef286146101c25780634f2bfe5b146101d5575b600080fd5b34801561015557600080fd5b50610169610164366004611497565b610419565b005b34801561017757600080fd5b506066546101989073ffffffffffffffffffffffffffffffffffffffff1681565b60405173ffffffffffffffffffffffffffffffffffffffff90911681526020015b60405180910390f35b6101696101d03660046114e1565b6105ec565b3480156101e157600080fd5b506068546101989073ffffffffffffffffffffffffffffffffffffffff1681565b34801561020e57600080fd5b506102176107ae565b6040519081526020016101b9565b34801561023157600080fd5b506102176102403660046115c1565b610880565b34801561025157600080fd5b50610278610260366004611497565b633b9aca6b60205260009081526040902054600f0b81565b604051600f9190910b81526020016101b9565b34801561029757600080fd5b506101696102a6366004611497565b50565b3480156102b557600080fd5b5060695461027890600f0b81565b3480156102cf57600080fd5b506101986102de3660046115eb565b610890565b3480156102ef57600080fd5b506101696102fe366004611604565b6108c0565b34801561016957600080fd5b34801561031b57600080fd5b50606954610278907001000000000000000000000000000000009004600f0b81565b34801561034957600080fd5b50610169610c30565b34801561035e57600080fd5b5061016961036d366004611497565b610d77565b34801561037e57600080fd5b5061027861038d366004611497565b610e51565b34801561039e57600080fd5b506103b26103ad366004611647565b610ede565b6040516101b9919061168e565b3480156103cb57600080fd5b506065546101989073ffffffffffffffffffffffffffffffffffffffff1681565b3480156103f857600080fd5b506067546101989073ffffffffffffffffffffffffffffffffffffffff1681565b73ffffffffffffffffffffffffffffffffffffffff7f00000000000000000000000000000000000000000000000000000000000000001630036104c95760405162461bcd60e51b815260206004820152602c60248201527f46756e6374696f6e206d7573742062652063616c6c6564207468726f7567682060448201527f64656c656761746563616c6c000000000000000000000000000000000000000060648201526084015b60405180910390fd5b7f000000000000000000000000000000000000000000000000000000000000000073ffffffffffffffffffffffffffffffffffffffff1661053e7f360894a13ba1a3210667c828492db98dca3e2076cc3735a920a3ca505d382bbc5473ffffffffffffffffffffffffffffffffffffffff1690565b73ffffffffffffffffffffffffffffffffffffffff16146105c75760405162461bcd60e51b815260206004820152602c60248201527f46756e6374696f6e206d7573742062652063616c6c6564207468726f7567682060448201527f6163746976652070726f7879000000000000000000000000000000000000000060648201526084016104c0565b6105d081610f78565b604080516000808252602082019092526102a691839190610fdf565b73ffffffffffffffffffffffffffffffffffffffff7f00000000000000000000000000000000000000000000000000000000000000001630036106975760405162461bcd60e51b815260206004820152602c60248201527f46756e6374696f6e206d7573742062652063616c6c6564207468726f7567682060448201527f64656c656761746563616c6c000000000000000000000000000000000000000060648201526084016104c0565b7f000000000000000000000000000000000000000000000000000000000000000073ffffffffffffffffffffffffffffffffffffffff1661070c7f360894a13ba1a3210667c828492db98dca3e2076cc3735a920a3ca505d382bbc5473ffffffffffffffffffffffffffffffffffffffff1690565b73ffffffffffffffffffffffffffffffffffffffff16146107955760405162461bcd60e51b815260206004820152602c60248201527f46756e6374696f6e206d7573742062652063616c6c6564207468726f7567682060448201527f6163746976652070726f7879000000000000000000000000000000000000000060648201526084016104c0565b61079e82610f78565b6107aa82826001610fdf565b5050565b60003073ffffffffffffffffffffffffffffffffffffffff7f0000000000000000000000000000000000000000000000000000000000000000161461085b5760405162461bcd60e51b815260206004820152603860248201527f555550535570677261646561626c653a206d757374206e6f742062652063616c60448201527f6c6564207468726f7567682064656c656761746563616c6c000000000000000060648201526084016104c0565b507f360894a13ba1a3210667c828492db98dca3e2076cc3735a920a3ca505d382bbc90565b670de0b6b3a76400005b92915050565b606b81633b9aca0081106108a357600080fd5b015473ffffffffffffffffffffffffffffffffffffffff16905081565b600054610100900460ff16158080156108e05750600054600160ff909116105b806108fa5750303b1580156108fa575060005460ff166001145b61096c5760405162461bcd60e51b815260206004820152602e60248201527f496e697469616c697a61626c653a20636f6e747261637420697320616c72656160448201527f647920696e697469616c697a656400000000000000000000000000000000000060648201526084016104c0565b600080547fffffffffffffffffffffffffffffffffffffffffffffffffffffffffffffff0016600117905580156109ca57600080547fffffffffffffffffffffffffffffffffffffffffffffffffffffffffffff00ff166101001790555b73ffffffffffffffffffffffffffffffffffffffff84166109ea57600080fd5b73ffffffffffffffffffffffffffffffffffffffff8316610a0a57600080fd5b60658054337fffffffffffffffffffffffff00000000000000000000000000000000000000009182161790915560678054821673ffffffffffffffffffffffffffffffffffffffff8781169190911790915560688054909216908516179055606954604080518082018252600681527f7665594d574b0000000000000000000000000000000000000000000000000000602080830191909152600f9390930b6000818152606a909452919092209091610ac39082611780565b50606980547001000000000000000000000000000000006fffffffffffffffffffffffffffffffff600180860182167fffffffffffffffffffffffffffffffff000000000000000000000000000000009094168417839004600f81900b918201831690930290931790935590918591606b9116633b9aca008110610b4957610b4961189a565b0180547fffffffffffffffffffffffff00000000000000000000000000000000000000001673ffffffffffffffffffffffffffffffffffffffff92831617905584166000908152633b9aca6b6020526040902080547fffffffffffffffffffffffffffffffff0000000000000000000000000000000016600117905550508015610c2a57600080547fffffffffffffffffffffffffffffffffffffffffffffffffffffffffffff00ff169055604051600181527f7f26b83ff96e1f2b6a682f133852f6798a09c465da95921460cefb38474024989060200160405180910390a15b50505050565b60655473ffffffffffffffffffffffffffffffffffffffff163314610c975760405162461bcd60e51b815260206004820152600a60248201527f61646d696e206f6e6c790000000000000000000000000000000000000000000060448201526064016104c0565b60665473ffffffffffffffffffffffffffffffffffffffff1680610cfd5760405162461bcd60e51b815260206004820152600d60248201527f61646d696e206e6f74207365740000000000000000000000000000000000000060448201526064016104c0565b606580547fffffffffffffffffffffffff00000000000000000000000000000000000000001673ffffffffffffffffffffffffffffffffffffffff83169081179091556040519081527febee2d5739011062cb4f14113f3b36bf0ffe3da5c0568f64189d1012a1189105906020015b60405180910390a150565b60655473ffffffffffffffffffffffffffffffffffffffff163314610dde5760405162461bcd60e51b815260206004820152600a60248201527f61646d696e206f6e6c790000000000000000000000000000000000000000000060448201526064016104c0565b606680547fffffffffffffffffffffffff00000000000000000000000000000000000000001673ffffffffffffffffffffffffffffffffffffffff83169081179091556040519081527f2f56810a6bf40af059b96d3aea4db54081f378029a518390491093a7b67032e990602001610d6c565b73ffffffffffffffffffffffffffffffffffffffff81166000908152633b9aca6b6020526040812054600f0b808203610ecc5760405162461bcd60e51b815260206004820152601760248201527f6465763a206761756765206973206e6f7420616464656400000000000000000060448201526064016104c0565b610ed76001826118c9565b9392505050565b606a6020526000908152604090208054610ef7906116df565b80601f0160208091040260200160405190810160405280929190818152602001828054610f23906116df565b8015610f705780601f10610f4557610100808354040283529160200191610f70565b820191906000526020600020905b815481529060010190602001808311610f5357829003601f168201915b505050505081565b60655473ffffffffffffffffffffffffffffffffffffffff1633146102a65760405162461bcd60e51b815260206004820152600a60248201527f61646d696e206f6e6c790000000000000000000000000000000000000000000060448201526064016104c0565b7f4910fdfa16fed3260ed0e7147f7cc6da11a60208b5b9406d12a635614ffd91435460ff161561101757611012836111af565b505050565b8273ffffffffffffffffffffffffffffffffffffffff166352d1902d6040518163ffffffff1660e01b8152600401602060405180830381865afa92505050801561109c575060408051601f3d9081017fffffffffffffffffffffffffffffffffffffffffffffffffffffffffffffffe01682019092526110999181019061193e565b60015b61110e5760405162461bcd60e51b815260206004820152602e60248201527f45524331393637557067726164653a206e657720696d706c656d656e7461746960448201527f6f6e206973206e6f74205555505300000000000000000000000000000000000060648201526084016104c0565b7f360894a13ba1a3210667c828492db98dca3e2076cc3735a920a3ca505d382bbc81146111a35760405162461bcd60e51b815260206004820152602960248201527f45524331393637557067726164653a20756e737570706f727465642070726f7860448201527f6961626c6555554944000000000000000000000000000000000000000000000060648201526084016104c0565b5061101283838361129f565b73ffffffffffffffffffffffffffffffffffffffff81163b6112395760405162461bcd60e51b815260206004820152602d60248201527f455243313936373a206e657720696d706c656d656e746174696f6e206973206e60448201527f6f74206120636f6e74726163740000000000000000000000000000000000000060648201526084016104c0565b7f360894a13ba1a3210667c828492db98dca3e2076cc3735a920a3ca505d382bbc80547fffffffffffffffffffffffff00000000000000000000000000000000000000001673ffffffffffffffffffffffffffffffffffffffff92909216919091179055565b6112a8836112c4565b6000825111806112b55750805b1561101257610c2a8383611311565b6112cd816111af565b60405173ffffffffffffffffffffffffffffffffffffffff8216907fbc7cd75a20ee27fd9adebab32041f755214dbc6bffa90cc0225b39da2e5c2d3b90600090a250565b6060610ed783836040518060600160405280602781526020016119746027913960606000808573ffffffffffffffffffffffffffffffffffffffff168560405161135b9190611957565b600060405180830381855af49150503d8060008114611396576040519150601f19603f3d011682016040523d82523d6000602084013e61139b565b606091505b50915091506113ac868383876113b6565b9695505050505050565b6060831561143257825160000361142b5773ffffffffffffffffffffffffffffffffffffffff85163b61142b5760405162461bcd60e51b815260206004820152601d60248201527f416464726573733a2063616c6c20746f206e6f6e2d636f6e747261637400000060448201526064016104c0565b508161143c565b61143c8383611444565b949350505050565b8151156114545781518083602001fd5b8060405162461bcd60e51b81526004016104c0919061168e565b803573ffffffffffffffffffffffffffffffffffffffff8116811461149257600080fd5b919050565b6000602082840312156114a957600080fd5b610ed78261146e565b7f4e487b7100000000000000000000000000000000000000000000000000000000600052604160045260246000fd5b600080604083850312156114f457600080fd5b6114fd8361146e565b9150602083013567ffffffffffffffff8082111561151a57600080fd5b818501915085601f83011261152e57600080fd5b813581811115611540576115406114b2565b604051601f82017fffffffffffffffffffffffffffffffffffffffffffffffffffffffffffffffe0908116603f01168101908382118183101715611586576115866114b2565b8160405282815288602084870101111561159f57600080fd5b8260208601602083013760006020848301015280955050505050509250929050565b600080604083850312156115d457600080fd5b6115dd8361146e565b946020939093013593505050565b6000602082840312156115fd57600080fd5b5035919050565b60008060006060848603121561161957600080fd5b6116228461146e565b92506116306020850161146e565b915061163e6040850161146e565b90509250925092565b60006020828403121561165957600080fd5b813580600f0b8114610ed757600080fd5b60005b8381101561168557818101518382015260200161166d565b50506000910152565b60208152600082518060208401526116ad81604085016020870161166a565b601f017fffffffffffffffffffffffffffffffffffffffffffffffffffffffffffffffe0169190910160400192915050565b600181811c908216806116f357607f821691505b60208210810361172c577f4e487b7100000000000000000000000000000000000000000000000000000000600052602260045260246000fd5b50919050565b601f82111561101257600081815260208120601f850160051c810160208610156117595750805b601f850160051c820191505b8181101561177857828155600101611765565b505050505050565b815167ffffffffffffffff81111561179a5761179a6114b2565b6117ae816117a884546116df565b84611732565b602080601f83116001811461180157600084156117cb5750858301515b7fffffffffffffffffffffffffffffffffffffffffffffffffffffffffffffffff600386901b1c1916600185901b178555611778565b6000858152602081207fffffffffffffffffffffffffffffffffffffffffffffffffffffffffffffffe08616915b8281101561184e5788860151825594840194600190910190840161182f565b508582101561188a57878501517fffffffffffffffffffffffffffffffffffffffffffffffffffffffffffffffff600388901b60f8161c191681555b5050505050600190811b01905550565b7f4e487b7100000000000000000000000000000000000000000000000000000000600052603260045260246000fd5b600f82810b9082900b037fffffffffffffffffffffffffffffffff8000000000000000000000000000000081126f7fffffffffffffffffffffffffffffff8213171561088a577f4e487b7100000000000000000000000000000000000000000000000000000000600052601160045260246000fd5b60006020828403121561195057600080fd5b5051919050565b6000825161196981846020870161166a565b919091019291505056fe416464726573733a206c6f772d6c6576656c2064656c65676174652063616c6c206661696c6564a26469706673582212201d8cf2960667459b9c70494f7175d02111ea393caef7b12103a00e616722331d64736f6c63430008120033",
  "linkReferences": {},
  "deployedLinkReferences": {}
}