{
  "_format": "hh-sol-artifact-1",
  "contractName": "GaugeControllerV1",
  "sourceName": "contracts/GaugeControllerV1.sol",
  "abi": [
    {
      "anonymous": false,
      "inputs": [
        {
          "indexed": false,
          "internalType": "string",
          "name": "name",
          "type": "string"
        },
        {
          "indexed": false,
          "internalType": "int128",
          "name": "typeId",
          "type": "int128"
        }
      ],
      "name": "AddType",
      "type": "event"
    },
    {
      "anonymous": false,
      "inputs": [
        {
          "indexed": false,
          "internalType": "address",
          "name": "previousAdmin",
          "type": "address"
        },
        {
          "indexed": false,
          "internalType": "address",
          "name": "newAdmin",
          "type": "address"
        }
      ],
      "name": "AdminChanged",
      "type": "event"
    },
    {
      "anonymous": false,
      "inputs": [
        {
          "indexed": false,
          "internalType": "address",
          "name": "admin",
          "type": "address"
        }
      ],
      "name": "ApplyOwnership",
      "type": "event"
    },
    {
      "anonymous": false,
      "inputs": [
        {
          "indexed": true,
          "internalType": "address",
          "name": "beacon",
          "type": "address"
        }
      ],
      "name": "BeaconUpgraded",
      "type": "event"
    },
    {
      "anonymous": false,
      "inputs": [
        {
          "indexed": false,
          "internalType": "address",
          "name": "admin",
          "type": "address"
        }
      ],
      "name": "CommitOwnership",
      "type": "event"
    },
    {
      "anonymous": false,
      "inputs": [
        {
          "indexed": false,
          "internalType": "uint8",
          "name": "version",
          "type": "uint8"
        }
      ],
      "name": "Initialized",
      "type": "event"
    },
    {
      "anonymous": false,
      "inputs": [
        {
          "indexed": true,
          "internalType": "address",
          "name": "implementation",
          "type": "address"
        }
      ],
      "name": "Upgraded",
      "type": "event"
    },
    {
      "inputs": [
        {
          "internalType": "address",
          "name": "addr_",
          "type": "address"
        },
        {
          "internalType": "int128",
          "name": "gaugeType_",
          "type": "int128"
        },
        {
          "internalType": "uint256",
          "name": "",
          "type": "uint256"
        }
      ],
      "name": "addGauge",
      "outputs": [],
      "stateMutability": "nonpayable",
      "type": "function"
    },
    {
      "inputs": [],
      "name": "admin",
      "outputs": [
        {
          "internalType": "address",
          "name": "",
          "type": "address"
        }
      ],
      "stateMutability": "view",
      "type": "function"
    },
    {
      "inputs": [],
      "name": "applyTransferOwnership",
      "outputs": [],
      "stateMutability": "nonpayable",
      "type": "function"
    },
    {
      "inputs": [],
      "name": "checkpoint",
      "outputs": [],
      "stateMutability": "nonpayable",
      "type": "function"
    },
    {
      "inputs": [
        {
          "internalType": "address",
          "name": "addr_",
          "type": "address"
        }
      ],
      "name": "checkpointGauge",
      "outputs": [],
      "stateMutability": "nonpayable",
      "type": "function"
    },
    {
      "inputs": [
        {
          "internalType": "address",
          "name": "addr_",
          "type": "address"
        }
      ],
      "name": "commitTransferOwnership",
      "outputs": [],
      "stateMutability": "nonpayable",
      "type": "function"
    },
    {
      "inputs": [],
      "name": "futureAdmin",
      "outputs": [
        {
          "internalType": "address",
          "name": "",
          "type": "address"
        }
      ],
      "stateMutability": "view",
      "type": "function"
    },
    {
      "inputs": [
        {
          "internalType": "address",
          "name": "",
          "type": "address"
        },
        {
          "internalType": "uint256",
          "name": "",
          "type": "uint256"
        }
      ],
      "name": "gaugeRelativeWeight",
      "outputs": [
        {
          "internalType": "uint256",
          "name": "",
          "type": "uint256"
        }
      ],
      "stateMutability": "pure",
      "type": "function"
    },
    {
      "inputs": [
        {
          "internalType": "int128",
          "name": "",
          "type": "int128"
        }
      ],
      "name": "gaugeTypeNames",
      "outputs": [
        {
          "internalType": "string",
          "name": "",
          "type": "string"
        }
      ],
      "stateMutability": "view",
      "type": "function"
    },
    {
      "inputs": [
        {
          "internalType": "address",
          "name": "addr_",
          "type": "address"
        }
      ],
      "name": "gaugeTypes",
      "outputs": [
        {
          "internalType": "int128",
          "name": "",
          "type": "int128"
        }
      ],
      "stateMutability": "view",
      "type": "function"
    },
    {
      "inputs": [
        {
          "internalType": "address",
          "name": "",
          "type": "address"
        }
      ],
      "name": "gaugeTypes_",
      "outputs": [
        {
          "internalType": "int128",
          "name": "",
          "type": "int128"
        }
      ],
      "stateMutability": "view",
      "type": "function"
    },
    {
      "inputs": [
        {
          "internalType": "uint256",
          "name": "",
          "type": "uint256"
        }
      ],
      "name": "gauges",
      "outputs": [
        {
          "internalType": "address",
          "name": "",
          "type": "address"
        }
      ],
      "stateMutability": "view",
      "type": "function"
    },
    {
      "inputs": [
        {
          "internalType": "address",
          "name": "token_",
          "type": "address"
        },
        {
          "internalType": "address",
          "name": "votingEscrow_",
          "type": "address"
        }
      ],
      "name": "initialize",
      "outputs": [],
      "stateMutability": "nonpayable",
      "type": "function"
    },
    {
      "inputs": [],
      "name": "nGaugeTypes",
      "outputs": [
        {
          "internalType": "int128",
          "name": "",
          "type": "int128"
        }
      ],
      "stateMutability": "view",
      "type": "function"
    },
    {
      "inputs": [],
      "name": "nGauges",
      "outputs": [
        {
          "internalType": "int128",
          "name": "",
          "type": "int128"
        }
      ],
      "stateMutability": "view",
      "type": "function"
    },
    {
      "inputs": [],
      "name": "proxiableUUID",
      "outputs": [
        {
          "internalType": "bytes32",
          "name": "",
          "type": "bytes32"
        }
      ],
      "stateMutability": "view",
      "type": "function"
    },
    {
      "inputs": [],
      "name": "token",
      "outputs": [
        {
          "internalType": "address",
          "name": "",
          "type": "address"
        }
      ],
      "stateMutability": "view",
      "type": "function"
    },
    {
      "inputs": [
        {
          "internalType": "address",
          "name": "newImplementation",
          "type": "address"
        }
      ],
      "name": "upgradeTo",
      "outputs": [],
      "stateMutability": "nonpayable",
      "type": "function"
    },
    {
      "inputs": [
        {
          "internalType": "address",
          "name": "newImplementation",
          "type": "address"
        },
        {
          "internalType": "bytes",
          "name": "data",
          "type": "bytes"
        }
      ],
      "name": "upgradeToAndCall",
      "outputs": [],
      "stateMutability": "payable",
      "type": "function"
    },
    {
      "inputs": [],
      "name": "votingEscrow",
      "outputs": [
        {
          "internalType": "address",
          "name": "",
          "type": "address"
        }
      ],
      "stateMutability": "view",
      "type": "function"
    }
  ],
  "bytecode": "0x60a06040523060805234801561001457600080fd5b50608051611c5961004c6000396000818161046b01528181610506015281816108ee015281816109840152610ab30152611c596000f3fe60806040526004361061015f5760003560e01c80639fbd4f66116100c0578063e1cebf0b11610074578063e4036c6d11610059578063e4036c6d146103cd578063f851a440146103fa578063fc0c546a1461042757600080fd5b8063e1cebf0b1461038d578063e24862e8146103ad57600080fd5b8063c2c4c5c1116100a5578063c2c4c5c11461033e578063dd2b117f1461034a578063df0ab9d31461037857600080fd5b80639fbd4f66146102fe578063b05391871461031e57600080fd5b806352d1902d116101175780637bb9e298116100fc5780637bb9e298146102805780638aca6a23146102c65780639e08e3ef146102e457600080fd5b806352d1902d1461023d57806365c604681461026057600080fd5b80634cb654af116101485780634cb654af146101a65780634f1ef286146101fd5780634f2bfe5b1461021057600080fd5b80633659cfe614610164578063485cc95514610186575b600080fd5b34801561017057600080fd5b5061018461017f366004611694565b610454565b005b34801561019257600080fd5b506101846101a13660046116af565b610627565b3480156101b257600080fd5b506066546101d39073ffffffffffffffffffffffffffffffffffffffff1681565b60405173ffffffffffffffffffffffffffffffffffffffff90911681526020015b60405180910390f35b61018461020b366004611711565b6108d7565b34801561021c57600080fd5b506068546101d39073ffffffffffffffffffffffffffffffffffffffff1681565b34801561024957600080fd5b50610252610a99565b6040519081526020016101f4565b34801561026c57600080fd5b5061025261027b3660046117f1565b610b6b565b34801561028c57600080fd5b506102b361029b366004611694565b633b9aca6b60205260009081526040902054600f0b81565b604051600f9190910b81526020016101f4565b3480156102d257600080fd5b506101846102e1366004611694565b50565b3480156102f057600080fd5b506069546102b390600f0b81565b34801561030a57600080fd5b5061018461031936600461182d565b610b7b565b34801561032a57600080fd5b506101d3610339366004611869565b610dfc565b34801561018457600080fd5b34801561035657600080fd5b506069546102b3907001000000000000000000000000000000009004600f0b81565b34801561038457600080fd5b50610184610e2c565b34801561039957600080fd5b506101846103a8366004611694565b610f73565b3480156103b957600080fd5b506102b36103c8366004611694565b61104d565b3480156103d957600080fd5b506103ed6103e8366004611882565b6110da565b6040516101f491906118c1565b34801561040657600080fd5b506065546101d39073ffffffffffffffffffffffffffffffffffffffff1681565b34801561043357600080fd5b506067546101d39073ffffffffffffffffffffffffffffffffffffffff1681565b73ffffffffffffffffffffffffffffffffffffffff7f00000000000000000000000000000000000000000000000000000000000000001630036105045760405162461bcd60e51b815260206004820152602c60248201527f46756e6374696f6e206d7573742062652063616c6c6564207468726f7567682060448201527f64656c656761746563616c6c000000000000000000000000000000000000000060648201526084015b60405180910390fd5b7f000000000000000000000000000000000000000000000000000000000000000073ffffffffffffffffffffffffffffffffffffffff166105797f360894a13ba1a3210667c828492db98dca3e2076cc3735a920a3ca505d382bbc5473ffffffffffffffffffffffffffffffffffffffff1690565b73ffffffffffffffffffffffffffffffffffffffff16146106025760405162461bcd60e51b815260206004820152602c60248201527f46756e6374696f6e206d7573742062652063616c6c6564207468726f7567682060448201527f6163746976652070726f7879000000000000000000000000000000000000000060648201526084016104fb565b61060b81611174565b604080516000808252602082019092526102e1918391906111db565b600054610100900460ff16158080156106475750600054600160ff909116105b806106615750303b158015610661575060005460ff166001145b6106d35760405162461bcd60e51b815260206004820152602e60248201527f496e697469616c697a61626c653a20636f6e747261637420697320616c72656160448201527f647920696e697469616c697a656400000000000000000000000000000000000060648201526084016104fb565b600080547fffffffffffffffffffffffffffffffffffffffffffffffffffffffffffffff00166001179055801561073157600080547fffffffffffffffffffffffffffffffffffffffffffffffffffffffffffff00ff166101001790555b73ffffffffffffffffffffffffffffffffffffffff831661075157600080fd5b73ffffffffffffffffffffffffffffffffffffffff821661077157600080fd5b60658054337fffffffffffffffffffffffff00000000000000000000000000000000000000009182161790915560678054821673ffffffffffffffffffffffffffffffffffffffff8681169190911790915560688054909216908416179055606954604080518082018252600681527f7665594d574b0000000000000000000000000000000000000000000000000000602080830191909152600f9390930b6000818152606a90945291909220909161082a90826119b3565b50606980547fffffffffffffffffffffffffffffffff00000000000000000000000000000000166001929092016fffffffffffffffffffffffffffffffff1691909117905580156108d257600080547fffffffffffffffffffffffffffffffffffffffffffffffffffffffffffff00ff169055604051600181527f7f26b83ff96e1f2b6a682f133852f6798a09c465da95921460cefb38474024989060200160405180910390a15b505050565b73ffffffffffffffffffffffffffffffffffffffff7f00000000000000000000000000000000000000000000000000000000000000001630036109825760405162461bcd60e51b815260206004820152602c60248201527f46756e6374696f6e206d7573742062652063616c6c6564207468726f7567682060448201527f64656c656761746563616c6c000000000000000000000000000000000000000060648201526084016104fb565b7f000000000000000000000000000000000000000000000000000000000000000073ffffffffffffffffffffffffffffffffffffffff166109f77f360894a13ba1a3210667c828492db98dca3e2076cc3735a920a3ca505d382bbc5473ffffffffffffffffffffffffffffffffffffffff1690565b73ffffffffffffffffffffffffffffffffffffffff1614610a805760405162461bcd60e51b815260206004820152602c60248201527f46756e6374696f6e206d7573742062652063616c6c6564207468726f7567682060448201527f6163746976652070726f7879000000000000000000000000000000000000000060648201526084016104fb565b610a8982611174565b610a95828260016111db565b5050565b60003073ffffffffffffffffffffffffffffffffffffffff7f00000000000000000000000000000000000000000000000000000000000000001614610b465760405162461bcd60e51b815260206004820152603860248201527f555550535570677261646561626c653a206d757374206e6f742062652063616c60448201527f6c6564207468726f7567682064656c656761746563616c6c000000000000000060648201526084016104fb565b507f360894a13ba1a3210667c828492db98dca3e2076cc3735a920a3ca505d382bbc90565b670de0b6b3a76400005b92915050565b60655473ffffffffffffffffffffffffffffffffffffffff163314610be25760405162461bcd60e51b815260206004820152600a60248201527f61646d696e206f6e6c790000000000000000000000000000000000000000000060448201526064016104fb565b81600f0b6000148015610bf85750600182600f0b125b610c6a5760405162461bcd60e51b815260206004820152602560248201527f4f6e6c79207665594d574b2047617567652063616e206265206164646564206660448201527f6f7220563100000000000000000000000000000000000000000000000000000060648201526084016104fb565b73ffffffffffffffffffffffffffffffffffffffff83166000908152633b9aca6b6020526040902054600f0b15610ce35760405162461bcd60e51b815260206004820152601f60248201527f63616e6e6f7420616464207468652073616d652067617567652074776963650060448201526064016104fb565b606980546fffffffffffffffffffffffffffffffff6001700100000000000000000000000000000000808404600f81900b9283018416909102938316939093179093558591606b9116633b9aca008110610d3f57610d3f611acd565b0180547fffffffffffffffffffffffff00000000000000000000000000000000000000001673ffffffffffffffffffffffffffffffffffffffff92909216919091179055610d8e836001611b2b565b73ffffffffffffffffffffffffffffffffffffffff949094166000908152633b9aca6b6020526040902080547fffffffffffffffffffffffffffffffff00000000000000000000000000000000166fffffffffffffffffffffffffffffffff90951694909417909355505050565b606b81633b9aca008110610e0f57600080fd5b015473ffffffffffffffffffffffffffffffffffffffff16905081565b60655473ffffffffffffffffffffffffffffffffffffffff163314610e935760405162461bcd60e51b815260206004820152600a60248201527f61646d696e206f6e6c790000000000000000000000000000000000000000000060448201526064016104fb565b60665473ffffffffffffffffffffffffffffffffffffffff1680610ef95760405162461bcd60e51b815260206004820152600d60248201527f61646d696e206e6f74207365740000000000000000000000000000000000000060448201526064016104fb565b606580547fffffffffffffffffffffffff00000000000000000000000000000000000000001673ffffffffffffffffffffffffffffffffffffffff83169081179091556040519081527febee2d5739011062cb4f14113f3b36bf0ffe3da5c0568f64189d1012a1189105906020015b60405180910390a150565b60655473ffffffffffffffffffffffffffffffffffffffff163314610fda5760405162461bcd60e51b815260206004820152600a60248201527f61646d696e206f6e6c790000000000000000000000000000000000000000000060448201526064016104fb565b606680547fffffffffffffffffffffffff00000000000000000000000000000000000000001673ffffffffffffffffffffffffffffffffffffffff83169081179091556040519081527f2f56810a6bf40af059b96d3aea4db54081f378029a518390491093a7b67032e990602001610f68565b73ffffffffffffffffffffffffffffffffffffffff81166000908152633b9aca6b6020526040812054600f0b8082036110c85760405162461bcd60e51b815260206004820152601760248201527f6465763a206761756765206973206e6f7420616464656400000000000000000060448201526064016104fb565b6110d3600182611b79565b9392505050565b606a60205260009081526040902080546110f390611912565b80601f016020809104026020016040519081016040528092919081815260200182805461111f90611912565b801561116c5780601f106111415761010080835404028352916020019161116c565b820191906000526020600020905b81548152906001019060200180831161114f57829003601f168201915b505050505081565b60655473ffffffffffffffffffffffffffffffffffffffff1633146102e15760405162461bcd60e51b815260206004820152600a60248201527f61646d696e206f6e6c790000000000000000000000000000000000000000000060448201526064016104fb565b7f4910fdfa16fed3260ed0e7147f7cc6da11a60208b5b9406d12a635614ffd91435460ff161561120e576108d2836113a6565b8273ffffffffffffffffffffffffffffffffffffffff166352d1902d6040518163ffffffff1660e01b8152600401602060405180830381865afa925050508015611293575060408051601f3d9081017fffffffffffffffffffffffffffffffffffffffffffffffffffffffffffffffe016820190925261129091810190611bc7565b60015b6113055760405162461bcd60e51b815260206004820152602e60248201527f45524331393637557067726164653a206e657720696d706c656d656e7461746960448201527f6f6e206973206e6f74205555505300000000000000000000000000000000000060648201526084016104fb565b7f360894a13ba1a3210667c828492db98dca3e2076cc3735a920a3ca505d382bbc811461139a5760405162461bcd60e51b815260206004820152602960248201527f45524331393637557067726164653a20756e737570706f727465642070726f7860448201527f6961626c6555554944000000000000000000000000000000000000000000000060648201526084016104fb565b506108d2838383611496565b73ffffffffffffffffffffffffffffffffffffffff81163b6114305760405162461bcd60e51b815260206004820152602d60248201527f455243313936373a206e657720696d706c656d656e746174696f6e206973206e60448201527f6f74206120636f6e74726163740000000000000000000000000000000000000060648201526084016104fb565b7f360894a13ba1a3210667c828492db98dca3e2076cc3735a920a3ca505d382bbc80547fffffffffffffffffffffffff00000000000000000000000000000000000000001673ffffffffffffffffffffffffffffffffffffffff92909216919091179055565b61149f836114c1565b6000825111806114ac5750805b156108d2576114bb838361150e565b50505050565b6114ca816113a6565b60405173ffffffffffffffffffffffffffffffffffffffff8216907fbc7cd75a20ee27fd9adebab32041f755214dbc6bffa90cc0225b39da2e5c2d3b90600090a250565b60606110d38383604051806060016040528060278152602001611bfd6027913960606000808573ffffffffffffffffffffffffffffffffffffffff16856040516115589190611be0565b600060405180830381855af49150503d8060008114611593576040519150601f19603f3d011682016040523d82523d6000602084013e611598565b606091505b50915091506115a9868383876115b3565b9695505050505050565b6060831561162f5782516000036116285773ffffffffffffffffffffffffffffffffffffffff85163b6116285760405162461bcd60e51b815260206004820152601d60248201527f416464726573733a2063616c6c20746f206e6f6e2d636f6e747261637400000060448201526064016104fb565b5081611639565b6116398383611641565b949350505050565b8151156116515781518083602001fd5b8060405162461bcd60e51b81526004016104fb91906118c1565b803573ffffffffffffffffffffffffffffffffffffffff8116811461168f57600080fd5b919050565b6000602082840312156116a657600080fd5b6110d38261166b565b600080604083850312156116c257600080fd5b6116cb8361166b565b91506116d96020840161166b565b90509250929050565b7f4e487b7100000000000000000000000000000000000000000000000000000000600052604160045260246000fd5b6000806040838503121561172457600080fd5b61172d8361166b565b9150602083013567ffffffffffffffff8082111561174a57600080fd5b818501915085601f83011261175e57600080fd5b813581811115611770576117706116e2565b604051601f82017fffffffffffffffffffffffffffffffffffffffffffffffffffffffffffffffe0908116603f011681019083821181831017156117b6576117b66116e2565b816040528281528860208487010111156117cf57600080fd5b8260208601602083013760006020848301015280955050505050509250929050565b6000806040838503121561180457600080fd5b61180d8361166b565b946020939093013593505050565b8035600f81900b811461168f57600080fd5b60008060006060848603121561184257600080fd5b61184b8461166b565b92506118596020850161181b565b9150604084013590509250925092565b60006020828403121561187b57600080fd5b5035919050565b60006020828403121561189457600080fd5b6110d38261181b565b60005b838110156118b85781810151838201526020016118a0565b50506000910152565b60208152600082518060208401526118e081604085016020870161189d565b601f017fffffffffffffffffffffffffffffffffffffffffffffffffffffffffffffffe0169190910160400192915050565b600181811c9082168061192657607f821691505b60208210810361195f577f4e487b7100000000000000000000000000000000000000000000000000000000600052602260045260246000fd5b50919050565b601f8211156108d257600081815260208120601f850160051c8101602086101561198c5750805b601f850160051c820191505b818110156119ab57828155600101611998565b505050505050565b815167ffffffffffffffff8111156119cd576119cd6116e2565b6119e1816119db8454611912565b84611965565b602080601f831160018114611a3457600084156119fe5750858301515b7fffffffffffffffffffffffffffffffffffffffffffffffffffffffffffffffff600386901b1c1916600185901b1785556119ab565b6000858152602081207fffffffffffffffffffffffffffffffffffffffffffffffffffffffffffffffe08616915b82811015611a8157888601518255948401946001909101908401611a62565b5085821015611abd57878501517fffffffffffffffffffffffffffffffffffffffffffffffffffffffffffffffff600388901b60f8161c191681555b5050505050600190811b01905550565b7f4e487b7100000000000000000000000000000000000000000000000000000000600052603260045260246000fd5b7f4e487b7100000000000000000000000000000000000000000000000000000000600052601160045260246000fd5b600f81810b9083900b016f7fffffffffffffffffffffffffffffff81137fffffffffffffffffffffffffffffffff8000000000000000000000000000000082121715610b7557610b75611afc565b600f82810b9082900b037fffffffffffffffffffffffffffffffff8000000000000000000000000000000081126f7fffffffffffffffffffffffffffffff82131715610b7557610b75611afc565b600060208284031215611bd957600080fd5b5051919050565b60008251611bf281846020870161189d565b919091019291505056fe416464726573733a206c6f772d6c6576656c2064656c65676174652063616c6c206661696c6564a2646970667358221220369624adf18f61b6efb5494f0351a783650020a3b7b05990ed00d8e120273d4164736f6c63430008120033",
  "linkReferences": {},
  "deployedLinkReferences": {}
}