{
  "_format": "hh-sol-artifact-1",
  "contractName": "GaugeControllerV1",
  "sourceName": "contracts/GaugeControllerV1.sol",
  "abi": [
    {
      "anonymous": false,
      "inputs": [
        {
          "indexed": false,
          "internalType": "string",
          "name": "name",
          "type": "string"
        },
        {
          "indexed": false,
          "internalType": "int128",
          "name": "typeId",
          "type": "int128"
        }
      ],
      "name": "AddType",
      "type": "event"
    },
    {
      "anonymous": false,
      "inputs": [
        {
          "indexed": false,
          "internalType": "address",
          "name": "previousAdmin",
          "type": "address"
        },
        {
          "indexed": false,
          "internalType": "address",
          "name": "newAdmin",
          "type": "address"
        }
      ],
      "name": "AdminChanged",
      "type": "event"
    },
    {
      "anonymous": false,
      "inputs": [
        {
          "indexed": false,
          "internalType": "address",
          "name": "admin",
          "type": "address"
        }
      ],
      "name": "ApplyOwnership",
      "type": "event"
    },
    {
      "anonymous": false,
      "inputs": [
        {
          "indexed": true,
          "internalType": "address",
          "name": "beacon",
          "type": "address"
        }
      ],
      "name": "BeaconUpgraded",
      "type": "event"
    },
    {
      "anonymous": false,
      "inputs": [
        {
          "indexed": false,
          "internalType": "address",
          "name": "admin",
          "type": "address"
        }
      ],
      "name": "CommitOwnership",
      "type": "event"
    },
    {
      "anonymous": false,
      "inputs": [
        {
          "indexed": false,
          "internalType": "uint8",
          "name": "version",
          "type": "uint8"
        }
      ],
      "name": "Initialized",
      "type": "event"
    },
    {
      "anonymous": false,
      "inputs": [
        {
          "indexed": true,
          "internalType": "address",
          "name": "implementation",
          "type": "address"
        }
      ],
      "name": "Upgraded",
      "type": "event"
    },
    {
      "inputs": [
        {
          "internalType": "address",
          "name": "addr_",
          "type": "address"
        },
        {
          "internalType": "int128",
          "name": "",
          "type": "int128"
        },
        {
          "internalType": "uint256",
          "name": "",
          "type": "uint256"
        }
      ],
      "name": "addGauge",
      "outputs": [],
      "stateMutability": "nonpayable",
      "type": "function"
    },
    {
      "inputs": [],
      "name": "admin",
      "outputs": [
        {
          "internalType": "address",
          "name": "",
          "type": "address"
        }
      ],
      "stateMutability": "view",
      "type": "function"
    },
    {
      "inputs": [],
      "name": "applyTransferOwnership",
      "outputs": [],
      "stateMutability": "nonpayable",
      "type": "function"
    },
    {
      "inputs": [],
      "name": "checkpoint",
      "outputs": [],
      "stateMutability": "nonpayable",
      "type": "function"
    },
    {
      "inputs": [
        {
          "internalType": "address",
          "name": "",
          "type": "address"
        }
      ],
      "name": "checkpointGauge",
      "outputs": [],
      "stateMutability": "nonpayable",
      "type": "function"
    },
    {
      "inputs": [
        {
          "internalType": "address",
          "name": "addr_",
          "type": "address"
        }
      ],
      "name": "commitTransferOwnership",
      "outputs": [],
      "stateMutability": "nonpayable",
      "type": "function"
    },
    {
      "inputs": [],
      "name": "futureAdmin",
      "outputs": [
        {
          "internalType": "address",
          "name": "",
          "type": "address"
        }
      ],
      "stateMutability": "view",
      "type": "function"
    },
    {
      "inputs": [
        {
          "internalType": "address",
          "name": "",
          "type": "address"
        },
        {
          "internalType": "uint256",
          "name": "",
          "type": "uint256"
        }
      ],
      "name": "gaugeRelativeWeight",
      "outputs": [
        {
          "internalType": "uint256",
          "name": "",
          "type": "uint256"
        }
      ],
      "stateMutability": "pure",
      "type": "function"
    },
    {
      "inputs": [
        {
          "internalType": "int128",
          "name": "",
          "type": "int128"
        }
      ],
      "name": "gaugeTypeNames",
      "outputs": [
        {
          "internalType": "string",
          "name": "",
          "type": "string"
        }
      ],
      "stateMutability": "view",
      "type": "function"
    },
    {
      "inputs": [
        {
          "internalType": "address",
          "name": "addr_",
          "type": "address"
        }
      ],
      "name": "gaugeTypes",
      "outputs": [
        {
          "internalType": "int128",
          "name": "",
          "type": "int128"
        }
      ],
      "stateMutability": "view",
      "type": "function"
    },
    {
      "inputs": [
        {
          "internalType": "address",
          "name": "",
          "type": "address"
        }
      ],
      "name": "gaugeTypes_",
      "outputs": [
        {
          "internalType": "int128",
          "name": "",
          "type": "int128"
        }
      ],
      "stateMutability": "view",
      "type": "function"
    },
    {
      "inputs": [
        {
          "internalType": "uint256",
          "name": "",
          "type": "uint256"
        }
      ],
      "name": "gauges",
      "outputs": [
        {
          "internalType": "address",
          "name": "",
          "type": "address"
        }
      ],
      "stateMutability": "view",
      "type": "function"
    },
    {
      "inputs": [
        {
          "internalType": "address",
          "name": "token_",
          "type": "address"
        },
        {
          "internalType": "address",
          "name": "votingEscrow_",
          "type": "address"
        }
      ],
      "name": "initialize",
      "outputs": [],
      "stateMutability": "nonpayable",
      "type": "function"
    },
    {
      "inputs": [],
      "name": "nGaugeTypes",
      "outputs": [
        {
          "internalType": "int128",
          "name": "",
          "type": "int128"
        }
      ],
      "stateMutability": "view",
      "type": "function"
    },
    {
      "inputs": [],
      "name": "nGauges",
      "outputs": [
        {
          "internalType": "int128",
          "name": "",
          "type": "int128"
        }
      ],
      "stateMutability": "view",
      "type": "function"
    },
    {
      "inputs": [],
      "name": "proxiableUUID",
      "outputs": [
        {
          "internalType": "bytes32",
          "name": "",
          "type": "bytes32"
        }
      ],
      "stateMutability": "view",
      "type": "function"
    },
    {
      "inputs": [],
      "name": "token",
      "outputs": [
        {
          "internalType": "address",
          "name": "",
          "type": "address"
        }
      ],
      "stateMutability": "view",
      "type": "function"
    },
    {
      "inputs": [
        {
          "internalType": "address",
          "name": "newImplementation",
          "type": "address"
        }
      ],
      "name": "upgradeTo",
      "outputs": [],
      "stateMutability": "nonpayable",
      "type": "function"
    },
    {
      "inputs": [
        {
          "internalType": "address",
          "name": "newImplementation",
          "type": "address"
        },
        {
          "internalType": "bytes",
          "name": "data",
          "type": "bytes"
        }
      ],
      "name": "upgradeToAndCall",
      "outputs": [],
      "stateMutability": "payable",
      "type": "function"
    },
    {
      "inputs": [],
      "name": "votingEscrow",
      "outputs": [
        {
          "internalType": "address",
          "name": "",
          "type": "address"
        }
      ],
      "stateMutability": "view",
      "type": "function"
    }
  ],
  "bytecode": "0x60a06040523060805234801561001457600080fd5b50608051611af761004c6000396000818161046b01528181610506015281816108ee015281816109840152610ab30152611af76000f3fe60806040526004361061015f5760003560e01c80639fbd4f66116100c0578063e1cebf0b11610074578063e4036c6d11610059578063e4036c6d146103cd578063f851a440146103fa578063fc0c546a1461042757600080fd5b8063e1cebf0b1461038d578063e24862e8146103ad57600080fd5b8063c2c4c5c1116100a5578063c2c4c5c11461033e578063dd2b117f1461034a578063df0ab9d31461037857600080fd5b80639fbd4f66146102fe578063b05391871461031e57600080fd5b806352d1902d116101175780637bb9e298116100fc5780637bb9e298146102805780638aca6a23146102c65780639e08e3ef146102e457600080fd5b806352d1902d1461023d57806365c604681461026057600080fd5b80634cb654af116101485780634cb654af146101a65780634f1ef286146101fd5780634f2bfe5b1461021057600080fd5b80633659cfe614610164578063485cc95514610186575b600080fd5b34801561017057600080fd5b5061018461017f3660046115b7565b610454565b005b34801561019257600080fd5b506101846101a13660046115d2565b610627565b3480156101b257600080fd5b506066546101d39073ffffffffffffffffffffffffffffffffffffffff1681565b60405173ffffffffffffffffffffffffffffffffffffffff90911681526020015b60405180910390f35b61018461020b366004611634565b6108d7565b34801561021c57600080fd5b506068546101d39073ffffffffffffffffffffffffffffffffffffffff1681565b34801561024957600080fd5b50610252610a99565b6040519081526020016101f4565b34801561026c57600080fd5b5061025261027b366004611714565b610b6b565b34801561028c57600080fd5b506102b361029b3660046115b7565b633b9aca6b60205260009081526040902054600f0b81565b604051600f9190910b81526020016101f4565b3480156102d257600080fd5b506101846102e13660046115b7565b50565b3480156102f057600080fd5b506069546102b390600f0b81565b34801561030a57600080fd5b50610184610319366004611750565b610b7b565b34801561032a57600080fd5b506101d361033936600461178c565b610d1f565b34801561018457600080fd5b34801561035657600080fd5b506069546102b3907001000000000000000000000000000000009004600f0b81565b34801561038457600080fd5b50610184610d4f565b34801561039957600080fd5b506101846103a83660046115b7565b610e96565b3480156103b957600080fd5b506102b36103c83660046115b7565b610f70565b3480156103d957600080fd5b506103ed6103e83660046117a5565b610ffd565b6040516101f491906117e4565b34801561040657600080fd5b506065546101d39073ffffffffffffffffffffffffffffffffffffffff1681565b34801561043357600080fd5b506067546101d39073ffffffffffffffffffffffffffffffffffffffff1681565b73ffffffffffffffffffffffffffffffffffffffff7f00000000000000000000000000000000000000000000000000000000000000001630036105045760405162461bcd60e51b815260206004820152602c60248201527f46756e6374696f6e206d7573742062652063616c6c6564207468726f7567682060448201527f64656c656761746563616c6c000000000000000000000000000000000000000060648201526084015b60405180910390fd5b7f000000000000000000000000000000000000000000000000000000000000000073ffffffffffffffffffffffffffffffffffffffff166105797f360894a13ba1a3210667c828492db98dca3e2076cc3735a920a3ca505d382bbc5473ffffffffffffffffffffffffffffffffffffffff1690565b73ffffffffffffffffffffffffffffffffffffffff16146106025760405162461bcd60e51b815260206004820152602c60248201527f46756e6374696f6e206d7573742062652063616c6c6564207468726f7567682060448201527f6163746976652070726f7879000000000000000000000000000000000000000060648201526084016104fb565b61060b81611097565b604080516000808252602082019092526102e1918391906110fe565b600054610100900460ff16158080156106475750600054600160ff909116105b806106615750303b158015610661575060005460ff166001145b6106d35760405162461bcd60e51b815260206004820152602e60248201527f496e697469616c697a61626c653a20636f6e747261637420697320616c72656160448201527f647920696e697469616c697a656400000000000000000000000000000000000060648201526084016104fb565b600080547fffffffffffffffffffffffffffffffffffffffffffffffffffffffffffffff00166001179055801561073157600080547fffffffffffffffffffffffffffffffffffffffffffffffffffffffffffff00ff166101001790555b73ffffffffffffffffffffffffffffffffffffffff831661075157600080fd5b73ffffffffffffffffffffffffffffffffffffffff821661077157600080fd5b60658054337fffffffffffffffffffffffff00000000000000000000000000000000000000009182161790915560678054821673ffffffffffffffffffffffffffffffffffffffff8681169190911790915560688054909216908416179055606954604080518082018252600681527f7665594d574b0000000000000000000000000000000000000000000000000000602080830191909152600f9390930b6000818152606a90945291909220909161082a90826118d6565b50606980547fffffffffffffffffffffffffffffffff00000000000000000000000000000000166001929092016fffffffffffffffffffffffffffffffff1691909117905580156108d257600080547fffffffffffffffffffffffffffffffffffffffffffffffffffffffffffff00ff169055604051600181527f7f26b83ff96e1f2b6a682f133852f6798a09c465da95921460cefb38474024989060200160405180910390a15b505050565b73ffffffffffffffffffffffffffffffffffffffff7f00000000000000000000000000000000000000000000000000000000000000001630036109825760405162461bcd60e51b815260206004820152602c60248201527f46756e6374696f6e206d7573742062652063616c6c6564207468726f7567682060448201527f64656c656761746563616c6c000000000000000000000000000000000000000060648201526084016104fb565b7f000000000000000000000000000000000000000000000000000000000000000073ffffffffffffffffffffffffffffffffffffffff166109f77f360894a13ba1a3210667c828492db98dca3e2076cc3735a920a3ca505d382bbc5473ffffffffffffffffffffffffffffffffffffffff1690565b73ffffffffffffffffffffffffffffffffffffffff1614610a805760405162461bcd60e51b815260206004820152602c60248201527f46756e6374696f6e206d7573742062652063616c6c6564207468726f7567682060448201527f6163746976652070726f7879000000000000000000000000000000000000000060648201526084016104fb565b610a8982611097565b610a95828260016110fe565b5050565b60003073ffffffffffffffffffffffffffffffffffffffff7f00000000000000000000000000000000000000000000000000000000000000001614610b465760405162461bcd60e51b815260206004820152603860248201527f555550535570677261646561626c653a206d757374206e6f742062652063616c60448201527f6c6564207468726f7567682064656c656761746563616c6c000000000000000060648201526084016104fb565b507f360894a13ba1a3210667c828492db98dca3e2076cc3735a920a3ca505d382bbc90565b670de0b6b3a76400005b92915050565b60655473ffffffffffffffffffffffffffffffffffffffff163314610be25760405162461bcd60e51b815260206004820152600a60248201527f61646d696e206f6e6c790000000000000000000000000000000000000000000060448201526064016104fb565b6069546001700100000000000000000000000000000000909104600f0b12610c725760405162461bcd60e51b815260206004820152602560248201527f4f6e6c79207665594d574b2047617567652063616e206265206164646564206660448201527f6f7220563100000000000000000000000000000000000000000000000000000060648201526084016104fb565b5050606980546fffffffffffffffffffffffffffffffff16700100000000000000000000000000000000179055606b80547fffffffffffffffffffffffff00000000000000000000000000000000000000001673ffffffffffffffffffffffffffffffffffffffff9290921691821790556000908152633b9aca6b6020526040902080547fffffffffffffffffffffffffffffffff00000000000000000000000000000000166001179055565b606b81633b9aca008110610d3257600080fd5b015473ffffffffffffffffffffffffffffffffffffffff16905081565b60655473ffffffffffffffffffffffffffffffffffffffff163314610db65760405162461bcd60e51b815260206004820152600a60248201527f61646d696e206f6e6c790000000000000000000000000000000000000000000060448201526064016104fb565b60665473ffffffffffffffffffffffffffffffffffffffff1680610e1c5760405162461bcd60e51b815260206004820152600d60248201527f61646d696e206e6f74207365740000000000000000000000000000000000000060448201526064016104fb565b606580547fffffffffffffffffffffffff00000000000000000000000000000000000000001673ffffffffffffffffffffffffffffffffffffffff83169081179091556040519081527febee2d5739011062cb4f14113f3b36bf0ffe3da5c0568f64189d1012a1189105906020015b60405180910390a150565b60655473ffffffffffffffffffffffffffffffffffffffff163314610efd5760405162461bcd60e51b815260206004820152600a60248201527f61646d696e206f6e6c790000000000000000000000000000000000000000000060448201526064016104fb565b606680547fffffffffffffffffffffffff00000000000000000000000000000000000000001673ffffffffffffffffffffffffffffffffffffffff83169081179091556040519081527f2f56810a6bf40af059b96d3aea4db54081f378029a518390491093a7b67032e990602001610e8b565b73ffffffffffffffffffffffffffffffffffffffff81166000908152633b9aca6b6020526040812054600f0b808203610feb5760405162461bcd60e51b815260206004820152601760248201527f6465763a206761756765206973206e6f7420616464656400000000000000000060448201526064016104fb565b610ff66001826119f0565b9392505050565b606a602052600090815260409020805461101690611835565b80601f016020809104026020016040519081016040528092919081815260200182805461104290611835565b801561108f5780601f106110645761010080835404028352916020019161108f565b820191906000526020600020905b81548152906001019060200180831161107257829003601f168201915b505050505081565b60655473ffffffffffffffffffffffffffffffffffffffff1633146102e15760405162461bcd60e51b815260206004820152600a60248201527f61646d696e206f6e6c790000000000000000000000000000000000000000000060448201526064016104fb565b7f4910fdfa16fed3260ed0e7147f7cc6da11a60208b5b9406d12a635614ffd91435460ff1615611131576108d2836112c9565b8273ffffffffffffffffffffffffffffffffffffffff166352d1902d6040518163ffffffff1660e01b8152600401602060405180830381865afa9250505080156111b6575060408051601f3d9081017fffffffffffffffffffffffffffffffffffffffffffffffffffffffffffffffe01682019092526111b391810190611a65565b60015b6112285760405162461bcd60e51b815260206004820152602e60248201527f45524331393637557067726164653a206e657720696d706c656d656e7461746960448201527f6f6e206973206e6f74205555505300000000000000000000000000000000000060648201526084016104fb565b7f360894a13ba1a3210667c828492db98dca3e2076cc3735a920a3ca505d382bbc81146112bd5760405162461bcd60e51b815260206004820152602960248201527f45524331393637557067726164653a20756e737570706f727465642070726f7860448201527f6961626c6555554944000000000000000000000000000000000000000000000060648201526084016104fb565b506108d28383836113b9565b73ffffffffffffffffffffffffffffffffffffffff81163b6113535760405162461bcd60e51b815260206004820152602d60248201527f455243313936373a206e657720696d706c656d656e746174696f6e206973206e60448201527f6f74206120636f6e74726163740000000000000000000000000000000000000060648201526084016104fb565b7f360894a13ba1a3210667c828492db98dca3e2076cc3735a920a3ca505d382bbc80547fffffffffffffffffffffffff00000000000000000000000000000000000000001673ffffffffffffffffffffffffffffffffffffffff92909216919091179055565b6113c2836113e4565b6000825111806113cf5750805b156108d2576113de8383611431565b50505050565b6113ed816112c9565b60405173ffffffffffffffffffffffffffffffffffffffff8216907fbc7cd75a20ee27fd9adebab32041f755214dbc6bffa90cc0225b39da2e5c2d3b90600090a250565b6060610ff68383604051806060016040528060278152602001611a9b6027913960606000808573ffffffffffffffffffffffffffffffffffffffff168560405161147b9190611a7e565b600060405180830381855af49150503d80600081146114b6576040519150601f19603f3d011682016040523d82523d6000602084013e6114bb565b606091505b50915091506114cc868383876114d6565b9695505050505050565b6060831561155257825160000361154b5773ffffffffffffffffffffffffffffffffffffffff85163b61154b5760405162461bcd60e51b815260206004820152601d60248201527f416464726573733a2063616c6c20746f206e6f6e2d636f6e747261637400000060448201526064016104fb565b508161155c565b61155c8383611564565b949350505050565b8151156115745781518083602001fd5b8060405162461bcd60e51b81526004016104fb91906117e4565b803573ffffffffffffffffffffffffffffffffffffffff811681146115b257600080fd5b919050565b6000602082840312156115c957600080fd5b610ff68261158e565b600080604083850312156115e557600080fd5b6115ee8361158e565b91506115fc6020840161158e565b90509250929050565b7f4e487b7100000000000000000000000000000000000000000000000000000000600052604160045260246000fd5b6000806040838503121561164757600080fd5b6116508361158e565b9150602083013567ffffffffffffffff8082111561166d57600080fd5b818501915085601f83011261168157600080fd5b81358181111561169357611693611605565b604051601f82017fffffffffffffffffffffffffffffffffffffffffffffffffffffffffffffffe0908116603f011681019083821181831017156116d9576116d9611605565b816040528281528860208487010111156116f257600080fd5b8260208601602083013760006020848301015280955050505050509250929050565b6000806040838503121561172757600080fd5b6117308361158e565b946020939093013593505050565b8035600f81900b81146115b257600080fd5b60008060006060848603121561176557600080fd5b61176e8461158e565b925061177c6020850161173e565b9150604084013590509250925092565b60006020828403121561179e57600080fd5b5035919050565b6000602082840312156117b757600080fd5b610ff68261173e565b60005b838110156117db5781810151838201526020016117c3565b50506000910152565b60208152600082518060208401526118038160408501602087016117c0565b601f017fffffffffffffffffffffffffffffffffffffffffffffffffffffffffffffffe0169190910160400192915050565b600181811c9082168061184957607f821691505b602082108103611882577f4e487b7100000000000000000000000000000000000000000000000000000000600052602260045260246000fd5b50919050565b601f8211156108d257600081815260208120601f850160051c810160208610156118af5750805b601f850160051c820191505b818110156118ce578281556001016118bb565b505050505050565b815167ffffffffffffffff8111156118f0576118f0611605565b611904816118fe8454611835565b84611888565b602080601f83116001811461195757600084156119215750858301515b7fffffffffffffffffffffffffffffffffffffffffffffffffffffffffffffffff600386901b1c1916600185901b1785556118ce565b6000858152602081207fffffffffffffffffffffffffffffffffffffffffffffffffffffffffffffffe08616915b828110156119a457888601518255948401946001909101908401611985565b50858210156119e057878501517fffffffffffffffffffffffffffffffffffffffffffffffffffffffffffffffff600388901b60f8161c191681555b5050505050600190811b01905550565b600f82810b9082900b037fffffffffffffffffffffffffffffffff8000000000000000000000000000000081126f7fffffffffffffffffffffffffffffff82131715610b75577f4e487b7100000000000000000000000000000000000000000000000000000000600052601160045260246000fd5b600060208284031215611a7757600080fd5b5051919050565b60008251611a908184602087016117c0565b919091019291505056fe416464726573733a206c6f772d6c6576656c2064656c65676174652063616c6c206661696c6564a26469706673582212208565acb5242e9d9753efdb43dbdad949c042b5732ce3004e85b5a6c8fff7831564736f6c63430008120033",
  "linkReferences": {},
  "deployedLinkReferences": {}
}